:02000002B0004C
:1040000000400B00E84E0B00000006000C0005020B
:084010000401810C0000000016
:044018003C4C0B0011
:10401C0009480A49884208B505D0094A824202D0AB
:10402C00121A00F053FD0748074A0021121A00F03B
:10403C005BFD014808BD00BF70E60320544E0B0029
:10404C00DCE60320DCE60320EDE7032070B5074E29
:10405C00074C00F007FCA41BA4080025AC4200D1BF
:10406C0070BD56F8043B98470135F7E7304E0B000E
:10407C00504E0B0000F013B808B500F011F8BDE875
:10408C00084000F0A7BB00F029B900F02FB9007868
:10409C00B0FA80F0400970470123037070477047F5
:1040AC007047000008B5024B1B681B68019308BDE4
:1040BC004C02030008B5024B1B681B69019308BD39
:1040CC004C02030008B5024B1B685B69019308BDE9
:1040DC004C02030008B5024B1B689B69019308BD99
:1040EC004C02030008B5024B1B68DB69019308BD49
:1040FC004C02030008B5024B1B681B6A019308BDF8
:10410C004C02030008B5024B1B68DB68019308BD29
:10411C003C02030008B5024B1B681B69019308BDE8
:10412C003C02030008B5024B1B685B69019308BD98
:10413C003C02030008B5024B1B689B69019308BD48
:10414C003C02030008B5024B1B68DB69019308BDF8
:10415C003C02030008B5024B1B689B6A019308BD27
:10416C003C02030008B5024B1B681B6C019308BD95
:10417C003C02030008B5024B1B685B69019308BD48
:10418C006402030008B5024B1B685B6C019308BD0D
:10419C004802030008B5024B1B685B68019308BD1D
:1041AC001802030008B5024B1B685B69019308BD3C
:1041BC001802030008B5024B1B689B68019308BDED
:1041CC006802030008B5024B1B68DB68019308BD4D
:1041DC006802030008B5024B1B68DB6B019308BD3A
:1041EC004402030008B5024B1B685B68019308BDD1
:1041FC004002030008B5024B1B689B68019308BD85
:10420C004002030008B5024B1B68DB68019308BD34
:10421C004002030008B5024B1B681B69019308BDE3
:10422C004002030008B5024B1B685B69019308BD93
:10423C004002030008B5024B1B689B69019308BD43
:10424C004002030008B5024B1B68DB69019308BDF3
:10425C004002030008B5024B1B681B6A019308BDA2
:10426C004002030008B5024B1B681B6B019308BD91
:10427C004002030008B5024B1B685B6B019308BD41
:10428C004002030008B5024B1B681B6C019308BD70
:10429C004002030008B5024B1B685B6C019308BD20
:1042AC004002030008B5024B1B685B68019308BD14
:1042BC002002030008B5034B1B68D3F88830019328
:1042CC0008BD00002002030008B5034B1B68D3F89F
:1042DC009430019308BD00002002030008B5024B86
:1042EC001B681B68019308BD1C02030008B5024B38
:1042FC001B685B68019308BD1C02030008B5024BE8
:10430C001B681B6C019308BD1C02030008B5024B13
:10431C001B685B6C019308BD1C0203000023406802
:10432C001A46FFF75FBF406800220221FFF76ABF01
:10433C00002240681146FFF75DBF0022406811461D
:10434C00FFF768BF002340681A461946FFF76ABF9B
:10435C00002340681A461946FFF76CBF40680021DD
:10436C00FFF790BF40680021FFF794BF4068002220
:10437C0081F00101FFF766BF40680022FFF772BFB2
:10438C00002240681146FFF775BF002240681146B5
:10439C00FFF760BF2DE9F04395B014460D46074674
:1043AC0000F0B8F900211C220DA8009100F09CFB34
:1043BC0040230C9320466B460CAA0021FFF702FF0A
:1043CC00044600284BD1024601216868FFF722FF02
:1043DC000221804622466868FFF71CFF009E81463A
:1043EC002146002E3BD0002939D17368022B03D013
:1043FC000A2B11D0F669F4E7B8F1000FFAD0716905
:10440C0006A8043107AD00F0B3F90FCD3C1D0FC465
:10441C002B6823704146EDE7B9F1000FEAD07469BF
:10442C00102201A800F060FB06238DF8143001ADBA
:10443C0004F108031834186859682A4603C2083373
:10444C00A3421546F7D101A906A807AD00F070F9F3
:10445C000FCD3C1D0FC42B6823704946CAE700984A
:10446C00FFF7A8FE384615B0BDE8F083024B034AAF
:10447C001A6000225A607047DCE60320584C0B008F
:10448C00002240681146FFF7C5BE00224068114665
:10449C00FFF7E0BE002240681146FFF7EBBE406814
:1044AC000022FFF7DFBE4068002281F00101FFF718
:1044BC00C9BE002340681A461946FFF7BBBE00234D
:1044CC0040681A461946FFF7ADBE002240681146F7
:1044DC00FFF790BE406800220221FFF793BE002335
:1044EC0040681A46FFF77EBE024B04225A60024A0D
:1044FC001A607047E4E60320944C0B00704741743B
:10450C00704708B5007CFFF725FE20EAE07008BD77
:10451C0008B5007CFFF7FEFD20EAE07008BD08B589
:10452C00007CFFF707FE40EAE07008BD08B5007C90
:10453C00FFF7F8FD40EAE07008BD007CFFF702BE13
:10454C0037B5457C04462DB1207C03B0BDE8304026
:10455C00FFF7D8BD007C0191FFF7FCFD0028019905
:10456C00F2DC284603B030BD10B514210446FFF729
:10457C008CFD204610BD000010B54FF47A73044634
:10458C00084611460022C4E90123044B2360012391
:10459C0020746374FFF7E6FD204610BDD04C0B0071
:1045AC00417470477047704708B50021007CFFF7D5
:1045BC0091FD40EAE07008BD08B50121007CFFF7D1
:1045CC0089FD40EAE07008BD08B5007CFFF77AFD74
:1045DC0020EAE07008BD08B5007CFFF76BFD20EA0F
:1045EC00E07008BD13B50446007C0191FFF76AFD2D
:1045FC000028019901DC607C20B1207CFFF772FD62
:10460C0020EAE07002B010BD007CFFF773BD10B55E
:10461C0014210446FFF739FD204610BD10B54FF4A8
:10462C007A73044608460021C4E90113044B236045
:10463C000123207463741146FFF734FD204610BD2E
:10464C00004D0B0010B514220446002100F04CFA6A
:10465C00204610BD10B50F4C88B003A8FFF7F2FF31
:10466C002178BFF35B8F11F001010FD1204601912E
:10467C00FFF70DFD019948B103AA0748FFF7CEFFDC
:10468C002046FFF709FD054800F01AFA024808B069
:10469C0010BD00BFECE60320F0E60320B1450B0093
:1046AC00704710B518210446FFF7EFFC204610BDEB
:1046BC00F0B5037D062B8DB00E4600F104074FF0CC
:1046CC00000412D000F1080515F8011D0A2230462D
:1046DC0000F03DF9AF42044419D0002CF4D02E2147
:1046EC00304600F031F90444EEE72F236A46394690
:1046FC000A208DF80040FFF73DFD684600F02AFACD
:10470C0033680246DB6869463046984704462046C3
:10471C000DB0F0BD10B5054B0446112240F8043B1A
:10472C00002100F0E1F9204610BD00BF304D0B0018
:10473C000346074A10B543F8042B01F1100251F857
:10474C00044B43F8044B9142F9D10A781A7010BD0E
:10475C00304D0B0010B59DF8084044EA032343EAA2
:10476C00024242EA016104234160037510BD00005E
:10477C0007B5064B0360CB7800938B784A780978A1
:10478C00FFF7E8FF03B05DF804FB00BF304D0B00F2
:10479C00014B1860704700BF74E6032008B50B4B43
:1047AC0043B1FFF757FF03681B699847002801DDE9
:1047BC00AFF30080064B43B100F05CF903681B6952
:1047CC009847002801DDAFF3008008BD0000000011
:1047DC000000000008B5FFF7E1FFFFF7E3FC014B19
:1047EC00186008BD40E703200548064A064908B58D
:1047FC00121A00F06BF9054B054A1A6008BD00BF90
:10480C0000F4032004F40320504E0B0000F40320AA
:10481C001E1C279A07B5002300931A466FF07701E8
:10482C00FFF752FD03B05DF804FB000007B54388A9
:10483C000A2B08D0502B0BD1094B1B684BB103B082
:10484C005DF804EB1847FFF7E5FF03B05DF804FBD8
:10485C00002300931A466FF07701FFF735FDF4E75C
:10486C0008E7032010B512480021FFF74FFD114B4C
:10487C001A68114B9A42114B0CBF012200221A707C
:10488C0001D0FFF7B1FFFFF785FC044600F034F9C7
:10489C000B4B13B12046AFF3008000210848FFF703
:1048AC0099FCBDE8104007480021FFF703BD00BF8D
:1048BC009D470B0000F403201E1C279A04E70320DD
:1048CC000000000039480B00014B00229A60704731
:1048DC000CE70320024B1A68024B1A60704700BFAA
:1048EC0070E603201CE70320014B024A1A60704754
:1048FC0020E70320584D0B00F8B506460D468F18DF
:10490C000024BD420CD0336815F8011B9B6830465F
:10491C009847031E01DB1C44F3E7002C08BF1C4620
:10492C002046F8BD13B50446084659B1019100F074
:10493C0011F923680199DB680246204602B0BDE8F4
:10494C001040184702B010BD03689B68184730B57B
:10495C008BB00023012A8DF8243098BF0A2209ACB1
:10496C000D46B1FBF2F101FB125303F0FF03092BCF
:10497C0094BF30333733DBB2AA4204F8013DEFD990
:10498C002146FFF7CFFF0BB030BD000002480023DB
:10499C000360FFF7F7BB00BF24E70320054B02229F
:1049AC001A60054B054A9A600020C3E90000FFF726
:1049BC0079BC00BF34E7032028E703200000FFFF89
:1049CC00002240681146FFF745BC002240681146A2
:1049DC00FFF750BC40680022FFF744BC406800223F
:1049EC0081F00101FFF72EBC002340681A461946DE
:1049FC00FFF720BC002340681A461946FFF712BC8B
:104A0C00002240681146FFF705BC002240681146A1
:104A1C00FFF7F0BB406800220221FFF7F3BB002335
:104A2C0040681A46FFF7DEBB024B03225A60024A6B
:104A3C001A60704738E70320644D0B007047000084
:104A4C0038B5044614252A46002100F04DF825807F
:104A5C004025074925812846258200F02FF8044976
:104A6C006060284600F02AF8E060204638BD00BFA0
:104A7C00984D0B0030B50E4D2978BFF35B8F11F0BC
:104A8C00010487B011D12846FFF701FB68B101A8DA
:104A9C00FFF7D6FF01AA21460648FFF76DFD284611
:104AAC00FFF7FAFA044800F00BF8024807B030BDE3
:104ABC0044E7032048E70320494A0B00FFF7E3BA19
:104ACC00002301461A46184600F04CB80A4491429D
:104ADC0000F1FF3300D1704710B511F8014B03F80A
:104AEC00014F9142F9D110BD02440346934200D1CB
:104AFC00704703F8011BF9E738B5104B1D68AB6B19
:104B0C000446B3B91820FFF7E9FB0246A86320B9A5
:104B1C000B4B0C484221FFF7F1FB0B490B4BC0E947
:104B2C0000130B4B83600B23838100210120C2E90E
:104B3C000401AB6B00221C615A6138BD74E6032082
:104B4C00994D0B00B04D0B000E33CDAB34126DE60E
:104B5C00ECDE0500034613F8012B002AFBD1181AD2
:104B6C00013870472DE9F843DFF8B8800646D8F8CD
:104B7C0000001F460D46914600F056F8254B1C6868
:104B8C0034B9254C1C60254B13B11B68C4F8883014
:104B9C0063681F2B07DDD8F8000000F047F84FF0D2
:104BAC00FF30BDE8F8834EB3D4F8880088B91C4BAD
:104BBC0023B9D8F8000000F038F8F0E74FF484700F
:104BCC00FFF78CFB0028F4D00023C0E94033C4F875
:104BDC008800636840F8239001229A4000EB83011F
:104BEC00D0F800311343C0F80031022EC1F88070A8
:104BFC0002BFD0F804311343C0F804316368D8F80D
:104C0C0000005A1C0233626044F8235000F00EF886
:104C1C000020C6E7E8E703205CE703200000000063
:104C2C00E9420B00D8E6032070477047704700003C
:104C3C001D400B0059400B0081400B0085400B00C0
:104C4C0000000000000000000000000029430B00E1
:104C5C0033430B003D430B0047430B0051430B0008
:104C6C005D430B0069430B0071430B0079430B0050
:104C7C0085430B008D430B0097430B00A1430B00A6
:104C8C000000000000000000EB440B00E1440B00AE
:104C9C00D7440B008D440B00CB440B00BF440B00DE
:104CAC0069430B0071430B00B3440B00AB440B0086
:104CBC00A1440B0097440B00A1430B000000000023
:104CCC000000000009450B0075450B004D450B001D
:104CDC0005490B001D450B0039450B002B450B00FE
:104CEC0047450B000B450B000F450B000000000067
:104CFC0000000000B3450B001B460B00F1450B00F8
:104D0C0005490B00E3450B00B5450B00C5450B00F1
:104D1C0015460B00D5450B00AD450B0000000000FF
:104D2C0000000000BD460B00AD460B00AF460B006B
:104D3C0025592D256D2D25645425483A254D3A25A8
:104D4C0053257A0061736374696D6500617070003E
:104D5C0000000000000000002B4A0B00214A0B0051
:104D6C00174A0B000D4A0B00014A0B00F5490B00CA
:104D7C0069430B0071430B00E9490B00E1490B003F
:104D8C00D7490B00CD490B00A1430B000052454500
:104D9C004E54206D616C6C6F632073756363656535
:104DAC00646564002F6D6E742F776F726B73706116
:104DBC0063652F776F726B73706163652F47434325
:104DCC002D31302D706970656C696E652F6A656E5A
:104DDC006B696E732D4743432D31302D70697065AF
:104DEC006C696E652D34385F32303230313132348B
:104DFC005F313630363138303634312F7372632FA1
:104E0C006E65776C69622F6E65776C69622F6C6961
:104E1C0062632F7374646C69622F72616E642E63AB
:104E2C000000000079440B00F5440B00D5480B0042
:104E3C00E1480B00F5480B0099490B00A9490B0000
:044E4C00354A0B00D8
:044E5000000000005E
:104E5400504D0B0078E60320000000000000000025
:104E6400000000000000000000000000000000003E
:104E7400000000000000000000000000000000002E
:104E8400000000000000000000000000000000001E
:104E9400000000000000000000000000000000000E
:104EA40000000000000000000000000000000000FE
:0C4EB4000000000000000000ECE70320FC
:104EC000FFFFFFFF00000102030405060708090AAF
:104ED0000B0C0D0E0F101112131415161718191AAA
:084EE0001B1C1D1E1F202800F1
:044EE80078563412B2
:04000003B000401CED
:00000001FF
