:02000002B0004C
:1040000000400B005C690B00000006000C0005027C
:084010000401810C0000000016
:04401800D8630B005E
:10401C0009480A49884208B505D0094A824202D0AB
:10402C00121A02F0D9F80748074A0021121A02F0B6
:10403C00E1F8014808BD00BF58E50320B4680B0047
:10404C00D8E50320D8E50320EDE7032070B5074E33
:10405C00074C01F0BDFDA41BA4080025AC4200D107
:10406C0070BD56F8043B98470135F7E780680B00A4
:10407C00A4680B0000F060B808B500F007F9BDE8C3
:10408C00084001F05DBD00F067BF00F065BF00F0B7
:10409C006BBF0078B0FA80F04009704701230370C1
:1040AC007047000010B5034B0360044600F02EF976
:1040BC00204610BDC4640B0010B50446FFF7F2FF98
:1040CC0020464FF49871FFF7E2FF204610BD000028
:1040DC00F8B5134D134E144F114800F076FB0446FF
:1040EC00E0B901F057FC314601F0F7FD0F492346CA
:1040FC003A46284600F048FC30B101F04BFCBDE8D4
:10410C00F8400B4901F0E9BD01F044FC094901F00C
:10411C00E4FD40F6B83001F093FDDDE7F8BD00BFDB
:10412C00DCE50320EC630B0028640B003D640B0002
:10413C0043640B005D640B0008B501F02BFC4FF4DD
:10414C00165101F01BFC0121072001F001FF40F288
:10415C005B720549054800F016FDFFF7B9FF044BEB
:10416C0041F288321A6008BD59E50320DCE50320D2
:10417C00D8E5032037B504461546019100F0D2F975
:10418C0001990122204600F03BF920463A2100F02B
:10419C00EBF804492A46204603B0BDE8304000F055
:1041AC0022B900BF88650B0070B5CCB02C4E2D4DDC
:1041BC000CA94FF48072684600F0C4F82A4B0093A7
:1041CC007D227B21684600F0B8F93146284601F083
:1041DC00E8FA4FF47A74254990FBF4F26846FFF73D
:1041EC00C9FF3146284601F0DCFA214990FBF4F274
:1041FC006846FFF7BFFF3146284601F0D2FA1D4949
:10420C0090FBF4F26846FFF7B5FF3146284601F003
:10421C00C8FA194990FBF4F26846FFF7ABFF314638
:10422C00284601F0BEFA154990FBF4F2144C68468E
:10423C00FFF7A0FF019A1349134800F093FC217873
:10424C00072001F096FE2378684683F00103237063
:10425C0000F098F86846FFF725FF4CB070BD00BF22
:10426C0098AB0200F8240100C4640B0093640B00AB
:10427C0096640B0099640B009C640B009F640B000C
:10428C0058E50320A2640B00DCE5032010B5094CB3
:10429C0000F096FD2368C01A41F28833984204D985
:1042AC00FFF782FF00F08CFD2060BDE81040024853
:1042BC0000F074BBD8E50320DCE5032008B5054904
:1042CC00084601F045FABDE808400249024800F0F2
:1042DC005DB900BF9CE60320DCE5032010B5054B5F
:1042EC000360037C04461BB9406808B100F03CFE37
:1042FC00204610BDDC640B0010B50446FFF7EEFF42
:10430C0020461421FFF7C3FE204610BD10B5034B09
:10431C0003600446FFF7E2FF204610BDEC640B007F
:10432C0010B50446FFF7F2FF20463021FFF7AFFE31
:10433C00204610BD00230122C3604361028380F834
:10434C002A307047C0E9011208B50022C260012270
:10435C000274044A02604FF0FF32C262FFF7EAFFB8
:10436C0008BD00BFEC640B00D0E9022310B59342EA
:10437C003FBF42685C1CC460D15424BF012380F849
:10438C002A3010BD10B54369044643B100EB43031A
:10439C00597E09B1FFF7E8FF6369013B6361D4E91A
:1043AC000210636888424FF000022ABF5B181A544F
:1043BC0003F8012C10BD70B50446D0E902506668B4
:1043CC002D1A134630440A46294600F0D5FD854285
:1043DC002DBFE368A368E360C01836BF0123E0601B
:1043EC0084F82A3070BD0EB403B503AA52F8041B2E
:1043FC000192FFF7E0FF02B05DF804EB03B07047E9
:10440C002DE9F84304460E46174612B12221FFF758
:10441C00ABFFDFF80C810025715D06EB0509002967
:10442C0074D0D4E902329A4270D20B0634D501F022
:10443C00F003E02B05F101091DD116F8092002F05B
:10444C00C003802B39D105F1020916F8093003F0AD
:10445C00C000802831D103F03F03920143EA0133BD
:10446C0002F47C621A4392B241462046FFF7BBFF2E
:10447C004D460135D0E701F0E003C02B1DD116F8F5
:10448C00093003F0C002802A17D1890101F4F862C7
:10449C0003F03F031A43E7E70D290AD807290CD983
:1044AC00A1F10803052B08D8DFE803F0092317074F
:1044BC00111D222923D05C2921D0204604E05C2147
:1044CC002046FFF751FF6221FFF74EFFD1E75C2139
:1044DC002046FFF749FF6621F6E75C212046FFF7EF
:1044EC0043FF6E21F0E75C212046FFF73DFF722170
:1044FC00EAE75C212046FFF737FF7421E4E75C21F3
:10450C002046FFF731FF99F80010DDE72FB1204668
:10451C002221BDE8F843FFF727BFBDE8F88300BFB1
:10452C00CC640B00426900EB42031A7E12B10022EC
:10453C001A7670472C21FFF717BF73B543690191A9
:10454C000133082B16460FD8FFF7ECFF436901998E
:10455C0000EB43045A1C01254261A576E676FFF771
:10456C0003FF284602B070BD0020FBE770B504467F
:10457C00054B44F8043B0D1D06460FCD0FC42B68AC
:10458C002370304670BD00BF8C660B0038B50446F6
:10459C0098300D4601F05EFA4FF0FF33C4F8BC3092
:1045AC0000232560C4F8B830204638BD2DE9F04111
:1045BC0005460E4600F004FC43F69728074628688B
:1045CC0003681B699847044630B900F0F9FBC31B1C
:1045DC004345F4D9204605E0286803685B69984791
:1045EC0030700120BDE8F08138B515882944144697
:1045FC00FFF7DCFF08B10135258038BD2DE9F74305
:10460C00051D884600270DF1060229460446ADF823
:10461C000670FFF7E9FF18B9002003B0BDE8F0837E
:10462C0094F804908DF8057001260DF105012046D3
:10463C00FFF7BCFF0028EFD0BDF806209DF8051051
:10464C00531C22449BB2117101F07F0212FB06F243
:10465C0017440A06ADF80630BFB24FEAC616E4D4CA
:10466C0009F0F009013BB9F1300F88F800301ED188
:10467C000DF1060229462046FFF7B6FF0028CBD0E5
:10468C000DF1060229462046FFF7AEFF0028C3D0E5
:10469C0098F8003023445A799E79237906EB022648
:1046AC009B07B6B201D50236B6B2022501E0002551
:1046BC002E46ADB2BD4226D20DF105012046FFF7C4
:1046CC0075FF0028A8D0D4F8B80078B1B9F1300F34
:1046DC000CD1BDF8063098F800209B1A023BB3426F
:1046EC0004DD03689DF805109B689847BDF80630FB
:1046FC007F2B9EBFE2189DF8051011710133ADF8A8
:10470C0006300135D5E7D4F8B8302BB9BDF8062002
:10471C00802A88BFADF80630BDF806007DE72DE98C
:10472C00F34115461E461A4607460023964602A834
:10473C0002F07F0CBEF17F0F03F10104034488BF2C
:10474C004CF0800CBEF17F0F4FEAD212E4B203F8AA
:10475C0004CC20D8C4F10403C4F10500E95422466A
:10476C0001A9284405EB030801F036FD38680368FD
:10477C00721C2244DB6841469847054600F020FB3A
:10478C00621CC7F888003244A8B2131A5842584128
:10479C0002B0BDE8F0812346C8E70233F0B5013919
:1047AC009CB200235E1C14FA83F08F5D9DB280B224
:1047BC0017B117543346F5E799B2411A0A44290A3E
:1047CC0002F8021C02F8013CF0BD38B50446006842
:1047DC0008B9002038BD03681B6B984780B9D4F822
:1047EC00BC50002DF5D120686FF00203C4F8BC302A
:1047FC000368DB69984720680368DB6A9847E8E739
:10480C000120E7E72DE9F04F8BB00446DDF850802E
:10481C00894617461E46FFF7D8FF0546002840F08C
:10482C00A580D4F800A0D4F8B010DAF80030002934
:10483C0079D0B4F8B420D3F824B003465046D84706
:10484C00012840F09A804F4BA4F884009A88ADF868
:10485C0014201868BDF814209B7904908DF816303C
:10486C00C4F80900A4F80D20E373B8F1000F66D06A
:10487C009DF858309DF854205B0143EAC20343F085
:10488C000603DBB21FB1002E5BD143F0800323740F
:10489C00002363740F23221DA37449462046019202
:1048AC00FFF77BFF019A0346B8F1000F0BD041468E
:1048BC002046FFF772FF019A179903462046FFF72F
:1048CC006CFF019A03466FB1394620460192FFF7FF
:1048DC0064FF019A03462EB131462046FFF75DFF77
:1048EC00019A0346053B9BB210212046FFF717FFA8
:1048FC0000F066FAC4E9220043F6972620680368A4
:10490C001B69984700BB00F05BFAD4F88C30C01AD6
:10491C00B042F3D96FF00303C4F8BC3020680368CD
:10492C00DB6A984722E004F1980104A8D3F820B080
:10493C00FFF71CFEB4F8B4202B4604A97EE7022333
:10494C00A0E743F0C003A2E70DF10F012046FFF7EB
:10495C0055FE0428E2D1E67966B900F031FA01255A
:10496C00C4F88C0084F89060C4F8BC6028460BB086
:10497C00BDE8F08FC4F8BC60D0E76FF00103C4F859
:10498C00BC30F3E7F4640B001FB50024CDE90244FE
:10499C00CDE90044FFF736FF04B010BD2DE9F04F10
:1049AC0085B000AF0446FFF710FF8146D8B100F088
:1049BC0007FAD4F88C3043F69822C31A93428046F7
:1049CC0004D8D4F88830C31A93421ED994F8903086
:1049DC0020686BB16FF00303C4F8BC300368DB6A6A
:1049EC0098474FF0000948461437BD46BDE8F08F94
:1049FC002146C02321F8043F03680222DB68984754
:104A0C00C4E92288012384F89030206803681B696C
:104A1C0098470028E7D007F10F012046FFF7EEFD7D
:104A2C0005460028DFD023797B6003F0F003302BA0
:104A3C00C4F88C804DD1D4F894A0BAF1000FD2D028
:104A4C00FE7BA319EB4659799A7902EB012292B2BB
:104A5C0002F10803DB08ABEBC3039D46F11D2144B7
:104A6C0068463A6001F0B8FB79683A6801F00601D3
:104A7C00A81B00230338022906F103010DF80230AC
:104A8C00A0EB020004F1040311441DD121447B600E
:104A9C0091F804C04D79711D05EB0C251144194496
:104AAC00821EADB26846D0476DBA2068E5804FF4DF
:104ABC001072A28002687B68D56819460422A84748
:104ACC00C4F88880DD468EE7024619446846D04714
:104ADC00F8E7C02B09D1D0232146A38051F8040B51
:104AEC0003680222DB6898477DE7D02B04BF0023C4
:104AFC0084F8903077E72DE9F34104469DF8207057
:104B0C00884616461D46FFF760FE38B3404601F056
:104B1C00EFFBEB1D1844802820D8221D05234146AD
:104B2C0020460192FFF739FE019A0023C1189D42DD
:104B3C0089B207D9214416F803C081F804C00133A7
:104B4C009BB2F3E74B1F002F9BB20CBF30213121DE
:104B5C00204602B0BDE8F041FFF7E1BD002002B0F5
:104B6C00BDE8F0811FB5044610460391029201F096
:104B7C00BFFB034600200090DDE902212046FFF731
:104B8C00BAFF04B010BDC0F8B010A0F8B420704744
:104B9C0008B5024B1B681B68019308BD4C0203004F
:104BAC0008B5024B1B685B68019308BD4C020300FF
:104BBC0008B5024B1B681B69019308BD4C0203002E
:104BCC0008B5024B1B685B69019308BD4C020300DE
:104BDC0008B5024B1B689B69019308BD4C0203008E
:104BEC0008B5024B1B68DB69019308BD4C0203003E
:104BFC0008B5024B1B681B6A019308BD4C020300ED
:104C0C0008B5024B1B681B6A019308BD2802030000
:104C1C0008B5024B1B685B6A019308BD28020300B0
:104C2C0008B5024B1B689B6A019308BD2802030060
:104C3C0008B5024B1B68DB6A019308BD2802030010
:104C4C0008B5024B1B681B6B019308BD28020300BF
:104C5C0008B5024B1B685B6B019308BD280203006F
:104C6C0008B5024B1B681B6C019308BD280203009E
:104C7C0008B5024B1B68DB69019308BD30020300C9
:104C8C0008B5024B1B681B6A019308BD3002030078
:104C9C0008B5024B1B689B69019308BD38020300E1
:104CAC0008B5024B1B68DB69019308BD3802030091
:104CBC0008B5024B1B681B6A019308BD3802030040
:104CCC0008B5024B1B689B6A019308BD38020300B0
:104CDC0008B5024B1B681B6B019308BD380203001F
:104CEC0008B5024B1B689B6B019308BD380203008F
:104CFC0008B5024B1B68DB68019308BD3C0203003E
:104D0C0008B5024B1B681B69019308BD3C020300EC
:104D1C0008B5024B1B685B69019308BD3C0203009C
:104D2C0008B5024B1B689B69019308BD3C0203004C
:104D3C0008B5024B1B68DB69019308BD3C020300FC
:104D4C0008B5024B1B681B6A019308BD3C020300AB
:104D5C0008B5024B1B689B6A019308BD3C0203001B
:104D6C0008B5024B1B681B6C019308BD3C02030089
:104D7C0008B5024B1B685B69019308BD6402030014
:104D8C0008B5024B1B681B6A019308BD6402030043
:104D9C0008B5024B1B689B6A019308BD64020300B3
:104DAC0008B5024B1B685B6C019308BD48020300FD
:104DBC0008B5024B1B685B68019308BD1802030021
:104DCC0008B5024B1B685B69019308BD1802030010
:104DDC0008B5024B1B685B69019308BD6C020300AC
:104DEC0008B5024B1B689B68019308BD2C0203009D
:104DFC0008B5024B1B68DB68019308BD2C0203004D
:104E0C0008B5024B1B681B69019308BD2C020300FB
:104E1C0008B5024B1B689B68019308BD6802030030
:104E2C0008B5024B1B68DB68019308BD68020300E0
:104E3C0008B5024B1B681B6D019308BD6002030093
:104E4C0008B5024B1B68DB6B019308BD44020300E1
:104E5C0008B5024B1B685B68019308BD4002030058
:104E6C0008B5024B1B689B68019308BD4002030008
:104E7C0008B5024B1B68DB68019308BD40020300B8
:104E8C0008B5024B1B681B69019308BD4002030067
:104E9C0008B5024B1B685B69019308BD4002030017
:104EAC0008B5024B1B689B69019308BD40020300C7
:104EBC0008B5024B1B68DB69019308BD4002030077
:104ECC0008B5024B1B681B6A019308BD4002030026
:104EDC0008B5024B1B681B6B019308BD4002030015
:104EEC0008B5024B1B685B6B019308BD40020300C5
:104EFC0008B5024B1B681B6C019308BD40020300F4
:104F0C0008B5024B1B685B6C019308BD40020300A3
:104F1C0008B5024B1B685B68019308BD20020300B7
:104F2C0008B5024B1B685B69019308BD20020300A6
:104F3C0008B5034B1B68D3F88830019308BD0000FB
:104F4C002002030008B5034B1B68D3F8943001937F
:104F5C0008BD00002002030008B5024B1B681B684B
:104F6C00019308BD1C02030008B5024B1B685B686B
:104F7C00019308BD1C02030008B5024B1B685B6A59
:104F8C00019308BD1C02030008B5024B1B68DB6BC8
:104F9C00019308BD1C02030008B5024B1B681B6C77
:104FAC00019308BD1C02030008B5024B1B685B6C27
:104FBC00019308BD1C020300002340681A46FFF74A
:104FCC0047BF406800220221FFF752BF0022406811
:104FDC001146FFF745BF002240681146FFF750BF4E
:104FEC00002340681A461946FFF752BF0023406859
:104FFC001A461946FFF754BF40680021FFF778BFE7
:10500C0040680021FFF77CBF4068002281F001015D
:10501C00FFF74EBF40680022FFF75ABF00224068DE
:10502C001146FFF75DBF002240681146FFF748BFED
:10503C002DE9F04395B014460D46074600F00AFDE5
:10504C0000211C220DA8009101F0D4F840230C93F0
:10505C0020466B460CAA0021FFF7E2FE044600280E
:10506C004BD1024601216868FFF70AFF02218046F6
:10507C0022466868FFF704FF009E81462146002EF9
:10508C003BD0002939D17368022B03D00A2B11D0E5
:10509C00F669F4E7B8F1000FFAD0716906A804318B
:1050AC0007AD00F01BFD0FCD3C1D0FC42B6823700A
:1050BC004146EDE7B9F1000FEAD07469102201A85E
:1050CC0001F098F806238DF8143001AD04F10803B3
:1050DC001834186859682A4603C20833A342154687
:1050EC00F7D101A906A807AD00F0C2FC0FCD3C1DFD
:1050FC000FC42B6823704946CAE70098FFF788FE57
:10510C00384615B0BDE8F083024B034A1A60002202
:10511C005A607047B8E6032004650B000022406813
:10512C001146FFF7ADBE002240681146FFF7C8BE1E
:10513C00002240681146FFF7D3BE40680022FFF7FB
:10514C00C7BE4068002281F00101FFF7B1BE002309
:10515C0040681A461946FFF7A3BE002340681A465A
:10516C001946FFF795BE002240681146FFF778BE3E
:10517C00406800220221FFF77BBE002340681A46DC
:10518C00FFF766BE024B04225A60024A1A6070474F
:10519C00C0E6032040650B0013B503688DF80710BB
:1051AC00DC6B01224FF0FF330DF10701A04702B079
:1051BC0010BD10B40368DC6B4FF0FF33A4465DF8F0
:1051CC00044B604713B5134602688DF80710D46B77
:1051DC000DF107010122A04702B010BD10B54369C3
:1051EC00B3F88620B3F884309A42044608D0636939
:1051FC00B3F88420511CA3F884101344187910BD03
:10520C0003681B6998470028F1D14FF0FF30F6E78F
:10521C00704743691868C043C00F7047704700005F
:10522C00064B994210B500F10C0405D0084600F06D
:10523C00BBFE002808BF0024204610BDA8650B004B
:10524C0010B5AC210446FEF722FF204610BDAC2160
:10525C00FEF71DBF2DE9F0414FF0000886B01C464B
:10526C00C0F8048005460E4617464146102202A897
:10527C0000F0C0FF631C09D04FF47A73B4FBF3F257
:10528C0003FB1244CDE902285C43049468691023A3
:10529C000093006802AB41F2050240F6FF71FFF784
:1052AC00F7FC002807DAFFF76FFE03686B6000203D
:1052BC0006B0BDE8F0816869002300683A463146C3
:1052CC00FFF706FD031EEEDB1846F1E738B58469DF
:1052DC000A4B036005467CB16368013B63605BB9B4
:1052EC00236820469B689847A368013BA3601BB9C1
:1052FC0023682046DB689847284638BDB8650B0004
:10530C0010B50446FFF7E2FF20461C21FEF7BFFE56
:10531C00204610BD30B587B0044601AD684600F09C
:10532C00DDFB0FCD04340FC42B68237007B030BDE8
:10533C0070B54D69054B04468C3544F8043B064664
:10534C000FCD0FC42B682370304670BD8C660B00DC
:10535C002DE9F0439846036893B00D460024DB6AB0
:10536C0006461746984728466B4622462146009427
:10537C00FFF756FD0546002863D1009B002B4BD050
:10538C005B69002B48D006A800F064FB009B5C69AD
:10539C006378022B04D1211D06A8FFF7BBFF26E082
:1053AC000A2B24D11122294601A800F023FFA3685F
:1053BC00002B38D004F108030DF1040C18341868D4
:1053CC005968624603C20833A3429446F7D10623B8
:1053DC0001A90CA88DF8143000F04AFB0DF1340C27
:1053EC00BCE80F0007AC0FC4DCF80030237006A833
:1053FC0000F050FB80B1336807ADD3F82090124B0E
:10540C000C930FCD0DAC0FC42B6823703A4643465A
:10541C000CA93046C84705460098FFF7F9FC28460A
:10542C0013B0BDE8F083E368002BC3D14FF6FF70D7
:10543C00D4F81090FFF7A4FC8145BBD104F1140102
:10544C00AAE72546E8E700BF8C660B0038B5436930
:10545C001A68002A054610DAB3F88620B3F88430AF
:10546C009A420AD103681B699847044628B92B68ED
:10547C002846DB6A9847204638BD0120FCE710B56A
:10548C004369B3F88620B3F884309A42044605D0B9
:10549C006369B3F884201344187910BD03681B6941
:1054AC0098470028F4D14FF0FF30F6E7F8B5436980
:1054BC001746B3F88620B3F884309A4205460E4658
:1054CC0016D06969B1F88430B1F88640E41ABC4250
:1054DC0028BF3C46043322461944304600F07CFE7B
:1054EC006A69B2F884302344A2F884302046F8BDAF
:1054FC0003681B6998470028E3D14FF0FF34F5E7A8
:10550C0042690023A2F884304269A2F886307047C1
:10551C002DE9F0411F4603680C46DB6A8AB005464C
:10552C0016469847237DD5F81480042B0CBF022017
:10553C000A2006220121FFF7D3FBC8F800006B6993
:10554C001B68002B08DA2B682846DB6A0024984776
:10555C0020460AB0BDE8F0812846FFF7D1FFB7B16D
:10556C00002303A9F8B20393ADF81030FFF730FC19
:10557C000028E8D1686906230093006803AB41F268
:10558C000B0240F6FF71FFF783FB0028DBD11C22D6
:10559C00002103A800F02EFE237D042B1DD14FF417
:1055AC0007733046ADF80C30FFF7F2FBADF80E0088
:1055BC006068FFF7E5FB04906B691C22186803A96F
:1055CC00FFF776FB0028BED104340FCC6D698C3507
:1055DC000FC523682B700124BAE740F61C23304614
:1055EC00ADF80C30FFF7D4FB05AEADF80E00231D63
:1055FC0004F1140718685968324603C20833BB42D9
:10560C001646F7D1D8E7000030B54269B2F88630BB
:10561C008BB004462BB1B2F884209A4201D1FFF72B
:10562C006FFF61690868002818DBB1F886507F2D80
:10563C0014D804310823C5F180022944FFF740FB3C
:10564C00002813DD6369B3F886200AB9A3F8842017
:10565C006369B3F886201044A3F886006369B3F835
:10566C008600B3F88430C01A0BB030BDFFF78CFC49
:10567C0003680B2BF2D0FFF787FC03680B2BEDD0E4
:10568C0020230025CDE90235FFF77EFC036801934A
:10569C00084B0949009302AA2B463220FFF7C8FB9E
:1056AC0063691868FFF7FCFA63694FF0FF321A6000
:1056BC00D4E700BF7B650B0074650B0010B5436924
:1056CC0004461868002801DBFFF7EAFA63694FF01B
:1056DC00FF321A606069112200218C3000F08AFDC3
:1056EC002046BDE81040FFF70BBF10B50023044661
:1056FC000160C0F88430883000F0ACF9204610BD51
:10570C0073B500234FF47A72C0E901320E4A03617B
:10571C00026043610446AC200191FEF7B4FC051E07
:10572C0005F10C0608D00123C5E90133074B01999B
:10573C002B603046FFF7D9FF2046C4E90565FFF71B
:10574C00DFFE02B070BD00BFB8650B0094650B00A6
:10575C0010B54FF0FF310446FFF7D2FF204610BDC5
:10576C0010B504460068002801DBFFF799FA2046C3
:10577C0010BD0C30FFF7F4BF10B50446084621707D
:10578C00FFF776FA00236360204610BD10B504467F
:10579C0028B100F065FD90FBF4F303FB14042046E4
:1057AC0010BD884210B5044603DA081AFFF7EEFF65
:1057BC000444204610BD7047F8B5064615460C4605
:1057CC008F18BC4206D0336814F8011B9B68304616
:1057DC009847F6E72846F8BD007C0022FFF710BA80
:1057EC00007C0021FFF714BA007C0021FFF718BAE7
:1057FC00007C0021FFF71CBA007C0021FFF720BAC7
:10580C0010B514210446FEF742FC204610BD0000E2
:10581C0010B54FF47A73044608460021C4E901130D
:10582C00034B236020741146FFF71AFA204610BD73
:10583C0004660B0070474174704708B5007CFFF795
:10584C0087FA20EAE07008BD08B5007CFFF758FA2B
:10585C0020EAE07008BD08B5007CFFF761FA40EA69
:10586C00E07008BD08B5007CFFF752FA40EAE07022
:10587C0008BD007CFFF75CBA37B5457C04462DB1FA
:10588C00207C03B0BDE83040FFF732BA007C0191B8
:10589C00FFF75EFA00280199F2DC284603B030BD10
:1058AC0010B514210446FEF7F2FB204610BD000093
:1058BC0010B54FF47A730446084611460022C4E929
:1058CC000123044B2360012320746374FFF748FA0F
:1058DC00204610BD2C660B00417470477047704712
:1058EC0008B50021007CFFF773F940EAE07008BDB1
:1058FC0008B50121007CFFF76BF940EAE07008BDA8
:10590C0008B5007CFFF75CF920EAE07008BD08B52B
:10591C00007CFFF74DF920EAE07008BD13B5044692
:10592C00007C0191FFF74CF90028019901DC607CA7
:10593C0020B1207CFFF754F920EAE07002B010BDD2
:10594C00007CFFF755B910B514210446FEF79FFBF8
:10595C00204610BD10B54FF47A730446084600215A
:10596C00C4E90113044B23600123207463741146B2
:10597C00FFF70EF9204610BD5C660B00007C002280
:10598C00FFF70EB910B514220446002100F032FCCA
:10599C00204610BD10B50F4C88B003A8FFF7F2FFDE
:1059AC002178BFF35B8F11F001010FD120460191DB
:1059BC00FEF76FFB019948B103AA0748FFF7CAFF2E
:1059CC002046FEF76BFB054800F000FC024808B0CF
:1059DC0010BD00BFC8E60320CCE60320E9580B003D
:1059EC00704710B518210446FEF751FB204610BD38
:1059FC00F0B5037D062B8DB00E4600F104074FF079
:105A0C00000412D000F1080515F8011D0A223046D9
:105A1C0000F06DF9AF42044419D0002CF4D02E21C3
:105A2C00304600F04BF90444EEE72F236A46394622
:105A3C000A208DF80040FFF79BF9684600F058FCEF
:105A4C0033680246DB686946304698470446204670
:105A5C000DB0F0BD10B5054B0446112240F8043BC7
:105A6C00002100F0C7FB204610BD00BF8C660B0068
:105A7C000346074A10B543F8042B01F1100251F804
:105A8C00044B43F8044B9142F9D10A781A7010BDBB
:105A9C008C660B00037D042B04D14068003818BFC2
:105AAC0001207047062B07D143683BB983682BB99B
:105ABC00C3681BB90069F1E70020704701207047EB
:105ACC0010B59DF8084044EA032343EA024242EA37
:105ADC00016104234160037510BD000007B5064B3E
:105AEC000360CB7800938B784A780978FFF7E8FF4E
:105AFC0003B05DF804FB00BF8C660B00014B186013
:105B0C00704700BF70E5032008B50B4B43B1FFF79E
:105B1C0041FF03681B699847002801DDAFF3008043
:105B2C00064B43B100F0B2F903681B699847002893
:105B3C0001DDAFF3008008BD000000000000000094
:105B4C0008B5FFF7E1FFFFF73BF9014B186008BD03
:105B5C0034E703200548064A064908B5121A00F036
:105B6C003BFB054B054A1A6008BD00BF00F403203F
:105B7C0004F40320B0680B0000F403201E1C279AC9
:105B8C0007B5002300931A466FF07701FFF7DAF997
:105B9C0003B05DF804FB000007B543880A2B08D05E
:105BAC00502B0BD1094B1B684BB103B05DF804EBC8
:105BBC001847FFF7E5FF03B05DF804FB00230093E3
:105BCC001A466FF07701FFF7BDF9F4E7E4E603201E
:105BDC0010B512480021FFF7E7F9114B1A68114B69
:105BEC009A42114B0CBF012200221A7001D0FFF710
:105BFC00B1FFFFF7DDF8044600F004FB0B4B13B1CB
:105C0C002046AFF3008000210848FFF719F9BDE8E2
:105C1C00104007480021FFF78BB900BF095B0B0050
:105C2C0000F403201E1C279AE0E60320000000006D
:105C3C00A55B0B00014B00229A607047E8E603203D
:105C4C000021FFF76DB90000024B1A68024B1A6075
:105C5C00704700BF6CE50320F8E60320014B024AB5
:105C6C001A607047FCE60320B4660B00F8B50646D4
:105C7C000D468F180024BD420CD0336815F8011B5B
:105C8C009B6830469847031E01DB1C44F3E7002C4D
:105C9C0008BF1C462046F8BD13B50446084659B14A
:105CAC00019100F025FB23680199DB680246204630
:105CBC0002B0BDE81040184702B010BD03689B68E5
:105CCC00184738B50D210546FFF7F8FF0A210446A1
:105CDC002846FFF7F3FF204438BD38B50546FFF7DB
:105CEC00DBFF04462846FFF7ECFF204438BD30B5F7
:105CFC008BB00023012A8DF8243098BF0A2209ACFE
:105D0C000D46B1FBF2F101FB125303F0FF03092B1B
:105D1C0094BF30333733DBB2AA4204F8013DEFD9DC
:105D2C002146FFF7B9FF0BB030BD0000024800233D
:105D3C000360FFF735B800BF00E70320054B0222D4
:105D4C001A60054B054A9A600020C3E90000FFF772
:105D5C00DFB800BF10E7032004E703200000FFFFBB
:105D6C00002240681146FFF7ABB80022406811468C
:105D7C00FFF7B6B840680022FFF7AAB840680022C7
:105D8C0081F00101FFF794B8002340681A461946C8
:105D9C00FFF786B8002340681A461946FFF778B813
:105DAC00002240681146FFF76BB80022406811468C
:105DBC00FFF756B8406800220221FFF759B80023BC
:105DCC0040681A46FFF744B8024B03225A60024A55
:105DDC001A60704714E70320C0660B007047000080
:105DEC0038B52025142304460360856005610649F7
:105DFC00284600F0D7F804496060284600F0D2F835
:105E0C00E060204638BD00BFF4660B0030B50E4D87
:105E1C002978BFF35B8F11F0010487B011D12846AC
:105E2C00FEF737F968B101A8FFF7DAFF01AA21469E
:105E3C000648FFF7EDFC2846FEF730F9044800F061
:105E4C00C5F9024807B030BD1CE7032020E703204A
:105E5C00E95D0B007047000038B5044614252A464E
:105E6C00002100F0C7F925804025074925812846E7
:105E7C00258200F097F804496060284600F092F8FB
:105E8C00E060204638BD00BFF4660B0030B50E4D07
:105E9C002978BFF35B8F11F0010487B011D128462C
:105EAC00FEF7F7F868B101A8FFF7D6FF01AA214663
:105EBC000648FFF7FDFC2846FEF7F0F8044800F012
:105ECC0085F9024807B030BD38E703203CE70320D2
:105EDC00615E0B00232813B502D9002002B010BD5F
:105EEC00A0F10B03022B1AD8174C2178BFF35B8F50
:105EFC0011F001010BD120460191FEF7CAF801996E
:105F0C0028B11248FFF738FC2046FEF7C7F80F4BB4
:105F1C001878FEF7B5FE0028DFD10120DEE7012856
:105F2C0009D8FFF773FF0021007CFEF791FE80F08B
:105F3C000100C0B2D2E709380128EED8FFF7A6FF5E
:105F4C00007CFEF7FDFEF2E750E7032054E7032048
:105F5C00232838B504460D460AD8FF2908D0FFF788
:105F6C00B9FF28B129462046BDE83840FEF738BFB6
:105F7C0038BD38B504460D46FEF73AFFFF2810D061
:105F8C00062804D84D2323FA00F0C30709D4204671
:105F9C00FFF7A0FF28B129462046BDE83840FEF7A0
:105FAC002FBF38BDFEF771B8014900F0F9B800BF3A
:105FBC0010670B007FB500241023CDE90234036871
:105FCC0015469E6912686B46CDE90044B0479DF8B2
:105FDC00043003F00603062B03BF009B2B6001204B
:105FEC00204604B070BD0098904214BF01200620DA
:105FFC007047000010B5034B0360044600F0CDF869
:10600C00204610BD50670B0010B50446FFF7F2FF99
:10601C0020460821FEF73BF8204610BD2DE9F04143
:10602C001F46DDE90834DDF818809845064615460C
:10603C0007D1079900F0B4F818B165710020BDE8DC
:10604C00F0813946304600F0ABF80028F6D0012339
:10605C00C4F800802571A371F0E738B515461C46CD
:10606C0000F09EF820B10823E3600623256023711D
:10607C0038BD73B505460C4601921E4600F090F8EB
:10608C0050B9032E08D82368019A5B69294620462B
:10609C0002B0BDE87040184702B070BD10B5034B9C
:1060AC0003600446FFF7A6FF204610BDB0670B0047
:1060BC0010B50446FFF7F2FF20460C21FDF7E7FF71
:1060CC00204610BDF7B5089F974205460E4614466C
:1060DC000AD0A86802680897156A31462246AC4671
:1060EC0003B0BDE8F04060471946019300F058F842
:1060FC00019B0028EDD0062003B0F0BD2DE9F14F37
:10610C000D461946DDE90A4BDDE90CA6814617461A
:10611C00984600F045F890B1002D3460377109DBDA
:10612C0061198A450CBF06210121B171002001B013
:10613C00BDE8F08F0235F9D10123B371F6E7544570
:10614C0006D15946484600F02BF808B17771EDE7B7
:10615C00D9F808000368CDE90CA6CDE90A4BDC6937
:10616C003A4643462946A44601B0BDE8F04F604785
:10617C002DE9F04107460C4615461E46FFF76DFF0C
:10618C0048B9B86803689F692A4633462146BC461D
:10619C00BDE8F0416047BDE8F081704700207047D2
:1061AC00814208B50ED0406803782A2B0CD0496880
:1061BC000B782A2B08BF013100F090F8B0FA80F070
:1061CC00400908BD0120FCE70020FAE70023014646
:1061DC001A46184600F094B80A44914200F1FF3375
:1061EC0000D1704710B511F8014B03F8014F9142E3
:1061FC00F9D110BD02440346934200D1704703F815
:10620C00011BF9E738B5104B1D68AB6B0446B3B9ED
:10621C001820FEF7A1FE0246A86320B90B4B0C48D0
:10622C004221FEF7B9FE0B490B4BC0E900130B4B97
:10623C0083600B23838100210120C2E90401AB6B35
:10624C0000221C615A6138BD70E50320E9670B0020
:10625C0000680B000E33CDAB34126DE6ECDE05009E
:10626C00164B10B51C68A36BB3B91820FEF774FE5F
:10627C00A06328B90246124B12484E21FEF78CFE41
:10628C00114A124BC0E90023114B83600B2383810D
:10629C0001220023C0E90423A46B0E4A2069636920
:1062AC000D49424301FB0322A0FB0101431C42EBBD
:1062BC000100C4E9043020F0004010BD70E503205B
:1062CC00E9670B0000680B000E33CDAB34126DE6A2
:1062DC00ECDE05002DF451582D7F954C10F8012B58
:1062EC0011F8013B012A28BF9A42F7D0D01A704707
:1062FC00034613F8012B002AFBD1181A01387047FA
:10630C002DE9F843DFF8B8800646D8F800001F46A0
:10631C000D46914600F056F8254B1C6834B9254CB7
:10632C001C60254B13B11B68C4F8883063681F2BA5
:10633C0007DDD8F8000000F047F84FF0FF30BDE85B
:10634C00F8834EB3D4F8880088B91C4B23B9D8F81D
:10635C00000000F038F8F0E74FF48470FEF7FCFD15
:10636C000028F4D00023C0E94033C4F888006368E7
:10637C0040F8239001229A4000EB8301D0F80031C1
:10638C001343C0F80031022EC1F8807002BFD0F860
:10639C0004311343C0F804316368D8F800005A1C68
:1063AC000233626044F8235000F00EF80020C6E778
:1063BC00E8E703205CE7032000000000654F0B00BA
:1063CC00D4E5032070477047704700001D400B0058
:1063DC0059400B0081400B0085400B000000000071
:1063EC00706C756D65436F6E6E65637428293A2009
:1063FC00417474656D7074696E6720746F20636F7F
:10640C006E6E65637420746F205468696E67736276
:10641C006F6172642073657276657200796D565A7D
:10642C006B71636C556A503662793356705A65439A
:10643C00004172676F6E00706C756D65436F6E6EA8
:10644C0065637428293A20436F6E6E6563746564C6
:10645C0000706C756D65436F6E6E65637428293AB8
:10646C0020436F6E6E656374696F6E206661696C34
:10647C0065642C20726574727920696E20332073E8
:10648C0065636F6E64730074310074320074330092
:10649C0074340074350076312F64657669636573E6
:1064AC002F6D652F74656C656D65747279000000D5
:1064BC000000000000000000B1400B00C5400B00C4
:1064CC005C7525303458000000000000000000000E
:1064DC00E9420B0005430B00000000000000000027
:1064EC0019430B002D430B0000044D515454040070
:1064FC000000000000000000C54F0B00CF4F0B0048
:10650C00D94F0B00E34F0B00ED4F0B00F94F0B0075
:10651C0005500B000D500B0015500B0021500B00BB
:10652C0029500B0033500B003D500B0000000000B5
:10653C000000000087510B007D510B0073510B00C4
:10654C0029510B0067510B005B510B0005500B00E0
:10655C000D500B004F510B0047510B003D510B00E0
:10656C0033510B003D500B00776972696E670072F6
:10657C00656376206572726F72203D202564000081
:10658C00000000000000000029520B004D520B00CF
:10659C007F570B005B520B002D520B0000000000CC
:1065AC00000000000000000000000000D9520B00A9
:1065BC000D530B00A5510B00BF510B0015560B00D2
:1065CC00E9510B008B540B001D520B001D550B0099
:1065DC005D530B00B9540B00C9560B0059540B00FA
:1065EC001F520B00D1510B0061520B003D530B009D
:1065FC000000000000000000C3570B000D580B00FA
:10660C00E5570B00C5570B00ED570B00F5570B006A
:10661C00FD570B0005580B000000000000000000A7
:10662C0041580B00AD580B0085580B00795C0B00E2
:10663C0055580B0071580B0063580B007F580B001A
:10664C0043580B0047580B000000000000000000EE
:10665C00EB580B0053590B0029590B00795C0B00BC
:10666C001B590B00ED580B00FD580B004D590B003E
:10667C000D590B00E5580B00000000000000000055
:10668C00FD590B00ED590B00EF590B0025592D2529
:10669C006D2D25645425483A254D3A2553257A000D
:1066AC0061736374696D65006170700000000000B7
:1066BC0000000000CB5D0B00C15D0B00B75D0B0053
:1066CC00AD5D0B00A15D0B00955D0B0005500B0043
:1066DC000D500B00895D0B00815D0B00775D0B008D
:1066EC006D5D0B003D500B0000537431395F5370DE
:1066FC005F6D616B655F7368617265645F74616720
:10670C000000000050670B00F5660B00B0670B0033
:10671C0024670B00D4670B004E31305F5F637878D1
:10672C00616269763131375F5F636C6173735F747B
:10673C007970655F696E666F4500000000000000AF
:10674C0018670B0001600B0015600B00A9610B00B2
:10675C00A9610B007F600B00C15F0B0067600B0031
:10676C0029600B00F35F0B00B0670B0080670B0018
:10677C0018670B004E31305F5F6378786162697621
:10678C003132305F5F73695F636C6173735F74790F
:10679C0070655F696E666F450000000000000000C8
:1067AC0074670B00A9600B00BD600B00A9610B00A6
:1067BC00A9610B007F600B00C15F0B007D610B00BA
:1067CC0009610B00D1600B0050670B00DC670B00FC
:1067DC00537439747970655F696E666F0052454504
:1067EC004E54206D616C6C6F6320737563636565CB
:1067FC00646564002F6D6E742F776F726B737061AC
:10680C0063652F776F726B73706163652F474343BA
:10681C002D31302D706970656C696E652F6A656EEF
:10682C006B696E732D4743432D31302D7069706544
:10683C006C696E652D34385F323032303131323420
:10684C005F313630363138303634312F7372632F36
:10685C006E65776C69622F6E65776C69622F6C69F7
:10686C0062632F7374646C69622F72616E642E6341
:10687C0000000000C9420B0015510B0091510B0098
:10688C00415C0B00555C0B00695C0B00395D0B0027
:10689C00495D0B00D55D0B000000000000000000FE
:0468AC0000000000E8
:0468B00000000000E4
:1068B400017468696E6773626F6172642E636C6FD2
:1068C40075640000AC660B0074E503200000000052
:1068D40000000000000000000000000000000000B4
:1068E40000000000000000000000000000000000A4
:1068F4000000000000000000000000000000000094
:106904000000000000000000000000000000000083
:106914000000000000000000000000000000000073
:10692400000000000000000000000000ECE703206D
:10693400FFFFFFFF00000102030405060708090A20
:106944000B0C0D0E0F101112131415161718191A1B
:086954001B1C1D1E1F20280062
:04695C007856341223
:04000003B000401CED
:00000001FF
