:02000002B0004C
:1040000000400B002C7A0B00000006001700050290
:084010000401A30F00000000F1
:044018005C750B00C8
:10401C0009480A49884208B505D0094A824202D0AB
:10402C00121A03F0A5F90748074A0021121A03F0E7
:10403C00ADF9014808BD00BF44E1032088790B00AD
:10404C00C0E10320C0E10320EDE7032070B5074E6B
:10405C00074C02F045FBA41BA4080025AC4200D180
:10406C0070BD56F8043B98470135F7E738790B00DB
:10407C005C790B0000F0D4B908B500F067F8BDE826
:10408C00084002F0E5BA01F035BF01F03BBF007803
:10409C00B0FA80F0400970470123037070477047F5
:1040AC00704710B510210446FFF7EFFF204610BDF6
:1040BC0010B52C210446FFF7E8FF204610BD083050
:1040CC0000F0B6BF07B501228DF8071008300DF1CE
:1040DC00070100F0ADFF03B05DF804FB0EB403B5AF
:1040EC0003AB002153F8042B019302F09EFB02B0AA
:1040FC005DF804EB03B0704773B5044608462279AB
:10410C00A36832B1A3B90B4902B0BDE8704002F00C
:10411C004BBB094A267B094D0949647B012E18BF0C
:10412C002946CDE900140749FFF7D8FF02B070BD4E
:10413C00054AEFE781750B0024760B007D750B00AB
:10414C0079750B0097750B0070750B002DE9F04F0E
:10415C007C4D93B001F00AFE2B68C01A43F69823ED
:10416C00984240F2EC8002F0B3F97749774C784FE3
:10417C00FFF7B4FF0026754A09960023394609A8B3
:10418C0000F009FF98B1A378392B02D00133A3704A
:10419C00F1E76378392B04D030220133A2706370BD
:1041AC00E9E702F095F96B4902F015FBFEE76A4965
:1041BC00664A0968694840F6012300F0ECFE20B914
:1041CC0002F086F9664902F006FB02F081F95F4ABB
:1041DC006449FFF783FF6449644802F035F862498B
:1041EC000446624802F030F85F4980465F4802F0AE
:1041FC002BF85D4981465D4802F026F85A49824603
:10420C005A4802F021F858498346584802F01CF8E5
:10421C005549564802F018F841F25C2140F6B83086
:10422C0002F012F841F25C2140F6B83002F00CF8C2
:10423C0041F25C2140F6B83002F006F841F25C2104
:10424C0040F6B83002F000F841F25C2140F6B8308C
:10425C0001F0FAFF41F25C2140F6B83001F0F4FFB6
:10426C0041F25C2140F6B83001F0EEFF204602F03E
:10427C009DFD3F4B3F4C002202F02CFF03F012F847
:10428C0002F0A6FD064658460F4602F08FFD384B4D
:10429C00002202F01FFF03F005F802F099FDCDE9B2
:1042AC000601504602F082FD314B002202F012FF53
:1042BC0002F0F8FF02F08CFDCDE90401484602F053
:1042CC0075FD2B4B002202F005FF02F0EBFF02F014
:1042DC007FFDCDE90201404602F068FD244B00222F
:1042EC0002F0F8FE02F0DEFF02F072FD3246CDE97C
:1042FC0000013B4620492046FFF7F0FE04F1080080
:10430C0000F00CFE10B1637ADB0704D502F0E0F884
:10431C001A49FFF7E3FE114800F036FE02F0D8F818
:10432C001749FFF7DBFE4FF4FA6002F011FA02F0C6
:10433C00CFF81449FFF7D2FE01F018FD286013B036
:10434C00BDE8F08F04E20320B4750B0044E10320B8
:10435C0044E60320CC750B0098E60320E0E1032033
:10436C00E3750B00ED750B00109802007011010045
:10437C0000408F40D8E10320FE750B0012760B0035
:10438C001E760B0025760B0008B5044602F0A0F84B
:10439C0094F8603405463BB31A4902F026FA94F8B7
:1043AC006034202B03D11849284602F01EFA94F8E9
:1043BC006034B3B11549284602F0FDF9102294F887
:1043CC006014284602F013FA1149284602F0F3F95A
:1043DC0094F869141022284602F009FA284602F0D3
:1043EC00EEF901F0A3FCFCE7E3791BB9094902F0F3
:1043FC00FCF9F6E794F83C340BB90749F7E70749A1
:10440C00F5E700BF3F760B0066760B0096760B0047
:10441C00A7760B00AB760B00C8760B00E3760B008F
:10442C007FB502F055F84FF4165102F045F840F6FE
:10443C00FC0002F08DF902F04BF81E491E4CFFF700
:10444C004DFE1E4B009300238DF8043004F58C6652
:10445C001B4B029301256B46082204F26C4130463B
:10446C00ADF80C5000F09CF900B304F23C4026600F
:10447C0000F08AFD2946204600F0AEFF04F23C45D0
:10448C00014670B10C4901F23C4000F0C6FB68B12A
:10449C0094F83C3413F0700F08D00A4B1D6004B034
:1044AC0070BD204600F098FF0028EBD10248FFF7C2
:1044BC006BFF00BFF3760B0008E2032004770B00C0
:1044CC0080F0FA0298E603201C4B37B500251C4AF5
:1044DC001C4C9A60C3E90055022001F0E7FC6423F0
:1044EC00C4F86034184B6560C4F83C54C4F8685484
:1044FC00C4F87034C4F87854A4F87C540123134DD8
:10450C0084F874342978BFF35B8F19400BD128469B
:10451C000191FFF7BCFD019928B10D4801F0CAFDCE
:10452C002846FFF7B9FD0A4BC4F86C34094B00223E
:10453C00C3E90122084A1A6003B030BDCCE1032064
:10454C000000FFFF08E2032004770B00C0E103200A
:10455C00C4E10320D8E1032018770B00014B0122A2
:10456C001A7070478CE60320011D006801F0DABD5B
:10457C0010B504460175006801F0A6FD207D0121EF
:10458C0002F096FA207D0121BDE8104002F0A1BA9C
:10459C00006801F0ADBD0068FF2101F031BE0000E4
:1045AC0037B51346074A00920025074C0068257062
:1045BC000A46294601F02AFE2378002BFCD0002065
:1045CC0003B030BD69450B008CE60320006801F098
:1045DC0017BE000037B51346064A00920025064C5C
:1045EC00006825702A4601F011FE2378002BFCD0C0
:1045FC0003B030BD69450B008CE60320FFF7E6BF26
:10460C00FFF7C9BF70B50E4E0D46144601F0A6FB60
:10461C003368C01A0B4B984208D901F0A7FB0A4B20
:10462C00186001F0D3FB01F099FB306001F09EFBA8
:10463C0080B2401BA042D4BF0020012070BD00BF3F
:10464C0090E60320A086010040E7032038B5057AE8
:10465C0004464DB94068FFF787FF63682946187D0B
:10466C0002F037FA0123237238BD10B5037A0446E1
:10467C006BB143680121187D02F02BFA6068FF21B1
:10468C00FFF7BCFF6068FFF783FF0023237210BDA8
:10469C00F8B504460D46164601F068FB87B2606813
:1046AC00FFF7AEFFFF2860720ED14FF47A723946D5
:1046BC002046FFF7A7FF0028F1D055232046237092
:1046CC00FFF7D3FF0020F8BDFE2801D05023F5E7FB
:1046DC00606832462946FFF763FF607208B16023B9
:1046EC00ECE76068FFF78CFF6068FFF789FF01203B
:1046FC00E9E770B504460E4601F038FB85B2324648
:10470C0029462046FFF77EFF30B96068FFF778FF37
:10471C00FF28F4D1012070BD0020FCE7F7B5037A27
:10472C00019204460D460BB9FFF790FF25B14FF4EB
:10473C0096712046FFF7DDFF606845F04001FFF7FA
:10474C005DFF032601AFB95D6068FFF757FF013EBF
:10475C00F9D2002D60680CBF95218721FFF74EFF21
:10476C006068FFF74DFF0B256068FFF749FF0306F4
:10477C00607203D5013D15F0FF05F5D103B0F0BD16
:10478C0070B504460D46164637210022FFF7C6FFCA
:10479C00324629462046BDE87040FFF7BFBF0000F7
:1047AC002DE9F041002505720570857241600446C3
:1047BC0090461E4601F0DAFA414607466068FFF75C
:1047CC00D7FE6368494A1D720125DA601D822046B6
:1047DC00FFF73CFF63682946187D02F07AF90A2539
:1047EC006068FF21013DFFF709FF15F0FF05F7D1C8
:1047FC0063682946187D02F06CF90A2500221146DF
:10480C002046FFF78BFF0128804618D0013D15F09C
:10481C00FF0507D1202320462370FFF726FF002039
:10482C00BDE8F0816068FD21FFF7E8FE4FF40278E7
:10483C006068FFF7E5FEB8F10108F9D1DEE74FF447
:10484C00D57208212046FFF769FF052814D184F89A
:10485C000A800025BFB22A4629212046FFF790FF87
:10486C000246D8B14FF4FA6239462046FFF7CAFE29
:10487C000028F0D04323CEE704256068FFF7C0FE84
:10488C00013D15F0FF056072F7D1AA2804D102236F
:10489C00A3724FF08045DDE72523BCE7A37A022BFA
:1048AC0018D13A212046FFF739FF08B13723B2E778
:1048BC006068FFF7A5FE00F0C000C02804BF03230A
:1048CC00A3726068FFF79CFE6068FFF799FE606852
:1048DC00FFF796FE2046FFF7C8FE63683079B16893
:1048EC00B2891A821872D960012099E790D003001E
:1048FC0038B5837A032B18BF490215460A46112195
:10490C000446FFF70BFF30B1302323702046FFF72E
:10491C00ACFE00250BE029464FF400722046FFF751
:10492C00B7FE05460028F1D02046FFF79EFE28462C
:10493C0038BD10B5837A032B0A4618BF4A021221E0
:10494C000446FFF7EBFE30B1312320462370FFF70E
:10495C008CFE002010BD0120FCE710B500220C21BC
:10496C000446FFF7DBFE30B1282320462370FFF707
:10497C007CFE002010BD2046FFF777FE0120F9E7F2
:10498C00F8B5044616461F46FFF7D3FF68B100255D
:10499C00ABB29F4206EB452109D94FF40072204679
:1049AC00FFF776FE01350028F2D10020F8BD204635
:1049BC00BDE8F840FFF7D1BF38B50446154640684E
:1049CC00FFF71CFE4FF4007260682946FFF702FEE9
:1049DC006068FF21FFF712FE6068FF21FFF70EFEF3
:1049EC006068FFF70DFE607200F01F00052806D00E
:1049FC00572320462370FFF738FE002038BD0120D6
:104A0C00FCE770B5837A032B18BF490215460A469A
:104A1C0018210446FFF782FE064630B1322323707C
:104A2C002046FFF722FE00251FE02A46FE212046E5
:104A3C00FFF7C2FF0028F3D04FF4FA612046FFF7CE
:104A4C0058FE054608B95A23E9E732460D2120469F
:104A5C00FFF764FE08B12923E1E76068FFF7D0FD9A
:104A6C000028F8D12046FFF700FE284670BD13B58C
:104A7C0001914FF4FA610446FFF73BFE019A30B9FD
:104A8C005B2323702046FFF7F0FD002005E0FC219E
:104A9C002046FFF791FF0028F4D002B010BD10B5EE
:104AAC00837A032B0A4618BF4A0219210446FFF7E2
:104ABC0035FE30B1332320462370FFF7D6FD00209E
:104ACC0010BD0120FCE738B54FF4FA610446FFF73E
:104ADC0010FE054630B9562323702046FFF7C5FD5E
:104AEC00284638BD6068FD21FFF788FDF5E7F8B56D
:104AFC00044616461F46FFF7D2FF70B10025BD4293
:104B0C0006EB4521204604D0FFF7B1FF28B1013553
:104B1C00F5E7BDE8F840FFF7D6BF2046FFF7A5FD47
:104B2C000020F8BD38B504460D462422002102F0C1
:104B3C002DFCA560EB79102B03D0202B06D0002088
:104B4C0038BD202301202370A070F9E74023F9E73A
:104B5C0010B50446243000F031FB28B104F50C707C
:104B6C00BDE8104000F02ABB10BD8378016943F00A
:104B7C000403837000F11002806800F0D5BB0000C4
:104B8C002DE9F041017811F02005044603D00026F0
:104B9C003046BDE8F0814269174B9A42F7D2FFF7D5
:104BAC00E4FF06460028F2D02169A06800F051FB12
:104BBC000746A06805223946243000F027FB8046C2
:104BCC000028E4D029464FF4007202F0DFFB0125E7
:104BDC00A3681A79AA4209D918684246E919FFF75D
:104BEC0010FF0028D3D00135EDB2F1E7636903EB78
:104BFC0042236361CCE700BF00FE1F0010B50446E2
:104C0C0080680A462430A16900F000FB20B1A3881B
:104C1C0003F00F0300EB431010BD03780BB9FFF743
:104C2C0081BF002070472DE9F74F03780446884672
:104C3C001546002B5DD08278D1075AD51A072DD591
:104C4C00C36942699B1A9D4228BF1D462E464FF0F0
:104C5C00000904F1100B002E00F08F80227863699C
:104C6C00A0689706C3F3080A4FEA53211FD5006AC0
:104C7C000144A068BAF1000F42D1B6F5007F3FD3D2
:104C8C00C36A99423CD0B6F5806F52D20068424656
:104C9C00FFF72EFE68B34FF4007744E09B06D5D5A2
:104CAC0083681A894369C3EB42139BB2CBE790F834
:104CBC00059009EA0109BAF1000F08D1B9F1000F0A
:104CCC0005D15BB951064CBF036A236A2361216984
:104CDC00A06800F0BEFA09EB0001CAE721695A4648
:104CEC0000F0BDFA002804DBF1D1237813F0700F2B
:104CFC0043D1637843F0020363704FF0FF303DE023
:104D0C00CAF50077B7424FF0000200F1240028BF2B
:104D1C00374600F07BFA0028EBD000EB0A013A464C
:104D2C00404602F025FB63693B44B8446361F61BC3
:104D3C0091E7227892064FEA562A06D40279A2EB22
:104D4C000902D2B2924528BF924699424FEA4A27AD
:104D5C0008D2A068534600684246FFF711FE0028AF
:104D6C00E1D1C6E753448B42F3D92430019100F0D2
:104D7C0025FA01990028ECD1BBE7A81B03B0BDE8CC
:104D8C00F08F37B5436913F4F07F0446C3F3431532
:104D9C0000D099B901220DF107012046FFF743FF1E
:104DAC0040B2012802D0002003B030BD63691F332C
:104DBC00A0686361303000EB4510F5E72033F7E76E
:104DCC002DE9F0410278076904460D4662B140694D
:104DDC00884202D019B921616561012006E01607ED
:104DEC0006D5E3698B420BD227610020BDE8F08128
:104DFC00910605D5A3681B89B5EB431FECD9F3E7E6
:104E0C00D4F808C09CF80660431E06F109016E1E1A
:104E1C00CB40CE40B34200D898B953064CBFDCF817
:104E2C002030236A236104F11008002ED4D02169AC
:104E3C00A068424600F013FA002806F1FF36F4DCB5
:104E4C00D2E7F61AEFE7F8B50F46044615460021EF
:104E5C0024221E4602F09AFAB868A060A58005F0DC
:104E6C000F053B6AE3606A0100EB451595F83B3092
:104E7C001F0744D403F01703237095F83B1011F06F
:104E8C00180F04BF43F0080323709DF81830E3702B
:104E9C0006F00303012B2CD0022B28D07BBB710511
:104EAC002DD40123A370A1788B0704D52378DF06BA
:104EBC0025D4DD0723D4B31123F07F0306F00805B6
:104ECC002B430B43A370C36AA3618318B3F844202C
:104EDC00B3F84A1041EA0241720513D559B9A378C7
:104EEC0043F00403A370730410D40120F8BD032312
:104EFC00D8E70223D6E700F052FA0028EFD10020C1
:104F0C002070F3E72162DB6CE361ECE7E16920469A
:104F1C00FFF756FF0028E8D1F1E7000038B5037819
:104F2C0004460BB9012038BD83785A0723D50121DB
:104F3C00FFF764FE054628B9637843F001036370FC
:104F4C000020F0E70378E52BF6D023781B0744BF4D
:104F5C00E369C361236A4383638C8382094B1B68B7
:104F6C002BB100F11601183098472B8B6B82A3786C
:104F7C0023F00403A370A068FFF7EAFD0028DBD040
:104F8C00D0E700BF94E6032010B50446FFF7C6FF38
:104F9C000023237010BDF0B593B01F460023099376
:104FAC000378019206460C4613B1002013B0F0BDF5
:104FBC000B7813F0700FF8D013782F2B12D1019AB5
:104FCC0013782F2B02D101320192F8E7A1681BB99B
:104FDC003046FFF722FEE9E709A8FFF7A3FD0028FA
:104FEC00E3D009AC019801AA03A900F0ADFA00289E
:104FFC00DBD0019B1B789BB1002303AA21463046D2
:10500C0000F0D4FB0028D0D035460FCD09AC0FC42E
:10501C000FCD0FC42B6823603046FFF7B5FFE0E7D8
:10502C003B4603AA2146304600F0C0FBBEE7000019
:10503C002DE9F047037889461907044617465BD5D6
:10504C0083789A0758D51B0751D46369DB43BB425D
:10505C0052D3B84604F1100A6669B8F1000F00F09B
:10506C009180A0684379C6F3080513EA56260ED141
:10507C006DB92169002946D0524600F0F0F800289D
:10508C003ADB04D12046FFF770FD002834D02169AB
:10509C00A06800F0DEF83118A06815B9B8F5007FEB
:1050AC003FD2C5F50076464528BF4646002D36D181
:1050BC006269E3699A4234BF01220522243000F070
:1050CC00A5F8C8B1284432464946354402F050F997
:1050DC00B5F5007F04D1A068243000F06FF858B10A
:1050EC00636933446361B144A8EB0608B4E7C16952
:1050FC00FFF766FE0028A8D1637843F001036370C4
:10510C004FF0FF3050E0236A3BB92046FFF72DFDEE
:10511C000028F1D023692362B9E72361B7E70122A4
:10512C00CCE7B8F5806FC26A1BD390F804C0ACEB27
:10513C000606F3B24FEA582E734528BF73469142C8
:10514C004FEA432607D31A448A4282BF4FF0FF32FC
:10515C0080F82450C262A5684A462868FFF7C7FC4D
:10516C00BDE7914202BF4FF0FF3380F82450C36279
:10517C00A3684A461868FFF744FC0028BCD04FF4DB
:10518C000076ADE7E269A378B24204D2E66143F05F
:10519C000403A37003E0084A1268002AF7D194F9BB
:1051AC000230002B02DB3846BDE8F0872046FFF7C3
:1051BC00B5FE0028F7D19FE794E6032037B50378B6
:1051CC00DA07044620D54368816800F10C021868A0
:1051DC000192FFF716FC019A054618B900252846DE
:1051EC0003B030BD23789B0704D4237823F001034C
:1051FC002370F4E7D4E90130196901441868FFF70A
:10520C0000FC0028F1D1E9E70125E8E770B58368D7
:10521C008B4204460E46154609D0FFF7CFFF08B95E
:10522C00002070BD6B070AD500232370A66022787E
:10523C0005F003052046154300F80C5BF1E76368A5
:10524C0004F10C0218683146FFF752FB0028EBD131
:10525C00E6E783794069023999400844704701298F
:10526C0070B505460C46164602D84FF0FF3070BD9F
:10527C00C3698B42F9D3C379202B16D181690222E1
:10528C0001EBD41100F50C70FFF7C0FF0028ECD037
:10529C0004F07F0450F8243023F07043EA699A42FA
:1052AC0026BF336001200020E1E7102BDDD1C1F3D4
:1052BC00072381690222194400F50C70FFF7A6FF41
:1052CC000028D2D0E4B230F81430E7E7012938B521
:1052DC000C46154601D8002038BDC3698B42FAD361
:1052EC00C379202B0FD18169032201EBD41100F576
:1052FC000C70FFF78BFF0028EDD004F07F0440F812
:10530C0024500120E8E7102BE5D1C1F30723816974
:10531C000322194400F50C70FFF778FF0028DAD04F
:10532C00E4B220F81450ECE72DE9F341C4688C4248
:10533C0005460E46904601D3012701E00C46002796
:10534C00EB690134A34202D2C7B9EC68F4E7A64278
:10535C0014D001AA21462846FFF781FF00280DDB57
:10536C00EED0019B002BEBD107B1EC606FF07042DB
:10537C0021462846FFF7AAFF074620B900273846E2
:10538C0002B0BDE8F08116B9C8F80040F7E7224634
:10539C0031462846FFF79AFF0028F5D1EEE773B5A2
:1053AC0005460C4601AA21462846FFF758FF061E63
:1053BC0010DB002221462846FFF788FF50B1EB682E
:1053CC00A34224BF04F1FF34EC60019C002EE9D110
:1053DC0002B070BD0020FBE7012370B50022C36052
:1053EC004FF0FF330446C27100F12406806280F84E
:1053FC002420C362C0F8340280F83022C0F838325E
:10540C000D46B9B1042901D9002070BD11463046B2
:10541C00FFF7FCFE0028F7D000EB051393F8AE3134
:10542C005B06F1D105F11B0100EB0110D0F8065021
:10543C00002DE9D0002229463046FFF7E7FE002870
:10544C00E2D0B0F80B30B3F5007FDDD1037C022B3A
:10545C00DAD1C389002BD7D0417B21714B1E6371EC
:10546C000023A37109260123994207D0013ECBD01A
:10547C00A2795B000132DBB2A271F5E7C18A01B9F6
:10548C00416A2161C3892B44A361B0F811202281A8
:10549C0003EB41032362B0F81110490101F2FF1133
:1054AC0003EB51236361B0F8132002B9026AE91AC5
:1054BC00A3791144D9404B1CE36140F6F473994233
:1054CC0002D80C23E3719FE74FF6F473994285BF22
:1054DC00C36A236210232023E371012095E713B5DF
:1054EC000446084659B1019101F0C4FF23680199A3
:1054FC00DB680246204602B0BDE81040184702B0F7
:10550C0010BD042904D800EB4100B0F8010070472D
:10551C000A299BBF01F1FF3100EB41000131C0882A
:10552C0084BF00EB410080887047411E00F10A03E4
:10553C000020420842EAC01011F8012F52FA80F004
:10554C008B42C0B2F5D170472DE9F047064610F8F2
:10555C00013B202BFAD06A4D8E600024335DC3B121
:10556C002F2B16D05C2B02D10020BDE8F087A3F1C5
:10557C002200C0B21D2803D825FA00F0C007F3D4CE
:10558C0003F0BF003C28EFD0203B5E2BECD801345D
:10559C00E4E733191846074610F8015B202DFAD0C2
:1055AC002F2DF8D017604CB113F8012D2E2A01D0F5
:1055BC00202A01D1013CF6E7FF2CD5DC4FF020333B
:1055CC00C1F811304C60C1F80D304B614FF0000840
:1055DC0016F808302E2B01D0202B02D108F101082F
:1055EC00F6E7B8FA88F04009651E6B1C02D0735DB3
:1055FC002E2B14D14FF0000907274A46CA464FF00C
:10560C00080EA04568DA16F80830202B03D02E2B94
:10561C0007D1A84512D0002008F10108F1E7013D9F
:10562C00E3E7222B08D07C2B06D0A3F12A0CBCF18B
:10563C00050F0AD82D2B12D0A8455BD10A2F4AD0C2
:10564C000A2708224FF0100EE6E7A3F13A0CBCF142
:10565C00050FF1D9A3F15B0CBCF1020FECD9A3F14E
:10566C00210CBCF15D0FE7D8A845E7D0BA4230D881
:10567C00A3F1610CBCF1190F1AD8203B4EEA0909B1
:10568C00DBB25FFA89F902F1010C5FFA8CFC0A4477
:10569C00BCF1060F537301D881F80CC06246BBE70E
:1056AC00A84518DCA8460A2708224FF0100EB2E7CE
:1056BC00A3F1410CBCF1190F98BF4EEA0A0AE2E7BC
:1056CC000B7B0120087019447E234B7331238B73A1
:1056DC004BE70A2FE4D100204B7B202B3FF444AF47
:1056EC000028EDD01AEA090F18BF4FF0020981F813
:1056FC0000903AE7BA42ECD800205F23C3E700BF22
:10570C00010100312DE9F84391F80C9006460C4646
:10571C0002257E2701F10D086168A2686B189BB207
:10572C001144914206D012F8010B03EB4313434092
:10573C009BB2F6E7B9F1030F28BF4FF0030909F14B
:10574C000402D2B203F00F01A018013A0929D2B217
:10575C0094BF30313731914541734FEA1313F1D176
:10576C0004EB090300215F733046FFF729FB01218D
:10577C003046FFF706FB014628B97078B0FA80F086
:10578C004009BDE8F88303786BB1C37A1B07EED4EC
:10579C000B22404601F0DCFD0028E8D10135ADB20A
:1057AC00642DB9D1EDE70120EBE700002DE9F04FB6
:1057BC002DED028B8BB00D4606930B78079013F0F2
:1057CC00700F174605D100200BB0BDEC028BBDE865
:1057DC00F08F079B1B78002BF5D15368059313783A
:1057EC009C071FBF059B0C330D22B3FBF2F31ABFB2
:1057FC000133DBB20123002128460393FFF7E0FAC3
:10580C0007F10D034FF0000B08EE103ADA465C4638
:10581C005E46CDF810B0D9466B6901212846C3F31A
:10582C004F18FFF7AEFA0346002871D16B78002BA6
:10583C00C9D1069B9A05C6D503F00303013B012B86
:10584C00C1D8049B002C08BF43460493039B9C4285
:10585C00C0F0F180B9F1000F40F00A81049B28469A
:10586C005901FFF7ADFA0028ADD0039B03F1FF39C6
:10587C005FFA89F94E464FF0000A4FF00F08002EE0
:10588C0000F00D8100212846FFF77BFA0446002822
:10589C0099D0AA6892F824304E4543F001030CBF0E
:1058AC0046F0400BB34682F8243080F800B080F804
:1058BC000B8080F80CA007F10D00FFF736FE84F882
:1058CC001AA0607384F81BA00BF01F030D22013B80
:1058DC00D7F808C0534300220599994240F2D08072
:1058EC001CF80310042A5FFA82FE02F1010000F298
:1058FC00CD8004EB4202A2F801100D2803F1010344
:10590C000246E9D1013EF6B2B9E74FF0010983E74F
:10591C000278E52A00D07AB90499002C08BF4146D8
:10592C00049103998C423CBF0134E4B2002A80D02C
:10593C00E52A05D100266FE703998C4238BF002475
:10594C002E2AF7D0D97A0F294AD116BB12F040066D
:10595C003FF462AF02F01F0693F80DB0B2460D2271
:10596C000AF1FF3802FB08F8059A4245E2D9A2EB8E
:10597C0008020892002202EB080109911846D1B2E4
:10598C00FFF7BFFD08998A420DD1002818BF0026E9
:10599C0042E70AF1FF3A5FFA8AFA5245CAD15A7BBA
:1059AC005A45DCD0C6E7FF28C4D85FFA80FEAEF1BA
:1059BC0041011929B9689CBF0EF120005FFA80FEE5
:1059CC0008460999415CA1F1410CBCF1190F9CBF2F
:1059DC002031C9B27145ADD101320D2ACBD11BE7B3
:1059EC000807A7D45EB1BAF1010F7FF4ECAE1846EC
:1059FC00FFF79BFD58457FF4E6AEB1460EE018EE7E
:105A0C00101A0B22184601F0A3FC00287FF404AFF7
:105A1C0097F8009019F001097FF477AF069B1905F0
:105A2C003FF5D1AE069B0798CDF80090424629462B
:105A3C00FFF709FAC8E600212846FFF7A2F9A0B93A
:105A4C006B78002B7FF4BFAE2846FFF799F800283F
:105A5C003FF4B9AEAB681B79012B3FF6FBAE039B51
:105A6C001034E4B2A342EFD8F4E60134E4B2EDE62C
:105A7C0039462846FFF746FE00287FF4EFAEA2E633
:105A8C0014BF4FF0FF31002189B22BE7BEF10A0F92
:105A9C0094BF04EB420204EB400291802DE73146A7
:105AAC002846D5F81480FFF76CF9044600283FF41B
:105ABC008AAE2022314601F069FCD7F80D30236004
:105ACC00D7F811306360B7F815302381FB7DA372D2
:105ADC003B7803F0180323730F4B1B689BB104F145
:105AEC000E0104F110009847238A63822383E38913
:105AFC00E382AA6892F8243043F00103C8F34F18EC
:105B0C0082F824308EE7212323742823637408231E
:105B1C00A673E373E8E700BF94E6032008B5024BD5
:105B2C001B681B68019308BD4C02030008B5024BAF
:105B3C001B685B68019308BD4C02030008B5024B5F
:105B4C001B681B69019308BD4C02030008B5024B8E
:105B5C001B685B69019308BD4C02030008B5024B3E
:105B6C001B689B69019308BD4C02030008B5024BEE
:105B7C001B68DB69019308BD4C02030008B5024B9E
:105B8C001B681B6A019308BD4C02030008B5024B4D
:105B9C001B681B6A019308BD2802030008B5024B61
:105BAC001B685B6A019308BD2802030008B5024B11
:105BBC001B689B6A019308BD2802030008B5024BC1
:105BCC001B68DB6A019308BD2802030008B5024B71
:105BDC001B681B6B019308BD2802030008B5024B20
:105BEC001B685B6B019308BD2802030008B5024BD0
:105BFC001B681B6C019308BD2802030008B5024BFF
:105C0C001B681B68019308BD3002030008B5024BEA
:105C1C001B685B69019308BD3002030008B5024B99
:105C2C001B68DB69019308BD3002030008B5024B09
:105C3C001B681B6A019308BD3002030008B5024BB8
:105C4C001B685B6A019308BD3002030008B5024B68
:105C5C001B689B6A019308BD3002030008B5024B18
:105C6C001B689B6B019308BD3002030008B5024B07
:105C7C001B68DB6B019308BD3002030008B5024BB7
:105C8C001B681B6C019308BD3002030008B5024B66
:105C9C001B685B6C019308BD3002030008B5024B16
:105CAC001B68DB68019308BD3C02030008B5024B7E
:105CBC001B681B69019308BD3C02030008B5024B2D
:105CCC001B685B69019308BD3C02030008B5024BDD
:105CDC001B689B69019308BD3C02030008B5024B8D
:105CEC001B68DB69019308BD3C02030008B5024B3D
:105CFC001B681B6A019308BD3C02030008B5024BEC
:105D0C001B689B6A019308BD3C02030008B5024B5B
:105D1C001B681B6C019308BD3C02030008B5024BC9
:105D2C001B685B69019308BD6402030008B5024B54
:105D3C001B68DB68019308BD4802030008B5024BE1
:105D4C001B685B6C019308BD4802030008B5024B4D
:105D5C001B685B68019308BD1802030008B5024B71
:105D6C001B681B69019308BD1802030008B5024BA0
:105D7C001B685B69019308BD1802030008B5024B50
:105D8C001B689B68019308BD2C02030008B5024BED
:105D9C001B68DB68019308BD2C02030008B5024B9D
:105DAC001B681B69019308BD2C02030008B5024B4C
:105DBC001B689B68019308BD6802030008B5024B81
:105DCC001B68DB68019308BD6802030008B5024B31
:105DDC001B689B68019308BD4402030008B5024B85
:105DEC001B68DB6B019308BD4402030008B5024B32
:105DFC001B685B68019308BD4002030008B5024BA9
:105E0C001B689B68019308BD4002030008B5024B58
:105E1C001B68DB68019308BD4002030008B5024B08
:105E2C001B681B69019308BD4002030008B5024BB7
:105E3C001B685B69019308BD4002030008B5024B67
:105E4C001B689B69019308BD4002030008B5024B17
:105E5C001B68DB69019308BD4002030008B5024BC7
:105E6C001B681B6A019308BD4002030008B5024B76
:105E7C001B681B6B019308BD4002030008B5024B65
:105E8C001B685B6B019308BD4002030008B5024B15
:105E9C001B681B6C019308BD4002030008B5024B44
:105EAC001B685B6C019308BD4002030008B5024BF4
:105EBC001B685B68019308BD2002030008B5024B08
:105ECC001B685B69019308BD2002030008B5034BF6
:105EDC001B68D3F88830019308BD00002002030032
:105EEC0008B5034B1B68D3F89430019308BD000030
:105EFC002002030008B5024B1B681B68019308BD08
:105F0C001C02030008B5024B1B685B68019308BDBB
:105F1C001C02030008B5024B1B685B6A019308BDA9
:105F2C001C02030008B5024B1B681B6C019308BDD7
:105F3C001C02030008B5024B1B685B6C019308BD87
:105F4C001C020300002340681A46FFF74FBF40684D
:105F5C0000220221FFF75ABF002240681146FFF7CA
:105F6C004DBF002240681146FFF758BF0023406820
:105F7C001A461946FFF75ABF002340681A461946BD
:105F8C00FFF75CBF40680021FFF780BF406800212D
:105F9C00FFF784BF4068002281F00101FFF756BF74
:105FAC0040680022FFF762BF002240681146FFF7ED
:105FBC0065BF002240681146FFF750BF2DE9F04342
:105FCC0095B014460D46074600F0E2FA00211C225B
:105FDC000DA8009101F0DAF940230C9320466B4692
:105FEC000CAA0021FFF7EAFE044600284BD102461A
:105FFC0001216868FFF712FF02218046224668687B
:10600C00FFF70CFF009E81462146002E3BD0002955
:10601C0039D17368022B03D00A2B11D0F669F4E73F
:10602C00B8F1000FFAD0716906A8043107AD00F081
:10603C00DDFA0FCD3C1D0FC42B6823704146EDE7F4
:10604C00B9F1000FEAD07469102201A801F09EF991
:10605C0006238DF8143001AD04F1080318341868C8
:10606C0059682A4603C20833A3421546F7D101A941
:10607C0006A807AD00F09AFA0FCD3C1D0FC42B6893
:10608C0023704946CAE70098FFF790FE384615B0D2
:10609C00BDE8F083024B034A1A6000225A60704735
:1060AC009CE6032030770B000021FFF7EFBD0021A9
:1060BC00FFF7E4BD10B5044608462170FFF7AEFDAE
:1060CC0000236360204610BD13B504460078FFF72B
:1060DC00EEFF58B9207801904FF6FF71FFF78EFD57
:1060EC00019802B0BDE81040FFF7DEBF02B010BD52
:1060FC000078FFF7D9BF0000400830B518600024C5
:10610C0018688842E5B206D90134082C02D0400840
:10611C001860F5E70725024B5B5D137030BD00BFBF
:10612C0064770B002DE9F04306468FB000780C46DF
:10613C00FFF7BDFF00281BDB35781422002109A8CE
:10614C0001F024F90B23002209A92846ADF82430CC
:10615C00FFF774FD9DF82D3013B19DF82C5055B1FF
:10616C000027B946B846012523795DB1C3B100209B
:10617C000FB0BDE8F083DDF830809DF834909DF8C9
:10618C003570F1E7002B35D1A368434508D18DF864
:10619C0020908DF82170BDF82020A3899A42E6D07A
:1061AC000023A1688DF80F300A9804AB0DF10F0293
:1061BC00FFF7A2FF217985B989B9A36843450ED3AE
:1061CC008DF820908DF82170BDF82020A3899A427B
:1061DC0005D1049B434502D1C9E70029F9D100231D
:1061EC000193637B00939DF80F20237B3078FFF79E
:1061FC003DFDBCE7CDE900552B462A460121F5E7CC
:10620C0008B50078FFF702FDC0B208BD30B587B005
:10621C0004460A9D00950078FFF718FD3DB92078DB
:10622C0002A9FFF71BFD9DF81430DB07F7D407B06C
:10623C0030BD10B5044628B101F0DEF890FBF4F344
:10624C0003FB1404204610BD884210B5044603DA43
:10625C00081AFFF7EEFF0444204610BD7047F8B54E
:10626C00064615460C468F18BC4206D0336814F807
:10627C00011B9B6830469847F6E72846F8BD007C22
:10628C000022FFF783BC007C0021FFF787BC007C59
:10629C000021FFF78BBC007C0021FFF78FBC007C3A
:1062AC000021FFF793BC10B514210446FDF7EDFE59
:1062BC00204610BD10B54FF47A73044608460021F1
:1062CC00C4E90113034B236020741146FFF78EFCC5
:1062DC00204610BD74770B0070474174704708B5A9
:1062EC00007CFFF70BFD20EAE07008BD08B5007CD0
:1062FC00FFF7DCFC20EAE07008BD08B5007CFFF776
:10630C00E5FC40EAE07008BD08B5007CFFF7D6FC60
:10631C0040EAE07008BD007CFFF7E0BC37B5457C77
:10632C0004462DB1207C03B0BDE83040FFF7B6BC6D
:10633C00007C0191FFF7E2FC00280199F2DC284671
:10634C0003B030BD10B514210446FDF79EFE204667
:10635C0010BD000010B54FF47A7304460846114680
:10636C000022C4E90123044B2360012320746374CD
:10637C00FFF7CCFC204610BD9C770B000022406838
:10638C001146FFF74BBD002240681146FFF766BD72
:10639C00002240681146FFF771BD40680022FFF7EC
:1063AC0065BD4068002281F00101FFF74FBD00235D
:1063BC0040681A461946FFF741BD002340681A464B
:1063CC001946FFF733BD002240681146FFF716BD92
:1063DC00406800220221FFF719BD002340681A46CD
:1063EC00FFF704BD084B10B528242246184600219F
:1063FC0000F0CCFF054B04804FF0FF3242600422CA
:10640C005A60034A1A6010BDACE60320A4E60320D0
:10641C00CC770B00417470477047704708B500216A
:10642C00007CFFF79BFB40EAE07008BD08B501213A
:10643C00007CFFF793FB40EAE07008BD08B5007CD8
:10644C00FFF784FB20EAE07008BD08B5007CFFF77D
:10645C0075FB20EAE07008BD13B50446007C019181
:10646C00FFF774FB0028019901DC607C20B1207CD3
:10647C00FFF77CFB20EAE07002B010BD007CFFF758
:10648C007DBB10B514210446FDF7FFFD204610BD61
:10649C0010B54FF47A73044608460021C4E9011381
:1064AC00044B23600123207463741146FFF736FB01
:1064BC00204610BD08780B00007C0022FFF736BB8D
:1064CC0010B514220446002100F060FF204610BDD8
:1064DC0010B50F4C88B003A8FFF7F2FF2178BFF37B
:1064EC005B8F11F001010FD120460191FDF7CFFD1B
:1064FC00019948B103AA0748FFF7CAFF2046FDF7E8
:10650C00CBFD054800F01EFF024808B010BD00BFCF
:10651C00D4E60320D8E6032025640B00704710B5A1
:10652C0018210446FDF7B1FD204610BDF0B5037DE2
:10653C00062B8DB00E4600F104074FF0000412D06C
:10654C0000F1080515F8011D0A22304600F04FF93C
:10655C00AF42044419D0002CF4D02E21304600F068
:10656C0027F90444EEE72F236A4639460A208DF8B2
:10657C000040FFF7D3FB684600F07CFF336802460F
:10658C00DB68694630469847044620460DB0F0BD9E
:10659C0010B5054B0446112240F8043B002100F0D5
:1065AC00F5FE204610BD00BF38780B000346074AA5
:1065BC0010B543F8042B01F1100251F8044B43F8C9
:1065CC00044B9142F9D10A781A7010BD38780B003F
:1065DC0010B59DF8084044EA032343EA024242EA1C
:1065EC00016104234160037510BD000007B5064B23
:1065FC000360CB7800938B784A780978FFF7E8FF33
:10660C0003B05DF804FB00BF38780B00014B186039
:10661C00704700BF58E1032008B50B4B43B1FFF79F
:10662C0057FF03681B699847002801DDAFF3008012
:10663C00064B43B100F0DAF903681B699847002850
:10664C0001DDAFF3008008BD000000000000000079
:10665C0008B5FFF7E1FFFFF789FB014B186008BD98
:10666C0040E703200548064A064908B5121A00F00F
:10667C007FFE054B054A1A6008BD00BF00F40320DD
:10668C0004F4032084790B0000F403201E1C279AC9
:10669C0007B5002300931A466FF07701FFF720FC33
:1066AC0003B05DF804FB000007B543880A2B08D043
:1066BC00502B0BD1094B1B684BB103B05DF804EBAD
:1066CC001847FFF7E5FF03B05DF804FB00230093C8
:1066DC001A466FF07701FFF703FCF4E7F0E60320AE
:1066EC0010B512480021FFF725FC114B1A68114B0D
:1066FC009A42114B0CBF012200221A7001D0FFF7F5
:10670C00B1FFFFF723FB044600F048FE0B4B13B11F
:10671C002046AFF3008000210848FFF75FFBBDE87F
:10672C00104007480021FFF7D1BB00BF19660B00D2
:10673C0000F403201E1C279AECE603200000000046
:10674C00B5660B00014B00229A607047F4E60320FB
:10675C000021FFF7B3BB0000024B1A68024B1A6012
:10676C00704700BF54E1032004E70320014B024AA9
:10677C001A60704708E7032060780B00F8B50646EE
:10678C000D468F180024BD420CD0336815F8011B40
:10679C009B6830469847031E01DB1C44F3E7002C32
:1067AC0008BF1C462046F8BD08B5FEF798FE08BD8C
:1067BC0003689B68184708B5FEF791FE08BD38B50D
:1067CC000D210546FFF7F4FF0A2104462846FFF782
:1067DC00EFFF204438BD38B50546FEF780FE044671
:1067EC002846FFF7ECFF204438BDFFF7F4BF30B567
:1067FC008BB00023012A8DF8243098BF0A2209ACF3
:10680C000D46B1FBF2F101FB125303F0FF03092B10
:10681C0094BF30333733DBB2AA4204F8013DEFD9D1
:10682C002146FEF75CFE0BB030BD2DE9F04186B081
:10683C0000AF05460E46381D142114463B60FFF789
:10684C0069FB13280ED8391D2846FEF748FE04466E
:10685C001EB12846FFF7B3FF044420461837BD4647
:10686C00BDE8F08100F1080323F00703E846ADEB27
:10687C00030D2246411C3B686846FFF74BFB6946FB
:10688C002846FEF72CFE0446C546E1E702480023E5
:10689C000360FFF753BA00BF0CE70320054B02223D
:1068AC001A60054B054A9A600020C3E90000FFF707
:1068BC00FDBA00BF1CE7032010E703200000FFFF18
:1068CC00002240681146FFF7C9BA00224068114601
:1068DC00FFF7D4BA40680022FFF7C8BA406800221C
:1068EC0081F00101FFF7B2BA002340681A4619463D
:1068FC00FFF7A4BA002340681A461946FFF796BA68
:10690C00002240681146FFF789BA00224068114600
:10691C00FFF774BA406800220221FFF777BA002310
:10692C0040681A46FFF762BA024B03225A60024AC9
:10693C001A60704720E703206C780B00704700004A
:10694C0038B520251423044603608560056106498B
:10695C00284600F0D7F804496060284600F0D2F8C9
:10696C00E060204638BD00BFA0780B0030B50E4D5E
:10697C002978BFF35B8F11F0010487B011D1284641
:10698C00FDF785FB68B101A8FFF7DAFF01AA2146E4
:10699C000648FFF78FFC2846FDF77EFB044800F005
:1069AC00D1FC024807B030BD28E703202CE70320B8
:1069BC0049690B007047000038B5044614252A4677
:1069CC00002100F0E3FC258040250749258128465D
:1069DC00258200F097F804496060284600F092F890
:1069EC00E060204638BD00BFA0780B0030B50E4DDE
:1069FC002978BFF35B8F11F0010487B011D12846C1
:106A0C00FDF745FB68B101A8FFF7D6FF01AA2146A7
:106A1C000648FFF79FFC2846FDF73EFB044800F0B4
:106A2C0091FC024807B030BD44E7032048E703203F
:106A3C00C1690B00252813B502D9002002B010BD86
:106A4C00A0F10B03022B1AD8174C2178BFF35B8FE4
:106A5C0011F001010BD120460191FDF718FB0199B2
:106A6C0028B11248FFF726FB2046FDF715FB0F4B0C
:106A7C001878FFF7DBF80028DFD10120DEE70128CA
:106A8C0009D8FFF773FF0021007CFFF7A7F880F00F
:106A9C000100C0B2D2E709380128EED8FFF7A6FFF3
:106AAC00007CFFF723F9F2E7C0E10320C4E10320E7
:106ABC00252838B504460D460AD8FF2908D0FFF71B
:106ACC00B9FF28B129462046BDE83840FFF756B932
:106ADC0038BD38B504460D46FFF758F9FF2810D0DD
:106AEC00062804D84D2323FA00F0C30709D4204606
:106AFC00FFF7A0FF28B129462046BDE83840FFF734
:106B0C004DB938BDFDF7BFBA81F0004102E000BFBE
:106B1C0083F0004330B54FEA41044FEA430594EA51
:106B2C00050F08BF90EA020F1FBF54EA000C55EA8C
:106B3C00020C7FEA645C7FEA655C00F0E2804FEA5D
:106B4C005454D4EB5555B8BF6D420CDD2C4480EA3F
:106B5C00020281EA030382EA000083EA010180EA6F
:106B6C00020281EA0303362D88BF30BD11F0004FBD
:106B7C004FEA01314FF4801C4CEA113102D04042F3
:106B8C0061EB410113F0004F4FEA03334CEA13332E
:106B9C0002D0524263EB430394EA050F00F0A78046
:106BAC00A4F10104D5F1200E0DDB02FA0EFC22FA41
:106BBC0005F2801841F1000103FA0EF2801843FA35
:106BCC0005F359410EE0A5F120050EF1200E012A26
:106BDC0003FA0EFC28BF4CF0020C43FA05F3C01864
:106BEC0051EBE37101F0004507D54FF0000EDCF1DD
:106BFC00000C7EEB00006EEB0101B1F5801F1BD386
:106C0C00B1F5001F0CD349085FEA30004FEA3C0C89
:106C1C0004F101044FEA445212F5800F80F09A807F
:106C2C00BCF1004F08BF5FEA500C50F1000041EB83
:106C3C00045141EA050130BD5FEA4C0C404141EB87
:106C4C000101013C28BFB1F5801FE9D291F0000F82
:106C5C0004BF01460020B1FA81F308BF2033A3F131
:106C6C000B03B3F120020CDA0C3208DD02F1140C28
:106C7C00C2F10C0201FA0CF021FA02F10CE002F163
:106C8C001402D8BFC2F1200C01FA02F120FA0CFC5C
:106C9C00DCBF41EA0C019040E41AA2BF01EB0451A5
:106CAC00294330BD6FEA04041F3C1CDA0C340EDCA3
:106CBC0004F11404C4F1200220FA04F001FA02F3E6
:106CCC0040EA030021FA04F345EA030130BDC4F1A4
:106CDC000C04C4F1200220FA02F001FA04F340EA99
:106CEC000300294630BD21FA04F0294630BD94F04A
:106CFC00000F83F4801306BF81F480110134013D31
:106D0C004EE77FEA645C18BF7FEA655C29D094EAA1
:106D1C00050F08BF90EA020F05D054EA000C04BF1F
:106D2C001946104630BD91EA030F1EBF002100200A
:106D3C0030BD5FEA545C05D14000494128BF41F0A9
:106D4C00004130BD14F580043CBF01F5801130BD0D
:106D5C0001F0004545F0FE4141F470014FF0000098
:106D6C0030BD7FEA645C1ABF194610467FEA655C49
:106D7C001CBF0B46024650EA013406BF52EA0335EB
:106D8C0091EA030F41F4002130BD00BF90F0000FD9
:106D9C0004BF0021704730B54FF4806404F1320415
:106DAC004FF000054FF0000150E700BF90F0000FCE
:106DBC0004BF0021704730B54FF4806404F13204F5
:106DCC0010F0004548BF40424FF000013EE700BFC5
:106DDC0042004FEAE2014FEA31014FEA02701FBF55
:106DEC0012F07F4393F07F4F81F06051704732F087
:106DFC007F4208BF704793F07F4F04BF41F40021DE
:106E0C00704730B54FF4607401F0004521F000413B
:106E1C001CE700BF50EA010208BF704730B54FF0C5
:106E2C0000050AE050EA010208BF704730B511F0C6
:106E3C00004502D5404261EB41014FF4806404F1FE
:106E4C0032045FEA915C3FF4D8AE4FF003025FEA84
:106E5C00DC0C18BF03325FEADC0C18BF033202EB08
:106E6C00DC02C2F1200300FA03FC20FA02F001FA62
:106E7C0003FE40EA0E0021FA02F11444BDE600BF05
:106E8C0070B54FF0FF0C4CF4E06C1CEA11541DBFB4
:106E9C001CEA135594EA0C0F95EA0C0F00F0DEF87F
:106EAC002C4481EA030621EA4C5123EA4C5350EA64
:106EBC00013518BF52EA033541F4801143F48013B5
:106ECC0038D0A0FB02CE4FF00005E1FB02E506F046
:106EDC000042E0FB03E54FF00006E1FB03569CF09B
:106EEC00000F18BF4EF0010EA4F1FF04B6F5007FA1
:106EFC0064F5407404D25FEA4E0E6D4146EB060613
:106F0C0042EAC62141EA55514FEAC52040EA5E509B
:106F1C004FEACE2EB4F1FD0C88BFBCF5E06F1ED845
:106F2C00BEF1004F08BF5FEA500E50F1000041EB7C
:106F3C00045170BD06F0004646EA010140EA020029
:106F4C0081EA0301B4EB5C04C2BFD4EB0C0541EA4B
:106F5C00045170BD41F480114FF0000E013C00F360
:106F6C00AB8014F1360FDEBF002001F0004170BD84
:106F7C00C4F10004203C35DA0C341BDC04F114049D
:106F8C00C4F1200500FA05F320FA04F001FA05F229
:106F9C0040EA020001F0004221F0004110EBD370F6
:106FAC0021FA04F642EB06015EEA430E08BF20EA22
:106FBC00D37070BDC4F10C04C4F1200500FA04F3C5
:106FCC0020FA05F001FA04F240EA020001F0004157
:106FDC0010EBD37041F100015EEA430E08BF20EACA
:106FEC00D37070BDC4F1200500FA05F24EEA020E12
:106FFC0020FA04F301FA05F243EA020321FA04F041
:10700C0001F0004121FA04F220EA020000EBD370F7
:10701C005EEA430E08BF20EAD37070BD94F0000FF7
:10702C000FD101F00046400041EB010111F4801F2B
:10703C0008BF013CF7D041EA060195F0000F18BFDC
:10704C00704703F00046520043EB030313F4801F18
:10705C0008BF013DF7D043EA0603704794EA0C0FD2
:10706C000CEA135518BF95EA0C0F0CD050EA4106E8
:10707C0018BF52EA4306D1D181EA030101F0004165
:10708C004FF0000070BD50EA410606BF104619468D
:10709C0052EA430619D094EA0C0F02D150EA013699
:1070AC0013D195EA0C0F05D152EA03361CBF1046DA
:1070BC0019460AD181EA030101F0004141F0FE4179
:1070CC0041F470014FF0000070BD41F0FE4141F4FD
:1070DC00780170BD70B54FF0FF0C4CF4E06C1CEAFD
:1070EC0011541DBF1CEA135594EA0C0F95EA0C0FB2
:1070FC0000F0A7F8A4EB050481EA030E52EA03356D
:10710C004FEA013100F088804FEA03334FF080558D
:10711C0045EA131343EA12634FEA022245EA1115BA
:10712C0045EA10654FEA00260EF000419D4208BF6B
:10713C00964244F1FD0404F5407402D25B084FEA18
:10714C003202B61A65EB03055B084FEA32024FF4C4
:10715C0080104FF4002CB6EB020E75EB030E22BF21
:10716C00B61A754640EA0C005B084FEA3202B6EBE1
:10717C00020E75EB030E22BFB61A754640EA5C0090
:10718C005B084FEA3202B6EB020E75EB030E22BF20
:10719C00B61A754640EA9C005B084FEA3202B6EB21
:1071AC00020E75EB030E22BFB61A754640EADC00E0
:1071BC0055EA060E18D04FEA051545EA16754FEA42
:1071CC0006164FEAC30343EA52734FEAC2025FEA60
:1071DC001C1CC0D111F4801F0BD141EA00014FF0EF
:1071EC0000004FF0004CB6E711F4801F04BF0143C0
:1071FC000020B4F1FD0C88BFBCF5E06F3FF6AFAEDC
:10720C00B5EB030C04BFB6EB020C5FEA500C50F16B
:10721C00000041EB045170BD0EF0004E4EEA1131EE
:10722C0014EB5C04C2BFD4EB0C0541EA045170BDF5
:10723C0041F480114FF0000E013C90E645EA060E39
:10724C008DE60CEA135594EA0C0F08BF95EA0C0F67
:10725C003FF43BAF94EA0C0F0AD150EA01347FF4AF
:10726C0034AF95EA0C0F7FF425AF104619462CE786
:10727C0095EA0C0F06D152EA03353FF4FDAE1046E9
:10728C00194622E750EA410618BF52EA43067FF43A
:10729C00C5AE50EA41047FF40DAF52EA43057FF4CA
:1072AC00EBAE12E74FEA4102B2F1E04324BFB3F573
:1072BC00001CDCF1FE5C0DD901F0004C4FEAC00261
:1072CC004CEA5070B2F1004F40EB830008BF20F045
:1072DC000100704711F0804F21D113F13872BCBFFF
:1072EC0001F00040704741F480114FEA5252C2F154
:1072FC001802C2F1200C10FA0CF320FA02F018BF9D
:10730C0040F001004FEAC1234FEAD32303FA0CFCEF
:10731C0040EA0C0023FA02F34FEA4303CCE77FEA7E
:10732C00625307D150EA01331EBF4FF0FE4040F4C8
:10733C004000704701F0004040F0FE4040F4000077
:10734C00704700BF002301461A46184600F09AB851
:10735C0010B501390244904201D1002005E00378B8
:10736C0011F8014FA34201D0181B10BD0130F2E7F8
:10737C000A44914200F1FF3300D1704710B511F867
:10738C00014B03F8014F9142F9D110BD0244034661
:10739C00934200D1704703F8011BF9E738B5104B45
:1073AC001D68AB6B0446B3B91820FEF7A3FD02466B
:1073BC00A86320B90B4B0C484221FEF7B3FD0B49D7
:1073CC000B4BC0E900130B4B83600B238381002113
:1073DC000120C2E90401AB6B00221C615A6138BD6B
:1073EC0058E10320A1780B00B8780B000E33CDAB1D
:1073FC0034126DE6ECDE0500164B10B51C68A36B61
:10740C00B3B91820FEF776FDA06328B90246124BDB
:10741C0012484E21FEF786FD114A124BC0E900239B
:10742C00114B83600B23838101220023C0E90423C9
:10743C00A46B0E4A206963690D49424301FB032288
:10744C00A0FB0101431C42EB0100C4E9043020F015
:10745C00004010BD58E10320A1780B00B8780B0058
:10746C000E33CDAB34126DE6ECDE05002DF4515825
:10747C002D7F954C034613F8012B002AFBD1181ACB
:10748C00013870472DE9F843DFF8B8800646D8F884
:10749C0000001F460D46914600F056F8254B1C681F
:1074AC0034B9254C1C60254B13B11B68C4F88830CB
:1074BC0063681F2B07DDD8F8000000F047F84FF089
:1074CC00FF30BDE8F8834EB3D4F8880088B91C4B64
:1074DC0023B9D8F8000000F038F8F0E74FF48470C6
:1074EC00FEF708FD0028F4D00023C0E94033C4F8AF
:1074FC008800636840F8239001229A4000EB8301D6
:10750C00D0F800311343C0F80031022EC1F880705E
:10751C0002BFD0F804311343C0F804316368D8F8C3
:10752C0000005A1C0233626044F8235000F00EF83D
:10753C000020C6E7E8E703205CE70320000000001A
:10754C00015F0B00BCE103207047704770470000DF
:10755C001D400B0059400B0081400B0085400B0077
:10756C000000000064656661756C7420004D534228
:10757C00004C5342003C53504953657474696E6718
:10758C00732064656661756C743E003C53504953BE
:10759C00657474696E6773202573257520257320B7
:1075AC004D4F444525753E005374617274696E6786
:1075BC002044617461204C6F6767696E67200A0014
:1075CC0043616E2774206372656174652066696C13
:1075DC0065206E616D650066696C652E6F70656EF9
:1075EC00004C6F6767696E6720746F3A20257320B3
:1075FC000A0025662C2025662C2025662C20256665
:10760C002C2025660A007772697465206572726F8A
:10761C007200446F6E65200A0052656164792066C1
:10762C006F72206E6578742064617461206C6F6772
:10763C00200A0043616E27742061636365737320B5
:10764C00534420636172642E20446F206E6F74204B
:10765C007265666F726D61742E004E6F206361727D
:10766C00642C2077726F6E67206368697020736575
:10767C006C6563742070696E2C206F7220535049B6
:10768C002070726F626C656D3F005344206572729E
:10769C006F72436F64653A203058002C30580049A3
:1076AC006E76616C696420666F726D61742C2072E9
:1076BC0065666F726D61742053442E0043616E27B2
:1076CC0074206F70656E20726F6F742064697265C0
:1076DC0063746F72792E004E6F206572726F722018
:1076EC00666F756E642E0048656C6C6F0A00000046
:1076FC00000000000000000005410B00AB400B0037
:10770C00AF400B000000000000000000AD400B007B
:10771C00BD400B00D1400B00CB400B000000000023
:10772C0000000000515F0B005B5F0B00655F0B00FE
:10773C006F5F0B00795F0B00855F0B00915F0B0097
:10774C00995F0B00A15F0B00AD5F0B00B55F0B00E9
:10775C00BF5F0B00C95F0B000008101820283038E1
:10776C00000000000000000069620B00B3620B0017
:10777C008B620B006B620B0093620B009B620B0025
:10778C00A3620B00AB620B000000000000000000C5
:10779C00E5620B0051630B0029630B0089670B003A
:1077AC00F9620B0015630B0007630B0023630B00DE
:1077BC00E7620B00EB620B00000000000000000011
:1077CC00E7630B00DD630B00D3630B0089630B00D5
:1077DC00C7630B00BB630B00915F0B00995F0B0041
:1077EC00AF630B00A7630B009D630B0093630B004F
:1077FC00C95F0B00000000000000000027640B00B4
:10780C008F640B0065640B0089670B0057640B00D9
:10781C0029640B0039640B0089640B0049640B006C
:10782C0021640B00000000000000000039650B0013
:10783C0029650B002B650B0025592D256D2D256415
:10784C005425483A254D3A2553257A0061736374C3
:10785C00696D6500617070000000000000000000A0
:10786C002B690B0021690B0017690B000D690B00CC
:10787C0001690B00F5680B00915F0B00995F0B0021
:10788C00E9680B00E1680B00D7680B00CD680B00B2
:10789C00C95F0B00005245454E54206D616C6C6FF6
:1078AC006320737563636565646564002F6D6E7426
:1078BC002F776F726B73706163652F776F726B7359
:1078CC00706163652F4743432D31302D70697065AE
:1078DC006C696E652F6A656E6B696E732D474343D9
:1078EC002D31302D706970656C696E652D34385F83
:1078FC0032303230313132345F313630363138302B
:10790C003634312F7372632F6E65776C69622F6E0C
:10791C0065776C69622F6C6962632F7374646C6930
:10792C00622F72616E642E6300000000D5440B0060
:10793C00A1600B00F1630B0051670B0065670B0036
:10794C0079670B0099680B00A9680B0035690B006F
:04795C000000000027
:10796000040000001400000003000000474E550012
:107970006E2D10967415009F5469E643D03B872EF8
:04798000B3065AB739
:0479840000000000FF
:107988007474656D70732E637376000000000000D8
:1079980058780B005CE103200000000000000000A4
:1079A80000000000000000000000000000000000CF
:1079B80000000000000000000000000000000000BF
:1079C80000000000000000000000000000000000AF
:1079D800000000000000000000000000000000009F
:1079E800000000000000000000000000000000008F
:0C79F8000000000000000000ECE703208D
:107A0400FFFFFFFF00000102030405060708090A3F
:107A14000B0C0D0E0F101112131415161718191A3A
:087A24001B1C1D1E1F20280081
:047A2C007856341242
:04000003B000401CED
:00000001FF
