:02000002B0004C
:1040000000400B004C580B00000006000C0005029D
:084010000401A30F00000000F1
:0440180048550B00FC
:10401C0009480A49884208B505D0094A824202D0AB
:10402C00121A01F0BAF90748074A0021121A01F0D6
:10403C00C2F9014808BD00BF28E60320B8570B00A1
:10404C0094E6032098E60320F1E7032070B5074EB1
:10405C00074C00F0E1FFA41BA4080025AC4200D1E2
:10406C0070BD56F8043B98470135F7E76C570B00C9
:10407C0090570B0000F016B808B500F03DF8BDE8FD
:10408C00084000F081BF00F01FBA00F01DBA00F02C
:10409C0023BA0078B0FA80F040097047012303700E
:1040AC007047000008B50121FF2000F0E7FF00F089
:1040BC003FF910B1002000F04BF9BDE80840024870
:1040CC004FF0FF3100F0D5BC40E7032038B5046851
:1040DC0005467CB16368013B63605BB9236820468D
:1040EC009B689847A368013BA3601BB923682046D3
:1040FC00DB689847284638BD30B585B001F042F8EA
:10410C00E8B91F4C2578F5B900F012F910B1284622
:10411C0000F01EF94FF0FF311A4800F0AAFC1A4BC0
:10412C001A491B788DF8003000223C2302A800F0BD
:10413C009DFD03A8FFF7CAFF0123237003E001F0E4
:10414C0021F81E28DDD001F01DF83B2812D10C4CB3
:10415C0023789BB10C4B0E491B788DF80030002254
:10416C003C2302A800F082FD03A8FFF7AFFF002359
:10417C00237003E001F006F81D28E8D005B030BD2F
:10418C0099E6032040E7032098E603205C550B00DA
:10419C0063550B00014B00221A70704798E6032000
:1041AC0008B5024B1B681B68019308BD4C02030049
:1041BC0008B5024B1B681B69019308BD4C02030038
:1041CC0008B5024B1B685B69019308BD4C020300E8
:1041DC0008B5024B1B689B69019308BD4C02030098
:1041EC0008B5024B1B68DB69019308BD4C02030048
:1041FC0008B5024B1B681B6A019308BD4C020300F7
:10420C0008B5024B1B68DB68019308BD3C02030038
:10421C0008B5024B1B681B69019308BD3C020300E7
:10422C0008B5024B1B685B69019308BD3C02030097
:10423C0008B5024B1B689B69019308BD3C02030047
:10424C0008B5024B1B68DB69019308BD3C020300F7
:10425C0008B5024B1B689B6A019308BD3C02030026
:10426C0008B5024B1B681B6C019308BD3C02030094
:10427C0008B5024B1B685B69019308BD640203001F
:10428C0008B5024B1B685B6C019308BD4802030028
:10429C0008B5024B1B685B68019308BD180203004C
:1042AC0008B5024B1B685B69019308BD180203003B
:1042BC0008B5024B1B689B6D019308BD18020300E7
:1042CC0008B5024B1B685B6E019308BD1802030016
:1042DC0008B5024B1B689B68019308BD680203007C
:1042EC0008B5024B1B68DB68019308BD680203002C
:1042FC0008B5024B1B681B69019308BD60020300E3
:10430C0008B5024B1B689B69019308BD6002030052
:10431C0008B5024B1B68DB69019308BD6002030002
:10432C0008B5024B1B689B68019308BD440203004F
:10433C0008B5024B1B685B69019308BD440203007E
:10434C0008B5024B1B681B6A019308BD44020300AD
:10435C0008B5024B1B68DB6A019308BD44020300DD
:10436C0008B5024B1B681B6B019308BD440203008C
:10437C0008B5024B1B68DB6B019308BD44020300BC
:10438C0008B5024B1B681B6C019308BD440203006B
:10439C0008B5024B1B685B68019308BD4002030023
:1043AC0008B5024B1B689B68019308BD40020300D3
:1043BC0008B5024B1B68DB68019308BD4002030083
:1043CC0008B5024B1B681B69019308BD4002030032
:1043DC0008B5024B1B685B69019308BD40020300E2
:1043EC0008B5024B1B689B69019308BD4002030092
:1043FC0008B5024B1B68DB69019308BD4002030042
:10440C0008B5024B1B681B6A019308BD40020300F0
:10441C0008B5024B1B681B6B019308BD40020300DF
:10442C0008B5024B1B685B6B019308BD400203008F
:10443C0008B5024B1B681B6C019308BD40020300BE
:10444C0008B5024B1B685B6C019308BD400203006E
:10445C0008B5024B1B681B68019308BD20020300C2
:10446C0008B5024B1B685B68019308BD2002030072
:10447C0008B5024B1B68DB6C019308BD20020300DE
:10448C0008B5024B1B685B6D019308BD200203004D
:10449C0008B5024B1B689B6D019308BD20020300FD
:1044AC0008B5034B1B68D3F88830019308BD000096
:1044BC002002030008B5034B1B68D3F8943001931A
:1044CC0008BD00002002030008B5024B1B681B68E6
:1044DC00019308BD1C02030008B5024B1B685B6806
:1044EC00019308BD1C02030008B5024B1B68DB6A74
:1044FC00019308BD1C02030008B5024B1B681B6B23
:10450C00019308BD1C02030008B5024B1B681B6C11
:10451C00019308BD1C02030008B5024B1B685B6CC1
:10452C00019308BD1C02030008B5024B1B68DB6C31
:10453C00019308BD1C02030010B58368044613B137
:10454C00032201469847204610BD002340681A46B6
:10455C00FFF71EBF406800220221FFF729BF00228F
:10456C0040681146FFF71CBF002240681146FFF758
:10457C0027BF002340681A461946FFF729BF0023BE
:10458C0040681A461946FFF72BBF40680021FFF719
:10459C004FBF40680021FFF753BF4068002281F0F5
:1045AC000101FFF725BF40680022FFF731BF002251
:1045BC0040681146FFF734BF002240681146FFF7F0
:1045CC001FBF2DE9F04395B014460D46074600F089
:1045DC00CDF900211C220DA8009100F0ECFE402327
:1045EC000C9320466B460CAA0021FFF779FE04467B
:1045FC0000284BD1024601216868FFF7E1FE022139
:10460C00804622466868FFF7DBFE009E8146214605
:10461C00002E3BD0002939D17368022B03D00A2B12
:10462C0011D0F669F4E7B8F1000FFAD0716906A859
:10463C00043107AD00F0C8F90FCD3C1D0FC42B6839
:10464C0023704146EDE7B9F1000FEAD074691022EE
:10465C0001A800F0B0FE06238DF8143001AD04F172
:10466C0008031834186859682A4603C20833A34251
:10467C001546F7D101A906A807AD00F085F90FCDB5
:10468C003C1D0FC42B6823704946CAE70098FFF7FE
:10469C001FFE384615B0BDE8F0830000024B034AFC
:1046AC001A6000225A6070479CE6032078550B0074
:1046BC00002240681146FFF783BE00224068114675
:1046CC00FFF79EBE002240681146FFF7A9BE406866
:1046DC000022FFF79DBE4068002281F00101FFF728
:1046EC0087BE002340681A461946FFF779BE00239F
:1046FC0040681A461946FFF76BBE00224068114607
:10470C00FFF74EBE406800220221FFF751BE002386
:10471C0040681A46FFF73CBE024B04225A60024A1C
:10472C001A607047A4E60320B4550B0010B58368DB
:10473C0004460BB900F028FEC3689847A3681BB168
:10474C00032221462046984720461021BDE8104000
:10475C00FFF79DBC70474174704708B5007CFFF7AC
:10476C0077FD20EAE07008BD08B5007CFFF750FD2E
:10477C0020EAE07008BD08B5007CFFF759FD40EA5F
:10478C00E07008BD08B5007CFFF74AFD40EAE07018
:10479C0008BD007CFFF754BD37B5457C04462DB1F0
:1047AC00207C03B0BDE83040FFF72ABD007C0191AE
:1047BC00FFF74EFD00280199F2DC284603B030BD0E
:1047CC0010B514210446FFF762FC204610BD000012
:1047DC0010B54FF47A730446084611460022C4E91A
:1047EC000123044B2360012320746374FFF738FD0D
:1047FC00204610BDF0550B00417470477047704750
:10480C0008B50021007CFFF7E3FC40EAE07008BD2E
:10481C0008B50121007CFFF7DBFC40EAE07008BD25
:10482C0008B5007CFFF7CCFC20EAE07008BD08B5A9
:10483C00007CFFF7BDFC20EAE07008BD13B5044610
:10484C00007C0191FFF7BCFC0028019901DC607C25
:10485C0020B1207CFFF7C4FC20EAE07002B010BD50
:10486C00007CFFF7C5BC10B514210446FFF70FFC04
:10487C00204610BD10B54FF47A730446084600214B
:10488C00C4E90113044B23600123207463741146A3
:10489C00FFF786FC204610BD20560B0010B51422E5
:1048AC000446002100F087FD204610BD10B50F4CCA
:1048BC0088B003A8FFF7F2FF2178BFF35B8F11F0EC
:1048CC0001010FD120460191FFF7E3FB019948B19B
:1048DC0003AA0748FFF7CEFF2046FFF7DFFB05488A
:1048EC0000F055FD024808B010BD00BFACE6032037
:1048FC00B0E6032009480B00704710B51821044698
:10490C00FFF7C5FB204610BDF0B5037D062B8DB01F
:10491C000E4600F104074FF0000412D000F1080518
:10492C0015F8011D0A22304600F075FCAF42044414
:10493C0019D0002CF4D02E21304600F069FC044430
:10494C00EEE72F236A4639460A208DF80040FFF720
:10495C008FFC684600F083FD33680246DB686946CD
:10496C0030469847044620460DB0F0BD10B5054BB7
:10497C000446112240F8043B002100F01CFD2046A7
:10498C0010BD00BF50560B000346074A10B543F844
:10499C00042B01F1100251F8044B43F8044B9142E3
:1049AC00F9D10A781A7010BD50560B0010B59DF84D
:1049BC00084044EA032343EA024242EA0161042329
:1049CC004160037510BD000007B5064B0360CB7842
:1049DC0000938B784A780978FFF7E8FF03B05DF80D
:1049EC0004FB00BF50560B0070470020704710B5F9
:1049FC0010210446FFF74BFB204610BD08B5FFF70E
:104A0C00F6FF08BD30B500224FF69C74026084801E
:104A1C008D888C800C68858004600A6030BD10B570
:104A2C0004460068FFF758FD204610BD38B5C46831
:104A3C00F4B12378022B03D104F10C00FFF7EFFF44
:104A4C00656835B12846FFF777FD10212846FFF73A
:104A5C001EFBA56835B12846FFF76EFD10212846D0
:104A6C00FFF715FB20461421BDE83840FFF70FBBBC
:104A7C0038BD08460021FFF783BC0B6803604B6808
:104A8C00436013B15A6801325A60704737B5044617
:104A9C0068460D46FFF7F1FF009B019A23606260A8
:104AAC00002301A801930093FFF710FB35B1281DDB
:104ABC00FFF70CFB08212846FFF7E9FA204603B064
:104ACC0030BD13B50B460246D0E900016C4684E8B4
:104ADC00030093E8030082E8030094E8030083E8F2
:104AEC00030002B010BD826810B50AB900F04CFC8E
:104AFC00BDE81040C368184708B5006800F1100104
:104B0C00FFF7F1FF08BD826810B50AB900F03CFC54
:104B1C00BDE81040C368184708B5006800F11001E3
:104B2C00FFF7F1FF08BD000038B500230446036011
:104B3C0010200D46FFF7A7FA28B10123C0E9013375
:104B4C00024B0360C5602060204638BD64560B00E4
:104B5C0038B5002383608B6804460D462BB10222C6
:104B6C009847EB68E360AB68A360204638BD000053
:104B7C00F0B589B004686846FFF744FF4FF00203B4
:104B8C00D4E84F2F002A03D1C4E8413F0029F7D1C4
:104B9C0025D104F10C0569462846FFF733FFBFF316
:104BAC005B8F01236370002004F10803BFF35B8F5C
:104BBC0053E8006F43E80002002AF9D1BFF35B8F82
:104BCC006EB1FFF755FC78B129463046FFF78BFFE5
:104BDC003046FFF7B1FC10213046FFF758FA684613
:104BEC00FFF71DFF09B0F0BD314602A8FFF7B0FF7B
:104BFC00E068B4F9105008B100F014FC06901020D5
:104C0C00ADF81C50FFF73FFA0546E8B10027876066
:104C1C001820FFF738FA044688B10146876002A8CD
:104C2C00FFF74FFF049BA268A360059B049206A9A3
:104C3C00E268E36004F110000592FFF7E3FE084B15
:104C4C00EB60084B2C60AB6006A8FFF7E8FE02A8EF
:104C5C00FFF772FC002229460348FFF711FCB7E767
:104C6C00054B0B00894D0B0039470B002DE9F04F1C
:104C7C008BB005469DF850A00F4690469946FFF71D
:104C8C0057FB07AE834638BB4FF62E73059005A92C
:104C9C003046ADF81830FFF7B5FE1420FFF7F3F9E6
:104CAC00044648B1022303700123C0E901BB4370E1
:104CBC0031460C30FFF7A6FE2846214640F8044B3F
:104CCC00FFF732FF3046FFF7AAFE05A8FFF7A7FE55
:104CDC0028460BB0BDE8F08F0C2300241420CDE93E
:104CEC0008440793FFF7CFF9014618B1C0E9014416
:104CFC000470447004A80391FFF716FF1E4B089331
:104D0C000820FFF7C0F9044610B103A9FFF7B5FE60
:104D1C0000965FFA8AF34A46414638460994FFF7F3
:104D2C000FFBB8B9039B5B7803F0FF0293B94FF606
:104D3C009C7305A903A80592ADF81830FFF718FF6E
:104D4C0005A8FFF76CFE05A80999FFF79FFE06A8BA
:104D5C00FFF7BCF903A905A8FFF78FFE059B069A80
:104D6C002B606A60002306A806930593FFF7AEF943
:104D7C0004A8FFF7ABF9ABE7054E0B00012AF8B519
:104D8C00054603D10B6803600020F8BD022A10D041
:104D9C00032AF9D10468002CF6D004F11000FFF7B7
:104DAC003EFE2046FFF7C8FB18212046FFF76FF99F
:104DBC00EAE718200E68FFF766F9044650B1314651
:104DCC00FFF7C6FE3069B6F9147008B100F02AFB83
:104DDC002061A7822C60D7E738B5002383608B68ED
:104DEC0004460D462BB102229847EB68E360AB6892
:104DFC00A360204638BD0000F0B589B004460D46CE
:104E0C0001A81146FFF742FEA4B124B21DB12846F9
:104E1C0000F008FB054601A803A90395ADF8104066
:104E2C00FFF7A6FE03A8FFF7FAFD02A8FFF74EF95D
:104E3C0009B0F0BD019D0123D5E84F2F002A03D105
:104E4C00C5E8413F0029F7D1EFD12B73BFF35B8F3E
:104E5C006B702B1DBFF35B8F53E8006F43E8004270
:104E6C00002AF9D1BFF35B8F002EDED02046FFF76E
:104E7C00FFFA074660B105F10C013046FFF743FE1F
:104E8C003046FFF759FB10213046FFF700F9CCE70D
:104E9C00314603A8FFF7A0FF2B7B8DF81C301020A8
:104EAC00FFF7F1F80546D0B187601420FFF7EBF857
:104EBC00044678B18760014603A8FFF702FE059B04
:104ECC00A268A360069B0592E268E3609DF81C3023
:104EDC0006922374064BEB60064B2C60AB6003A868
:104EEC00FFF72AFB002229460348FFF7C9FAC7E758
:104EFC00254B0B00094F0B0039470B00012A70B5ED
:104F0C00044603D10B680360002070BD022A0CD04C
:104F1C00032AF9D10468002CF6D02046FFF70CFBCD
:104F2C0014212046FFF7B3F8EEE714200E68FFF7C4
:104F3C00AAF8054620B13146FFF74EFF337C2B749F
:104F4C002560E1E7014B1860704700BF2CE6032099
:104F5C0008B50B4B43B1FFF7A9FC03681B699847D5
:104F6C00002801DDAFF30080064B43B100F0E6F9F9
:104F7C0003681B699847002801DDAFF3008008BD6A
:104F8C00000000000000000008B5FFF7E1FFFFF78C
:104F9C0087F9014B186008BD44E703200548064A11
:104FAC00064908B5121A00F0F8F9054B054A1A60C3
:104FBC0008BD00BF00F4032004F40320B4570B0019
:104FCC0000F403201E1C279A07B5002300931A46F1
:104FDC006FF07701FFF76EFA03B05DF804FB000089
:104FEC0007B543880A2B08D0502B0BD1094B1B68F3
:104FFC004BB103B05DF804EB1847FFF7E5FF03B0C6
:10500C005DF804FB002300931A466FF07701FFF75D
:10501C0051FAF4E7C8E6032010B512480021FFF757
:10502C007BFA114B1A68114B9A42114B0CBF01229F
:10503C0000221A7001D0FFF7B1FFFFF729F90446DF
:10504C0000F0C2F90B4B13B12046AFF300800021E6
:10505C000848FFF78DF9BDE8104007480021FFF71D
:10506C001FBA00BF514F0B0000F403201E1C279ADF
:10507C00C4E6032000000000ED4F0B0010B50C46F9
:10508C00FFF736F9FFF73CF928B124B1BDE8104021
:10509C00E720FFF73DB910BD014B00229A60704725
:1050AC00CCE603202DE9F041154ADFF86080D2E907
:1050BC000063801943EB0101124BD3E90067D8E977
:1050CC000023861941EB0707BB4208BFB2428CB0E4
:1050DC0013D003A96846CDE90067FFF725FA089BB2
:1050EC00094D03F26C7303AC08930FCC0FC50FCCB6
:1050FC000FC5C8E9006723682B600CB0BDE8F081D0
:10510C0010E7032008E70320E0E6032018E703205C
:10511C0008B50020FFF724F928B1FFF709F980F052
:10512C000100C0B208BD0120FCE710B50020FFF75C
:10513C00BFF80446A0B9FFF78BF9012810D120461F
:10514C00FFF7A6F960B9FFF7E3FF10B9FFF7E8F82E
:10515C00F9E7FFF7DDFFBDE810400020FFF7A8B826
:10516C00204610BD1FB5FFF7E0FF10220021684656
:10517C0000F021F900216846FFF7A2F8009805B06D
:10518C005DF804FB08B5FFF7EDFFC117FFF78AFFC9
:10519C00014B586808BD00BFE0E60320024B1A68BB
:1051AC00024B1A60704700BF28E60320DCE60320A0
:1051BC00014B024A1A60704720E7032094560B00FB
:1051CC00F8B506460D468F180024BD420CD0336846
:1051DC0015F8011B9B6830469847031E01DB1C44E5
:1051EC00F3E7002C08BF1C462046F8BD13B5044657
:1051FC00084659B1019100F032F923680199DB6836
:10520C000246204602B0BDE81040184702B010BD5F
:10521C0003689B68184730B58BB00023012A8DF8C2
:10522C00243098BF0A2209AC0D46B1FBF2F101FB08
:10523C00125303F0FF03092B94BF30333733DBB227
:10524C00AA4204F8013DEFD92146FFF7CFFF0BB07E
:10525C0030BD0000024800230360FFF711B800BF07
:10526C0024E70320054B02221A60054B054A9A607D
:10527C000020C3E90000FFF7F3B800BF34E70320B8
:10528C0028E703200000FFFF002240681146FFF7CB
:10529C00B7B8002240681146FFF7C2B84068002238
:1052AC00FFF7B6B84068002281F00101FFF7A0B803
:1052BC00002340681A461946FFF792B8002340684D
:1052CC001A461946FFF784B8002240681146FFF7CA
:1052DC0077B8002240681146FFF762B84068002298
:1052EC000221FFF765B8002340681A46FFF750B853
:1052FC00024B03225A60024A1A60704738E70320B7
:10530C00A0560B007047000038B5044614252A46F9
:10531C00002100F050F825804025074925812846BA
:10532C00258200F02FF804496060284600F02AF826
:10533C00E060204638BD00BFD4560B0030B50E4D92
:10534C002978BFF35B8F11F0010487B011D1284687
:10535C00FEF79FFE68B101A8FFF7D6FF01AA214610
:10536C000648FFF735FA2846FEF798FE044800F089
:10537C000EF8024807B030BD48E703204CE7032085
:10538C0011530B00FEF781BE08B5FFF7ADF80023F3
:10539C0001461A46184600F06BB80A44914200F1D7
:1053AC00FF3300D1704710B511F8014B03F8014FD2
:1053BC009142F9D110BD02440346934200D170478B
:1053CC0003F8011BF9E7000038B5104B1D68AB6BF7
:1053DC000446B3B91820FFF777F80246A86320B942
:1053EC000B4B0C484221FFF78FF80B490B4BC0E9D4
:1053FC0000130B4B83600B23838100210120C2E936
:10540C000401AB6B00221C615A6138BD2CE60320F1
:10541C00D5560B00EC560B000E33CDAB34126DE6AB
:10542C00ECDE0500024B0146186800F003B800BF23
:10543C002CE6032037B5044608460D4600F00FF85D
:10544C00421C114620460192FFF756F8044618B14B
:10545C00019A2946FFF7A1FF204603B030BD034651
:10546C0013F8012B002AFBD1181A013870470000E1
:10547C002DE9F843DFF8B8800646D8F800001F463F
:10548C000D46914600F056F8254B1C6834B9254C56
:10549C001C60254B13B11B68C4F8883063681F2B44
:1054AC0007DDD8F8000000F047F84FF0FF30BDE8FA
:1054BC00F8834EB3D4F8880088B91C4B23B9D8F8BC
:1054CC00000000F038F8F0E74FF48470FEF7FCFFB2
:1054DC000028F4D00023C0E94033C4F88800636886
:1054EC0040F8239001229A4000EB8301D0F8003160
:1054FC001343C0F80031022EC1F8807002BFD0F8FF
:10550C0004311343C0F804316368D8F800005A1C06
:10551C000233626044F8235000F00EF80020C6E716
:10552C00ECE7032060E7032000000000D5440B00EB
:10553C0090E6032070477047704700001D400B0039
:10554C0059400B0081400B0085400B00000000000F
:10555C0048656C6C6F210052657365742074696DBD
:10556C0065000000000000000000000057450B0023
:10557C0061450B006B450B0075450B007F450B001F
:10558C008B450B0097450B009F450B00A7450B0067
:10559C00B3450B00BB450B00C5450B00CF450B00BD
:1055AC0000000000000000001B470B0011470B001F
:1055BC0007470B00BD460B00FB460B00EF460B00EC
:1055CC0097450B009F450B00E3460B00DB460B0099
:1055DC00D1460B00C7460B00CF450B000000000066
:1055EC000000000061470B00CD470B00A5470B00E6
:1055FC00CD510B0075470B0091470B0083470B00F7
:10560C009F470B0063470B0067470B00000000002F
:10561C00000000000B480B0073480B0049480B00BE
:10562C00CD510B003B480B000D480B001D480B00E7
:10563C006D480B002D480B0005480B0000000000C6
:10564C000000000015490B0005490B0007490B0031
:10565C000000000000000000F5490B00FB490B00A6
:10566C00394A0B00094A0B00F7490B0025592D2527
:10567C006D2D25645425483A254D3A2553257A003D
:10568C0061736374696D65006170700000000000E7
:10569C0000000000F3520B00E9520B00DF520B002C
:1056AC00D5520B00C9520B00BD520B0097450B0095
:1056BC009F450B00B1520B00A9520B009F520B00DF
:1056CC0095520B00CF450B00005245454E54206DB2
:1056DC00616C6C6F632073756363656564656400EE
:1056EC002F6D6E742F776F726B73706163652F778C
:1056FC006F726B73706163652F4743432D31302D8F
:10570C00706970656C696E652F6A656E6B696E7316
:10571C002D4743432D31302D706970656C696E6572
:10572C002D34385F32303230313132345F313630F3
:10573C00363138303634312F7372632F6E65776C97
:10574C0069622F6E65776C69622F6C6962632F7367
:10575C0074646C69622F72616E642E6300000000C9
:10576C00A1410B00A9460B0025470B00A5500B00CF
:10577C00A9510B00BD510B0061520B0071520B0073
:04578C00FD520B00BF
:10579000040000001400000003000000474E550004
:1057A00062706A362683855AA2366D1F2147092FFB
:0457B0009BE7A9ECDE
:0457B40000000000F1
:1057B8008C560B0030E603200000000000000000BB
:1057C80000000000000000000000000000000000D1
:1057D80000000000000000000000000000000000C1
:1057E80000000000000000000000000000000000B1
:1057F80000000000000000000000000000000000A1
:105808000000000000000000000000000000000090
:0C5818000000000000000000F0E703208A
:10582400FFFFFFFF00000102030405060708090A41
:105834000B0C0D0E0F101112131415161718191A3C
:085844001B1C1D1E1F20280083
:04584C007856341244
:04000003B000401CED
:00000001FF
