:02000002D0002C
:1040000000400D00DC670D00000006000C000501FB
:084010000401FD08000000009E
:04401800FC620D0039
:10401C0009480A49884208B505D0094A824202D0AB
:10402C00121A02F07FF80748074A0021121A02F010
:10403C0087F8014808BD00BF48E4032034670D0031
:10404C00C8E40320C8E40320EDE7032070B5074E55
:10405C00074C01F09FFDA41BA4080025A54200D12C
:10406C0070BD56F8043B98470135F7E704670D001F
:10407C0028670D0000F0AEB808B500F0C9F8BDE82F
:10408C00084001F03FBD00F03FBF00F03DBF00F025
:10409C0043BF0078B0FA80F04009704701230370E9
:1040AC007047000010B5034B0360044600F0F6F8AF
:1040BC00204610BDDC630D0010B50446FFF7F2FF7F
:1040CC0020464FF4987101F011FF204610BD0000FE
:1040DC0010B5CCB00CA94FF48072684600F0FAF819
:1040EC001A4B00937D227B21684600F0EEF91849AB
:1040FC00184801F016FB0446684600F0DBF9012273
:10410C006846154900F044F968463A2100F0F4F885
:10411C00684612494FF47A7294FBF2F2104C00F09C
:10412C002AF9019A0F49104800F0F4FC2178072075
:10413C0001F0C3FE2378684683F00103237000F07E
:10414C00E9F86846FFF7AEFF4CB010BDDC630D001C
:10415C0098AB0200F824010010630D00A0640D0060
:10416C0048E4032013630D00CCE40320F8B5134D91
:10417C00134E144F114800F0F0FA0446E0B901F068
:10418C00F1FB314601F08BFD0F4923463A46284698
:10419C0000F0C6FB30B101F0E5FBBDE8F8400B497F
:1041AC0001F07DBD01F0DEFB094901F078FD40F620
:1041BC00B83001F027FDDDE7F8BD00BFCCE40320EB
:1041CC002B630D0067630D007C630D0082630D0093
:1041DC009C630D0008B501F0C5FB4FF4165101F0BE
:1041EC00B5FB0121072001F057FE40F25B72054937
:1041FC00054800F0A0FCFFF7B9FF044B41F28832F0
:10420C001A6008BD49E40320CCE40320C8E4032071
:10421C0010B50C4800F0A1FA08B9FFF7A7FF0A4C3B
:10422C0000F0A6FD2368C01A41F28833984204D9E5
:10423C00FFF74EFF00F09CFD2060BDE810400148E8
:10424C0000F078BBCCE40320C8E4032008B5054992
:10425C00084601F03DFABDE808400249024800F06A
:10426C005DB900BF8CE50320CCE4032010B5054BF1
:10427C000360037C04461BB9406808B100F04CFE97
:10428C00204610BDF4630D0010B50446FFF7EEFF99
:10429C002046142101F02AFE204610BD10B5034B18
:1042AC0003600446FFF7E2FF204610BD04640D00D6
:1042BC0010B50446FFF7F2FF2046302101F016FE40
:1042CC00204610BD00230122C3604361028380F8A5
:1042DC002A307047002310B5C36001230374054BCB
:1042EC0003604FF0FF33C0E90112C362FFF7EAFF2E
:1042FC0010BD00BF04640D00D0E9022310B5934239
:10430C003FBF42685C1CC460D15424BF012380F8B9
:10431C002A3010BD10B54369044643B100EB43038A
:10432C00597E09B1FFF7E8FF6369013B6361D4E98A
:10433C000210636888424FF000022ABF5B181A54BF
:10434C0003F8012C10BD70B50446D0E90250666824
:10435C002D1A134630440A46294600F0E5FD8542E5
:10436C002DBFE368A368E360C01836BF0123E0608B
:10437C0084F82A3070BD0EB403B503AA52F8041B9E
:10438C000192FFF7E0FF02B05DF804EB03B0704759
:10439C002DE9F84304460E46174612B12221FFF7C9
:1043AC00ABFFDFF80C810025715D06EB05090029D8
:1043BC0074D0D4E902329A4270D20B0634D501F093
:1043CC00F003E02B05F101091DD116F8092002F0CC
:1043DC00C003802B39D105F1020916F8093003F01E
:1043EC00C000802831D103F03F03920143EA01332E
:1043FC0002F47C621A4392B241462046FFF7BBFF9F
:10440C004D460135D0E701F0E003C02B1DD116F865
:10441C00093003F0C002802A17D1890101F4F86237
:10442C0003F03F031A43E7E70D290AD807290CD9F3
:10443C00A1F10803052B08D8DFE803F00B231707BD
:10444C00111D222923D05C2921D02046FFF754FFCF
:10445C00D7E75C212046FFF74FFF6221F5E75C218F
:10446C002046FFF749FF6621EFE75C212046FFF766
:10447C0043FF6E21E9E75C212046FFF73DFF7221E7
:10448C00E3E75C212046FFF737FF7421DDE75C2171
:10449C002046FFF731FF99F80010D6E72FB12046E0
:1044AC002221BDE8F843FFF727BFBDE8F88300BF22
:1044BC00E4630D00426900EB42031A7E12B1002244
:1044CC001A7670472C21FFF717BF73B5436901911A
:1044DC000133082B16460FD8FFF7ECFF43690199FF
:1044EC005A1C00EB4303012542619D76DE76FFF7F3
:1044FC0003FF284602B070BD0020FBE770B50446F0
:10450C00054B44F8043B0D1D06460FCD0FC42B681C
:10451C002370304670BD00BFA4650D0038B504464D
:10452C0098300D4601F07EFA4FF0FF33C4F8BC30E2
:10453C0000232560C4F8B830204638BD2DE9F04181
:10454C0005460E4600F014FC43F6972807462868EB
:10455C0003681B699847044630B900F009FCC31B7B
:10456C004345F4D9204605E0286803685B69984701
:10457C0030700120BDE8F08138B515882944144607
:10458C00FFF7DCFF08B10135258038BD2DE9F74375
:10459C00051D884600270DF1060229460446ADF894
:1045AC000670FFF7E9FF18B9002003B0BDE8F083EF
:1045BC0094F804908DF8057001260DF10501204644
:1045CC00FFF7BCFF0028EFD0BDF806209DF80510C2
:1045DC00531C22449BB2117101F07F0212FB06F2B4
:1045EC0017440A06ADF80630BFB24FEAC616E4D43B
:1045FC0009F0F009013BB9F1300F88F800301ED1F9
:10460C000DF1060229462046FFF7B6FF0028CBD055
:10461C000DF1060229462046FFF7AEFF0028C3D055
:10462C0098F8003023445A799E79237906EB0226B8
:10463C009B07B6B201D50236B6B2022501E00025C1
:10464C002E46ADB2BD4226D20DF105012046FFF734
:10465C0075FF0028A8D0D4F8B80078B1B9F1300FA4
:10466C000CD1BDF8063098F800209B1A023BB342DF
:10467C0004DD03689DF805109B689847BDF806306B
:10468C007F2B9EBFE2189DF8051011710133ADF818
:10469C0006300135D5E7D4F8B8302BB9BDF8062073
:1046AC00802A88BFADF80630BDF806007DE7F7B567
:1046BC008C461E461D4607460023AE4602A805F052
:1046CC007F01BEF17F0F03F10104034488BF41F069
:1046DC008001BEF17F0F4FEAD515E4B203F8041C3C
:1046EC0010D8C4F10403D11802F803C0C4F10503B7
:1046FC00134401A805329A4206D010F8015B03F866
:10470C00015BF8E72346D8E738680368721C22443B
:10471C00DB689847054600F02BFB621CC7F8880045
:10472C003244A8B2131A5842584103B0F0BD0233B8
:10473C0070B59BB200240139651C18194E5D80B20E
:10474C0016B116542C46F7E7A3B2C11A0A441B1231
:10475C0002F8023C02F8014C70BD38B50446006802
:10476C0008B9002038BD03681B6B984780B9D4F892
:10477C00BC50002DF5D120686FF00203C4F8BC309A
:10478C000368DB69984720680368DB6A9847E8E7A9
:10479C000120E7E72DE9F04F8BB00446DDF850809F
:1047AC00894617461E46FFF7D8FF0546002840F0FD
:1047BC00A980D4F800A0D4F8B010DAF800300029A1
:1047CC007DD0B4F8B420D3F824B003465046D84773
:1047DC00012840F09E80514BA4F884009A881868F8
:1047EC009B79ADF814208DF81630049004AB04F1CD
:1047FC00090204F1100113F8010B02F8010B8A42B3
:10480C00F9D1B8F1000F66D09DF858309DF85420BE
:10481C005B0143EAC20343F00603DBB21FB1002E77
:10482C005BD143F080032374002363740F23221D98
:10483C00A374494620460192FFF779FF019A03467B
:10484C00B8F1000F0BD041462046FFF770FF019ADC
:10485C00179903462046FFF76AFF019A03466FB18A
:10486C00394620460192FFF762FF019A03462EB1AA
:10487C0031462046FFF75BFF019A0346053B9BB28E
:10488C0010212046FFF713FF00F072FAC4E9220052
:10489C0043F69726206803681B69984700BB00F015
:1048AC0067FAD4F88C30C01AB042F3D96FF0030316
:1048BC00C4F8BC3020680368DB6A984722E004F136
:1048CC00980104A8D3F820B0FFF718FEB4F8B42070
:1048DC002B4604A97AE70223A0E743F0C003A2E722
:1048EC000DF10F012046FFF751FE0428E2D1E679C5
:1048FC0066B900F03DFA0125C4F88C0084F890608C
:10490C00C4F8BC6028460BB0BDE8F08FC4F8BC609E
:10491C00D0E76FF00103C4F8BC30F3E70C640D0072
:10492C001FB50024CDE90244CDE90044FFF732FF66
:10493C0004B010BD2DE9F04F85B000AF0446FFF771
:10494C000CFF0646D0B100F013FAD4F88C3043F6C5
:10495C009822C31A9342054604D8D4F88830C31A57
:10496C0093421DD994F89030206863B16FF0030323
:10497C00C4F8BC300368DB6A98470026304614370D
:10498C00BD46BDE8F08F2146C02321F8043F0368E3
:10499C000222DB689847C4E92255012384F8903041
:1049AC00206803681B6998470028E7D007F10F01BE
:1049BC002046FFF7EBFD78600028DFD094F804A0C8
:1049CC00C4F88C500AF0F003302B5AD1D4F8943040
:1049DC00002BD3D097F80FC004EB0C00E84690F8EE
:1049EC0005E0817901EB0E2189B201F10800C008C4
:1049FC00A8EBC00295460CF1070E6846A644E946A2
:104A0C000DEB010BCB4504D01EF8012B09F8012B43
:104A1C00F8E77A684FF0000E00F801E0A2EB0C0208
:104A2C000AF0060E033ABEF1020F04F10409A2EBE0
:104A3C0001020CF1030E20D18E44A6440CF1050C9E
:104A4C009EF804B09EF805A061440AEB0B2A023ACA
:104A5C0049441FFA8AFA98479AFA9AFA2068A4F8F5
:104A6C0006A04FF41073A38003680422DB68494648
:104A7C009847C4F88850C54680E771444944984724
:104A8C00F9E7C02B09D1D0232146A38051F8040BA0
:104A9C0003680222DB68984770E7D02B04BF002321
:104AAC0084F890306AE72DE9F34104469DF82070B4
:104ABC00884616461D46FFF750FE38B3404601F0B7
:104ACC00A9FBEB1D1844802820D8221D0523414644
:104ADC0020460192FFF72BFE019A0023C1189D423C
:104AEC0089B207D9214416F803C081F804C00133F8
:104AFC009BB2F3E74B1F002F9BB20CBF302131212F
:104B0C00204602B0BDE8F041FFF7D1BD002002B055
:104B1C00BDE8F0811FB5044610460391029201F0E6
:104B2C0079FB034600200090DDE902212046FFF7C7
:104B3C00BAFF04B010BDC0F8B010A0F8B420704794
:104B4C0008B5024B1B681B68019308BD4C0203009F
:104B5C0008B5024B1B685B68019308BD4C0203004F
:104B6C0008B5024B1B681B69019308BD4C0203007E
:104B7C0008B5024B1B685B69019308BD4C0203002E
:104B8C0008B5024B1B689B69019308BD4C020300DE
:104B9C0008B5024B1B68DB69019308BD4C0203008E
:104BAC0008B5024B1B681B6A019308BD4C0203003D
:104BBC0008B5024B1B681B6A019308BD2802030051
:104BCC0008B5024B1B685B6A019308BD2802030001
:104BDC0008B5024B1B689B6A019308BD28020300B1
:104BEC0008B5024B1B68DB6A019308BD2802030061
:104BFC0008B5024B1B681B6B019308BD2802030010
:104C0C0008B5024B1B685B6B019308BD28020300BF
:104C1C0008B5024B1B681B6C019308BD28020300EE
:104C2C0008B5024B1B68DB69019308BD3002030019
:104C3C0008B5024B1B681B6A019308BD30020300C8
:104C4C0008B5024B1B689B69019308BD3802030031
:104C5C0008B5024B1B68DB69019308BD38020300E1
:104C6C0008B5024B1B681B6A019308BD3802030090
:104C7C0008B5024B1B689B6A019308BD3802030000
:104C8C0008B5024B1B681B6B019308BD380203006F
:104C9C0008B5024B1B689B6B019308BD38020300DF
:104CAC0008B5024B1B681B68019308BD3C0203004E
:104CBC0008B5024B1B68DB68019308BD3C0203007E
:104CCC0008B5024B1B681B69019308BD3C0203002D
:104CDC0008B5024B1B685B69019308BD3C020300DD
:104CEC0008B5024B1B689B69019308BD3C0203008D
:104CFC0008B5024B1B68DB69019308BD3C0203003D
:104D0C0008B5024B1B681B6A019308BD3C020300EB
:104D1C0008B5024B1B689B6A019308BD3C0203005B
:104D2C0008B5024B1B685B69019308BD6402030064
:104D3C0008B5024B1B681B6A019308BD6402030093
:104D4C0008B5024B1B689B6A019308BD6402030003
:104D5C0008B5024B1B685B6C019308BD480203004D
:104D6C0008B5024B1B685B68019308BD1802030071
:104D7C0008B5024B1B685B69019308BD1802030060
:104D8C0008B5024B1B685B69019308BD6C020300FC
:104D9C0008B5024B1B689B68019308BD2C020300ED
:104DAC0008B5024B1B68DB68019308BD2C0203009D
:104DBC0008B5024B1B681B69019308BD2C0203004C
:104DCC0008B5024B1B689B68019308BD6802030081
:104DDC0008B5024B1B68DB68019308BD6802030031
:104DEC0008B5024B1B681B6D019308BD60020300E4
:104DFC0008B5024B1B68DB6B019308BD4402030032
:104E0C0008B5024B1B685B68019308BD40020300A8
:104E1C0008B5024B1B689B68019308BD4002030058
:104E2C0008B5024B1B68DB68019308BD4002030008
:104E3C0008B5024B1B681B69019308BD40020300B7
:104E4C0008B5024B1B685B69019308BD4002030067
:104E5C0008B5024B1B689B69019308BD4002030017
:104E6C0008B5024B1B68DB69019308BD40020300C7
:104E7C0008B5024B1B681B6A019308BD4002030076
:104E8C0008B5024B1B681B6B019308BD4002030065
:104E9C0008B5024B1B685B6B019308BD4002030015
:104EAC0008B5024B1B681B6C019308BD4002030044
:104EBC0008B5024B1B685B6C019308BD40020300F4
:104ECC0008B5024B1B685B68019308BD2002030008
:104EDC0008B5024B1B685B69019308BD20020300F7
:104EEC0008B5034B1B68D3F88830019308BD00004C
:104EFC002002030008B5034B1B68D3F894300193D0
:104F0C0008BD00002002030008B5024B1B681B689B
:104F1C00019308BD1C02030008B5024B1B685B68BB
:104F2C00019308BD1C02030008B5024B1B685B6AA9
:104F3C00019308BD1C02030008B5024B1B68DB6B18
:104F4C00019308BD1C02030008B5024B1B685B6C87
:104F5C00019308BD1C020300002340681A46FFF7AA
:104F6C004FBF406800220221FFF75ABF0022406861
:104F7C001146FFF74DBF002240681146FFF758BF9E
:104F8C00002340681A461946FFF75ABF00234068B1
:104F9C001A461946FFF75CBF40680021FFF780BF37
:104FAC0040680021FFF784BF4068002281F00101B6
:104FBC00FFF756BF40680022FFF762BF002240682F
:104FCC001146FFF765BF002240681146FFF750BF3E
:104FDC002DE9F043002495B016460D46074600F027
:104FEC0021FD214618220EA8009401F0A9F84023B7
:104FFC00CDE90C3421466B460CAA3046FFF7E8FE8F
:10500C000446002846D1024601216868FFF710FFCC
:10501C000221804622466868FFF70AFF009E8146FF
:10502C002146002E36D0002934D17368022B03D0D0
:10503C000A2B0BD0F669F4E7B8F1000F04D07169B4
:10504C003846043100F031FD4146F3E7B9F1000F69
:10505C0001D14946EEE77469102201A801F070F8FD
:10506C0006238DF8143001AD04F1080318341868C8
:10507C0059682A4603C20833A3421546F7D101A941
:10508C0006A807AD00F0DCFC0FCD3C1D0FC42B684F
:10509C002370DEE70098FFF793FE384615B0BDE8A5
:1050AC00F0830000024B034A1A6000225A607047DA
:1050BC00A8E503201C640D00002240681146FFF790
:1050CC00B7BE002240681146FFF7D2BE00224068EE
:1050DC001146FFF7DDBE40680022FFF7D1BE4068E5
:1050EC00002281F00101FFF7BBBE002340681A4685
:1050FC001946FFF7ADBE002340681A461946FFF764
:10510C009FBE002240681146FFF782BE4068002215
:10511C000221FFF785BE002340681A46FFF770BED8
:10512C00024B04225A60024A1A607047B0E5032011
:10513C0058640D0013B503688DF80710DC6B012261
:10514C004FF0FF330DF10701A04702B010BD10B4B2
:10515C000368DC6B4FF0FF33A4465DF8044B6047EB
:10516C0013B5134602688DF80710D46B0DF10701C7
:10517C000122A04702B010BD704738B543691A68C8
:10518C00002A054610DAB3F88620B3F884309A4228
:10519C000AD103681B699847044628B92B6828462E
:1051AC00DB6A9847204638BD0120FCE74369186844
:1051BC00C043C00F70477047064B994210B500F1C1
:1051CC000C0405D0084600F095FE002808BF00240A
:1051DC00204610BDC0640D0010B5AC21044600F093
:1051EC0085FE204610BDFEF752BF2DE9F0414FF071
:1051FC00000886B01D46C0F8048004460E461746CB
:10520C004146102202A800F09BFF6B1C09D04FF402
:10521C007A70B5FBF0F3CDE9023800FB1353584319
:10522C000490606910230093006802AB41F2050200
:10523C0040F6FF71FFF704FD002807DAFFF77CFE4C
:10524C0003686360002006B0BDE8F081606900234C
:10525C0000683A463146FFF713FD031EEEDB184695
:10526C00F1E7000038B584690A4B036005467CB150
:10527C006368013B63605BB9236820469B68984771
:10528C00A368013BA3601BB923682046DB689847E1
:10529C00284638BDD0640D0010B50446FFF7E2FF78
:1052AC0020461C2100F022FE204610BD70B54D6931
:1052BC00054B04468C3544F8043B06460FCD0FC411
:1052CC002B682370304670BDA4650D0010B5436982
:1052DC00B3F88620B3F884309A42044605D063694B
:1052EC00B3F884201344187910BD03681B699847E0
:1052FC000028F4D14FF0FF30F6E710B54369B3F84E
:10530C008620B3F884309A42044608D06369B3F817
:10531C008420511CA3F884101344187910BD036821
:10532C001B6998470028F1D14FF0FF30F6E7F8B52C
:10533C0043691746B3F88620B3F884309A42054681
:10534C000E4616D06969B1F88430B1F88640E41A7B
:10535C00BC4228BF3C46043322461944304600F078
:10536C00E1FE6A69B2F884302344A2F88430204606
:10537C00F8BD03681B6998470028E3D14FF0FF3450
:10538C00F5E700002DE9F0439846036893B00D460D
:10539C000024DB6A06461746984728466B46224689
:1053AC0021460094FFF714FD0546002863D1009BAD
:1053BC00002B4BD05B69002B48D006A800F032FBC9
:1053CC00009B5C696378022B04D1211D06A800F0B8
:1053DC006CFB26E00A2B24D11122294601A800F0EF
:1053EC00AFFEA368002B38D004F108030DF1040CB8
:1053FC00183418685968624603C20833A3429446AD
:10540C00F7D1062301A90CA88DF8143000F018FB75
:10541C000DF1340CBCE80F0007AC0FC4DCF8003005
:10542C00237006A800F01EFB80B1336807ADD3F8DB
:10543C002090124B0C930FCD0DAC0FC42B68237026
:10544C003A4643460CA93046C84705460098FFF734
:10545C00B7FC284613B0BDE8F083E368002BC3D13A
:10546C004FF6FF70D4F81090FFF762FC8145BBD16A
:10547C0004F11401AAE72546E8E700BFA4650D0076
:10548C0042690023A2F884304269A2F88630704742
:10549C002DE9F0411F4603680C46DB6A8AB00546CD
:1054AC0016469847237DD5F81480042B0CBF022098
:1054BC000A2006220121FFF7EBFBC8F800006B69FC
:1054CC001B68002B08DA2B682846DB6A00249847F7
:1054DC0020460AB0BDE8F0812846FFF7D1FFB7B1EE
:1054EC00002303A9F8B20393ADF81030FFF748FC82
:1054FC000028E8D1686906230093006803AB41F2E9
:10550C000B0240F6FF71FFF79BFB0028DBD11C223E
:10551C00002103A800F014FE237D042B1DD14FF4B1
:10552C0007733046ADF80C30FFF70AFCADF80E00EF
:10553C006068FFF7FDFB04906B691C22186803A9D7
:10554C00FFF78EFB0028BED104340FCC6D698C356F
:10555C000FC523682B700124BAE740F61C23304694
:10556C00ADF80C30FFF7ECFB05AEADF80E00231DCB
:10557C0004F1140718685968324603C20833BB4259
:10558C001646F7D1D8E7000030B54269B2F886303C
:10559C008BB004462BB1B2F884209A4201D1FFF7AC
:1055AC006FFF61690868002818DBB1F886507F2D01
:1055BC0014D804310823C5F180022944FFF758FBA5
:1055CC00002813DD6369B3F886200AB9A3F8842098
:1055DC006369B3F886201044A3F886006369B3F8B6
:1055EC008600B3F88430C01A0BB030BDFFF7A4FCB2
:1055FC0003680B2BF2D0FFF79FFC03680B2BEDD04D
:10560C0020230025CDE90235FFF796FC03680193B2
:10561C00084B0949009302AA2B463220FFF7E0FB06
:10562C0063691868FFF714FB63694FF0FF321A6067
:10563C00D4E700BF93640D008C640D0010B5436972
:10564C0004461868002801DBFFF702FB63694FF082
:10565C00FF321A606069112200218C3000F070FD5D
:10566C002046BDE81040FFF70BBF10B500230446E1
:10567C000160C0F88430883000F0D4F9204610BDA9
:10568C0073B500234FF47A72C0E901320E4A0361FC
:10569C00026043610446AC200191FEF7F4FC051E48
:1056AC0005F10C0608D00123C5E90133074B01991C
:1056BC002B603046FFF7D9FF2046C4E90565FFF79C
:1056CC00DFFE02B070BD00BFD0640D00AC640D00F5
:1056DC0010B54FF0FF310446FFF7D2FF204610BD46
:1056EC0010B504460068002801DBFFF7B1FA20462C
:1056FC0010BD0C30FFF7F4BF10B5044608462170FE
:10570C00FFF78EFA00236360204610BD10B50446E7
:10571C0028B100F041FD90FBF4F303FB1404204688
:10572C0010BD884210B5044603DA081AFFF7EEFFE5
:10573C000444204610BD7047F8B5064615460C4685
:10574C008F18BC4206D0336814F8011B9B68304696
:10575C009847F6E72846F8BD007C0022FFF728BAE8
:10576C00007C0021FFF72CBA007C0021FFF730BA37
:10577C00007C0021FFF734BA007C0021FFF738BA17
:10578C0010B51421044600F0B1FB204610BD0000FA
:10579C0010B54FF47A73044608460021C4E901138E
:1057AC00034B236020741146FFF732FA204610BDDC
:1057BC001C650D00704741747047704708B5007C3C
:1057CC00FFF7A6FA20EAE07008BD08B5007CFFF7E9
:1057DC0077FA20EAE07008BD08B5007CFFF780FA84
:1057EC0040EAE07008BD08B5007CFFF771FA40EAAA
:1057FC00E07008BD007CFFF77BBA37B5457C0446EA
:10580C002DB1207C03B0BDE83040FFF751BA007CCD
:10581C000191FFF77DFA00280199F2DC284603B0CC
:10582C0030BD10B51421044600F060FB204610BDBD
:10583C0010B54FF0000C0446084611464FF47A722E
:10584C00C4E901C2044A22600122207462741A461F
:10585C00FFF726FA204610BD44650D0013B50D4C1C
:10586C002178BFF35B8F11F0010110D1204601911B
:10587C00FEF70FFC019950B1074B084A0848FFF797
:10588C00D7FF2046FEF70AFC064800F045FC04480A
:10589C0002B010BDB8E5032040E60320BCE50320B0
:1058AC00C4E60320C7570D0041747047704770471A
:1058BC0008B50021007CFFF763F940EAE07008BDF1
:1058CC0008B50121007CFFF75BF940EAE07008BDE8
:1058DC0008B5007CFFF74CF920EAE07008BD08B56C
:1058EC00007CFFF73DF920EAE07008BD13B50446D3
:1058FC00007C0191FFF73CF90028019901DC607CE8
:10590C0020B1207CFFF744F920EAE07002B010BD12
:10591C00007CFFF745B910B51421044600F0E6FAF7
:10592C00204610BD10B54FF47A730446084600218A
:10593C00C4E90113044B23600123207463741146E2
:10594C00FFF7FEF8204610BD74650D00007C0022A8
:10595C00FFF7FEB810B514220446002100F0F0FB4E
:10596C00204610BD10B50F4C88B003A8FFF7F2FF0E
:10597C002178BFF35B8F11F001010FD1204601910B
:10598C00FEF787FB019948B103AA0748FFF7CAFF46
:10599C002046FEF783FB054800F0BEFB024808B02A
:1059AC0010BD00BFD8E60320DCE60320B9580D007B
:1059BC00704710B51821044600F098FA204610BD27
:1059CC00F0B5037D062B8DB00E4600F104074FF0A9
:1059DC00000412D000F1080515F8011D0A2230460A
:1059EC0000F067F9AF42044419D0002CF4D02E21FA
:1059FC00304600F045F90444EEE72F236A46394659
:105A0C000A208DF80040FFF78BF9684600F002FC85
:105A1C0033680246DB6869463046984704462046A0
:105A2C000DB0F0BD10B5054B0446112240F8043BF7
:105A3C00002100F085FB204610BD00BFA4650D00C1
:105A4C000346074A10B543F8042B01F1100251F834
:105A5C00044B43F8044B9142F9D10A781A7010BDEB
:105A6C00A4650D00037D042B04D14068003818BFD9
:105A7C0001207047062B07D143683BB983682BB9CB
:105A8C00C3681BB90069F1E700207047012070471B
:105A9C0010B59DF8084044EA032343EA024242EA67
:105AAC00016104234160037510BD13B5CB780093DD
:105ABC008B784A780978FFF7EBFF02B010BD000035
:105ACC00014B1860704700BF60E4032008B50B4B16
:105ADC0043B1FFF747FF03681B699847002801DDB6
:105AEC00AFF30080064B43B1FFF7B8FE03681B69A8
:105AFC009847002801DDAFF3008008BD00000000CE
:105B0C000000000008B5FFF7E1FFFFF731F9014B8A
:105B1C00186008BD44E703200548064A064908B545
:105B2C00121A00F0FFFA054B054A1A6008BD00BFB7
:105B3C0000F4032004F4032030670D0000F403206C
:105B4C001E1C279A07B5002300931A466FF07701A5
:105B5C00FFF7D0F903B05DF804FB000007B54388EC
:105B6C000A2B08D0502B0BD1094B1B684BB103B03F
:105B7C005DF804EB1847FFF7E5FF03B05DF804FB95
:105B8C00002300931A466FF07701FFF7B3F9F4E79F
:105B9C00F4E6032010B512480021FFF7D5F9114B9C
:105BAC001A68114B9A42114B0CBF012200221A7039
:105BBC0001D0FFF7B1FFFFF7D3F8044600F0C8FAA5
:105BCC000B4B13B12046AFF3008000210848FFF7C0
:105BDC000FF9BDE8104007480021FFF781B900BF5D
:105BEC00CD5A0D0000F403201E1C279AF0E603206A
:105BFC0000000000695B0D00014B00229A607047A9
:105C0C00F8E603200021FFF763B90000024B1A6885
:105C1C00024B1A60704700BF5CE4032008E70320C6
:105C2C00014B024A1A6070470CE70320CC650D004B
:105C3C00F8B506460D468F180024BD420CD03368CB
:105C4C0015F8011B9B6830469847031E01DB1C446A
:105C5C00F3E7002C08BF1C462046F8BD13B50446DC
:105C6C00084659B1019100F0D5FA23680199DB6817
:105C7C000246204602B0BDE81040184702B010BDE5
:105C8C0003689B68184738B50D210546FFF7F8FFE8
:105C9C000A2104462846FFF7F3FF204438BD38B5E7
:105CAC000546FFF7DBFF04462846FFF7ECFF2044D0
:105CBC0038BD30B58BB000238DF82430012A98BF45
:105CCC000A2209AC0D46B1FBF2F101FB125303F0B1
:105CDC00FF03092B94BF30333733DBB2AA4204F8ED
:105CEC00013DEFD92146FFF7B9FF0BB030BD0000E5
:105CFC00024800230360FFF72BB800BF10E7032016
:105D0C00054B02221A60054B054A9A600020186068
:105D1C0098809871FFF7D4B820E7032014E703208C
:105D2C000000FFFF002240681146FFF7A1B80022D7
:105D3C0040681146FFF7ACB840680022FFF7A0B8E6
:105D4C004068002281F00101FFF78AB80023406807
:105D5C001A461946FFF77CB8002340681A461946C4
:105D6C00FFF76EB8002240681146FFF761B80022B9
:105D7C0040681146FFF74CB8406800220221FFF73B
:105D8C004FB8002340681A46FFF73AB8024B03227B
:105D9C005A60024A1A60704724E70320D8650D0048
:105DAC007047000038B50023202543801423044697
:105DBC000380856005610649284600F099F804497E
:105DCC006060284600F094F8E060204638BD00BFC3
:105DDC000C660D0030B50E4D2978BFF35B8F11F0BA
:105DEC00010487B011D12846FEF753F968B101A818
:105DFC00FFF7D8FF01AA21460648FFF7C9FC284641
:105E0C00FEF74CF9044800F087F9024807B030BDA2
:105E1C002CE7032030E70320AD5D0D00232813B5DC
:105E2C0002D9002002B010BDA0F10B03022B1AD82E
:105E3C00174C2178BFF35B8F11F001010BD1204679
:105E4C000191FEF726F9019928B11248FFF754FC8D
:105E5C002046FEF723F90F4B1878FEF7E9FE0028D1
:105E6C00DFD10120DEE7012809D8FFF7B3FF0021BD
:105E7C00007CFEF7C5FE80F00100C0B2D2E7093805
:105E8C000128EED8FFF7EAFC007CFEF739FFF2E7B9
:105E9C0048E703204CE70320232838B504460D4679
:105EAC000AD8FF2908D0FFF7B9FF28B129462046A8
:105EBC00BDE83840FEF76CBF38BD38B504460D461A
:105ECC00FEF76EFFFF2810D0062804D84D2323FAC6
:105EDC0000F0C30709D42046FFF7A0FF28B12946DC
:105EEC002046BDE83840FEF763BF38BDFEF7CFB89B
:105EFC00FEF7CBB8014900F0F9B800BF28660D00D9
:105F0C007FB500241023CDE90234036800949E6908
:105F1C008DF8044015466B461268B0479DF8043066
:105F2C0003F00603062B03BF009B2B6001202046C9
:105F3C0004B070BD0098904214BF01200620704739
:105F4C0010B5034B0360044600F0CDF8204610BD9D
:105F5C0068660D0010B50446FFF7F2FF20460821D5
:105F6C00FFF7C4FF204610BD2DE9F0411F46DDE9C7
:105F7C000834DDF8188098450646154607D1079970
:105F8C0000F0B4F818B165710020BDE8F081394615
:105F9C00304600F0ABF80028F6D00123C4F800809E
:105FAC002571A371F0E738B515461C4600F09EF834
:105FBC0020B10823E36006232560237138BD73B537
:105FCC0005460C4601921E4600F090F850B9032E7F
:105FDC0008D82368019A5B692946204602B0BDE8BF
:105FEC007040184702B070BD10B5034B03600446F7
:105FFC00FFF7A6FF204610BDC8660D0010B504467D
:10600C00FFF7F2FF20460C21FFF770FF204610BD72
:10601C00F7B5089F974205460E4614460AD0A86865
:10602C0002680897156A31462246AC4603B0BDE8B3
:10603C00F04060471946019300F058F8019B002886
:10604C00EDD0062003B0F0BD2DE9F14F0D461946F9
:10605C00DDE90A4BDDE90CA681461746984600F0AF
:10606C0045F890B1002D3460377109DB61198A4510
:10607C000CBF06210121B171002001B0BDE8F08FE9
:10608C000235F9D10123B371F6E7544506D15946CF
:10609C00484600F02BF808B17771EDE7D9F8080005
:1060AC000368CDE90CA6CDE90A4BDC693A464346B8
:1060BC002946A44601B0BDE8F04F60472DE9F041F8
:1060CC0007460C4615461E46FFF76DFF48B9B868E3
:1060DC0003689F692A4633462146BC46BDE8F04119
:1060EC006047BDE8F081704700207047814208B5D9
:1060FC000ED0406803782A2B0CD049680B782A2BD9
:10610C0008BF013100F07CF8B0FA80F0400908BDFE
:10611C000120FCE70020FAE7002301461A46184646
:10612C0000F080B80A44914200F1FF3300D170476F
:10613C0010B511F8014B03F8014F9142F9D110BD84
:10614C0002440346934200D1704703F8011BF9E760
:10615C0038B50D4B1D68AB6B04467BB91820FEF7A8
:10616C00D3FE0A4A0A4BA863C0E90023094B83609B
:10617C000B23838101220023C0E90423AB6B002293
:10618C001C615A6138BD00BF60E403200E33CDABF7
:10619C0034126DE6ECDE0500134B10B51C68A36BD6
:1061AC007BB91820FEF7B0FE104A114BA063C0E972
:1061BC000023104B83600B23838101220023C0E951
:1061CC000423A16B0C480A694B690C4C504304FB2B
:1061DC000300A2FB04345A1C044444F10000C1E93E
:1061EC00042020F0004010BD60E403200E33CDAB42
:1061FC0034126DE6ECDE05002DF451582D7F954CD4
:10620C0010F8012B11F8013B012A28BF9A42F7D054
:10621C00D01A7047034613F8012B002AFBD1181A29
:10622C00013870472DE9F843DFF8B8800646D8F8F6
:10623C0000001F460D46914600F056F8254B1C6891
:10624C0034B9254C1C60254B13B11B68C4F888303D
:10625C0063681F2B07DDD8F8000000F047F84FF0FB
:10626C00FF30BDE8F8834EB3D4F8880088B91C4BD6
:10627C0023B9D8F8000000F038F8F0E74FF4847038
:10628C00FEF742FE0028F4D00023C0E94033C4F8E6
:10629C008800636840F8239001229A4000EB830148
:1062AC00D0F800311343022EC0F80031C1F88070D1
:1062BC0002BFD0F804311A43C0F804216368D8F83F
:1062CC0000005A1C0233626044F8235000F00EF8B0
:1062DC000020C6E7E0E7032054E70320000000009D
:1062EC00154F0D00C4E40320704770477047000041
:1062FC001D400D0059400D0081400D0085400D00E2
:10630C000000000074310076312F64657669636596
:10631C00732F6D652F74656C656D65747279007083
:10632C006C756D65436F6E6E65637428293A2041F8
:10633C007474656D7074696E6720746F20636F6E12
:10634C006E65637420746F205468696E6773626F36
:10635C0061726420736572766572006A777874383E
:10636C00763573534F3833315073553742305600AE
:10637C004172676F6E00706C756D65436F6E6E6504
:10638C00637428293A20436F6E6E656374656400EC
:10639C00706C756D65436F6E6E65637428293A2059
:1063AC00436F6E6E656374696F6E206661696C65B0
:1063BC00642C20726574727920696E2033207365A9
:1063CC00636F6E64730000000000000000000000AA
:1063DC00B1400D00C5400D005C75253034580000EF
:1063EC00000000000000000079420D0095420D00F5
:1063FC000000000000000000A9420D00BD420D008D
:10640C0000044D5154540400000000000000000032
:10641C00654F0D006F4F0D00794F0D00834F0D0030
:10642C008D4F0D00994F0D00A54F0D00AD4F0D0078
:10643C00B54F0D00C14F0D00C94F0D00D34F0D00CE
:10644C00DD4F0D00000000000000000023510D0086
:10645C0019510D000F510D00C5500D0003510D00C9
:10646C00F7500D00A54F0D00AD4F0D00EB500D007A
:10647C00E3500D00D9500D00CF500D00DD4F0D0035
:10648C00776972696E670072656376206572726FE8
:10649C0072203D2025640000000000000000000078
:1064AC00C3510D00E5510D00FF560D00F3510D00C9
:1064BC00C5510D00000000000000000000000000AD
:1064CC000000000071520D00A5520D0041510D004D
:1064DC005B510D0095550D0007530D00D9520D0061
:1064EC0085510D009D540D0091530D003B530D0033
:1064FC0049560D0087510D00B9510D006D510D001D
:10650C00F7510D00B9520D00000000000000000012
:10651C0043570D008D570D0065570D0045570D0065
:10652C006D570D0075570D007D570D0085570D00EB
:10653C000000000000000000C1570D002F580D0096
:10654C0007580D003D5C0D00D7570D00F3570D009B
:10655C00E5570D0001580D00C3570D00C9570D002C
:10656C000000000000000000BB580D0023590D0076
:10657C00F9580D003D5C0D00EB580D00BD580D0099
:10658C00CD580D001D590D00DD580D00B5580D00EE
:10659C000000000000000000CD590D00BD590D0099
:1065AC00BF590D0025592D256D2D25645425483ACC
:1065BC00254D3A2553257A0061736374696D650026
:1065CC006170700000000000000000008F5D0D0085
:1065DC00855D0D007B5D0D00715D0D00655D0D0031
:1065EC00595D0D00A54F0D00AD4F0D004D5D0D001B
:1065FC00455D0D003B5D0D00315D0D00DD4F0D0067
:10660C0000537431395F53705F6D616B655F7368F4
:10661C00617265645F7461670000000068660D005C
:10662C000D660D00C8660D003C660D00EC660D0095
:10663C004E31305F5F637878616269763131375FF4
:10664C005F636C6173735F747970655F696E666F9D
:10665C00450000000000000030660D004D5F0D008D
:10666C00615F0D00F5600D00F5600D00CB5F0D0056
:10667C000D5F0D00B35F0D00755F0D00415F0D00E8
:10668C00C8660D0098660D0030660D004E31305F07
:10669C005F637878616269763132305F5F73695F0E
:1066AC00636C6173735F747970655F696E666F4557
:1066BC0000000000000000008C660D00F55F0D006E
:1066CC0009600D00F5600D00F5600D00CB5F0D004D
:1066DC000D5F0D00C9600D0055600D001D600D00B3
:1066EC0068660D00F4660D00537439747970655F3B
:1066FC00696E666F0000000059420D00B1500D002C
:10670C002D510D00055C0D00195C0D002D5C0D006C
:10671C00FD5C0D000D5D0D00995D0D00000000008D
:04672C000000000069
:046730000000000065
:10673400017468696E6773626F6172642E636C6F53
:1067440075640000C4650D0064E4032000000000CB
:106754000000000000000000000000000000000035
:106764000000000000000000000000000000000025
:106774000000000000000000000000000000000015
:106784000000000000000000000000000000000005
:1067940000000000000000000000000000000000F5
:1067A400000000000000000000000000E5E70320F6
:1067B400FFFFFFFF00000102030405060708090AA2
:1067C4000B0C0D0E0F101112131415161718191A9D
:0867D4001B1C1D1E1F202800E4
:0467DC0078563412A5
:04000003D000401CCD
:00000001FF
