:02000002B0004C
:1040000000400B0094960B00000006000C00050217
:084010000401A30F00000000F1
:04401800E08B0B002E
:10401C0009480A49884208B505D0094A824202D0AB
:10402C00121A04F021FC0748074A0021121A04F066
:10403C0043FC014808BD00BF90E50320F8950B0038
:10404C0004E6032004E60320EDE7032070B5074ED9
:10405C00074C01F079FFA41BA4080025AC4200D149
:10406C0070BD56F8043B98470135F7E7A8950B004F
:10407C00D0950B0000F06CB808B500F081F8BDE8E5
:10408C00084001F019BF01F0D7B801F0D5B801F024
:10409C00DBB801F0D9B8000008B5034A03490C207D
:1040AC0000F0F4FFFEE700BF59500B00F48B0B003F
:1040BC000078B0FA80F04009704701230370704714
:1040CC007047006A0368DB6818470000014B012247
:1040DC001A70704735E603200A4B10B5044603608E
:1040EC0002F0C8F8214602F0F0FA01F013FE01F0DC
:1040FC0005FE2046044B40F8043B02F081F92046B3
:10410C0010BD00BF708C0B00588C0B0010B5044612
:10411C00FFF7E2FF20462421FFF7BBFF204610BD2E
:10412C000EB400B58CB00DAA4FF0200C52F8041B45
:10413C000392CDE900120023016804AA1E20CDE9E8
:10414C0004C300F0BBFF0CB05DF804EB03B0704788
:10415C0008B5074A074800231370074A137000F08C
:10416C00EBF9BDE808400549024800F03ABB00BF36
:10417C0035E6032038E6032034E60320D9400B0053
:10418C0070B5164D1648174C00F0FEFC2B78E3B1B9
:10419C00012B0AD02A7823789A4205D01249134869
:1041AC00FFF7BEFF23782B7070BD114E0022114615
:1041BC00706800F0CDFF024648B170680022022101
:1041CC0000F0BEFF00F09CFF00232370E2E70146E5
:1041DC00706800F0ADFF0028EFD1F3E735E603205F
:1041EC0038E6032034E60320098C0B00ECE60320B0
:1041FC00A4E6032070B5D0E900531426044606FB50
:10420C000356AE4204D0284604F0ACF81435F8E757
:10421C00206801F019F8204670BD2DE9F843B1F182
:10422C000008074638DD4FF0140909FB08F001F0CF
:10423C0003F80546C0B3D7E90046844209FB06469D
:10424C0015D2864214D9143EA4F11409341B04442B
:10425C00B14522D02CB13146204604F0FFF8337C16
:10426C002374304604F07EF8143E143CF0E714D06E
:10427C00A946A64211D0B9F1000F06D021464846F6
:10428C0004F0ECF8237C89F81030204604F06AF82E
:10429C00143409F11409ECE70025386800F0D4FF58
:1042AC003D60C7F808800120BDE8F8832DE9F04196
:1042BC000023C0E9003383600D46496899420446E7
:1042CC0017DDFFF7AAFFA0B1D5E900634FF0140882
:1042DC00276808FB0368B04509D02FB13146384632
:1042EC0004F0D6F8337C3B7414361437F3E76B6860
:1042FC0063602046BDE8F08170B53E4B3E4A9A6043
:10430C0000249CB0C3E90044032000F071FF214657
:10431C00012000F075FF39490DA804F06EF8012555
:10432C0037498DF8445012A804F067F835498DF8D8
:10433C00585017A804F061F8032101A8CDE90144F5
:10434C008DF86C500394FFF768FF88B1019C0DAD9C
:10435C0004F13C062CB12946204604F099F82B7C3C
:10436C0023741434B44205F11405F3D103230293DE
:10437C0001F0D0FC01A9054604A8234CFFF796FFD9
:10438C0004A907A8FFF792FF204B236007A90AA8EE
:10439C00FFF78CFF0AAA2821201D02F079FA0AA83F
:1043AC00FFF728FF07A8FFF725FF194B23602562AD
:1043BC0004A8FFF71FFF174B236001F0ABFC4FF471
:1043CC00165101F097FC01F055FF214602F036F929
:1043DC0001A8FFF70FFF17A803F0C4FF12A803F002
:1043EC00C1FF0DA803F0BEFF0B481CB0BDE8704028
:1043FC0000F04BB804E603200000FFFF2E8C0B00EE
:10440C00328C0B00428C0B0010E60320588C0B00F6
:10441C00B8900B00708C0B0038E603200B6803601F
:10442C004B68436013B15A6801325A60704710B53B
:10443C0004468AB008464FF0200C0021CDE9002339
:10444C00CDE902C10B4602AA216800F037FE0AB082
:10445C0010BD0EB403B503AB012153F8042B01932B
:10446C00FFF7E5FF02B05DF804EB03B070470EB444
:10447C0003B503AB282153F8042B0193FFF7D7FFA7
:10448C0002B05DF804EB03B070472DE9F843044625
:10449C0000254FF00808C0E90155C0E90455C0E9F2
:1044AC000655C0E90855C0E90A550580C0F80C80CE
:1044BC002020FFF7E8FDE668A060013E760800EBDF
:1044CC00860907464FF4FC70FFF7DDFD00F5FC7321
:1044DC00C4E9090347F82600A361C4E90E55C4E9F1
:1044EC001055C4E91255C4E914556061206120626D
:1044FC002563C4F81C90C4F82C90C4F83480202098
:10450C00FFF7C1FD656B2063013D6D0800EB85076E
:10451C0006464FF40070FFF7B6FD46F8250000F58F
:10452C000073C4E91303E063A063A06467642364AD
:10453C0067652046BDE8F88370B5044690B0082046
:10454C00FFF7A1FD0546A8B10026C0E90066474962
:10455C0006A802F091FF46490BA802F08DFF0BABA9
:10456C000093CDE90166434906AB4FF01002284693
:10457C0003F0BEFCA5650820FFF785FD0546B0B12C
:10458C000023C0E900333C4906A802F075FF384906
:10459C000BA802F071FF394B01930BAB0093384918
:1045AC00029406AB4FF00402284603F0A1FCE5652B
:1045BC0003F0B0F8A26D01460BA803F0C3FD0BA8E5
:1045CC0003F09FF903F0A6F8E26D01460BA803F087
:1045DC00B9FD0BA803F095F906A803F0B8FA244925
:1045EC000BA802F049FF0BA802F0A8FE04460BA88A
:1045FC00002C33D102F0BEFE0094ADF81000022363
:10460C0004AA032106A803F097FA03F083F800220A
:10461C0006A903F022F903F07DF8014604A803F083
:10462C00CAF804A90BA8002202F030FE0B9A154917
:10463C001548FFF70EFF0BA803F094FE03F06AF881
:10464C0003F0B2F8114800231A461946406800F0EE
:10465C0087FD069800F0F8FD10B070BD02F08CFEDE
:10466C0000230093024610230721CBE7A48E0B00F6
:10467C00658E0B00808C0B00C98E0B00E5470B0080
:10468C00838C0B00868C0B0098E60320A4E6032099
:10469C002DE9F74304461546CAB1501C019100F0B0
:1046AC00CBFD2A460646019904F0DEF80023226D64
:1046BC007355A36C043A93420CD003B11E60A36CE7
:1046CC00043342494248A3643246FFF7C2FE03B0AA
:1046DC00BDE8F083626D616CE06C571ABD10181A5E
:1046EC006B1EDB0103EBA00CA36B206CC01A0CEB54
:1046FC00A0036FF06040834202D1364803F07DFF87
:10470C00D4E90CC3A2EB0C00A3EBA00001281ED82B
:10471C000235B3EB450F32D95D1B6D080CEB8505EB
:10472C00131DA942A3EB010223D98B4202D02846C8
:10473C0004F0A8F865642B68E36303F50073236445
:10474C00EB196365EB59E36403F5007323654FF4D0
:10475C000070656DFFF797FC6860A36C03B11E6079
:10476C00636D1A1D62655B68E36403F50072226574
:10477C00A7E78B42DED0381D801A2844D8E703F116
:10478C000208012B2CBF984408F10108B8F1005F16
:10479C0001D303F02FFF4FEA8800FFF774FC626D22
:1047AC00616CA8EB050504326D089142814600EB63
:1047BC00850503D0521A284604F064F8616B206B0F
:1047CC008900FFF766FCC4E90C98B3E7CC8C0B00AE
:1047DC0098E603209C8C0B000A4601461846FFF70E
:1047EC0057BF4160704738B5046805467CB16368B3
:1047FC00013B63605BB9236820469B689847A368BC
:10480C00013BA3601BB923682046DB689847284608
:10481C0038BD37B50D6904466846FFF7FFFD6A469B
:10482C002946204600F059FF01A8FFF7DCFF20467F
:10483C0003B030BD37B58D6804466846FFF7EEFD12
:10484C006A462946204601F085F801A8FFF7CBFF00
:10485C00204603B030BD37B5CD6804466846FFF737
:10486C00DDFD6A462946204601F074F801A8FFF7E1
:10487C00BAFF204603B030BD37B500230D46D1E951
:10488C000012C5E9003303680093044643680160D5
:10489C00426001A80193FFF7A6FFAB68A360EB6829
:1048AC00E36003B030BD00002DE9F04F836BA549E8
:1048BC001D68ABB004462A46A348FFF7CAFD28463C
:1048CC0004F059F82946024603A801F06BF9226C52
:1048DC00A36B043A934264D00433A363284600F0DC
:1048EC00B3FC059DDFF89082974EDFF8909203A9F8
:1048FC0017A8FFF793FD17AA294611A801F04EF847
:10490C0018A8FFF770FF11A801F060F8002800F05C
:10491C00108111A90DA8FFF79EFF0F9A019211A902
:10492C0009A8FFF776FF09A917A8FFF783FF199BC2
:10493C00019A41463046FFF7F3FB18A8FFF753FFE7
:10494C000AA8FFF750FF0EA8FFF74DFF11A917A8F3
:10495C00FFF781FF1998494603F0FBFF054618A89D
:10496C00FFF741FF002DCED111A90DA8FFF751FF84
:10497C000DA917A8FFF75EFF7449199803F0E9FF1A
:10498C00054618A8FFF72FFF0EA8FFF72CFFB5B9A7
:10499C0021466F4800F018FA6E493046FFF7C0FB0D
:1049AC00B1E7E06B4FF40071FFF773FB636C1A1DFA
:1049BC0062645B68E36303F5007222648DE711A9FE
:1049CC000DA8FFF726FF0DA917A8FFF733FF6249C3
:1049DC00199803F0BEFF054618A8FFF704FF0EA8B0
:1049EC00FFF701FF002D8ED15C4BDFF894A1DFF8AF
:1049FC0094B15B4FCDE90955CDE90B35CDE90D559A
:104A0C00CDE90F3511A800F0E1FF002851D011A914
:104A1C0017A8FFF720FF5146199803F09AFF054697
:104A2C0018A8FFF7E0FE11A9B5B906A8FFF7F1FE2B
:104A3C0006A917A8FFF7FEFE17A909A8FFF71CFF88
:104A4C0018A8FFF7D0FE07A8FFF7CDFE0B9A454933
:104A5C003046FFF765FBD5E717A8FFF7FCFE594674
:104A6C00199803F076FF054618A8FFF7BCFE11A9AC
:104A7C009DB906A8FFF7CDFE06A917A8FFF7DAFE29
:104A8C0017A90DA8FFF7F8FE18A8FFF7ACFE07A8AA
:104A9C00FFF7A9FE0F9A3449DAE717A8FFF7DBFEF8
:104AAC003046199A3946FFF7E2FC18A8FFF79BFE2F
:104ABC00A8E70C9B83B3109B73B3DDF82CB00F9F4E
:104ACC00BBF1000F24D0584603F055FF82460FB3BC
:104ADC00384603F050FF0546382200211CA803F08D
:104AEC00EBFE4C23CDE9173B20481B9503238DF897
:104AFC00703000231946406817AACDE919A700F0B9
:104B0C004FFB63689BB91A493046FFF709FB07E076
:104B1C00DA46DCE73D46DFE716493046FFF7A7FCEF
:104B2C000EA8FFF760FE0AA8FFF75DFEEBE69847BC
:104B3C00E9E712A8FFF757FE04A8FFF754FE2BB0C5
:104B4C00BDE8F08FEB8C0B0098E60320128D0B0068
:104B5C00B54D0B00178D0B002A8D0B007E900B00B2
:104B6C006A8D0B00398D0B00548D0B00A4E60320CD
:104B7C00BF8D0B009E8D0B00F98C0B00098D0B006B
:104B8C00348D0B004B8D0B002DE9F0410378012B7C
:104B9C00B6B0044604D0022B40D03BB9012304E04C
:104BAC00816B826C914218BF022363702278637808
:104BBC009A4205D023492448FFF74BFC63782370B5
:104BCC00224FDFF88C802569236AAB4237D00FCD9A
:104BDC0002AE0FC60FCD0FC60FCD0FC695E8030062
:104BEC009DF834309DF8362086E803000191009240
:104BFC00414657F8233003AA10A800F035FB0023D8
:104C0C00024610A9A06D02F075FCA369A3F138024D
:104C1C002369934205D038332361D4E7FFF744FE70
:104C2C00BCE760694FF4FC71FFF733FAE3691A1DB6
:104C3C00E2615B68636103F5FC72A261ECE736B07C
:104C4C00BDE8F081138C0B0098E603208C8E0B00D2
:104C5C00D48D0B002DE9F843036A8469383B9C42E0
:104C6C0006460D460FD04CB10FCD0FC40FCD0FC45F
:104C7C000FCD0FC495E8030084E80300B369383303
:104C8C00B361BDE8F883406A7169F269DFF814C159
:104C9C00471ABB10A41A5A1EE41002EBC2020CFBFA
:104CAC00042E3469B268A21AD2100CFB02E43B4AFF
:104CBC00944202D13A4803F0A0FCD6E900E2A0EB02
:104CCC000E0CA2EBAC0CBCF1010F1ED89C1CB2EB71
:104CDC00440F3BD9141B64080EEB84040430A1422E
:104CEC00A0EB01022CD9884202D0204603F0CAFD69
:104CFC0074612368F36003F5FC733361E319736229
:104D0C00E359F36103F5FC7333624FF4FC70746A7E
:104D1C00FFF7B9F96060B4694CB10FCD0FC40FCD7A
:104D2C000FC40FCD0FC495E8030084E80300736A29
:104D3C001A1D72625B68F36103F5FC7232629FE7C5
:104D4C008842D5D0381D801A2044CFE702F10208E2
:104D5C00012A2CBF904408F10108B8F1005F01D37F
:104D6C0003F048FC4FEA8800FFF78DF9726A71690D
:104D7C00A8EB0404043264089142814600EB8404DD
:104D8C0003D0521A204603F07DFD7168306889000B
:104D9C00FFF77FF9C6E90098AAE700BF9224490201
:104DAC009C8C0B00B76DDBB608B50B46014603F1C6
:104DBC000800FFF74FFF08BD014B024A1A6070470D
:104DCC0098E60320178E0B0008B5024B1B68DB6DB1
:104DDC00019308BD7402030008B5024B1B681B68E5
:104DEC00019308BD4C02030008B5024B1B685B68BD
:104DFC00019308BD4C02030008B5024B1B689B686D
:104E0C00019308BD4C02030008B5024B1B681B69DB
:104E1C00019308BD4C02030008B5024B1B685B698B
:104E2C00019308BD4C02030008B5024B1B689B693B
:104E3C00019308BD4C02030008B5024B1B68DB69EB
:104E4C00019308BD4C02030008B5024B1B681B6A9A
:104E5C00019308BD4C02030008B5024B1B689B680C
:104E6C00019308BD3C02030008B5024B1B68DB68CC
:104E7C00019308BD3C02030008B5024B1B681B697B
:104E8C00019308BD3C02030008B5024B1B685B692B
:104E9C00019308BD3C02030008B5024B1B689B69DB
:104EAC00019308BD3C02030008B5024B1B68DB698B
:104EBC00019308BD3C02030008B5024B1B689B6ABA
:104ECC00019308BD3C02030008B5024B1B68DB6A6A
:104EDC00019308BD3C02030008B5024B1B681B6C18
:104EEC00019308BD3C02030008B5024B1B685B69CB
:104EFC00019308BD6402030008B5024B1B685B6C90
:104F0C00019308BD4802030008B5024B1B689B6C5B
:104F1C00019308BD4802030008B5024B1B68DB6C0B
:104F2C00019308BD4802030008B5024B1B685B6D7A
:104F3C00019308BD4802030008B5024B1B689B682F
:104F4C00019308BD7802030008B5024B1B68DB69AE
:104F5C00019308BD7802030008B5024B1B681B6D5A
:104F6C00019308BD7802030008B5024B1B689B6DCA
:104F7C00019308BD7802030008B5024B1B681B6E39
:104F8C00019308BD7802030008B5034B1B68D3F8E6
:104F9C009830019308BD00007802030008B5034B5C
:104FAC001B68D3F8A830019308BD000078020300F9
:104FBC0008B5034B1B68D3F8B430019308BD00004F
:104FCC007802030008B5034B1B68D3F8D830019363
:104FDC0008BD00007802030008B5034B1B68D3F82A
:104FEC00DC30019308BD00007802030008B5034BC8
:104FFC001B68D3F8EC30019308BD00007802030065
:10500C0008B5034B1B68D3F8F030019308BD0000C2
:10501C007802030008B5034B1B68D3F800310193E9
:10502C0008BD00007802030008B5034B1B68D3F8D9
:10503C000431019308BD00007802030008B5024B4F
:10504C001B685B68019308BD1802030008B5024B8E
:10505C001B68DB68019308BD1802030008B5024BFE
:10506C001B685B69019308BD1802030008B5024B6D
:10507C001B689B68019308BD6802030008B5024BCE
:10508C001B68DB68019308BD6802030008B5024B7E
:10509C001B685B6B019308BD6002030008B5024BF3
:1050AC001B689B6B019308BD6002030008B5024BA3
:1050BC001B681B6D019308BD6002030008B5024B11
:1050CC001B685B6D019308BD6002030008B5024BC1
:1050DC001B68DB6E019308BD6002030008B5024B30
:1050EC001B681B6F019308BD6002030008B5034BDE
:1050FC001B68D3F8AC30019308BD000060020300BC
:10510C0008B5024B1B68DB68019308BD4402030021
:10511C0008B5024B1B68DB6B019308BD440203000E
:10512C0008B5024B1B685B68019308BD4002030085
:10513C0008B5024B1B689B68019308BD4002030035
:10514C0008B5024B1B68DB68019308BD40020300E5
:10515C0008B5024B1B681B69019308BD4002030094
:10516C0008B5024B1B685B69019308BD4002030044
:10517C0008B5024B1B689B69019308BD40020300F4
:10518C0008B5024B1B68DB69019308BD40020300A4
:10519C0008B5024B1B681B6A019308BD4002030053
:1051AC0008B5024B1B689B6A019308BD40020300C3
:1051BC0008B5024B1B681B6B019308BD4002030032
:1051CC0008B5024B1B685B6B019308BD40020300E2
:1051DC0008B5024B1B681B6C019308BD4002030011
:1051EC0008B5024B1B685B6C019308BD40020300C1
:1051FC0008B5024B1B685B68019308BD20020300D5
:10520C0008B5024B1B68DB6A019308BD2002030042
:10521C0008B5034B1B68D3F88830019308BD000018
:10522C002002030008B5034B1B68D3F8943001939C
:10523C0008BD00002002030008B5024B1B681B6868
:10524C00019308BD1C02030008B5024B1B685B6888
:10525C00019308BD1C02030008B5024B1B689B6838
:10526C00019308BD1C02030008B5024B1B68DB68E8
:10527C00019308BD1C02030008B5024B1B685B6A56
:10528C00019308BD1C02030008B5024B1B68DB6AC6
:10529C00019308BD1C02030008B5024B1B68DB6BB5
:1052AC00019308BD1C02030008B5024B1B681B6C64
:1052BC00019308BD1C02030008B5024B1B685B6C14
:1052CC00019308BD1C02030010B58368044613B19A
:1052DC00032201469847204610BD002340681A4619
:1052EC00FFF71EBF406800220221FFF729BF0022F2
:1052FC0040681146FFF71CBF002240681146FFF7BB
:10530C0027BF002340681A461946FFF729BF002320
:10531C0040681A461946FFF72BBF40680021FFF77B
:10532C0057BF40680021FFF75BBF4068002281F047
:10533C000101FFF725BF40680022FFF739BF0022AB
:10534C0040681146FFF73CBF002240681146FFF74A
:10535C001FBF2DE9F04395B014460D46074600F0EB
:10536C0039FD00211C220DA8009103F0A5FA402361
:10537C000C9320466B460CAA0021FFF77FFE0446D7
:10538C0000284BD1024601216868FFF7E1FE02219B
:10539C00804622466868FFF7DBFE009E8146214668
:1053AC00002E3BD0002939D17368022B03D00A2B75
:1053BC0011D0F669F4E7B8F1000FFAD0716906A8BC
:1053CC00043107AD00F034FD0FCD3C1D0FC42B682C
:1053DC0023704146EDE7B9F1000FEAD07469102251
:1053EC0001A803F069FA06238DF8143001AD04F11D
:1053FC0008031834186859682A4603C20833A342B4
:10540C001546F7D101A906A807AD00F0F1FC0FCDA8
:10541C003C1D0FC42B6823704946CAE70098FFF760
:10542C0025FE384615B0BDE8F0830000024B034A58
:10543C001A6000225A6070479CE60320F88E0B001D
:10544C00002240681146FFF783BE002240681146D7
:10545C00FFF79EBE002240681146FFF7B1BE4068C0
:10546C000022FFF7A5BE4068002281F00101FFF782
:10547C0087BE002340681A461946FFF779BE002301
:10548C0040681A461946FFF76BBE00224068114669
:10549C00FFF74EBE406800220221FFF751BE0023E9
:1054AC0040681A46FFF73CBE024B04225A60024A7F
:1054BC001A607047A4E60320348F0B0070474174C8
:1054CC00704708B5007CFFF7F7FC20EAE07008BDD8
:1054DC0008B5007CFFF7D0FC20EAE07008BD08B5E9
:1054EC00007CFFF7D9FC40EAE07008BD08B5007CF1
:1054FC00FFF7CAFC40EAE07008BD007CFFF7D4BCA3
:10550C0037B5457C04462DB1207C03B0BDE8304056
:10551C00FFF7AABC007C0191FFF7CEFC0028019993
:10552C00F2DC284603B030BD10B514210446FEF75A
:10553C00B0FD204610BD000010B54FF47A73044640
:10554C00084611460022C4E90123044B23600123C1
:10555C0020746374FFF7C0FC204610BD788F0B00DD
:10556C00007C0023FFF7B0BC0022FFF7F9BF007CE2
:10557C00FFF772BC38B50D1E0446006803DDFFF75B
:10558C006BFE18B938BDFFF75FFE00202060A560E8
:10559C000120F7E700F11003012213F8101C012978
:1055AC00184608D153F8041C02EB4102013A03F1EE
:1055BC001003F2D17047022904BF53F8041C52188F
:1055CC00F4E770470020704710B510210446FEF731
:1055DC0060FD204610BD08B5FFF7F6FF08BD0EB400
:1055EC00F0B588B000AF07F13405102155F8042B45
:1055FC007A6004462B467818FD60FFF73DFE0F28B5
:10560C007A681AD900F1080323F007036E46ADEB54
:10561C00030D411C2B466846FD60FFF72DFE021E54
:10562C0004DD236869469B6820469847B5462037B9
:10563C00BD46BDE8F04003B070470028F7D02368A2
:10564C0002469B6807F1100120469847EFE710B51A
:10565C00C4687CB1206808B1FEF719FD237A1BB130
:10566C00606808B1FEF713FD20460C21BDE8104020
:10567C00FEF70FBD10BD10B54368013B04464360F7
:10568C0063B903689B689847A368013BA3602BB977
:10569C0023682046DB68BDE81040184710BD38B5BC
:1056AC000B6803604D6843689D42044608D015B1F1
:1056BC006B6801336B60606808B1FFF7DCFF6560F5
:1056CC0038BD07B503688DF807109B6801220DF1F2
:1056DC000701984703B05DF804FB0B461146002206
:1056EC0010B5C0E90022044683600BB9204610BDFA
:1056FC00FFF7D5FFFAE78368EBB11A78032A1AD8BB
:10570C00DFE802F00417021B0520704702685B6893
:10571C005268D05C2D2812D0A0F13003092B0ED981
:10572C0074280ED066280CD0A0F16E035842584154
:10573C0070470620704700207047042070470320F4
:10574C0070470220704710B50446FFF7D4FF0228BB
:10575C000ED0C31EDBB2012B14D82268A36850688C
:10576C005B68BDE810400A220021184403F0C2B95E
:10577C002268A36852685B68D05CA0F1740358423D
:10578C00584110BD0020FCE72DE9F04786B00746D4
:10579C00884602A8002100249946102392460293C1
:1057AC00FFF77CFCCDE9004423464246394602A86B
:1057BC00FFF79CFC061E24DDB6F1006F1249B4BF46
:1057CC0030014FF0FF3002F013FF054698B1002175
:1057DC0002A80024FFF762FCCDE900642B46424688
:1057EC00394602A8FFF782FCA04207DDCAF8005038
:1057FC000120C9F8006006B0BDE8F0872846FEF726
:10580C0046FC2046F7E700BF1C930B002DE9F84F30
:10581C00436886680B4488460E4407461C46194666
:10582C004FF00D094FF0090AB44263D0254615F824
:10583C00012B5C2A2BD1A14207D0A4EB010B1846FB
:10584C005A4603F01FF803465B44B54239D06278E0
:10585C00752A2AD1A21CB21A032A32DDA01D04F12A
:10586C00050E4FF0000CAE4553D015F8011FA1F1F9
:10587C0030025FFA82FBBBF1090F05D9A1F161027D
:10588C00052A07D8A1F1570242EA0C1CEBE728467F
:10589C000446C9E7A1F14102052A12D8A1F1370249
:1058AC00F2E703F801CB0146F2E76E2A1CD00ED8C2
:1058BC00622A13D007D82F2A11D05C2A0FD0222AA3
:1058CC000DD0002023E0662AFBD10C2207E0722ABF
:1058DC000DD0742AF5D183F800A001E008221A70CB
:1058EC00A11C01330846D3E74FF00A02F7E783F80F
:1058FC000090F5E7A14206D0641A1846224602F041
:10590C00C1FF03462344A3EB0803BB600120BDE8A1
:10591C00F88FBCF17F0FC4D92146B9E7F8B504461E
:10592C00154600EB01160027B44210D02378032B48
:10593C0008D129462046FFF769FF48B1A368EF5408
:10594C001034F1E7002BFBD1A268AB54F8E701202F
:10595C00F8BD000038B50023C0E9003304460E48FA
:10596C00C4E90203A9B10B78032B06D08BB91368D9
:10597C0058684B68C35C6E2B07D013684D68586829
:10598C008B6828445B1BA060E36011462046FFF740
:10599C0086FE204638BD00BF7E900B0038B5002532
:1059AC000B46C0E90055C0E90255C0E90455044650
:1059BC0011464BB11A78012A06D103F11002DB68AB
:1059CC0082604361FFF76BFE204638BD10B543691A
:1059DC00044663B18068E060013B1030A060206138
:1059EC00636113B1FFF7D6FDA060012000E01846FB
:1059FC0010BD10B57D210446FFF763FE0123237112
:105A0C00204610BD08B50379012B02D0022B04D01F
:105A1C0008BD2C21FFF755FEFAE73A21FAE710B53D
:105A2C000446FFF7EFFF20467B21FFF74AFE0023D9
:105A3C002371204610BD000013B504460191FFF7F9
:105A4C00E1FF2368019ADB6803492046984701234C
:105A5C002046237102B010BDA08F0B0013B5044675
:105A6C000191FFF7CFFF2368019ADB6803492046B9
:105A7C00984701232046237102B010BD2B8C0B00DC
:105A8C002DE9F0470D46222190460446FFF719FEFA
:105A9C00DFF8A490A8442F464745BA463DD017F8E6
:105AAC00016B222E06D05C2E04D0304602F0C4FED0
:105ABC000028F1D12368AAEB05029B6829462046F1
:105ACC0098475C212046FFF7FCFD0D2E0AD8072EC7
:105ADC001CD9A6F10803052B18D8DFE803F00D0F2D
:105AEC0011171315222E01D05C2E0FD131462046F2
:105AFC00FFF7E7FD3D46CFE76221F8E77421F6E7B3
:105B0C006E21F4E76621F2E77221F0E72368324652
:105B1C00DB68494620469847ECE7BD4205D0236830
:105B2C007A1B9B6829462046984722212046FFF77E
:105B3C00C8FDBDE8F08700BFA38F0B0013B504466A
:105B4C00CDE90021FFF75EFF2046DDE90021FFF7DC
:105B5C0097FF02232046237102B010BD13B50446F3
:105B6C00CDE90021FFF74EFF2046DDE90021FFF7CC
:105B7C0087FF01232046237102B010BD38B50023E6
:105B8C000446036010200D46FEF77DFA28B1012370
:105B9C00C0E90133024B0360C5602060204638BD6C
:105BAC00B48F0B00F0B5044687B00E460C20274985
:105BBC00154602F01BFD014618B10023C0E9003365
:105BCC00037203A80291FFF7D9FF029A42B9C4E904
:105BDC000022A26003A8FEF706FE204607B0F0BD27
:105BEC0000230193294601AB3046FFF7CDFD18B9D0
:105BFC00C4E90000A060EDE71449029F681C02F0A4
:105C0C00F7FC029B786058680028F1D02A46314690
:105C1C0002F02AFE029B0199186801221A725A6836
:105C2C00FFF77CFE0028E3D0029B19680493039BCA
:105C3C00059313B15A6801325A6004AA2046FFF743
:105C4C004CFD05A8FEF7CFFDC4E700BF1C930B006D
:105C5C00417470477047704708B50021007CFFF70E
:105C6C00E3F840EAE07008BD08B50121007CFFF7BD
:105C7C00DBF840EAE07008BD08B5007CFFF7CCF813
:105C8C0020EAE07008BD08B5007CFFF7BDF820EAFB
:105C9C00E07008BD13B50446007C0191FFF7BCF819
:105CAC000028019901DC607C20B1207CFFF7C4F84E
:105CBC0020EAE07002B010BD007CFFF7C5B810B54B
:105CCC0014210446FEF7E5F9204610BD10B54FF43B
:105CDC007A73044608460021C4E90113044B23607F
:105CEC000123207463741146FFF776F8204610BD2B
:105CFC00D08F0B00007C0022FFF776B8007CFFF7FA
:105D0C007BB810B514220446002102F0D5FD2046C4
:105D1C0010BD000010B50F4C88B003A8FFF7F1FFC1
:105D2C002178BFF35B8F11F001010FD12046019157
:105D3C00FEF7BEF9019948B103AA0748FFF7C6FF61
:105D4C002046FEF7BAF9054802F070FD024808B08B
:105D5C0010BD00BFACE60320B0E60320615C0B0075
:105D6C00704710B518210446FEF793F9204610BD74
:105D7C00F0B5037D062B8DB00E4600F104074FF0F5
:105D8C00000412D000F1080515F8011D0A22304656
:105D9C0001F0AFF8AF42044419D0002CF4D02E21FE
:105DAC00304601F097F80444EEE72F236A46394653
:105DBC000A208DF80040FFF797F8684602F0DBFDEB
:105DCC0033680246DB6869463046984704462046ED
:105DDC000DB0F0BD10B5054B0446112240F8043B44
:105DEC00002102F069FD204610BD00BF00900B00A1
:105DFC000346074A10B543F8042B01F1100251F881
:105E0C00044B43F8044B9142F9D10A781A7010BD37
:105E1C0000900B0010B59DF8084044EA032343EAB8
:105E2C00024242EA016104234160037510BD000087
:105E3C0007B5064B0360CB7800938B784A780978CA
:105E4C00FFF7E8FF03B05DF804FB00BF00900B0008
:105E5C0013B50B460246D0E900016C4684E80300FA
:105E6C0093E8030082E8030094E8030083E803004E
:105E7C0002B010BD014B1860704700BF9CE50320B9
:105E8C0008B50B4B43B1FFF745FF03681B699847F7
:105E9C00002801DDAFF30080064B43B102F082FB1A
:105EAC0003681B699847002801DDAFF3008008BD2B
:105EBC00000000000000000008B5FFF7E1FFFFF74D
:105ECC00CDF8014B186008BD40E703200548064A91
:105EDC00064908B5121A02F0C7FC054B054A1A60B0
:105EEC0008BD00BF00F4032004F40320F4950B005C
:105EFC0000F403201E1C279A07B5002300931A46B2
:105F0C006FF07701FFF78EF903B05DF804FB00002A
:105F1C0007B543880A2B08D0502B0BD1094B1B68B3
:105F2C004BB103B05DF804EB1847FFF7E5FF03B086
:105F3C005DF804FB002300931A466FF07701FFF71E
:105F4C0071F9F4E7C8E6032010B512480021FFF7F9
:105F5C00B3F9114B1A68114B9A42114B0CBF012229
:105F6C0000221A7001D0FFF7B1FFFFF767F8044663
:105F7C0002F0AAFC0B4B13B12046AFF300800021BA
:105F8C000848FFF7C5F8BDE8104007480021FFF7A7
:105F9C003FB900BF815E0B0000F403201E1C279A42
:105FAC00C4E60320000000001D5F0B00014B002223
:105FBC009A607047CCE60320024B1A68024B1A60B9
:105FCC00704700BF90E50320DCE60320806803687F
:105FDC00DB6818477047084611B10B685B681847B7
:105FEC007047704770477047704738B504460D4688
:105FFC0000682E2102F0A3FC2368C31A2B6023B186
:10600C00037803B1013023682060184638BD10B501
:10601C000C210446FEF73DF8204610BD10B50421B6
:10602C000446FEF736F8204610BD10B50421044690
:10603C00FEF72FF8204610BDFEF76EBF08B502F034
:10604C0088FCB0FA80F0400908BD704710B50C46CA
:10605C00FFF760FE844210D002F0A4FA844205D10E
:10606C0002F0A0FABDE81040FFF781BA2CB123680A
:10607C0020465B68BDE81040184710BD13B50446B8
:10608C000846019102F077FC01990246204602B0C5
:10609C00BDE81040FFF762BD13B5044608460191F8
:1060AC0002F069FC23680199DB680246204602B0C5
:1060BC00BDE81040184707B503688DF80710DB687A
:1060CC0001220DF10701984703B05DF804FB0EB4F3
:1060DC0003B503AB002153F8042B006A019300F0C5
:1060EC0026FF02B05DF804EB03B070470A6802604B
:1060FC004A6842600022C0E9022210B502618C6835
:10610C008460CC68C4600C698A60CA6004610A61EE
:10611C0010BD00002DE9F74FD0E900844FF0140AB0
:10612C0000930AFB04F4184BA41017465C43454635
:10613C00002C21DD66100AFB06F005EB00093A463F
:10614C00B9F804B0285801915F4528BF5A4602F0AF
:10615C001AFC002801994FF001030BD15F4503D1C4
:10616C00009A13703446E3E7FCD9A61B09F1140519
:10617C00013EF7E7F9DBF5E7A5EB08050248AD10A2
:10618C00684303B0BDE8F08FCDCCCCCC7FB50369B0
:10619C00057E019103B3F9B1002600F10C040396BE
:1061AC0003A901A8FFF721FF0146A8B10DF10B03CC
:1061BC00039A8DF80B602046FFF7ACFF9DF80B306F
:1061CC0053B12368142404FB0034083434F9023C22
:1061DC00002BA8BFDDB2E3E7284604B070BD000079
:1061EC0010B5094C2378BFF35B8FDB0709D420462D
:1061FC00FDF75EFF28B12046FDF75FFF034802F074
:10620C0015FB034810BD00BFE4E60320EF5F0B0055
:10621C0094E5032010B5094C2378BFF35B8FDB07A3
:10622C0009D42046FDF744FF28B12046FDF745FF71
:10623C00034802F0FBFA034810BD00BFE8E6032058
:10624C0057600B0098E5032038B500250446C0E9DB
:10625C000055C0E904558560856140F8245FFEF760
:10626C004BFEFFF7BDFFE061FFF7D4FF2573206203
:10627C00204638BD10B50A4C2378BFF35B8FDB0783
:10628C000CD42046FDF714FF40B10648FFF7DCFFA5
:10629C002046FDF712FF044802F0C8FA014810BD71
:1062AC00E0E60320F0E60320B5670B00024A034941
:1062BC0003480023FEF712BF99650B0025650B0000
:1062CC00A5640B0000231A4619461846FEF706BFB4
:1062DC0037B58D6804466846FEF7A0F86A4629462D
:1062EC002046FFF75BFB01A8FEF77DFA204603B0C2
:1062FC0030BD000070B58AB00D46014604A8FFF70A
:10630C00E7FF144E04A8FFF761FBE8B104A9684647
:10631C00FEF7A1FA02983146FFF790FE044610B141
:10632C002C1E18BF012401A8FEF75DFA002CE9D041
:10633C0004A96846FEF76DFA6846FFF704FA286070
:10634C0001A8FEF750FADDE705A8FEF74CFA0AB0F3
:10635C0070BD00BF28900B0037B50C462046134982
:10636C00154602F0F6FA50B9FFF7D4FC4FF416516B
:10637C00FFF7C0FC03B0BDE83040FFF7CBBC0C49C5
:10638C00204602F0E6FA78B94FF4165301A92846D4
:10639C000193FFF7AFFF02F005F90199FFF7E4F85D
:1063AC0002F000F903B030BD0020FBE72D900B008C
:1063BC0034900B0070B5D0E900531426044606FB4C
:1063CC000356AE4205D005F10800FFF7F3FF143574
:1063DC00F7E72068FEF738FF204670BD70B5D0E9AE
:1063EC000053044605EB0316AE4204D0284601F0D8
:1063FC00B9FF1035F8E72068FEF726FF204670BD80
:10640C0010B504460C30FFF7D5FF2046FFF7E6FF2A
:10641C00204610BD10B5044B044640F8043BFFF772
:10642C00EFFF204610BD00BF588C0B0010B5044682
:10643C00FFF7F0FF20462421FDF72BFE204610BD70
:10644C0010B5034B03600446FFF7E4FF204610BD74
:10645C00D0900B0010B50446FFF7F2FF2046242124
:10646C00FDF717FE204610BD0022C0E9002210B532
:10647C0082600C6804604C6844608C680A604A60F6
:10648C0084608A6010BD10B5036804461868FEF776
:10649C004BFD204610BD00002DE9F04F87B0804623
:1064AC0003931C4B5B68C3F30803894616466BB910
:1064BC00FFF7E0FE044600F12403406A0593FFF762
:1064CC00BBFD237B2BB105A8FFF7DDFF07B0BDE8B3
:1064DC00F08F01232373D4E900535FFA89F905EB9C
:1064EC00830AAA4512D055F8047B3146381DFFF7B4
:1064FC004DFE8145F5D33B68039A0092D3F808B062
:10650C004A46334641463846D847EAE700232373C8
:10651C00D9E700BF00ED00E02DE9F74F9B461A4B81
:10652C005B68C3F308038046894616466BB9FFF7D0
:10653C00A1FE044600F12403406A0193FFF77CFDA1
:10654C00237B2BB101A8FFF79EFF03B0BDE8F08FB2
:10655C0001232373D4E90053F6B205EB830A5545A6
:10656C000ED055F8047B5946381DFFF70FFE8642B6
:10657C00F5D33B684A46DB68414638469847EEE718
:10658C0000232373DEE700BF00ED00E02DE9F341AB
:10659C00164B5B68C3F3080305460F461BBBFFF79E
:1065AC0069FE00F124030446406A0193FFF744FDA1
:1065BC00D4E90063462406EB8308B04509D101A851
:1065CC00FFF761FFA542B4BF0020012002B0BDE877
:1065DC00F08156F8040B39460430FFF7D7FD84429E
:1065EC00A8BF0446E9E70020F0E700BF00ED00E09B
:1065FC00F8B5D0E901539D4204460E460DDB6F1CE5
:10660C00002F006804DDB900FEF726FE18B9F8BDAE
:10661C00FEF71AFE00202060A7602768626807EB6F
:10662C0085019200A2EB8502081D02F02BF947F8B8
:10663C0025606368013363600120E8E737B500F13A
:10664C0024030446406A01930D46FFF7F5FCD4E998
:10665C00003203EB8202934219460BD00968A9421F
:10666C0003F10403F7D101A8FFF70DFF002528461D
:10667C0003B030BD29462046FFF7BAFF0546002877
:10668C00F1D06368012B01D1FFF710FE01A8FFF7D1
:10669C00FAFEECE770B50446D0E900020B4600EBBD
:1066AC00820282420FD001461D6851F8046BAE4243
:1066BC0007D1521A02F0E6F86368013B63600120CF
:1066CC0070BD0846EDE70020FAE71FB500F1240382
:1066DC000446406A01910393FFF7AEFC01A92046E2
:1066EC00FFF7D8FF18B163680BB9FFF7EBFD03A8F0
:1066FC00FFF7C9FE04B010BD70B5D0E904561823DD
:10670C00044603FB0656AE4215D005F11001204697
:10671C00FFF7C0FF63680BB9FFF7D4FDE069296987
:10672C000368DB689847696919B1206A0368DB68FC
:10673C0098471835E7E7D4E90453182606FB0356A7
:10674C00AE4204D0284601F00DFE1835F8E70023C0
:10675C00636170BD73B50446FFF7B4FD04F1240307
:10676C00606A0193FFF768FC2046FFF7C5FF01A89C
:10677C00FFF789FE606A08B1FEF7C6FBD4E9045343
:10678C00182606FB0356AE4204D0284601F0EAFD5B
:10679C001835F8E72069FEF757FD2068FEF754FD21
:1067AC00204602B070BD00000148FFF7D3BF00BF08
:1067BC00F0E603208842F8B504460D46164615D976
:1067CC00904214D2A2F11406751AA1F114072C44AC
:1067DC00B7421AD01CB131462046FFF787FC06F1B0
:1067EC000800FFF7E7FD143E143CF1E70DD0B5426D
:1067FC000BD01CB129462046FFF778FC05F10800A8
:10680C00FFF7D8FD14351434F1E7F8BD8842F8B51C
:10681C0004460D46164614D9904213D2A2F1100626
:10682C00751AA1F110072C44B74218D01CB131468F
:10683C00204601F013FE304601F094FD103E103C52
:10684C00F2E70CD0B5420AD01CB12946204601F023
:10685C0005FE284601F086FD10351034F2E7F8BD30
:10686C0070B50E1E054611DD3001FEF7E5FC044641
:10687C0058B1D5E9001201EB0212FFF7C7FF2868E7
:10688C00FEF7E2FC2C60AE60012070BD0024F6E740
:10689C002DE9F04F904695B000230391D8F80410E1
:1068AC000A9346229942C0E90033C0E90233C0E999
:1068BC000433CDE908330446027623DCD8E90057CB
:1068CC00142303FB0757AF423BD029460BA801F01A
:1068DC00C5FD0BA90FA8099E01F0C0FDDDE9091348
:1068EC0099421BDA089B099A03EB061603EB02127A
:1068FC00314606F11000FFF789FFEEB9099B013311
:10690C00099311E008A8FFF7ABFF0028D6D108A81F
:10691C00FFF764FD204615B0BDE8F08F013108A8E3
:10692C00FFF79EFF0028DDD10FA801F01BFD0BA87F
:10693C0001F018FD1435C6E70FA9304601F08EFDA5
:10694C00DCE70026CDE90B660D964FF01409DDE966
:10695C0008239E427CDA3301D35806930BB90136D7
:10696C00F5E70023079309FB06F302930BAD07A988
:10697C0006A8FFF73AFB82460028F0D04FF0000340
:10698C008DF817300146079A0DF117032846FFF7CB
:10699C00C1FB9DF817700190002F4AD1BDF81C3037
:1069AC00ADF84030CDE911774FF6FF73CDF83CA030
:1069BC00ADF842301397D5E90132934217DB03F15E
:1069CC00010ABAF1000F30DD09FB0AF0FEF734FCC6
:1069DC00834660B3D5E9001209FB0212FFF7EAFE09
:1069EC002868FEF731FCC5F800B0C5F808A02B6884
:1069FC00019A09FB023A6A68514609FB02320AF114
:106A0C001400FFF7D7FEBAF1000F03D00FA95046C0
:106A1C00FFF76CFB6B6801336B6011A8FFF7CAFCC6
:106A2C003FB10BA8FFF7C6FC71E7BB46D8E70127BF
:106A3C00F3E7019B2D6809FB0355069B1B782BB9CB
:106A4C00D8F80030029A13441B7CEB8008358EE793
:106A5C002168226062686360A36809920A9A0A93AB
:106A6C00E368A2600B9A0B932369E2600C9A0C9377
:106A7C00636922610D9A0D93039B089162612376E1
:106A8C00CFE70000F0B5044687B00D462646194600
:106A9C0068461746FDF70AFC0B4B46F8043B694663
:106AAC0003A8FDF703FC03AA39463046FFF7F0FEB6
:106ABC0003A8FDF79FFB6846FDF79CFB034B236087
:106ACC002046256207B0F0BD588C0B00B8900B0027
:106ADC00F0B50F4685B01D490A9C384616461D4632
:106AEC0001F037FFC0B9A4B1294601A8FFF7BCFCDF
:106AFC001749242001F07AFD054630B101AB32462E
:106B0C002146FFF7BFFF134B2B6001A8FDF772FB6B
:106B1C002C46204605B0F0BD0F49384601F019FF50
:106B2C0090B9002CF5D0294601A8FFF79DFC084927
:106B3C00242001F05BFD05460028E6D001AB32466F
:106B4C002146FFF79FFFE0E70024E2E73C900B00B3
:106B5C001C930B00D0900B0040900B00014B024A91
:106B6C001A607047ECE603202E8C0B002DE9F047E1
:106B7C00089DD0F8209004460E4617469846FFF71D
:106B8C00C9F881454CD02B79190704D56A69544949
:106B9C002046FFF79CFAB8F1000F0DD05B21204680
:106BAC00FFF789FA41462046FFF776FA23684D49EC
:106BBC00DB680222204698472B79DA0723D5D5F8D3
:106BCC0008802F21404601F0FEFE08B100F10108BB
:106BDC0041462046FFF760FA2B799B0708D53A21EE
:106BEC002046FFF768FAEA683F492046FFF76FFA3C
:106BFC002A79236812F0040FDB6814BF3B493C4927
:106C0C000222204698472B7958071DD529690B4637
:106C1C001A4613F8010B60B1202808D11946F7E782
:106C2C003448FEF791FB0028ADD0BDE8F08728284A
:106C3C00EED12368521ADB682046984723682E4908
:106C4C00DB6804222046984700213846FEF73EFABE
:106C5C0001462046FFF720FA23682549DB6802220B
:106C6C00204698471EB131462046FFF715FA2B797E
:106C7C0013F0300F2CD023682049DB680222204609
:106C8C0098472B79D9060AD523681D49DB6807225A
:106C9C0020469847AA691B492046FFF718FA2B791A
:106CAC009A0611D5DB0605D523681049DB6802224C
:106CBC002046984723681449DB6820460A229847E7
:106CCC00E9692046FFF7E8F95D212046FFF7F3F963
:106CDC0023680E49DB6820460222BDE8F0471847BE
:106CEC0051900B0058900B00A08F0B005B900B0089
:106CFC0060900B009CE603205E900B0063900B00F1
:106D0C0066900B006E900B0071900B007C900B004A
:106D1C002DE9F04385B0D0F820900C9C05460F4629
:106D2C0090461E46FEF7F6FF814505D14948FEF711
:106D3C000BFB002840F08A802B6A474A01924FF0E7
:106D4C00000901A803938DF80890FEF768FE4946E8
:106D5C004046FEF7BBF941498046012201A8FEF7E7
:106D6C00EDFE4146FFF78AF93FB13D49012201A8EA
:106D7C00FEF7E4FE3946FFF781F93EB139490122AD
:106D8C0001A8FEF7DBFE3146FFF778F92379DF0720
:106D9C000ED5A6682F21304601F015FE00B1461C19
:106DAC003149012201A8FEF7C9FE3146FFF766F909
:106DBC0023799E0707D52D49022201A8FEF7BEFEB6
:106DCC00E168FEF739FE2379580714D52669334656
:106DDC001F4613F8012B2AB1202A01D11E46F7E7D2
:106DEC00282AF5D12249022201A8FEF7A7FEBA1BD8
:106DFC003146FEF7B3FE2379190707D51D49012249
:106E0C0001A8FEF79BFE6169FEF728FE2379DA06DE
:106E1C0008D5042218490DEB0200FEF78FFEA1697C
:106E2C00FEF70AFE23799B0607D51449062201A812
:106E3C00FEF784FEE169FFF721F901A8FEF7D9FD01
:106E4C00286A0F4903680222DB68984705B0BDE841
:106E5C00F08300BF9CE60320A0900B0032900B0047
:106E6C007F900B00A3940B0081900B0083900B0080
:106E7C0086900B00D28D0B0089900B008E900B002E
:106E8C007C900B00F8B506460D468F180024BD42C9
:106E9C000CD0336815F8011B9B6830469847031ECD
:106EAC0001DB1C44F3E7002C08BF1C462046F8BD50
:106EBC0013B50446084659B1019101F05CFD2368F5
:106ECC000199DB680246204602B0BDE81040184725
:106EDC0002B010BD03689B68184738B50D210546F4
:106EEC00FFF7F8FF0A2104462846FFF7F3FF20447A
:106EFC0038BD30B58BB00023012A8DF8243098BFF3
:106F0C000A2209AC0D46B1FBF2F101FB125303F05E
:106F1C00FF03092B94BF30333733DBB2AA4204F89A
:106F2C00013DEFD92146FFF7C3FF0BB030BD2DE972
:106F3C00F04186B000AF05460E46381D14211446AC
:106F4C003B60FEF799F913280ED8391D2846FFF738
:106F5C00AFFF04461EB12846FFF7BFFF044420468E
:106F6C001837BD46BDE8F08100F1080323F0070394
:106F7C00E846ADEB030D2246411C3B686846FEF724
:106F8C007BF969462846FFF793FF0446C546E1E7BF
:106F9C007047704770477047064B994210B500F127
:106FAC000C0405D0084601F02FFB002808BF002474
:106FBC00204610BD688F0B00064B994210B500F1AE
:106FCC000C0405D0084601F01FFB002808BF002464
:106FDC00204610BD688F0B00064B994210B500F18E
:106FEC000C0405D0084601F00FFB002808BF002454
:106FFC00204610BD688F0B0010B568210446FDF7C4
:10700C0048F8204610BD10B528210446FDF741F87C
:10701C00204610BD10B530210446FDF73AF8204645
:10702C0010BD6821FDF735B82821FDF732B83021A5
:10703C00FDF72FB8F0B50025EC1C8C420DD86E1C5A
:10704C00445D875D974205D12644B14205D31D604E
:10705C00601CF0BD01342544EEE70020F9E7000088
:10706C00024A03490A20FEF711B800BF59500B0021
:10707C0010910B0030B40D4611461A46036809688E
:10708C002868D3E90043A44630BC6047012A38B5D0
:10709C00044602D10B68236003E0022A03D0032AC2
:1070AC000DD0002038BD08200D68FCF7ECFF03461E
:1070BC000028F0D095E8030083E80300EBE70068B4
:1070CC000028EED00821FCF7E4FFEAE710B5013800
:1070DC0002EB410110F8013F1B0903F13004392C7C
:1070EC0088BF03F1370402F8024B037803F00F0357
:1070FC0003F13004392C88BF03F13704914202F8B4
:10710C00014CE7D110BD10B504465830FEF7DCF841
:10711C0004F14800BDE8104001F024B9A0F130039F
:10712C00DAB2092A01D818467047A0F16103052B81
:10713C0001D857387047A0F14103052B94BF37385D
:10714C004FF0FF307047000010B500230370044B64
:10715C0004461868FDF7E0FE01232370204610BD9D
:10716C0020E7032010B5037804461BB1024B1868C6
:10717C00FDF7DAFE204610BD20E7032082B003465F
:10718C00086849686A4603C26A4603CA186018460A
:10719C00596002B0704708B582798B799A4206D152
:1071AC00062201F051FBB0FA80F0400908BD002026
:1071BC00FCE74FF0FF33036083800020704708B575
:1071CC000246002101604160FFF7F3FF9171104608
:1071DC0008BD10B5431D01391C7801F8014F8342DD
:1071EC0003F1FF33F8D110BD70B5144688B01A46C0
:1071FC000D46002948D0A4B101A9FFF7EAFF9AB1C6
:10720C0003AA062101A8661EFFF760FF112E28BFF6
:10721C001126324603A9284601F026FB0023AB5564
:10722C00741C204608B070BD03AA012101A8FFF709
:10723C004DFF3A260DF10F0201210DF105008DF8DD
:10724C000E60FFF743FF0DF1120201210DF1060054
:10725C008DF81160FFF73AFF0DF1150201210DF1C8
:10726C0007008DF81460FFF731FF06AA012102A870
:10727C008DF81760FFF72AFF8DF81A600DF11B02CD
:10728C0001210DF10900BEE70C46CAE710B586B026
:10729C00044613460846122201A9FFF7A5FF01A9CF
:1072AC00204601F0AAF8204606B010BD10B5012307
:1072BC000361054B024603F1100153F8044B42F8ED
:1072CC00044B8B42F9D110BDAE920B0010B50B469E
:1072DC000446B1B1012A01F110020AD1014653F85A
:1072EC00040B41F8040B9342F9D10123236120468E
:1072FC0010BD411E12F8010D01F8010F9A42F9D18F
:10730C00F3E7102201F0D8FAF1E738B50446154638
:10731C001A46FFF7DBFFA581204638BD08B5026988
:10732C0022B98089003818BF012008BD02491022FB
:10733C0001F08AFAF6E700BFCE920B0000697047A5
:10734C0038B50C4614220021054601F0B5FA236924
:10735C001BB9A3892B80284638BD01232B742146E9
:10736C002B4604F1100251F8040B43F8040B914224
:10737C00F9D1F0E780897047704708B502690B694D
:10738C009A4206D1102201F05FFAB0FA80F040095F
:10739C0008BD0020FCE7000001232DE9F341036147
:1073AC00344B0C460646024603F1100153F8040B0D
:1073BC0042F8040B8B42F9D144B32421204601F04E
:1073CC00F6FA04284FF0000523D1ADF8045001AFB4
:1073DC00A51C063415F8020CFFF7A0FEB0F100084E
:1073EC0012DB15F8010CFFF799FE00280CDB0235B7
:1073FC0040EA0810A54207F8010BEBD19DF80530C7
:10740C0033739DF8043073730023336102B0BDE80D
:10741C00F0814FF010082421204601F0C8FAA84250
:10742C0007D842460021304602B0BDE8F04101F0D9
:10743C0043BAB8F1000FE9D0605DFFF76FFE0306A9
:10744C0015D4000108F1FF38C7B206F808702421E2
:10745C00204601F0ACFA0135A84208D9605DFFF76F
:10746C005DFE40B20028A4BF384306F80800013581
:10747C00D1E700BFAE920B0013B504460191FFF7A4
:10748C0015FF20460199FFF787FF204602B010BD7B
:10749C0038B54FF6FF730025044643800E2229466B
:1074AC0005700571063001F007FA04F11400FFF7BE
:1074BC00FDFE04F12800FFF7F9FE044904F13C003D
:1074CC0000F09BFF6565204638BD00BF7E900B0029
:1074DC0010B5D0E9063203EBC2029342184606D02F
:1074EC00046824888C4203F10803F6D110BD0020F7
:1074FC00FCE70000F0B5064685B01F460D46002996
:10750C0050D0002A4ED004682378F42A28BFF422E5
:10751C0043B32379980709D5A08903920023FDF77B
:10752C0047FD0028039A03DA05B0F0BD6FF0770031
:10753C0034682379D90609D5012F07D0A0890023F7
:10754C00294605B0BDE8F040FDF764BD9B06EBD5C0
:10755C00022FE9D0A0890023294605B0BDE8F040F0
:10756C00FDF762BD60884FF6FF7188421CD021790F
:10757C004E0701D5012F04D10B0709D46FF077000A
:10758C00D2E7A189009313462A46FDF725FDCBE7E8
:10759C00022FF3D00023A189009313462A46FDF74E
:1075AC0011FDC1E70248BFE76FF0D100BCE700BF97
:1075BC00F2FEFFFF2DE9F041002606600746282069
:1075CC000C46FCF760FD051E05F10C080FD00123DD
:1075DC00C5E90133084B2B604046FFF767FE0FCC23
:1075EC002E6285F8246046460FC623683360C7E9CF
:1075FC0000853846BDE8F08178920B0070B5002507
:10760C00056006463020FCF73EFD044688B1012398
:10761C00C0E90133094B03604FF6FF7383810E30D1
:10762C00FFF7CDFDC4E90655C4E90855C4E90A5570
:10763C00A57574600C343460304670BD94920B00A8
:10764C0037B50D46044601A8FFF77EFD2A68D2F82F
:10765C0002302360D2F80630636001A8FFF782FD88
:10766C00204603B030BD30B5054687B00C4601A8A6
:10767C00FFF76AFD2A68236812881B889A420DD18D
:10768C00294602A8FFF7DCFF214604A8FFF7D8FF24
:10769C0004A902A8FFF77FFD044600B9002401A845
:1076AC00FFF760FD204607B030BD000010B5044662
:1076BC006420FCF7E8FC68B10023C0E90033C0E9A2
:1076CC000233C0E90433C0E906330362C362C36307
:1076DC00C364C365206020B90A4A0B490A20FDF730
:1076EC00D5FC0020FDF728FC20B1064A07490A20EA
:1076FC00FDF7CCFC216806480022FDF781FC2046F2
:10770C0010BD00BF59500B0010910B0043910B00A2
:10771C008D7C0B0010B50A4C2378BFF35B8FDB0715
:10772C000CD42046FCF7C4FC40B10648FFF7BEFF62
:10773C002046FCF7C2FC044801F078F8014810BD63
:10774C0018E7032024E7032079790B0030B5036890
:10775C00093B012B8DB004460D4611D8FFF7DAFF1B
:10776C00A1880068FFF7B4FE034658B92022CDE982
:10777C0004200B4A00920B4904AA3220FDF796FC18
:10778C000DB030BD6A6D002AFAD0D4E9032105F1A1
:10779C004C00CDE90312AC6D04AA03A9A047EFE796
:1077AC0085910B00428C0B0008B50020FDF7C4FB43
:1077BC0000EAE07008BD13B5044600216846CDE927
:1077CC000011FDF7C1FB6B4603CB206020466160C6
:1077DC0002B010BD19B90A460846FDF7BDBBD1E988
:1077EC0000010022F9E738B5141E4368054602DB98
:1077FC0062189A4200DD5C1A2A68501801191A4462
:10780C00521A01F03FF86A68121B6A6038BD37B52E
:10781C000A4604460D4601ABD0E90001FFF70AFC0D
:10782C00024638B101992046FFF7DDFF2946204674
:10783C00FFF7EDFF03B030BD10B50C4629B90A4671
:10784C000846BDE81040FDF78FBB01212046FFF72D
:10785C00DEFFD4E900010022F3E738B504461546F3
:10786C00FFF7B8FF00280ADB29462046FFF7E4FFA4
:10787C00002804DBBDE838400020FDF77DBB38BD97
:10788C0038B500230446836008200D46FCF7FBFB4B
:10789C0018B12B6803606B684360034BE360034BC8
:1078AC002060A360204638BD81700B0099700B00DE
:1078BC000B68036013B15A6801325A60704710B5F7
:1078CC0051F8043B044640F8043BFFF7F1FF2368F2
:1078DC000BB9FFF7C5FB204610BD10B551F8043BA2
:1078EC00044640F8043BFFF7E3FF204610BD10B5FB
:1078FC0051F8043B044640F8043BFFF7D9FF2046FF
:10790C0010BD10B504460430FCF76DFF204610BDC9
:10791C0070B5D0E90053044605EBC306AE4204D063
:10792C00281DFCF760FF0835F8E72068FDF78CFC94
:10793C00204670BD70B5D0E90053044605EBC30674
:10794C00AE4204D0281DFCF74EFF0835F8E720683E
:10795C00FDF77AFC204670BD10B504462430FFF7C5
:10796C00E9FF04F11800FFF7D3FF10BD70B5174BFA
:10797C001C6854B304F15400FDF7A6FC04F1440058
:10798C00FDF7A2FC04F13400FDF79EFC04F1240089
:10799C00FDF79AFCD4E9065305EBC306AE4204D0BE
:1079AC00281DFCF720FF0835F8E7A069FDF74CFC13
:1079BC0004F10C00FFF7BEFF2046FFF7A9FF20469D
:1079CC006421BDE87040FCF764BB70BD24E7032064
:1079DC0013B50023D1E90042C1E9003303680093D9
:1079EC0004604368426001A80193FCF7FCFE02B0FE
:1079FC0010BD826810B50AB900F002FEBDE8104057
:107A0C00C368184708B583688B4202DAFDF7B2FDEC
:107A1C0008BD0120FCE72DE9F0410F4641681D46E9
:107A2C001944836899420446904612DC26686268C1
:107A3C003E44D21B3146701900F024FF2A464146C1
:107A4C00304600F011FF63682B4463600120BDE8F1
:107A5C00F081FDF78FFD0028E8D1F8E7F8B50D4669
:107A6C00D0E901139942044616460BDA276862687E
:107A7C007919521B481C00F005FF7E5563680133D1
:107A8C006360F8BD0131FDF775FD0028EED1F8E714
:107A9C000A464168FFF7E2BF2DE9F74304461D464D
:107AAC000F4601AB90460A46D0E900019DF828909C
:107ABC00FFF7C0FAAE1C63680246B9F1000F26D17D
:107ACC0028B333441B1AFF2B09D801992046FFF722
:107ADC008AFE616820463144FFF794FF18B960684C
:107AEC0003B0BDE8F0836A1C0199D2B22046FFF7BF
:107AFC00B5FF01993A4601312046FFF7AFFF0199D6
:107B0C002B46424602312046FFF785FFE7E7F11886
:107B1C00FF29E4D82046FFF775FF0028DFD0691C49
:107B2C00C9B22046FFF7B4FF39462046FFF7B0FF35
:107B3C0061682B464246E6E730B49DF808501AB10E
:107B4C00029530BCFFF7A8BF406830BC70471FB52A
:107B5C000023C0E9003383600622009301238DF8D3
:107B6C000F2019460DF10F020446FFF7E5FF2046E2
:107B7C0004B010BD8842F8B504460D46164614D91B
:107B8C00904213D2A2F10806751AA1F108072C44F1
:107B9C00B74218D01CB131462046FFF7A8FE301D65
:107BAC00FCF721FE083E083CF2E70CD0B5420AD0A7
:107BBC001CB129462046FFF79AFE281DFCF713FE40
:107BCC0008350834F2E7F8BDF7B504464668684650
:107BDC00FFF78DFED4E901739F4212DB0137002FB2
:107BEC0029DDF800FDF728FB0546F0B1D4E90012B9
:107BFC0001EBC202FFF7BEFF2068FDF725FB2560F5
:107C0C00A7602368626803EBC60603EBC202314629
:107C1C0006F10800FFF7AEFF1EB169463046FFF7CC
:107C2C0066FE636801336360012501A8FCF7DBFD88
:107C3C00284603B0F0BD0025DEE7F8B5D0E90043D7
:107C4C0005460F4604EBC306A64205D0394620462E
:107C5C00FFF709FD08B114B9F8BD0834F4E7201D8D
:107C6C00FCF7C1FDD5E9003204F1080103EBC202B7
:107C7C002046FFF77FFF6B68013B6B60ECE7000071
:107C8C002DE9F04105468EB003A80C46FFF75CFACF
:107C9C002E68F31E0D2B3CD8DFE813F00E005300BA
:107CAC003B00D1003B003B003B003B003B009B00FA
:107CBC009B009B009B009B0004A8FFF79FFC049B70
:107CCC00AA891A806968049808310230FFF756FABD
:107CDC0004A906A8FFF70BFE06A904F11800FFF78C
:107CEC0073FF054607A8FCF77EFD20230693B5B964
:107CFC005D4B5E49009332202B4606AA0795FDF793
:107D0C00D5F9049B29461888FDF73EF905A8FCF720
:107D1C006AFD03A8FFF726FA0EB0BDE8F081544ABD
:107D2C00009200235149079306AA0120FDF7BEF9E2
:107D3C00E36A002BEAD004A904F12400FFF759FEF2
:107D4C00E4E7A9892046FFF7C3FB06460028E0D0EC
:107D5C000568D5E906324FF6FF71298003EBC202A4
:107D6C009A4203D053F8080B4180F9E7D5E9037325
:107D7C0007EBC308B84504D0381DFCF734FD0837B1
:107D8C00F8E700232B61D5E9067307EBC308B84568
:107D9C0004D0381DFCF727FD0837F8E70023EB610A
:107DAC00AB72E36B23B1314604F13400FFF721FED3
:107DBC0000232022CDE906232E4A00922B4906AA45
:107DCC000120FDF773F9314604F11800FFF735FF78
:107DDC009FE7A9892046FFF77BFB002899D0E36C2D
:107DEC00002B96D000230D2EADF8163001D0102E9E
:107DFC0017D1002369681A4606258DF815300491B1
:107E0C008DF814200690DDE9040109AB8DF81C6097
:107E1C00089583E80300236D06A904F144009847F4
:107E2C0077E70F2E01BF2B7A696803F00102082552
:107E3C000FBFC3F340031A4619461D46DDE7A98957
:107E4C002046FFF745FB014600283FF462AFE36D87
:107E5C00002B3FF45EAF6B68069306AA236E04F109
:107E6C005400984755E700BF9D910B00428C0B00C6
:107E7C00C3910B00E0910B0038B505460C46FDF79D
:107E8C00E7FFAB68A268AA60A360EB68E268EA60EF
:107E9C00E36038BD70B504468CB00E4601921D46A9
:107EAC00FFF7F6FA2671019904F13C0000F0FBFA99
:107EBC0004F14C06CDB1109B029502A904A80393C2
:107ECC00FFF7DEFC002308A904A80A93FFF7D4FFF0
:107EDC00314608A8FFF7D0FF08A8FDF7F5F904A86C
:107EEC00FDF7F2F920460CB070BD0695EAE70000EC
:107EFC002DE9F04F87B01D46DDE9104380468B46D7
:107F0C009246129903930022682002910492FCF786
:107F1C00BAF8061E06F10C0918D001223746C6E93C
:107F2C0001220299154A47F8202B039B00915A46CF
:107F3C0051464846FFF7AEFF0FCD0FC72B683B608D
:107F4C000FCC06F134050FC523682B6004A94046FD
:107F5C00CDE90496FFF73CFD05A8FCF744FCD8F8E6
:107F6C0000303BB9064A07490A2007B0BDE8F04F7C
:107F7C00FDF78CB807B0BDE8F08F00BF5C920B002A
:107F8C0059500B0010910B008842F8B504460D4671
:107F9C00164614D9904213D2A2F10806751AA1F113
:107FAC0008072C44B74218D01CB131462046FFF7C5
:107FBC0094FC301DFCF717FC083E083CF2E70CD093
:107FCC00B5420AD01CB129462046FFF786FC281D75
:107FDC00FCF709FC08350834F2E7F8BD70B50E1E45
:107FEC00054611DDF000FDF727F9044658B1D5E937
:107FFC00001201EBC202FFF7C7FF2868FDF724F956
:10800C002C60AE60012070BD0024F6E773B5044609
:10801C0045686846FFF761FCD4E90113994210DA10
:10802C002368626803EBC50503EBC202294605F120
:10803C000800FFF7A9FF8DB963680133636001265F
:10804C0006E001312046FFF7C9FF06460028E7D1BC
:10805C0001A8FCF7C8FB304602B070BD6946284643
:10806C00FFF73BFCE8E78842F8B504460D46164698
:10807C0014D9904213D2A2F10806751AA1F108077F
:10808C002C44B74218D01CB131462046FFF717FCE0
:10809C00301DFCF7A8FB083E083CF2E70CD0B542BB
:1080AC000AD01CB129462046FFF709FC281DFCF715
:1080BC009AFB08350834F2E7F8BD70B50E1E05467C
:1080CC0011DDF000FDF7B8F8044658B1D5E90012FF
:1080DC0001EBC202FFF7C7FF2868FDF7B5F82C606B
:1080EC00AE60012070BD0024F6E773B50446456808
:1080FC006846FFF7E4FBD4E90113994210DA2368D0
:10810C00626803EBC50503EBC202294605F10800C2
:10811C00FFF7A9FF8DB9636801336360012606E0A0
:10812C0001312046FFF7C9FF06460028E7D101A818
:10813C00FCF759FB304602B070BD69462846FFF784
:10814C00BEFBE8E72DE9F04F1746A1B080460AA820
:10815C000E46FEF7F9FF3C68237953B93946404681
:10816C00FFF7ADFB0AA8FEF7FDFF404621B0BDE8C6
:10817C00F08F3368D3E9035305EBC303039304F186
:10818C00280A04F1140B039B9D4221D0D5F80090D2
:10819C00584609F11401FFF7F0F8B8B109F12801BC
:1081AC005046FFF7EAF888B12368D9F8002053400D
:1081BC0033F47F430AD12022CDE915235E4A009285
:1081CC0015AA5E493220FCF771FFC7E70835DAE7DC
:1081DC005046FFF7A3F860B95949012215A815AD0F
:1081EC00FFF774F80FCDD446ACE80F002B68CCF831
:1081FC0000303368D3E9005305EBC30B5D45A9464A
:10820C0051466ED055F8080BFFF7B7F80028F5D09B
:10821C0004F1140A5046FFF781F888B9494B4849D4
:10822C001A88013292B21A8015A8012315ADFFF7F6
:10823C006CF80FCDD446ACE80F002B68CCF80030AE
:10824C00414B15932822002116A800F035FB51460E
:10825C0004A8FFF775F804AB18AA0DF1200C1868E8
:10826C005968154603C5083363452A46F7D1186883
:10827C00286023798DF85830D9F800309B8AADF8F6
:10828C007430E36B1793314B0022A11D15A8CDE977
:10829C001E34FCF7ABFE00287FF460AF0123237083
:1082AC00346839460C340DA8FFF709FB20460DA99C
:1082BC00FFF71BFF04460EA8FCF795FA002C7FF481
:1082CC004DAF2023CDE90D34214B00930DAA23464D
:1082DC0077E739464046FFF7F2FA0CA8FCF783FA29
:1082EC0040E70BA8FFF766F9514615A8FFF728F8E9
:1082FC000B9A0023143215A90120FCF74FFE00281D
:10830C00E7D135680BA90DA8FFF7E7FA28460DA9A8
:10831C00FFF77CFE05460EA8FCF765FA002DD8D0B9
:10832C0032685368126803F10053013B0CA802EB4E
:10833C00C309FCF758FA6BE7FF910B00428C0B005A
:10834C00BE920B001CE7032003002C0059770B0096
:10835C002A920B00024800230360FCF7CDBD00BF3E
:10836C0020E7032010B504460068FCF76DFF20469B
:10837C0010BD10B50446006808B1FCF765FF00237A
:10838C00C4E90133236010BD38B504460D460068BE
:10839C000131FCF761FF10B1C4E90005012038BDC3
:1083AC0010B50368044623B143688B4201D3012006
:1083BC0010BD2046FFF7E8FF0028F9D0A368002B7A
:1083CC00F5D122681370F2E737B50D4611460192CC
:1083DC000446FFF7E5FF019A28B92046FFF7C9FFCD
:1083EC00204603B030BDA2602946206800F03CFA5C
:1083FC002268A3680021D154F2E7002313B5C0E929
:10840C00003304468360037341B10846019100F0C8
:10841C00B2FA019902462046FFF7D6FF204602B079
:10842C0010BD38B5054600680C4668B16A688B68A3
:10843C009A4207D3096800F096FAA368AB60002350
:10844C00A36038BDFCF700FF23682B6063686B608A
:10845C00A368AB600023C4E90033F1E710B5002337
:10846C00C0E90033044683600373FFF7DAFF20464C
:10847C0010BD884210B5044605D00B682BB18A6834
:10848C001946FFF7A1FF204610BDFFF772FFFAE770
:10849C0010B500230446C0E9003383600373FFF773
:1084AC00E8FF204610BD13B5044659B108460191AA
:1084BC0000F061FA019902462046FFF785FF20463D
:1084CC0002B010BDFFF755FFF9E70000054B022283
:1084DC001A60054B054A9A600020C3E90000FCF7BE
:1084EC0087BE00BF34E7032028E703200000FFFF0E
:1084FC00002240681146FCF74BBE00224068114632
:10850C00FCF75EBE40680022FCF752BE40680022B9
:10851C0081F00101FCF734BE002340681A4619466D
:10852C00FCF726BE002340681A461946FCF718BE15
:10853C00002240681146FCF70BBE00224068114631
:10854C00FCF7F6BD406800220221FCF7F9BD0023C0
:10855C0040681A46FCF7E4BD024B03225A60024AFB
:10856C001A60704738E70320E8920B007047000050
:10857C0038B5044614252A46002100F09DF92580C3
:10858C004025074925812846258200F031F8044909
:10859C006060284600F02CF8E060204638BD00BF33
:1085AC001C930B0030B50E4D2978BFF35B8F11F087
:1085BC00010487B011D12846FBF77AFD68B101A8F8
:1085CC00FFF7D6FF01AA21460648FCF7B5FF28465F
:1085DC00FBF773FD044800F029F9024807B030BDE1
:1085EC0044E7032048E7032079850B00FBF74BBDDC
:1085FC00FBF74BBD08B5FCF747FE08B5FCF744FE8E
:10860C0008B5FCF741FE0000014900F0F9B800BFC5
:10861C0038930B007FB500241023CDE90234036896
:10862C0015469E6912686B46CDE90044B0479DF82B
:10863C00043003F00603062B03BF009B2B600120C4
:10864C00204604B070BD0098904214BF0120062053
:10865C007047000010B5034B0360044600F0CDF8E2
:10866C00204610BD78930B0010B50446FFF7F2FFBF
:10867C0020460821FBF70DFD204610BD2DE9F041E9
:10868C001F46DDE90834DDF8188098450646154686
:10869C0007D1079900F0B4F818B165710020BDE856
:1086AC00F0813946304600F0ABF80028F6D00123B3
:1086BC00C4F800802571A371F0E738B515461C4647
:1086CC0000F09EF820B10823E36006232560237197
:1086DC0038BD73B505460C4601921E4600F090F865
:1086EC0050B9032E08D82368019A5B6929462046A5
:1086FC0002B0BDE87040184702B070BD10B5034B16
:10870C0003600446FFF7A6FF204610BDD8930B006C
:10871C0010B50446FFF7F2FF20460C21FBF7B9FC1D
:10872C00204610BDF7B5089F974205460E461446E5
:10873C000AD0A86802680897156A31462246AC46EA
:10874C0003B0BDE8F04060471946019300F058F8BB
:10875C00019B0028EDD0062003B0F0BD2DE9F14FB0
:10876C000D461946DDE90A4BDDE90CA68146174694
:10877C00984600F045F890B1002D3460377109DB54
:10878C0061198A450CBF06210121B171002001B08D
:10879C00BDE8F08F0235F9D10123B371F6E75445EA
:1087AC0006D15946484600F02BF808B17771EDE731
:1087BC00D9F808000368CDE90CA6CDE90A4BDC69B1
:1087CC003A4643462946A44601B0BDE8F04F6047FF
:1087DC002DE9F04107460C4615461E46FFF76DFF86
:1087EC0048B9B86803689F692A4633462146BC4697
:1087FC00BDE8F0416047BDE8F0817047002070474C
:10880C00814208B50ED0406803782A2B0CD04968F9
:10881C000B782A2B08BF013100F09BF8B0FA80F0DE
:10882C00400908BD0120FCE70020FAE700230146BF
:10883C001A46184600F068B9024B1844407800F00C
:10884C0097007047A5940B0010B501390244904273
:10885C0001D1002005E0037811F8014FA34201D0AB
:10886C00181B10BD0130F2E70A44914200F1FF33AE
:10887C0000D1704710B511F8014B03F8014F91422C
:10888C00F9D110BD884210B501EB020402D9844223
:10889C00234607D8431EA14208D011F8012B03F838
:1088AC00012FF8E7024401468A4200D110BD13F8AB
:1088BC00014D02F8014DF7E702440346934200D103
:1088CC00704703F8011BF9E738B5104B1D68AB6B0B
:1088DC000446B3B91820FCF7AFFC0246A86320B9D4
:1088EC000B4B0C484221FCF7DFFC0B490B4BC0E94E
:1088FC0000130B4B83600B23838100210120C2E901
:10890C000401AB6B00221C615A6138BD9CE503204D
:10891C0011940B0028940B000E33CDAB34126DE682
:10892C00ECDE0500C9B2034610F8012B1AB18A42DD
:10893C00F9D118467047002918BF0023F9E710B584
:10894C000446FFF7EFFF18B9204600F014F8204456
:10895C0010BD10F8012B11F8013B012A28BF9A42D7
:10896C00F7D0D01A7047034611F8012B03F8012BEE
:10897C00002AF9D17047034613F8012B002AFBD1CA
:10898C00181A0138704710B57AB1034601398418AA
:10899C0013F8010B11F8012F904201D1A34201D120
:1089AC00801A10BD0028F3D1FAE71046F9E710B58C
:1089BC00024601448A42134603D01C780132002C33
:1089CC00F8D1181A10BD38B503460C4669B9BDE884
:1089DC003840FFF7A7BF431C054621461846FFF752
:1089EC00A1FF0028F7D1284638BD0025F5E7000087
:1089FC00012B2DE9F04701D0242B06D9FCF74CFCB8
:108A0C00162303600020BDE8F087DFF8E4C00D46B4
:108A1C002E4615F8014B14F80C7017F00807F7D117
:108A2C002D2C32D12C780127B51C002B5BD0102BB0
:108A3C0009D1302C07D12C7804F0DF04582C4DD1FF
:108A4C006C781023023507F1004808F1FF384FF01D
:108A5C00000CB8FBF3F9664603FB198AA4F1300E3F
:108A6C00BEF1090F16D87446A34224DDBCF1000FE9
:108A7C001EDBB1451CD301D1A24519DB06FB034615
:108A8C004FF0010C15F8014BE8E72B2C04BF2C78A8
:108A9C00B51CCAE7A4F1410EBEF1190F01D8373C41
:108AAC00E2E7A4F1610EBEF1190F04D8573CDBE7E5
:108ABC004FF0FF3CE6E7BCF1000F05DA2223036020
:108ACC00464642B930469EE707B17642002AF9D0B5
:108ADC00BCF1000F00D0691E1160F3E73024002BAD
:108AEC00B1D10823AFE7302CA5D00A23ABE700BFE8
:108AFC00A6940B0013460A46014602480068FFF78D
:108B0C0077BF00BF9CE503202DE9F843DFF8B88060
:108B1C000646D8F800001F460D46914600F056F860
:108B2C00254B1C6834B9254C1C60254B13B11B68B4
:108B3C00C4F8883063681F2B07DDD8F8000000F0FC
:108B4C0047F84FF0FF30BDE8F8834EB3D4F88800F7
:108B5C0088B91C4B23B9D8F8000000F038F8F0E7BE
:108B6C004FF48470FCF768FB0028F4D00023C0E9B4
:108B7C004033C4F88800636840F8239001229A407F
:108B8C0000EB8301D0F800311343C0F80031022E02
:108B9C00C1F8807002BFD0F804311343C0F804311F
:108BAC006368D8F800005A1C0233626044F8235002
:108BBC0000F00EF80020C6E7E8E703205CE703208E
:108BCC000000000045520B0000E603207047704780
:108BDC00704700001D400B0059400B0081400B00FA
:108BEC0085400B000000000043616C6C206F6E2010
:108BFC0070757265207669727475616C0050726F55
:108C0C00766973696F6E2053746174652054726158
:108C1C006E736974696F6E3A202575202D3E202580
:108C2C0075006170700073797374656D2E63747266
:108C3C006C2E626C6500776972696E672E626C656A
:108C4C000000000000000000000000000000000018
:108C5C0000000000A5400B00CD400B000000000000
:108C6C0000000000E5400B0019410B00796B0B0074
:108C7C00CF400B00727800747800426C7565746F8D
:108C8C006F746820416464726573733A20257300B5
:108C9C0063616E6E6F7420637265617465207374AA
:108CAC00643A3A6465717565206C6172676572200F
:108CBC007468616E206D61785F73697A652829002C
:108CCC004164646564206D65737361676520746FBE
:108CDC00207468652071756575653A20257300539D
:108CEC007472696E672052583A202573006B65794F
:108CFC003D25732076616C75653D2573006D73673A
:108D0C005F74797065007363616E00576946692002
:108D1C005363616E20436F6D706C65746500736591
:108D2C00745F637265647300737369640053657474
:108D3C00205769466920535349443A2025730070E3
:108D4C00617373776F726400536574205769466959
:108D5C002050617373776F72643A20257300556EDF
:108D6C007265636F676E697A6564206B65792077CD
:108D7C0068696C652070617273696E67205769460B
:108D8C00692063726564656E7469616C733A202541
:108D9C0073004661696C7572652070617273696EDF
:108DAC006720576946692063726564656E746961F2
:108DBC006C7300576946692063726564656E7469EB
:108DCC00616C7320736574007B226D73675F742212
:108DDC003A227363616E5F72657370222C2022736A
:108DEC00736964223A222573222C20227365632234
:108DFC003A222573222C20226368223A25642C20E7
:108E0C002272737369223A25647D006170702E4260
:108E1C004C455769466953657475704D616E616751
:108E2C00657200556E7365637572656400574550C5
:108E3C000057504100575041320057504120456E69
:108E4C007465727072697365005750413220456EBB
:108E5C00746572707269736500623461643562386E
:108E6C00642D643264622D343464362D39643335A8
:108E7C002D3564343362396535303630630000008B
:108E8C002F8E0B00398E0B003D8E0B00418E0B008C
:108E9C00468E0B00558E0B00323236323835643527
:108EAC002D376135612D343438642D383331372DFD
:108EBC00646165316664326436633336003363361D
:108ECC0037336633612D333832612D343833352DD9
:108EDC00383433332D633163316236623635333493
:108EEC00360000000000000000000000E7520B00FC
:108EFC00F1520B00FB520B0005530B000F530B00F0
:108F0C001B530B0027530B002F530B0037530B0035
:108F1C0043530B004B530B0055530B005F530B008B
:108F2C000000000000000000AB540B00A1540B002B
:108F3C0097540B004D540B008B540B007F540B00BB
:108F4C0027530B002F530B0073540B006B540B0067
:108F5C0061540B0057540B005F530B0000000000D2
:108F6C00000000000000000000000000C9540B00CD
:108F7C0035550B000D550B00916E0B00DD540B009D
:108F8C00F9540B00EB540B0007550B00CB540B00A2
:108F9C00CF540B0025640075253034780000000098
:108FAC000000000000000000CF550B00D5550B0051
:108FBC005B560B00E3550B00D1550B000000000075
:108FCC0000000000635C0B00CB5C0B00A15C0B0091
:108FDC00916E0B00935C0B00655C0B00755C0B00D9
:108FEC00C55C0B00855C0B005D5C0B000000000099
:108FFC00000000007D5D0B006D5D0B006F5D0B00D4
:10900C0025592D256D2D25645425483A254D3A2595
:10901C0053257A0061736374696D650062617564D0
:10902C000053657269616C0053657269616C310043
:10903C004A534F4E53747265616D4C6F6748616E45
:10904C00646C657200253031307520005D20002C79
:10905C00200028293A2000205B00636F6465203DC6
:10906C00200025690064657461696C73203D2000E3
:10907C000D0A006D0066006C6E00666E00636F6416
:10908C00650064657461696C0000000000000000FC
:10909C0000000000F55F0B001B600B00D95F0B009C
:1090AC00EB550B00000000000000000021640B00D9
:1090BC0039640B00796B0B00CF400B0000000000F3
:1090CC00000000004D640B0061640B001D6D0B0073
:1090DC00E15F0B000000000000000000F35F0B00DC
:1090EC0029600B00DD6A0B00E35F0B000000000041
:1090FC0000000000F15F0B0037600B0065630B0094
:10910C0059600B00417373657274696F6E466169C7
:10911C006C7572652066616C736500537461727452
:10912C0020646973636F766572696E67207365720C
:10913C0076696365732E00417373657274696F6E23
:10914C004661696C7572652068616C5F626C655F05
:10915C00737461636B5F696E6974286E756C6C7087
:10916C00747229203D3D2053595354454D5F45524F
:10917C00524F525F4E4F4E450050656572206465EC
:10918C0076696365206973206D697373696E6721F5
:10919C00004661696C656420746F20617070656E47
:1091AC006420706565722043656E7472616C206416
:1091BC0065766963652E00436F6E6E6563746564D6
:1091CC002062792043656E7472616C2064657669E7
:1091DC0063652E00446973636F6E6E6563746564BA
:1091EC002062792072656D6F7465206465766963A1
:1091FC00652E004475706C696361746564206368E6
:10920C006172616374657269737469632063616E02
:10921C006E6F742062652061646465642E00466123
:10922C00696C656420746F20617070656E64206C6D
:10923C006F63616C206368617261637465726973DA
:10924C007469632E000000000000000000000000A4
:10925C00A36F0B0005700B0013710B002F700B002C
:10926C00A56F0B0000000000000000009F6F0B00BA
:10927C0013700B00A16F0B0035700B00C56F0B004A
:10928C0000000000000000009D6F0B0021700B001F
:10929C0065790B003B700B00E56F0B0000000000C4
:1092AC000000FB349B5F8000008000100000000079
:1092BC0000007BE327747BF815ACDD49A913000093
:1092CC0072F5FB349B5F80000080001000000000F2
:1092DC000000000000000000000000005B850B0097
:1092EC0051850B0047850B003D850B0031850B002C
:1092FC0025850B0027530B002F530B0019850B00F2
:10930C0011850B0007850B00FD840B005F530B00D0
:10931C0000537431395F53705F6D616B655F7368B7
:10932C00617265645F7461670000000078930B00E4
:10933C001D930B00D8930B004C930B00FC930B006C
:10934C004E31305F5F637878616269763131375FB7
:10935C005F636C6173735F747970655F696E666F60
:10936C00450000000000000040930B0061860B00DC
:10937C0075860B0009880B0009880B00DF860B0033
:10938C0021860B00C7860B0089860B0053860B00C9
:10939C00D8930B00A8930B0040930B004E31305F19
:1093AC005F637878616269763132305F5F73695FD1
:1093BC00636C6173735F747970655F696E666F451A
:1093CC0000000000000000009C930B0009870B00BC
:1093DC001D870B0009880B0009880B00DF860B002A
:1093EC0021860B00DD870B0069870B0031870B0092
:1093FC0078930B0004940B00537439747970655F87
:10940C00696E666F005245454E54206D616C6C6FF1
:10941C006320737563636565646564002F6D6E749A
:10942C002F776F726B73706163652F776F726B73CD
:10943C00706163652F4743432D31302D7069706522
:10944C006C696E652F6A656E6B696E732D4743434D
:10945C002D31302D706970656C696E652D34385FF7
:10946C0032303230313132345F313630363138309F
:10947C003634312F7372632F6E65776C69622F6E81
:10948C0065776C69622F6C6962632F7374646C69A5
:10949C00622F72616E642E63000020202020202039
:1094AC002020202828282828202020202020202088
:1094BC002020202020202020202088101010101088
:1094CC0010101010101010101010040404040404D8
:1094DC0004040404101010101010104141414141BB
:1094EC004101010101010101010101010101010120
:1094FC0001010101011010101010104242424242B1
:10950C0042020202020202020202020202020202EF
:10951C0002020202021010101020000000000000D5
:10952C00000000000000000000000000000000002F
:10953C00000000000000000000000000000000001F
:10954C00000000000000000000000000000000000F
:10955C0000000000000000000000000000000000FF
:10956C0000000000000000000000000000000000EF
:10957C0000000000000000000000000000000000DF
:10958C0000000000000000000000000000000000CF
:10959C0000000000000000000000000005430B006C
:1095AC00C54D0B0039540B00B5540B00B95F0B00C3
:1095BC00C55F0B00696B0B0061830B00D9840B003A
:0495CC0065850B00A6
:1095D000040000001400000003000000474E550086
:1095E000BB60C0846215FEDD3BC37C40BAC09C9862
:0495F000CBC32C9924
:0495F4000000000073
:1095F80020900B00E8900B0000910B00A0E50320E1
:109608000000000000000000000000000000000052
:109618000000000000000000000000000000000042
:109628000000000000000000000000000000000032
:109638000000000000000000000000000000000022
:109648000000000000000000000000000000000012
:109658000000000000000000000000000000000002
:04966800ECE7032008
:10966C00FFFFFFFF00000102030405060708090ABB
:10967C000B0C0D0E0F101112131415161718191AB6
:08968C001B1C1D1E1F202800FD
:0496940078563412BE
:04000003B000401CED
:00000001FF
