:02000002D0002C
:1040000000400D00D46C0D00000006000C000501FE
:084010000401FD08000000009E
:04401800BC670D0074
:10401C0009480A49884208B505D0094A824202D0AB
:10402C00121A02F0DFFA0748074A0021121A02F0AE
:10403C00E7FA014808BD00BF90E30320F46B0D00C4
:10404C0048E4032048E40320EDE7032070B5074E55
:10405C00074C01F0B1FBA41BA4080025A54200D11C
:10406C0070BD56F8043B98470135F7E7C46B0D005B
:10407C00E86B0D0000F0ACB808B500F0D7F8BDE85F
:10408C00084001F051BB00F049BD00F047BD00F005
:10409C004DBD0078B0FA80F04009704701230370E1
:1040AC0070470EB403B503AB002153F8042B0193F6
:1040BC0001F02FFC02B05DF804EB03B07047000078
:1040CC0030B5204C204985B0204601F03CF91E4902
:1040DC000546204601F037F901F0B2FF1B4B1C4C92
:1040EC00002202F041F902F027FA01F0BBFFCDE902
:1040FC000201284601F0A4FF144B002202F034F90F
:10410C0002F01AFA01F0AEFF124ACDE9000180214B
:10411C00204600F013FD01F037FA802322460E49A9
:10412C00FFF7BFFF22460D4C0D490E4800F0FBFA7D
:10413C002178072001F003FD237883F0010323701D
:10414C0005B030BD803801001098020000408F404F
:10415C004CE40320D0670D00E6670D0090E30320CC
:10416C0008680D00CCE40320F8B5134D134E144F22
:10417C00114800F0B4F90446E0B901F005FA3146F3
:10418C0001F09FFB0F4923463A46284600F08AFA75
:10419C0030B101F0F9F9BDE8F8400B4901F091BBE1
:1041AC0001F0F2F9094901F08CFB40F6B83001F04E
:1041BC003BFBDDE7F8BD00BFCCE4032020680D001D
:1041CC005C680D0071680D0077680D0091680D003A
:1041DC0010B501F0D9F94FF4165101F0C9F90D4C95
:1041EC000121072001F09AFC0B490C4840F25B724C
:1041FC0000F0AAFAFFF7B8FF094B0A4A80212046C3
:10420C0000F09CFC01F0C0F9074980232246FFF71F
:10421C0048FF10BD4CE4032091E30320CCE40320C1
:10422C00A3E30320C7680D00E6670D0010B50A482C
:10423C0000F055F908B9FFF797FF084C00F0A2FB06
:10424C002368C01A41F28833984204D9FFF738FF2B
:10425C0000F098FB206010BDCCE4032048E4032060
:10426C0008B50549084601F045F8BDE80840024983
:10427C00024800F015B800BF8CE50320CCE4032005
:10428C0070B50446054B44F8043B0D1D06460FCD96
:10429C000FC42B682370304670BD00BF646A0D00DC
:1042AC0038B5044698300D4601F0CEF94FF0FF3387
:1042BC00C4F8BC3000232560C4F8B830204638BDA3
:1042CC002DE9F04105460E4600F05CFB43F69728BD
:1042DC000746286803681B699847044630B900F004
:1042EC0051FBC31B4345F4D9204605E028680368FD
:1042FC005B69984730700120BDE8F08138B51588AE
:10430C0029441446FFF7DCFF08B10135258038BD80
:10431C002DE9F743051D884600270DF106022946B5
:10432C000446ADF80670FFF7E9FF18B9002003B09A
:10433C00BDE8F08394F804908DF8057001260DF11A
:10434C0005012046FFF7BCFF0028EFD0BDF8062082
:10435C009DF80510531C22449BB2117101F07F0291
:10436C0012FB06F217440A06ADF80630BFB24FEA4C
:10437C00C616E4D409F0F009013BB9F1300F88F806
:10438C0000301ED10DF1060229462046FFF7B6FF7C
:10439C000028CBD00DF1060229462046FFF7AEFFD0
:1043AC000028C3D098F8003023445A799E79237999
:1043BC0006EB02269B07B6B201D50236B6B2022531
:1043CC0001E000252E46ADB2BD4226D20DF105010D
:1043DC002046FFF775FF0028A8D0D4F8B80078B1B4
:1043EC00B9F1300F0CD1BDF8063098F800209B1AAB
:1043FC00023BB34204DD03689DF805109B689847A7
:10440C00BDF806307F2B9EBFE2189DF80510117188
:10441C000133ADF806300135D5E7D4F8B8302BB9F7
:10442C00BDF80620802A88BFADF80630BDF806001E
:10443C007DE7F7B58C461E461D4607460023AE4663
:10444C0002A805F07F01BEF17F0F03F101040344C4
:10445C0088BF41F08001BEF17F0F4FEAD515E4B261
:10446C0003F8041C10D8C4F10403D11802F803C0DB
:10447C00C4F10503134401A805329A4206D010F882
:10448C00015B03F8015BF8E72346D8E7386803685B
:10449C00721C2244DB689847054600F073FA621CD4
:1044AC00C7F888003244A8B2131A5842584103B0D6
:1044BC00F0BD023370B59BB200240139651C18198C
:1044CC004E5D80B216B116542C46F7E7A3B2C11A52
:1044DC000A441B1202F8023C02F8014C70BD38B5BC
:1044EC000446006808B9002038BD03681B6B984768
:1044FC0080B9D4F8BC50002DF5D120686FF00203C0
:10450C00C4F8BC300368DB69984720680368DB6A31
:10451C009847E8E70120E7E72DE9F04F8BB0044618
:10452C00DDF85080894617461E46FFF7D8FF054632
:10453C00002840F0A980D4F800A0D4F8B010DAF824
:10454C00003000297DD0B4F8B420D3F824B0034651
:10455C005046D847012840F09E80514BA4F8840067
:10456C009A8818689B79ADF814208DF81630049051
:10457C0004AB04F1090204F1100113F8010B02F869
:10458C00010B8A42F9D1B8F1000F66D09DF8583072
:10459C009DF854205B0143EAC20343F00603DBB2EF
:1045AC001FB1002E5BD143F080032374002363748E
:1045BC000F23221DA374494620460192FFF779FF71
:1045CC00019A0346B8F1000F0BD041462046FFF785
:1045DC0070FF019A179903462046FFF76AFF019A6C
:1045EC0003466FB1394620460192FFF762FF019AEC
:1045FC0003462EB131462046FFF75BFF019A034676
:10460C00053B9BB210212046FFF713FF00F0BAF9CF
:10461C00C4E9220043F69726206803681B69984773
:10462C0000BB00F0AFF9D4F88C30C01AB042F3D90B
:10463C006FF00303C4F8BC3020680368DB6A98474A
:10464C0022E004F1980104A8D3F820B0FFF718FE7B
:10465C00B4F8B4202B4604A97AE70223A0E743F070
:10466C00C003A2E70DF10F012046FFF751FE04280D
:10467C00E2D1E67966B900F085F90125C4F88C0021
:10468C0084F89060C4F8BC6028460BB0BDE8F08F8D
:10469C00C4F8BC60D0E76FF00103C4F8BC30F3E79A
:1046AC00CA680D001FB50024CDE90244CDE90044D1
:1046BC00FFF732FF04B010BD2DE9F34104469DF81D
:1046CC002070884616461D46FFF709FF38B3404652
:1046DC0002F000F8EB1D1844802820D8221D052379
:1046EC00414620460192FFF7E4FE019A0023C118CF
:1046FC009D4289B207D9214416F803C081F804C041
:10470C0001339BB2F3E74B1F002F9BB20CBF302140
:10471C003121204602B0BDE8F041FFF78ABE0020EF
:10472C0002B0BDE8F0811FB5044610460391029219
:10473C0001F0D0FF034600200090DDE90221204665
:10474C00FFF7BAFF04B010BDC0F8B010A0F8B42049
:10475C007047000008B5024B1B681B68019308BD2D
:10476C004C02030008B5024B1B685B68019308BD43
:10477C004C02030008B5024B1B681B69019308BD72
:10478C004C02030008B5024B1B685B69019308BD22
:10479C004C02030008B5024B1B689B69019308BDD2
:1047AC004C02030008B5024B1B68DB69019308BD82
:1047BC004C02030008B5024B1B681B6A019308BD31
:1047CC004C02030008B5024B1B681B6A019308BD21
:1047DC002802030008B5024B1B685B6A019308BDF5
:1047EC002802030008B5024B1B689B6A019308BDA5
:1047FC002802030008B5024B1B68DB6A019308BD55
:10480C002802030008B5024B1B681B6B019308BD03
:10481C002802030008B5024B1B685B6B019308BDB3
:10482C002802030008B5024B1B681B6C019308BDE2
:10483C002802030008B5024B1B68DB69019308BD15
:10484C003002030008B5024B1B681B6A019308BDBC
:10485C003002030008B5024B1B689B69019308BD2D
:10486C003802030008B5024B1B68DB69019308BDD5
:10487C003802030008B5024B1B681B6A019308BD84
:10488C003802030008B5024B1B689B6A019308BDF4
:10489C003802030008B5024B1B681B6B019308BD63
:1048AC003802030008B5024B1B689B6B019308BDD3
:1048BC003802030008B5024B1B681B68019308BD46
:1048CC003C02030008B5024B1B68DB68019308BD72
:1048DC003C02030008B5024B1B681B69019308BD21
:1048EC003C02030008B5024B1B685B69019308BDD1
:1048FC003C02030008B5024B1B689B69019308BD81
:10490C003C02030008B5024B1B68DB69019308BD30
:10491C003C02030008B5024B1B681B6A019308BDDF
:10492C003C02030008B5024B1B689B6A019308BD4F
:10493C003C02030008B5024B1B685B69019308BD80
:10494C006402030008B5024B1B681B6A019308BD87
:10495C006402030008B5024B1B689B6A019308BDF7
:10496C006402030008B5024B1B685B6C019308BD25
:10497C004802030008B5024B1B685B68019308BD35
:10498C001802030008B5024B1B685B69019308BD54
:10499C001802030008B5024B1B685B69019308BD44
:1049AC006C02030008B5024B1B689B68019308BDA1
:1049BC002C02030008B5024B1B68DB68019308BD91
:1049CC002C02030008B5024B1B681B69019308BD40
:1049DC002C02030008B5024B1B689B68019308BDB1
:1049EC006802030008B5024B1B68DB68019308BD25
:1049FC006802030008B5024B1B681B6D019308BDD0
:104A0C006002030008B5024B1B68DB6B019308BD09
:104A1C004402030008B5024B1B685B68019308BD98
:104A2C004002030008B5024B1B689B68019308BD4C
:104A3C004002030008B5024B1B68DB68019308BDFC
:104A4C004002030008B5024B1B681B69019308BDAB
:104A5C004002030008B5024B1B685B69019308BD5B
:104A6C004002030008B5024B1B689B69019308BD0B
:104A7C004002030008B5024B1B68DB69019308BDBB
:104A8C004002030008B5024B1B681B6A019308BD6A
:104A9C004002030008B5024B1B681B6B019308BD59
:104AAC004002030008B5024B1B685B6B019308BD09
:104ABC004002030008B5024B1B681B6C019308BD38
:104ACC004002030008B5024B1B685B6C019308BDE8
:104ADC004002030008B5024B1B685B68019308BDDC
:104AEC002002030008B5024B1B685B69019308BDEB
:104AFC002002030008B5034B1B68D3F888300193E0
:104B0C0008BD00002002030008B5034B1B68D3F856
:104B1C009430019308BD00002002030008B5024B3D
:104B2C001B681B68019308BD1C02030008B5024BEF
:104B3C001B685B68019308BD1C02030008B5024B9F
:104B4C001B68DB69019308BD1C02030008B5024B0E
:104B5C001B685B6A019308BD1C02030008B5024B7D
:104B6C001B68DB6B019308BD1C02030008B5024BEC
:104B7C001B685B6C019308BD1C020300002340689A
:104B8C001A46FFF747BF406800220221FFF752BFC9
:104B9C00002240681146FFF745BF002240681146CD
:104BAC00FFF750BF002340681A461946FFF752BF63
:104BBC00002340681A461946FFF754BF406800218D
:104BCC00FFF778BF40680021FFF77CBF40680022E8
:104BDC0081F00101FFF74EBF40680022FFF75ABF7A
:104BEC00002240681146FFF75DBF00224068114665
:104BFC00FFF748BF2DE9F043002495B016460D464B
:104C0C00074600F021FD214618220EA8009401F061
:104C1C00F7FC4023CDE90C3421466B460CAA3046F8
:104C2C00FFF7E0FE0446002846D1024601216868E1
:104C3C00FFF708FF0221804622466868FFF702FF53
:104C4C00009E81462146002E36D0002934D173684F
:104C5C00022B03D00A2B0BD0F669F4E7B8F1000F46
:104C6C0004D071693846043100F031FD4146F3E758
:104C7C00B9F1000F01D14946EEE77469102201A881
:104C8C0001F0BEFC06238DF8143001AD04F10803CD
:104C9C001834186859682A4603C20833A3421546CB
:104CAC00F7D101A906A807AD00F0DCFC0FCD3C1D27
:104CBC000FC42B682370DEE70098FFF78BFE384695
:104CCC0015B0BDE8F0830000024B034A1A600022C5
:104CDC005A607047A8E50320DC680D00002240688C
:104CEC001146FFF7AFBE002240681146FFF7CABE5F
:104CFC00002240681146FFF7D5BE40680022FFF73E
:104D0C00C9BE4068002281F00101FFF7B3BE002349
:104D1C0040681A461946FFF7A5BE002340681A469C
:104D2C001946FFF797BE002240681146FFF77ABE7E
:104D3C00406800220221FFF77DBE002340681A461E
:104D4C00FFF768BE024B04225A60024A1A60704791
:104D5C00B0E5032018690D0013B503688DF8071032
:104D6C00DC6B01224FF0FF330DF10701A04702B0BD
:104D7C0010BD10B40368DC6B4FF0FF33A4465DF834
:104D8C00044B604713B5134602688DF80710D46BBB
:104D9C000DF107010122A04702B010BD704738B5D4
:104DAC0043691A68002A054610DAB3F88620B3F86E
:104DBC0084309A420AD103681B699847044628B983
:104DCC002B682846DB6A9847204638BD0120FCE753
:104DDC0043691868C043C00F70477047064B99422F
:104DEC0010B500F10C0405D0084600F0C5FE0028F3
:104DFC0008BF0024204610BD80690D0010B5AC2101
:104E0C00044600F0B5FE204610BDFFF740B92DE971
:104E1C00F0414FF0000886B01D46C0F804800446EF
:104E2C000E4617464146102202A801F0E9FB6B1C06
:104E3C0009D04FF47A70B5FBF0F3CDE9023800FBE2
:104E4C00135358430490606910230093006802AB1D
:104E5C0041F2050240F6FF71FFF7FCFC002807DA6F
:104E6C00FFF77CFE03686360002006B0BDE8F081AC
:104E7C006069002300683A463146FFF70BFD031EBC
:104E8C00EEDB1846F1E7000038B584690A4B036085
:104E9C0005467CB16368013B63605BB923682046BF
:104EAC009B689847A368013BA3601BB92368204605
:104EBC00DB689847284638BD90690D0010B504464C
:104ECC00FFF7E2FF20461C2100F052FE204610BDE9
:104EDC0070B54D69054B04468C3544F8043B0646C9
:104EEC000FCD0FC42B682370304670BD646A0D0063
:104EFC0010B54369B3F88620B3F884309A4204465F
:104F0C0005D06369B3F884201344187910BD036885
:104F1C001B6998470028F4D14FF0FF30F6E710B525
:104F2C004369B3F88620B3F884309A42044608D01B
:104F3C006369B3F88420511CA3F8841013441879C6
:104F4C0010BD03681B6998470028F1D14FF0FF3062
:104F5C00F6E7F8B543691746B3F88620B3F8843002
:104F6C009A4205460E4616D06969B1F88430B1F8FC
:104F7C008640E41ABC4228BF3C46043322461944FE
:104F8C00304601F02FFB6A69B2F884302344A2F852
:104F9C0084302046F8BD03681B6998470028E3D18C
:104FAC004FF0FF34F5E700002DE9F0439846036815
:104FBC0093B00D460024DB6A0646174698472846F0
:104FCC006B46224621460094FFF70CFD054600284F
:104FDC0063D1009B002B4BD05B69002B48D006A8FB
:104FEC0000F032FB009B5C696378022B04D1211D1D
:104FFC0006A800F06CFB26E00A2B24D111222946CE
:10500C0001A801F0FDFAA368002B38D004F10803C5
:10501C000DF1040C183418685968624603C2083341
:10502C00A3429446F7D1062301A90CA88DF814309D
:10503C0000F018FB0DF1340CBCE80F0007AC0FC4EA
:10504C00DCF80030237006A800F01EFB80B133683A
:10505C0007ADD3F82090124B0C930FCD0DAC0FC4B1
:10506C002B6823703A4643460CA93046C847054680
:10507C000098FFF7AFFC284613B0BDE8F083E36857
:10508C00002BC3D14FF6FF70D4F81090FFF75AFCE9
:10509C008145BBD104F11401AAE72546E8E700BF1E
:1050AC00646A0D0042690023A2F884304269A2F8B8
:1050BC00863070472DE9F0411F4603680C46DB6AC9
:1050CC008AB0054616469847237DD5F81480042BE4
:1050DC000CBF02200A2006220121FFF7E3FBC8F8CF
:1050EC0000006B691B68002B08DA2B682846DB6A0A
:1050FC000024984720460AB0BDE8F0812846FFF707
:10510C00D1FFB7B1002303A9F8B20393ADF8103067
:10511C00FFF740FC0028E8D168690623009300687B
:10512C0003AB41F20B0240F6FF71FFF793FB002833
:10513C00DBD11C22002103A801F062FA237D042B91
:10514C001DD14FF407733046ADF80C30FFF702FC5D
:10515C00ADF80E006068FFF7F5FB04906B691C223C
:10516C00186803A9FFF786FB0028BED104340FCCC6
:10517C006D698C350FC523682B700124BAE740F696
:10518C001C233046ADF80C30FFF7E4FB05AEADF850
:10519C000E00231D04F1140718685968324603C227
:1051AC000833BB421646F7D1D8E7000030B5426948
:1051BC00B2F886308BB004462BB1B2F884209A42F8
:1051CC0001D1FFF76FFF61690868002818DBB1F89F
:1051DC0086507F2D14D804310823C5F18002294450
:1051EC00FFF750FB002813DD6369B3F886200AB97A
:1051FC00A3F884206369B3F886201044A3F88600D2
:10520C006369B3F88600B3F88430C01A0BB030BDB4
:10521C00FFF7A4FC03680B2BF2D0FFF79FFC03688D
:10522C000B2BEDD020230025CDE90235FFF796FCA2
:10523C0003680193084B0949009302AA2B463220BC
:10524C00FFF7D8FB63691868FFF70CFB63694FF035
:10525C00FF321A60D4E700BF53690D004C690D0092
:10526C0010B5436904461868002801DBFFF7FAFA09
:10527C0063694FF0FF321A606069112200218C3093
:10528C0001F0BEF92046BDE81040FFF70BBF10B58A
:10529C00002304460160C0F88430883000F0D4F953
:1052AC00204610BD73B500234FF47A72C0E9013269
:1052BC000E4A0361026043610446AC200191FEF783
:1052CC00E2FE051E05F10C0608D00123C5E90133E9
:1052DC00074B01992B603046FFF7D9FF2046C4E9F4
:1052EC000565FFF7DFFE02B070BD00BF90690D00D1
:1052FC006C690D0010B54FF0FF310446FFF7D2FF7B
:10530C00204610BD10B504460068002801DBFFF7ED
:10531C00A9FA204610BD0C30FFF7F4BF10B50446B7
:10532C0008462170FFF786FA00236360204610BD03
:10533C0010B5044628B101F08FF990FBF4F303FB90
:10534C001404204610BD884210B5044603DA081A2E
:10535C00FFF7EEFF0444204610BD7047F8B5064633
:10536C0015460C468F18BC4206D0336814F8011B46
:10537C009B6830469847F6E72846F8BD007C00222B
:10538C00FFF720BA007C0021FFF724BA007C002133
:10539C00FFF728BA007C0021FFF72CBA007C002113
:1053AC00FFF730BA10B51421044600F0E1FB20469B
:1053BC0010BD000010B54FF47A7304460846002166
:1053CC00C4E90113034B236020741146FFF72AFA3A
:1053DC00204610BDDC690D00704741747047704762
:1053EC0008B5007CFFF79EFA20EAE07008BD08B50E
:1053FC00007CFFF76FFA20EAE07008BD08B5007C6E
:10540C00FFF778FA40EAE07008BD08B5007CFFF7BA
:10541C0069FA40EAE07008BD007CFFF773BA37B553
:10542C00457C04462DB1207C03B0BDE83040FFF72D
:10543C0049BA007C0191FFF775FA00280199F2DC5A
:10544C00284603B030BD10B51421044600F090FB83
:10545C00204610BD10B54FF0000C0446084611460E
:10546C004FF47A72C4E901C2044A2260012220740A
:10547C0062741A46FFF71EFA204610BD046A0D002E
:10548C0013B50D4C2178BFF35B8F11F0010110D1D6
:10549C0020460191FEF7FDFD019950B1074B084ADA
:1054AC000848FFF7D7FF2046FEF7F8FD064801F045
:1054BC0093F8044802B010BDB8E5032040E6032081
:1054CC00BCE50320C4E60320EB530D004174704788
:1054DC007047704708B50021007CFFF75BF940EA84
:1054EC00E07008BD08B50121007CFFF753F940EAD4
:1054FC00E07008BD08B5007CFFF744F920EAE070C5
:10550C0008BD08B5007CFFF735F920EAE07008BD4E
:10551C0013B50446007C0191FFF734F9002801997A
:10552C0001DC607C20B1207CFFF73CF920EAE070C4
:10553C0002B010BD007CFFF73DB910B51421044634
:10554C0000F016FB204610BD10B54FF47A730446DC
:10555C0008460021C4E90113044B23600123207485
:10556C0063741146FFF7F6F8204610BD346A0D003F
:10557C00007C0022FFF7F6B810B514220446002177
:10558C0001F03EF8204610BD10B50F4C88B003A8B2
:10559C00FFF7F2FF2178BFF35B8F11F001010FD100
:1055AC0020460191FEF775FD019948B103AA074801
:1055BC00FFF7CAFF2046FEF771FD054801F00CF815
:1055CC00024808B010BD00BFD8E60320DCE603207B
:1055DC00DD540D00704710B51821044600F0C8FAD0
:1055EC00204610BDF0B5037D062B8DB00E4600F1A4
:1055FC0004074FF0000412D000F1080515F8011D46
:10560C000A22304600F067F9AF42044419D0002C4E
:10561C00F4D02E21304600F045F90444EEE72F2358
:10562C006A4639460A208DF80040FFF783F9684630
:10563C0001F050F833680246DB68694630469847FB
:10564C00044620460DB0F0BD10B5054B04461122A2
:10565C0040F8043B002100F0D3FF204610BD00BFF2
:10566C00646A0D000346074A10B543F8042B01F198
:10567C00100251F8044B43F8044B9142F9D10A78CB
:10568C001A7010BD646A0D00037D042B04D14068B0
:10569C00003818BF01207047062B07D143683BB96F
:1056AC0083682BB9C3681BB90069F1E70020704708
:1056BC000120704710B59DF8084044EA032343EAE3
:1056CC00024242EA016104234160037510BD13B527
:1056DC00CB7800938B784A780978FFF7EBFF02B010
:1056EC0010BD0000014B1860704700BFE0E30320C1
:1056FC0008B50B4B43B1FFF747FF03681B6998478D
:10570C00002801DDAFF30080064B43B1FFF7B8FE74
:10571C0003681B699847002801DDAFF3008008BDC2
:10572C00000000000000000008B5FFF7E1FFFFF7E4
:10573C0029F9014B186008BD44E703200548064AC7
:10574C00064908B5121A00F04DFF054B054A1A60C0
:10575C0008BD00BF00F4032004F40320F06B0D001F
:10576C0000F403201E1C279A07B5002300931A4649
:10577C006FF07701FFF7C8F903B05DF804FB000088
:10578C0007B543880A2B08D0502B0BD1094B1B684B
:10579C004BB103B05DF804EB1847FFF7E5FF03B01E
:1057AC005DF804FB002300931A466FF07701FFF7B6
:1057BC00ABF9F4E7F4E6032010B512480021FFF72B
:1057CC00D5F9114B1A68114B9A42114B0CBF01229F
:1057DC0000221A7001D0FFF7B1FFFFF7CBF8044697
:1057EC0000F016FF0B4B13B12046AFF300800021E5
:1057FC000848FFF707F9BDE8104007480021FFF7FC
:10580C0079B900BFF1560D0000F403201E1C279A35
:10581C00F0E60320000000008D570D00014B002224
:10582C009A607047F8E603200021FFF75BB900008F
:10583C00024B1A68024B1A60704700BFDCE303206E
:10584C0008E70320014B024A1A6070470CE703205B
:10585C008C6A0D00F8B506460D468F180024BD4223
:10586C000CD0336815F8011B9B6830469847031E13
:10587C0001DB1C44F3E7002C08BF1C462046F8BD96
:10588C0013B50446084659B1019100F023FF236873
:10589C000199DB680246204602B0BDE8104018476B
:1058AC0002B010BD03689B68184738B50D2105463A
:1058BC00FFF7F8FF0A2104462846FFF7F3FF2044C0
:1058CC0038BD38B50546FFF7DBFF04462846FFF721
:1058DC00ECFF204438BD30B58BB000238DF824305C
:1058EC00012A98BF0A2209AC0D46B1FBF2F101FB6B
:1058FC00125303F0FF03092B94BF30333733DBB261
:10590C00AA4204F8013DEFD92146FFF7B9FF0BB0CD
:10591C0030BD2DE9F04186B000AF05460E46381D6E
:10592C00142114463B60FFF711F913280ED8391DCA
:10593C002846FFF7A5FF04461EB12846FFF7B5FF22
:10594C00044420461837BD46BDE8F08100F1080339
:10595C0023F00703E846ADEB030D2246411C3B68E0
:10596C006846FFF7F3F869462846FFF789FF0446B7
:10597C00C546E1E7024800230360FEF7F3BF00BF12
:10598C0010E70320054B02221A60054B054A9A606A
:10599C000020186098809871FFF79CB820E70320CE
:1059AC0014E703200000FFFF002240681146FFF7B8
:1059BC0069B8002240681146FFF774B840680022AD
:1059CC00FFF768B84068002281F00101FFF752B878
:1059DC00002340681A461946FFF744B80023406874
:1059EC001A461946FFF736B8002240681146FFF7F1
:1059FC0029B8002240681146FFF714B8406800220D
:105A0C000221FFF717B8002340681A46FFF702B8C7
:105A1C00024B03225A60024A1A60704724E70320A3
:105A2C00986A0D007047000038B50023202543808C
:105A3C00142304460380856005610649284600F05E
:105A4C0099F804496060284600F094F8E06020461C
:105A5C0038BD00BFCC6A0D0030B50E4D2978BFF3B0
:105A6C005B8F11F0010487B011D12846FEF711FBB2
:105A7C0068B101A8FFF7D8FF01AA21460648FFF735
:105A8C0099FC2846FEF70AFB044800F0A5FD0248E5
:105A9C0007B030BD2CE7032030E70320315A0D004E
:105AAC00232813B502D9002002B010BDA0F10B03BE
:105ABC00022B1AD8174C2178BFF35B8F11F0010120
:105ACC000BD120460191FEF7E4FA019928B1124856
:105ADC00FFF724FC2046FEF7E1FA0F4B1878FEF78F
:105AEC00B1FE0028DFD10120DEE7012809D8FFF73D
:105AFC00B3FF0021007CFEF78DFE80F00100C0B2E8
:105B0C00D2E709380128EED8FFF7BAFC007CFEF783
:105B1C0001FFF2E748E703204CE70320232838B5C0
:105B2C0004460D460AD8FF2908D0FFF7B9FF28B163
:105B3C0029462046BDE83840FEF734BF38BD38B59D
:105B4C0004460D46FEF736FFFF2810D0062804D871
:105B5C004D2323FA00F0C30709D42046FFF7A0FF1A
:105B6C0028B129462046BDE83840FEF72BBF38BD8A
:105B7C00FEF78DBAFEF789BA014900F0F9B800BFFB
:105B8C00E86A0D007FB500241023CDE902340368C8
:105B9C0000949E698DF8044015466B461268B04718
:105BAC009DF8043003F00603062B03BF009B2B600B
:105BBC000120204604B070BD0098904214BF012013
:105BCC000620704710B5034B0360044600F0CDF877
:105BDC00204610BD286B0D0010B50446FFF7F2FFF0
:105BEC0020460821FFF7C4FF204610BD2DE9F041E7
:105BFC001F46DDE90834DDF8188098450646154641
:105C0C0007D1079900F0B4F818B165710020BDE810
:105C1C00F0813946304600F0ABF80028F6D001236D
:105C2C00C4F800802571A371F0E738B515461C4601
:105C3C0000F09EF820B10823E36006232560237151
:105C4C0038BD73B505460C4601921E4600F090F81F
:105C5C0050B9032E08D82368019A5B69294620465F
:105C6C0002B0BDE87040184702B070BD10B5034BD0
:105C7C0003600446FFF7A6FF204610BD886B0D009D
:105C8C0010B50446FFF7F2FF20460C21FFF770FF1A
:105C9C00204610BDF7B5089F974205460E461446A0
:105CAC000AD0A86802680897156A31462246AC46A5
:105CBC0003B0BDE8F04060471946019300F058F876
:105CCC00019B0028EDD0062003B0F0BD2DE9F14F6B
:105CDC000D461946DDE90A4BDDE90CA6814617464F
:105CEC00984600F045F890B1002D3460377109DB0F
:105CFC0061198A450CBF06210121B171002001B048
:105D0C00BDE8F08F0235F9D10123B371F6E75445A4
:105D1C0006D15946484600F02BF808B17771EDE7EB
:105D2C00D9F808000368CDE90CA6CDE90A4BDC696B
:105D3C003A4643462946A44601B0BDE8F04F6047B9
:105D4C002DE9F04107460C4615461E46FFF76DFF40
:105D5C0048B9B86803689F692A4633462146BC4651
:105D6C00BDE8F0416047BDE8F08170470020704706
:105D7C00814208B50ED0406803782A2B0CD04968B4
:105D8C000B782A2B08BF013100F09AFCB0FA80F096
:105D9C00400908BD0120FCE70020FAE781F0004132
:105DAC0002E000BF83F0004330B54FEA41044FEAF4
:105DBC00430594EA050F08BF90EA020F1FBF54EA8F
:105DCC00000C55EA020C7FEA645C7FEA655C00F02B
:105DDC00E2804FEA5454D4EB5555B8BF6D420CDDFC
:105DEC002C4480EA020281EA030382EA000083EA7F
:105DFC00010180EA020281EA0303362D88BF30BD1F
:105E0C0011F0004F4FEA01314FF4801C4CEA113174
:105E1C0002D0404261EB410113F0004F4FEA0333D3
:105E2C004CEA133302D0524263EB430394EA050F5E
:105E3C0000F0A780A4F10104D5F1200E0DDB02FACD
:105E4C000EFC22FA05F2801841F1000103FA0EF261
:105E5C00801843FA05F359410EE0A5F120050EF127
:105E6C00200E012A03FA0EFC28BF4CF0020C43FA58
:105E7C0005F3C01851EBE37101F0004507D54FF065
:105E8C00000EDCF1000C7EEB00006EEB0101B1F5B5
:105E9C00801F1BD3B1F5001F0CD349085FEA3000FB
:105EAC004FEA3C0C04F101044FEA445212F5800F06
:105EBC0080F09A80BCF1004F08BF5FEA500C50F1A3
:105ECC00000041EB045141EA050130BD5FEA4C0C86
:105EDC00404141EB0101013C28BFB1F5801FE9D2E3
:105EEC0091F0000F04BF01460020B1FA81F308BF06
:105EFC002033A3F10B03B3F120020CDA0C3208DDD2
:105F0C0002F1140CC2F10C0201FA0CF021FA02F1AC
:105F1C000CE002F11402D8BFC2F1200C01FA02F11C
:105F2C0020FA0CFCDCBF41EA0C019040E41AA2BF41
:105F3C0001EB0451294330BD6FEA04041F3C1CDA09
:105F4C000C340EDC04F11404C4F1200220FA04F029
:105F5C0001FA02F340EA030021FA04F345EA0301D3
:105F6C0030BDC4F10C04C4F1200220FA02F001FA95
:105F7C0004F340EA0300294630BD21FA04F0294617
:105F8C0030BD94F0000F83F4801306BF81F48011B0
:105F9C000134013D4EE77FEA645C18BF7FEA655C23
:105FAC0029D094EA050F08BF90EA020F05D054EAF5
:105FBC00000C04BF1946104630BD91EA030F1EBFFA
:105FCC000021002030BD5FEA545C05D140004941FE
:105FDC0028BF41F0004130BD14F580043CBF01F5F1
:105FEC00801130BD01F0004545F0FE4141F47001D7
:105FFC004FF0000030BD7FEA645C1ABF19461046B2
:10600C007FEA655C1CBF0B46024650EA013406BFB2
:10601C0052EA033591EA030F41F4002130BD00BF71
:10602C0090F0000F04BF0021704730B54FF480642E
:10603C0004F132044FF000054FF0000150E700BFAF
:10604C0090F0000F04BF0021704730B54FF480640E
:10605C0004F1320410F0004548BF40424FF00001FB
:10606C003EE700BF42004FEAE2014FEA31014FEA3E
:10607C0002701FBF12F07F4393F07F4F81F060518D
:10608C00704732F07F4208BF704793F07F4F04BFD8
:10609C0041F40021704730B54FF4607401F00045B5
:1060AC0021F000411CE700BF50EA010208BF704715
:1060BC0030B54FF000050AE050EA010208BF704706
:1060CC0030B511F0004502D5404261EB41014FF46F
:1060DC00806404F132045FEA915C3FF4D8AE4FF077
:1060EC0003025FEADC0C18BF03325FEADC0C18BF5A
:1060FC00033202EBDC02C2F1200300FA03FC20FAAB
:10610C0002F001FA03FE40EA0E0021FA02F11444F7
:10611C00BDE600BF70B54FF0FF0C4CF4E06C1CEA10
:10612C0011541DBF1CEA135594EA0C0F95EA0C0F81
:10613C0000F0DEF82C4481EA030621EA4C5123EAF4
:10614C004C5350EA013518BF52EA033541F4801123
:10615C0043F4801338D0A0FB02CE4FF00005E1FBD6
:10616C0002E506F00042E0FB03E54FF00006E1FB20
:10617C0003569CF0000F18BF4EF0010EA4F1FF0463
:10618C00B6F5007F64F5407404D25FEA4E0E6D41A3
:10619C0046EB060642EAC62141EA55514FEAC520B4
:1061AC0040EA5E504FEACE2EB4F1FD0C88BFBCF530
:1061BC00E06F1ED8BEF1004F08BF5FEA500E50F1E1
:1061CC00000041EB045170BD06F0004646EA0101A7
:1061DC0040EA020081EA0301B4EB5C04C2BFD4EBD9
:1061EC000C0541EA045170BD41F480114FF0000ED2
:1061FC00013C00F3AB8014F1360FDEBF002001F040
:10620C00004170BDC4F10004203C35DA0C341BDCB9
:10621C0004F11404C4F1200500FA05F320FA04F08B
:10622C0001FA05F240EA020001F0004221F00041BF
:10623C0010EBD37021FA04F642EB06015EEA430E32
:10624C0008BF20EAD37070BDC4F10C04C4F1200562
:10625C0000FA04F320FA05F001FA04F240EA020015
:10626C0001F0004110EBD37041F100015EEA430EE6
:10627C0008BF20EAD37070BDC4F1200500FA05F206
:10628C004EEA020E20FA04F301FA05F243EA020385
:10629C0021FA04F001F0004121FA04F220EA020094
:1062AC0000EBD3705EEA430E08BF20EAD37070BDDA
:1062BC0094F0000F0FD101F00046400041EB0101BA
:1062CC0011F4801F08BF013CF7D041EA060195F09C
:1062DC00000F18BF704703F00046520043EB030356
:1062EC0013F4801F08BF013DF7D043EA0603704743
:1062FC0094EA0C0F0CEA135518BF95EA0C0F0CD04E
:10630C0050EA410618BF52EA4306D1D181EA030193
:10631C0001F000414FF0000070BD50EA410606BF8D
:10632C001046194652EA430619D094EA0C0F02D1D2
:10633C0050EA013613D195EA0C0F05D152EA033617
:10634C001CBF104619460AD181EA030101F0004135
:10635C0041F0FE4141F470014FF0000070BD41F07E
:10636C00FE4141F4780170BD70B54FF0FF0C4CF458
:10637C00E06C1CEA11541DBF1CEA135594EA0C0F77
:10638C0095EA0C0F00F0A7F8A4EB050481EA030EC4
:10639C0052EA03354FEA013100F088804FEA0333AB
:1063AC004FF0805545EA131343EA12634FEA022279
:1063BC0045EA111545EA10654FEA00260EF000413A
:1063CC009D4208BF964244F1FD0404F5407402D28C
:1063DC005B084FEA3202B61A65EB03055B084FEA1D
:1063EC0032024FF480104FF4002CB6EB020E75EB1A
:1063FC00030E22BFB61A754640EA0C005B084FEA42
:10640C003202B6EB020E75EB030E22BFB61A7546BE
:10641C0040EA5C005B084FEA3202B6EB020E75EB09
:10642C00030E22BFB61A754640EA9C005B084FEA81
:10643C003202B6EB020E75EB030E22BFB61A75468E
:10644C0040EADC0055EA060E18D04FEA051545EA7D
:10645C0016754FEA06164FEAC30343EA52734FEA26
:10646C00C2025FEA1C1CC0D111F4801F0BD141EA9F
:10647C0000014FF000004FF0004CB6E711F4801F04
:10648C0004BF01430020B4F1FD0C88BFBCF5E06FE4
:10649C003FF6AFAEB5EB030C04BFB6EB020C5FEAF4
:1064AC00500C50F1000041EB045170BD0EF0004E49
:1064BC004EEA113114EB5C04C2BFD4EB0C0541EA7B
:1064CC00045170BD41F480114FF0000E013C90E678
:1064DC0045EA060E8DE60CEA135594EA0C0F08BF3C
:1064EC0095EA0C0F3FF43BAF94EA0C0F0AD150EA3B
:1064FC0001347FF434AF95EA0C0F7FF425AF1046CE
:10650C0019462CE795EA0C0F06D152EA03353FF4F5
:10651C00FDAE1046194622E750EA410618BF52EA72
:10652C0043067FF4C5AE50EA41047FF40DAF52EA46
:10653C0043057FF4EBAE12E74FEA4102B2F1E043C0
:10654C0024BFB3F5001CDCF1FE5C0DD901F0004C4E
:10655C004FEAC0024CEA5070B2F1004F40EB83009E
:10656C0008BF20F00100704711F0804F21D113F1CA
:10657C003872BCBF01F00040704741F480114FEA03
:10658C005252C2F11802C2F1200C10FA0CF320FA8C
:10659C0002F018BF40F001004FEAC1234FEAD323A9
:1065AC0003FA0CFC40EA0C0023FA02F34FEA430313
:1065BC00CCE77FEA625307D150EA01331EBF4FF09C
:1065CC00FE4040F44000704701F0004040F0FE40B7
:1065DC0040F40000704700BF002301461A461846DD
:1065EC0000F080B80A44914200F1FF3300D17047AB
:1065FC0010B511F8014B03F8014F9142F9D110BDC0
:10660C0002440346934200D1704703F8011BF9E79B
:10661C0038B50D4B1D68AB6B04467BB91820FEF7E3
:10662C007DFA0A4A0A4BA863C0E90023094B836030
:10663C000B23838101220023C0E90423AB6B0022CE
:10664C001C615A6138BD00BFE0E303200E33CDABB3
:10665C0034126DE6ECDE0500134B10B51C68A36B11
:10666C007BB91820FEF75AFA104A114BA063C0E907
:10667C000023104B83600B23838101220023C0E98C
:10668C000423A16B0C480A694B690C4C504304FB66
:10669C000300A2FB04345A1C044444F10000C1E979
:1066AC00042020F0004010BDE0E303200E33CDABFE
:1066BC0034126DE6ECDE05002DF451582D7F954C0F
:1066CC0010F8012B11F8013B012A28BF9A42F7D090
:1066DC00D01A7047034613F8012B002AFBD1181A65
:1066EC00013870472DE9F843DFF8B8800646D8F832
:1066FC0000001F460D46914600F056F8254B1C68CD
:10670C0034B9254C1C60254B13B11B68C4F8883078
:10671C0063681F2B07DDD8F8000000F047F84FF036
:10672C00FF30BDE8F8834EB3D4F8880088B91C4B11
:10673C0023B9D8F8000000F038F8F0E74FF4847073
:10674C00FEF7ECF90028F4D00023C0E94033C4F87C
:10675C008800636840F8239001229A4000EB830183
:10676C00D0F800311343022EC0F80031C1F880700C
:10677C0002BFD0F804311A43C0F804216368D8F87A
:10678C0000005A1C0233626044F8235000F00EF8EB
:10679C000020C6E7E0E7032054E7032000000000D8
:1067AC00294B0D0044E403207047704770470000EC
:1067BC001D400D0059400D0081400D0085400D001D
:1067CC00000000007B227431223A252E32662C22E6
:1067DC007432223A252E32667D006D7174744275C6
:1067EC00663A2025730A73697A654F66286D717451
:1067FC0074427566293A2025692F6E0076312F6414
:10680C006576696365732F6D652F74656C656D6551
:10681C0074727900706C756D65436F6E6E65637420
:10682C0028293A20417474656D7074696E67207400
:10683C006F20636F6E6E65637420746F205468698B
:10684C006E6773626F617264207365727665720035
:10685C00796D565A6B71636C556A50366279335642
:10686C00705A6543004172676F6E00706C756D6590
:10687C00436F6E6E65637428293A20436F6E6E65A4
:10688C006374656400706C756D65436F6E6E6563E3
:10689C007428293A20436F6E6E656374696F6E209D
:1068AC006661696C65642C20726574727920696EFE
:1068BC002033207365636F6E6473002573000004CE
:1068CC004D51545404000000000000000000000072
:1068DC00894B0D00934B0D009D4B0D00A74B0D00EC
:1068EC00B14B0D00BD4B0D00C94B0D00D14B0D0034
:1068FC00D94B0D00E54B0D00ED4B0D00F74B0D008A
:10690C00014C0D000000000000000000474D0D0080
:10691C003D4D0D00334D0D00E94C0D00274D0D0084
:10692C001B4D0D00C94B0D00D14B0D000F4D0D0033
:10693C00074D0D00FD4C0D00F34C0D00014C0D00EE
:10694C00776972696E670072656376206572726F23
:10695C0072203D20256400000000000000000000B3
:10696C00E74D0D00094E0D0023530D00174E0D0081
:10697C00E94D0D00000000000000000000000000C8
:10698C0000000000954E0D00C94E0D00654D0D0028
:10699C007F4D0D00B9510D002B4F0D00FD4E0D001C
:1069AC00A94D0D00C1500D00B54F0D005F4F0D00EE
:1069BC006D520D00AB4D0D00DD4D0D00914D0D00D8
:1069CC001B4E0D00DD4E0D0000000000000000000D
:1069DC0067530D00B1530D0089530D0069530D0021
:1069EC0091530D0099530D00A1530D00A9530D00A7
:1069FC000000000000000000E5530D0053540D0092
:106A0C002B540D0061580D00FB530D0017540D0055
:106A1C0009540D0025540D00E7530D00ED530D00E6
:106A2C000000000000000000DF540D0047550D0071
:106A3C001D550D0061580D000F550D00E1540D0052
:106A4C00F1540D0041550D0001550D00D9540D00A8
:106A5C000000000000000000F1550D00E1550D0094
:106A6C00E3550D0025592D256D2D25645425483AE7
:106A7C00254D3A2553257A0061736374696D650061
:106A8C00617070000000000000000000135A0D003F
:106A9C00095A0D00FF590D00F5590D00E9590D006B
:106AAC00DD590D00C94B0D00D14B0D00D1590D0016
:106ABC00C9590D00BF590D00B5590D00014C0D0001
:106ACC0000537431395F53705F6D616B655F736830
:106ADC00617265645F74616700000000286B0D00D3
:106AEC00CD6A0D00886B0D00FC6A0D00AC6B0D00BF
:106AFC004E31305F5F637878616269763131375F30
:106B0C005F636C6173735F747970655F696E666FD8
:106B1C004500000000000000F06A0D00D15B0D0084
:106B2C00E55B0D00795D0D00795D0D004F5C0D008E
:106B3C00915B0D00375C0D00F95B0D00C55B0D0022
:106B4C00886B0D00586B0D00F06A0D004E31305FF4
:106B5C005F637878616269763132305F5F73695F49
:106B6C00636C6173735F747970655F696E666F4592
:106B7C0000000000000000004C6B0D00795C0D0063
:106B8C008D5C0D00795D0D00795D0D004F5C0D0085
:106B9C00915B0D004D5D0D00D95C0D00A15C0D00ED
:106BAC00286B0D00B46B0D00537439747970655FEC
:106BBC00696E666F000000006D420D00D54C0D0033
:106BCC00514D0D0029580D003D580D0051580D0028
:106BDC0081590D0091590D001D5A0D000000000047
:046BEC0000000000A5
:046BF00000000000A1
:106BF400017468696E6773626F6172642E636C6F8F
:106C04007564007B226669726D776172655F766573
:106C14007273696F6E223A22302E302E30222C226B
:106C2400736F6674776172655F76657273696F6E90
:106C3400223A22302E30227D00000000846A0D00AA
:106C4400E4E3032000000000000000000000000056
:106C54000000000000000000000000000000000030
:106C64000000000000000000000000000000000020
:106C74000000000000000000000000000000000010
:106C84000000000000000000000000000000000000
:106C940000000000000000000000000000000000F0
:086CA40000000000E5E70320F9
:106CAC00FFFFFFFF00000102030405060708090AA5
:106CBC000B0C0D0E0F101112131415161718191AA0
:086CCC001B1C1D1E1F202800E7
:046CD40078563412A8
:04000003D000401CCD
:00000001FF
