:02000002D0002C
:1040000000400D0094750D00000006000C00050135
:084010000401FD08000000009E
:04401800C46E0D0065
:10401C0009480A49884208B505D0094A824202D0AB
:10402C00121A02F063FE0748074A0021121A02F026
:10403C006BFE014808BD00BF10E30320B4740D00F3
:10404C00C8E30320C8E30320EDE7032070B5074E57
:10405C00074C01F0FBFEA41BA4080025A54200D1CF
:10406C0070BD56F8043B98470135F7E788740D008E
:10407C00AC740D0000F0ECBA08B500F017FBBDE80D
:10408C00084001F09BBE01F08BB801F089B801F03B
:10409C008FB80078B0FA80F04009704701230370A4
:1040AC0070470EB403B503AB002153F8042B0193F6
:1040BC0001F0B3FF02B05DF804EB03B070470000F1
:1040CC002DE9F04F2DED0E8BD149D24887B001F080
:1040DC0084FC02F039FBD04B002202F0C9FC02F048
:1040EC00AFFDCB498246CB4801F077FC02F02CFBAC
:1040FC00C94B002202F0BCFC02F0A2FDC449804670
:10410C00C44801F06AFC02F01FFBC34B002202F012
:10411C00AFFC02F095FDBE4908EE100ABD4801F057
:10412C005CFC02F011FBBC4B002202F0A1FC02F083
:10413C0087FDB74908EE900AB64801F04EFC02F034
:10414C0003FBB54B002202F093FC02F079FDB04961
:10415C0009EE100AAF4801F040FC02F0F5FAAE4B44
:10416C00002202F085FC02F06BFDA94909EE900AD1
:10417C00A84801F032FC02F0E7FAA74B002202F04B
:10418C0077FC02F05DFDA2490AEE100AA14801F08D
:10419C0024FC02F0D9FAA04B002202F069FC02F0D8
:1041AC004FFD9B490AEE900A9A4801F016FC02F06A
:1041BC00CBFA994B002202F05BFC02F041FD9449D2
:1041CC000BEE100A934801F008FC02F0BDFA924B7A
:1041DC00002202F04DFC02F033FD4BF298710BEE15
:1041EC00900A4FF4FA4001F0F8FB02F0ADFA8A4B5A
:1041FC00002202F03DFC02F023FD4BF29871834645
:10420C004FF4FA4001F0E9FB02F09EFA824B0022D7
:10421C0002F02EFC02F014FD4BF2987181464FF423
:10422C00FA4001F0DAFB02F08FFA7B4B002202F02D
:10423C001FFC02F005FD4BF298710CEE100A4FF4C6
:10424C00FA4001F0CAFB02F07FFA734B002202F035
:10425C000FFC02F0F5FC4BF298710CEE900A4FF447
:10426C00FA4001F0BAFB02F06FFA6B4B002202F03D
:10427C00FFFB02F0E5FC4BF298710DEE100A4FF4C7
:10428C00FA4001F0AAFB02F05FFA634B002202F045
:10429C00EFFB02F0D5FC4BF298710DEE900A4FF447
:1042AC00FA4001F09AFB02F04FFA5B4B002202F04D
:1042BC00DFFB02F0C5FC4BF2987107464FF4FA4055
:1042CC0001F08BFB02F040FA534B002202F0D0FBC2
:1042DC0002F0B6FC4BF2987106464FF4FA4001F02E
:1042EC007CFB02F031FA4C4B002202F0C1FB02F0D5
:1042FC00A7FC4BF2987105464FF4FA4001F06DFBA8
:10430C0002F022FA444B002202F0B2FB02F098FCBD
:10431C000EEE100A01F0FFFD044601F0FCFD3F49D2
:10432C0002463F4800F04CFF01F078FC3C4A3D4906
:10433C00FFF7B7FE01F072FC2246E3173A49FFF78C
:10434C00B0FE01F06BFC044601F0E5FD021E80F2AC
:10435C0031812D212046059201F028FE059A51420B
:10436C000A22204601F03BFE204601F022FE01F01D
:10437C0055FC044601F0CFFD4FF47A72424340F1F4
:10438C001B812D212046059201F010FE059A514209
:10439C000A22204601F023FE204601F00AFE584670
:1043AC0002F0E4F9CDE90201504602F0DFF91C4BB2
:1043BC001E4A1F4CCDE9000180211E4800F008FF69
:1043CC001C4A1D491D4800F0B1FC484602F0CEF9CC
:1043DC00CDE90201404602F0C9F9114B184ACDE96A
:1043EC0000018021134800F0F3FE124A12491348D1
:1043FC0000F09CFC1CEE100A02F0B8F9CDE90201A9
:10440C0018EE100A02F0B2F9054B0E4A1CE000BF80
:10441C00109802008038010000408F40D86E0D00CB
:10442C0028E50320DE6E0D00EB6E0D00FB6E0D001B
:10443C0010E30320CCE30320266F0D004CE4032093
:10444C003E6F0D00696F0D00CDE9000180215B48C6
:10445C0000F0BEFE594A5A495A4800F067FC1CEE5F
:10446C00900A02F083F9CDE9020118EE900A02F0ED
:10447C007DF9554B554ACDE9000180214F4800F09C
:10448C00A7FE4E4A4E494F4800F050FC1DEE100A54
:10449C0002F06CF9CDE9020119EE100A02F066F98E
:1044AC00494B4B4ACDE900018021444800F090FE75
:1044BC00424A4349434800F039FC1DEE900A02F091
:1044CC0055F9CDE9020119EE900A02F04FF93E4B75
:1044DC00404ACDE900018021384800F079FE374A86
:1044EC003749384800F022FC384602F03FF9CDE954
:1044FC0002011AEE100A02F039F9334B364ACDE9B3
:10450C00000180212D4800F063FE2C4A2C492D48D7
:10451C0000F00CFC304602F029F9CDE902011AEE4C
:10452C00900A02F023F9284B2C4ACDE90001802196
:10453C00224800F04DFE214A2149224800F0F6FBAA
:10454C00284602F013F9CDE902011BEE100A02F025
:10455C000DF91D4B224ACDE900018021174800F0CE
:10456C0037FE164A1649174800F0E0FB1EEE100AFB
:10457C0002F0FCF8CDE902011BEE900A02F0F6F80D
:10458C00114B184ACDE9000180210C4800F020FEA7
:10459C000A4A0B490B4800F0C9FB2178072001F0AF
:1045AC0052FE237883F00103237007B0BDEC0E8B11
:1045BC00BDE8F08F1146D3E61146E9E6CCE30320C3
:1045CC00266F0D004CE4032028E50320946F0D00AA
:1045DC00BF6F0D00EA6F0D0015700D0040700D00DF
:1045EC006B700D0096700D00F8B5134D134E144FF3
:1045FC00114800F0BEF90446E0B901F00FFB31465A
:10460C0001F0E3FC0F4923463A46284600F094FAA1
:10461C0030B101F003FBBDE8F8400B4901F0D5BC0B
:10462C0001F0FCFA094901F0D0FC40F6B83001F079
:10463C0045FCDDE7F8BD00BF4CE40320C4700D0061
:10464C0000710D0015710D001B710D0035710D0001
:10465C0010B501F0E3FA4FF4165101F0D3FA0D4CFA
:10466C000121072001F0DEFD0B490C4840F25B7282
:10467C0000F06DFBFFF7B8FF094B0A4A802120467A
:10468C0000F0A6FD01F0CAFA074980232246FFF785
:10469C0008FD10BDCCE3032011E303204CE4032000
:1046AC0023E303206B710D006E710D0010B50F48E4
:1046BC0000F05FF908B9FFF797FF0D4C00F064FCB0
:1046CC002368C01A42F2107398420AD9FFF7F8FC1B
:1046DC0000F05AFC206000F0AFFC10B1002000F09C
:1046EC00B3FCBDE81040014800F030BA4CE40320A4
:1046FC00C8E3032008B50549084601F045F9BDE8B3
:10470C0008400249024800F015B800BF0CE5032030
:10471C004CE4032070B50446054B44F8043B0D1DD6
:10472C0006460FCD0FC42B682370304670BD00BFFA
:10473C0028730D0038B5044698300D4601F0CEFABA
:10474C004FF0FF33C4F8BC3000232560C4F8B830F8
:10475C00204638BD2DE9F04105460E4600F014FC0C
:10476C0043F697280746286803681B699847044650
:10477C0030B900F009FCC31B4345F4D9204605E0D1
:10478C00286803685B69984730700120BDE8F081A8
:10479C0038B5158829441446FFF7DCFF08B10135FC
:1047AC00258038BD2DE9F743051D884600270DF1FE
:1047BC00060229460446ADF80670FFF7E9FF18B962
:1047CC00002003B0BDE8F08394F804908DF80570D8
:1047DC0001260DF105012046FFF7BCFF0028EFD0A4
:1047EC00BDF806209DF80510531C22449BB2117194
:1047FC0001F07F0212FB06F217440A06ADF80630F0
:10480C00BFB24FEAC616E4D409F0F009013BB9F186
:10481C00300F88F800301ED10DF1060229462046D3
:10482C00FFF7B6FF0028CBD00DF106022946204633
:10483C00FFF7AEFF0028C3D098F8003023445A7914
:10484C009E79237906EB02269B07B6B201D5023678
:10485C00B6B2022501E000252E46ADB2BD4226D2ED
:10486C000DF105012046FFF775FF0028A8D0D4F8FC
:10487C00B80078B1B9F1300F0CD1BDF8063098F80A
:10488C0000209B1A023BB34204DD03689DF805101F
:10489C009B689847BDF806307F2B9EBFE2189DF8A9
:1048AC00051011710133ADF806300135D5E7D4F898
:1048BC00B8302BB9BDF80620802A88BFADF8063079
:1048CC00BDF806007DE7F7B58C461E461D4607462B
:1048DC000023AE4602A805F07F01BEF17F0F03F165
:1048EC000104034488BF41F08001BEF17F0F4FEA01
:1048FC00D515E4B203F8041C10D8C4F10403D11884
:10490C0002F803C0C4F10503134401A805329A420E
:10491C0006D010F8015B03F8015BF8E72346D8E7F3
:10492C0038680368721C2244DB689847054600F01F
:10493C002BFB621CC7F888003244A8B2131A5842E9
:10494C00584103B0F0BD023370B59BB2002401395D
:10495C00651C18194E5D80B216B116542C46F7E73B
:10496C00A3B2C11A0A441B1202F8023C02F8014C11
:10497C0070BD38B50446006808B9002038BD03681E
:10498C001B6B984780B9D4F8BC50002DF5D120682A
:10499C006FF00203C4F8BC300368DB6998472068E9
:1049AC000368DB6A9847E8E70120E7E72DE9F04F59
:1049BC008BB00446DDF85080894617461E46FFF73B
:1049CC00D8FF0546002840F0A980D4F800A0D4F800
:1049DC00B010DAF8003000297DD0B4F8B420D3F848
:1049EC0024B003465046D847012840F09E80514BD6
:1049FC00A4F884009A8818689B79ADF814208DF877
:104A0C001630049004AB04F1090204F1100113F800
:104A1C00010B02F8010B8A42F9D1B8F1000F66D0F4
:104A2C009DF858309DF854205B0143EAC20343F0D3
:104A3C000603DBB21FB1002E5BD143F0800323745D
:104A4C00002363740F23221DA37449462046019250
:104A5C00FFF779FF019A0346B8F1000F0BD04146DE
:104A6C002046FFF770FF019A179903462046FFF77F
:104A7C006AFF019A03466FB1394620460192FFF74F
:104A8C0062FF019A03462EB131462046FFF75BFFC9
:104A9C00019A0346053B9BB210212046FFF713FFFA
:104AAC0000F072FAC4E9220043F6972620680368E6
:104ABC001B69984700BB00F067FAD4F88C30C01A19
:104ACC00B042F3D96FF00303C4F8BC30206803681C
:104ADC00DB6A984722E004F1980104A8D3F820B0CF
:104AEC00FFF718FEB4F8B4202B4604A97AE702238A
:104AFC00A0E743F0C003A2E70DF10F012046FFF73A
:104B0C0051FE0428E2D1E67966B900F03DFA0125A0
:104B1C00C4F88C0084F89060C4F8BC6028460BB0D4
:104B2C00BDE8F08FC4F8BC60D0E76FF00103C4F8A7
:104B3C00BC30F3E790710D001FB50024CDE90244A1
:104B4C00CDE90044FFF732FF04B010BD2DE9F04F62
:104B5C0085B000AF0446FFF70CFF0646D0B100F05D
:104B6C0013FAD4F88C3043F69822C31A93420546B4
:104B7C0004D8D4F88830C31A93421DD994F89030D5
:104B8C00206863B16FF00303C4F8BC300368DB6AC0
:104B9C009847002630461437BD46BDE8F08F2146B5
:104BAC00C02321F8043F03680222DB689847C4E95C
:104BBC002255012384F89030206803681B699847BC
:104BCC000028E7D007F10F012046FFF7EBFD7860D6
:104BDC000028DFD094F804A0C4F88C500AF0F0033D
:104BEC00302B5AD1D4F89430002BD3D097F80FC077
:104BFC0004EB0C00E84690F805E0817901EB0E21FE
:104C0C0089B201F10800C008A8EBC00295460CF16E
:104C1C00070E6846A644E9460DEB010BCB4504D0C4
:104C2C001EF8012B09F8012BF8E77A684FF0000EFB
:104C3C0000F801E0A2EB0C020AF0060E033ABEF1FA
:104C4C00020F04F10409A2EB01020CF1030E20D1B6
:104C5C008E44A6440CF1050C9EF804B09EF805A0F9
:104C6C0061440AEB0B2A023A49441FFA8AFA984724
:104C7C009AFA9AFA2068A4F806A04FF41073A3804D
:104C8C0003680422DB6849469847C4F88850C54637
:104C9C0080E7714449449847F9E7C02B09D1D023E8
:104CAC002146A38051F8040B03680222DB68984765
:104CBC0070E7D02B04BF002384F890306AE72DE90D
:104CCC00F34104469DF82070884616461D46FFF7B2
:104CDC0050FE38B3404602F081F8EB1D1844802892
:104CEC0020D8221D0523414620460192FFF72BFEBA
:104CFC00019A0023C1189D4289B207D9214416F8A4
:104D0C0003C081F804C001339BB2F3E74B1F002FA3
:104D1C009BB20CBF30213121204602B0BDE8F041DE
:104D2C00FFF7D1BD002002B0BDE8F0811FB50446ED
:104D3C0010460391029202F051F8034600200090B5
:104D4C00DDE902212046FFF7BAFF04B010BDC0F820
:104D5C00B010A0F8B420704708B5024B1B681B6854
:104D6C00019308BD4C02030008B5024B1B685B683D
:104D7C00019308BD4C02030008B5024B1B681B696C
:104D8C00019308BD4C02030008B5024B1B685B691C
:104D9C00019308BD4C02030008B5024B1B689B69CC
:104DAC00019308BD4C02030008B5024B1B68DB697C
:104DBC00019308BD4C02030008B5024B1B681B6A2B
:104DCC00019308BD4C02030008B5024B1B681B6A1B
:104DDC00019308BD2802030008B5024B1B685B6AEF
:104DEC00019308BD2802030008B5024B1B689B6A9F
:104DFC00019308BD2802030008B5024B1B68DB6A4F
:104E0C00019308BD2802030008B5024B1B681B6BFD
:104E1C00019308BD2802030008B5024B1B685B6BAD
:104E2C00019308BD2802030008B5024B1B681B6CDC
:104E3C00019308BD2802030008B5024B1B68DB690F
:104E4C00019308BD3002030008B5024B1B681B6AB6
:104E5C00019308BD3002030008B5024B1B689B6927
:104E6C00019308BD3802030008B5024B1B68DB69CF
:104E7C00019308BD3802030008B5024B1B681B6A7E
:104E8C00019308BD3802030008B5024B1B689B6AEE
:104E9C00019308BD3802030008B5024B1B681B6B5D
:104EAC00019308BD3802030008B5024B1B689B6BCD
:104EBC00019308BD3802030008B5024B1B681B6840
:104ECC00019308BD3C02030008B5024B1B68DB686C
:104EDC00019308BD3C02030008B5024B1B681B691B
:104EEC00019308BD3C02030008B5024B1B685B69CB
:104EFC00019308BD3C02030008B5024B1B689B697B
:104F0C00019308BD3C02030008B5024B1B68DB692A
:104F1C00019308BD3C02030008B5024B1B681B6AD9
:104F2C00019308BD3C02030008B5024B1B689B6A49
:104F3C00019308BD3C02030008B5024B1B685B697A
:104F4C00019308BD6402030008B5024B1B681B6A81
:104F5C00019308BD6402030008B5024B1B689B6AF1
:104F6C00019308BD6402030008B5024B1B685B6C1F
:104F7C00019308BD4802030008B5024B1B685B682F
:104F8C00019308BD1802030008B5024B1B685B694E
:104F9C00019308BD1802030008B5024B1B689B6DFA
:104FAC00019308BD1802030008B5024B1B685B6E29
:104FBC00019308BD1802030008B5024B1B685B691E
:104FCC00019308BD6C02030008B5024B1B689B687B
:104FDC00019308BD2C02030008B5024B1B68DB686B
:104FEC00019308BD2C02030008B5024B1B681B691A
:104FFC00019308BD2C02030008B5024B1B689B688B
:10500C00019308BD6802030008B5024B1B68DB68FE
:10501C00019308BD6802030008B5024B1B681B6DA9
:10502C00019308BD6002030008B5024B1B689B6826
:10503C00019308BD4402030008B5024B1B685B6971
:10504C00019308BD4402030008B5024B1B68DB6AE0
:10505C00019308BD4402030008B5024B1B681B6B8F
:10506C00019308BD4402030008B5024B1B68DB6BBF
:10507C00019308BD4402030008B5024B1B685B6832
:10508C00019308BD4002030008B5024B1B689B68E6
:10509C00019308BD4002030008B5024B1B68DB6896
:1050AC00019308BD4002030008B5024B1B681B6945
:1050BC00019308BD4002030008B5024B1B685B69F5
:1050CC00019308BD4002030008B5024B1B689B69A5
:1050DC00019308BD4002030008B5024B1B68DB6955
:1050EC00019308BD4002030008B5024B1B681B6A04
:1050FC00019308BD4002030008B5024B1B681B6BF3
:10510C00019308BD4002030008B5024B1B685B6BA2
:10511C00019308BD4002030008B5024B1B681B6CD1
:10512C00019308BD4002030008B5024B1B685B6C81
:10513C00019308BD4002030008B5024B1B681B68B5
:10514C00019308BD2002030008B5024B1B685B6885
:10515C00019308BD2002030008B5024B1B685B6974
:10516C00019308BD2002030008B5024B1B689B6D20
:10517C00019308BD2002030008B5034B1B68D3F84C
:10518C008830019308BD00002002030008B5034BD2
:10519C001B68D3F89430019308BD00002002030073
:1051AC0008B5024B1B681B68019308BD1C02030069
:1051BC0008B5024B1B685B68019308BD1C02030019
:1051CC0008B5024B1B68DB68019308BD1C02030089
:1051DC0008B5024B1B68DB69019308BD1C02030078
:1051EC0008B5024B1B685B6A019308BD1C020300E7
:1051FC0008B5024B1B68DB6B019308BD1C02030056
:10520C0008B5024B1B685B6C019308BD1C020300C4
:10521C00002340681A46FFF72FBF40680022022186
:10522C00FFF73ABF002240681146FFF72DBF00225E
:10523C0040681146FFF738BF002340681A461946EC
:10524C00FFF73ABF002340681A461946FFF73CBFE8
:10525C0040680021FFF760BF40680021FFF764BF82
:10526C004068002281F00101FFF736BF4068002240
:10527C00FFF742BF002240681146FFF745BF0022EE
:10528C0040681146FFF730BF2DE9F043002495B07C
:10529C0016460D46074600F021FD214618220EA8A1
:1052AC00009401F031FD4023CDE90C3421466B46CE
:1052BC000CAA3046FFF7A8FE0446002846D1024649
:1052CC0001216868FFF7F0FE0221804622466868DB
:1052DC00FFF7EAFE009E81462146002E36D00029BB
:1052EC0034D17368022B03D00A2B0BD0F669F4E788
:1052FC00B8F1000F04D071693846043100F031FD6B
:10530C004146F3E7B9F1000F01D14946EEE7746964
:10531C00102201A801F0F8FC06238DF8143001AD21
:10532C0004F108031834186859682A4603C2083374
:10533C00A3421546F7D101A906A807AD00F0DCFC85
:10534C000FCD3C1D0FC42B682370DEE70098FFF7D0
:10535C0053FE384615B0BDE8F0830000024B034AFB
:10536C001A6000225A607047A8E50320A0710D0056
:10537C00002240681146FFF797BE00224068114694
:10538C00FFF7B2BE002240681146FFF7BDBE406871
:10539C000022FFF7B1BE4068002281F00101FFF747
:1053AC009BBE002340681A461946FFF78DBE0023AA
:1053BC0040681A461946FFF77FBE00224068114626
:1053CC00FFF762BE406800220221FFF765BE002392
:1053DC0040681A46FFF750BE024B04225A60024A3C
:1053EC001A607047B0E50320DC710D0013B503683B
:1053FC008DF80710DC6B01224FF0FF330DF1070124
:10540C00A04702B010BD10B40368DC6B4FF0FF3343
:10541C00A4465DF8044B604713B5134602688DF83B
:10542C000710D46B0DF107010122A04702B010BD8B
:10543C00704738B543691A68002A054610DAB3F884
:10544C008620B3F884309A420AD103681B699847C6
:10545C00044628B92B682846DB6A9847204638BD95
:10546C000120FCE743691868C043C00F70477047C0
:10547C00064B994210B500F10C0405D0084600F01B
:10548C00FFFE002808BF0024204610BD44720D000A
:10549C0010B5AC21044600F0EFFE204610BDFEF71F
:1054AC00F6BD2DE9F0414FF0000886B01D46C0F85E
:1054BC00048004460E4617464146102202A801F00D
:1054CC0023FC6B1C09D04FF47A70B5FBF0F3CDE9DB
:1054DC00023800FB13535843049060691023009367
:1054EC00006802AB41F2050240F6FF71FFF7B4FC15
:1054FC00002807DAFFF77CFE03686360002006B023
:10550C00BDE8F0816069002300683A463146FFF738
:10551C00C3FC031EEEDB1846F1E7000038B58469C6
:10552C000A4B036005467CB16368013B63605BB961
:10553C00236820469B689847A368013BA3601BB96E
:10554C0023682046DB689847284638BD54720D0006
:10555C0010B50446FFF7E2FF20461C2100F08CFE3C
:10556C00204610BD70B54D69054B04468C3544F88A
:10557C00043B06460FCD0FC42B682370304670BD1C
:10558C0028730D0010B54369B3F88620B3F8843046
:10559C009A42044605D06369B3F884201344187901
:1055AC0010BD03681B6998470028F4D14FF0FF30F9
:1055BC00F6E710B54369B3F88620B3F884309A4205
:1055CC00044608D06369B3F88420511CA3F88410F6
:1055DC001344187910BD03681B6998470028F1D152
:1055EC004FF0FF30F6E7F8B543691746B3F886205D
:1055FC00B3F884309A4205460E4616D06969B1F864
:10560C008430B1F88640E41ABC4228BF3C460433CF
:10561C0022461944304601F069FB6A69B2F88430BD
:10562C002344A2F884302046F8BD03681B699847D0
:10563C000028E3D14FF0FF34F5E700002DE9F043EB
:10564C009846036893B00D460024DB6A064617465D
:10565C00984728466B46224621460094FFF7D4FC17
:10566C000546002863D1009B002B4BD05B69002BB7
:10567C0048D006A800F032FB009B5C696378022BD3
:10568C0004D1211D06A800F06CFB26E00A2B24D1C6
:10569C001122294601A801F037FBA368002B38D052
:1056AC0004F108030DF1040C1834186859686246AB
:1056BC0003C20833A3429446F7D1062301A90CA8D0
:1056CC008DF8143000F018FB0DF1340CBCE80F0011
:1056DC0007AC0FC4DCF80030237006A800F01EFBEA
:1056EC0080B1336807ADD3F82090124B0C930FCDDB
:1056FC000DAC0FC42B6823703A4643460CA93046B8
:10570C00C84705460098FFF777FC284613B0BDE85C
:10571C00F083E368002BC3D14FF6FF70D4F81090E0
:10572C00FFF712FC8145BBD104F11401AAE7254611
:10573C00E8E700BF28730D0042690023A2F884300B
:10574C004269A2F8863070472DE9F0411F46036884
:10575C000C46DB6A8AB0054616469847237DD5F879
:10576C001480042B0CBF02200A2006220121FFF713
:10577C009BFBC8F800006B691B68002B08DA2B68D0
:10578C002846DB6A0024984720460AB0BDE8F08121
:10579C002846FFF7D1FFB7B1002303A9F8B2039352
:1057AC00ADF81030FFF708FC0028E8D16869062333
:1057BC000093006803AB41F20B0240F6FF71FFF758
:1057CC004BFB0028DBD11C22002103A801F09CFA22
:1057DC00237D042B1DD14FF407733046ADF80C30EC
:1057EC00FFF7BAFBADF80E006068FFF7ADFB049055
:1057FC006B691C22186803A9FFF73EFB0028BED179
:10580C0004340FCC6D698C350FC523682B700124C3
:10581C00BAE740F61C233046ADF80C30FFF79CFB82
:10582C0005AEADF80E00231D04F114071868596875
:10583C00324603C20833BB421646F7D1D8E7000004
:10584C0030B54269B2F886308BB004462BB1B2F851
:10585C0084209A4201D1FFF76FFF61690868002824
:10586C0018DBB1F886507F2D14D804310823C5F10C
:10587C0080022944FFF708FB002813DD6369B3F8A5
:10588C0086200AB9A3F884206369B3F886201044F3
:10589C00A3F886006369B3F88600B3F88430C01AA5
:1058AC000BB030BDFFF7A4FC03680B2BF2D0FFF755
:1058BC009FFC03680B2BEDD020230025CDE902358E
:1058CC00FFF796FC03680193084B0949009302AA61
:1058DC002B463220FFF7A0FB63691868FFF7C4FA68
:1058EC0063694FF0FF321A60D4E700BF17720D00E6
:1058FC0010720D0010B5436904461868002801DBCE
:10590C00FFF7B2FA63694FF0FF321A606069112237
:10591C0000218C3001F0F8F92046BDE81040FFF76B
:10592C000BBF10B5002304460160C0F884308830EA
:10593C0000F0D4F9204610BD73B500234FF47A72F1
:10594C00C0E901320E4A0361026043610446AC2097
:10595C000191FEF798FB051E05F10C0608D00123FA
:10596C00C5E90133074B01992B603046FFF7D9FF8E
:10597C002046C4E90565FFF7DFFE02B070BD00BF2D
:10598C0054720D0030720D0010B54FF0FF3104460B
:10599C00FFF7D2FF204610BD10B504460068002862
:1059AC0001DBFFF761FA204610BD0C30FFF7F4BFA6
:1059BC0010B5044608462170FFF73EFA00236360D9
:1059CC00204610BD10B5044628B101F0C9F990FB72
:1059DC00F4F303FB1404204610BD884210B50446B2
:1059EC0003DA081AFFF7EEFF0444204610BD704797
:1059FC00F8B5064615460C468F18BC4206D03368DF
:105A0C0014F8011B9B6830469847F6E72846F8BD0A
:105A1C00007C0022FFF7D8B9007C0021FFF7DCB92D
:105A2C00007C0021FFF7E0B9007C0021FFF7E4B90E
:105A3C00007C0021FFF7E8B910B51421044600F0F2
:105A4C001BFC204610BD000010B54FF47A730446C1
:105A5C0008460021C4E90113034B2360207411464E
:105A6C00FFF7E2F9204610BDA0720D00704741749B
:105A7C007047704708B5007CFFF756FA20EAE070D3
:105A8C0008BD08B5007CFFF727FA20EAE07008BDD6
:105A9C0008B5007CFFF730FA40EAE07008BD08B5A5
:105AAC00007CFFF721FA40EAE07008BD007CFFF7AC
:105ABC002BBA37B5457C04462DB1207C03B0BDE82C
:105ACC003040FFF701BA007C0191FFF72DFA002856
:105ADC000199F2DC284603B030BD10B51421044600
:105AEC0000F0CAFB204610BD10B54FF0000C044668
:105AFC00084611464FF47A72C4E901C2044A226086
:105B0C000122207462741A46FFF7D6F9204610BDA4
:105B1C00C8720D0013B50D4C2178BFF35B8F11F0DB
:105B2C00010110D120460191FEF7B3FA019950B151
:105B3C00074B084A0848FFF7D7FF2046FEF7AEFA96
:105B4C00064801F0CDF8044802B010BDB8E50320BA
:105B5C0040E60320BCE50320C4E603207F5A0D0079
:105B6C00417470477047704708B50021007CFFF7FF
:105B7C0013F940EAE07008BD08B50121007CFFF77D
:105B8C000BF940EAE07008BD08B5007CFFF7FCF8A3
:105B9C0020EAE07008BD08B5007CFFF7EDF820EABC
:105BAC00E07008BD13B50446007C0191FFF7ECF8DA
:105BBC000028019901DC607C20B1207CFFF7F4F80F
:105BCC0020EAE07002B010BD007CFFF7F5B810B50C
:105BDC001421044600F050FB204610BD10B54FF4C4
:105BEC007A73044608460021C4E90113044B236070
:105BFC000123207463741146FFF7AEF8204610BDE4
:105C0C00F8720D00007C0022FFF7AEB810B514221C
:105C1C000446002101F078F8204610BD10B50F4C59
:105C2C0088B003A8FFF7F2FF2178BFF35B8F11F068
:105C3C0001010FD120460191FEF72BFA019948B1D1
:105C4C0003AA0748FFF7CAFF2046FEF727FA0548C4
:105C5C0001F046F8024808B010BD00BFD8E603209A
:105C6C00DCE60320715B0D00704710B5182104466B
:105C7C0000F002FB204610BDF0B5037D062B8DB065
:105C8C000E4600F104074FF0000412D000F1080595
:105C9C0015F8011D0A22304600F0A1F9AF42044468
:105CAC0019D0002CF4D02E21304600F07FF904449A
:105CBC00EEE72F236A4639460A208DF80040FFF79D
:105CCC003BF9684601F08AF833680246DB6869469E
:105CDC0030469847044620460DB0F0BD10B5054B34
:105CEC000446112240F8043B002101F00DF8204637
:105CFC0010BD00BF28730D000346074A10B543F8CA
:105D0C00042B01F1100251F8044B43F8044B91425F
:105D1C00F9D10A781A7010BD28730D00037D042B7D
:105D2C0004D14068003818BF01207047062B07D1FA
:105D3C0043683BB983682BB9C3681BB90069F1E7A9
:105D4C00002070470120704710B59DF8084044EAC8
:105D5C00032343EA024242EA0161042341600375D2
:105D6C0010BD13B5CB7800938B784A780978FFF780
:105D7C00EBFF02B010BD0000014B1860704700BF74
:105D8C0060E3032008B50B4B43B1FFF747FF0368F3
:105D9C001B699847002801DDAFF30080064B43B127
:105DAC00FFF7B8FE03681B699847002801DDAFF3C5
:105DBC00008008BD000000000000000008B5FFF7DF
:105DCC00E1FFFFF7E1F8014B186008BD44E7032041
:105DDC000548064A064908B5121A00F087FF054B1C
:105DEC00054A1A6008BD00BF00F4032004F4032028
:105DFC00B0740D0000F403201E1C279A07B5002375
:105E0C0000931A466FF07701FFF7C0F903B05DF805
:105E1C0004FB000007B543880A2B08D0502B0BD18C
:105E2C00094B1B684BB103B05DF804EB1847FFF747
:105E3C00E5FF03B05DF804FB002300931A466FF0F6
:105E4C007701FFF7A3F9F4E7F4E6032010B5124845
:105E5C000021FFF7D5F9114B1A68114B9A42114BDF
:105E6C000CBF012200221A7001D0FFF7B1FFFFF71F
:105E7C0083F8044600F050FF0B4B13B12046AFF3F0
:105E8C00008000210848FFF7EFF8BDE810400748F4
:105E9C000021FFF771B900BF855D0D0000F40320F0
:105EAC001E1C279AF0E6032000000000215E0D0066
:105EBC00014B00229A607047F8E603200021FFF79F
:105ECC004BB908B50020FFF7C7F828B1FFF7B4F8B5
:105EDC0080F00100C0B208BD0120FCE710B5002025
:105EEC00FFF75AF80446A0B9FFF726F9012810D19C
:105EFC002046FFF739F960B9FFF7E3FF10B9FFF758
:105F0C0093F8F9E7FFF7DDFFBDE810400020FFF73D
:105F1C0043B8204610BD1FB5FFF7E0FF102200214B
:105F2C00684600F0F1FE00216846FFF73DF8009846
:105F3C0005B05DF804FB0000024B1A68024B1A60B6
:105F4C00704700BF5CE3032008E70320014B024AC3
:105F5C001A6070470CE7032050730D00F8B5064625
:105F6C000D468F180024BD420CD0336815F8011B68
:105F7C009B6830469847031E01DB1C44F3E7002C5A
:105F8C0008BF1C462046F8BD13B50446084659B157
:105F9C00019100F023FF23680199DB68024620463B
:105FAC0002B0BDE81040184702B010BD03689B68F2
:105FBC00184738B50D210546FFF7F8FF0A210446AE
:105FCC002846FFF7F3FF204438BD38B50546FFF7E8
:105FDC00DBFF04462846FFF7ECFF204438BD30B504
:105FEC008BB000238DF82430012A98BF0A2209AC0B
:105FFC000D46B1FBF2F101FB125303F0FF03092B29
:10600C0094BF30333733DBB2AA4204F8013DEFD9E9
:10601C002146FFF7B9FF0BB030BD2DE9F04186B03A
:10602C0000AF05460E46381D142114463B60FFF7A1
:10603C00D7F813280ED8391D2846FFF7A5FF0446BC
:10604C001EB12846FFF7B5FF044420461837BD465D
:10605C00BDE8F08100F1080323F00703E846ADEB3F
:10606C00030D2246411C3B686846FFF7B9F86946A8
:10607C002846FFF789FF0446C546E1E7024800239E
:10608C000360FEF771BF00BF10E70320054B02222F
:10609C001A60054B054A9A60002018609880987128
:1060AC00FFF752B820E7032014E703200000FFFF9E
:1060BC00002240681146FFF717B8002240681146CD
:1060CC00FFF722B840680022FFF716B8406800229C
:1060DC0081F00101FFF700B8002340681A46194609
:1060EC00FEF7F2BF002340681A461946FEF7E4BFDC
:1060FC00002240681146FEF7D7BF002240681146C7
:10610C00FEF7C2BF406800220221FEF7C5BF002384
:10611C0040681A46FEF7B0BF024B03225A60024A8F
:10612C001A60704724E703205C730D007047000071
:10613C0038B5002320254380142304460380856052
:10614C0005610649284600F099F804496060284624
:10615C0000F094F8E060204638BD00BF90730D004D
:10616C0030B50E4D2978BFF35B8F11F0010487B069
:10617C0011D12846FDF78DFF68B101A8FFF7D8FFB4
:10618C0001AA21460648FFF75FFC2846FDF786FF6B
:10619C00044800F0A5FD024807B030BD2CE70320F1
:1061AC0030E7032039610D00232813B502D90020F4
:1061BC0002B010BDA0F10B03022B1AD8174C21789A
:1061CC00BFF35B8F11F001010BD120460191FDF75C
:1061DC0060FF019928B11248FFF7EAFB2046FDF752
:1061EC005DFF0F4B1878FEF72FFE0028DFD1012042
:1061FC00DEE7012809D8FFF7B3FF0021007CFEF78A
:10620C000BFE80F00100C0B2D2E709380128EED8AD
:10621C00FFF780FC007CFEF77FFEF2E748E70320E7
:10622C004CE70320232838B504460D460AD8FF292D
:10623C0008D0FFF7B9FF28B129462046BDE8384001
:10624C00FEF7C2BE38BD38B504460D46FEF7C4FE97
:10625C00FF2810D0062804D84D2323FA00F0C307DA
:10626C0009D42046FFF7A0FF28B129462046BDE8F7
:10627C003840FEF7B9BE38BDFDF709BFFDF705BFC5
:10628C00014900F0F9B800BFAC730D007FB50024D4
:10629C001023CDE90234036800949E698DF8044004
:1062AC0015466B461268B0479DF8043003F00603A0
:1062BC00062B03BF009B2B600120204604B070BD51
:1062CC000098904214BF01200620704710B5034B74
:1062DC000360044600F0CDF8204610BDEC730D00B1
:1062EC0010B50446FFF7F2FF20460821FFF7C4FF64
:1062FC00204610BD2DE9F0411F46DDE90834DDF8DC
:10630C00188098450646154607D1079900F0B4F851
:10631C0018B165710020BDE8F0813946304600F0B7
:10632C00ABF80028F6D00123C4F800802571A371C6
:10633C00F0E738B515461C4600F09EF820B108234E
:10634C00E36006232560237138BD73B505460C4602
:10635C0001921E4600F090F850B9032E08D823681D
:10636C00019A5B692946204602B0BDE87040184787
:10637C0002B070BD10B5034B03600446FFF7A6FFD7
:10638C00204610BD4C740D0010B50446FFF7F2FF0B
:10639C0020460C21FFF770FF204610BDF7B5089F73
:1063AC00974205460E4614460AD0A868026808971C
:1063BC00156A31462246AC4603B0BDE8F040604752
:1063CC001946019300F058F8019B0028EDD00620E7
:1063DC0003B0F0BD2DE9F14F0D461946DDE90A4B2E
:1063EC00DDE90CA681461746984600F045F890B1B9
:1063FC00002D3460377109DB61198A450CBF062109
:10640C000121B171002001B0BDE8F08F0235F9D146
:10641C000123B371F6E7544506D15946484600F0BE
:10642C002BF808B17771EDE7D9F808000368CDE9CE
:10643C000CA6CDE90A4BDC693A4643462946A446EC
:10644C0001B0BDE8F04F60472DE9F04107460C461E
:10645C0015461E46FFF76DFF48B9B86803689F697B
:10646C002A4633462146BC46BDE8F0416047BDE8AC
:10647C00F081704700207047814208B50ED040680B
:10648C0003782A2B0CD049680B782A2B08BF0131D2
:10649C0000F09AFCB0FA80F0400908BD0120FCE73E
:1064AC000020FAE781F0004102E000BF83F00043D6
:1064BC0030B54FEA41044FEA430594EA050F08BF93
:1064CC0090EA020F1FBF54EA000C55EA020C7FEA57
:1064DC00645C7FEA655C00F0E2804FEA5454D4EBD4
:1064EC005555B8BF6D420CDD2C4480EA020281EA9E
:1064FC00030382EA000083EA010180EA020281EAD6
:10650C000303362D88BF30BD11F0004F4FEA013127
:10651C004FF4801C4CEA113102D0404261EB410136
:10652C0013F0004F4FEA03334CEA133302D05242BC
:10653C0063EB430394EA050F00F0A780A4F1010478
:10654C00D5F1200E0DDB02FA0EFC22FA05F28018B2
:10655C0041F1000103FA0EF2801843FA05F3594198
:10656C000EE0A5F120050EF1200E012A03FA0EFC17
:10657C0028BF4CF0020C43FA05F3C01851EBE37141
:10658C0001F0004507D54FF0000EDCF1000C7EEB5E
:10659C0000006EEB0101B1F5801F1BD3B1F5001F9C
:1065AC000CD349085FEA30004FEA3C0C04F10104BB
:1065BC004FEA445212F5800F80F09A80BCF1004FE4
:1065CC0008BF5FEA500C50F1000041EB045141EA66
:1065DC00050130BD5FEA4C0C404141EB0101013C2F
:1065EC0028BFB1F5801FE9D291F0000F04BF01461E
:1065FC000020B1FA81F308BF2033A3F10B03B3F1F0
:10660C0020020CDA0C3208DD02F1140CC2F10C027F
:10661C0001FA0CF021FA02F10CE002F11402D8BFDD
:10662C00C2F1200C01FA02F120FA0CFCDCBF41EAA9
:10663C000C019040E41AA2BF01EB0451294330BD78
:10664C006FEA04041F3C1CDA0C340EDC04F1140455
:10665C00C4F1200220FA04F001FA02F340EA03002C
:10666C0021FA04F345EA030130BDC4F10C04C4F172
:10667C00200220FA02F001FA04F340EA0300294652
:10668C0030BD21FA04F0294630BD94F0000F83F49C
:10669C00801306BF81F480110134013D4EE77FEA7F
:1066AC00645C18BF7FEA655C29D094EA050F08BFCB
:1066BC0090EA020F05D054EA000C04BF19461046AC
:1066CC0030BD91EA030F1EBF0021002030BD5FEAF0
:1066DC00545C05D14000494128BF41F0004130BD18
:1066EC0014F580043CBF01F5801130BD01F000456C
:1066FC0045F0FE4141F470014FF0000030BD7FEADF
:10670C00645C1ABF194610467FEA655C1CBF0B46D9
:10671C00024650EA013406BF52EA033591EA030FF0
:10672C0041F4002130BD00BF90F0000F04BF0021E8
:10673C00704730B54FF4806404F132044FF000051B
:10674C004FF0000150E700BF90F0000F04BF002194
:10675C00704730B54FF4806404F1320410F00045FA
:10676C0048BF40424FF000013EE700BF42004FEAF5
:10677C00E2014FEA31014FEA02701FBF12F07F4372
:10678C0093F07F4F81F06051704732F07F4208BF29
:10679C00704793F07F4F04BF41F40021704730B530
:1067AC004FF4607401F0004521F000411CE700BF7C
:1067BC0050EA010208BF704730B54FF000050AE0FF
:1067CC0050EA010208BF704730B511F0004502D500
:1067DC00404261EB41014FF4806404F132045FEA02
:1067EC00915C3FF4D8AE4FF003025FEADC0C18BFAB
:1067FC0003325FEADC0C18BF033202EBDC02C2F19D
:10680C00200300FA03FC20FA02F001FA03FE40EA2E
:10681C000E0021FA02F11444BDE600BF70B54FF032
:10682C00FF0C4CF4E06C1CEA11541DBF1CEA135510
:10683C0094EA0C0F95EA0C0F00F0DEF82C4481EA78
:10684C00030621EA4C5123EA4C5350EA013518BF98
:10685C0052EA033541F4801143F4801338D0A0FB85
:10686C0002CE4FF00005E1FB02E506F00042E0FB32
:10687C0003E54FF00006E1FB03569CF0000F18BF38
:10688C004EF0010EA4F1FF04B6F5007F64F54074E0
:10689C0004D25FEA4E0E6D4146EB060642EAC62173
:1068AC0041EA55514FEAC52040EA5E504FEACE2EE0
:1068BC00B4F1FD0C88BFBCF5E06F1ED8BEF1004FE3
:1068CC0008BF5FEA500E50F1000041EB045170BD5F
:1068DC0006F0004646EA010140EA020081EA0301A3
:1068EC00B4EB5C04C2BFD4EB0C0541EA045170BD9F
:1068FC0041F480114FF0000E013C00F3AB8014F119
:10690C00360FDEBF002001F0004170BDC4F1000461
:10691C00203C35DA0C341BDC04F11404C4F12005E2
:10692C0000FA05F320FA04F001FA05F240EA02003D
:10693C0001F0004221F0004110EBD37021FA04F673
:10694C0042EB06015EEA430E08BF20EAD37070BD2D
:10695C00C4F10C04C4F1200500FA04F320FA05F08C
:10696C0001FA04F240EA020001F0004110EBD3708E
:10697C0041F100015EEA430E08BF20EAD37070BDFE
:10698C00C4F1200500FA05F24EEA020E20FA04F3D7
:10699C0001FA05F243EA020321FA04F001F0004186
:1069AC0021FA04F220EA020000EBD3705EEA430EF7
:1069BC0008BF20EAD37070BD94F0000F0FD101F026
:1069CC000046400041EB010111F4801F08BF013C5F
:1069DC00F7D041EA060195F0000F18BF704703F09D
:1069EC000046520043EB030313F4801F08BF013D24
:1069FC00F7D043EA0603704794EA0C0F0CEA1355E0
:106A0C0018BF95EA0C0F0CD050EA410618BF52EA99
:106A1C004306D1D181EA030101F000414FF000009F
:106A2C0070BD50EA410606BF1046194652EA4306AD
:106A3C0019D094EA0C0F02D150EA013613D195EA21
:106A4C000C0F05D152EA03361CBF104619460AD169
:106A5C0081EA030101F0004141F0FE4141F4700173
:106A6C004FF0000070BD41F0FE4141F4780170BD63
:106A7C0070B54FF0FF0C4CF4E06C1CEA11541DBFC8
:106A8C001CEA135594EA0C0F95EA0C0F00F0A7F8CA
:106A9C00A4EB050481EA030E52EA03354FEA0131F7
:106AAC0000F088804FEA03334FF0805545EA13130A
:106ABC0043EA12634FEA022245EA111545EA1065D2
:106ACC004FEA00260EF000419D4208BF964244F169
:106ADC00FD0404F5407402D25B084FEA3202B61A88
:106AEC0065EB03055B084FEA32024FF480104FF45C
:106AFC00002CB6EB020E75EB030E22BFB61A7546D0
:106B0C0040EA0C005B084FEA3202B6EB020E75EB62
:106B1C00030E22BFB61A754640EA5C005B084FEACA
:106B2C003202B6EB020E75EB030E22BFB61A754697
:106B3C0040EA9C005B084FEA3202B6EB020E75EBA2
:106B4C00030E22BFB61A754640EADC0055EA060E63
:106B5C0018D04FEA051545EA16754FEA06164FEAA6
:106B6C00C30343EA52734FEAC2025FEA1C1CC0D152
:106B7C0011F4801F0BD141EA00014FF000004FF0DF
:106B8C00004CB6E711F4801F04BF01430020B4F1A0
:106B9C00FD0C88BFBCF5E06F3FF6AFAEB5EB030C58
:106BAC0004BFB6EB020C5FEA500C50F1000041EB55
:106BBC00045170BD0EF0004E4EEA113114EB5C0422
:106BCC00C2BFD4EB0C0541EA045170BD41F48011F5
:106BDC004FF0000E013C90E645EA060E8DE60CEAFD
:106BEC00135594EA0C0F08BF95EA0C0F3FF43BAF1A
:106BFC0094EA0C0F0AD150EA01347FF434AF95EAD1
:106C0C000C0F7FF425AF104619462CE795EA0C0FB4
:106C1C0006D152EA03353FF4FDAE1046194622E781
:106C2C0050EA410618BF52EA43067FF4C5AE50EA5B
:106C3C0041047FF40DAF52EA43057FF4EBAE12E74B
:106C4C004FEA4102B2F1E04324BFB3F5001CDCF182
:106C5C00FE5C0DD901F0004C4FEAC0024CEA5070BA
:106C6C00B2F1004F40EB830008BF20F001007047E9
:106C7C0011F0804F21D113F13872BCBF01F00040EC
:106C8C00704741F480114FEA5252C2F11802C2F11E
:106C9C00200C10FA0CF320FA02F018BF40F001009F
:106CAC004FEAC1234FEAD32303FA0CFC40EA0C0051
:106CBC0023FA02F34FEA4303CCE77FEA625307D18E
:106CCC0050EA01331EBF4FF0FE4040F440007047C5
:106CDC0001F0004040F0FE4040F40000704700BF5F
:106CEC00002301461A46184600F080B80A44914227
:106CFC0000F1FF3300D1704710B511F8014B03F8C8
:106D0C00014F9142F9D110BD02440346934200D188
:106D1C00704703F8011BF9E738B50D4B1D68AB6BD9
:106D2C0004467BB91820FEF73BFA0A4A0A4BA863C3
:106D3C00C0E90023094B83600B23838101220023CC
:106D4C00C0E90423AB6B00221C615A6138BD00BF43
:106D5C0060E303200E33CDAB34126DE6ECDE0500A0
:106D6C00134B10B51C68A36B7BB91820FEF718FAEF
:106D7C00104A114BA063C0E90023104B83600B2316
:106D8C00838101220023C0E90423A16B0C480A690A
:106D9C004B690C4C504304FB0300A2FB04345A1CFB
:106DAC00044444F10000C1E9042020F0004010BD6F
:106DBC0060E303200E33CDAB34126DE6ECDE050040
:106DCC002DF451582D7F954C10F8012B11F8013BE7
:106DDC00012A28BF9A42F7D0D01A7047034613F8FD
:106DEC00012B002AFBD1181A013870472DE9F84302
:106DFC00DFF8B8800646D8F800001F460D469146CD
:106E0C0000F056F8254B1C6834B9254C1C60254BFA
:106E1C0013B11B68C4F8883063681F2B07DDD8F8E2
:106E2C00000000F047F84FF0FF30BDE8F8834EB398
:106E3C00D4F8880088B91C4B23B9D8F8000000F0AE
:106E4C0038F8F0E74FF48470FEF7AAF90028F4D074
:106E5C000023C0E94033C4F88800636840F82390ED
:106E6C0001229A4000EB8301D0F800311343022E2B
:106E7C00C0F80031C1F8807002BFD0F804311A4359
:106E8C00C0F804216368D8F800005A1C0233626011
:106E9C0044F8235000F00EF80020C6E7E0E703208A
:106EAC0054E7032000000000AD510D00C4E30320A3
:106EBC0070477047704700001D400D0059400D0091
:106ECC0081400D0085400D00000000002569303028
:106EDC00300074696D654275663A2025730A00743A
:106EEC00696D654E6F773A2025693030300A007B2A
:106EFC00227473223A25732C202276616C7565738B
:106F0C0031223A7B227431223A252E32662C22769B
:106F1C0031223A252E32667D7D0076312F646576DE
:106F2C00696365732F6D652F74656C656D6574721F
:106F3C0079007B227473223A25732C202276616CA3
:106F4C0075657332223A7B227432223A252E3266D0
:106F5C002C227632223A252E32667D7D007B2274DD
:106F6C0073223A25732C202276616C75657333225B
:106F7C003A7B227433223A252E32662C2276332227
:106F8C003A252E32667D7D007B227473223A25735E
:106F9C002C202276616C75657334223A7B22743412
:106FAC00223A252E32662C227634223A252E32664F
:106FBC007D7D007B227473223A25732C202276610E
:106FCC006C75657335223A7B227435223A252E3244
:106FDC00662C227635223A252E32667D7D007B2268
:106FEC007473223A25732C202276616C7565733686
:106FFC00223A7B227436223A252E32662C227636A1
:10700C00223A252E32667D7D007B227473223A252E
:10701C00732C202276616C75657337223A7B22744F
:10702C0037223A252E32662C227637223A252E32FA
:10703C00667D7D007B227473223A25732C20227688
:10704C00616C75657338223A7B227438223A252E8E
:10705C0032662C227638223A252E32667D7D007BD4
:10706C00227473223A25732C202276616C75657319
:10707C0039223A7B227439223A252E32662C22761A
:10708C0039223A252E32667D7D007B227473223A9A
:10709C0025732C202276616C7565733130223A7B16
:1070AC0022743130223A252E32662C22763130224F
:1070BC003A252E32667D7D00706C756D65436F6E62
:1070CC006E65637428293A20417474656D70746917
:1070DC006E6720746F20636F6E6E65637420746FBF
:1070EC00205468696E6773626F6172642073657295
:1070FC0076657200726B4D6E6263484D6346345513
:10710C0074696E583139786D004172676F6E00701A
:10711C006C756D65436F6E6E65637428293A2043F8
:10712C006F6E6E656374656400706C756D65436F2E
:10713C006E6E65637428293A20436F6E6E656374B6
:10714C00696F6E206661696C65642C20726574725F
:10715C007920696E2033207365636F6E647300252C
:10716C0073006D7174744275663A2025730A7369E5
:10717C007A654F66286D717474427566293A2025BC
:10718C00692F6E0000044D5154540400000000009F
:10719C00000000001D520D0027520D0031520D0051
:1071AC003B520D0045520D0051520D005D520D0029
:1071BC0065520D006D520D0079520D0081520D007B
:1071CC008B520D0095520D000000000000000000D5
:1071DC00DB530D00D1530D00C7530D007D530D0033
:1071EC00BB530D00AF530D005D520D0065520D00E9
:1071FC00A3530D009B530D0091530D0087530D00AD
:10720C0095520D00776972696E670072656376201E
:10721C006572726F72203D20256400000000000032
:10722C00000000007B540D009D540D00B7590D005B
:10723C00AB540D007D540D00000000000000000058
:10724C00000000000000000029550D005D550D00E8
:10725C00F9530D0013540D004D580D00BF550D0082
:10726C0091550D003D540D0055570D0049560D001C
:10727C00F3550D0001590D003F540D0071540D00D4
:10728C0025540D00AF540D0071550D000000000089
:10729C0000000000FB590D00455A0D001D5A0D0051
:1072AC00FD590D00255A0D002D5A0D00355A0D00B3
:1072BC003D5A0D000000000000000000795A0D003E
:1072CC00E75A0D00BF5A0D00695F0D008F5A0D0073
:1072DC00AB5A0D009D5A0D00B95A0D007B5A0D008A
:1072EC00815A0D000000000000000000735B0D00CF
:1072FC00DB5B0D00B15B0D00695F0D00A35B0D0046
:10730C00755B0D00855B0D00D55B0D00955B0D006D
:10731C006D5B0D000000000000000000855C0D009E
:10732C00755C0D00775C0D0025592D256D2D2564A0
:10733C005425483A254D3A2553257A0061736374D8
:10734C00696D6500617070000000000000000000B5
:10735C001B610D0011610D0007610D00FD600D003A
:10736C00F1600D00E5600D005D520D0065520D00E1
:10737C00D9600D00D1600D00C7600D00BD600D001F
:10738C0095520D0000537431395F53705F6D616B12
:10739C00655F7368617265645F746167000000000B
:1073AC00EC730D0091730D004C740D00C0730D0047
:1073BC0070740D004E31305F5F637878616269766E
:1073CC003131375F5F636C6173735F747970655FC4
:1073DC00696E666F4500000000000000B4730D007C
:1073EC00D9620D00ED620D0081640D0081640D0009
:1073FC0057630D0099620D003F630D0001630D0092
:10740C00CD620D004C740D001C740D00B4730D0096
:10741C004E31305F5F637878616269763132305F0C
:10742C005F73695F636C6173735F747970655F69B7
:10743C006E666F45000000000000000010740D0027
:10744C0081630D0095630D0081640D0081640D0056
:10745C0057630D0099620D0055640D00E1630D003A
:10746C00A9630D00EC730D0078740D00537439741E
:10747C007970655F696E666F0000000001470D0052
:10748C0069530D00E5530D00BD5E0D00455F0D0009
:10749C00595F0D0089600D0099600D0025610D008C
:0474AC0000000000DC
:0474B00000000000D8
:1074B400017468696E6773626F6172642E636C6FC6
:1074C4007564007B226669726D776172655F7665AB
:1074D4007273696F6E223A22302E302E30222C22A3
:1074E400736F6674776172655F76657273696F6EC8
:1074F400223A22302E30227D0000000048730D0015
:1075040064E303200000000000000000000000000D
:107514000000000000000000000000000000000067
:107524000000000000000000000000000000000057
:107534000000000000000000000000000000000047
:107544000000000000000000000000000000000037
:107554000000000000000000000000000000000027
:0875640000000000E5E7032030
:10756C00FFFFFFFF00000102030405060708090ADC
:10757C000B0C0D0E0F101112131415161718191AD7
:08758C001B1C1D1E1F2028001E
:0475940078563412DF
:04000003D000401CCD
:00000001FF
