:02000002B0004C
:1040000000400B00C4D50B0000000600170005029D
:084010000401A30F00000000F1
:044018001CC20B00BB
:1040200009480A49884208B505D0094A824202D0A7
:10403000121A06F02CF80748074A0021121A06F057
:1040400034F8014808BD00BF74DF0320A8D30B007B
:1040500064E1032068E10320F1E7032070B5074E17
:10406000074C04F0CDFAA41BA4080025AC4200D1F3
:1040700070BD56F8043B98470135F7E73CD30B0079
:1040800074D30B0000F066BC08B500F037FDBDE846
:10409000084004F06DBA03F063B903F061B903F0AE
:1040A00067B90078B0FA80F04009704701230370C7
:1040B000704708B503F04EF820B1BDE80840002075
:1040C00003F060B808BD000010B586B0002202A958
:1040D0000320029203F024F8E0B9029C0CB123699A
:1040E00023B90E4A0E490A2003F00AF80C23039361
:1040F00001AB04930423059303AA236901212046FD
:10410000984738B9BDF8043000EE103ABBEECC0A3F
:1041100006B010BDBFEE000AFAE700BF51700B00F9
:1041200030C20B000EB403B503AB002153F8042BCF
:10413000019304F0FCFB02B05DF804EB03B07047A0
:10414000F8B5134D134E144F114802F06EFC04469F
:10415000E0B903F047FE314604F0C1FB3A680F496D
:104160002346284602F040FD30B103F03BFEBDE897
:10417000F8400B4904F0B3BB03F034FE094904F0E6
:10418000AEFB40F6B83004F09BFADDE7F8BD00BFA7
:10419000D8E2032056C20B0084E1032092C20B0038
:1041A00098C20B00B2C20B001FB56F4802F03DFC75
:1041B00008B9FFF7C5FFFFF787FF10EE100A05F0FB
:1041C000D9FB6A4B6A4A6B4CCDE9000180216A48F1
:1041D00003F0E6F8684A6949634802F0F3FD624873
:1041E00002F00CFD2378BBB1654B186805F0C2FBEB
:1041F000CDE90201634B186805F0BCFB624ACDE9CA
:10420000000180215C4803F0CBF85B4A5B495648CB
:1042100002F0D8FD002323705C4C2378BBB15C4BCB
:10422000186805F0A7FBCDE902015A4B186805F0A4
:10423000A1FB594ACDE9000180214F4803F0B0F8B5
:104240004D4A4E49484802F0BDFD00232370534CAF
:104250002378BBB1524B186805F08CFBCDE9020105
:10426000504B186805F086FB4F4ACDE900018021CC
:10427000414803F095F8404A40493B4802F0A2FD0E
:1042800000232370494C2378BBB1494B186805F0D3
:1042900071FBCDE90201474B186805F06BFB464AFC
:1042A000CDE900018021344803F07AF8324A3349DD
:1042B0002D4802F087FD00232370404C2378BBB1CA
:1042C0003F4B186805F056FBCDE902013D4B1868DD
:1042D00005F050FB3C4ACDE900018021264803F05F
:1042E0005FF8254A2549204802F06CFD0023237021
:1042F000364C2378BBB1364B186805F03BFBCDE953
:104300000201344B186805F035FB334ACDE9000152
:104310008021194803F044F8174A1849124802F05E
:1043200051FD002323702D4C2378BBB12C4B186812
:1043300005F020FBCDE902012A4B186805F01AFBB5
:10434000294ACDE9000180210B4803F029F80A4AE7
:104350000A49054802F036FD00232370024804B0E4
:10436000BDE8104002F04ABCD8E20320F4E3032089
:10437000E8C20B00BCE4032004E2032007C30B00E7
:1043800080E40320B8E303201FC30B00BDE4032037
:1043900084E40320BCE3032036C30B00BEE4032007
:1043A00088E40320C0E303204CC30B00BFE40320D8
:1043B0008CE40320C4E3032062C30B00C0E40320A9
:1043C00090E40320C8E3032078C30B00C1E403207A
:1043D00094E40320CCE303208EC30B00C2E403204B
:1043E00098E40320D0E30320A4C30B0070B502F0CF
:1043F000A9FEFFF75EFE002002F042FE1C4D0446BF
:104400000026002002F03CFE001B61F10001854205
:1044100076EB010305D302F09DFE10B902F08AFE8F
:10442000EFE702F097FEFFF744FE002002F028FEBF
:1044300047F230550446002002F022FE001B61F1D5
:104440000001A84271F1000309D2002002F0A2FE8F
:1044500028B102F07FFE10B102F06CFEEBE7002005
:1044600002F098FE18B1BDE8704002F073BE70BD56
:104470007FA9030073B5002422460DF107012046F1
:104480008DF8074002F02EFF9DF80730CBB10121D7
:104490002246084602F01EFF02F0E2FD0A4E0B4DD6
:1044A000044602F0DDFD001BB04205D802F0D8FD45
:1044B000286002F03FFEF4E702B0BDE8704004F06F
:1044C00057BB02B070BD00BFBFD4010044E703205A
:1044D00000B593B08449684604F0ADFA834904A856
:1044E00004F0A9FA04F0F4FE009A8149FFF71AFEDD
:1044F000C82004F0E5F804F0EBFE03681B69984758
:10450000002818DD03F06EFC7A49FFF70BFE04F07B
:10451000DFFE0A22014608A804F08EF908A904A8C3
:1045200004F0BAFA08A804F03BFA03F05BFC049A22
:104530007149FFF7F7FD04F0CBFE70491722FFF732
:10454000F1FDC82004F0BCF804F0C2FE03681B694A
:104550009847002818DD03F045FC6949FFF7E2FDA4
:1045600004F0B6FE0A22014608A804F065F908A97D
:1045700004A804F091FA08A804F012FA03F032FC3F
:10458000049A6049FFF7CEFD04F0A2FE5E490622C0
:10459000FFF7C8FDC82004F093F804F099FE036803
:1045A0001B699847002818DD03F01CFC5749FFF7EA
:1045B000B9FD04F08DFE0A22014608A804F03CF97A
:1045C00008A904A804F068FA08A804F0E9F903F0BF
:1045D00009FC049A4E49FFF7A5FD04F079FE4D4908
:1045E000FFF7A0FDC82004F06BF804F071FE03682B
:1045F0001B699847002818DD03F0F4FB4649FFF7D4
:1046000091FD04F065FE0A22014608A804F014F9A1
:1046100008A904A804F040FA08A804F0C1F903F0BE
:10462000E1FB049A3D49FFF77DFD04F051FE3C4952
:10463000FFF778FDC82004F043F804F049FE036852
:104640001B699847002818DD03F0CCFB3249FFF7BF
:1046500069FD04F03DFE0A22014608A804F0ECF8CA
:1046600008A904A804F018FA08A804F099F903F0BE
:10467000B9FB049A2B49FFF755FD04F029FE2A499E
:10468000FFF750FDC82004F01BF804F021FE03687A
:104690001B69984700281EDD03F0A4FB1E49FFF7A5
:1046A00041FD04F015FE0A22014608A804F0C4F8F2
:1046B00008A904A804F0F0F908A804F071F9282268
:1046C00008A9002304A804F013FA03F08BFB174990
:1046D00008AAFFF727FD04A804F062F9684604F071
:1046E0005FF913B05DF804FBBAC30B003BC90B00C4
:1046F000DBC30B00E8C30B0006C40B0011C40B00A6
:1047000021C40B003EC40B0051C40B0063C40B005A
:1047100082C40B0095C40B00A3C40B00B3C40B00F0
:10472000CAC40B00DAC40B00F1C40B00FCC40B00BC
:1047300000B589B01A49684604F07DF904F0C8FD57
:104740001849FFF7EFFC42F2107003F0B9FF04F0D4
:10475000BFFD03681B699847002818DD03F042FB82
:104760001149FFF7DFFC04F0B3FD0A22014604A85B
:1047700004F062F804A9684604F08EF904A804F075
:104780000FF903F02FFB009A0849FFF7CBFC04F068
:10479000EFF9684604F004F909B05DF804FB00BFC6
:1047A0003BC90B0014C50B0021C40B003EC40B0019
:1047B00038B5046805467CB16368013B63605BB94A
:1047C000236820469B689847A368013BA3601BB9F8
:1047D00023682046DB689847284638BD38B5314BFA
:1047E000314D00241C7004F003FD234622460221B3
:1047F00004F00EFD04F0FCFC23462246172104F0D1
:10480000FFFC2A492A4804F016F92A4802F0AAFCBB
:104810002949084603F074F92749284801F0E6FFC2
:104820002146274803F02AFF2946264804F003F9C9
:104830002946254804F0FFF82946244804F0FBF8EF
:104840002349244804F0F7F803222349234801F0C0
:10485000B1F92946224804F0EEF82946214804F02F
:10486000EAF82946204804F0E6F829461F4804F0F3
:10487000E2F829461E4804F0DEF81E4B1A1D1A60A5
:104880001D4A5A600122C3E902441A751C611B4B80
:10489000C3E90044A2F101129A60BDE83840022049
:1048A00002F008BDA4E103203BC90B001FC50B00AB
:1048B00084E1032068E103209CE30320D8E2032085
:1048C000D8E10320C8E10320E0E10320F0E1032068
:1048D00034C50B0094E103203FC50B0074E40320B2
:1048E00088E2032098E20320A8E20320B8E2032034
:1048F000C8E20320A8E103201000030078E10320B0
:1049000030B585B0002301A8CDE90133ADF80C30F6
:1049100003F071FB02F01EFC044610B102F00AFC29
:10492000F8E70B4D02F016FC686823462246214644
:1049300002F080FC284602F097FD10B902F0FAFB65
:10494000F8E7034805B0BDE8304002F08DBD00BF78
:1049500064E603201FB50121FF2003F09CFE03F055
:1049600041FA4FF4165103F031FA04F0B1FC4FF460
:10497000E13103F089F940F6B83003F0A1FEFFF70A
:10498000A7FD1C4B032201A80124CDE90123ADF8AA
:104990000C4003F04AFBFFF729FDFFF78AFB4FF0BD
:1049A000FF31154803F023FB40F25B7213491448B2
:1049B00002F019FAFFF7C4FBFFF7F6FB40F6B83038
:1049C00003F07EFEFFF79CFF21460A2003F063FE02
:1049D00002F046FB0B4B0C4A1860002313600B4A95
:1049E000137003F0FFF90A4B0A491A68FFF79AFBA4
:1049F00004B010BDC0D4010040E7032074DF0320E1
:104A0000D8E2032000E20320C0E10320C4E1032038
:104A100068E1032047C50B0030B52DED028B85B052
:104A2000FFF7E4FC2A4C2B4D4FF4966003F048FE50
:104A3000FFF74AFBD4ED007A27492848B0EE408AB8
:104A4000B8EE670A01F0C7F825492448B0EE480AD5
:104A500001F0C1F8234B2A781968204801F0C4F806
:104A60002B788DF8003002463C2320B31E490022EB
:104A700002A803F0EFFB03A8FFF79AFE4FF496603D
:104A800003F01EFE194B01221A70FFF7F3FC4FF4DE
:104A90007A7003F015FEFFF733FF154B00221A70F2
:104AA00002F0DEFA134B186023680133236005B06F
:104AB000BDEC028B30BD104902A803F0CBFB03A86C
:104AC000FFF776FE4FF4966003F0FAFDECE700BFC7
:104AD000C0E10320A4E1032055C50B0074E40320CA
:104AE0005DC50B0094E1032069C50B00C4E1032000
:104AF00084E2032000E203207EC50B00F0B5A34C46
:104B0000237887B013B1A24802F078F803F04CFE86
:104B10003B2818D102F01EFBC8B901210A2003F07E
:104B2000BAFD01232370FFF761FCFFF7C2FA994831
:104B30004FF0FF3103F05BFA954801F076FF30B992
:104B4000FFF7FEFA03E003F02FFE1D28E2D003F08A
:104B50002BFE002840F0B280FFF726FBFFF75CFF3A
:104B600004F0B6FB03681B699847002800F0A48096
:104B700004F0AEFB2C22014602A803F05DFE02A960
:104B80008548864D864C874E874F03F085FF02A8E7
:104B900003F006FF04F09CFB2C22014602A803F060
:104BA0004BFE02A9814803F077FF02A803F0F8FE4C
:104BB00004F08EFB2C22014602A803F03DFE02A861
:104BC00003F0B4FF02A885ED000A03F0E9FE04F04B
:104BD0007FFB2C22014602A803F02EFE02A803F060
:104BE000A5FF02A884ED000A03F0DAFE04F070FBD2
:104BF0000A22014602A803F01FFE02A803F090FF5C
:104C0000306002A803F0CCFE04F062FB014602A86B
:104C100003F0FEFD02A9384603F03EFF02A803F0B0
:104C2000BFFE03F0DFF83A686149FFF77BFA03F053
:104C3000D9F80746286804F09DFE0B4631680091BC
:104C400002465C493846FFF76DFA366895ED000A72
:104C5000012E39D15849594800F0BDFF584994ED0B
:104C6000000A564800F0B7FF564B2A6856491A60AA
:104C700023680B6055490A60554A1360554B1E70F6
:104C800004F026FB544C014602A803F0C1FD02A922
:104C9000204603F001FF02A803F082FE03F0A2F811
:104CA00022684E49FFF73EFA03F09CF80368DB697F
:104CB00098474B4B00221A7007B0F0BD03F074FD0B
:104CC0001E287FF44DAF47E7022E17D145493B48D8
:104CD00000F081FF444994ED000A384800F07BFF62
:104CE000424B2A6842491A6023680B6041490A60B6
:104CF000414A1360414B01221A70C1E7032E15D1BE
:104D00003F492E4800F067FF3E4994ED000A2B48CA
:104D100000F061FF3C4B2A683C491A6023680B6035
:104D20003B490A603B4A13603B4BE4E7042E15D134
:104D30003A49224800F04FFF394994ED000A1F48D4
:104D400000F049FF374B2A6837491A6023680B6027
:104D500036490A60364A1360364BCCE7052E79D1C6
:104D60003549164800F037FF344994ED000A1348DE
:104D700000F031FF324B2A6832491A6023680B6019
:104D800031490A60314A1360314BB4E784E20320B1
:104D9000D8E2032040E7032088E20320E8E3032071
:104DA0009CE4032098E30320E0E1032098E2032041
:104DB0009FC50B00B3C50B00D2C50B0074E40320E4
:104DC000DBC50B00E4E30320B0E40320B8E30320D9
:104DD00080E40320BCE40320F0E103205EC60B0066
:104DE000C4E10320E7C50B00F1C50B00ECE3032091
:104DF000B4E40320BCE3032084E40320BDE40320E7
:104E0000FEC50B0009C60B00F0E30320B8E4032045
:104E1000C0E3032088E40320BEE4032017C60B0090
:104E20001BC60B00D4E30320A0E40320C4E303204B
:104E30008CE40320BFE4032026C60B002AC60B0027
:104E4000D8E30320A4E40320C8E3032090E4032074
:104E5000C0E40320062E15D11A491B4800F0BBFE02
:104E60001A4994ED000A184800F0B5FE184B2A685C
:104E700018491A6023680B6017490A60174A1360C3
:104E8000174B38E7072E15D116490F4800F0A3FE3F
:104E9000154994ED000A0C4800F09DFE134B2A685A
:104EA00013491A6023680B6012490A60124A1360A2
:104EB000124B20E71249044800F08DFEFFF738FC42
:104EC000DEE600BF35C60B0074E4032039C60B00D4
:104ED000DCE30320A8E40320CCE3032094E40320D4
:104EE000C1E4032044C60B0048C60B00E0E30320E6
:104EF000ACE40320D0E3032098E40320C2E40320C1
:104F000053C60B009FED010A704700BF5F42A2CD60
:104F1000017470470022011DC0E90221C0E904129A
:104F20000271704730B585B01A46089B1B788DF822
:104F3000003002A83C2303F08DF90020029C02F00F
:104F4000D9F920B1637813B902F0F4F8FAE763787D
:104F5000BFF35B8F651CABB90025039C7CB1636814
:104F6000013B63605BB9236820469B689847A36850
:104F7000013BA3601BB923682046DB68984728469D
:104F800005B030BD002002F0B5F920B12B7813B97F
:104F900002F0D0F8FAE72378012BDDD1257BDCE79E
:104FA00010B5044C0460C0E901130024029B047492
:104FB000C36010BD7CC60B009FED010A704700BFA7
:104FC0005F42A2CD017570470022011DC0E9022198
:104FD000C0E904120271704730B5064D0560C0E9A2
:104FE00001130025039B057541F28835C0E90332A2
:104FF000856130BD40C70B0030B54D6889B00446AF
:10500000284605F0C6F8002381B2009303AA28467B
:1050100002F00EF830B903A9204602F051FF2046F5
:1050200009B030BDF323009337223D23A921204648
:1050300002F07CFFF3E70000F0B58FB001460646B2
:1050400002A81F46FFF7D8FF02A802F04BFFA0B945
:10505000337D23B102F0C6FE274903F040FCF32361
:10506000009337223D23A92108A809AD02F05EFF75
:105070000FCD03AC0FC42B682370002240F2BD217A
:105080001E4804F007F8002242F234311B4803F0B6
:10509000EFFD03AD1A4B08930FCD09AC0FC42B687D
:1050A0001648237042F2343208A904F00FF858B9B8
:1050B000337D23B102F096FE124903F010FC0F4835
:1050C00003F022FE002014E0002FF1D0384605F056
:1050D00060F839460246094803F024FE0028E7D06C
:1050E000064803F06BFD0028E2D0044803F00CFEF4
:1050F00001200FB0F0BD00BF8CC60B00C4E403203C
:10510000B4CC0B0018C70B00014803F091BF00BFDF
:10511000C4E4032013B51C20FEF7BDFF044648B1CC
:10512000064B07491B6800930968064B42F234326C
:1051300001F04CF8204602B010BD00BF98E50320F6
:1051400094E5032050C70B0013B52020FEF7A3FF02
:10515000044640B1054B06491B6800930968054B9E
:10516000502200F041FA204602B010BD98E503201D
:1051700094E5032050C70B0013B51C20FEF78BFFEE
:10518000044648B1064B07491B6800930968064B63
:1051900042F23432FFF720FF204602B010BD00BFBC
:1051A00098E5032094E5032050C70B0013B51420A5
:1051B000FEF771FF044640B1054B06491B6800939A
:1051C000002309681A46FFF7EBFE204602B010BD27
:1051D00098E5032094E50320012A02D10160002014
:1051E0007047022A04BF0B680360F8E7036818479A
:1051F00010B58368044613B1032201469847204640
:1052000010BD000010B586B000220346049221B103
:105210000F4A05920F4A0291049202AA92E80300F3
:105220006C4684E8030093E8030082E8030094E8F6
:10523000030083E803000499986804909960D86893
:105240000599D96005901046FFF7D2FF06B010BD52
:10525000ED510B00D9510B0038B584690A4B03603E
:1052600005467CB16368013B63605BB923682046F7
:105270009B689847A368013BA3601BB9236820463D
:10528000DB689847284638BDA4CB0B0010B5044610
:10529000FFF7E2FF20461C21FEF701FF204610BD6C
:1052A0002DE9F04100F10801C2680B464AB1177CB4
:1052B0000678D2E90245B7422ABF13462A4622465B
:1052C000F4E7994204D000781A7C904238BF0B462C
:1052D000DA690AB904F0D5F8BDE8F0411A6A03F1B9
:1052E00014001047F8B58B68164604460D1D0122C0
:1052F00063B11D7C3278D3E90270954288BF0122E8
:105300001D4696BF00223B460346F1E792B1CA68AC
:10531000AA4203D1C4E900352046F8BD284604F06E
:1053200053F83378027C9A424FF00003F2D3C4E979
:105330000003F1E72846F4E72DE9FF4700F10409EF
:10534000856806460F464C464DB1287C3978D5E92C
:10535000023288422ABF2C4615461D46F4E7A14575
:1053600003D03A78237C9A422FD22420FEF793FE72
:1053700097F800A080F810A00023A1458046C361E3
:1053800000F1100226D173691BB137693B7C53458C
:1053900009D3314602A8FFF7A5FFDDE90247002F38
:1053A00052D0002C4ED1B9454CD098F810003B7C1F
:1053B00098422CBF002001204B463A46414604F05B
:1053C00005F8736901337361444604F1140004B0B5
:1053D000BDE8F087237C0192534518D9F3689C42BD
:1053E00009D0204603F0F0FF037C019A534505D213
:1053F000C36853B9044627461C46D0E7314602A885
:10540000FFF770FFDDE90234F5E72346F3E71BD22F
:105410003769BC420BD0204603F0D4FF037C019ACD
:105420005345054605D9E36853B927461D462C4622
:10543000B5E7314602A8FFF755FFDDE90257F6E769
:105440000746F4E70120B7E708F11400FFF7D0FEA4
:1054500040462421FEF723FEA046B5E72DE9F3419F
:10546000051D0026174600F10802C0E90362C0E9E5
:10547000052604468846067203700DF107010123D4
:1054800028468DF80730FFF757FF1649FFF7BAFE99
:105490000DF1070128468DF80760FFF74DFF12490F
:1054A000FFF7B0FE02230DF1070128468DF8073003
:1054B000FFF742FF0D49FFF7A5FE03230DF107019A
:1054C00028468DF80730FFF737FF0949FFF79AFEA6
:1054D000084BC3F80080084B20461F6002B0BDE8AF
:1054E000F08100BF15510B0049510B0079510B00A1
:1054F000AD510B0094E5032098E5032008B505485D
:1055000002F0FEFA044802F0FBFABDE80840034846
:1055100003F08EBD78E5032010E503202CE5032081
:10552000017570470022011DC0E90221C0E9041283
:105530000271704770B506462DED028B142001F004
:105540000FFF0546142001F00BFF0446304604F01F
:1055500020FE324600230238984214DD12F8011B67
:105560000D293AD111780A2937D151780D2934D132
:1055700091780A2931D10433F1181422284604F015
:1055800024FE00232B750A21284604F0C5FD06469B
:1055900028B30A21013004F0BFFD00B33146204694
:1055A00004F0D1FD204604F0F4FD2044002300F86F
:1055B000013C204604F064FD51EC100B04F0ECFCBF
:1055C00008EE100A204601F0D3FE284601F0D0FE76
:1055D000B0EE480ABDEC028B70BD0133BCE79FED15
:1055E000018AF5E75F42A2CD30B5074D0560002581
:1055F000C0E901130575039B41F2883585610525D6
:10560000C0E90332057730BD6CC90B002DE9F74FB7
:10561000DFF88C80DFF88CA0DFF88CB004460D46F4
:105620001746002640465FFA86F902F0E1F888BB8B
:10563000237F4B452ED9237DCBB102F0D3FB5146BE
:1056400003F03AF902F0CEFB294603F035F902F0F7
:10565000C9FB594603F030F902F0C4FB0A2249465F
:10566000019003F046F9019B184603F02CF9002342
:10567000BAB22946404602F03DF8237D23B102F03C
:10568000B1FB064903F02BF94FF47A7003F018F8D8
:105690000136C7E703B0BDE8F08F00BF8EC70B002F
:1056A0009CE5032064C70B007AC70B00F8B50546DC
:1056B0000C4640F2BD220021204604F0F6FC2B7D72
:1056C0004BB102F08FFB144903F009F902F08AFB99
:1056D000124903F004F9124E04F2BB27304602F0DF
:1056E00065F970B1304601F06FFF20702B7D2BB152
:1056F00002F078FB036821789B6898470134A74241
:10570000ECD12B7D33B102F06DFBBDE8F8400549CB
:1057100003F0E5B8F8BD00BFB3C70B009FC70B008F
:105720009CE50320B2C70B00F8B50E4F04460026D7
:10573000384602F03BF9054690B9A369B3420FDD44
:10574000012002F0BDFFA3690136B342F0DC207DE9
:1057500028B102F047FB044903F0C1F82846F8BD20
:105760000120FCE79CE50320BEC70B00F8B50F46FF
:105770000269416804461D46FFF748FF784802F079
:1057800037F80646002800F0E1807649744803F0B7
:1057900093F83946724803F08FF87349704803F064
:1057A0008BF872496E4803F087F861686C4803F023
:1057B00083F86F496A4803F07FF86E49684803F040
:1057C0007BF8A168664803F077F86949644803F0FC
:1057D00073F86949624803F06FF8E168604803F0C4
:1057E0006BF863495E4803F067F864495C4803F06E
:1057F00063F863495A4803F05FF8284604F0C9FC8F
:1058000060490646564803F057F80A223146544884
:1058100003F06FF85C49524803F04EF829465048AF
:1058200003F04AF852494E4803F046F84C4801F05C
:10583000E5FE237D002B69D002F0D4FA534903F032
:105840004EF802F0CFFA474903F036F802F0CAFAF0
:10585000394603F031F802F0C5FA434903F02CF859
:1058600002F0C0FA414903F027F802F0BBFA616880
:1058700003F022F802F0B6FA3D4903F01DF802F0F9
:10588000B1FA3C4903F018F802F0ACFAA16803F051
:1058900013F802F0A7FA364903F00EF802F0A2FA64
:1058A000354903F009F802F09DFAE16803F004F8C5
:1058B00002F098FA2E4902F0FFFF02F093FA2F4906
:1058C00002F0FAFF02F08EFA2D4902F0F5FF02F025
:1058D00089FA2C4902F0F0FF02F084FA0A223146DC
:1058E00003F007F802F07EFA274902F0E5FF02F024
:1058F00079FA294602F0E0FF02F074FA1C4902F03E
:10590000DBFF02F06FFA224902F0E9FF2046FFF7C1
:105910000BFF237D2BB90124114802F0A1F820468A
:10592000F8BD02F05FFA1B490D4D02F0D8FF284682
:1059300002F03CF80028EED0284601F045FE04466F
:1059400002F050FAE1B202F0BBFFF0E7247D002C38
:10595000E2D002F047FA104902F0C1FF3446DBE71B
:105960009CE50320F1C70B0009C80B0015C80B000C
:1059700039C90B001CC80B0029C80B0038C80B0024
:105980004CC80B006DC80B0037C90B007EC80B005C
:105990009AC80B00B8C80B00D4C80B0070B52DED29
:1059A000028B044600230E46154641686648502285
:1059B00001F0A0FE204661685022FFF727FE6248F2
:1059C00001F016FF002800F0B68060495E4802F042
:1059D00073FF31465C4802F06FFF5D495A4802F0A0
:1059E0006BFF2946584802F067FF5A49564802F0B3
:1059F00063FF5949544802F05FFF5849524802F08A
:105A00005BFF6168504802F057FF55494E4802F06D
:105A100053FF54494C4802F04FFFA1684A4802F036
:105A20004BFF4F49484802F047FF4F49464802F0B4
:105A300043FFE168444802F03FFF4949424802F011
:105A40003BFF4A49404802F037FF237D002B4FD0EF
:105A500002F0C8F93D4902F02FFF02F0C3F93146C8
:105A600002F02AFF02F0BEF9394902F025FF02F0E8
:105A7000B9F9294602F020FF02F0B4F9354902F0E5
:105A80001BFF02F0AFF9344902F016FF02F0AAF949
:105A9000324902F011FF02F0A5F9616802F00CFF33
:105AA00002F0A0F92E4902F007FF02F09BF92D4900
:105AB00002F002FF02F096F9A16802F0FDFE02F08A
:105AC00091F9274902F0F8FE02F08CF9264902F01C
:105AD000F3FE02F087F9E16802F0EEFE02F082F9CF
:105AE0001F4902F0E9FE02F07DF9204902F0E4FED0
:105AF0002046FFF719FE48B913489FED1D8A01F0B3
:105B0000AFFFB0EE480ABDEC028B70BD4FF42F70B2
:105B100001F026FC014605462046FFF7C7FD284652
:105B2000FFF708FD0848B0EE408A01F099FF2846CB
:105B300001F01EFCE5E7237D002BDDD002F052F9D9
:105B40000C4902F0CCFED7E79CE50320FEC80B0011
:105B500013C90B0015C90B0009C80B0015C80B00B1
:105B600039C90B001CC80B0029C80B0019C90B0050
:105B70005F42A2CD3CC90B00014801F0C1BF00BF8C
:105B80009CE5032073B5037204465020CDE9002143
:105B90001E4601F0E5FB60601420FEF77CFA054626
:105BA00020B1DDE90021334600F061F8256002B044
:105BB00070BD000038B50025044613464572857255
:105BC000024AFFF7DFFF204638BD00BF7CC90B004B
:105BD000006800F055B807B5002300931A46FFF798
:105BE000F7FF03B05DF804FB006800F069BA38B550
:105BF000044684B1E068FFF7FAFFE369A56823B1C2
:105C000004F1140103220846984720462421FEF798
:105C100046FA2C46EDE738BDF0B58DB0044601A834
:105C20000D4617461E4601F09DFA03980130FEF717
:105C300034FA0199206004F086FA2A463946334640
:105C4000E67405A8FFF70AFCC82001F089FBE060B4
:105C500005A8FFF725FB0023C4E901052374089874
:105C6000FFF7C5FF01A802F09BFE0DB0F0BD38B5EF
:105C7000002504460582FFF7CFFF204638BD00000F
:105C800038B504460120607494F91000E56800EB13
:105C9000800045F8201094F91010E06801EB8101B4
:105CA00000EB810181ED020A94F91010E06801EB2C
:105CB000810100EB81014A6094F91020E16802EB58
:105CC000820201EB8202D36094F91030E26803EBA8
:105CD000830302EB8303049A1A61237C01335BB2D2
:105CE0000A2B237408DDA37C23B102F07BF803495F
:105CF00002F0F5FD0A23237438BD00BF97C90B00DD
:105D000010B510EE100A86B00C4603F033FE0246C2
:105D10000B4601A80A4901F03BFB01A8142200230D
:105D200010F8011B202906D0E1540133DBB211B970
:105D3000E15406B010BD013A12F0FF02F0D1F8E7CD
:105D4000D6C90B002DE9F04F0C4689B04D49DFF85C
:105D50005881DFF85891DFF858A10546204604F035
:105D6000F2F9002695F910309E4269DAEB6806EBED
:105D7000860B03EB8B0393ED020A03A92846FFF77A
:105D8000BFFFEB6803A9009153F82B302246414630
:105D9000204601F0FDFAEB684FEA8B073B44DB68D5
:105DA0003BB349462246204601F0F2FAEB683B44F9
:105DB0001969002937D00A20642291FBF0FC91FB7D
:105DC000F2F200FB1C119CFBF0F392FBF0FE00FBD7
:105DD00013C300FB1E22C9B20091DBB22A49D2B222
:105DE00002A801F0D5FA294902AB2246204601F06B
:105DF000CFFAEB683B445B6823B125492246204635
:105E000001F0C6FA22462349204601F0C1FA0136C4
:105E100095F91030F6B29E4222460ADA1E49204613
:105E200001F0B6FA9EE722465146204601F0B0FA4C
:105E3000DFE71849204601F0ABFA00232B7491E705
:105E4000AB7CDBB101F0CEFF144902F048FD01F05C
:105E5000C9FF134902F043FD01F0C4FF214602F0DF
:105E60003EFD01F0BFFF0D4902F039FD01F0BAFF20
:105E70000C4909B0BDE8F04F02F031BD09B0BDE8F2
:105E8000F08F00BFDBC90B0003CA0B000ACA0B006E
:105E900015CA0B0024CA0B0028CA0B00B3C70B009D
:105EA0002CCA0B003BC90B00DDC90B00F0C90B006D
:105EB0000FCA0B002DE9F04F0C46054689B0534937
:105EC000DFF87881DFF87891204616461F4604F007
:105ED0003AF9AB684E4A4F49204601F059FA334629
:105EE0004D4900972246204601F052FA4B494A4F4D
:105EF0002246204601F04CFA002695F910309E42C9
:105F000063DAEB6806EB860B03EB8B0393ED020A77
:105F100003A92846FFF7F4FEEB6803A9009153F8A4
:105F20002B3022463946204601F032FAEB684FEA20
:105F30008B0A53445B6823B122464146204601F058
:105F400027FAEB685344DB6833B3494622462046C0
:105F500001F01EFAEB685344196949B30A20642220
:105F600091FBF0FC91FBF2F200FB1C119CFBF0F3A7
:105F700092FBF0FE00FB13C300FB1E22C9B200918E
:105F8000DBB22749D2B202A801F002FA254902ABDE
:105F90002246204601F0FCF995F910300136F6B2A0
:105FA0009E4222460ADA2049204601F0F1F9A4E790
:105FB0001E492246204601F0EBF9EDE71C49204638
:105FC00001F0E6F900232B7497E7AB7CDBB101F01D
:105FD00009FF184902F083FC01F004FF164902F0A2
:105FE0007EFC01F0FFFE214602F079FC01F0FAFE92
:105FF000104902F074FC01F0F5FE044909B0BDE857
:10600000F04F02F06CBC09B0BDE8F08F3BC90B004B
:1060100050C70B0035CA0B0041CA0B0049CA0B0020
:1060200003CA0B000ACA0B0028CA0B000FCA0B00D8
:106030005BCA0B00B3C70B002CCA0B004ECA0B0087
:1060400054CA0B002DE9F74304464FF42F701E4647
:106050000F46904601F084F9E37C013B012B054695
:1060600026D8014643463A462046FFF723FFA37C45
:1060700023B101F0B7FE114902F031FC60680368FA
:106080000096D3F8009039462B464246C84707464B
:10609000284601F06DF91EB101213046FDF7FFFFE2
:1060A000002307B163743846237403B0BDE8F0835E
:1060B00001462046FFF746FED9E700BF62CA0B0043
:1060C00070B5044601200D461646FDF7E4FF067044
:1060D00003462A4629462046BDE87040FFF7B2BF76
:1060E0002DE9F0470446182015460F46FDF7D3FF6B
:1060F00007F1040A6B68D5F80090BA684361064658
:10610000C0F810905546012352B11369D2E902013B
:106110004B451546CBBF0123002302460A46F3E751
:10612000ABB1FB68AB4224D0284603F04DF9804662
:10613000D8F810304B451CDB18213046FDF7AFFF77
:10614000C4F80080002323712046BDE8F087A846EC
:10615000EEE728698145ACBF0020012053462A465E
:10616000314603F033F97B69266001337B610123FB
:10617000E9E7AA45EDD10120F0E7000008B5074B9B
:10618000074800221A7001F0BBFC064801F0B8FC79
:10619000BDE80840044802F04BBF00BF3CE60320C6
:1061A00020E60320B8E50320D4E5032001757047FD
:1061B00038B504464CB1E068FFF7FAFFA568204601
:1061C0001821FDF76CFF2C46F4E738BD30B5064DBD
:1061D0000560C0E901130025039B057541F2883570
:1061E000C0E90332856130BD0CCB0B002DE9F84FBF
:1061F0000D461746804601F0F5FD1E491E4EDFF89C
:106200007CA0DFF87CB002F06AFB0024304601F08D
:106210003EFC60BB052C2AD098F81430C3B101F0C5
:10622000E1FD514602F048FB01F0DCFD294602F099
:1062300043FB01F0D7FD594602F03EFB01F0D2FDD1
:106240000A228146214602F054FB484602F03BFBFD
:10625000304601F005FC0023BAB22946304601F071
:1062600049FA4FF47A7002F02BFA0134CEE7BDE818
:10627000F88F00BF72CA0B0040E6032064C70B0012
:106280007AC70B0070B504460E4681682E48154645
:1062900002F012FB2D492C4802F00EFBE1682A485F
:1062A00002F00AFB2A49284802F006FB314626483C
:1062B00002F002FB2749244802F0FEFA2946224850
:1062C00002F0FAFA2449204802F0F6FA237D002B66
:1062D00038D001F087FD214902F001FB01F082FD79
:1062E0001F4902F0FCFA01F07DFDA16802F0E4FA1A
:1062F00001F078FD154902F0DFFA01F073FDE16865
:1063000002F0DAFA01F06EFD114902F0D5FA01F05F
:1063100069FD314602F0D0FA01F064FD0D4902F04A
:10632000CBFA01F05FFD294602F0C6FA01F05AFDF2
:10633000094902F0C1FA01F055FDBDE87040094974
:1063400002F0CDBA70BD00BF40E603208ACA0B0040
:106350008DCA0B0033CA0B005DCA0B00A5CA0B0027
:106360008FCA0B00A4CA0B00F8B50E4F04460026D6
:10637000384601F01BFB054690B9A369B3420FDD17
:10638000012002F09DF9A3690136B342F0DC207DC3
:1063900028B101F027FD044902F0A1FA2846F8BD12
:1063A0000120FCE740E60320BEC70B002DE9F047C3
:1063B000037D0646884614464BB101F013FD27497C
:1063C00002F08DFA01F00EFD254902F088FADFF89F
:1063D000A490002540F2BB2A484601F0E7FA78B1C4
:1063E000484601F0F1F8337DC7B22BB101F0FAFC59
:1063F000036839469B689847675501355545EBD189
:10640000337D23B101F0EEFC164902F068FA002357
:1064100063551549404603F08CFE68B91349204680
:1064200003F0E6FE9FED120A0028F7EE007A18BF8F
:10643000B0EE670ABDE8F0877C21204603F06CFED1
:1064400048B1013003F01CFE51EC100B03F0A4FD29
:1064500000EE100AEEE79FED060AEBE7B3C70B006C
:106460009FC70B00B2C70B00AACA0B00AFCA0B0034
:106470005F42A2CD40E6032070B52DED028B0446AD
:106480004168224842F234321D46002301F032F9BD
:106490002046616842F23432FFF7A8FE1B4801F043
:1064A000A7F980B12946194802F006FA2046FFF7FD
:1064B0005BFF054680B9154801F0D2FA0025BDEC16
:1064C000028B284670BD237D002BF4D001F08AFC9E
:1064D0000F4902F004FAEEE7642000F041FF0D4995
:1064E000024606462046FFF761FF3046B0EE408A7E
:1064F00000F03EFFDFED087AB4EE678AF1EE10FAA5
:10650000D9D0024801F0ACFAD9E700BF40E6032039
:10651000B2CA0B00AACA0B005F42A2CD70B52DED26
:10652000028B044600230D46164641681E4842F27F
:10653000343201F0DFF82046616842F23432FFF76E
:1065400055FE194801F054F928B320463246294631
:10655000FFF798FE2046FFF707FF48B912489FED66
:10656000138A01F07DFAB0EE480ABDEC028B70BDD3
:106570004FF42F7000F0F4FE0D4902460546204608
:10658000FFF714FF0848B0EE408A01F069FA284688
:1065900000F0EEFEE7E7237D002BDFD001F022FCC8
:1065A000044902F09CF9D9E740E603205F42A2CDFE
:1065B000D0CA0B00D3CA0B002DE9FF470D46044695
:1065C0004FF42F7000F0CCFE2B7D07464BB101F04D
:1065D00009FC3A4902F083F901F004FC384902F061
:1065E0007EF9DFF8F090002640F2BB2A484601F021
:1065F000DDF988B1484600F0E7FF2B7D5FFA80F8AF
:106600002BB101F0EFFB036841469B68984707F800
:10661000068001365645E9D12B7D23B101F0E2FB1E
:10662000284902F05CF90025231DC4E90253C4E99E
:106630000435254925713846BD5504F01FFCDFF8A7
:106640009890DFF898A0DFF8808006467EB3494630
:10665000304603F06EFD00BB414604F00FFC1B49C1
:10666000064603F066FD18B9194B0095019308E042
:10667000304603F005FD51EC100B009503F08CFC47
:1066800001906A46214602A8FFF72AFD41460020F4
:1066900004F0F4FB01350646D8E75146304603F0D6
:1066A00048FD0028F2D1414604F0E8FBDCE738461B
:1066B00000F05EFE204604B0BDE8F087B3C70B00D3
:1066C0009FC70B00B2C70B008DCA0B00F9CA0B00A5
:1066D0005F42A2CD40E60320AFCA0B00FECA0B000A
:1066E0002DE9F041071D98460023C0E90237C0E9B3
:1066F000047303710D4688B04968044616462D4858
:1067000042F2343200F0F6FF2846696842F2343231
:10671000FFF76CFD274801F06BF810B33146424695
:106720002846FFF7AFFD2846FFF71EFE0646C0B914
:106730002048214F01F094F92049404604F09EFB87
:1067400035461E4E002830D0214602A86A460095E4
:106750000197FFF7C5FC31460020013504F08EFBA0
:10676000F0E7294602A8FFF727FFA068FFF720FD02
:10677000049A0023C4E90237C4E904737AB19DF88E
:106780000C1021710599E1600699A26021615760A2
:10679000079A626103AACDE905220493079304983E
:1067A000FFF706FD034801F05BF9204608B0BDE89D
:1067B000F08100BF40E603205F42A2CD2ACA0B0051
:1067C000014801F09DB900BF40E6032070B50446C2
:1067D000054B44F8043B0D1D06460FCD0FC42B6836
:1067E0002370304670BD00BFB4CC0B0038B50446F2
:1067F00098300D4601F056FB4FF0FF33C4F8BC3023
:1068000000232560C4F8B830204638BD2DE9F0419A
:1068100005460E4600F024FC43F6972807462868F4
:1068200003681B699847044630B900F019FCC31B84
:106830004345F4D9204605E0286803685B6998471A
:1068400030700120BDE8F08138B515882944144620
:10685000FFF7DCFF08B10135258038BD2DE9F7438E
:10686000051D884600270DF1060229460446ADF8AD
:106870000670FFF7E9FF18B9002003B0BDE8F08308
:1068800094F804908DF8057001260DF1050120465D
:10689000FFF7BCFF0028EFD0BDF806209DF80510DB
:1068A000531C22449BB2117101F07F0212FB06F2CD
:1068B00017440A06ADF80630BFB24FEAC616E4D454
:1068C00009F0F009013BB9F1300F88F800301ED112
:1068D0000DF1060229462046FFF7B6FF0028CBD06F
:1068E0000DF1060229462046FFF7AEFF0028C3D06F
:1068F00098F8003023445A799E79237906EB0226D2
:106900009B07B6B201D50236B6B2022501E00025DA
:106910002E46ADB2BD4226D20DF105012046FFF74D
:1069200075FF0028A8D0D4F8B80078B1B9F1300FBD
:106930000CD1BDF8063098F800209B1A023BB342F8
:1069400004DD03689DF805109B689847BDF8063084
:106950007F2B9EBFE2189DF8051011710133ADF831
:1069600006300135D5E7D4F8B8302BB9BDF806208C
:10697000802A88BFADF80630BDF806007DE72DE916
:10698000F34115461E461A4607460023964602A8BE
:1069900002F07F0CBEF17F0F03F10104034488BFB6
:1069A0004CF0800CBEF17F0F4FEAD212E4B203F834
:1069B00004CC20D8C4F10403C4F10500E9542246F4
:1069C00001A9284405EB030803F061FB386803685C
:1069D000721C2244DB6841469847054600F040FBA4
:1069E000621CC7F888003244A8B2131A58425841B2
:1069F00002B0BDE8F0812346C8E70233F0B50139A3
:106A00009CB200235E1C14FA83F08F5D9DB280B2AD
:106A100017B117543346F5E799B2411A0A44290AC7
:106A200002F8021C02F8013CF0BD38B504460068CB
:106A300008B9002038BD03681B6B984780B9D4F8AB
:106A4000BC50002DF5D120686FF00203C4F8BC30B3
:106A50000368DB69984720680368DB6A9847E8E7C2
:106A60000120E7E72DE9F04F8BB00446DDF85080B8
:106A7000894617461E46FFF7D8FF0546002840F016
:106A8000A580D4F800A0D4F8B010DAF800300029BE
:106A900079D0B4F8B420D3F824B003465046D84790
:106AA000012840F09A804F4BA4F884009A88ADF8F2
:106AB00014201868BDF814209B7904908DF81630C6
:106AC000C4F80900A4F80D20E373B8F1000F66D0F4
:106AD0009DF858309DF854205B0143EAC20343F00F
:106AE0000603DBB21FB1002E5BD143F08003237499
:106AF000002363740F23221DA3744946204601928C
:106B0000FFF77BFF019A0346B8F1000F0BD0414617
:106B10002046FFF772FF019A179903462046FFF7B8
:106B20006CFF019A03466FB1394620460192FFF788
:106B300064FF019A03462EB131462046FFF75DFF00
:106B4000019A0346053B9BB210212046FFF717FF31
:106B500000F086FAC4E9220043F69726206803680D
:106B60001B69984700BB00F07BFAD4F88C30C01A40
:106B7000B042F3D96FF00303C4F8BC302068036857
:106B8000DB6A984722E004F1980104A8D3F820B00A
:106B9000FFF71CFEB4F8B4202B4604A97EE70223BD
:106BA000A0E743F0C003A2E70DF10F012046FFF775
:106BB00055FE0428E2D1E67966B900F051FA0125C4
:106BC000C4F88C0084F89060C4F8BC6028460BB010
:106BD000BDE8F08FC4F8BC60D0E76FF00103C4F8E3
:106BE000BC30F3E71CCB0B001FB50024CDE90244F9
:106BF000CDE90044FFF736FF04B010BD2DE9F04F9A
:106C000085B000AF0446FFF710FF8146D8B100F011
:106C100027FAD4F88C3043F69822C31A9342804660
:106C200004D8D4F88830C31A93421ED994F890300F
:106C300020686BB16FF00303C4F8BC300368DB6AF3
:106C400098474FF0000948461437BD46BDE8F08F1D
:106C50002146C02321F8043F03680222DB689847DD
:106C6000C4E92288012384F89030206803681B69F6
:106C700098470028E7D007F10F012046FFF7EEFD07
:106C800005460028DFD023797B6003F0F003302B2A
:106C9000C4F88C804DD1D4F894A0BAF1000FD2D0B2
:106CA000FE7BA319EB4659799A7902EB012292B245
:106CB00002F10803DB08ABEBC3039D46F11D214441
:106CC00068463A6003F0E3F979683A6801F0060132
:106CD000A81B00230338022906F103010DF8023036
:106CE000A0EB020004F1040311441DD121447B6098
:106CF00091F804C04D79711D05EB0C251144194420
:106D0000821EADB26846D0476DBA2068E5804FF468
:106D10001072A28002687B68D56819460422A847D1
:106D2000C4F88880DD468EE7024619446846D0479D
:106D3000F8E7C02B09D1D0232146A38051F8040BDA
:106D400003680222DB6898477DE7D02B04BF00234D
:106D500084F8903077E72DE9F34104469DF82070E0
:106D6000884616461D46FFF760FE38B3404603F0DE
:106D700010FAEB1D1844802820D8221D0523414617
:106D800020460192FFF739FE019A0023C1189D4267
:106D900089B207D9214416F803C081F804C0013331
:106DA0009BB2F3E74B1F002F9BB20CBF3021312168
:106DB000204602B0BDE8F041FFF7E1BD002002B07F
:106DC000BDE8F0811FB5044610460391029203F01E
:106DD000E0F9034600200090DDE902212046FFF79C
:106DE000BAFF04B010BDC0F8B010A0F8B4207047CE
:106DF00008B5024B1B681B68019308BD4C020300D9
:106E000008B5024B1B685B68019308BD4C02030088
:106E100008B5024B1B681B69019308BD4C020300B7
:106E200008B5024B1B685B69019308BD4C02030067
:106E300008B5024B1B689B69019308BD4C02030017
:106E400008B5024B1B68DB69019308BD4C020300C7
:106E500008B5024B1B681B6A019308BD4C02030076
:106E600008B5024B1B681B6A019308BD280203008A
:106E700008B5024B1B685B6A019308BD280203003A
:106E800008B5024B1B689B6A019308BD28020300EA
:106E900008B5024B1B68DB6A019308BD280203009A
:106EA00008B5024B1B681B6B019308BD2802030049
:106EB00008B5024B1B681B6C019308BD2802030038
:106EC00008B5024B1B689B6C019308BD28020300A8
:106ED00008B5024B1B685B68019308BD38020300CC
:106EE00008B5024B1B689B69019308BD380203007B
:106EF00008B5024B1B68DB69019308BD380203002B
:106F000008B5024B1B681B6A019308BD38020300D9
:106F100008B5024B1B689B6A019308BD3802030049
:106F200008B5024B1B68DB6A019308BD38020300F9
:106F300008B5024B1B681B6B019308BD38020300A8
:106F400008B5024B1B685B6B019308BD3802030058
:106F500008B5024B1B689B6B019308BD3802030008
:106F600008B5024B1B68DB68019308BD3C020300B7
:106F700008B5024B1B681B69019308BD3C02030066
:106F800008B5024B1B685B69019308BD3C02030016
:106F900008B5024B1B689B69019308BD3C020300C6
:106FA00008B5024B1B68DB69019308BD3C02030076
:106FB00008B5024B1B689B6A019308BD3C020300A5
:106FC00008B5024B1B68DB6A019308BD3C02030055
:106FD00008B5024B1B681B6C019308BD3C02030003
:106FE00008B5024B1B685B69019308BD640203008E
:106FF00008B5024B1B681B6A019308BD64020300BD
:1070000008B5024B1B685B6A019308BD640203006C
:1070100008B5024B1B689B6A019308BD640203001C
:1070200008B5024B1B685B6C019308BD4802030066
:1070300008B5024B1B68DB6B019308BD74020300AB
:1070400008B5024B1B685B68019308BD180203007A
:1070500008B5024B1B68DB68019308BD18020300EA
:1070600008B5024B1B685B69019308BD1802030059
:1070700008B5024B1B689B6D019308BD1802030005
:1070800008B5024B1B68DB6D019308BD18020300B5
:1070900008B5024B1B685B6E019308BD1802030024
:1070A00008B5024B1B685B69019308BD6C020300C5
:1070B00008B5024B1B689B68019308BD680203007A
:1070C00008B5024B1B68DB68019308BD680203002A
:1070D00008B5024B1B681B69019308BD60020300E1
:1070E00008B5024B1B689B69019308BD6002030051
:1070F00008B5024B1B68DB69019308BD6002030001
:1071000008B5024B1B685B6B019308BD600203006E
:1071100008B5024B1B681B6D019308BD600203009C
:1071200008B5034B1B68D3F89830019308BD0000E5
:107130006002030008B5024B1B689B68019308BD01
:107140004402030008B5024B1B68DB68019308BDCD
:107150004402030008B5024B1B685B69019308BD3C
:107160004402030008B5024B1B68DB69019308BDAC
:107170004402030008B5024B1B681B6A019308BD5B
:107180004402030008B5024B1B68DB6A019308BD8B
:107190004402030008B5024B1B681B6B019308BD3A
:1071A0004402030008B5024B1B689B6B019308BDAA
:1071B0004402030008B5024B1B68DB6B019308BD5A
:1071C0004402030008B5024B1B681B6C019308BD09
:1071D0004402030008B5024B1B685B6C019308BDB9
:1071E0004402030008B5024B1B685B68019308BDAD
:1071F0004002030008B5024B1B689B68019308BD61
:107200004002030008B5024B1B68DB68019308BD10
:107210004002030008B5024B1B681B69019308BDBF
:107220004002030008B5024B1B685B69019308BD6F
:107230004002030008B5024B1B689B69019308BD1F
:107240004002030008B5024B1B68DB69019308BDCF
:107250004002030008B5024B1B681B6A019308BD7E
:107260004002030008B5024B1B681B6B019308BD6D
:107270004002030008B5024B1B685B6B019308BD1D
:107280004002030008B5024B1B681B6C019308BD4C
:107290004002030008B5024B1B685B6C019308BDFC
:1072A0004002030008B5024B1B681B68019308BD30
:1072B0002002030008B5024B1B685B68019308BD00
:1072C0002002030008B5024B1B685B69019308BDEF
:1072D0002002030008B5024B1B689B6B019308BD9D
:1072E0002002030008B5024B1B68DB6B019308BD4D
:1072F0002002030008B5024B1B68DB6C019308BD3C
:107300002002030008B5024B1B685B6D019308BDAA
:107310002002030008B5024B1B689B6D019308BD5A
:107320002002030008B5034B1B68D3F88830019393
:1073300008BD00002002030008B5034B1B68D3F80A
:107340009430019308BD00002002030008B5034BF0
:107350001B68D3F8B030019308BD00002002030081
:1073600008B5024B1B681B68019308BD1C02030093
:1073700008B5024B1B685B68019308BD1C02030043
:1073800008B5024B1B689B68019308BD1C020300F3
:1073900008B5024B1B68DB68019308BD1C020300A3
:1073A00008B5024B1B68DB69019308BD1C02030092
:1073B00008B5024B1B685B6A019308BD1C02030001
:1073C00008B5024B1B68DB6A019308BD1C02030071
:1073D00008B5024B1B681B6B019308BD1C02030020
:1073E00008B5024B1B68DB6B019308BD1C02030050
:1073F00008B5024B1B681B6C019308BD1C020300FF
:1074000008B5024B1B685B6C019308BD1C020300AE
:1074100008B5024B1B68DB6C019308BD1C0203001E
:10742000002340681A46FFF7DDBE406800220221B3
:10743000FFF7E8BE002240681146FFF7DBBE0022DE
:1074400040681146FFF7E6BE002340681A46194619
:10745000FFF7E8BE002340681A461946FFF7EABE68
:1074600040680021FFF70EBF40680021FFF712BF00
:107470004068002281F00101FFF7E4BE406800226D
:10748000FFF7F0BE002240681146FFF7F3BE00226E
:1074900040681146FFF7DEBE2DE9F04395B0144673
:1074A0000D46074600F0FEFC00211C220DA80091AD
:1074B00002F0FBFD40230C9320466B460CAA0021F2
:1074C000FFF7FEFD044600284BD102460121686803
:1074D000FFF7A0FE0221804622466868FFF79AFE69
:1074E000009E81462146002E3BD0002939D1736889
:1074F000022B03D00A2B11D0F669F4E7B8F1000F84
:10750000FAD0716906A8043107AD00F01BFD0FCD5C
:107510003C1D0FC42B6823704146EDE7B9F1000F05
:10752000EAD07469102201A802F0BFFD06238DF88D
:10753000143001AD04F108031834186859682A465C
:1075400003C20833A3421546F7D101A906A807AD27
:1075500000F0B6FC0FCD3C1D0FC42B6823704946CC
:10756000CAE70098FFF7A4FD384615B0BDE8F083E0
:10757000024B034A1A6000225A6070475CE60320FF
:107580002CCB0B0013B503688DF80710DC6B0122C0
:107590004FF0FF330DF10701A04702B010BD10B44A
:1075A0000368DC6B4FF0FF33A4465DF8044B604783
:1075B00013B5134602688DF80710D46B0DF107015F
:1075C0000122A04702B010BD10B54369B3F8862070
:1075D000B3F884309A42044608D06369B3F8842033
:1075E000511CA3F884101344187910BD03681B695B
:1075F00098470028F1D14FF0FF30F6E77047436914
:107600001868C043C00F704770470000064B99428E
:1076100010B500F10C0405D0084601F035FF002834
:1076200008BF0024204610BD94CB0B0010B5AC2140
:107630000446FCF734FD204610BDAC21FCF72FBDFD
:107640002DE9F0414FF0000886B01C46C0F80480D8
:1076500005460E4617464146102202A802F025FDB7
:10766000631C09D04FF47A73B4FBF3F203FB1244AA
:10767000CDE902285C4304946869102300930068F4
:1076800002AB41F2050240F6FF71FFF729FC00282A
:1076900007DAFFF7A5FE03686B60002006B0BDE8BF
:1076A000F0816869002300683A463146FFF740FCE4
:1076B000031EEEDB1846F1E730B587B0044601AD96
:1076C000684600F03FFC0FCD04340FC42B682370D4
:1076D00007B030BD70B54D69054B04468C3544F894
:1076E000043B06460FCD0FC42B682370304670BD97
:1076F000B4CC0B002DE9F0439846036893B00D46D7
:107700000024DB6A06461746984728466B46224601
:1077100021460094FFF7D4FC0546002863D1009B66
:10772000002B4BD05B69002B48D006A800F0BAFBB9
:10773000009B5C696378022B04D1211D06A8FFF72A
:10774000BBFF26E00A2B24D11122294601A802F012
:10775000ACFCA368002B38D004F108030DF1040C35
:10776000183418685968624603C20833A342944625
:10777000F7D1062301A90CA88DF8143000F0A0FB66
:107780000DF1340CBCE80F0007AC0FC4DCF800307E
:10779000237006A800F0A6FB80B1336807ADD3F8CC
:1077A0002090124B0C930FCD0DAC0FC42B6823709F
:1077B0003A4643460CA93046C84705460098FFF7AD
:1077C00077FC284613B0BDE8F083E368002BC3D1F3
:1077D0004FF6FF70D4F81090FFF70AFC8145BBD13B
:1077E00004F11401AAE72546E8E700BFB4CC0B007A
:1077F00038B543691A68002A054610DAB3F88620BE
:10780000B3F884309A420AD103681B69984704464A
:1078100028B92B682846DB6A9847204638BD0120E6
:10782000FCE710B54369B3F88620B3F884309A4278
:10783000044605D06369B3F884201344187910BD59
:1078400003681B6998470028F4D14FF0FF30F6E732
:10785000F8B543691746B3F88620B3F884309A42E6
:1078600005460E4616D06969B1F88430B1F88640F5
:10787000E41ABC4228BF3C46043322461944304631
:1078800002F005FC6A69B2F884302344A2F884301F
:107890002046F8BD03681B6998470028E3D14FF0E4
:1078A000FF34F5E742690023A2F884304269A2F868
:1078B000863070472DE9F0411F4603680C46DB6AAD
:1078C0008AB0054616469847237DD5F81480042BC8
:1078D0000CBF02200A2006220121FFF739FBC8F85D
:1078E00000006B691B68002B08DA2B682846DB6AEE
:1078F0000024984720460AB0BDE8F0812846FFF7EB
:10790000D1FFB7B1002303A9F8B20393ADF810304B
:10791000FFF7C6FB0028E8D16869062300930068DA
:1079200003AB41F20B0240F6FF71FFF7D9FA0028D2
:10793000DBD11C22002103A802F0B7FB237D042B1E
:107940001DD14FF407733046ADF80C30FFF760FBE4
:10795000ADF80E006068FFF74BFB04906B691C22CA
:10796000186803A9FFF7CCFA0028BED104340FCC65
:107970006D698C350FC523682B700124BAE740F67A
:107980001C233046ADF80C30FFF742FB05AEADF8D6
:107990000E00231D04F1140718685968324603C20B
:1079A0000833BB421646F7D1D8E7000030B542692C
:1079B000B2F886308BB004462BB1B2F884209A42DC
:1079C00001D1FFF76FFF61690868002818DBB1F883
:1079D00086507F2D14D804310823C5F18002294434
:1079E000FFF796FA002813DD6369B3F886200AB919
:1079F000A3F884206369B3F886201044A3F88600B6
:107A00006369B3F88600B3F88430C01A0BB030BD98
:107A1000FFF7E6FC03680B2BF2D0FFF7E1FC0368ED
:107A20000B2BEDD020230025CDE90235FFF7D8FC44
:107A300003680193084B0949009302AA2B463220A0
:107A4000FFF766FB63691868FFF752FA63694FF046
:107A5000FF321A60D4E700BF67CB0B0060CB0B008E
:107A600010B5436904461868002801DBFFF740FAA7
:107A700063694FF0FF321A606069112200218C3077
:107A800002F013FB2046BDE81040FFF70BBF43692F
:107A90001868C043C00F704710B50023044601604A
:107AA000C0F88430883000F0FDF9204610BD000099
:107AB00073B500234FF47A72C0E901320E4A0361B4
:107AC000026043610446AC200191FCF7E4FA051E14
:107AD00005F10C0608D00123C5E90133074B0199D4
:107AE0002B603046FFF7D8FF2046C4E90565FFF755
:107AF000D9FE02B070BD00BFA4CB0B0080CB0B0041
:107B000010B54FF0FF310446FFF7D2FF204610BDFD
:107B100010B504460068002801DBFFF7E9F92046AC
:107B200010BD0C30FFF7F4BF7047F8B50646154698
:107B30000C468F18BC4206D0336814F8011B9B68B2
:107B400030469847F6E72846F8BD007C0022FFF74C
:107B500087B9007C0021FFF78BB9007C0021FFF77B
:107B60008FB9007C0021FFF793B9007C0021FFF75B
:107B700097B910B514210446FCF791FA204610BDC0
:107B800010B54FF47A73044608460021C4E9011386
:107B9000034B236020741146FFF78AF9204610BD7D
:107BA000F0CB0B0008B50021007CFFF789F9B0FA93
:107BB00080F0400908BD10B5836804460BB901F098
:107BC00060FCC3689847A3681BB103222146204686
:107BD000984720461021BDE81040FCF760BA704776
:107BE0004174704708B5007CFFF7E2F920EAE070C5
:107BF00008BD08B5007CFFF7BBF920EAE07008BDBE
:107C000008B5007CFFF7C4F940EAE07008BD08B58C
:107C1000007CFFF7B5F940EAE07008BD007CFFF793
:107C2000BFB937B5457C04462DB1207C03B0BDE813
:107C30003040FFF795B9007C0191FFF7B9F90028B2
:107C40000199F2DC284603B030BD10B5142104467A
:107C5000FCF725FA204610BD10B54FF47A730446A0
:107C6000084611460022C4E90123044B2360012386
:107C700020746374FFF7ACF9204610BD18CC0B00DC
:107C8000007C0023FFF79CB90022FFF7F9BF002218
:107C900040681146FFF7BEBA002240681146FFF760
:107CA000D9BA002240681146FFF7E4BA40680022C2
:107CB000FFF7D8BA4068002281F00101FFF7C2BA8D
:107CC000002340681A461946FFF7B4BA00234068FB
:107CD0001A461946FFF7A6BA002240681146FFF778
:107CE00089BA406800220221FFF78CBA002340685D
:107CF0001A46FFF777BA0000084B10B52824224631
:107D00001846002102F0D1F9054B04804FF0FF32F4
:107D1000426004225A60034A1A6010BD6CE60320D8
:107D200064E6032048CC0B004174704770477047ED
:107D300008B50021007CFFF77BF840EAE07008BD41
:107D400008B50121007CFFF773F840EAE07008BD38
:107D500008B5007CFFF764F820EAE07008BD08B5BC
:107D6000007CFFF755F820EAE07008BD13B5044623
:107D7000007C0191FFF754F80028019901DC607C38
:107D800020B1207CFFF75CF820EAE07002B010BD63
:107D9000007CFFF75DB810B514210446FCF77FF9AD
:107DA000204610BD10B54FF47A73044608460021F2
:107DB000C4E90113044B236001232074637411464A
:107DC000FFF716F8204610BD84CC0B00007C002283
:107DD000FFF716B810B514220446002102F065F929
:107DE000204610BD10B50F4C88B003A8FFF7F2FF76
:107DF0002178BFF35B8F11F001010FD12046019173
:107E0000FCF74FF9019948B103AA0748FFF7CAFFE9
:107E10002046FCF74BF9054802F02CF9024808B05F
:107E200010BD00BF94E6032098E603202D7D0B00D3
:107E3000704710B518210446FCF731F9204610BDF3
:107E4000F0B5037D062B8DB00E4600F104074FF010
:107E5000000412D000F1080515F8011D0A22304671
:107E600000F047FDAF42044419D0002CF4D02E217D
:107E7000304600F025FD0444EEE72F236A463946DC
:107E80000A208DF80040FFF7ABF8684602F081F950
:107E900033680246DB686946304698470446204608
:107EA0000DB0F0BD10B5054B0446112240F8043B5F
:107EB000002102F0FAF8204610BD00BFB4CC0B0040
:107EC0000346074A10B543F8042B01F1100251F89C
:107ED000044B43F8044B9142F9D10A781A7010BD53
:107EE000B4CC0B00037D042B04D14068003818BFCC
:107EF00001207047062B07D143683BB983682BB933
:107F0000C3681BB90069F1E7002070470120704782
:107F100010B59DF8084044EA032343EA024242EACE
:107F2000016104234160037510BD000013B5044CCA
:107F300004609DF810400094FFF7EAFF02B010BD06
:107F4000B4CC0B0007B5064B0360CB7800938B785D
:107F50004A780978FFF7DCFF03B05DF804FB00BF47
:107F6000B4CC0B0070470020704710B510210446B8
:107F7000FCF795F8204610BD08B5FFF7F6FF08BDE1
:107F800030B500224FF69C74026084808D888C800E
:107F90000C68858004600A6030BD10B50446006836
:107FA000FFF7E6F9204610BD38B5C468F4B1237870
:107FB000022B03D104F10C00FFF7EFFF656835B128
:107FC0002846FDF715F910212846FCF768F8A56842
:107FD00035B12846FDF70CF910212846FCF75FF86B
:107FE00020461421BDE83840FCF759B838BD084692
:107FF0000021FFF7E7B81FB50C23ADF80430036884
:108000008DF80630037A8DF807304368029300211B
:10801000437AADF80D1001A88DF80F108DF80C30D3
:10802000FFF7D8F805B05DF804FB1FB50C22ADF8DA
:10803000042002688DF80620027A8DF80720426835
:1080400002920023427A8DF80C20194601AA0220E0
:10805000ADF80D308DF80F30FFF7A4F805B05DF8DE
:1080600004FB0B6803604B68436013B15A6801322C
:108070005A60704737B5044668460D46FFF7F1FF72
:10808000009B019A23606260002301A80193009382
:10809000FCF78EFB35B1281DFCF78AFB082128462A
:1080A000FBF7FDFF204603B030BD13B50B4602467B
:1080B000D0E900016C4684E8030093E8030082E8FD
:1080C000030094E8030083E8030002B010BD826857
:1080D00010B50AB901F0D5F9BDE81040C3681847DA
:1080E00008B5006800F11001FFF7F1FF08BD8268D4
:1080F00010B50AB901F0C5F9BDE81040C3681847CA
:1081000008B5006800F11001FFF7F1FF08BD00009D
:1081100038B500230446036010200D46FBF7BBFF73
:1081200028B10123C0E90133024B0360C560206020
:10813000204638BDC8CC0B0038B5002383608B685F
:1081400004460D462BB102229847EB68E360AB680A
:10815000A360204638BD0000F0B589B004686846C9
:10816000FFF70EFF4FF00203D4E84F2F002A03D190
:10817000C4E8413F0029F7D125D104F10C05694637
:108180002846FFF7FDFEBFF35B8F012363700020DD
:1081900004F10803BFF35B8F53E8006F43E800026C
:1081A000002AF9D1BFF35B8F6EB1FFF7A3F878B166
:1081B00029463046FFF78BFF3046FDF719F81021AE
:1081C0003046FBF76CFF6846FFF7E7FE09B0F0BDED
:1081D000314602A8FFF7B0FFE068B4F9105008B1CB
:1081E00001F0BAFF06901020ADF81C50FBF753FFCA
:1081F0000546E8B1002787601820FBF74CFF0446CE
:1082000088B10146876002A8FFF74FFF049BA26870
:10821000A360059B049206A9E268E36004F11000E4
:108220000592FFF7ADFE084BEB60084B2C60AB608E
:1082300006A8FFF7B2FE02A8FCF7DAFF00222946E3
:108240000348FFF75FF8B7E7E1800B0065830B0099
:10825000B77B0B002DE9F04F8BB005469DF850A081
:108260000F4690469946FEF775FF07AE834638BB2A
:108270004FF62E73059005A93046ADF81830FFF77C
:108280007FFE1420FBF707FF044648B1022303706A
:108290000123C0E901BB437031460C30FFF770FE8B
:1082A0002846214640F8044BFFF732FF3046FFF7DF
:1082B00074FE05A8FFF771FE28460BB0BDE8F08FED
:1082C0000C2300241420CDE908440793FBF7E3FEB8
:1082D000014618B1C0E901440470447004A8039138
:1082E000FFF716FF1E4B08930820FBF7D4FE044649
:1082F00010B103A9FFF7B5FE00965FFA8AF34A466C
:10830000414638460994FEF735FFB8B9039B5B78C0
:1083100003F0FF0293B94FF69C7305A903A80592D9
:10832000ADF81830FFF718FF05A8FFF736FE05A8CF
:108330000999FFF79FFE06A8FCF73AFA03A905A8DA
:10834000FFF78FFE059B069A2B606A60002306A844
:1083500006930593FCF72CFA04A8FCF729FAABE77F
:10836000E1830B00012AF8B5054603D10B680360D1
:108370000020F8BD022A10D0032AF9D10468002C8D
:10838000F6D004F11000FFF708FE2046FCF730FF9E
:1083900018212046FBF783FEEAE718200E68FBF75A
:1083A0007AFE044650B13146FFF7C6FE3069B6F991
:1083B000147008B101F0D0FE2061A7822C60D7E7CD
:1083C00038B5002383608B6804460D462BB102222A
:1083D0009847EB68E360AB68A360204638BD0000B7
:1083E000F0B589B004460D4601A81146FFF742FEDC
:1083F000A4B124B21DB1284601F0AEFE054601A885
:1084000003A90395ADF81040FFF7A6FE03A8FFF7F8
:10841000C4FD02A8FCF7CCF909B0F0BD019D012311
:10842000D5E84F2F002A03D1C5E8413F0029F7D1F5
:10843000EFD12B73BFF35B8F6B702B1DBFF35B8F83
:1084400053E8006F43E80042002AF9D1BFF35B8F85
:10845000002EDED02046FEF74DFF074660B105F145
:108460000C013046FFF743FE3046FCF7C1FE1021F9
:108470003046FBF714FECCE7314603A8FFF7A0FF18
:108480002B7B8DF81C301020FBF705FE0546D0B184
:1084900087601420FBF7FFFD044678B18760014632
:1084A00003A8FFF702FE059BA268A360069B059246
:1084B000E268E3609DF81C3006922374064BEB6083
:1084C000064B2C60AB6003A8FCF792FE0022294605
:1084D0000348FEF717FFC7E701810B00E5840B0097
:1084E000B77B0B00012A70B5044603D10B6803600B
:1084F000002070BD022A0CD0032AF9D10468002C98
:10850000F6D02046FCF774FE14212046FBF7C7FD89
:10851000EEE714200E68FBF7BEFD054620B131469C
:10852000FFF74EFF337C2B742560E1E7014B1860A9
:10853000704700BF8CDF032008B50B4B43B1FFF73A
:1085400051FC03681B699847002801DDAFF30080E8
:10855000064B43B100F0BCFE03681B699847002836
:1085600001DDAFF3008008BD000000000000000046
:1085700008B5FFF7E1FFFEF773FD014B186008BD7A
:1085800044E703200548064A064908B5121A01F0D7
:108590007EFD054B054A1A6008BD00BF00F40320AC
:1085A00004F40320A4D30B0000F403201E1C279A1C
:1085B00007B5002300931A466FF07701FEF7BCFE63
:1085C00003B05DF804FB000007B543880A2B08D010
:1085D000502B0BD1094B1B684BB103B05DF804EB7A
:1085E0001847FFF7E5FF03B05DF804FB0023009395
:1085F0001A466FF07701FEF79FFEF4E7B0E603201E
:1086000010B512480021FEF7FBFE114B1A68114B02
:108610009A42114B0CBF012200221A7001D0FFF7C1
:10862000B1FFFEF70DFD044601F048FD0B4B13B101
:108630002046AFF3008000210848FEF7BBFDBDE8EF
:10864000104007480021FEF76DBE00BF2D850B00CE
:1086500000F403201E1C279AACE603200000000053
:10866000C9850B000068FFF79DBA10B5044601608C
:1086700002710AB1FFF7F6FF204610BD13B504469C
:10868000019100F0E5FD019A01462046FFF7EDFF5C
:10869000204602B010BD10B50C46FEF719FDFEF7DE
:1086A0001FFD28B124B1BDE81040E720FEF720BD32
:1086B00010BD0000014B00229A607047B4E6032011
:1086C0000021FEF7FFBD00002DE9F041154ADFF85B
:1086D0006080D2E90063801943EB0101124BD3E9BA
:1086E0000067D8E90023861941EB0707BB4208BFA2
:1086F000B2428CB013D003A96846CDE90067FEF7FB
:1087000087FE089B094D03F26C7303AC08930FCCF2
:108710000FC50FCC0FC5C8E9006723682B600CB0EC
:10872000BDE8F081F8E60320F0E60320C8E6032068
:1087300000E7032008B50020FEF72CFD28B1FEF766
:1087400009FD80F00100C0B208BD0120FCE710B5B2
:108750000020FEF78DFC0446A0B9FEF7A3FD01281A
:1087600010D12046FEF7D6FD60B9FFF7E3FF10B940
:10877000FEF7E0FCF9E7FFF7DDFFBDE81040002061
:10878000FEF776BC204610BD1FB5FFF7E0FF1022B4
:108790000021684601F089FC00216846FEF778FC5C
:1087A000009805B05DF804FB08B5FFF7EDFFC117B1
:1087B000FFF78AFF014B586808BD00BFC8E60320D9
:1087C000024B1A68024B1A60704700BF88DF032013
:1087D000C4E60320014B024A1A60704708E70320F1
:1087E000F8CC0B0010B50446FEF73AFCE0602368B5
:1087F00020465B699847002808DAFEF731FCE368F9
:10880000C01AA3689842F2D34FF0FF3010BD0000A9
:1088100038B50D460749044600F00DF92846FFF724
:10882000E1FF002804DBC1B2204600F054F9F5E76F
:10883000204638BD3BC90B0070B50D4609490446BA
:10884000164600F0F8F82846FFF7CCFF002806DBB4
:10885000864204D0C1B2204600F03DF9F3E720463D
:1088600070BD00BF3BC90B00F8B506460D468F181A
:108870000024BD420CD0336815F8011B9B683046BC
:108880009847031E01DB1C44F3E7002C08BF1C467D
:108890002046F8BD13B50446084659B1019101F0D0
:1088A00078FC23680199DB680246204602B0BDE8E7
:1088B0001040184702B010BD08B5FFF7EBFF08BD28
:1088C00003689B68184738B50D210546FFF7F8FF88
:1088D0000A2104462846FFF7F3FF204438BD38B587
:1088E0000546FFF7D7FF04462846FFF7ECFF204474
:1088F00038BD30B58BB00023012A8DF8243098BFE5
:108900000A2209AC0D46B1FBF2F101FB125303F050
:10891000FF03092B94BF30333733DBB2AA4204F88C
:10892000013DEFD92146FFF7B5FF0BB030BD2DE972
:10893000F04186B000AF05460E46381D142114469E
:108940003B60FEF735FD13280ED8391D2846FFF78A
:10895000A1FF04461EB12846FFF7B5FF0444204698
:108960001837BD46BDE8F08100F1080323F0070386
:10897000E846ADEB030D2246411C3B686846FEF716
:1089800017FD69462846FFF785FF0446C546E1E71F
:10899000024800230360FEF743BB00BF0CE703203F
:1089A00010B504460068FEF7E3FC204610BD10B584
:1089B0000446006808B1FEF7DBFC0023C4E901337C
:1089C000236010BD38B504460D4600680131FEF73E
:1089D000D7FC10B1C4E90005012038BD10B503680B
:1089E000044623B143688B4201D3012010BD2046C9
:1089F000FFF7E8FF0028F9D0A368002BF5D1226823
:108A00001370F2E737B50D46114601920446FFF7A1
:108A1000E5FF019A28B92046FFF7C9FF204603B0B9
:108A200030BDA2602946206801F031FB2268A368AE
:108A30000021D154F2E7002313B5C0E90033044606
:108A40008360037341B10846019101F0A2FB0199D3
:108A500002462046FFF7D6FF204602B010BD38B5CB
:108A6000054600680C4668B16A688B689A4207D36D
:108A7000096801F068FBA368AB600023A36038BD00
:108A8000FEF776FC23682B6063686B60A368AB60BD
:108A90000023C4E90033F1E7884210B5044601D051
:108AA000FFF7DDFF204610BD70B505460E4609B93B
:108AB000002070BD6AB1846814442146FFF78EFF20
:108AC0000028F5D02868AB683146184401F03BFB1C
:108AD000AC600120EDE707B500238DF804100122FA
:108AE00001A98DF80530FFF7DFFF03B05DF804FB47
:108AF00058B50E462AB121B18468A34202D300239F
:108B00000B7058BDE41A013A0168944228BF14461C
:108B100019442246304601F058FB00233355F0E754
:108B2000006808B101F0AFBA7047000008B50068EE
:108B300040B101F0A5FA51EC100B01F02DFA00EE56
:108B4000100A08BD9FED010AFBE700BF000000000E
:108B500007B50B4600210246009101208C21FEF74B
:108B6000F5FB03B05DF804FB01460020FFF7F0BF02
:108B70000020FFF7F9BF0000054B02221A60054BE9
:108B8000054A9A600020C3E90000FEF793BB00BFCE
:108B90001CE7032010E703200000FFFF10B4046867
:108BA000246BA4465DF8044B604703689B6C184730
:108BB000808E7047028FC08E101A7047F0B5036820
:108BC00089B09F6A0C4B029300F1200604460FCE39
:108BD00003AD0FC533682B70A38EE28EE16B00935B
:108BE000204602ABB84723680546DB692046984714
:108BF000284609B0F0BD00BFB4CC0B0007B5036830
:108C00008DF80710DB6801220DF10701984703B0CA
:108C10005DF804FB10B503681B690446984728B14A
:108C2000E38EE26B591CE186D05C10BD4FF0FF3043
:108C3000FBE710B503681B690446984718B1E38E3B
:108C4000E26BD05C10BD4FF0FF30FBE7704710B413
:108C500003460846DC6BD98E1A8F0368521ADB680C
:108C600021445DF8044B1847A0F11000FFF7EFBF57
:108C700070B503688CB05B6A04460E46154698478B
:108C800001231C22002105A8029301F00EFA40F6F0
:108C90001C233046ADF81430FEF7BAF91122ADF8B6
:108CA000160002210A20FEF753F90028606125DB37
:108CB0000422009202AB40F6FF71FEF711F9E8B909
:108CC00095B10390ADF8100003A9E8B2FEF7E8F9FA
:108CD000A0B906230093606903AB41F20B0240F692
:108CE000FF71FEF7FDF848B960691C2205A9FEF77F
:108CF000EFF818B9656401200CB070BD23682046F8
:108D00005B6A98470020F7E710B5044640690028E1
:108D100001DBFEF7EDF84FF0FF3363610023E386DC
:108D2000238710BD70B50546C06BEE8E68B12B6C05
:108D30009C1B944228BF14462246304401F0A7F9F8
:108D4000EB8E2344EB86204670BD0446F1E7D0B598
:108D500003681B6904460F461646984790B123687E
:108D600020461B699847E38EE16B8642A8BF064602
:108D700019443246384601F08AF9E38E3344E386DB
:108D80003046D0BD4FF0FF36FAE730B587B0044625
:108D900001AD6846FFF7D6F80FCD04340FC42B6839
:108DA000237007B030BD0000F0B59646026889B068
:108DB000976A0A4A02921C1D8C4606460FCC03ADE8
:108DC0000FC523682B70BDF838300093724602AB94
:108DD00061463046B84709B0F0BD00BFB4CC0B00C7
:108DE00070B50446054B44F8043B01F120050646E6
:108DF0000FCD0FC42B682370304670BDB4CC0B0070
:108E0000F0B54378022B8DB005460C46174604D1C9
:108E1000011D2046FFF7B9FF22E00A2B25D11122C0
:108E2000002101A801F041F9AB6803B305F1080383
:108E300001AE05F1180C18685968324603C20833B0
:108E400063451646F7D1062301A906A807AE8DF89B
:108E50001430FFF735F80FCE04340FC43368237095
:108E60001FB16888FEF7CCF838800DB0F0BDEB6814
:108E7000002BDBD14FF6FF702E69FEF7B9F8864262
:108E8000D4D105F11401C4E72DE9F04117468EB0A5
:108E90000022064601AB084611460192FEF710F982
:108EA000041E20DB019B2BB35B691BB302A8FEF7FA
:108EB000F9FF019B0022586902A9FFF7A1FF02A850
:108EC000FFF710F8B0B1336803ADD3F838800B4B1F
:108ED00008930FCD09AC0FC42B6823703A4608A93C
:108EE0003046C04704460198FEF7E2F820460EB02F
:108EF000BDE8F0814FF0FF34F5E700BFB4CC0B00C4
:108F00002DE9F047D0F81490B9F1000F90B0054664
:108F10000E4690461C463CDB00293AD04FF01C0A16
:108F200009AF52460021384601F0BFF8CDF80CA039
:108F3000DCB14FF47A73B4FBF3F203FB124400216B
:108F40005C431023CDE904210791009341F206020E
:108F50006B4440F6FF7148460694FDF7C1FF044696
:108F600020B1204610B0BDE8F087082403ABCDE95E
:108F700000736869234642463146FDF7D1FF041E5F
:108F8000EFDB05F1340205F11C013846FFF738FF2D
:108F9000E7E74FF0FF34E4E738B5054614462B7D8C
:108FA000062B084610D140F61C231380FEF730F83C
:108FB00008342B1D24F8060C143553F8042B44F800
:108FC000042BAB42F9D138BD042BFCD14FF4047310
:108FD0001380FEF71DF860806868FEF709F860608E
:108FE000F1E72DE9F0438BB003AF4FF01C09984631
:108FF00004460D46164600214A46384601F055F80B
:10900000BDF848103A464046FFF7C6FF9DF80D30C0
:1090100053B1CDE900796069002332462946FDF756
:109020008FFF0BB0BDE8F0834FF0FF30F9E7000091
:1090300038B500254FF47A73C0E901530B4B03F1A7
:1090400008026C3303614FF0FF3304460260436152
:109050001C30FEF727FF4FF40073C4E91035E58696
:109060002587E56384F84850204638BDFCCC0B00CA
:1090700010B590F84830044623B1C06B10B10121FF
:10908000FBF70DF80023E36384F848302364E3869C
:10909000238710BD70B5044616460D46FFF7E8FF5E
:1090A0000023E66323642EB12564206C003818BFCA
:1090B000012070BD002DF8D02846FAF7EEFF0123FD
:1090C000E06384F848300028EFD0EDE7F8B51746A4
:1090D000C26B05460C461AB9016C09B1FFF7DAFFFD
:1090E00004340FCC05F120060FC62368337000232B
:1090F000286CAF86EB862B87F8BD37B5C26B04466C
:109100000B462AB9016C19B10193FFF7C3FF019B0C
:10911000E16B0022E286228741B1226C32B12068E5
:10912000056B2046A8470028C8BF208723681B6915
:10913000204603B0BDE830401847000010B5074B8B
:1091400003F108026C33044602600361FFF7DCFDA3
:109150002046FFF78DFF204610BD00BFFCCC0B0062
:1091600010B50446FFF7EAFF20464C21FAF797FFB7
:10917000204610BD002240681146FEF76BB8002261
:1091800040681146FEF776B840680022FEF76AB8DC
:109190004068002281F00101FEF754B800234068C6
:1091A0001A461946FEF746B8002340681A46194683
:1091B000FEF738B8002240681146FEF72BB80022AF
:1091C00040681146FEF716B8406800220221FEF7FB
:1091D00019B8002340681A46FEF704B8024B032270
:1091E0005A60024A1A60704720E7032074CD0B00D2
:1091F00008B5024B1B681B68019308BD5C020300A5
:1092000008B5024B1B685B68019308BD5C02030054
:1092100008B5024B1B689B68019308BD5C02030004
:109220007047000038B5202514230446036085608C
:1092300005610649284600F06FF804496060284639
:1092400000F06AF8E060204638BD00BFA8CD0B00F2
:1092500030B50E4D2978BFF35B8F11F0010487B054
:1092600011D12846FAF71DFF68B101A8FFF7DAFF10
:1092700001AA21460648FEF783FC2846FAF716FFA6
:10928000044800F0F7FE024807B030BD28E703208D
:109290002CE7032021920B007047000038B50446EC
:1092A00014252A46002100F000FF258040250749AB
:1092B00025812846258200F02FF804496060284661
:1092C00000F02AF8E060204638BD00BFA8CD0B00B2
:1092D00030B50E4D2978BFF35B8F11F0010487B0D4
:1092E00011D12846FAF7DDFE68B101A8FFF7D6FFD5
:1092F00001AA21460648FEF7AFFC2846FAF7D6FE3B
:10930000044800F0B7FE024807B030BD48E703202C
:109310004CE7032099920B00FAF7BFBEC3689A6826
:10932000C26010B502B1506042685A600C68844255
:1093300003D10B609860436010BD916881420CBFFF
:109340009360D360F6E78368DA68826010B502B193
:10935000506042685A600C68844203D10B60D86048
:10936000436010BDD16881420CBFD3609360F6E7C3
:10937000C36823B118469B68002BFBD17047436834
:10938000DA68824202D118465B68F9E7C268934204
:1093900018BF18467047037833B943685B68834247
:1093A00002D1DB6818467047826822B11346D26842
:1093B000002AFBD1F6E743689A688242F2D1184648
:1093C0005B68F9E7FFF7D4BFFFF7E5BF2DE9F84386
:1093D0001E4603F104080023C1E902330C464A602B
:1093E0000B7000B39642916018D17160F460012750
:1093F0004FF000097368A3423FD060680278002AEA
:109400003BD14568AB68984223D1EB6883B11A78A9
:1094100072B907701F702A702C46EBE7B36893424D
:10942000E5D1B160E3E7D160F3689342DFD1DDE7D6
:10943000C368A34203D14146FFF770FF0446636847
:1094400041461F70284685F80090FFF77CFF2546AF
:10945000E2E713B11A78002ADBD08368A34203D174
:109460004146FFF770FF0446636841461F70284677
:1094700085F80090FFF752FFE9E701221A70BDE876
:10948000F88308B5FDF79CFF014900F0F9B800BF6B
:10949000C4CD0B007FB500241023CDE9023403684E
:1094A00015469E6912686B46CDE90044B0479DF8A9
:1094B000043003F00603062B03BF009B2B60012042
:1094C000204604B070BD0098904214BF01200620D1
:1094D0007047000010B5034B0360044600F0CDF860
:1094E000204610BD04CE0B0010B50446FFF7F2FF76
:1094F00020460821FAF7D3FD204610BD2DE9F041A2
:109500001F46DDE90834DDF8188098450646154603
:1095100007D1079900F0B4F818B165710020BDE8D3
:10952000F0813946304600F0ABF80028F6D0012330
:10953000C4F800802571A371F0E738B515461C46C4
:1095400000F09EF820B10823E36006232560237114
:1095500038BD73B505460C4601921E4600F090F8E2
:1095600050B9032E08D82368019A5B692946204622
:1095700002B0BDE87040184702B070BD10B5034B93
:1095800003600446FFF7A6FF204610BD64CE0B0023
:1095900010B50446FFF7F2FF20460C21FAF77FFDD5
:1095A000204610BDF7B5089F974205460E46144663
:1095B0000AD0A86802680897156A31462246AC4668
:1095C00003B0BDE8F04060471946019300F058F839
:1095D000019B0028EDD0062003B0F0BD2DE9F14F2E
:1095E0000D461946DDE90A4BDDE90CA68146174612
:1095F000984600F045F890B1002D3460377109DBD2
:1096000061198A450CBF06210121B171002001B00A
:10961000BDE8F08F0235F9D10123B371F6E7544567
:1096200006D15946484600F02BF808B17771EDE7AE
:10963000D9F808000368CDE90CA6CDE90A4BDC692E
:109640003A4643462946A44601B0BDE8F04F60477C
:109650002DE9F04107460C4615461E46FFF76DFF03
:1096600048B9B86803689F692A4633462146BC4614
:10967000BDE8F0416047BDE8F081704700207047C9
:10968000814208B50ED0406803782A2B0CD0496877
:109690000B782A2B08BF013100F04BFDB0FA80F0A7
:1096A000400908BD0120FCE70020FAE781F00041F5
:1096B00002E000BF83F0004330B54FEA41044FEAB7
:1096C000430594EA050F08BF90EA020F1FBF54EA52
:1096D000000C55EA020C7FEA645C7FEA655C00F0EE
:1096E000E2804FEA5454D4EB5555B8BF6D420CDDBF
:1096F0002C4480EA020281EA030382EA000083EA42
:10970000010180EA020281EA0303362D88BF30BDE1
:1097100011F0004F4FEA01314FF4801C4CEA113137
:1097200002D0404261EB410113F0004F4FEA033396
:109730004CEA133302D0524263EB430394EA050F21
:1097400000F0A780A4F10104D5F1200E0DDB02FA90
:109750000EFC22FA05F2801841F1000103FA0EF224
:10976000801843FA05F359410EE0A5F120050EF1EA
:10977000200E012A03FA0EFC28BF4CF0020C43FA1B
:1097800005F3C01851EBE37101F0004507D54FF028
:10979000000EDCF1000C7EEB00006EEB0101B1F578
:1097A000801F1BD3B1F5001F0CD349085FEA3000BE
:1097B0004FEA3C0C04F101044FEA445212F5800FC9
:1097C00080F09A80BCF1004F08BF5FEA500C50F166
:1097D000000041EB045141EA050130BD5FEA4C0C49
:1097E000404141EB0101013C28BFB1F5801FE9D2A6
:1097F00091F0000F04BF01460020B1FA81F308BFC9
:109800002033A3F10B03B3F120020CDA0C3208DD94
:1098100002F1140CC2F10C0201FA0CF021FA02F16F
:109820000CE002F11402D8BFC2F1200C01FA02F1DF
:1098300020FA0CFCDCBF41EA0C019040E41AA2BF04
:1098400001EB0451294330BD6FEA04041F3C1CDACC
:109850000C340EDC04F11404C4F1200220FA04F0EC
:1098600001FA02F340EA030021FA04F345EA030196
:1098700030BDC4F10C04C4F1200220FA02F001FA58
:1098800004F340EA0300294630BD21FA04F02946DA
:1098900030BD94F0000F83F4801306BF81F4801173
:1098A0000134013D4EE77FEA645C18BF7FEA655CE6
:1098B00029D094EA050F08BF90EA020F05D054EAB8
:1098C000000C04BF1946104630BD91EA030F1EBFBD
:1098D0000021002030BD5FEA545C05D140004941C1
:1098E00028BF41F0004130BD14F580043CBF01F5B4
:1098F000801130BD01F0004545F0FE4141F470019A
:109900004FF0000030BD7FEA645C1ABF1946104674
:109910007FEA655C1CBF0B46024650EA013406BF75
:1099200052EA033591EA030F41F4002130BD00BF34
:1099300090F0000F04BF0021704730B54FF48064F1
:1099400004F132044FF000054FF0000150E700BF72
:1099500090F0000F04BF0021704730B54FF48064D1
:1099600004F1320410F0004548BF40424FF00001BE
:109970003EE700BF42004FEAE2014FEA31014FEA01
:1099800002701FBF12F07F4393F07F4F81F0605150
:10999000704732F07F4208BF704793F07F4F04BF9B
:1099A00041F40021704730B54FF4607401F0004578
:1099B00021F000411CE700BF50EA010208BF7047D8
:1099C00030B54FF000050AE050EA010208BF7047C9
:1099D00030B511F0004502D5404261EB41014FF432
:1099E000806404F132045FEA915C3FF4D8AE4FF03A
:1099F00003025FEADC0C18BF03325FEADC0C18BF1D
:109A0000033202EBDC02C2F1200300FA03FC20FA6D
:109A100002F001FA03FE40EA0E0021FA02F11444BA
:109A2000BDE600BF70B54FF0FF0C4CF4E06C1CEAD3
:109A300011541DBF1CEA135594EA0C0F95EA0C0F44
:109A400000F0DEF82C4481EA030621EA4C5123EAB7
:109A50004C5350EA013518BF52EA033541F48011E6
:109A600043F4801338D0A0FB02CE4FF00005E1FB99
:109A700002E506F00042E0FB03E54FF00006E1FBE3
:109A800003569CF0000F18BF4EF0010EA4F1FF0426
:109A9000B6F5007F64F5407404D25FEA4E0E6D4166
:109AA00046EB060642EAC62141EA55514FEAC52077
:109AB00040EA5E504FEACE2EB4F1FD0C88BFBCF5F3
:109AC000E06F1ED8BEF1004F08BF5FEA500E50F1A4
:109AD000000041EB045170BD06F0004646EA01016A
