:02000002B0004C
:1040000000400B0034AC0B00000006001700050256
:084010000401A30F00000000F1
:04401800649E0B0097
:1040200009480A49884208B505D0094A824202D0A7
:10403000121A03F0D0FE0748074A0021121A03F0B3
:10404000D8FE014808BD00BF84E10320E8A90B00A9
:10405000A8E30320A8E30320EDE7032070B5074E93
:10406000074C02F0F7FCA41BA4080025AC4200D1C9
:1040700070BD56F8043B98470135F7E79CA90B0043
:10408000C0A90B0000F084BD08B500F001FCBDE83C
:10409000084002F097BC01F06FBB01F06DBB01F06E
:1040A00073BB0078B0FA80F04009704701230370B9
:1040B00070470EB403B503AB002153F8042B0193F2
:1040C00002F041FE02B05DF804EB03B0704700005F
:1040D000F8B5134D134E144F114800F0D2FE0446AC
:1040E000E0B902F0B5F8314602F005FE0F4923466B
:1040F0003A46284600F0A4FF30B102F0A9F8BDE826
:10410000F8400B4902F0F7BD02F0A2F8094902F0AD
:10411000F2FD40F6B83002F0E3FCDDE7F8BD00BF89
:10412000A0E40320789E0B00B49E0B00C99E0B00F8
:10413000CF9E0B00E99E0B0000B593B08449684602
:1041400002F085FE834904A802F081FE02F0C8FF58
:10415000009A8149FFF7ADFFC82002F0C1FC02F0D0
:10416000BFFF03681B699847002818DD02F070F84C
:104170007A49FFF79EFF02F0B3FF0A22014608A822
:1041800002F06AFD08A904A802F092FE08A802F055
:1041900013FE02F05DF8049A7149FFF78AFF02F0FE
:1041A0009FFF70491722FFF784FFC82002F098FC98
:1041B00002F096FF03681B699847002818DD02F09B
:1041C00047F86949FFF775FF02F08AFF0A220146A6
:1041D00008A802F041FD08A904A802F069FE08A899
:1041E00002F0EAFD02F034F8049A6049FFF761FF3B
:1041F00002F076FF5E490622FFF75BFFC82002F05F
:104200006FFC02F06DFF03681B699847002818DDFA
:1042100002F01EF85749FFF74CFF02F061FF0A2237
:10422000014608A802F018FD08A904A802F040FE03
:1042300008A802F0C1FD02F00BF8049A4E49FFF7FE
:1042400038FF02F04DFF4D49FFF733FFC82002F061
:1042500047FC02F045FF03681B699847002818DDFA
:1042600001F0F6FF4649FFF724FF02F039FF0A226A
:10427000014608A802F0F0FC08A904A802F018FE04
:1042800008A802F099FD01F0E3FF049A3D49FFF709
:1042900010FF02F025FF3C49FFF70BFFC82002F09A
:1042A0001FFC02F01DFF03681B699847002818DDFA
:1042B00001F0CEFF3249FFF7FCFE02F011FF0A22A7
:1042C000014608A802F0C8FC08A904A802F0F0FD05
:1042D00008A802F071FD01F0BBFF049A2B49FFF71B
:1042E000E8FE02F0FDFE2A49FFF7E3FEC82002F0D7
:1042F000F7FB02F0F5FE03681B69984700281EDDF6
:1043000001F0A6FF1E49FFF7D4FE02F0E9FE0A22E3
:10431000014608A802F0A0FC08A904A802F0C8FD04
:1043200008A802F049FD282208A9002304A802F0E9
:10433000EBFD01F08DFF174908AAFFF7BAFE04A8AC
:1043400002F03AFD684602F037FD13B05DF804FB59
:104350001F9F0B003EA00B00409F0B004D9F0B00CA
:104360006B9F0B00769F0B00869F0B00A39F0B009B
:10437000B69F0B00C89F0B00E79F0B00FA9F0B0036
:1043800008A00B0018A00B002FA00B003FA00B00F3
:1043900056A00B0061A00B0070B501F0F7F80020EB
:1043A00001F08AF81E4D04460026002001F084F832
:1043B000001B61F10001854276EB010305D301F09A
:1043C000EDF810B901F0DAF8EFE701F0E7F801F0E5
:1043D000E5F810B1002001F0F1F8002001F06CF8D0
:1043E00047F230550446002001F066F8001B61F1E9
:1043F0000001A84271F1000309D2002001F0E6F8A3
:1044000028B101F0CBF810B101F0B8F8EBE70020CB
:1044100001F0DCF818B1BDE8704001F0BFB870BD24
:104420007FA9030000B589B01A49684602F00FFD64
:1044300002F056FE1849FFF73CFE42F2107002F0FF
:104440004FFB02F04DFE03681B699847002818DDFA
:1044500001F0FEFE1149FFF72CFE02F041FE0A2298
:10446000014604A802F0F8FB04A9684602F020FD0A
:1044700004A802F0A1FC01F0EBFE009A0849FFF746
:1044800018FE02F081FD684602F096FC09B05DF866
:1044900004FB00BF3EA00B0079A00B00869F0B0021
:1044A000A39F0B0038B5046805467CB16368013BE7
:1044B00063605BB9236820469B689847A368013B0B
:1044C000A3601BB923682046DB689847284638BD9F
:1044D00008B51449144B00221A70084601F044FD37
:1044E0001049124800F0AEFB1149124802F0AFFC2F
:1044F0000F49114802F0ABFC0D49104802F0A7FC2F
:104500000B490F4802F0A3FC09490E4802F09FFC3A
:1045100007490D4802F09BFCBDE8084004490B48E0
:1045200002F095BC64E50320A8E30320A0E4032087
:104530003EA00B0050E4032060E4032070E403205D
:1045400080E4032090E40320ACE30320BCE30320D9
:1045500030B585B0002301A8CDE90133ADF80C30AA
:1045600001F073FF01F01AF8044610B101F006F8EB
:10457000F8E70B4D01F012F8686823462246214601
:1045800001F074F8284601F084F910B900F0F6FF44
:10459000F8E7034805B0BDE8304001F07AB900BF44
:1045A00054E6032030B52DED028B8BB002F0FCFAFF
:1045B000044602F0F9FA94490246944801F0F4F8EE
:1045C00001F046FE914A9249FFF773FD01F040FE6B
:1045D0002246E3178F49FFF76CFD01F039FE0546CF
:1045E00002F0E2FA041E80F208812D21284602F032
:1045F00073FB61420A22284602F087FB284602F03C
:104600006EFB01F025FE054602F0CEFA4FF47A74F7
:10461000444340F1F4802D21284602F05DFB6142C5
:104620000A22284602F071FB284602F058FB0022BD
:1046300006A90320069200F097FF002840F0E180D1
:10464000069C0CB1236923B9734A74490A2000F00F
:104650007BFF0C23079305AB08930423099323697D
:1046600007AA012120469847002840F0CA80BDF8DB
:10467000143008EE103ABBEECC8A694D694C2868BC
:1046800003F01CF8CDE9020118EE100A03F016F849
:104690005E4B654ACDE900016448802101F08CF849
:1046A0002378BBB1286803F009F8CDE90201604B1B
:1046B000186803F003F8554B5E4ACDE900018021EC
:1046C0005A4801F079F8594A5B495C4800F0A6FD68
:1046D000002323705A4C2378C3B15A4B186802F058
:1046E000EDFFCDE90201584B186802F0E7FF474B98
:1046F000564ACDE9000180214C4801F05DF84B4A53
:104700004D494E4800F08AFD00232370504C237819
:10471000C3B1504B186802F0D1FFCDE902014E4BF6
:10472000186802F0CBFF394B4C4ACDE900018021DB
:104730003E4801F041F83D4A3F49404800F06EFDD7
:1047400000232370464C2378C3B1464B186802F00F
:10475000B5FFCDE90201444B186802F0AFFF2B4BC7
:10476000424ACDE900018021304801F025F82F4A66
:104770003149324800F052FD002323703C4C23782D
:10478000C3B13C4B186802F099FFCDE902013A4BE6
:10479000186802F093FF1D4B384ACDE900018021D3
:1047A000224801F009F8214A2349244800F036FD47
:1047B00000232370214800F04DFC314B31491B7818
:1047C0008DF8003000223C2307A801F06DFF08A8F7
:1047D000FFF768FE2C4B194801221A7000F03AFCD2
:1047E0004FF4966002F07CF9FFF7B2FE274B0022EF
:1047F0001A700BB0BDEC028B30BD2146FAE62146A3
:104800000EE7BFEE008A38E784A00B00A4E5032082
:104810008AA00B0097A00B0089540B00A7A00B00E7
:1048200024E6032044E60320CDA00B00CCE30320C4
:1048300084E50320F9A00B0024A10B00A0E40320D1
:1048400045E6032028E6032088E503203CA10B0071
:1048500046E603202CE603208CE5032067A10B002D
:1048600047E6032030E6032090E5032092A10B00E9
:1048700048E6032034E6032094E50320BDA10B00A5
:10488000A8E30320E8A10B00AAE303204CE40320E3
:10489000F0B5994F3B7887B013B1984800F0DAFB38
:1048A000974D984C2B781BBB02F08EF916281BD124
:1048B00000F074FEE0B901232370012103200126DA
:1048C00002F0FAF83E70FFF767FD8F484FF0FF31B6
:1048D00001F0B7FD89482E7000F0D3FA08B9FFF750
:1048E000F7FB0023237006E002F06EF91D28DFD0ED
:1048F0002378002BE1D102F067F91728834C17D1F8
:10490000834B1B78C3B90123237000F047FE10B11D
:10491000002000F053FE02F047F97E4902467E482F
:1049200000F042FFFFF73EFE00232B70237006E0ED
:1049300002F04AF91E28E3D02378002BE5D102F0DB
:10494000CFFB03681B699847002800F0948002F0B1
:10495000C7FB2C22014602A802F07EF902A96F488B
:104960006F4C704D704E714F02F0A2FA02A802F027
:1049700023FA02F0B5FB2C22014602A802F06CF9E2
:1049800002A96B4802F094FA02A802F015FA02F0AC
:10499000A7FB2C22014602A802F05EF902A802F051
:1049A000D1FA02A884ED000A02F006FA02F098FBA0
:1049B0002C22014602A802F04FF902A802F0C2FA26
:1049C00002A885ED000A02F0F7F902F089FB0A223D
:1049D000014602A802F040F902A802F0ADFA3060E8
:1049E00002A802F0E9F902F07BFB014602A802F0FE
:1049F0001FF902A9384602F05BFA02A802F0DCF9BE
:104A000001F026FC3A684B49FFF753FB01F020FC0C
:104A10000746206802F052FE0B46316800910246BC
:104A200045493846FFF745FB3368012B25D1434AFA
:104A300021681160424A29681160424A137002F0ED
:104A40004FFB414C014602A802F0F2F802A92046B1
:104A500002F02EFA02A802F0AFF901F0F9FB226889
:104A60003A49FFF726FB01F0F3FB0368DB6998473F
:104A7000274B00221A7007B0F0BD022B09D1344B2E
:104A800022681A60334B2A681A60334B01221A706D
:104A9000D5E7032B07D1314B22681A60304B2A68C7
:104AA0001A60304BF2E7042B07D12F4B22681A60B3
:104AB0002E4B2A681A602E4BE8E7052B07D12D4BA9
:104AC00022681A602C4B2A681A602C4BDEE7062BF2
:104AD00006D12B4B22681A602A682A4B1A60AEE76F
:104AE000072B05D1284B22681A602A68274BF5E767
:104AF000FFF798FCA3E700BF4CE40320A0E40320E9
:104B0000ABE3032080E5032030E70320A9E3032083
:104B1000AAE3032084A00B00A4E5032050E40320B3
:104B2000A0E5032040E6032060E50320ACE303207A
:104B300060E40320FBA10B000FA20B0084E503201F
:104B400024E6032044E60320BCE303202EA20B004E
:104B500088E5032028E6032045E603208CE50320B2
:104B60002CE6032046E6032090E5032030E60320F0
:104B700047E6032094E5032034E6032048E60320BB
:104B800098E5032038E603209CE503203CE603205B
:104B90001FB501F05DFB4FF4165101F04DFB02F023
:104BA0009FFA4FF4E13101F0A5FA0121072002F04C
:104BB000F9FAFFF7C1FAFFF7EFFB134B134C03228F
:104BC000CDE9012301A80123ADF80C3001F057FC19
:104BD0000F49104840F25B7200F031FBFFF778FAA2
:104BE000FFF7E0FC0C4B0D4A8021204600F0E4FD6D
:104BF00001F02EFB0A4980232246FFF75AFA04B03F
:104C0000BDE81040FFF7A4BCC0D40100CCE30320F2
:104C100084E10320A0E4032096E1032043A20B00DB
:104C200046A20B0070B50446054B44F8043B0D1D2D
:104C300006460FCD0FC42B682370304670BD00BFF1
:104C400000A40B0038B5044698300D4601F060FB17
:104C50004FF0FF33C4F8BC3000232560C4F8B830EF
:104C6000204638BD2DE9F04105460E4600F014FC03
:104C700043F697280746286803681B699847044647
:104C800030B900F009FCC31B4345F4D9204605E0C8
:104C9000286803685B69984730700120BDE8F0819F
:104CA00038B5158829441446FFF7DCFF08B10135F3
:104CB000258038BD2DE9F743051D884600270DF1F5
:104CC000060229460446ADF80670FFF7E9FF18B959
:104CD000002003B0BDE8F08394F804908DF80570CF
:104CE00001260DF105012046FFF7BCFF0028EFD09B
:104CF000BDF806209DF80510531C22449BB211718B
:104D000001F07F0212FB06F217440A06ADF80630E6
:104D1000BFB24FEAC616E4D409F0F009013BB9F17D
:104D2000300F88F800301ED10DF1060229462046CA
:104D3000FFF7B6FF0028CBD00DF10602294620462A
:104D4000FFF7AEFF0028C3D098F8003023445A790B
:104D50009E79237906EB02269B07B6B201D502366F
:104D6000B6B2022501E000252E46ADB2BD4226D2E4
:104D70000DF105012046FFF775FF0028A8D0D4F8F3
:104D8000B80078B1B9F1300F0CD1BDF8063098F801
:104D900000209B1A023BB34204DD03689DF8051016
:104DA0009B689847BDF806307F2B9EBFE2189DF8A0
:104DB000051011710133ADF806300135D5E7D4F88F
:104DC000B8302BB9BDF80620802A88BFADF8063070
:104DD000BDF806007DE72DE9F34115461E461A464B
:104DE00007460023964602A802F07F0CBEF17F0F13
:104DF00003F10104034488BF4CF0800CBEF17F0F27
:104E00004FEAD212E4B203F804CC20D8C4F1040370
:104E1000C4F10500E954224601A9284405EB030822
:104E200002F0D9FF38680368721C2244DB684146EF
:104E30009847054600F030FB621CC7F888003244F2
:104E4000A8B2131A5842584102B0BDE8F081234677
:104E5000C8E70233F0B501399CB200235E1C14FA96
:104E600083F08F5D9DB280B217B117543346F5E7DA
:104E700099B2411A0A44290A02F8021C02F8013CBC
:104E8000F0BD38B50446006808B9002038BD036895
:104E90001B6B984780B9D4F8BC50002DF5D1206821
:104EA0006FF00203C4F8BC300368DB6998472068E0
:104EB0000368DB6A9847E8E70120E7E72DE9F04F50
:104EC0008BB00446DDF85080894617461E46FFF732
:104ED000D8FF0546002840F0A580D4F800A0D4F8FB
:104EE000B010DAF80030002979D0B4F8B420D3F843
:104EF00024B003465046D847012840F09A804F4BD3
:104F0000A4F884009A88ADF814201868BDF814201D
:104F10009B7904908DF81630C4F80900A4F80D2090
:104F2000E373B8F1000F66D09DF858309DF8542017
:104F30005B0143EAC20343F00603DBB21FB1002E5C
:104F40005BD143F080032374002363740F23221D7D
:104F5000A374494620460192FFF77BFF019A03465E
:104F6000B8F1000F0BD041462046FFF772FF019ABF
:104F7000179903462046FFF76CFF019A03466FB16D
:104F8000394620460192FFF764FF019A03462EB18D
:104F900031462046FFF75DFF019A0346053B9BB271
:104FA00010212046FFF717FF00F076FAC4E922002F
:104FB00043F69726206803681B69984700BB00F0FA
:104FC0006BFAD4F88C30C01AB042F3D96FF00303F7
:104FD000C4F8BC3020680368DB6A984722E004F11B
:104FE000980104A8D3F820B0FFF71CFEB4F8B42051
:104FF0002B4604A97EE70223A0E743F0C003A2E703
:105000000DF10F012046FFF755FE0428E2D1E679A5
:1050100066B900F041FA0125C4F88C0084F890606C
:10502000C4F8BC6028460BB0BDE8F08FC4F8BC6083
:10503000D0E76FF00103C4F8BC30F3E768A20B00BF
:105040001FB50024CDE90244CDE90044FFF736FF47
:1050500004B010BD2DE9F04F85B000AF0446FFF756
:1050600010FF8146D8B100F017FAD4F88C3043F61F
:105070009822C31A9342804604D8D4F88830C31AC1
:1050800093421ED994F8903020686BB16FF00303FF
:10509000C4F8BC300368DB6A98474FF00009484603
:1050A0001437BD46BDE8F08F2146C02321F8043FE8
:1050B00003680222DB689847C4E92288012384F848
:1050C0009030206803681B6998470028E7D007F1F3
:1050D0000F012046FFF7EEFD05460028DFD02379BB
:1050E0007B6003F0F003302BC4F88C804DD1D4F8F2
:1050F00094A0BAF1000FD2D0FE7BA319EB465979E8
:105100009A7902EB012292B202F10803DB08ABEBC1
:10511000C3039D46F11D214468463A6002F05BFEE0
:1051200079683A6801F00601A81B002303380229B8
:1051300006F103010DF80230A0EB020004F10403B4
:1051400011441DD121447B6091F804C04D79711D3B
:1051500005EB0C2511441944821EADB26846D047B8
:105160006DBA2068E5804FF41072A28002687B68F7
:10517000D56819460422A847C4F88880DD468EE722
:10518000024619446846D047F8E7C02B09D1D0231E
:105190002146A38051F8040B03680222DB6898477C
:1051A0007DE7D02B04BF002384F8903077E72DE90A
:1051B000F34104469DF82070884616461D46FFF7C9
:1051C00060FE38B3404602F07AFEEB1D184480289A
:1051D00020D8221D0523414620460192FFF739FEC3
:1051E000019A0023C1189D4289B207D9214416F8BB
:1051F00003C081F804C001339BB2F3E74B1F002FBB
:105200009BB20CBF30213121204602B0BDE8F041F5
:10521000FFF7E1BD002002B0BDE8F0811FB50446F4
:1052200010460391029202F04AFE034600200090CD
:10523000DDE902212046FFF7BAFF04B010BDC0F837
:10524000B010A0F8B420704708B5024B1B681B686B
:10525000019308BD4C02030008B5024B1B685B6854
:10526000019308BD4C02030008B5024B1B681B6983
:10527000019308BD4C02030008B5024B1B685B6933
:10528000019308BD4C02030008B5024B1B689B69E3
:10529000019308BD4C02030008B5024B1B68DB6993
:1052A000019308BD4C02030008B5024B1B681B6A42
:1052B000019308BD4C02030008B5024B1B681B6A32
:1052C000019308BD2802030008B5024B1B685B6A06
:1052D000019308BD2802030008B5024B1B689B6AB6
:1052E000019308BD2802030008B5024B1B68DB6A66
:1052F000019308BD2802030008B5024B1B681B6B15
:10530000019308BD2802030008B5024B1B685B6BC4
:10531000019308BD2802030008B5024B1B681B6CF3
:10532000019308BD2802030008B5024B1B68DB6926
:10533000019308BD3002030008B5024B1B681B6ACD
:10534000019308BD3002030008B5024B1B689B693E
:10535000019308BD3802030008B5024B1B68DB69E6
:10536000019308BD3802030008B5024B1B681B6A95
:10537000019308BD3802030008B5024B1B689B6A05
:10538000019308BD3802030008B5024B1B681B6B74
:10539000019308BD3802030008B5024B1B689B6BE4
:1053A000019308BD3802030008B5024B1B68DB6897
:1053B000019308BD3C02030008B5024B1B681B6942
:1053C000019308BD3C02030008B5024B1B685B69F2
:1053D000019308BD3C02030008B5024B1B689B69A2
:1053E000019308BD3C02030008B5024B1B68DB6952
:1053F000019308BD3C02030008B5024B1B681B6A01
:10540000019308BD3C02030008B5024B1B689B6A70
:10541000019308BD3C02030008B5024B1B68DB6A20
:10542000019308BD3C02030008B5024B1B681B6CCE
:10543000019308BD3C02030008B5024B1B685B6981
:10544000019308BD6402030008B5024B1B681B6A88
:10545000019308BD6402030008B5024B1B689B6AF8
:10546000019308BD6402030008B5024B1B685B6C26
:10547000019308BD4802030008B5024B1B685B6836
:10548000019308BD1802030008B5024B1B68DB68D6
:10549000019308BD1802030008B5024B1B685B6945
:1054A000019308BD1802030008B5024B1B689B6DF1
:1054B000019308BD1802030008B5024B1B68DB6DA1
:1054C000019308BD1802030008B5024B1B685B6E10
:1054D000019308BD1802030008B5024B1B685B6905
:1054E000019308BD6C02030008B5024B1B689B6862
:1054F000019308BD2C02030008B5024B1B689B6892
:10550000019308BD6802030008B5024B1B68DB6805
:10551000019308BD6802030008B5024B1B681B69B4
:10552000019308BD6002030008B5024B1B689B692C
:10553000019308BD6002030008B5024B1B68DB69DC
:10554000019308BD6002030008B5024B1B685B6B4A
:10555000019308BD6002030008B5024B1B681B6D78
:10556000019308BD6002030008B5034B1B68D3F824
:105570009830019308BD00006002030008B5024B9B
:105580001B689B68019308BD4402030008B5024BE9
:105590001B68DB68019308BD4402030008B5024B99
:1055A0001B685B69019308BD4402030008B5024B08
:1055B0001B681B6A019308BD4402030008B5024B37
:1055C0001B68DB6A019308BD4402030008B5024B67
:1055D0001B681B6B019308BD4402030008B5024B16
:1055E0001B689B6B019308BD4402030008B5024B86
:1055F0001B68DB6B019308BD4402030008B5024B36
:105600001B681B6C019308BD4402030008B5024BE4
:105610001B685B6C019308BD4402030008B5024B94
:105620001B685B68019308BD4002030008B5024B8C
:105630001B689B68019308BD4002030008B5024B3C
:105640001B68DB68019308BD4002030008B5024BEC
:105650001B681B69019308BD4002030008B5024B9B
:105660001B685B69019308BD4002030008B5024B4B
:105670001B689B69019308BD4002030008B5024BFB
:105680001B68DB69019308BD4002030008B5024BAB
:105690001B681B6A019308BD4002030008B5024B5A
:1056A0001B681B6B019308BD4002030008B5024B49
:1056B0001B685B6B019308BD4002030008B5024BF9
:1056C0001B681B6C019308BD4002030008B5024B28
:1056D0001B685B6C019308BD4002030008B5024BD8
:1056E0001B681B68019308BD2002030008B5024B2C
:1056F0001B685B68019308BD2002030008B5024BDC
:105700001B685B69019308BD2002030008B5024BCA
:105710001B68DB6C019308BD2002030008B5024B37
:105720001B685B6D019308BD2002030008B5024BA6
:105730001B689B6D019308BD2002030008B5034B55
:105740001B68D3F88830019308BD000020020300D5
:1057500008B5034B1B68D3F89430019308BD0000D3
:105760002002030008B5034B1B68D3F8B030019347
:1057700008BD00002002030008B5024B1B681B682F
:10578000019308BD1C02030008B5024B1B685B684F
:10579000019308BD1C02030008B5024B1B689B68FF
:1057A000019308BD1C02030008B5024B1B68DB68AF
:1057B000019308BD1C02030008B5024B1B68DB699E
:1057C000019308BD1C02030008B5024B1B685B6A0D
:1057D000019308BD1C02030008B5024B1B68DB6A7D
:1057E000019308BD1C02030008B5024B1B681B6B2C
:1057F000019308BD1C02030008B5024B1B68DB6B5C
:10580000019308BD1C02030008B5024B1B681B6C0A
:10581000019308BD1C02030008B5024B1B685B6CBA
:10582000019308BD1C02030008B5024B1B68DB6C2A
:10583000019308BD1C02030010B58368044613B130
:10584000032201469847204610BD002340681A46AF
:10585000FFF7E4BE406800220221FFF7EFBE0022FE
:1058600040681146FFF7E2BE002240681146FFF78C
:10587000EDBE002340681A461946FFF7EFBE00232D
:1058800040681A461946FFF7F1BE40680021FFF74D
:1058900015BF40680021FFF719BF4068002281F062
:1058A0000101FFF7EBBE40680022FFF7F7BE0022C0
:1058B00040681146FFF7FABE002240681146FFF724
:1058C000E5BE2DE9F04395B014460D46074600F0BD
:1058D0001FFD00211C220DA8009102F08AFA40232E
:1058E0000C9320466B460CAA0021FFF70DFE0446E0
:1058F00000284BD1024601216868FFF7A7FE02216C
:10590000804622466868FFF7A1FE009E8146214638
:10591000002E3BD0002939D17368022B03D00A2B0B
:1059200011D0F669F4E7B8F1000FFAD0716906A852
:10593000043107AD00F030FD0FCD3C1D0FC42B68C6
:1059400023704146EDE7B9F1000FEAD074691022E7
:1059500001A802F04EFA06238DF8143001AD04F1CF
:1059600008031834186859682A4603C20833A3424A
:105970001546F7D101A906A807AD00F0D7FC0FCD59
:105980003C1D0FC42B6823704946CAE70098FFF7F7
:10599000B3FD384615B0BDE8F0830000024B034A62
:1059A0001A6000225A6070474CE6032078A20B0070
:1059B00013B503688DF80710DC6B01224FF0FF333D
:1059C0000DF10701A04702B010BD10B40368DC6BF5
:1059D0004FF0FF33A4465DF8044B604713B5134600
:1059E00002688DF80710D46B0DF107010122A04762
:1059F00002B010BD10B54369B3F88620B3F8843007
:105A00009A42044608D06369B3F88420511CA3F875
:105A100084101344187910BD03681B699847002847
:105A2000F1D14FF0FF30F6E7704743691868C04383
:105A3000C00F704770470000064B994210B500F147
:105A40000C0405D0084601F0C3FB002808BF002461
:105A5000204610BDE0A20B0010B5AC210446FEF7B5
:105A60001EFB204610BDAC21FEF719BB2DE9F0410D
:105A70004FF0000886B01C46C0F8048005460E466C
:105A800017464146102202A802F0B3F9631C09D060
:105A90004FF47A73B4FBF3F203FB1244CDE902280E
:105AA0005C430494686910230093006802AB41F2E0
:105AB000050240F6FF71FFF747FC002807DAFFF701
:105AC0009BFE03686B60002006B0BDE8F08168694A
:105AD000002300683A463146FFF756FC031EEEDB12
:105AE0001846F1E738B584690A4B036005467CB176
:105AF0006368013B63605BB9236820469B689847F5
:105B0000A368013BA3601BB923682046DB68984764
:105B1000284638BDF0A20B0010B50446FFF7E2FF9F
:105B200020461C21FEF7BBFA204610BD30B587B0D9
:105B3000044601AD684600F02FFC0FCD04340FC4BD
:105B40002B68237007B030BD70B54D69054B044616
:105B50008C3544F8043B06460FCD0FC42B682370E8
:105B6000304670BD00A40B002DE9F0439846036851
:105B700093B00D460024DB6A064617469847284630
:105B80006B46224621460094FFF7BEFC05460028DE
:105B900063D1009B002B4BD05B69002B48D006A83B
:105BA00000F0B6FB009B5C696378022B04D1211DD9
:105BB00006A8FFF7BBFF26E00A2B24D111222946B5
:105BC00001A802F016F9A368002B38D004F10803ED
:105BD0000DF1040C183418685968624603C2083382
:105BE000A3429446F7D1062301A90CA88DF81430DE
:105BF00000F09CFB0DF1340CBCE80F0007AC0FC4A7
:105C0000DCF80030237006A800F0A2FB80B13368F6
:105C100007ADD3F82090124B0C930FCD0DAC0FC4F1
:105C20002B6823703A4643460CA93046C8470546C0
:105C30000098FFF761FC284613B0BDE8F083E368E5
:105C4000002BC3D14FF6FF70D4F81090FFF7FCFB88
:105C50008145BBD104F11401AAE72546E8E700BF5E
:105C600000A40B0038B543691A68002A054610DA0B
:105C7000B3F88620B3F884309A420AD103681B69CE
:105C80009847044628B92B682846DB6A984720467F
:105C900038BD0120FCE710B54369B3F88620B3F89E
:105CA00084309A42044605D06369B3F884201344D3
:105CB000187910BD03681B6998470028F4D14FF08C
:105CC000FF30F6E7F8B543691746B3F88620B3F816
:105CD00084309A4205460E4616D06969B1F8843080
:105CE000B1F88640E41ABC4228BF3C460433224641
:105CF0001944304602F06FF86A69B2F884302344E0
:105D0000A2F884302046F8BD03681B699847002834
:105D1000E3D14FF0FF34F5E742690023A2F8843065
:105D20004269A2F8863070472DE9F0411F460368AA
:105D30000C46DB6A8AB0054616469847237DD5F89F
:105D40001480042B0CBF02200A2006220121FFF739
:105D500023FBC8F800006B691B68002B08DA2B686E
:105D60002846DB6A0024984720460AB0BDE8F08147
:105D70002846FFF7D1FFB7B1002303A9F8B2039378
:105D8000ADF81030FFF7A8FB0028E8D168690623BA
:105D90000093006803AB41F20B0240F6FF71FFF77E
:105DA000D3FA0028DBD11C22002103A802F021F83D
:105DB000237D042B1DD14FF407733046ADF80C3012
:105DC000FFF74AFBADF80E006068FFF73DFB04905B
:105DD0006B691C22186803A9FFF7C6FA0028BED118
:105DE00004340FCC6D698C350FC523682B700124EA
:105DF000BAE740F61C233046ADF80C30FFF72CFB19
:105E000005AEADF80E00231D04F11407186859689B
:105E1000324603C20833BB421646F7D1D8E700002A
:105E200030B54269B2F886308BB004462BB1B2F877
:105E300084209A4201D1FFF76FFF6169086800284A
:105E400018DBB1F886507F2D14D804310823C5F132
:105E500080022944FFF790FA002813DD6369B3F844
:105E600086200AB9A3F884206369B3F88620104419
:105E7000A3F886006369B3F88600B3F88430C01ACB
:105E80000BB030BDFFF7B8FC03680B2BF2D0FFF767
:105E9000B3FC03680B2BEDD020230025CDE90235A0
:105EA000FFF7AAFC03680193084B0949009302AA73
:105EB0002B463220FFF750FB63691868FFF74CFA56
:105EC00063694FF0FF321A60D4E700BFB3A20B0042
:105ED000ACA20B0010B5436904461868002801DB2A
:105EE000FFF73AFA63694FF0FF321A6060691122D6
:105EF00000218C3001F07DFF2046BDE81040FFF707
:105F00000BBF10B5002304460160C0F88430883010
:105F100000F0FEF9204610BD73B500234FF47A72ED
:105F2000C0E901320E4A0361026043610446AC20BD
:105F30000191FEF7B0F8051E05F10C0608D001230B
:105F4000C5E90133074B01992B603046FFF7D9FFB4
:105F50002046C4E90565FFF7DFFE02B070BD00BF53
:105F6000F0A20B00CCA20B0010B54FF0FF3104469D
:105F7000FFF7D2FF204610BD10B504460068002888
:105F800001DBFFF7E9F9204610BD0C30FFF7F4BF45
:105F900010B5044608462170FFF7C6F90023636078
:105FA000204610BD7047F8B5064615460C468F18BA
:105FB000BC4206D0336814F8011B9B6830469847F2
:105FC000F6E72846F8BD007C0022FFF775B9007C93
:105FD0000021FFF779B9007C0021FFF77DB9007C33
:105FE0000021FFF781B9007C0021FFF785B910B5CA
:105FF00014210446FEF753F8204610BD10B54FF4A7
:106000007A73044608460021C4E90113034B236058
:1060100020741146FFF780F9204610BD3CA30B0009
:1060200010B5836804460BB901F0CFF8C3689847F0
:10603000A3681BB103222146204698472046102121
:10604000BDE81040FEF72BB870474174704708B5A3
:10605000007CFFF7D9F920EAE07008BD08B5007CA4
:10606000FFF7AAF920EAE07008BD08B5007CFFF749
:10607000B3F940EAE07008BD08B5007CFFF7A4F969
:1060800040EAE07008BD007CFFF7AEB937B5457C4B
:1060900004462DB1207C03B0BDE83040FFF784B941
:1060A000007C0191FFF7B0F900280199F2DC284645
:1060B00003B030BD10B514210446FDF7F0FF2046B3
:1060C00010BD000010B54FF47A730446084611461F
:1060D0000022C4E90123044B23600123207463746C
:1060E000FFF7A2F9204610BD64A30B00007C00233B
:1060F000FFF792B90022FFF7F9BF0022406811466E
:10610000FFF7A4BA002240681146FFF7BFBA002289
:1061100040681146FFF7CABA40680022FFF7BEBACE
:106120004068002281F00101FFF7A8BA002340680F
:106130001A461946FFF79ABA002340681A461946CC
:10614000FFF78CBA002240681146FFF76FBA40682B
:1061500000220221FFF772BA002340681A46FFF7B7
:106160005DBA0000084B10B52824224618460021CD
:1061700001F03FFE054B04804FF0FF3242600422E5
:106180005A60034A1A6010BD5CE6032054E60320FF
:1061900094A30B00417470477047704708B5002105
:1061A000007CFFF771F840EAE07008BD08B50121F6
:1061B000007CFFF769F840EAE07008BD08B5007C94
:1061C000FFF75AF820EAE07008BD08B5007CFFF739
:1061D0004BF820EAE07008BD13B50446007C01913D
:1061E000FFF74AF80028019901DC607C20B1207C8F
:1061F000FFF752F820EAE07002B010BD007CFFF714
:1062000053B810B514210446FDF749FF204610BDD0
:1062100010B54FF47A73044608460021C4E901130F
:10622000044B23600123207463741146FFF70CF8BC
:10623000204610BDD0A30B00007C0022FFF70CB855
:1062400010B514220446002101F0D3FD204610BDF4
:1062500010B50F4C88B003A8FFF7F2FF2178BFF309
:106260005B8F11F001010FD120460191FDF719FF5D
:10627000019948B103AA0748FFF7CAFF2046FDF776
:1062800015FF054801F09AFD024808B010BD00BF97
:1062900084E6032088E6032099610B00704710B55F
:1062A00018210446FDF7FBFE204610BDF0B5037D26
:1062B000062B8DB00E4600F104074FF0000412D0FB
:1062C00000F1080515F8011D0A22304600F01DFDF9
:1062D000AF42044419D0002CF4D02E21304600F0F7
:1062E000FBFC0444EEE72F236A4639460A208DF86A
:1062F0000040FFF7A1F8684601F0E1FD336802466F
:10630000DB68694630469847044620460DB0F0BD2C
:1063100010B5054B0446112240F8043B002101F062
:1063200068FD204610BD00BF00A40B000346074ACD
:1063300010B543F8042B01F1100251F8044B43F857
:10634000044B9142F9D10A781A7010BD00A40B00D9
:10635000037D042B04D14068003818BF012070472A
:10636000062B07D143683BB983682BB9C3681BB9B7
:106370000069F1E7002070470120704710B59DF8D3
:10638000084044EA032343EA024242EA016104234B
:106390004160037510BD000007B5064B0360CB7864
:1063A00000938B784A780978FFF7E8FF03B05DF82F
:1063B00004FB00BF00A40B0070470020704710B51D
:1063C00010210446FDF76BFE204610BD08B5FFF70F
:1063D000F6FF08BD30B500224FF69C740260848041
:1063E0008D888C800C68858004600A6030BD10B593
:1063F00004460068FFF7C8F9204610BD38B5C468E8
:10640000F4B12378022B03D104F10C00FFF7EFFF66
:10641000656835B12846FFF70FFA10212846FDF7C9
:106420003EFEA56835B12846FFF706FA102128463A
:10643000FDF735FE20461421BDE83840FDF72FBE9C
:1064400038BD08460021FFF7D9B81FB50C23ADF8B9
:10645000043003688DF80630037A8DF807304368FE
:1064600002930021437AADF80D1001A88DF80F10AA
:106470008DF80C30FFF7CAF805B05DF804FB1FB5C6
:106480000C22ADF8042002688DF80620027A8DF8FF
:106490000720426802920023427A8DF80C201946A8
:1064A00001AA0220ADF80D308DF80F30FFF796F8F5
:1064B00005B05DF804FB0B6803604B68436013B1E3
:1064C0005A6801325A60704737B5044668460D462F
:1064D000FFF7F1FF009B019A23606260002301A88F
:1064E00001930093FDF7DEFF35B1281DFDF7DAFFBC
:1064F00008212846FDF7D3FD204603B030BD13B573
:106500000B460246D0E900016C4684E8030093E89C
:10651000030082E8030094E8030083E8030002B06C
:1065200010BD826810B50AB900F04FFEBDE81040FA
:10653000C368184708B5006800F11001FFF7F1FFC4
:1065400008BD826810B50AB900F03FFEBDE81040F2
:10655000C368184708B5006800F11001FFF7F1FFA4
:1065600008BD000038B500230446036010200D4626
:10657000FDF791FD28B10123C0E90133024B03600F
:10658000C5602060204638BD14A40B0038B5002338
:1065900083608B6804460D462BB102229847EB6856
:1065A000E360AB68A360204638BD0000F0B589B059
:1065B00004686846FFF70EFF4FF00203D4E84F2F40
:1065C000002A03D1C4E8413F0029F7D125D104F1C5
:1065D0000C0569462846FFF7FDFEBFF35B8F0123DC
:1065E0006370002004F10803BFF35B8F53E8006F72
:1065F00043E80002002AF9D1BFF35B8F6EB1FFF7C9
:1066000085F878B129463046FFF78BFF3046FFF713
:1066100013F910213046FDF742FD6846FFF7E7FE0B
:1066200009B0F0BD314602A8FFF7B0FFE068B4F949
:10663000105008B101F026FC06901020ADF81C5057
:10664000FDF729FD0546E8B1002787601820FDF712
:1066500022FD044688B10146876002A8FFF74FFF7C
:10666000049BA268A360059B049206A9E268E3600C
:1066700004F110000592FFF7ADFE084BEB60084BEC
:106680002C60AB6006A8FFF7B2FE02A8FFF7D4F8B3
:10669000002229460348FFF741F8B7E735650B00AC
:1066A000B9670B0021600B002DE9F04F8BB0054658
:1066B0009DF850A00F4690469946FEF76FFF07AE33
:1066C000834638BB4FF62E73059005A93046ADF8CA
:1066D0001830FFF77FFE1420FDF7DDFC044648B1BB
:1066E000022303700123C0E901BB437031460C3023
:1066F000FFF770FE2846214640F8044BFFF732FFB3
:106700003046FFF774FE05A8FFF771FE28460BB070
:10671000BDE8F08F0C2300241420CDE90844079332
:10672000FDF7B9FC014618B1C0E90144047044709A
:1067300004A80391FFF716FF1E4B08930820FDF7EE
:10674000AAFC044610B103A9FFF7B5FE00965FFA54
:106750008AF34A46414638460994FEF727FFB8B9FE
:10676000039B5B7803F0FF0293B94FF69C7305A976
:1067700003A80592ADF81830FFF718FF05A8FFF73A
:1067800036FE05A80999FFF79FFE06A8FDF78AFEC9
:1067900003A905A8FFF78FFE059B069A2B606A6088
:1067A000002306A806930593FDF77CFE04A8FDF7D9
:1067B00079FEABE735680B00012AF8B5054603D131
:1067C0000B6803600020F8BD022A10D0032AF9D11B
:1067D0000468002CF6D004F11000FFF708FE2046F4
:1067E000FFF72AF818212046FDF759FCEAE71820A0
:1067F0000E68FDF750FC044650B13146FFF7C6FE67
:106800003069B6F9147008B101F03CFB2061A78231
:106810002C60D7E738B5002383608B6804460D46AB
:106820002BB102229847EB68E360AB68A360204677
:1068300038BD0000F0B589B004460D4601A81146E8
:10684000FFF742FEA4B124B21DB1284601F01AFBA5
:10685000054601A803A90395ADF81040FFF7A6FE71
:1068600003A8FFF7C4FD02A8FDF71CFE09B0F0BDA8
:10687000019D0123D5E84F2F002A03D1C5E8413FF0
:106880000029F7D1EFD12B73BFF35B8F6B702B1DFA
:10689000BFF35B8F53E8006F43E80042002AF9D151
:1068A000BFF35B8F002EDED02046FEF72FFF07469A
:1068B00060B105F10C013046FFF743FE3046FEF7AC
:1068C000BBFF10213046FDF7EAFBCCE7314603A8B9
:1068D000FFF7A0FF2B7B8DF81C301020FDF7DBFBB2
:1068E0000546D0B187601420FDF7D5FB044678B18A
:1068F0008760014603A8FFF702FE059BA268A3601C
:10690000069B0592E268E3609DF81C3006922374B2
:10691000064BEB60064B2C60AB6003A8FEF78CFFC8
:10692000002229460348FEF7F9FEC7E755650B002C
:1069300039690B0021600B00012A70B5044603D1B0
:106940000B680360002070BD022A0CD0032AF9D125
:106950000468002CF6D02046FEF76EFF1421204676
:10696000FDF79DFBEEE714200E68FDF794FB05464E
:1069700020B13146FFF74EFF337C2B742560E1E7F1
:10698000014B1860704700BFD0E1032008B50B4BE6
:1069900043B1FFF75DFC03681B699847002801DDE0
:1069A000AFF30080064B43B100F09AFB03681B690C
:1069B0009847002801DDAFF3008008BD000000000B
:1069C0000000000008B5FFF7E1FFFEF765FD014B91
:1069D000186008BD34E703200548064A064908B593
:1069E000121A01F0F8F9054B054A1A6008BD00BFFC
:1069F00000F4032004F40320E4A90B0000F40320B6
:106A00001E1C279A07B5002300931A466FF07701E2
:106A1000FEF79EFE03B05DF804FB000007B5438857
:106A20000A2B08D0502B0BD1094B1B684BB103B07C
:106A30005DF804EB1847FFF7E5FF03B05DF804FBD2
:106A4000002300931A466FF07701FEF781FEF4E70A
:106A5000A0E6032010B512480021FEF7DDFE114B21
:106A60001A68114B9A42114B0CBF012200221A7076
:106A700001D0FFF7B1FFFEF7FFFC044601F0C2F9B9
:106A80000B4B13B12046AFF3008000210848FEF7FE
:106A9000ADFDBDE8104007480021FEF74FBE00BF26
:106AA00081690B0000F403201E1C279A9CE603203A
:106AB000000000001D6A0B0010B50C46FEF72CFD0F
:106AC000FEF732FD28B124B1BDE81040E720FEF703
:106AD00033BD10BD014B00229A607047A4E603202D
:106AE0000021FEF70BBE00002DE9F041154ADFF84A
:106AF0006080D2E90063801943EB0101124BD3E9B6
:106B00000067D8E90023861941EB0707BB4208BF9D
:106B1000B2428CB013D003A96846CDE90067FEF7F6
:106B200083FE089B094D03F26C7303AC08930FCCF2
:106B30000FC50FCC0FC5C8E9006723682B600CB0E8
:106B4000BDE8F081E8E60320E0E60320B8E6032094
:106B5000F0E6032008B50020FEF738FD28B1FEF767
:106B60001DFD80F00100C0B208BD0120FCE710B59A
:106B70000020FEF799FC0446A0B9FEF7AFFD0128FE
:106B800010D12046FEF7D2FD60B9FFF7E3FF10B940
:106B9000FEF7F4FCF9E7FFF7DDFFBDE81040002049
:106BA000FEF782BC204610BD1FB5FFF7E0FF1022A4
:106BB0000021684601F01DF900216846FEF784FCBB
:106BC000009805B05DF804FB08B5FFF7EDFFC117AD
:106BD000FFF78AFF014B586808BD00BFB8E60320E5
:106BE000024B1A68024B1A60704700BFCCE10320C9
:106BF000B4E60320014B024A1A607047F8E603200E
:106C000044A40B0010B50446FEF746FCE060236880
:106C100020465B699847002808DAFEF73DFCE368E8
:106C2000C01AA3689842F2D34FF0FF3010BD0000A5
:106C300038B50D460749044600F009F92846FFF724
:106C4000E1FF002804DBC1B2204600F050F9F5E76F
:106C5000204638BD3EA00B0070B50D4609490446DC
:106C6000164600F0F4F82846FFF7CCFF002806DBB4
:106C7000864204D0C1B2204600F039F9F3E720463D
:106C800070BD00BF3EA00B00F8B506460D468F183C
:106C90000024BD420CD0336815F8011B9B683046B8
:106CA0009847031E01DB1C44F3E7002C08BF1C4679
:106CB0002046F8BD13B50446084659B1019101F0CC
:106CC000FEF823680199DB680246204602B0BDE861
:106CD0001040184702B010BD03689B68184738B5CC
:106CE0000D210546FFF7F8FF0A2104462846FFF765
:106CF000F3FF204438BD38B50546FFF7DBFF0446F7
:106D00002846FFF7ECFF204438BD30B58BB0002398
:106D1000012A8DF8243098BF0A2209AC0D46B1FB38
:106D2000F2F101FB125303F0FF03092B94BF303340
:106D30003733DBB2AA4204F8013DEFD92146FFF711
:106D4000B9FF0BB030BD2DE9F04186B000AF05466C
:106D50000E46381D142114463B60FEF735FD1328FE
:106D60000ED8391D2846FFF7A5FF04461EB1284658
:106D7000FFF7B5FF044420461837BD46BDE8F08153
:106D800000F1080323F00703E846ADEB030D2246AC
:106D9000411C3B686846FEF717FD69462846FFF729
:106DA00089FF0446C546E1E7024800230360FEF779
:106DB0005BBB00BFFCE6032010B504460068FEF78D
:106DC000E3FC204610BD10B50446006808B1FEF78C
:106DD000DBFC0023C4E90133236010BD38B5044651
:106DE0000D4600680131FEF7D7FC10B1C4E900057B
:106DF000012038BD10B50368044623B143688B42B7
:106E000001D3012010BD2046FFF7E8FF0028F9D08C
:106E1000A368002BF5D122681370F2E737B50D4651
:106E2000114601920446FFF7E5FF019A28B9204672
:106E3000FFF7C9FF204603B030BDA2602946206895
:106E400000F0C9FF2268A3680021D154F2E70023B3
:106E500013B5C0E9003304468360037341B10846AB
:106E6000019101F02CF8019902462046FFF7D6FF68
:106E7000204602B010BD38B5054600680C4668B122
:106E80006A688B689A4207D3096800F0F3FFA36829
:106E9000AB600023A36038BDFEF776FC23682B604F
:106EA00063686B60A368AB600023C4E90033F1E75B
:106EB000884210B5044601D0FFF7DDFF204610BD23
:106EC00070B505460E4609B9002070BD6AB18468E8
:106ED00014442146FFF78EFF0028F5D02868AB68E0
:106EE0003146184400F0C6FFAC600120EDE707B55D
:106EF00000238DF80410012201A98DF80530FFF759
:106F0000DFFF03B05DF804FB58B50E462AB121B18E
:106F10008468A34202D300230B7058BDE41A013ADF
:106F20000168944228BF144619442246304600F0B6
:106F3000E2FF00233355F0E7006808B100F047BFD7
:106F40007047000008B5006840B100F03DFF51EC0B
:106F5000100B00F0C5FE00EE100A08BD9FED010AFF
:106F6000FBE700BF0000000007B50B46002102460A
:106F7000009101208C21FEF7F5FB03B05DF804FBC6
:106F800001460020FFF7F0BF0020FFF7F9BF000027
:106F9000054B02221A60054B054A9A600020C3E99E
:106FA0000000FEF7A3BB00BF0CE7032000E70320AF
:106FB0000000FFFF002240681146FEF767BB002279
:106FC00040681146FEF772BB40680022FEF766BBC0
:106FD0004068002281F00101FEF750BB00234068A9
:106FE0001A461946FEF742BB002340681A46194666
:106FF000FEF734BB002240681146FEF727BB002293
:1070000040681146FEF712BB406800220221FEF7DD
:1070100015BB002340681A46FEF700BB024B032253
:107020005A60024A1A60704710E7032050A40B0010
:107030007047000038B5202514230446036085609E
:1070400005610649284600F0BEF8044960602846FC
:1070500000F0B9F8E060204638BD00BF84A40B0002
:1070600030B50E4D2978BFF35B8F11F0010487B066
:1070700011D12846FDF715F868B101A8FFF7DAFF2E
:1070800001AA21460648FEF7B9FF2846FDF70EF88B
:10709000044800F093FE024807B030BD18E7032013
:1070A0001CE7032031700B007047000038B5044620
:1070B00014252A46002100F09CFE25804025074922
:1070C00025812846258200F07EF804496060284624
:1070D00000F079F8E060204638BD00BF84A40B00C2
:1070E00030B50E4D2978BFF35B8F11F0010487B0E6
:1070F00011D12846FCF7D5FF68B101A8FFF7D6FFEC
:1071000001AA21460648FEF7DDFF2846FCF7CEFF20
:10711000044800F053FE024807B030BD38E70320B2
:107120003CE70320A9700B00252813B502D90020E5
:1071300002B010BDA0F10B03022B1AD8174C217816
:10714000BFF35B8F11F001010BD120460191FCF7D9
:10715000A8FF019928B11248FEF71AFF2046FCF754
:10716000A5FF0F4B1878FEF7E7F80028DFD10120C4
:10717000DEE7012809D8FFF773FF0021007CFEF746
:10718000C3F880F00100C0B2D2E709380128EED878
:10719000FFF7A6FF007CFEF72FF9F2E750E7032088
:1071A00054E70320252838B504460D460AD8FF29A0
:1071B00008D0FFF7B9FF28B129462046BDE838407E
:1071C000FEF792B938BDFCF768BF08B5FEF704FBBF
:1071D000014900F0F9B800BFA0A40B007FB500245E
:1071E0001023CDE90234036815469E6912686B4688
:1071F000CDE90044B0479DF8043003F00603062BA8
:1072000003BF009B2B600120204604B070BD009896
:10721000904214BF012006207047000010B5034BB8
:107220000360044600F0CDF8204610BDE0A40B003A
:1072300010B50446FFF7F2FF20460821FCF72FFFA8
:10724000204610BD2DE9F0411F46DDE90834DDF888
:10725000188098450646154607D1079900F0B4F8FE
:1072600018B165710020BDE8F0813946304600F064
:10727000ABF80028F6D00123C4F800802571A37173
:10728000F0E738B515461C4600F09EF820B10823FB
:10729000E36006232560237138BD73B505460C46AF
:1072A00001921E4600F090F850B9032E08D82368CA
:1072B000019A5B692946204602B0BDE87040184734
:1072C00002B070BD10B5034B03600446FFF7A6FF84
:1072D000204610BD40A50B0010B50446FFF7F2FF95
:1072E00020460C21FCF7DBFE204610BDF7B5089FB9
:1072F000974205460E4614460AD0A86802680897C9
:10730000156A31462246AC4603B0BDE8F0406047FE
:107310001946019300F058F8019B0028EDD0062093
:1073200003B0F0BD2DE9F14F0D461946DDE90A4BDA
:10733000DDE90CA681461746984600F045F890B165
:10734000002D3460377109DB61198A450CBF0621B5
:107350000121B171002001B0BDE8F08F0235F9D1F3
:107360000123B371F6E7544506D15946484600F06B
:107370002BF808B17771EDE7D9F808000368CDE97B
:107380000CA6CDE90A4BDC693A4643462946A44699
:1073900001B0BDE8F04F60472DE9F04107460C46CB
:1073A00015461E46FFF76DFF48B9B86803689F6928
:1073B0002A4633462146BC46BDE8F0416047BDE859
:1073C000F081704700207047814208B50ED04068B8
:1073D00003782A2B0CD049680B782A2B08BF01317F
:1073E00000F03EFDB0FA80F0400908BD0120FCE746
:1073F0000020FAE781F0004102E000BF83F0004383
:1074000030B54FEA41044FEA430594EA050F08BF3F
:1074100090EA020F1FBF54EA000C55EA020C7FEA03
:10742000645C7FEA655C00F0E2804FEA5454D4EB80
:107430005555B8BF6D420CDD2C4480EA020281EA4A
:10744000030382EA000083EA010180EA020281EA82
:107450000303362D88BF30BD11F0004F4FEA0131D4
:107460004FF4801C4CEA113102D0404261EB4101E3
:1074700013F0004F4FEA03334CEA133302D0524269
:1074800063EB430394EA050F00F0A780A4F1010425
:10749000D5F1200E0DDB02FA0EFC22FA05F280185F
:1074A00041F1000103FA0EF2801843FA05F3594145
:1074B0000EE0A5F120050EF1200E012A03FA0EFCC4
:1074C00028BF4CF0020C43FA05F3C01851EBE371EE
:1074D00001F0004507D54FF0000EDCF1000C7EEB0B
:1074E00000006EEB0101B1F5801F1BD3B1F5001F49
:1074F0000CD349085FEA30004FEA3C0C04F1010468
:107500004FEA445212F5800F80F09A80BCF1004F90
:1075100008BF5FEA500C50F1000041EB045141EA12
:10752000050130BD5FEA4C0C404141EB0101013CDB
:1075300028BFB1F5801FE9D291F0000F04BF0146CA
:107540000020B1FA81F308BF2033A3F10B03B3F19C
:1075500020020CDA0C3208DD02F1140CC2F10C022C
:1075600001FA0CF021FA02F10CE002F11402D8BF8A
:10757000C2F1200C01FA02F120FA0CFCDCBF41EA56
:107580000C019040E41AA2BF01EB0451294330BD25
:107590006FEA04041F3C1CDA0C340EDC04F1140402
:1075A000C4F1200220FA04F001FA02F340EA0300D9
:1075B00021FA04F345EA030130BDC4F10C04C4F11F
:1075C000200220FA02F001FA04F340EA03002946FF
:1075D00030BD21FA04F0294630BD94F0000F83F449
:1075E000801306BF81F480110134013D4EE77FEA2C
:1075F000645C18BF7FEA655C29D094EA050F08BF78
:1076000090EA020F05D054EA000C04BF1946104658
:1076100030BD91EA030F1EBF0021002030BD5FEA9C
:10762000545C05D14000494128BF41F0004130BDC4
:1076300014F580043CBF01F5801130BD01F0004518
:1076400045F0FE4141F470014FF0000030BD7FEA8B
:10765000645C1ABF194610467FEA655C1CBF0B4686
:10766000024650EA013406BF52EA033591EA030F9D
:1076700041F4002130BD00BF90F0000F04BF002195
:10768000704730B54FF4806404F132044FF00005C8
:107690004FF0000150E700BF90F0000F04BF002141
:1076A000704730B54FF4806404F1320410F00045A7
:1076B00048BF40424FF000013EE700BF42004FEAA2
:1076C000E2014FEA31014FEA02701FBF12F07F431F
:1076D00093F07F4F81F06051704732F07F4208BFD6
:1076E000704793F07F4F04BF41F40021704730B5DD
:1076F0004FF4607401F0004521F000411CE700BF29
:1077000050EA010208BF704730B54FF000050AE0AB
:1077100050EA010208BF704730B511F0004502D5AC
:10772000404261EB41014FF4806404F132045FEAAE
:10773000915C3FF4D8AE4FF003025FEADC0C18BF57
:1077400003325FEADC0C18BF033202EBDC02C2F149
:10775000200300FA03FC20FA02F001FA03FE40EADB
:107760000E0021FA02F11444BDE600BF70B54FF0DF
:10777000FF0C4CF4E06C1CEA11541DBF1CEA1355BD
:1077800094EA0C0F95EA0C0F00F0DEF82C4481EA25
:10779000030621EA4C5123EA4C5350EA013518BF45
:1077A00052EA033541F4801143F4801338D0A0FB32
:1077B00002CE4FF00005E1FB02E506F00042E0FBDF
:1077C00003E54FF00006E1FB03569CF0000F18BFE5
:1077D0004EF0010EA4F1FF04B6F5007F64F540748D
:1077E00004D25FEA4E0E6D4146EB060642EAC62120
:1077F00041EA55514FEAC52040EA5E504FEACE2E8D
:10780000B4F1FD0C88BFBCF5E06F1ED8BEF1004F8F
:1078100008BF5FEA500E50F1000041EB045170BD0B
:1078200006F0004646EA010140EA020081EA03014F
:10783000B4EB5C04C2BFD4EB0C0541EA045170BD4B
:1078400041F480114FF0000E013C00F3AB8014F1C5
:10785000360FDEBF002001F0004170BDC4F100040E
:10786000203C35DA0C341BDC04F11404C4F120058F
:1078700000FA05F320FA04F001FA05F240EA0200EA
:1078800001F0004221F0004110EBD37021FA04F620
:1078900042EB06015EEA430E08BF20EAD37070BDDA
:1078A000C4F10C04C4F1200500FA04F320FA05F039
:1078B00001FA04F240EA020001F0004110EBD3703B
:1078C00041F100015EEA430E08BF20EAD37070BDAB
:1078D000C4F1200500FA05F24EEA020E20FA04F384
:1078E00001FA05F243EA020321FA04F001F0004133
:1078F00021FA04F220EA020000EBD3705EEA430EA4
:1079000008BF20EAD37070BD94F0000F0FD101F0D2
:107910000046400041EB010111F4801F08BF013C0B
:10792000F7D041EA060195F0000F18BF704703F049
:107930000046520043EB030313F4801F08BF013DD0
:10794000F7D043EA0603704794EA0C0F0CEA13558C
:1079500018BF95EA0C0F0CD050EA410618BF52EA46
:107960004306D1D181EA030101F000414FF000004C
:1079700070BD50EA410606BF1046194652EA43065A
:1079800019D094EA0C0F02D150EA013613D195EACE
:107990000C0F05D152EA03361CBF104619460AD116
:1079A00081EA030101F0004141F0FE4141F4700120
:1079B0004FF0000070BD41F0FE4141F4780170BD10
:1079C00070B54FF0FF0C4CF4E06C1CEA11541DBF75
:1079D0001CEA135594EA0C0F95EA0C0F00F0A7F877
:1079E000A4EB050481EA030E52EA03354FEA0131A4
:1079F00000F088804FEA03334FF0805545EA1313B7
:107A000043EA12634FEA022245EA111545EA10657E
:107A10004FEA00260EF000419D4208BF964244F115
:107A2000FD0404F5407402D25B084FEA3202B61A34
:107A300065EB03055B084FEA32024FF480104FF408
:107A4000002CB6EB020E75EB030E22BFB61A75467C
:107A500040EA0C005B084FEA3202B6EB020E75EB0F
:107A6000030E22BFB61A754640EA5C005B084FEA77
:107A70003202B6EB020E75EB030E22BFB61A754644
:107A800040EA9C005B084FEA3202B6EB020E75EB4F
:107A9000030E22BFB61A754640EADC0055EA060E10
:107AA00018D04FEA051545EA16754FEA06164FEA53
:107AB000C30343EA52734FEAC2025FEA1C1CC0D1FF
:107AC00011F4801F0BD141EA00014FF000004FF08C
:107AD000004CB6E711F4801F04BF01430020B4F14D
:107AE000FD0C88BFBCF5E06F3FF6AFAEB5EB030C05
:107AF00004BFB6EB020C5FEA500C50F1000041EB02
:107B0000045170BD0EF0004E4EEA113114EB5C04CE
:107B1000C2BFD4EB0C0541EA045170BD41F48011A1
:107B20004FF0000E013C90E645EA060E8DE60CEAA9
:107B3000135594EA0C0F08BF95EA0C0F3FF43BAFC6
:107B400094EA0C0F0AD150EA01347FF434AF95EA7D
:107B50000C0F7FF425AF104619462CE795EA0C0F61
:107B600006D152EA03353FF4FDAE1046194622E72E
:107B700050EA410618BF52EA43067FF4C5AE50EA08
:107B800041047FF40DAF52EA43057FF4EBAE12E7F8
:107B90004FF0FF3C06E000BF4FF0010C02E000BFD9
:107BA0004FF0010C4DF804CD4FEA410C7FEA6C5CBC
:107BB0004FEA430C18BF7FEA6C5C1BD001B050EA5F
:107BC000410C0CBF52EA430C91EA030F02BF90EA4A
:107BD000020F0020704710F1000F91EA030F58BF09
:107BE000994208BF90422CBFD8176FEAE37040F06B
:107BF000010070474FEA410C7FEA6C5C02D150EA09
:107C0000013C07D14FEA430C7FEA6C5CD6D152EAC3
:107C1000033CD3D05DF8040B704700BF8446104688
:107C200062468C461946634600E000BF01B5FFF787
:107C3000B7FF002848BF10F1000F01BD4DF808ED57
:107C4000FFF7F4FF0CBF012000205DF808FB00BF28
:107C50004DF808EDFFF7EAFF34BF012000205DF882
:107C600008FB00BF4DF808EDFFF7E0FF94BF0120CF
:107C700000205DF808FB00BF4DF808EDFFF7CEFFD0
:107C800094BF012000205DF808FB00BF4DF808ED0F
:107C9000FFF7C4FF34BF012000205DF808FB00BFE0
:107CA0004A0011D212F5001211D20DD56FF478737B
:107CB000B3EB62520ED44FEAC12343F0004343EAD0
:107CC000505323FA02F070474FF00000704750EA1B
:107CD000013002D14FF0FF3070474FF00000704785
:107CE0004FEA4102B2F1E04324BFB3F5001CDCF1DE
:107CF000FE5C0DD901F0004C4FEAC0024CEA507016
:107D0000B2F1004F40EB830008BF20F00100704744
:107D100011F0804F21D113F13872BCBF01F0004047
:107D2000704741F480114FEA5252C2F11802C2F179
:107D3000200C10FA0CF320FA02F018BF40F00100FA
:107D40004FEAC1234FEAD32303FA0CFC40EA0C00AC
:107D500023FA02F34FEA4303CCE77FEA625307D1E9
:107D600050EA01331EBF4FF0FE4040F44000704720
:107D700001F0004040F0FE4040F40000704700BFBA
:107D8000D0B50C4B002206460F46FFF7EFFCFFF77D
:107D900087FF0446FFF770FC074B0022FFF7E6FC65
:107DA00002460B4630463946FFF728FBFFF778FFBF
:107DB0002146D0BD0000F03D0000F0410023014607
:107DC0001A46184600F066BF002100F0CBBE0A221A
:107DD000002100F055BF0A44914200F1FF3300D169
:107DE000704710B511F8014B03F8014F9142F9D1DA
:107DF00010BD02440346934200D1704703F8011BB3
:107E0000F9E7000038B5104B1D68AB6B0446B3B9F9
:107E10001820FDF7B1FC0246A86320B90B4B0C48B3
:107E20004221FDF7F1FC0B490B4BC0E900130B4B52
:107E300083600B23838100210120C2E90401AB6B25
:107E400000221C615A6138BDD0E1032079A50B00E6
:107E500090A50B000E33CDAB34126DE6ECDE0500C1
:107E600010F8012B11F8013B012A28BF9A42F7D0E4
:107E7000D01A7047034611F8012B03F8012B002A92
:107E8000F9D17047024B0146186800F003B800BFF3
:107E9000D0E1032037B5044608460D4600F00FF840
:107EA000421C114620460192FDF79EFC044618B183
:107EB000019A2946FFF78FFF204603B030BD0346E5
:107EC00013F8012B002AFBD1181A0138704710B59E
:107ED0007AB103460139841813F8010B11F8012F08
:107EE000904201D1A34201D1801A10BD0028F3D1E4
:107EF000FAE71046F9E710B50139034632B111F837
:107F0000014F03F8014B013A002CF7D11A4400212C
:107F1000934200D110BD03F8011BF9E770B5044688
:107F20000D4645EC104B164601F00EFE51EC100BC1
:107F30007EB1C5F30A53C3F16B03002B09DD1B05AA
:107F400003F17F55002405F5401522462B46FFF727
:107F50000DFC70BD000000002DE9F04F2DED028BEF
:107F60009DB01F4600231893A24B13921B680593E4
:107F7000044618468846FFF7A2FF4FF0000A054660
:107F80004FF0000BCDF85C80179B1A782B2A4ED04F
:107F90003BD80D2A34D8082A34D8002A3ED00023F2
:107FA0000A93179E3378302B40F0B080737803F03B
:107FB000DF03582B68D10A9B019318AB02970093FB
:107FC0008D4A19AB17A9204600F02EFF10F00707C5
:107FD000054605D0062F2CD10136002317960A93AB
:107FE000139B002B40F090850A9BEBB152460BF19E
:107FF000004343EC102B1DB0BDEC028BBDE8F08FAD
:10800000202ACCD101331793BEE72D2AC7D10122F4
:108010000A925A1C17925B78002BC2D1139BCDF8A1
:108020005C80002B40F06E8552465B46E1E7002203
:10803000EEE7189A3AB135211AA801F090FE189986
:10804000204601F04FFA013F042F06D8DFE807F081
:108050000A0314170A00DDE91AAB2807C0D54BF054
:10806000004BBDE7DDE91AA3199A23F4801302F24D
:10807000334243EA025BF0E7DFF880B1EDE76FF0EF
:10808000004B4FF0FF3AE8E7179B5A1C17925B78BA
:10809000302BF9D0002BA3D001234FF0000904931B
:1080A000179B0893CDF81C904F460A221798067824
:1080B000A6F13003D9B209292AD905992A46FFF732
:1080C00006FF98B3002032463D4605900346652AD8
:1080D00001D0452A18D11DB9049A02439ED000252B
:1080E000DDF85C8008F10102179298F801202B2A34
:1080F00075D02D2A7BD04FF0000CA2F13001092958
:1081000040F28280CDF85C8000269DE00023C4E729
:10811000082FD8BF079900F10100DABF02FB013335
:10812000079302FB093901371790BFE7179B5A19CC
:1081300017925A5D002F37D005903D46A2F13003CB
:10814000092B12D90123C2E7179B5A1C17925A78A0
:108150000130302AF8D0A2F13103082B00F2D98483
:10816000179B0590002008930546303A00F1010363
:1081700014D00599194405912B4600EB050E0A21F0
:10818000734513D12B18082B05F1010505441CDCA0
:1081900007990A2303FB012307930023179A511C15
:1081A000179152781846C9E73846D2E7082B04DC05
:1081B000079E4E4307960133E2E703F1010CBCF141
:1081C000100FD8BF01FB09F9F5E7102DDCBF0A231A
:1081D00003FB0929E1E70023059301237CE74FF026
:1081E000000C08F10202179298F8022085E74FF080
:1081F000010CF6E708A80B001CA60B000000F07F9E
:10820000179A511C17915278302AF9D0A2F13101F6
:1082100008293FF679AFA2F1300E179A0692179A05
:10822000511C17915278A2F13006092E37D9069EBB
:10823000891B082944F61F6602DC7645A8BF7646EE
:10824000BCF1000F00D07642002D4DD104990143BE
:108250007FF4C6AE002B7FF4E1AE692A27D024DC80
:10826000492A24D04E2A7FF4D9AE9F4917A801F09D
:1082700033F800283FF4D2AE179B1B78282B2DD162
:108280009A491AAA17A801F03BF8052826D11B9B8A
:10829000DDF868A043F0FF4B4BF4E00BA0E60A21A9
:1082A00001FB0E2EAEF1300EB9E76E2ADBE79049E6
:1082B00017A801F011F800283FF4B0AE179B8D49C4
:1082C000013B17A8179301F007F810B9179B01336A
:1082D0001793DFF830B24FF0000A81E6864801F0CC
:1082E00093FD5BEC10AB7BE6059B0798F31A002F20
:1082F00008BF2F46102D0693A846A8BF4FF01008C0
:10830000FFF7BAF9092D82468B4613DD7B4B03EB51
:10831000C80353E91223FFF729FA824648468B46E1
:10832000FFF7AAF902460B4650465946FFF768F890
:1083300082468B460F2D38DC069B002B3FF450AE57
:1083400024DD162B0BDC6D4901EBC301D1E90001E3
:1083500052465B46FFF70AFA82468B4640E6069A8B
:10836000C5F12503934220DB644CC5F10F0504EBF6
:10837000C50152465B46D1E90001FFF7F7F9069BBC
:108380005D1B04EBC504D4E90023E3E7069B163329
:108390000BDB059B9E1B594B03EBC606D6E900235E
:1083A00050465946FFF70CFBD6E7069BA5EB08089D
:1083B0009844B8F1000F74DD18F00F030AD04F494C
:1083C00001EBC30152465B46D1E90001FFF7CEF94C
:1083D00082468B4638F00F084FD0B8F59A7F22DDE1
:1083E00000252E46079505952223DFF818B1236056
:1083F0004FF0000A079B002B3FF4F2AD189920467E
:1084000001F070F80599204601F06CF831462046DD
:1084100001F068F80799204601F064F829462046E3
:1084200001F060F8DCE5364B049300234FEA28188E
:10843000504659469946B8F1010F21DC0BB18246EE
:108440008B462F4BABF1547B03EBC90952465B467D
:10845000D9E90001FFF78AF92A4B0A460B402A495D
:108460008B428246BCD8A1F580118B4286BFDFF8D3
:108470009CB04FF0FF3A02F1547B0023049384E058
:1084800018F0010F05D0049BD3E90023FFF76EF924
:108490000123049A083209F101094FEA680804929D
:1084A000C9E7EAD0C8F1000818F00F020AD0134B50
:1084B00003EBC20350465946D3E90023FFF780FA85
:1084C00082468B465FEA2818D7D0B8F11F0F1FDD10
:1084D00000252E460795059522234FF0000A4FF000
:1084E000000B236086E700BF16A60B0030A60B002A
:1084F0000DA60B0010A60B003EA00B00C8A80B0099
:10850000A0A80B000000F07F0000A07CFFFFEF7F21
:1085100018F0100318BF6A23DFF8AC930493504699
:108520005946002318F0010F04D0D9E90023FFF7C2
:108530001DF901235FEA680809F10809F2D10BB1BE
:1085400082468B46049BC3B1CBF30A52C2F16B0344
:10855000002B594611DD1F2B40F32481342BDEBF45
:10856000C2F14B024FF0FF3303FA02F24FF0000A60
:10857000CCBF4FF05C7B02EA010B00220023504687
:108580005946FFF75BFB0028A2D1079B009308998F
:108590002B463A46204601F00DF8079000283FF49C
:1085A0001FAF059B9E1B069B002BB4BF33460023C9
:1085B0000C93069B002523EAE37312932E46079B38
:1085C0002046596800F04EFF059000283FF40CAF9C
:1085D000079B1A69023203F10C0192000C30FFF77D
:1085E000FAFB4BEC10AB1AAA19A9204601F028FBA4
:1085F0004BEC18AB189000283FF4F6AE0121204652
:1086000001F072F8064600283FF4EEAE199B04997B
:10861000002BABBF0C9A129A129FDDF83090ACBFC2
:1086200003EB0209D71A1A9AA3EB01089044A14B55
:1086300008F1FF389845C2F1360280F2C780A3EBFB
:1086400008031F2BA2EB03024FF0010100F3B180DE
:1086500001FA03F30D930023089309EB0208049B2E
:10866000C14517441F444B46A8BF4346BB42A8BF61
:108670003B46002BC2BFA8EB0308FF1AA9EB030976
:108680000C9B002B17DD31461A46204601F0ECF812
:10869000064600283FF4A8AE0146189A204601F08D
:1086A00039F80B9000283FF49FAE1899204600F04F
:1086B00019FF0B9B1893B8F1000F00F38C80069BF9
:1086C000002B08DD129A0599204601F0CDF805909F
:1086D00000283FF489AE002F08DD05993A46204670
:1086E00001F01CF9059000283FF47EAEB9F1000FAF
:1086F00008DD31464A46204601F010F906460028BA
:108700003FF472AE059A1899204601F093F9054698
:1087100000283FF469AEC3680B930023C360314661
:1087200001F06CF9002860DA0B9B53EA0A0340F071
:108730008280CBF31303002B7DD12BF000431B0D64
:108740001B05B3F1D66F76D96B6913B92B69012B71
:1087500071DD29460122204601F0E0F83146054648
:1087600001F04CF9002866DD0499534A5B46002964
:1087700000F0818002EA0B01B1F1D66F7BDCB1F130
:108780005C7F7FF7A9AE4D4B504659460022FEF75D
:10879000EDFF0B46034308BF222382468B4608BFEA
:1087A00023602BE64FF0FF3202FA03F303EA0A0AD2
:1087B000E3E6C8F17F4808F57F0808F57B4808F133
:1087C000E20801FA08F308930D9146E700230893A5
:1087D00001230D9341E718994246204601F09EF887
:1087E000189000287FF46BAFFEE55F466ED10B9AC0
:1087F000CBF3130342B3324A934228D1049B514630
:10880000EBB12D4B3B40B3F1D46F4FF0FF3219D891
:108810001B0DC3F16B0302FA03F3994217D1294BE5
:108820009F4202D101313FF4DFAD234B3B4003F5C2
:10883000801B4FF0000A049B002BA4D1DEE54FF013
:10884000FF33EAE71346E8E753EA0A038CD0089BB4
:10885000DBB13B42EFD00B9B049A50465946C3B163
:10886000FFF75CFB02460B4651EC180BFEF7C8FD08
:1088700082468B46DFE71340A3F580136FEA135B54
:108880006FEA0B5B4FF0FF3AD5E70D9B13EA0A0F37
:10889000E0E7FFF743FB02460B4651EC180BFEF7EF
:1088A000ADFD0022002382468B46FFF7C7F9002862
:1088B000C1D011E602FCFFFF0000F07F000050393C
:1088C000FFFF0F00FFFFEF7F48A60B003146284651
:1088D00001F012FA59EC108B10EE100A00224FF042
:1088E00080434946FFF7BEF900287AD00B9B002B46
:1088F0004AD0954B0022CDE90823DFF84C924FF087
:108900000008924B3B400D930D9A914B9A4240F0D8
:10891000B080DDE90801A7F1547B4BEC10ABCDE949
:10892000080101F011F9DDE9080153EC102BFEF705
:108930001DFF52465B46FEF763FD0B468349854AA1
:1089400019409142824660D918EE903A02F1547271
:10895000934204D118EE103A01333FF445ADDFF8ED
:1089600000B24FF0FF3A1899204600F0BBFD059980
:10897000204600F0B7FD3146204600F0B3FD294601
:10898000204600F0AFFD1AE6BAF1000F1BD1CBF381
:108990001303F3B96C4B002240464946FFF758F9E0
:1089A000D0B9404649466C4B0022FEF7DFFE8046B8
:1089B000894609F10043CDF850801593DDE9142371
:1089C000CDE908239DE7BAF1010F02D1002F3FF452
:1089D00083AD624B00228EE7DFF87C914FF00008F8
:1089E000E7E75D4B404649460022FEF7BFFE0B9B82
:1089F0008046894633B901F100430E900F93DDE9BB
:108A00000E23DDE7CDE90E89F9E703F1547B049BE2
:108A1000002BA8D12BF000430D9A1B0D1B059A4289
:108A2000A1D14046494601F005FAFEF771FE024623
:108A30000B4640464946FEF7E1FC0B9ACBF3130385
:108A400043EA0A0313438046894655D036A3D3E947
:108A50000023FFF7FDF800287FF4D0AC34A3D3E95E
:108A6000002340464946FFF711F900283FF47BAF49
:108A7000C4E4049B33B30D9BB3F1D46F22D82EA36F
:108A8000D3E9002340464946FFF7ECF8A0B1494638
:108A90004046FFF705F9012838BF0120FEF7ECFD3D
:108AA0000B9B8046894623BB01F100431090119334
:108AB000DDE91023CDE90823099B0D9A03F1D66364
:108AC0009B1A0993DDE90801B0EE480AF0EE680A46
:108AD000CDE9080101F038F8DDE9080153EC102B6D
:108AE000FEF744FE53EC182BFEF78AFC82468B46B9
:108AF0008DE7CDE91089DBE711A3D3E90023FFF768
:108B0000A7F8B2E700230A93139A179B1360FFF7A5
:108B10006BBA652A3FF45FAB452A3FF45CAB012397
:108B2000FFF794BBAFF300809535A094FFFFDF3FC4
:108B300035E5AF350000E03F0000C0FFFFFFDF413B
:108B40009535A094FFFFCF3F0000F03F0000F07F7D
:108B50000000E07FFFFF9F7C0000E03F0000F0BFCF
:108B6000FFFFEF7F0A4601460248034B0068FFF70C
:108B7000F3B900BFD0E103203CE20320012B2DE933
:108B8000F04701D0242B06D9FCF736FE16230360EC
:108B90000020BDE8F087DFF8E4C00D462E4615F84A
:108BA000014B14F80C7017F00807F7D12D2C32D1B7
:108BB0002C780127B51C002B5BD0102B09D1302C51
:108BC00007D12C7804F0DF04582C4DD16C78102399
:108BD000023507F1004808F1FF384FF0000CB8FBF0
:108BE000F3F9664603FB198AA4F1300EBEF1090FB2
:108BF00016D87446A34224DDBCF1000F1EDBB1453C
:108C00001CD301D1A24519DB06FB03464FF0010C32
:108C100015F8014BE8E72B2C04BF2C78B51CCAE7EC
:108C2000A4F1410EBEF1190F01D8373CE2E7A4F1DF
:108C3000610EBEF1190F04D8573CDBE74FF0FF3C43
:108C4000E6E7BCF1000F05DA22230360464642B98D
:108C500030469EE707B17642002AF9D0BCF1000FFA
:108C600000D0691E1160F3E73024002BB1D1082336
:108C7000AFE7302CA5D00A23ABE700BF71A60B00ED
:108C800013460A46014602480068FFF777BF00BF57
:108C9000D0E103202DE9F843DFF8B8800646D8F884
:108CA00000001F460D46914600F0C6FB254B1C6890
:108CB00034B9254C1C60254B13B11B68C4F88830AF
:108CC00063681F2B07DDD8F8000000F0B7FB4FF0FA
:108CD000FF30BDE8F8834EB3D4F8880088B91C4B48
:108CE00023B9D8F8000000F0A8FBF0E74FF4847037
:108CF000FCF742FD0028F4D00023C0E94033C4F85B
:108D00008800636840F8239001229A4000EB8301B9
:108D1000D0F800311343C0F80031022EC1F8807042
:108D200002BFD0F804311343C0F804316368D8F8A7
:108D300000005A1C0233626044F8235000F07EFBAE
:108D40000020C6E7E8E703205CE7032000000000FE
:108D500079570B0034E203200369B3EB611F2DE95F
:108D6000F0434FEA611200F1140445DD11F01F01D8
:108D700004EB830604EB82050CD100F110072946B1
:108D8000B14234D39B1A9B00EA1E964238BF00239F
:108D9000234415E054F82270C1F12008CF4005F1BA
:108DA000040EA1467645F44615D89A1A9200043A64
:108DB0000135AE4238BF0022A318A75007B10433D3
:108DC0001A1BA3424FEAA20208BF0023026108BF98
:108DD0004361BDE8F083DCF800C00CFA08FC4CEA03
:108DE000070749F8047B5EF8047BCF40DAE751F8C7
:108DF00004CB47F804CFC3E72346E1E7A0F13003F3
:108E0000092B02D82038C0B27047A0F16103052BAE
:108E100001D84738F7E7A0F14103052B01D82738DF
:108E2000F1E70020704700002DE9F04F2DED028B97
:108E300089B008EE100A0493B44B1B6801931846DE
:108E40008B469046FFF73BF8019BDBF8002003447C
:108E5000824613F8013C0593931CC2F1FF2202F5F0
:108E60007F02FE32D1181F4613F8010B0091302803
:108E7000F8D0FFF7C3FF044600283AD101995246C3
:108E80003846FFF724F80546002868D117F80A008D
:108E900007EB0A06FFF7B2FF002862D033461878C6
:108EA00030281F4603F10103F9D0FFF7A7FF012384
:108EB000B0FA80F46409354600933A46164601320A
:108EC0003078FFF79BFF0028F8D1019952463046D1
:108ED000FEF7FDFF80B94DB906EB0A052A46164696
:108EE00001323078FFF78AFF0028F8D1AD1BAD00C2
:108EF00004E000242546E0E7002DF7D1337803F0A5
:108F0000DF03502B3BD173782B2B2CD02D2B2ED065
:108F1000711C4FF000090878FFF770FF431EDBB2A9
:108F2000182B2CD8A0F1100211F8010FFFF766FFE3
:108F3000431EDBB2182B1DD9B9F1000F00D05242ED
:108F40001544CBF80010E4B1009B002B14BF0027A0
:108F50000627384609B0BDEC028BBDE8F08F3E46CF
:108F600025460124CAE74FF00009B11CD3E74FF0B2
:108F70000109FAE70A2303FB0202103AD4E731465B
:108F8000DFE7F31B013B2146072B0BDC18EE100A31
:108F900000F068FA044640B95D4B0246DE215D48A8
:108FA000FCF732FC01315B10EEE700F114094FF0E1
:108FB000000BCAF10103CDF80890CDF800B006937C
:108FC000B74240D30298009B40F8043BA0EB090055
:108FD000801046012061184600F036FB301AD8F8A0
:108FE0000060B04263DD871B3946204600F0DAFEA0
:108FF0008246A8B17B1E591103F01F0259F82110B7
:109000004FF0010A0AFA02F20A4209D0534505DD7F
:10901000B91E204600F0C6FE002845D14FF0020AD6
:1090200039462046FFF798FE3D44D8F80830AB4259
:109030004CDA18EE100A214600F054FA149A002374
:109040001360A32785E7731E059A039316F8013C66
:10905000934219D0BBF1200F07D1029B009A43F82D
:10906000042B0293002300939B4616F8010CFFF794
:10907000C5FE009B00F00F0000FA0BF003430093C5
:109080000BF1040B039B0DE0039B069A1344BB42B8
:10909000E0D31846019907935246FEF718FF079B45
:1090A0000028D7D11E468BE74FF0030AB8E70ADA4B
:1090B000371A214618EE100A3A4600F02FFCED1B35
:1090C000044600F114094FF0000AAEE7D8F8040096
:1090D000A84272DD451BAE4236DCD8F80C30022BBC
:1090E0002AD0032B2CD0012B1CD1AE421AD1012E39
:1090F00012D1049AD8F80430136001232361C9F80F
:109100000030149B62271C6023E700BF08A80B00F7
:1091100071A70B0082A70B00711E204600F042FED3
:109120000028E6D118EE100A214600F0DBF9149A67
:109130000023136050270CE7159B002BF2D1D8E7D2
:10914000159B002BD5D1EDE76F1EBAF1000F31D181
:1091500027B13946204600F025FE82467B110121C9
:1091600059F8233007F01F0701FA07F71F42294675
:10917000204618BF4AF0020A761BFFF7EDFDD8F82B
:1091800004500227BAF1000F48D0D8F80C30022B57
:1091900015D0032B17D0012B09D11AF0020F06D0DE
:1091A000D9F800004AEA000A1AF0010F0ED147F080
:1091B000100733E04FF0010AD0E70127E2E7159BE3
:1091C000C3F101031593159B002BF0D0D4F810B018
:1091D00004F114034FEA8B0A03EB8B014FF0000CF0
:1091E000184653F8042BB2F1FF3F1CD00132026045
:1091F000022F04F114033FD1D8F80020013AB24203
:109200000AD17111012253F8213006F01F0602FA2B
:1092100006F61E4218BF174647F02007149B1C6035
:10922000049B1D6095E6994243F804CCD8D8A36806
:109230009B4519DB616818EE100A013100F012F944
:10924000814618B91A4B02468421A8E622690232E7
:1092500004F10C0192000C30FEF7BDFD214618EE22
:10926000100A00F03FF94C4623695A1C04EB8303B3
:10927000226101225A61BBE722695A450BDD0121B7
:109280002046FFF769FDD8F808300135AB42FFF6FC
:10929000D0AE0127C0E716F01F06FAD05344C6F13E
:1092A000200653F8040C00F0CFF9B042E7DBF0E7FA
:1092B00071A70B00C2F10802920070B5C2F120063E
:1092C0004368046803FA06F52C43D340046040F871
:1092D000043F8842F4D370BD30B50368013311F800
:1092E000014B14B90360012030BD13F8012BA2F12A
:1092F0004105192D98BF2032A242F0D00020F3E79B
:109300002DE9F04F0B685E1102EB860613F01F0388
:1093100087B018BF04360025371F904602680193B6
:10932000824646F8045CB9463C460295AB46517805
:10933000531C039341B3084605920491FFF75EFD69
:1093400000284FD10499059A202918D8029B9B45E3
:1093500013DD4C4506D2072D04DC2A46494620463B
:10936000FFF7A8FF444550D90023A4F1040944F8AD
:10937000043CCDF808B04C461D46039AD7E729298E
:1093800056D10232CAF80020BBF1000F50D04C4534
:1093900006D2072D04DC2A4649462046FFF78AFFFD
:1093A000444534D9A8F10402234653F8041B42F87B
:1093B000041F9F42F9D23B1B23F003030433013403
:1093C000033EB44288BF04234344002243F8042BE5
:1093D0009F42FBD23B681BB9474527D101233B6025
:1093E000052026E00135082D0BF1010B06DD444573
:1093F000C3D9002344F8043C0125043C226800F052
:109400000F0040EA02122260B7E70825B5E7019B8A
:10941000002BDFD04FF0FF32C3F1200322FA03F319
:1094200056F8042C1A4046F8042CD3E7043FD1E741
:10943000042007B0BDE8F08F70477047704782B0D6
:1094400001B901A942B14BB113780B601278101E1B
:1094500018BF012002B070471046FBE76FF0010013
:10946000F8E7000070B5466A04460D4676B910204C
:10947000FCF782F90246606220B9184B1848662151
:10948000FCF7C2F9C0E901660660C660666AF36867
:1094900083B1636ADB6853F82500B8B9012101FA8A
:1094A00005F6721D9200204600F09DFC60B1C0E9F7
:1094B00001560EE021220421204600F094FC636A4C
:1094C000F060DB68002BE4D1002070BD026843F837
:1094D00025200023C0E90333F7E700BF79A50B007F
:1094E0001CA80B0070B5466A05460C4676B91020DC
:1094F000FCF742F90246686220B9094B09488A2103
:10950000FCF782F9C0E901660660C6603CB16B6A8F
:109510006268DB6853F82210216043F8224070BD76
:1095200079A50B001CA80B002DE9F0410D69074639
:109530000C461E4601F1140C0020DCF8003099B2F4
:1095400002FB01611E0C0B0C02FB063389B20130D9
:1095500001EB034185424CF8041B4FEA1346ECDC57
:109560000EB3A368AB4219DC616838460131FFF7DE
:1095700079FF804628B902460C4B0D48B521FCF70F
:1095800043F92269023204F10C0192000C30FEF71B
:1095900022FC21463846FFF7A5FF444604EB85032D
:1095A00001355E6125612046BDE8F08171A70B00A1
:1095B0001CA80B002DE9F8430C4615461F4609224E
:1095C0000833064693FBF2F3002101229A4209DB9D
:1095D0003046FFF747FF40B90246194B1948CE21E4
:1095E000FCF712F952000131F0E7089B4361092DA5
:1095F0004FF00103036116DD04F10909C8462C444C
:1096000018F8013B0146303B0A223046FFF78CFF39
:10961000A045F5D1A5F108044C442D1B6319BB42AC
:1096200004DBBDE8F8830A340925F6E714F8013BAA
:109630000146303B0A223046FFF776FFEEE700BFD7
:1096400071A70B001CA80B00030C1B04D3B900046A
:10965000102310F07F4F04BF0002083310F0704F4A
:1096600004BF0001043310F0404F04BF80000233F8
:10967000002805DB10F0804F03F1010308BF202311
:10968000184670470023E4E7036813F00702014619
:109690000BD0DA0723D4980749BF5B089B08012049
:1096A0000B605CBF0B600220704798B2A8B91B0C1E
:1096B0001020DAB20AB908301B0A1A0704BF1B09C6
:1096C00004309A0704BF9B080230DA0703D45B0812
:1096D00000F1010005D00B6070471046E9E700205B
:1096E000704720207047000010B50C460121FFF79D
:1096F000B9FE024628B9054B05484FF4A071FCF7A6
:1097000083F801234461036110BD00BF71A70B0002
:109710001CA80B002DE9F04F91460A69D9F81030CA
:109720009A42B8BF0B460C46BCBF4C4699462769C7
:10973000D9F810A0A368616807EB0A06B34285B0A8
:10974000B8BF0131FFF78EFE30B90246444B4548A1
:1097500040F25D11FCF758F800F1140505EB86089E
:109760002B460022434521D304F1140303EB870762
:1097700009F1140303EB8A0202923A1B153A22F014
:109780000302043204F115018F4238BF0422019212
:10979000029A03939A420CD8002E03DD58F8043D38
:1097A000002B5AD0066105B0BDE8F08F43F8042BBA
:1097B000D8E7B3F800A0BAF1000F24D004F1140EDA
:1097C000A9464FF0000C5EF8042BD9F800101FFAE0
:1097D00082FB89B20AFB0B114FEA124BD9F8002029
:1097E00061444FEA124C0AFB0BC202EB114289B2F0
:1097F00041EA0241774549F8041B4FEA124CE2D88E
:10980000019A45F802C0039AB2F802900433B9F104
:10981000000F20D0296804F1140CAE464FF0000A66
:10982000BCF800B0BEF8022009FB0B22924489B2BA
:1098300041EA0A414EF8041B5CF8042BBEF8001004
:10984000120C09FB021101EB1A4167454FEA114A5C
:10985000E6D8019AA95004359AE7013E9CE700BF7B
:1098600071A70B001CA80B002DE9F843154612F058
:10987000030206460F4607D0254C013A002354F850
:109880002220FFF751FE0746AD103DD0746A7CB927
:109890001020FBF771FF0246706228B91D4B1E486D
:1098A0004FF4D771FBF7B0FFC0E901440460C46016
:1098B000D6F82480D8F808404CB940F271213046DF
:1098C000FFF712FF0023C8F80800044603604FF0BA
:1098D0000009EB070AD5394622463046FFF71AFF42
:1098E000394680463046FFF7FDFD47466D100BD0E8
:1098F000206838B9224621463046FFF70BFF20602A
:10990000C0F800900446E4E73846BDE8F88300BF9D
:1099100090A90B0079A50B001CA80B002DE9F047BE
:109920000C464968236903EB6218A3680746914611
:109930004FEA621A08F10106B3420BDB3846FFF723
:1099400091FD054648B902462A4B2B4840F2D911F1
:10995000FBF75AFF01315B00EEE7002300F1140131
:1099600000F110021846534537DB20692AEAEA7AEB
:1099700004F1140319F01F0901EB8A0103EB8000C5
:109980002FD0C9F1200E8A464FF0000C1A6802FA57
:1099900009F242EA0C024AF8042B53F8042B9842CD
:1099A00022FA0EFCF2D8031B153B23F00303043309
:1099B00004F11502904238BF042341F803C0BCF102
:1099C000000F01D008F10206013E38462E61214603
:1099D000FFF788FD2846BDE8F08742F8040F013301
:1099E000C1E7043953F8042B41F8042F9842F9D801
:1099F000EAE700BF71A70B001CA80B0030B5026995
:109A00000C69121B0ED100F11403143103EB840016
:109A100001EB840150F8045D51F8044DA54203D0D8
:109A200005D30122104630BD8342F3D3FAE74FF04D
:109A3000FF32F7E72DE9F84F0C460646114620465F
:109A40009046FFF7DBFF051E10D129463046FFF791
:109A500009FD30B93A4B024640F232213948FBF752
:109A6000D3FE0123C0E90435BDE8F88FA4BF434607
:109A7000A0463046D8F80410A6BF1C460025012594
:109A8000FFF7F0FC20B92E4B02464FF41071E5E7CA
:109A9000D8F810702669C56004F1140908F114059E
:109AA00000F1140E05EB870C09EB860608F1100295
:109AB000F246002159F8043B52F804BF1FFA83F81C
:109AC00011FA8BF11B0CA1EB0808C3EB1B4303EB52
:109AD00028431FFA88F819144E4548EA03434AF808
