:02000002B0004C
:1040000000400B002C4F0B000000060017000502BB
:084010000401A30F00000000F1
:04401800584C0B00F5
:10401C0009480A49884208B505D0094A824202D0AB
:10402C00121A00F061FD0748074A0021121A00F02D
:10403C0069FD014808BD00BF48E60320984E0B00FF
:10404C00B4E60320B4E60320EDE7032070B5074E79
:10405C00074C00F027FCA41BA4080025AC4200D19F
:10406C0070BD56F8043B98470135F7E74C4E0B00F2
:10407C006C4E0B0000F013B808B500F011F8BDE859
:10408C00084000F0C7BB00F03BB900F041B9007824
:10409C00B0FA80F0400970470123037070477047F5
:1040AC00704713B50446084659B1019100F060FD04
:1040BC0023680199DB680246204602B0BDE8104037
:1040CC00184702B010BD000008B5024B1B681B68F6
:1040DC00019308BD4C02030008B5024B1B681B6919
:1040EC00019308BD4C02030008B5024B1B685B69C9
:1040FC00019308BD4C02030008B5024B1B689B6979
:10410C00019308BD4C02030008B5024B1B68DB6928
:10411C00019308BD4C02030008B5024B1B681B6AD7
:10412C00019308BD4C02030008B5024B1B68DB6809
:10413C00019308BD3C02030008B5024B1B681B69C8
:10414C00019308BD3C02030008B5024B1B685B6978
:10415C00019308BD3C02030008B5024B1B689B6928
:10416C00019308BD3C02030008B5024B1B68DB69D8
:10417C00019308BD3C02030008B5024B1B689B6A07
:10418C00019308BD3C02030008B5024B1B681B6C75
:10419C00019308BD3C02030008B5024B1B685B6928
:1041AC00019308BD6402030008B5024B1B685B6CED
:1041BC00019308BD4802030008B5024B1B685B68FD
:1041CC00019308BD1802030008B5024B1B685B691C
:1041DC00019308BD1802030008B5024B1B689B68CD
:1041EC00019308BD6802030008B5024B1B68DB682D
:1041FC00019308BD6802030008B5024B1B68DB6B1A
:10420C00019308BD4402030008B5024B1B685B68B0
:10421C00019308BD4002030008B5024B1B689B6864
:10422C00019308BD4002030008B5024B1B68DB6814
:10423C00019308BD4002030008B5024B1B681B69C3
:10424C00019308BD4002030008B5024B1B685B6973
:10425C00019308BD4002030008B5024B1B689B6923
:10426C00019308BD4002030008B5024B1B68DB69D3
:10427C00019308BD4002030008B5024B1B681B6A82
:10428C00019308BD4002030008B5024B1B681B6B71
:10429C00019308BD4002030008B5024B1B685B6B21
:1042AC00019308BD4002030008B5024B1B681B6C50
:1042BC00019308BD4002030008B5024B1B685B6C00
:1042CC00019308BD4002030008B5024B1B685B68F4
:1042DC00019308BD2002030008B5034B1B68D3F8FB
:1042EC008830019308BD00002002030008B5034B81
:1042FC001B68D3F89430019308BD00002002030022
:10430C0008B5024B1B681B68019308BD1C02030017
:10431C0008B5024B1B685B68019308BD1C020300C7
:10432C0008B5024B1B681B6C019308BD1C020300F3
:10433C0008B5024B1B685B6C019308BD1C020300A3
:10434C00002340681A46FFF75FBF40680022022135
:10435C00FFF76ABF002240681146FFF75DBF0022DD
:10436C0040681146FFF768BF002340681A4619469B
:10437C00FFF76ABF002340681A461946FFF76CBF67
:10438C0040680021FFF790BF40680021FFF794BF01
:10439C004068002281F00101FFF766BF40680022EF
:1043AC00FFF772BF002240681146FFF775BF00226D
:1043BC0040681146FFF760BF2DE9F04395B01446F5
:1043CC000D46074600F0C6F900211C220DA80091ED
:1043DC0000F098FB40230C9320466B460CAA00215E
:1043EC00FFF702FF044600284BD102460121686802
:1043FC00FFF722FF0221804622466868FFF71CFF68
:10440C00009E81462146002E3BD0002939D173688D
:10441C00022B03D00A2B11D0F669F4E7B8F1000F88
:10442C00FAD0716906A8043107AD00F0C1F90FCDBF
:10443C003C1D0FC42B6823704146EDE7B9F1000F0A
:10444C00EAD07469102201A800F05CFB06238DF8F9
:10445C00143001AD04F108031834186859682A4661
:10446C0003C20833A3421546F7D101A906A807AD2C
:10447C0000F07EF90FCD3C1D0FC42B68237049460C
:10448C00CAE70098FFF7A8FE384615B0BDE8F083E0
:10449C00024B034A1A6000225A607047B4E60320AC
:1044AC00744C0B0070474174704708B5007CFFF7E3
:1044BC0063FE20EAE07008BD08B5007CFFF73CFE07
:1044CC0020EAE07008BD08B5007CFFF745FE40EA25
:1044DC00E07008BD08B5007CFFF736FE40EAE070DE
:1044EC0008BD007CFFF740BE37B5457C04462DB1B6
:1044FC00207C03B0BDE83040FFF716BE007C019174
:10450C00FFF73AFE00280199F2DC284603B030BDD3
:10451C0010B514210446FFF7B8FD204610BD00006D
:10452C0010B54FF47A730446084611460022C4E9CC
:10453C000123044B2360012320746374FFF724FED2
:10454C00204610BDB04C0B00002240681146FFF70E
:10455C0073BE002240681146FFF78EBE00224068F1
:10456C001146FFF799BE40680022FFF78DBE4068E8
:10457C00002281F00101FFF777BE002340681A4644
:10458C001946FFF769BE002340681A461946FFF723
:10459C005BBE002240681146FFF73EBE4068002219
:1045AC000221FFF741BE002340681A46FFF72CBEDC
:1045BC00084B10B5282422461846002100F0A2FA18
:1045CC00054B04804FF0FF32426004225A60034ACC
:1045DC001A6010BDC4E60320BCE60320E04C0B00BF
:1045EC00417470477047704708B50021007CFFF795
:1045FC0083FD40EAE07008BD08B50121007CFFF79F
:10460C007BFD40EAE07008BD08B5007CFFF76CFD4F
:10461C0020EAE07008BD08B5007CFFF75DFD20EADC
:10462C00E07008BD13B50446007C0191FFF75CFDFA
:10463C000028019901DC607C20B1207CFFF764FD2F
:10464C0020EAE07002B010BD007CFFF765BD10B52C
:10465C0014210446FFF719FD204610BD10B54FF488
:10466C007A73044608460021C4E90113044B236005
:10467C000123207463741146FFF726FD204610BDFC
:10468C001C4D0B0010B514220446002100F03AFA20
:10469C00204610BD10B50F4C88B003A8FFF7F2FFF1
:1046AC002178BFF35B8F11F001010FD120460191EE
:1046BC00FFF7EDFC019948B103AA0748FFF7CEFFBD
:1046CC002046FFF7E9FC054800F008FA024808B05C
:1046DC0010BD00BFECE60320F0E60320F1450B0013
:1046EC00704710B518210446FFF7CFFC204610BDCB
:1046FC00F0B5037D062B8DB00E4600F104074FF08C
:10470C00000412D000F1080515F8011D0A223046EC
:10471C0000F02BF9AF42044419D0002CF4D02E2118
:10472C00304600F01FF90444EEE72F236A46394661
:10473C000A208DF80040FFF72FFD684600F018FAAC
:10474C0033680246DB686946304698470446204683
:10475C000DB0F0BD10B5054B0446112240F8043BDA
:10476C00002100F0CFF9204610BD00BF4C4D0B00CE
:10477C000346074A10B543F8042B01F1100251F817
:10478C00044B43F8044B9142F9D10A781A7010BDCE
:10479C004C4D0B0010B59DF8084044EA032343EA46
:1047AC00024242EA016104234160037510BD00001E
:1047BC0007B5064B0360CB7800938B784A78097861
:1047CC00FFF7E8FF03B05DF804FB00BF4C4D0B0096
:1047DC00014B1860704700BF4CE6032008B50B4B2B
:1047EC0043B1FFF757FF03681B699847002801DDA9
:1047FC00AFF30080064B43B100F04AF903681B6924
:10480C009847002801DDAFF3008008BD00000000D0
:10481C000000000008B5FFF7E1FFFFF7D5FC014BE6
:10482C00186008BD40E703200548064A064908B54C
:10483C00121A00F059F9054B054A1A6008BD00BF61
:10484C0000F4032004F40320944E0B0000F4032026
:10485C001E1C279A07B5002300931A466FF07701A8
:10486C00FFF744FD03B05DF804FB000007B5438877
:10487C000A2B08D0502B0BD1094B1B684BB103B042
:10488C005DF804EB1847FFF7E5FF03B05DF804FB98
:10489C00002300931A466FF07701FFF727FDF4E72A
:1048AC0008E7032010B512480021FFF741FD114B1A
:1048BC001A68114B9A42114B0CBF012200221A703C
:1048CC0001D0FFF7B1FFFFF777FC044600F022F9A7
:1048DC000B4B13B12046AFF3008000210848FFF7C3
:1048EC008BFCBDE8104007480021FFF7F5BC00BF6A
:1048FC00DD470B0000F403201E1C279A04E703205D
:10490C000000000079480B00014B00229A607047B0
:10491C000CE70320024B1A68024B1A60704700BF69
:10492C0048E603201CE70320014B024A1A6070473B
:10493C0020E70320744D0B00F8B506460D468F1882
:10494C000024BD420CD0336815F8011B9B6830461F
:10495C009847031E01DB1C44F3E7002C08BF1C46E0
:10496C002046F8BD03689B68184730B58BB0002310
:10497C00012A8DF8243098BF0A2209AC0D46B1FBF0
:10498C00F2F101FB125303F0FF03092B94BF3033F8
:10499C003733DBB2AA4204F8013DEFD92146FFF7C9
:1049AC0080FB0BB030BD0000024800230360FFF712
:1049BC00FBBB00BF24E70320054B02221A60054B0A
:1049CC00054A9A600020C3E90000FFF77DBC00BFD8
:1049DC0034E7032028E703200000FFFF0022406893
:1049EC001146FFF749BC002240681146FFF754BC42
:1049FC0040680022FFF748BC4068002281F00101AA
:104A0C00FFF732BC002340681A461946FFF724BC56
:104A1C00002340681A461946FFF716BC002240686E
:104A2C001146FFF709BC002240681146FFF7F4BBA2
:104A3C00406800220221FFF7F7BB002340681A46AA
:104A4C00FFF7E2BB024B03225A60024A1A6070471E
:104A5C0038E70320804D0B007047000038B5044642
:104A6C0014252A46002100F04DF8258040250749E1
:104A7C0025812846258200F02FF8044960602846DD
:104A8C0000F02AF8E060204638BD00BFB44D0B00A2
:104A9C0030B50E4D2978BFF35B8F11F0010487B050
:104AAC0011D12846FFF7F3FA68B101A8FFF7D6FF3A
:104ABC0001AA21460648FFF733FD2846FFF7ECFA1A
:104ACC00044800F00BF8024807B030BD44E703205F
:104ADC0048E70320654A0B00FFF7D5BA00230146CF
:104AEC001A46184600F04CB80A44914200F1FF33C4
:104AFC0000D1704710B511F8014B03F8014F9142EA
:104B0C00F9D110BD02440346934200D1704703F81B
:104B1C00011BF9E738B5104B1D68AB6B0446B3B9F4
:104B2C001820FFF7EDFB0246A86320B90B4B0C488D
:104B3C004221FFF7F5FB0B490B4BC0E900130B4B64
:104B4C0083600B23838100210120C2E90401AB6B3C
:104B5C0000221C615A6138BD4CE60320B54D0B0098
:104B6C00CC4D0B000E33CDAB34126DE6ECDE0500F4
:104B7C00034613F8012B002AFBD1181A0138704791
:104B8C002DE9F843DFF8B8800646D8F800001F4638
:104B9C000D46914600F056F8254B1C6834B9254C4F
:104BAC001C60254B13B11B68C4F8883063681F2B3D
:104BBC0007DDD8F8000000F047F84FF0FF30BDE8F3
:104BCC00F8834EB3D4F8880088B91C4B23B9D8F8B5
:104BDC00000000F038F8F0E74FF48470FFF790FB1A
:104BEC000028F4D00023C0E94033C4F8880063687F
:104BFC0040F8239001229A4000EB8301D0F8003159
:104C0C001343C0F80031022EC1F8807002BFD0F8F7
:104C1C0004311343C0F804316368D8F800005A1CFF
:104C2C000233626044F8235000F00EF80020C6E70F
:104C3C00E8E703205CE70320000000000D430B00B5
:104C4C00B0E6032070477047704700001D400B0012
:104C5C0059400B0081400B0085400B000000000008
:104C6C0000000000000000004D430B0057430B00F8
:104C7C0061430B006B430B0075430B0081430B002E
:104C8C008D430B0095430B009D430B00A9430B0078
:104C9C00B1430B00BB430B00C5430B0000000000ED
:104CAC0000000000B1440B001D450B00F5440B0047
:104CBC0045490B00C5440B00E1440B00D3440B00E9
:104CCC00EF440B00B3440B00B7440B000000000092
:104CDC0000000000B3450B00A9450B009F450B00DD
:104CEC0055450B0093450B0087450B008D430B007E
:104CFC0095430B007B450B0073450B0069450B007E
:104D0C005F450B00C5430B000000000000000000D5
:104D1C00F3450B005B460B0031460B0045490B007D
:104D2C0023460B00F5450B0005460B0055460B00C2
:104D3C0015460B00ED450B000000000000000000C4
:104D4C00FD460B00ED460B00EF460B0025592D25BB
:104D5C006D2D25645425483A254D3A2553257A0066
:104D6C0061736374696D6500617070000000000010
:104D7C0000000000474A0B003D4A0B00334A0B0071
:104D8C00294A0B001D4A0B00114A0B008D430B00E6
:104D9C0095430B00054A0B00FD490B00F3490B0032
:104DAC00E9490B00C5430B00005245454E54206D9C
:104DBC00616C6C6F63207375636365656465640017
:104DCC002F6D6E742F776F726B73706163652F77B5
:104DDC006F726B73706163652F4743432D31302DB8
:104DEC00706970656C696E652F6A656E6B696E7340
:104DFC002D4743432D31302D706970656C696E659C
:104E0C002D34385F32303230313132345F3136301C
:104E1C00363138303634312F7372632F6E65776CC0
:104E2C0069622F6E65776C69622F6C6962632F7390
:104E3C0074646C69622F72616E642E6300000000F2
:104E4C009D440B00BD450B0015490B0021490B007F
:104E5C0035490B00B5490B00C5490B00514A0B00F5
:044E6C000000000042
:104E7000040000001400000003000000474E55002D
:104E800048F4AA0342578B91CF6213D8CF91D9B679
:044E9000BF1F3F58A9
:044E9400000000001A
:104E98006C4D0B0050E603200000000000000000ED
:104EA80000000000000000000000000000000000FA
:104EB80000000000000000000000000000000000EA
:104EC80000000000000000000000000000000000DA
:104ED80000000000000000000000000000000000CA
:104EE80000000000000000000000000000000000BA
:0C4EF8000000000000000000ECE70320B8
:104F0400FFFFFFFF00000102030405060708090A6A
:104F14000B0C0D0E0F101112131415161718191A65
:084F24001B1C1D1E1F202800AC
:044F2C00785634126D
:04000003B000401CED
:00000001FF
