:02000002B0004C
:1040000000400B00407B0B00000006000C00050286
:084010000401A30F00000000F1
:0440180034740B00F1
:1040200009480A49884208B505D0094A824202D0A7
:10403000121A03F027F90748074A0021121A03F061
:104040002FF9014808BD00BF14E40320887A0B0053
:10405000A4E40320A4E40320EDE7032070B5074E99
:10406000074C01F0E5FFA41BA4080025AC4200D1D9
:1040700070BD56F8043B98470135F7E73C7A0B00D2
:10408000607A0B0000F004BF08B500F0B9FABDE893
:10409000084001F085BF01F0BBB901F0B9B901F0EA
:1040A000BFB90078B0FA80F040097047012303706F
:1040B0007047000013B5054B1B788DF800303C238A
:1040C000044601F0DFFD204602B010BDB0E403203D
:1040D0000EB403B503AB002153F8042B019302F097
:1040E000B4F802B05DF804EB03B0704700000000C4
:1040F000F0B52DED028B5E4D8BB02E4600241320C3
:1041000002F041FB07EE900AF8EEE77A0134E6ECA4
:10411000017A0A20E4B201F0F5FF642CEFD1DFED63
:10412000557A00230133B5EC017ADBB2642B77EECC
:10413000877AF7D1DFED506A504B514D514E87EEE3
:10414000A67ADFED516A83ED007AC6EE877A4F4B8F
:10415000B7EE008A9FED4E7A77EEC87AC7EE276AEF
:1041600086EE870AC3ED006A85ED000A02F02AFB9D
:10417000DFED487AC0EE277A17EE900A02F0C2FD12
:1041800033A3D3E9002302F05FFC03F025F807EE28
:10419000900AC8EE277A17EE900A02F0B3FD2EA31C
:1041A000D3E9002302F04EFC03F016F8286002F079
:1041B000A9FD2BA3D3E9002302F0FCFD364B00221E
:1041C00002F042FC03F008F8306001F07FFB044687
:1041D000286802F097FD02460B463068CDE90423BB
:1041E00002F090FD0F462D49064606A80D6801F025
:1041F0004FF80699DDE90423CDE90251CDE90067C6
:104200002749284D2046FFF763FF06A802F056F81D
:10421000212002F0B8FA02F063FD13A3D3E90023D2
:1042200002F0C8FD02F0D8FF286001F04FFB044601
:10423000286802F067FD02460B4620461A49FFF740
:1042400047FF0BB0BDEC028BF0BD00BFAFF30080A9
:1042500083DBB5DCE1796B3F6666666666127140AA
:10426000CDCCCCCCCCCCFC3F9402C1D2AF63523F7E
:104270001CE50320000000000000C842B4E4032055
:10428000B0E60320B4E6032000F07F45B8E4032045
:1042900000401C4600E076450000404010E5032049
:1042A00048740B00C0E4032076740B0038B5046832
:1042B00005467CB16368013B63605BB923682046B7
:1042C0009B689847A368013BA3601BB923682046FD
:1042D000DB689847284638BD00B589B02249684652
:1042E00002F037F802F0DCF9204901F086FF02F015
:1042F000D7F90368DB69984740F6FC0001F002FF3C
:1043000002F0CEF903681B699847002826DD02F009
:10431000C7F90A22014604A801F020FF04A9684653
:1043200002F048F804A801F0C9FF114B1B7853B103
:1043300001F0CCFA009A0F49FFF7CAFE01F0C6FA65
:104340000368DB6998470C4B1B783BB104A8009AC3
:104350000A49FFF7AFFE05A8FFF7A8FF684601F07E
:10436000ADFF09B05DF804FB6D760B00C4E40320DB
:10437000ACE60320FD740B0014E503200D750B0063
:1043800010B58AB010EE104A0691154907900968D9
:10439000049110EE900A02F0B5FCCDE9020120462E
:1043A00002F0B0FCDDE90632CDE900010D490E480E
:1043B00001F046F80D4B1B782BB101F087FA0A4A41
:1043C0000B49FFF785FE0B4B1B783BB108A8064A4B
:1043D0000949FFF76FFE09A8FFF768FF0AB010BD93
:1043E0002CE4032018750B00C4E40320ACE6032082
:1043F00037750B0014E5032048750B0000B589B034
:104400001B49684601F0A5FF02F04AF91949FFF778
:104410005FFEC82001F076FE02F042F903681B69D6
:10442000984700281EDD02F03BF90A22014604A845
:1044300001F094FE04A9684601F0BCFF04A801F055
:104440003DFF0D4B1B782BB101F040FA009A0B4950
:10445000FFF73EFE04A8009A0949FFF72BFE05A8C6
:10446000FFF724FF684601F029FF09B05DF804FB5F
:104470006D760B0057750B00ACE603205C750B00E6
:104480006E750B0010B58CB051490446684601F0BA
:1044900060FF4F4904A801F05CFF012C40F08E80C2
:1044A00002F0FEF84B49FFF713FE01F00FFA4949FD
:1044B000FFF70EFE01F00AFA0368DB69984702F085
:1044C000EFF80368DB699847C82001F01BFE02F093
:1044D000E7F803681B699847002830DD02F0E0F830
:1044E0000A22014608A801F039FE08A9684601F031
:1044F00061FF08A801F0E2FE02F0D2F80A220146AC
:1045000008A801F02BFE08A904A801F053FF08A891
:1045100001F0D4FE304B1B7833B101F0D7F9049B86
:10452000009A2E49FFF7D4FD2D4B1B783BB108A80C
:10453000009A2C49FFF7BEFD09A8FFF7B7FE2A4BEA
:104540001B78002B32D002F0ABF82849FFF7C0FDF2
:10455000C82001F0D7FD02F0A3F803681B69984753
:10456000002823DD01F0B2F92149FFF7B1FD02F087
:1045700097F80A22014608A801F0F0FD08A968464C
:1045800001F018FF08A801F099FE01F09FF9009AC8
:104590001849FFF79DFD124B1B783BB108A8009A04
:1045A0001549FFF787FD09A8FFF780FE04A801F071
:1045B00085FE684601F082FE0CB010BD02F070F876
:1045C0000E49FFF785FD01F081F90C4970E700BF46
:1045D0006D760B00DF740B00ACE6032077750B00E3
:1045E00014E5032094750B00B1E40320B9740B00AB
:1045F0009D750B00AD750B00C1750B0083740B002E
:104600001FB50020FFF73EFF4FF4FA7001F07AFD6E
:10461000FFF76EFD124BD3ED000A124B93ED000A2B
:10462000114B1968114B1868FFF7AAFEFFF754FEEB
:104630004FF47A7001F066FD0120FFF723FF4FF47D
:10464000FA7001F05FFD01A8094901F021FF01980E
:1046500008B100F0E5FE05B05DF804EB01F015BF10
:10466000C0E40320B4E603201CE4032030E403206C
:10467000F8E4032000B58BB03949019002A801F09D
:1046800068FE02F00DF8019A3649FFF721FDC820B7
:1046900001F038FD02F004F803681B699847002810
:1046A00021DD01F0FDFF0A22014606A801F056FDBA
:1046B00006A902A801F07EFE06A801F0FFFD2A4B24
:1046C0001B782BB101F002F9029A2849FFF700FD8F
:1046D000274B1B783BB106A8029A2649FFF7EAFC54
:1046E00007A8FFF7E3FD244B1B78002B32D001F025
:1046F000D7FF2249FFF7ECFCC82001F003FD01F0D1
:10470000CFFF03681B699847002823DD01F0DEF81E
:104710001B49FFF7DDFC01F0C3FF0A22014606A892
:1047200001F01CFD06A902A801F044FE06A801F054
:10473000C5FD01F0CBF8029A1249FFF7C9FC0C4BFA
:104740001B783BB106A8029A0F49FFF7B3FC07A8F4
:10475000FFF7ACFD02A801F0B1FD0BB05DF804FB62
:104760006D760B00CA750B00ACE6032001750B00DB
:1047700014E50320D6750B00B1E40320DD750B00B2
:104780009D750B00E7750B00FA750B0000B589B03D
:104790003849684601F0DDFD01F082FF3649FFF738
:1047A00097FCC82001F0AEFC01F07AFF03681B699A
:1047B0009847002821DD01F073FF0A22014604A872
:1047C00001F0CCFC04A9684601F0F4FD04A801F056
:1047D00075FD2A4B1B782BB101F078F8009A284917
:1047E000FFF776FC274B1B783BB104A8009A2649BB
:1047F000FFF760FC05A8FFF759FD244B1B78002B41
:1048000032D001F04DFF2249FFF762FCC82001F0D1
:1048100079FC01F045FF03681B699847002823DDF8
:1048200001F054F81B49FFF753FC01F039FF0A224D
:10483000014604A801F092FC04A9684601F0BAFD03
:1048400004A801F03BFD01F041F8009A1249FFF77E
:104850003FFC0C4B1B783BB104A8009A0F49FFF7B3
:1048600029FC05A8FFF722FD684601F027FD09B0E5
:104870005DF804FB6D760B0002760B00ACE60320BE
:1048800001750B0014E503201A760B00B1E4032038
:1048900023760B009D750B0033760B004C760B00D6
:1048A00010B588B004463B49684601F052FD24B972
:1048B00001F0F6FE3849FFF70BFC01F0F1FE374935
:1048C000FFF706FCC82001F01DFC01F0E9FE0368BB
:1048D0001B699847002821DD01F0E2FE0A2201460B
:1048E00004A801F03BFC04A9684601F063FD04A89C
:1048F00001F0E4FC2A4B1B782BB100F0E7FF009A93
:104900002849FFF7E5FB284B1B783BB104A8009A28
:104910002649FFF7CFFB05A8FFF7C8FC244B1B78FF
:10492000002B32D001F0BCFE2249FFF7D1FBC8209A
:1049300001F0E8FB01F0B4FE03681B69984700280A
:1049400023DD00F0C3FF1C49FFF7C2FB01F0A8FE06
:104950000A22014604A801F001FC04A9684601F0FE
:1049600029FD04A801F0AAFC00F0B0FF009A134949
:10497000FFF7AEFB0C4B1B783BB104A8009A104923
:10498000FFF798FB05A8FFF791FC684601F096FC3D
:1049900008B010BD6D760B005A760B006E760B00DA
:1049A000ACE6032001750B0014E5032082760B00B2
:1049B000B1E403208A760B009D750B0095760B0001
:1049C000A9760B0000B58BB03949019002A801F01F
:1049D000C0FC01F065FE019A3649FFF779FBC8205B
:1049E00001F090FB01F05CFE03681B69984700280A
:1049F00021DD01F055FE0A22014606A801F0AEFBBA
:104A000006A902A801F0D6FC06A801F057FC2A4B23
:104A10001B782BB100F05AFF029A2849FFF758FB88
:104A2000274B1B783BB106A8029A2649FFF742FBA9
:104A300007A8FFF73BFC244B1B78002B32D001F07A
:104A40002FFE2249FFF744FBC82001F05BFB01F079
:104A500027FE03681B699847002823DD00F036FF16
:104A60001B49FFF735FB01F01BFE0A22014606A891
:104A700001F074FB06A902A801F09CFC06A801F055
:104A80001DFC00F023FF029A1249FFF721FB0C4B9B
:104A90001B783BB106A8029A0F49FFF70BFB07A84A
:104AA000FFF704FC02A801F009FC0BB05DF804FB61
:104AB0006D760B00B2760B00ACE6032001750B009F
:104AC00014E50320C2760B00B1E40320CD760B0081
:104AD0009D750B00DB760B00F2760B0000B58BB0FA
:104AE0003949019002A801F034FC01F0D9FD019A86
:104AF0003649FFF7EDFAC82001F004FB01F0D0FDC4
:104B000003681B699847002821DD01F0C9FD0A22CE
:104B1000014606A801F022FB06A902A801F04AFC02
:104B200006A801F0CBFB2A4B1B782BB100F0CEFE80
:104B3000029A2849FFF7CCFA274B1B783BB106A80D
:104B4000029A2649FFF7B6FA07A8FFF7AFFB244BF6
:104B50001B78002B32D001F0A3FD2249FFF7B8FAF1
:104B6000C82001F0CFFA01F09BFD03681B6998474C
:104B7000002823DD00F0AAFE1B49FFF7A9FA01F087
:104B80008FFD0A22014606A801F0E8FA06A902A84C
:104B900001F010FC06A801F091FB00F097FE029ACC
:104BA0001249FFF795FA0C4B1B783BB106A8029A05
:104BB0000F49FFF77FFA07A8FFF778FB02A801F07B
:104BC0007DFB0BB05DF804FB6D760B00FE760B00F1
:104BD000ACE6032001750B0014E50320C2760B0040
:104BE000B1E4032010770B009D750B0020770B00BC
:104BF00038770B0000B58DB03C49684601F0A9FB41
:104C00003B4904A801F0A5FB01F04AFD009A39498F
:104C1000FFF75EFAC82001F075FA01F041FD036864
:104C20001B699847002821DD01F03AFD0A22014660
:104C300008A801F093FA08A904A801F0BBFB08A892
:104C400001F03CFB2C4B1B782BB100F03FFE049A8B
:104C50002A49FFF73DFA2A4B1B783BB108A8049A72
:104C60002849FFF727FA09A8FFF720FB264B1B78F6
:104C7000002B32D001F014FD2449FFF729FAC82097
:104C800001F040FA01F00CFD03681B699847002809
:104C900023DD00F01BFE1E49FFF71AFA01F000FDAC
:104CA0000A22014608A801F059FA08A904A801F04F
:104CB00081FB08A801F002FB00F008FE049A1549E8
:104CC000FFF706FA0E4B1B783BB108A8049A12496D
:104CD000FFF7F0F909A8FFF7E9FA04A801F0EEFAE6
:104CE000684601F0EBFA0DB05DF804FB46770B0067
:104CF0006D760B0067770B00ACE6032001750B00A7
:104D000014E5032074770B00B1E403207C770B00DB
:104D10009D750B0087770B0097770B0000B58BB064
:104D20003949019002A801F014FB01F0B9FC019A85
:104D30003649FFF7CDF9C82001F0E4F901F0B0FCE5
:104D400003681B699847002821DD01F0A9FC0A22AD
:104D5000014606A801F002FA06A902A801F02AFB02
:104D600006A801F0ABFA2A4B1B782BB100F0AEFD80
:104D7000029A2849FFF7ACF9274B1B783BB106A8EC
:104D8000029A2649FFF796F907A8FFF78FFA244BF6
:104D90001B78002B32D001F083FC2249FFF798F9F1
:104DA000C82001F0AFF901F07BFC03681B6998474C
:104DB000002823DD00F08AFD1B49FFF789F901F087
:104DC0006FFC0A22014606A801F0C8F906A902A84C
:104DD00001F0F0FA06A801F071FA00F077FD029AEE
:104DE0001249FFF775F90C4B1B783BB106A8029AE4
:104DF0000F49FFF75FF907A8FFF758FA02A801F07B
:104E00005DFA0BB05DF804FB6D760B00A0770B002C
:104E1000ACE6032001750B0014E50320AE770B0010
:104E2000B1E40320B7770B009D750B00C3770B002F
:104E3000D8770B0008B50020FFF724FBFFF7DEFA58
:104E40000D4B1868FFF7BEFD0C4B1868FFF746FEC8
:104E50000B4B1868FFF724FD0A4B1868FFF796FC08
:104E6000094B1868FFF706FC084B1868FFF756FF58
:104E7000BDE80840FFF7BEBE14E4032024E403208D
:104E8000BCE4032018E5032018E4032028E40320F1
:104E900070B5012001F0FEF801210A2001F01DF992
:104EA0003B4B1B68013B062B53D8DFE803F004089B
:104EB0004044484B4F00FF220021084602E05822A0
:104EC000FF21192001F0F6F800F000FD4FF4165113
:104ED00000F0F0FC01F0E4FB4FF4E13100F094FC51
:104EE0004FF47A7001F00EF90021132001F03AFC22
:104EF000284B294D01221A70284A00231370284A92
:104F00001370FFF77BFAFFF795FF2B7D002B36D050
:104F100002232B72234B1E684EF660235E432B68E0
:104F2000DB68D3B19A88042A2FD09B68F9E7002266
:104F30004521FF20C6E7F0222021A020C2E7002261
:104F40001146F6E7B32293217320BBE70022FF212D
:104F5000B3E7002001F09EF8B6E71349102001F0F6
:104F600029FC044678B11022002102F099F90F4B78
:104F700023600423A3802B692C61C4E902360C4B07
:104F800000221A6070BD2875F9E7DE60F7E700BF00
:104F90002CE40320ACE60320F8E4032014E503200E
:104FA000B1E4032020E40320A0790B0010000300EB
:104FB00010E503200A4A002313700A4A111D1160EC
:104FC000094951600121C2E9023313611175074A91
:104FD000C2E90033A3F580339360022000F0D0B91A
:104FE000B0E40320F8E4032010000300A4E403204D
:104FF00008B5024B1B681B68019308BD4C020300F7
:1050000008B5024B1B685B68019308BD4C020300A6
:1050100008B5024B1B681B69019308BD4C020300D5
:1050200008B5024B1B685B69019308BD4C02030085
:1050300008B5024B1B689B69019308BD4C02030035
:1050400008B5024B1B68DB69019308BD4C020300E5
:1050500008B5024B1B681B6A019308BD4C02030094
:1050600008B5024B1B681B6A019308BD28020300A8
:1050700008B5024B1B685B6A019308BD2802030058
:1050800008B5024B1B689B6A019308BD2802030008
:1050900008B5024B1B68DB6A019308BD28020300B8
:1050A00008B5024B1B681B6B019308BD2802030067
:1050B00008B5024B1B685B6B019308BD2802030017
:1050C00008B5024B1B681B6C019308BD2802030046
:1050D00008B5024B1B68DB69019308BD3002030071
:1050E00008B5024B1B681B6A019308BD3002030020
:1050F00008B5024B1B68DB68019308BD3C02030046
:1051000008B5024B1B681B69019308BD3C020300F4
:1051100008B5024B1B685B69019308BD3C020300A4
:1051200008B5024B1B689B69019308BD3C02030054
:1051300008B5024B1B68DB69019308BD3C02030004
:1051400008B5024B1B681B6A019308BD3C020300B3
:1051500008B5024B1B689B6A019308BD3C02030023
:1051600008B5024B1B68DB6A019308BD3C020300D3
:1051700008B5024B1B681B6C019308BD3C02030081
:1051800008B5024B1B685B69019308BD640203000C
:1051900008B5024B1B685B6C019308BD4802030015
:1051A00008B5024B1B685B68019308BD1802030039
:1051B00008B5024B1B685B69019308BD1802030028
:1051C00008B5024B1B685B68019308BD2C02030005
:1051D00008B5024B1B689B68019308BD2C020300B5
:1051E00008B5024B1B681B6B019308BD2C02030022
:1051F00008B5024B1B689B68019308BD6802030059
:1052000008B5024B1B68DB68019308BD6802030008
:1052100008B5024B1B685B68019308BD6002030080
:1052200008B5024B1B689B68019308BD6002030030
:1052300008B5024B1B68DB68019308BD60020300E0
:1052400008B5024B1B681B69019308BD600203008F
:1052500008B5024B1B689B69019308BD60020300FF
:1052600008B5024B1B68DB69019308BD60020300AF
:1052700008B5024B1B681B6D019308BD600203005B
:1052800008B5024B1B685B69019308BD440203002B
:1052900008B5024B1B68DB69019308BD440203009B
:1052A00008B5024B1B681B6A019308BD440203004A
:1052B00008B5024B1B68DB6B019308BD4402030079
:1052C00008B5024B1B685B68019308BD40020300F0
:1052D00008B5024B1B689B68019308BD40020300A0
:1052E00008B5024B1B68DB68019308BD4002030050
:1052F00008B5024B1B681B69019308BD40020300FF
:1053000008B5024B1B685B69019308BD40020300AE
:1053100008B5024B1B689B69019308BD400203005E
:1053200008B5024B1B68DB69019308BD400203000E
:1053300008B5024B1B681B6A019308BD40020300BD
:1053400008B5024B1B681B6B019308BD40020300AC
:1053500008B5024B1B685B6B019308BD400203005C
:1053600008B5024B1B681B6C019308BD400203008B
:1053700008B5024B1B685B6C019308BD400203003B
:1053800008B5024B1B685B68019308BD200203004F
:1053900008B5024B1B685B69019308BD200203003E
:1053A00008B5024B1B68DB6C019308BD20020300AB
:1053B00008B5024B1B685B6D019308BD200203001A
:1053C00008B5034B1B68D3F88830019308BD000073
:1053D0002002030008B5034B1B68D3F894300193F7
:1053E00008BD00002002030008B5034B1B68D3F87A
:1053F000A830019308BD00002002030008B5034B4C
:105400001B68D3F8AC30019308BD000020020300F4
:1054100008B5024B1B681B68019308BD1C02030002
:1054200008B5024B1B685B68019308BD1C020300B2
:1054300008B5024B1B689B68019308BD1C02030062
:1054400008B5024B1B68DB68019308BD1C02030012
:1054500008B5024B1B685B6A019308BD1C02030080
:1054600008B5024B1B68DB6A019308BD1C020300F0
:1054700008B5024B1B681B6B019308BD1C0203009F
:1054800008B5024B1B68DB6B019308BD1C020300CF
:1054900008B5024B1B681B6C019308BD1C0203007E
:1054A00008B5024B1B685B6C019308BD1C0203002E
:1054B00010B58368044613B103220146984720467D
:1054C00010BD002340681A46FFF7FABE406800226C
:1054D0000221FFF705BF002240681146FFF7F8BE22
:1054E000002240681146FFF703BF002340681A46B8
:1054F0001946FFF705BF002340681A461946FFF713
:1055000007BF40680021FFF72BBF40680021FFF76D
:105510002FBF4068002281F00101FFF701BF406802
:105520000022FFF70DBF002240681146FFF710BFB1
:10553000002240681146FFF7FBBE2DE9F04395B00D
:1055400014460D46074600F021FA00211C220DA842
:10555000009101F0A5FE40230C9320466B460CAA57
:105560000021FFF74DFE044600284BD102460121E1
:105570006868FFF7BDFE0221804622466868FFF793
:10558000B7FE009E81462146002E3BD0002939D12E
:105590007368022B03D00A2B11D0F669F4E7B8F137
:1055A000000FFAD0716906A8043107AD00F01CFAAB
:1055B0000FCD3C1D0FC42B6823704146EDE7B9F1B8
:1055C000000FEAD07469102201A801F069FE0623D9
:1055D0008DF8143001AD04F10803183418685968C7
:1055E0002A4603C20833A3421546F7D101A906A8EB
:1055F00007AD00F0D9F90FCD3C1D0FC42B68237007
:105600004946CAE70098FFF7F3FD384615B0BDE8F4
:10561000F0830000024B034A1A6000225A60704770
:10562000B8E60320EC770B00002240681146FFF734
:105630005FBE002240681146FFF77ABE0022406834
:105640001146FFF785BE40680022FFF779BE40682B
:10565000002281F00101FFF763BE002340681A4673
:105660001946FFF755BE002340681A461946FFF752
:1056700047BE002240681146FFF72ABE406800225C
:105680000221FFF72DBE002340681A46FFF718BE1F
:10569000024B04225A60024A1A607047C0E6032097
:1056A00028780B0010B5044608462170FFF710FD5E
:1056B00000236360204610BD7047F8B506461546C6
:1056C0000C468F18BC4206D0336814F8011B9B6847
:1056D00030469847F6E72846F8BD007C0022FFF7E1
:1056E000BFBC007C0021FFF7C3BC007C0021FFF79A
:1056F000C7BC007C0021FFF7CBBC007C0021FFF77A
:10570000CFBC10B514210446FEF7C9FC204610BDDD
:1057100010B54FF47A73044608460021C4E901131A
:10572000034B236020741146FFF7CAFC204610BDCE
:1057300064780B0010B5836804460BB901F03EF89D
:10574000C3689847A3681BB10322214620469847A7
:1057500020461021BDE81040FEF7A1BC70474174FF
:10576000704708B5007CFFF7F3FC20EAE07008BD45
:1057700008B5007CFFF7C4FC20EAE07008BD08B55E
:10578000007CFFF7CDFC40EAE07008BD08B5007C66
:10579000FFF7BEFC40EAE07008BD007CFFF7C8BC24
:1057A00037B5457C04462DB1207C03B0BDE83040C0
:1057B000FFF79EBC007C0191FFF7CAFC002801990D
:1057C000F2DC284603B030BD10B514210446FEF7C4
:1057D00066FC204610BD000010B54FF47A730446F5
:1057E000084611460022C4E90123044B236001232B
:1057F00020746374FFF7BCFC204610BD8C780B004E
:10580000007C0023FFF7ACBC0022FFF7F9BF417416
:1058100070477047704708B50021007CFFF708FC0F
:1058200040EAE07008BD08B50121007CFFF700FCEC
:1058300040EAE07008BD08B5007CFFF7F1FB20EA04
:10584000E07008BD08B5007CFFF7E2FB20EAE070DD
:1058500008BD13B50446007C0191FFF7E1FB002869
:10586000019901DC607C20B1207CFFF7E9FB20EA94
:10587000E07002B010BD007CFFF7EABB10B5142148
:105880000446FEF70CFC204610BD000010B54FF496
:105890007A73044608460021C4E90113044B2360CF
:1058A0000123207463741146FFF7A2FB204610BD4C
:1058B000BC780B00007C0022FFF7A2BB10B51422BD
:1058C0000446002101F0ECFC204610BD10B50F4C41
:1058D00088B003A8FFF7F2FF2178BFF35B8F11F0C8
:1058E00001010FD120460191FEF7DBFB019948B180
:1058F00003AA0748FFF7CAFF2046FEF7D7FB054873
:1059000001F0BAFC024808B010BD00BFC8E6032091
:10591000CCE6032013580B00704710B5182104463D
:10592000FEF7BDFB204610BDF0B5037D062B8DB004
:105930000E4600F104074FF0000412D000F10805F4
:1059400015F8011D0A22304600F061FCAF42044404
:1059500019D0002CF4D02E21304600F03FFC044436
:10596000EEE72F236A4639460A208DF80040FFF7FC
:1059700007FC684601F0EFFC33680246DB686946C5
:1059800030469847044620460DB0F0BD10B5054B93
:105990000446112240F8043B002101F081FC20461E
:1059A00010BD00BFEC780B000346074A10B543F862
:1059B000042B01F1100251F8044B43F8044B9142BF
:1059C000F9D10A781A7010BDEC780B0010B59DF86B
:1059D000084044EA032343EA024242EA0161042305
:1059E0004160037510BD000007B5064B0360CB781E
:1059F00000938B784A780978FFF7E8FF03B05DF8E9
:105A000004FB00BFEC780B0070470020704710B516
:105A100010210446FEF743FB204610BD08B5FFF7F2
:105A2000F6FF08BD30B500224FF69C7402608480FA
:105A30008D888C800C68858004600A6030BD10B54C
:105A400004460068FFF7ECFC204610BD38B5C4687A
:105A5000F4B12378022B03D104F10C00FFF7EFFF20
:105A6000656835B12846FFF723FD10212846FEF76B
:105A700016FBA56835B12846FFF71AFD1021284608
:105A8000FEF70DFB20461421BDE83840FEF707BBAA
:105A900038BD0B6803604B68436013B15A6801322C
:105AA0005A60704737B5044668460D46FFF7F1FF68
:105AB000009B019A23606260002301A80193009378
:105AC000FEF7F4FB35B1281DFEF7F0FB0821284650
:105AD000FEF7E5FA204603B030BD13B50B4602468B
:105AE000D0E900016C4684E8030093E8030082E8F3
:105AF000030094E8030083E8030002B010BD82684D
:105B000010B50AB900F05AFEBDE81040C368184746
:105B100008B5006800F11001FFF7F1FF08BD8268C9
:105B200010B50AB900F04AFEBDE81040C368184736
:105B300008B5006800F11001FFF7F1FF08BD000093
:105B400038B500230446036010200D46FEF7A3FA83
:105B500028B10123C0E90133024B0360C560206016
:105B6000204638BD00790B0038B5002383608B6870
:105B700004460D462BB102229847EB68E360AB6800
:105B8000A360204638BD0000F0B589B004686846BF
:105B9000FFF748FF4FF00203D4E84F2F002A03D14C
:105BA000C4E8413F0029F7D125D104F10C0569462D
:105BB0002846FFF737FFBFF35B8F01236370002098
:105BC00004F10803BFF35B8F53E8006F43E8000262
:105BD000002AF9D1BFF35B8F6EB1FFF7E1FB78B11B
:105BE00029463046FFF78BFF3046FFF761FC102156
:105BF0003046FEF754FA6846FFF721FF09B0F0BDC2
:105C0000314602A8FFF7B0FFE068B4F9105008B1C0
:105C100001F084FB06901020ADF81C50FEF73BFA13
:105C20000546E8B1002787601820FEF734FA0446DD
:105C300088B10146876002A8FFF74FFF049BA26866
:105C4000A360059B049206A9E268E36004F11000DA
:105C50000592FFF7E7FE084BEB60084B2C60AB604A
:105C600006A8FFF7ECFE02A8FFF722FC0022294657
:105C70000348FFF79DFBB7E7115B0B00955D0B0039
:105C800035570B002DE9F04F8BB005469DF850A01D
:105C90000F4690469946FFF7F3FA07AE834638BBA6
:105CA0004FF62E73059005A93046ADF81830FFF772
:105CB000B9FE1420FEF7EFF9044648B10223037041
:105CC0000123C0E901BB437031460C30FFF7AAFE47
:105CD0002846214640F8044BFFF732FF3046FFF7D5
:105CE000AEFE05A8FFF7ABFE28460BB0BDE8F08F6F
:105CF0000C2300241420CDE908440793FEF7CBF9C8
:105D0000014618B1C0E901440470447004A803912D
:105D1000FFF716FF1E4B08930820FEF7BCF9044658
:105D200010B103A9FFF7B5FE00965FFA8AF34A4661
:105D3000414638460994FFF7B3FAB8B9039B5B783C
:105D400003F0FF0293B94FF69C7305A903A80592CF
:105D5000ADF81830FFF718FF05A8FFF770FE05A88B
:105D60000999FFF79FFE06A8FEF7A0FA03A905A868
:105D7000FFF78FFE059B069A2B606A60002306A83A
:105D800006930593FEF792FA04A8FEF78FFAABE7A5
:105D9000115E0B00012AF8B5054603D10B680360BC
:105DA0000020F8BD022A10D0032AF9D10468002C83
:105DB000F6D004F11000FFF742FE2046FFF778FB13
:105DC00018212046FEF76BF9EAE718200E68FEF767
:105DD00062F9044650B13146FFF7C6FE3069B6F9A4
:105DE000147008B101F09AFA2061A7822C60D7E7FD
:105DF00038B5002383608B6804460D462BB1022220
:105E00009847EB68E360AB68A360204638BD0000AC
:105E1000F0B589B004460D4601A81146FFF742FED1
:105E2000A4B124B21DB1284601F078FA054601A8B4
:105E300003A90395ADF81040FFF7A6FE03A8FFF7EE
:105E4000FEFD02A8FEF732FA09B0F0BD019D012364
:105E5000D5E84F2F002A03D1C5E8413F0029F7D1EB
:105E6000EFD12B73BFF35B8F6B702B1DBFF35B8F79
:105E700053E8006F43E80042002AF9D1BFF35B8F7B
:105E8000002EDED02046FFF78BFA074660B105F101
:105E90000C013046FFF743FE3046FFF709FB1021A7
:105EA0003046FEF7FCF8CCE7314603A8FFF7A0FF29
:105EB0002B7B8DF81C301020FEF7EDF80546D0B195
:105EC00087601420FEF7E7F8044678B18760014642
:105ED00003A8FFF702FE059BA268A360069B05923C
:105EE000E268E3609DF81C3006922374064BEB6079
:105EF000064B2C60AB6003A8FFF7DAFA00222946B4
:105F00000348FFF755FAC7E7315B0B00155F0B003D
:105F100035570B00012A70B5044603D10B680360A6
:105F2000002070BD022A0CD0032AF9D10468002C8D
:105F3000F6D02046FFF7BCFA14212046FEF7AFF852
:105F4000EEE714200E68FEF7A6F8054620B13146AC
:105F5000FFF74EFF337C2B742560E1E7014B18609F
:105F6000704700BF3CE4032008B50B4B43B1FFF77B
:105F7000ADFC03681B699847002801DDAFF3008082
:105F8000064B43B100F08CFB03681B69984700285F
:105F900001DDAFF3008008BD00000000000000003C
:105FA00008B5FFF7E1FFFFF703F9014B186008BDE3
:105FB00034E703200548064A064908B5121A01F0DD
:105FC00061F9054B054A1A6008BD00BF00F40320C3
:105FD00004F40320847A0B0000F403201E1C279A8B
:105FE00007B5002300931A466FF07701FFF7F2F927
:105FF00003B05DF804FB000007B543880A2B08D006
:10600000502B0BD1094B1B684BB103B05DF804EB6F
:106010001847FFF7E5FF03B05DF804FB002300938A
:106020001A466FF07701FFF7D5F9F4E7E4E60320AD
:1060300010B512480021FFF733FA114B1A68114BC3
:106040009A42114B0CBF012200221A7001D0FFF7B7
:10605000B1FFFFF7A5F8044601F02AF90B4B13B185
:106060002046AFF3008000210848FFF721F9BDE882
:10607000104007480021FFF7A3B900BF5D5F0B0088
:1060800000F403201E1C279AE0E603200000000015
:10609000F95F0B0010B50446FFF7DAF8844208D028
:1060A0001CB1BDE81040FFF7BBB8BDE81040FFF7DA
:1060B000BFB810BD70B505460E461446FFF7C8F8C8
:1060C00050B144EA062444EA0540FFF7A1F8BDE8D0
:1060D0007040E720FFF7C4B870BD10B50C46FFF75D
:1060E000AFF8FFF7B5F828B124B1BDE81040E720BC
:1060F000FFF7B6B810BD0000014B00229A60704750
:10610000E8E603200021FFF743B90000024B1A68BC
:10611000024B1A60704700BF34E40320F8E6032006
:10612000014B024A1A607047FCE6032030790B00ED
:1061300010B50446FFF73CF8E060236820465B6931
:106140009847002808DAFFF733F8E368C01AA36815
:106150009842F2D34FF0FF3010BD000070B50D46ED
:1061600009490446164600F0F4F82846FFF7E0FF18
:10617000002806DB864204D0C1B2204600F039F97F
:10618000F3E7204670BD00BF6D760B00F8B50646FC
:106190000D468F180024BD420CD0336815F8011B42
:1061A0009B6830469847031E01DB1C44F3E7002C34
:1061B00008BF1C462046F8BD13B50446084659B131
:1061C000019101F0C8F823680199DB680246204676
:1061D00002B0BDE81040184702B010BD03689B68CC
:1061E000184738B50D210546FFF7F8FF0A21044688
:1061F0002846FFF7F3FF204438BD38B50546FFF7C2
:10620000DBFF04462846FFF7ECFF204438BD30B5DD
:106210008BB00023012A8DF8243098BF0A2209ACE4
:106220000D46B1FBF2F101FB125303F0FF03092B02
:1062300094BF30333733DBB2AA4204F8013DEFD9C3
:106240002146FFF7B9FF0BB030BD2DE9F04186B014
:1062500000AF05460E46381D142114463B60FFF77B
:10626000F7F813280ED8391D2846FFF7A5FF044676
:106270001EB12846FFF7B5FF044420461837BD4637
:10628000BDE8F08100F1080323F00703E846ADEB19
:10629000030D2246411C3B686846FFF7D9F8694662
:1062A0002846FFF789FF0446C546E1E70248002378
:1062B0000360FEF76DBF00BF00E7032010B5044682
:1062C0000068FFF7ADF8204610BD10B50446006821
:1062D00008B1FFF7A5F80023C4E90133236010BD1E
:1062E00038B504460D4600680131FFF7A1F810B13A
:1062F000C4E90005012038BD10B50368044623B188
:1063000043688B4201D3012010BD2046FFF7E8FF10
:106310000028F9D0A368002BF5D122681370F2E7AA
:1063200037B50D46114601920446FFF7E5FF019A85
:1063300028B92046FFF7C9FF204603B030BDA26050
:106340002946206800F09EFF2268A3680021D154EE
:10635000F2E7002313B5C0E90033044683600373FA
:1063600041B10846019100F0F6FF0199024620462E
:10637000FFF7D6FF204602B010BD38B505460068CD
:106380000C4668B16A688B689A4207D3096800F0C6
:10639000BDFFA368AB600023A36038BDFFF740F8E2
:1063A00023682B6063686B60A368AB600023C4E95B
:1063B0000033F1E7884210B5044601D0FFF7DDFF56
:1063C000204610BD70B505460E4609B9002070BDC7
:1063D0006AB1846814442146FFF78EFF0028F5D087
:1063E0002868AB683146184400F090FFAC6001208B
:1063F000EDE707B500238DF80410012201A98DF8FF
:106400000530FFF7DFFF03B05DF804FB10B504466D
:10641000006818B1FFF704F80023236010BD38B5F9
:106420000C460546FFF7F2FF54B12088FEF7F0FF57
:10643000286028B122882146BDE8384000F022BFFC
:1064400038BD38B5B1F904308380D1F80630C0F8D2
:1064500006304B8943810C460546FFF7D7FF23687A
:1064600013B12B600023236038BD07B50B46002114
:106470000246009101208C21FEF7C0FF03B05DF8B9
:1064800004FB01460020FFF7F0BF0020FFF7F9BF33
:10649000F0B52B4D0B7D04468BB00846AF1D002B8D
:1064A00036D00B681B79002B32D0264B0493002288
:1064B00002A90430CDE90222FEF796FFDDF80E3086
:1064C000C5F8063000B2BDF81230ADF80C00A88057
:1064D0000299BB802846FFF7A2FF02A8FFF796FFAC
:1064E00000232360A380A37123814FF6FF73638190
:1064F000B5F90430A380D5F80630C4F80630BB885F
:10650000296863812046FFF78AFF20460BB0F0BD63
:1065100000262023CDE902360B4B009302AA334616
:106520000A493220FEF7A4FE064B054802964FF6B4
:10653000F26202A9CDE90323FFF783FFCDE700BF95
:1065400004E703200000FFFF3B790B0034790B00C8
:10655000054B02221A60054B054A9A600020C3E9E8
:106560000000FEF70DBF00BF10E7032004E7032083
:106570000000FFFF002240681146FEF7D9BE00224E
:1065800040681146FEF7E4BE40680022FEF7D8BE20
:106590004068002281F00101FEF7C2BE002340687E
:1065A0001A461946FEF7B4BE002340681A4619463B
:1065B000FEF7A6BE002240681146FEF799BE0022F3
:1065C00040681146FEF784BE406800220221FEF7B3
:1065D00087BE002340681A46FEF772BE024B0322B4
:1065E0005A60024A1A60704714E703206C790B0066
:1065F0007047000038B520251423044603608560E9
:1066000005610649284600F0D7F80449606028462D
:1066100000F0D2F8E060204638BD00BFA0790B0042
:1066200030B50E4D2978BFF35B8F11F0010487B0B0
:1066300011D12846FDF735FD68B101A8FFF7DAFF53
:1066400001AA21460648FFF763F82846FDF72EFD0C
:10665000044800F011FE024807B030BD1CE70320DB
:1066600020E70320F1650B007047000038B50446B1
:1066700014252A46002100F013FE258040250749F5
:1066800025812846258200F097F804496060284655
:1066900000F092F8E060204638BD00BFA0790B0002
:1066A00030B50E4D2978BFF35B8F11F0010487B030
:1066B00011D12846FDF7F5FC68B101A8FFF7D6FF18
:1066C00001AA21460648FFF787F82846FDF7EEFCA9
:1066D000044800F0D1FD024807B030BD38E7032080
:1066E0003CE7032069660B00232813B502D900207C
:1066F00002B010BDA0F10B03022B1AD8174C217861
:10670000BFF35B8F11F001010BD120460191FDF722
:10671000C8FC019928B11248FEF7C4FF2046FDF7D6
:10672000C5FC0F4B1878FEF7DBFC0028DFD10120F9
:10673000DEE7012809D8FFF773FF0021007CFEF790
:10674000B7FC80F00100C0B2D2E709380128EED8CA
:10675000FFF7A6FF007CFEF7F3FCF2E750E703200B
:1067600054E70320232838B504460D460AD8FF29EC
:1067700008D0FFF7B9FF28B129462046BDE83840C8
:10678000FEF726BD38BD0D2810B504469CBF0E345B
:10679000A4B22046FFF7A8FF50B103212046FEF720
:1067A0000FFD032804D12046BDE81040FEF718BDB8
:1067B000002010BDFDF76FBCFDF76FBC08B5FEF7FC
:1067C0004FFE000008B52DED028BB0EE408A00F0C0
:1067D0002FF8144B93F90030013314D0B4EE488AEB
:1067E000F1EE10FA0FD6B5EEC08AF1EE10FA0ADC1F
:1067F000B5EE408AF1EE10FA08D1FEF741FE2223F1
:106800009FED090A0360BDEC028B08BDFEF738FE60
:10681000BDEC028B034621221A600448BDE8084003
:1068200000F006B938E40320000080FFA4790B00D3
:1068300010EE103A33F000422ED0002B33DBB3F1D0
:10684000FF4F40DAB3F5000F34DB4FF0000C68481F
:10685000C3F31601084400F4000282F07E520A439A
:10686000DB1500EE102A7F3B624A634401F10F0CF6
:10687000F7EE007A0CEA020230EE670A03EBD0531F
:1068800022BBB5EE400AF1EE10FA60D1002B40F0C9
:1068900092809FED590A70479FED587ADFED567A46
:1068A00087EE270A704770EE407A9FED537A87EEA5
:1068B000870A7047DFED527A60EE277A6FF0180C86
:1068C00017EE903AC3E730EE000A7047F0EE007A18
:1068D00070EE277A07EE103A80EE274A4948C1F554
:1068E0005712084402F522720243002A9FED463AED
:1068F000DFED464ADFED465ADFED463A9FED465A58
:10690000DFED467ADFED466A24EE046AF8EEC72A28
:1069100026EE067AE7EE034AA7EE235AE4EE875AFC
:10692000E5EE076AE5EE877A67EE867AE6EE877A25
:106930002ADDB6EE007A20EE077A27EE007A4BBB0E
:1069400077EE877AA7EEC47A30EE470A7047B6EE44
:10695000007ADFED346AF0EE477AE0EE667A20EEF8
:10696000007A27EE277A002BEED007EE903A9FEDC3
:106970002E6ADFED2E6AF8EEE77AA7EEC67A37EEDA
:10698000400A97EEA60A704713BB70EE677AA7EE2F
:10699000C40A7047DFED246A9FED246A77EE877A98
:1069A00062EEA66AE7EE846A37EE667A37EE400A50
:1069B00092EE860A704707EE903A9FED1B0A9FED14
:1069C0001B7AF8EEE77A27EE800AA7EE870A70476F
:1069D0009FED157ADFED156A70EE677A27EE627A21
:1069E000A7EE847A37EE400A92EEA60A704700BFFF
:1069F00020FB4A00F0FF7F0000000000000000CCF8
:106A00000000004C305CCFFF9788173E25333A3E9C
:106A10002549923E4FD01C3E298E633EABAA2A3FA9
:106A2000CDCCCC3EABAAAA3ED1F717378071313F0F
:106A30009FED010A704700BF0000C07F81F0004158
:106A400002E000BF83F0004330B54FEA41044FEA53
:106A5000430594EA050F08BF90EA020F1FBF54EAEE
:106A6000000C55EA020C7FEA645C7FEA655C00F08A
:106A7000E2804FEA5454D4EB5555B8BF6D420CDD5B
:106A80002C4480EA020281EA030382EA000083EADE
:106A9000010180EA020281EA0303362D88BF30BD7E
:106AA00011F0004F4FEA01314FF4801C4CEA1131D4
:106AB00002D0404261EB410113F0004F4FEA033333
:106AC0004CEA133302D0524263EB430394EA050FBE
:106AD00000F0A780A4F10104D5F1200E0DDB02FA2D
:106AE0000EFC22FA05F2801841F1000103FA0EF2C1
:106AF000801843FA05F359410EE0A5F120050EF187
:106B0000200E012A03FA0EFC28BF4CF0020C43FAB7
:106B100005F3C01851EBE37101F0004507D54FF0C4
:106B2000000EDCF1000C7EEB00006EEB0101B1F514
:106B3000801F1BD3B1F5001F0CD349085FEA30005A
:106B40004FEA3C0C04F101044FEA445212F5800F65
:106B500080F09A80BCF1004F08BF5FEA500C50F102
:106B6000000041EB045141EA050130BD5FEA4C0CE5
:106B7000404141EB0101013C28BFB1F5801FE9D242
:106B800091F0000F04BF01460020B1FA81F308BF65
:106B90002033A3F10B03B3F120020CDA0C3208DD31
:106BA00002F1140CC2F10C0201FA0CF021FA02F10C
:106BB0000CE002F11402D8BFC2F1200C01FA02F17C
:106BC00020FA0CFCDCBF41EA0C019040E41AA2BFA1
:106BD00001EB0451294330BD6FEA04041F3C1CDA69
:106BE0000C340EDC04F11404C4F1200220FA04F089
:106BF00001FA02F340EA030021FA04F345EA030133
:106C000030BDC4F10C04C4F1200220FA02F001FAF4
:106C100004F340EA0300294630BD21FA04F0294676
:106C200030BD94F0000F83F4801306BF81F480110F
:106C30000134013D4EE77FEA645C18BF7FEA655C82
:106C400029D094EA050F08BF90EA020F05D054EA54
:106C5000000C04BF1946104630BD91EA030F1EBF59
:106C60000021002030BD5FEA545C05D1400049415D
:106C700028BF41F0004130BD14F580043CBF01F550
:106C8000801130BD01F0004545F0FE4141F4700136
:106C90004FF0000030BD7FEA645C1ABF1946104611
:106CA0007FEA655C1CBF0B46024650EA013406BF12
:106CB00052EA033591EA030F41F4002130BD00BFD1
:106CC00090F0000F04BF0021704730B54FF480648E
:106CD00004F132044FF000054FF0000150E700BF0F
:106CE00090F0000F04BF0021704730B54FF480646E
:106CF00004F1320410F0004548BF40424FF000015B
:106D00003EE700BF42004FEAE2014FEA31014FEA9D
:106D100002701FBF12F07F4393F07F4F81F06051EC
:106D2000704732F07F4208BF704793F07F4F04BF37
:106D300041F40021704730B54FF4607401F0004514
:106D400021F000411CE700BF50EA010208BF704774
:106D500030B54FF000050AE050EA010208BF704765
:106D600030B511F0004502D5404261EB41014FF4CE
:106D7000806404F132045FEA915C3FF4D8AE4FF0D6
:106D800003025FEADC0C18BF03325FEADC0C18BFB9
:106D9000033202EBDC02C2F1200300FA03FC20FA0A
:106DA00002F001FA03FE40EA0E0021FA02F1144457
:106DB000BDE600BF70B54FF0FF0C4CF4E06C1CEA70
:106DC00011541DBF1CEA135594EA0C0F95EA0C0FE1
:106DD00000F0DEF82C4481EA030621EA4C5123EA54
:106DE0004C5350EA013518BF52EA033541F4801183
:106DF00043F4801338D0A0FB02CE4FF00005E1FB36
:106E000002E506F00042E0FB03E54FF00006E1FB7F
:106E100003569CF0000F18BF4EF0010EA4F1FF04C2
:106E2000B6F5007F64F5407404D25FEA4E0E6D4102
:106E300046EB060642EAC62141EA55514FEAC52013
:106E400040EA5E504FEACE2EB4F1FD0C88BFBCF58F
:106E5000E06F1ED8BEF1004F08BF5FEA500E50F140
:106E6000000041EB045170BD06F0004646EA010106
:106E700040EA020081EA0301B4EB5C04C2BFD4EB38
:106E80000C0541EA045170BD41F480114FF0000E31
:106E9000013C00F3AB8014F1360FDEBF002001F09F
:106EA000004170BDC4F10004203C35DA0C341BDC19
:106EB00004F11404C4F1200500FA05F320FA04F0EB
:106EC00001FA05F240EA020001F0004221F000411F
:106ED00010EBD37021FA04F642EB06015EEA430E92
:106EE00008BF20EAD37070BDC4F10C04C4F12005C2
:106EF00000FA04F320FA05F001FA04F240EA020075
:106F000001F0004110EBD37041F100015EEA430E45
:106F100008BF20EAD37070BDC4F1200500FA05F265
:106F20004EEA020E20FA04F301FA05F243EA0203E4
:106F300021FA04F001F0004121FA04F220EA0200F3
:106F400000EBD3705EEA430E08BF20EAD37070BD39
:106F500094F0000F0FD101F00046400041EB010119
:106F600011F4801F08BF013CF7D041EA060195F0FB
:106F7000000F18BF704703F00046520043EB0303B5
:106F800013F4801F08BF013DF7D043EA06037047A2
:106F900094EA0C0F0CEA135518BF95EA0C0F0CD0AD
:106FA00050EA410618BF52EA4306D1D181EA0301F3
:106FB00001F000414FF0000070BD50EA410606BFED
:106FC0001046194652EA430619D094EA0C0F02D132
:106FD00050EA013613D195EA0C0F05D152EA033677
:106FE0001CBF104619460AD181EA030101F0004195
:106FF00041F0FE4141F470014FF0000070BD41F0DE
:10700000FE4141F4780170BD70B54FF0FF0C4CF4B7
:10701000E06C1CEA11541DBF1CEA135594EA0C0FD6
:1070200095EA0C0F00F0A7F8A4EB050481EA030E23
:1070300052EA03354FEA013100F088804FEA03330A
:107040004FF0805545EA131343EA12634FEA0222D8
:1070500045EA111545EA10654FEA00260EF0004199
:107060009D4208BF964244F1FD0404F5407402D2EB
:107070005B084FEA3202B61A65EB03055B084FEA7C
:1070800032024FF480104FF4002CB6EB020E75EB79
:10709000030E22BFB61A754640EA0C005B084FEAA1
:1070A0003202B6EB020E75EB030E22BFB61A75461E
:1070B00040EA5C005B084FEA3202B6EB020E75EB69
:1070C000030E22BFB61A754640EA9C005B084FEAE1
:1070D0003202B6EB020E75EB030E22BFB61A7546EE
:1070E00040EADC0055EA060E18D04FEA051545EADD
:1070F00016754FEA06164FEAC30343EA52734FEA86
:10710000C2025FEA1C1CC0D111F4801F0BD141EAFE
:1071100000014FF000004FF0004CB6E711F4801F63
:1071200004BF01430020B4F1FD0C88BFBCF5E06F43
:107130003FF6AFAEB5EB030C04BFB6EB020C5FEA53
:10714000500C50F1000041EB045170BD0EF0004EA8
:107150004EEA113114EB5C04C2BFD4EB0C0541EADA
:10716000045170BD41F480114FF0000E013C90E6D7
:1071700045EA060E8DE60CEA135594EA0C0F08BF9B
:1071800095EA0C0F3FF43BAF94EA0C0F0AD150EA9A
:1071900001347FF434AF95EA0C0F7FF425AF10462D
:1071A00019462CE795EA0C0F06D152EA03353FF455
:1071B000FDAE1046194622E750EA410618BF52EAD2
:1071C00043067FF4C5AE50EA41047FF40DAF52EAA6
:1071D00043057FF4EBAE12E74FEA4102B2F1E04320
:1071E00024BFB3F5001CDCF1FE5C0DD901F0004CAE
:1071F0004FEAC0024CEA5070B2F1004F40EB8300FE
:1072000008BF20F00100704711F0804F21D113F129
:107210003872BCBF01F00040704741F480114FEA62
:107220005252C2F11802C2F1200C10FA0CF320FAEB
:1072300002F018BF40F001004FEAC1234FEAD32308
:1072400003FA0CFC40EA0C0023FA02F34FEA430372
:10725000CCE77FEA625307D150EA01331EBF4FF0FB
:10726000FE4040F44000704701F0004040F0FE4016
:1072700040F40000704700BF002301461A4618463C
:1072800000F072B80A44914200F1FF3300D1704718
:1072900010B511F8014B03F8014F9142F9D110BD1F
:1072A00002440346934200D1704703F8011BF9E7FB
:1072B00038B5104B1D68AB6B0446B3B91820FEF708
:1072C000A7F80246A86320B90B4B0C484221FEF7F1
:1072D000DFF80B490B4BC0E900130B4B83600B230A
:1072E000838100210120C2E90401AB6B00221C61F3
:1072F0005A6138BD3CE40320A5790B00BC790B0032
:107300000E33CDAB34126DE6ECDE0500034611F80A
:10731000012B03F8012B002AF9D17047024B0146DB
:10732000186800F003B800BF3CE4032037B50446FA
:1073300008460D4600F00FF8421C11462046019207
:10734000FEF796F8044618B1019A2946FFF79AFF0E
:10735000204603B030BD034613F8012B002AFBD1B1
:10736000181A0138704700002DE9F843DFF8B8809B
:107370000646D8F800001F460D46914600F056F824
:10738000254B1C6834B9254C1C60254B13B11B6878
:10739000C4F8883063681F2B07DDD8F8000000F0C0
:1073A00047F84FF0FF30BDE8F8834EB3D4F88800BB
:1073B00088B91C4B23B9D8F8000000F038F8F0E782
:1073C0004FF48470FEF724F80028F4D00023C0E9BD
:1073D0004033C4F88800636840F8239001229A4043
:1073E00000EB8301D0F800311343C0F80031022EC6
:1073F000C1F8807002BFD0F804311343C0F80431E3
:107400006368D8F800005A1C0233626044F82350C5
:1074100000F00EF80020C6E7E8E703205CE7032051
:107420000000000011540B00A0E4032070477047D7
:107430007047000021400B005D400B0085400B00B1
:1074400089400B000000000074656D70433A2025F0
:10745000662074656D70463A20256620636F756EF0
:107460007465723A202569206465766963654944CC
:107470003A2025730A00766F6C746167653A20259F
:10748000660A0041542B4D4F44453D300D0A0041E2
:1074900077616974696E67205265706C79206672D5
:1074A0006F6D2072657961784F6E28290A005265E8
:1074B000706C793A2025730A0041542B4D4F444596
:1074C0003F0D0A004177616974696E6720526570EB
:1074D0006C792066726F6D206D6F64653F0A0041A4
:1074E000542B4D4F44453D310D0A00506F77657266
:1074F000696E6720646F776E2E2E2E0A0073656E9C
:1075000064207265706C793A2025730A0073656E89
:10751000644461746128290041542B53454E443D15
:1075200025692C25692C25302E32662C25302E32EB
:10753000662C25690D0A0063726561746542756683
:107540006665723A202573006372656174654275E1
:107550006666657228290041540D0A0061745465FD
:107560007374207265706C793A2025730A00617417
:107570005465737428290061744D6F6465207265C9
:10758000706C793A202573207265706C79323A20DC
:1075900025730A0061744D6F646528290041776185
:1075A0006974696E67205265706C790A0052657063
:1075B0006C792041542B4D4F44453F3A2025730AA6
:1075C0000041542B4D4F44453F0041542B495052EC
:1075D0003D25690D0A007365744950520041542BD2
:1075E0004950523F0D0A005265706C792041542B6E
:1075F0004950523F3A2025730A0041542B495052BA
:107600003F0041542B504152414D455445523D316C
:10761000322C372C312C370D0A007365745261649B
:10762000696F0041542B504152414D455445523FE2
:107630000D0A005265706C792041542B5041524123
:107640004D455445523F3A2025730A0073657450E6
:107650006172616D657465723F0041542B42414E09
:10766000443D3931353030303030300D0A0041542E
:107670002B42414E443D3836383530303030300DB5
:107680000A0073657442616E640041542B42414E9E
:10769000443F0D0A005265706C792041542B4241E1
:1076A0004E443F3A2025730A0041542B42414E4438
:1076B0003F0041542B414444524553533D25690DED
:1076C0000A00736574416464726573730041542BDE
:1076D000414444524553533F0D0A005265706C7942
:1076E0002067657420616464726573733A20257342
:1076F0000A0041542B414444524553533F004154E6
:107700002B4E4554574F524B49443D25690D0A00B5
:1077100041542B4E4554574F524B49443F0D0A009C
:107720005265706C792041542B4E4554574F524B43
:1077300049443F2025730A0041542B4E4554574F6E
:10774000524B49443F0042413431303430333239B6
:1077500036384241313131343239393037393032CB
:107760003135393441410041542B4350494E3D2578
:10777000730D0A007365744350494E0041542B4306
:1077800050494E3F0D0A005265706C7920435049B4
:107790004E3A2025730A0041542B4350494E3F0076
:1077A00041542B4352464F503D25690D0A00415428
:1077B0002B4352464F500041542B4352464F503FAB
:1077C0000D0A005265706C792041542B4352464F8C
:1077D000503F3A2025730A0041542B4352464F50E4
:1077E0003F0000000000000000000000C3540B0038
:1077F000CD540B00D7540B00E1540B00EB540B009D
:10780000F7540B0003550B000B550B0013550B00E1
:107810001F550B0027550B0031550B003B550B0036
:10782000000000000000000087560B007D560B0092
:1078300073560B0029560B0067560B005B560B0066
:1078400003550B000B550B004F560B0047560B0012
:107850003D560B0033560B003B550B00000000005B
:1078600000000000B9560B0003570B00DB560B005D
:10787000BB560B00E3560B00EB560B00F3560B0008
:10788000FB560B0000000000000000005D570B00DD
:10789000C9570B00A1570B008D610B0071570B00EE
:1078A0008D570B007F570B009B570B005F570B004A
:1078B00063570B00000000000000000015580B008B
:1078C0007D580B0053580B008D610B0045580B0081
:1078D00017580B0027580B0077580B0037580B0030
:1078E0000F580B00000000000000000029590B0099
:1078F00019590B001B590B0000000000000000008C
:10790000095A0B000F5A0B004D5A0B001D5A0B0061
:107910000B5A0B0025592D256D2D25645425483A09
:10792000254D3A2553257A0061736374696D6500AE
:1079300061707000776972696E670053797374655E
:107940006D20736C65657020636F6E666967757214
:107950006174696F6E20697320696E76616C696409
:107960002E0000000000000000000000D3650B00A6
:10797000C9650B00BF650B00B5650B00A9650B0061
:107980009D650B0003550B000B550B0091650B001B
:1079900089650B007F650B0075650B003B550B007F
:1079A00000000000005245454E54206D616C6C6F24
:1079B0006320737563636565646564002F6D6E7421
:1079C0002F776F726B73706163652F776F726B7354
:1079D000706163652F4743432D31302D70697065A9
:1079E0006C696E652F6A656E6B696E732D474343D4
:1079F0002D31302D706970656C696E652D34385F7E
:107A000032303230313132345F3136303631383025
:107A10003634312F7372632F6E65776C69622F6E07
:107A200065776C69622F6C6962632F7374646C692B
:107A3000622F72616E642E6300000000B54F0B0070
:107A400015560B0091560B00F9600B000D610B00F1
:107A500021610B00AD620B0051650B00DD650B0071
:107A6000040000001400000003000000474E550011
:107A7000409EE2B41F94D3274F7FBA1B149EDDEBC8
:047A8000154B9AE91F
:047A840000000000FE
:107A88002A00000000C20100370000001E000000AC
:107A9800060000000F0000000400000017000000AE
:107AA80028790B00FF00000040E4032000000000DC
:107AB80000000000000000000000000000000000BE
:107AC80000000000000000000000000000000000AE
:107AD800000000000000000000000000000000009E
:107AE800000000000000000000000000000000008E
:107AF800000000000000000000000000000000007E
:107B0800000000000000000000000000ECE7032077
:107B1800FFFFFFFF00000102030405060708090A2A
:107B28000B0C0D0E0F101112131415161718191A25
:087B38001B1C1D1E1F2028006C
:047B4000785634122D
:04000003B0004020E9
:00000001FF
