:02000002B0004C
:1040000000400B0014D90B00000006000D00050253
:084010000401A30F00000000F1
:0440180054C50B0080
:1040200009480A49884208B505D0094A824202D0A7
:10403000121A06F08CF90748074A0021121A06F0F6
:1040400094F9014808BD00BFA8DF0320F8D60B0093
:1040500098E1032098E10320EDE7032070B5074EB7
:10406000074C04F0CDFBA41BA4080025AC4200D1F2
:1040700070BD56F8043B98470135F7E78CD60B0026
:10408000C4D60B0000F072BC08B500F099FDBDE885
:10409000084004F06DBB03F065BA03F063BA03F0A7
:1040A00069BA0078B0FA80F04009704701230370C4
:1040B000704708B503F058F920B1BDE8084000206A
:1040C00003F06AB908BD000010B586B0002202A94D
:1040D0000320029203F02EF9E0B9029C0CB123698F
:1040E00023B90E4A0E490A2003F014F90C23039356
:1040F00001AB04930423059303AA236901212046FD
:10410000984738B9BDF8043000EE103ABBEECC0A3F
:1041100006B010BDBFEE000AFAE700BF35720B0013
:1041200068C50B000EB403B503AB002153F8042B94
:10413000019304F0BAFC02B05DF804EB03B07047E1
:10414000F8B5134D134E144F114802F048FD0446C4
:10415000E0B903F061FF314604F07FFC0F492346CC
:104160003A46284602F01AFE30B103F055FFBDE88A
:10417000F8400B4904F071BC03F04EFF094904F00C
:104180006CFC40F6B83004F09BFBDDE7F8BD00BFE7
:10419000F0E203208EC50B00CAC50B00DFC50B0083
:1041A000E7C50B0001C60B002DE9F04FB94887B0F9
:1041B00002F015FD08B9FFF7C3FFFFF785FF10EE0A
:1041C000100A05F037FDB44BB44ADFF83CA3DFF822
:1041D0003C93DFF83C83B24FB24DB34CDFF834B3BD
:1041E000B24ECDE900018021B14803F0DBF9B04ABD
:1041F000B049A84802F0C0FE0123AF49AF488AF891
:10420000003089F8003088F800303B702B70237044
:104210008BF8003003F097FD05F0FAFC0022A84B64
:1042200005F08AFE06F018F8A64BA3491860A348CB
:1042300003F089FD05F0ECFC0022A14B05F07CFEAB
:1042400006F00AF8A04B9C4918609C4803F07BFDDF
:1042500005F0DEFC00229A4B05F06EFE05F0FCFF37
:104260009A4B95491860954803F06DFD05F0D0FC18
:104270000022934B05F060FE05F0EEFF944B8E4953
:1042800018608E4803F05FFD05F0C2FC8C4B0022E5
:1042900005F052FE05F0E0FF87493060874803F0E3
:1042A00052FD05F0B5FC0022854B05F045FE05F0FA
:1042B000D3FF884B80491860804803F044FD05F027
:1042C000A7FC00227E4B05F037FE05F0C5FF824BB0
:1042D00041F25C21186040F6B83003F034FD05F07F
:1042E00097FC0022764B05F027FE05F0B5FF7B4BCF
:1042F00041F25C21186040F6B83003F024FD05F06F
:1043000087FC00226E4B05F017FE05F0A5FF744BED
:1043100041F25C21186040F6B83003F014FD05F05E
:1043200077FC0022664B05F007FE05F095FF6D4B0C
:1043300041F25C21186040F6B83003F004FD05F04E
:1043400067FC00225E4B05F0F7FD05F085FF664B2C
:1043500041F25C21186040F6B83003F0F4FC05F03F
:1043600057FC0022564B05F0E7FD05F075FF5F4B4B
:1043700041F25C21186040F6B83003F0E4FC05F02F
:1043800047FC00224E4B05F0D7FD05F065FF584B6A
:1043900041F25C21186040F6B83003F0D4FC05F01F
:1043A00037FC474B002205F0C7FD05F055FF514B88
:1043B0001860384802F0FCFC9AF80030C3B1474B53
:1043C000186805F037FCCDE902013E4B186805F08E
:1043D00031FC494ACDE900018021354803F0E2F87B
:1043E000334A34492B4802F0C7FD00238AF80030D5
:1043F00099F80030C3B13A4B186805F01BFCCDE9C1
:104400000201314B186805F015FC3C4ACDE900016A
:104410008021274803F0C6F8254A26491D4802F0A6
:10442000ABFD002389F8003098F80030C3B12D4B64
:10443000186805F0FFFBCDE90201244B186805F070
:10444000F9FB2F4ACDE900018021194803F0AAF8B1
:10445000174A18490F4802F08FFD002388F80030F2
:104460003B78002B5AD0204B186805F0E3FBCDE9D0
:104470000201174B186805F0DDFB224ACDE9000167
:1044800080210B4803F08EF8094A0A49014802F0DE
:1044900073FD41E0F0E203200CE4032037C60B007B
:1044A000D7E40320D8E40320D9E40320E0E3032089
:1044B0001CE2032056C60B00109802007011010088
:1044C00000408F40D0E30320D4E30320D8E303204F
:1044D000DCE30320E4E30320E8E3032098E4032083
:1044E0009CE40320A0E40320A4E40320A8E4032028
:1044F000ACE40320B0E403206EC60B0085C60B00BD
:104500009BC60B00B1C60B00D4E40320D5E4032006
:10451000D6E40320DAE4032000233B702B787BB33E
:10452000DFF80081D8F8000005F084FBCDE9020136
:10453000306805F07FFB304ACDE9000180212F482B
:1045400003F030F82D4A2E492E4802F015FDA8B18F
:1045500003F062FD0746306805F06CFB02460B462F
:10456000D8F80000CDE9042305F064FBDDE904235D
:10457000CDE9000124493846FFF7D4FD00232B7014
:104580002378BBB1214B186805F054FBCDE902013B
:104590001F4B186805F04EFB1E4ACDE90001802133
:1045A000164802F0FFFF154A1549164802F0E4FCD0
:1045B000002323709BF80030C3B1174B186805F037
:1045C00039FBCDE90201154B186805F033FB144A9D
:1045D000CDE900018021094802F0E4FF074A0849BB
:1045E000084802F0C9FC00238BF80030054807B0EA
:1045F000BDE8F04F02F0DCBBC7C60B001CE2032095
:1046000056C60B00F0E20320DDC60B00ACE403202D
:10461000E4E30320FCC60B00B0E40320E8E303203E
:1046200012C70B00A8E4032070B502F095FEFFF757
:1046300040FD002002F016FE1C4D0446002600201E
:1046400002F010FE001B61F10001854276EB0103D0
:1046500005D302F089FE10B902F076FEEFE702F012
:1046600083FEFFF726FD002002F0FCFD47F23055E7
:104670000446002002F0F6FD001B61F10001A84293
:1046800071F1000309D2002002F08EFE28B102F081
:104690006BFE10B102F058FEEBE7002002F084FE42
:1046A00018B1BDE8704002F05FBE70BD7FA9030085
:1046B00073B5002422460DF1070120468DF807400E
:1046C00002F012FF9DF80730CBB1012122460846C7
:1046D00002F002FF02F0B6FD0A4E0B4D044602F056
:1046E000B1FD001BB04205D802F0ACFD286002F01D
:1046F0002BFEF4E702B0BDE8704004F0F7BA02B058
:1047000070BD00BFBFD4010034E7032000B593B0F3
:104710008449684604F04DFA834904A804F049FA34
:1047200004F0CEFE009A8149FFF7FCFCC82004F09B
:10473000C7F804F0C5FE03681B699847002818DD18
:1047400003F06AFC7A49FFF7EDFC04F0B9FE0A2297
:10475000014608A804F02EF908A904A804F05AFAA2
:1047600008A804F0DBF903F057FC049A7149FFF73D
:10477000D9FC04F0A5FE70491722FFF7D3FCC8202E
:1047800004F09EF804F09CFE03681B69984700281B
:1047900018DD03F041FC6949FFF7C4FC04F090FE0A
:1047A0000A22014608A804F005F908A904A804F0A3
:1047B00031FA08A804F0B2F903F02EFC049A60491B
:1047C000FFF7B0FC04F07CFE5E490622FFF7AAFC6E
:1047D000C82004F075F804F073FE03681B6998475D
:1047E000002818DD03F018FC5749FFF79BFC04F084
:1047F00067FE0A22014608A804F0DCF808A904A80C
:1048000004F008FA08A804F089F903F005FC049AFA
:104810004E49FFF787FC04F053FE4D49FFF782FC39
:10482000C82004F04DF804F04BFE03681B6998475C
:10483000002818DD03F0F0FB4649FFF773FC04F095
:104840003FFE0A22014608A804F0B4F808A904A80B
:1048500004F0E0F908A804F061F903F0DDFB049A24
:104860003D49FFF75FFC04F02BFE3C49FFF75AFC83
:10487000C82004F025F804F023FE03681B6998475C
:10488000002818DD03F0C8FB3249FFF74BFC04F0A9
:1048900017FE0A22014608A804F08CF808A904A80B
:1048A00004F0B8F908A804F039F903F0B5FB049A4C
:1048B0002B49FFF737FC04F003FE2A49FFF732FCCF
:1048C000C82003F0FDFF04F0FBFD03681B69984757
:1048D00000281EDD03F0A0FB1E49FFF723FC04F0B7
:1048E000EFFD0A22014608A804F064F808A904A80C
:1048F00004F090F908A804F011F9282208A900236F
:1049000004A804F0B3F903F087FB174908AAFFF7DE
:1049100009FC04A804F002F9684604F0FFF813B09B
:104920005DF804FB28C70B008BCC0B0049C70B00BC
:1049300056C70B0074C70B007FC70B008FC70B0057
:10494000ACC70B00BFC70B00D1C70B00F0C70B00F3
:1049500003C80B0011C80B0021C80B0038C80B009E
:1049600048C80B005FC80B006AC80B0030B50121B6
:1049700085B0FF2003F08FFF03F04EFB4FF416517C
:1049800003F03EFB04F09CFD4FF4E13103F096FA96
:1049900040F6B83003F094FFFFF7B8FE012107207E
:1049A00004F0F0FD194B01A803240125CDE90143D2
:1049B000ADF80C5003F039FCFFF736FEFFF779FB3A
:1049C0004FF0FF31124803F02CFC40F25B721149AA
:1049D000114802F0E2FAFFF7B3FBFFF7E5FB40F600
:1049E000B83003F06DFF2946204603F054FF02F073
:1049F00029FC0A4B0A4A186000231360094A137005
:104A000002F020FC084B186005B030BDC0D4010096
:104A100030E70320A8DF0320F0E2032014E20320A4
:104A2000D0E10320D4E1032018E2032000B589B0CF
:104A30001A49684604F0BDF804F042FD1849FFF732
:104A400071FB42F2107003F03BFF04F039FD036884
:104A50001B699847002818DD03F0DEFA1149FFF7BB
:104A600061FB04F02DFD0A22014604A803F0A2FF19
:104A700004A9684604F0CEF804A804F04FF803F047
:104A8000CBFA009A0849FFF74DFB04F02FF968466E
:104A900004F044F809B05DF804FB00BF8BCC0B00B8
:104AA00082C80B008FC70B00ACC70B0038B5046879
:104AB00005467CB16368013B63605BB923682046AF
:104AC0009B689847A368013BA3601BB923682046F5
:104AD000DB689847284638BD30B52DED028B85B090
:104AE000FFF7A2FD2B4C2C4D4FF4966003F0E8FE2F
:104AF000FFF7EAFAD4ED007A28492948B0EE408A57
:104B0000B8EE670A01F041F926492548B0EE480A97
:104B100001F03BF9244B2A781968214801F03EF94D
:104B20002B788DF8003002463C2330B300221F4919
:104B300002A803F08FFC03A8FFF7B8FF4FF49660BC
:104B400003F0BEFE1A4B01251D70FFF7B1FD4FF4B7
:104B50007A7003F0B5FE2946032003F09CFE154B46
:104B600000221A7002F06EFB134B186023680133A9
:104B7000236005B0BDEC028B30BD104902A803F0E4
:104B800069FC03A8FFF792FF4FF4966003F098FECC
:104B9000ECE700BFD0E10320B4E103208DC80B0097
:104BA0008CE4032095C80B00A4E10320A1C80B00EE
:104BB000D4E103209CE2032014E20320B6C80B00DA
:104BC000F0B5A64C237887B013B1A54802F0F0F8F1
:104BD00002F038FBA34B1B68C01A42F210739842D4
:104BE0002BD9A14B1978072081F0010119700125FB
:104BF00004F0D9FC0121032003F04DFE2570FFF7DE
:104C000013FD9A4CFFF755FA99484FF0FF3103F026
:104C100008FB9348257001F0E2FF08B9FFF790FA0E
:104C200003F07BFE93490246934802F0B3FCFFF782
:104C3000BBFAFFF751FF0023237004F041FC036827
:104C40001B699847002800F0A48004F039FC2C224E
:104C5000014602A803F0AEFE02A98848884D894C9F
:104C6000894E8A4F03F0D6FF02A803F057FF04F0E5
:104C700027FC2C22014602A803F09CFE02A98448CE
:104C800003F0C8FF02A803F049FF04F019FC2C222E
:104C9000014602A803F08EFE02A804F005F802A85F
:104CA00085ED000A03F03AFF04F00AFC2C220146CD
:104CB00002A803F07FFE02A803F0F6FF02A884ED2D
:104CC000000A03F02BFF04F0FBFB0A22014602A8B6
:104CD00003F070FE02A803F0E1FF306002A803F0C9
:104CE0001DFF04F0EDFB014602A803F04FFE02A9F0
:104CF000384603F08FFF02A803F010FF03F08CF991
:104D00003A686449FFF70EFA03F086F90746286807
:104D100004F090FF0B463168009102465E49384628
:104D2000FFF700FA366895ED000A012E33D15B4992
:104D30005B4801F02AF85B4994ED000A584801F0FD
:104D400024F8594B2A6859491A6023680B6058495E
:104D50000A60584A1360584B1E7004F0B1FB574C60
:104D6000014602A803F012FE02A9204603F052FFFA
:104D700002A803F0D3FE03F04FF922685049FFF771
:104D8000D1F903F049F90368DB6998474D4B0022DC
:104D90001A7007B0F0BD022E17D14B49404800F001
:104DA000F4FF4A4994ED000A3D4800F0EEFF484BFD
:104DB0002A6848491A6023680B6047490A60474AD5
:104DC0001360474B01221A70C7E7032E15D14549DE
:104DD000334800F0DAFF444994ED000A304800F00F
:104DE000D4FF424B2A6842491A6023680B6041494C
:104DF0000A60414A1360414BE4E7042E15D1404953
:104E0000274800F0C2FF3F4994ED000A244800F013
:104E1000BCFF3D4B2A683D491A6023680B603C4942
:104E20000A603C4A13603C4BCCE7052E40F084807E
:104E30003A491B4800F0A9FF394994ED000A184887
:104E400000F0A3FF374B2A6837491A6023680B60CC
:104E500036490A60364A1360364BB3E79CE20320BA
:104E6000F0E2032018E20320B5E10320E8E103208B
:104E700030E70320D7C80B000CE40320A0E2032096
:104E800000E40320B4E40320B0E30320F4E10320B2
:104E9000B0E20320DDC80B00F1C80B0010C90B0005
:104EA0008CE4032019C90B00FCE30320C8E40320B1
:104EB000D0E3032098E40320D4E4032004E2032099
:104EC0009CC90B00D4E1032025C90B002FC90B009E
:104ED00004E40320CCE40320D4E303209CE4032077
:104EE000D5E403203CC90B0047C90B0008E40320AC
:104EF000D0E40320D8E30320A0E40320D6E4032079
:104F000055C90B0059C90B00ECE30320B8E403209A
:104F1000DCE30320A4E40320D7E4032064C90B00EE
:104F200068C90B00F0E30320BCE40320E0E30320A6
:104F3000A8E40320D8E40320062E15D11849194807
:104F400000F023FF184994ED000A164800F01DFFF9
:104F5000164B2A6816491A6023680B6015490A60C7
:104F6000154A1360154B2DE7072E12D114490D4831
:104F700000F00BFF134994ED000A0A4800F005FF0A
:104F8000114A2B681360114A21681160104A13609E
:104F9000E3E61049034800F0F8FEFFF747FDDCE6C2
:104FA00073C90B008CE4032077C90B00F4E30320E2
:104FB000C0E40320E4E30320ACE40320D9E40320AD
:104FC00082C90B0086C90B00F8E30320C4E4032068
:104FD000E8E3032091C90B0038B52E4B2E4D002479
:104FE0001C7004F0C3F923462246012104F0CEF9D7
:104FF00004F0BCF9234622460D2104F0BFF92749ED
:10500000084602F077FE2549254801F0C9FC2146F3
:10501000244803F033FC2946234803F0CAFD2946FF
:10502000224803F0C6FD2946214803F0C2FD21496C
:10503000214803F0BEFD03222049214800F094FEE0
:105040002946204803F0B5FD29461F4803F0B1FD6D
:1050500029461E4803F0ADFD29461D4803F0A9FD71
:1050600029461C4803F0A5FD1B4B1A1D1A601B4A5C
:105070005A600122C3E902441A751C61184BC3E946
:105080000044A2F101129A60BDE83840022002F00B
:1050900013BA00BFB4E103208BCC0B00B4E30320B0
:1050A000F0E20320ECE10320D8E10320F4E1032047
:1050B00004E20320B1C90B00A4E10320BCC90B002A
:1050C0008CE40320A0E20320B0E20320C0E203202E
:1050D000D0E20320E0E20320B8E103201000030047
:1050E00098E103209FED010A704700BF5F42A2CD07
:1050F000017470470022011DC0E90221C0E90412B9
:105100000271704730B585B01A46089B1B788DF840
:10511000003002A83C2303F09DF90020029C02F01D
:10512000EBF920B1637813B902F00EF9FAE763786E
:10513000BFF35B8F651CABB90025039C7CB1636832
:10514000013B63605BB9236820469B689847A3686E
:10515000013BA3601BB923682046DB6898472846BB
:1051600005B030BD002002F0C7F920B12B7813B98B
:1051700002F0EAF8FAE72378012BDDD1257BDCE7A2
:1051800010B5044C0460C0E901130024029B0474B0
:10519000C36010BDCCC90B009FED010A704700BF72
:1051A0005F42A2CD017570470022011DC0E90221B6
:1051B000C0E904120271704730B5064D0560C0E9C0
:1051C00001130025039B057541F28835C0E90332C0
:1051D000856130BD90CA0B00014803F0E7BF00BFF6
:1051E000DCE4032010B504464A68024902F04EFA96
:1051F000204610BD7CE60320F0B58FB00146064680
:1052000002A81F46FFF7EEFF02A802F085FFA0B933
:10521000337D23B102F000FF274903F01EFCF32386
:10522000009337223D23A92108A809AD02F098FF79
:105230000FCD03AC0FC42B682370002240F2BD21B8
:105240001E4803F0E5FF002242F234311B4803F010
:10525000CDFD03AD1A4B08930FCD09AC0FC42B68DD
:105260001648237042F2343208A903F0EDFF58B912
:10527000337D23B102F0D0FE124903F0EEFB0F485C
:1052800003F000FE002014E0002FF1D0384605F0B6
:105290001EF939460246094803F002FE0028E7D00D
:1052A000064803F049FD0028E2D0044803F0EAFD77
:1052B00001200FB0F0BD00BFDCC90B00DCE403200F
:1052C00004D00B0068CA0B0013B51C20FEF7E3FEE8
:1052D000044648B1064B07491B6800930968064B12
:1052E00042F2343201F04CF8204602B010BD00BF4B
:1052F000B0E50320ACE50320A0CA0B0013B52020C5
:10530000FEF7C9FE044640B1054B06491B680093F1
:105310000968054B502200F041FA204602B010BD4A
:10532000B0E50320ACE50320A0CA0B0013B51C2098
:10533000FEF7B1FE044648B1064B07491B680093CF
:105340000968064B42F23432FFF736FF204602B0BE
:1053500010BD00BFB0E50320ACE50320A0CA0B00E0
:1053600013B51420FEF797FE044640B1054B0649DD
:105370001B680093002309681A46FFF701FF2046C7
:1053800002B010BDB0E50320ACE50320012A02D134
:10539000016000207047022A04BF0B680360F8E731
:1053A0000368184710B58368044613B10322014609
:1053B0009847204610BD000010B586B00022034675
:1053C000049221B10F4A05920F4A0291049202AA57
:1053D00092E803006C4684E8030093E8030082E847
:1053E000030094E8030083E803000499986804909C
:1053F0009960D8680599D96005901046FFF7D2FFEB
:1054000006B010BDA1530B008D530B0038B5846955
:105410000A4B036005467CB16368013B63605BB97E
:10542000236820469B689847A368013BA3601BB98B
:1054300023682046DB689847284638BDF4CE0B0029
:1054400010B50446FFF7E2FF20461C21FEF727FEB9
:10545000204610BD2DE9F04100F10801C2680B465D
:105460004AB1177C0678D2E90245B7422ABF1346F3
:105470002A462246F4E7994204D000781A7C9042EA
:1054800038BF0B46DA690AB904F05BF9BDE8F041B0
:105490001A6A03F114001047F8B58B6816460446E3
:1054A0000D1D012263B11D7C3278D3E90270954253
:1054B00088BF01221D4696BF00223B460346F1E706
:1054C00092B1CA68AA4203D1C4E900352046F8BDAA
:1054D000284604F0D9F83378027C9A424FF0000352
:1054E000F2D3C4E90003F1E72846F4E72DE9FF47CA
:1054F00000F10409856806460F464C464DB1287CEC
:105500003978D5E9023288422ABF2C4615461D4615
:10551000F4E7A14503D03A78237C9A422FD2242085
:10552000FEF7B9FD97F800A080F810A00023A14570
:105530008046C36100F1100226D173691BB137693F
:105540003B7C534509D3314602A8FFF7A5FFDDE9AF
:105550000247002F52D0002C4ED1B9454CD098F8BC
:1055600010003B7C98422CBF002001204B463A465D
:10557000414604F08BF8736901337361444604F1CA
:10558000140004B0BDE8F087237C0192534518D97C
:10559000F3689C4209D0204604F076F8037C019A17
:1055A000534505D2C36853B9044627461C46D0E785
:1055B000314602A8FFF770FFDDE90234F5E7234624
:1055C000F3E71BD23769BC420BD0204604F05AF8EF
:1055D000037C019A5345054605D9E36853B927462C
:1055E0001D462C46B5E7314602A8FFF755FFDDE919
:1055F0000257F6E70746F4E70120B7E708F1140081
:10560000FFF7D0FE40462421FEF749FDA046B5E74E
:105610002DE9F341051D0026174600F10802C0E9F7
:105620000362C0E9052604468846067203700DF140
:105630000701012328468DF80730FFF757FF164969
:10564000FFF7BAFE0DF1070128468DF80760FFF756
:105650004DFF1249FFF7B0FE02230DF10701284666
:105660008DF80730FFF742FF0D49FFF7A5FE032332
:105670000DF1070128468DF80730FFF737FF09497C
:10568000FFF79AFE084BC3F80080084B20461F60C6
:1056900002B0BDE8F08100BFC9520B00FD520B0003
:1056A0002D530B0061530B00ACE50320B0E5032044
:1056B00008B5054802F01EFB044802F01BFBBDE8DC
:1056C0000840034803F072BD90E5032028E503205D
:1056D00044E50320017570470022011DC0E9022145
:1056E000C0E904120271704770B506462DED028BB9
:1056F000142001F037FF0546142001F033FF044663
:10570000304604F0E4FE324600230238984214DDAD
:1057100012F8011B0D293AD111780A2937D1517895
:105720000D2934D191780A2931D10433F11814228A
:10573000284604F0E8FE00232B750A21284604F0D1
:1057400089FE064628B30A21013004F083FE00B327
:105750003146204604F095FE204604F0B8FE204471
:10576000002300F8013C204604F0EAFD51EC100B48
:1057700004F072FD08EE100A204601F0FBFE2846F8
:1057800001F0F8FEB0EE480ABDEC028B70BD0133AB
:10579000BCE79FED018AF5E75F42A2CD30B5074D2A
:1057A00005600025C0E901130575039B41F28835AA
:1057B00085610525C0E90332057730BDBCCC0B00FF
:1057C0002DE9F74FDFF88C80DFF88CA0DFF88CB084
:1057D00004460D461746002640465FFA86F902F059
:1057E00001F988BB237F4B452ED9237DCBB102F035
:1057F00013FC514603F01EF902F00EFC294603F09B
:1058000019F902F009FC594603F014F902F004FCFE
:105810000A224946019003F02AF9019B184603F039
:1058200010F90023BAB22946404602F05DF8237D04
:1058300023B102F0F1FB064903F00FF94FF47A703F
:1058400003F03EF80136C7E703B0BDE8F08F00BFB4
:10585000DECA0B00B4E50320B4CA0B00CACA0B00B1
:10586000F8B505460C4640F2BD220021204604F062
:105870007CFD2B7D4BB102F0CFFB144903F0EDF81A
:1058800002F0CAFB124903F0E8F8124E04F2BB27FB
:10589000304602F085F970B1304601F08FFF20707C
:1058A0002B7D2BB102F0B8FB036821789B689847E9
:1058B0000134A742ECD12B7D33B102F0ADFBBDE842
:1058C000F840054903F0C9B8F8BD00BF03CB0B0091
:1058D000EFCA0B00B4E5032002CB0B00F8B50E4F66
:1058E00004460026384602F05BF9054690B9A369E4
:1058F000B3420FDD012002F0E3FFA3690136B3429A
:10590000F0DC207D28B102F087FB044903F0A5F804
:105910002846F8BD0120FCE7B4E503200ECB0B00C0
:10592000F8B50F460269416804461D46FFF748FF77
:10593000784802F057F80646002800F0E1807649E2
:10594000744803F077F83946724803F073F87349E6
:10595000704803F06FF872496E4803F06BF86168A5
:105960006C4803F067F86F496A4803F063F86E49C2
:10597000684803F05FF8A168664803F05BF869497E
:10598000644803F057F86949624803F053F8E16846
:10599000604803F04FF863495E4803F04BF86449F0
:1059A0005C4803F047F863495A4803F043F8284637
:1059B00004F08DFD60490646564803F03BF80A2284
:1059C0003146544803F053F85C49524803F032F82A
:1059D0002946504803F02EF852494E4803F02AF861
:1059E0004C4801F005FF237D002B69D002F014FB29
:1059F000534903F032F802F00FFB474903F01AF85D
:105A000002F00AFB394603F015F802F005FB4349A2
:105A100003F010F802F000FB414903F00BF802F02C
:105A2000FBFA616803F006F802F0F6FA3D4903F06C
:105A300001F802F0F1FA3C4902F0FCFF02F0ECFA46
:105A4000A16802F0F7FF02F0E7FA364902F0F2FF30
:105A500002F0E2FA354902F0EDFF02F0DDFAE1680A
:105A600002F0E8FF02F0D8FA2E4902F0E3FF02F05C
:105A7000D3FA2F4902F0DEFF02F0CEFA2D4902F0F0
:105A8000D9FF02F0C9FA2C4902F0D4FF02F0C4FA9F
:105A90000A22314602F0EBFF02F0BEFA274902F07B
:105AA000C9FF02F0B9FA294602F0C4FF02F0B4FAC5
:105AB0001C4902F0BFFF02F0AFFA224902F0CDFF0D
:105AC0002046FFF70BFF237D2BB90124114802F07C
:105AD000C1F82046F8BD02F09FFA1B490D4D02F0B7
:105AE000BCFF284602F05CF80028EED0284601F002
:105AF00065FE044602F090FAE1B202F09FFFF0E783
:105B0000247D002CE2D002F087FA104902F0A5FFB4
:105B10003446DBE7B4E5032041CB0B0059CB0B0047
:105B200065CB0B0089CC0B006CCB0B0079CB0B0049
:105B300088CB0B009CCB0B00BDCB0B0087CC0B00A4
:105B4000CECB0B00EACB0B0008CC0B0024CC0B0017
:105B500070B52DED028B044600230E4615464168B4
:105B60006648502201F0C0FE204661685022FFF7CF
:105B700027FE624801F036FF002800F0B680604939
:105B80005E4802F057FF31465C4802F053FF5D4922
:105B90005A4802F04FFF2946584802F04BFF5A4935
:105BA000564802F047FF5949544802F043FF58490C
:105BB000524802F03FFF6168504802F03BFF5549F0
:105BC0004E4802F037FF54494C4802F033FFA168B9
:105BD0004A4802F02FFF4F49484802F02BFF4F4937
:105BE000464802F027FFE168444802F023FF494994
:105BF000424802F01FFF4A49404802F01BFF237D44
:105C0000002B4FD002F008FA3D4902F013FF02F0DA
:105C100003FA314602F00EFF02F0FEF9394902F0B4
:105C200009FF02F0F9F9294602F004FF02F0F4F945
:105C3000354902F0FFFE02F0EFF9344902F0FAFEB6
:105C400002F0EAF9324902F0F5FE02F0E5F9616886
:105C500002F0F0FE02F0E0F92E4902F0EBFE02F055
:105C6000DBF92D4902F0E6FE02F0D6F9A16802F058
:105C7000E1FE02F0D1F9274902F0DCFE02F0CCF996
:105C8000264902F0D7FE02F0C7F9E16802F0D2FE21
:105C900002F0C2F91F4902F0CDFE02F0BDF9204921
:105CA00002F0C8FE2046FFF719FE48B913489FEDE1
:105CB0001D8A01F0CFFFB0EE480ABDEC028B70BD2B
:105CC0004FF42F7001F04EFC014605462046FFF7C9
:105CD000C7FD2846FFF708FD0848B0EE408A01F0EE
:105CE000B9FF284601F046FCE5E7237D002BDDD017
:105CF00002F092F90C4902F0B0FED7E7B4E50320B8
:105D00004ECC0B0063CC0B0065CC0B0059CB0B00C9
:105D100065CB0B0089CC0B006CCB0B0079CB0B0057
:105D200069CC0B005F42A2CD8CCC0B00014801F086
:105D3000E1BF00BFB4E5032073B5037204465020F1
:105D4000CDE900211E4601F00DFC60601420FEF735
:105D5000A2F9054620B1DDE90021334600F061F8E3
:105D6000256002B070BD000038B50025044613461A
:105D700045728572024AFFF7DFFF204638BD00BF3B
:105D8000CCCC0B00006800F055B807B50023009399
:105D90001A46FFF7F7FF03B05DF804FB006800F058
:105DA00069BA38B5044684B1E068FFF7FAFFE369E1
:105DB000A56823B104F11401032208469847204640
:105DC0002421FEF76CF92C46EDE738BDF0B58DB017
:105DD000044601A80D4617461E4601F0CDFA039869
:105DE0000130FEF75AF90199206004F04AFB2A4677
:105DF00039463346E67405A8FFF70AFCC82001F0CF
:105E0000B1FBE06005A8FFF725FB0023C4E901050D
:105E100023740898FFF7C5FF01A802F07FFE0DB0BC
:105E2000F0BD38B5002504460582FFF7CFFF2046B8
:105E300038BD000038B504460120607494F91000A4
:105E4000E56800EB800045F8201094F91010E06838
:105E500001EB810100EB810181ED020A94F9101040
:105E6000E06801EB810100EB81014A6094F91020A8
:105E7000E16802EB820201EB8202D36094F91030F8
:105E8000E26803EB830302EB8303049A1A61237C29
:105E900001335BB20A2B237408DDA37C23B102F02B
:105EA000BBF8034902F0D9FD0A23237438BD00BFB3
:105EB000E7CC0B0010B510EE100A86B00C4603F0CC
:105EC000B9FE02460B4601A80A4901F063FB01A88E
:105ED0001422002310F8011B202906D0E1540133BD
:105EE000DBB211B9E15406B010BD013A12F0FF0265
:105EF000F0D1F8E726CD0B002DE9F04F0C4689B024
:105F00004D49DFF85881DFF85891DFF858A1054670
:105F1000204604F0B6FA002695F910309E4269DA60
:105F2000EB6806EB860B03EB8B0393ED020A03A9E8
:105F30002846FFF7BFFFEB6803A9009153F82B3009
:105F400022464146204601F025FBEB684FEA8B07CD
:105F50003B44DB683BB349462246204601F01AFB2E
:105F6000EB683B441969002937D00A20642291FB71
:105F7000F0FC91FBF2F200FB1C119CFBF0F392FB96
:105F8000F0FE00FB13C300FB1E22C9B20091DBB27E
:105F90002A49D2B202A801F0FDFA294902AB2246F1
:105FA000204601F0F7FAEB683B445B6823B12549D2
:105FB0002246204601F0EEFA22462349204601F00F
:105FC000E9FA013695F91030F6B29E4222460ADA15
:105FD0001E49204601F0DEFA9EE722465146204641
:105FE00001F0D8FADFE71849204601F0D3FA002380
:105FF0002B7491E7AB7CDBB102F00EF8144902F090
:106000002CFD02F009F8134902F027FD02F004F814
:10601000214602F022FD01F0FFFF0D4902F01DFDB7
:1060200001F0FAFF0C4909B0BDE8F04F02F015BDD0
:1060300009B0BDE8F08F00BF2BCD0B0053CD0B0096
:106040005ACD0B0065CD0B0074CD0B0078CD0B0045
:1060500003CB0B007CCD0B008BCC0B002DCD0B00AC
:1060600040CD0B005FCD0B002DE9F04F0C460546EF
:1060700089B05349DFF87881DFF8789120461646D9
:106080001F4604F0FEF9AB684E4A4F49204601F026
:1060900081FA33464D4900972246204601F07AFAAC
:1060A0004B494A4F2246204601F074FA002695F9E2
:1060B00010309E4263DAEB6806EB860B03EB8B0332
:1060C00093ED020A03A92846FFF7F4FEEB6803A943
:1060D000009153F82B3022463946204601F05AFAF7
:1060E000EB684FEA8B0A53445B6823B12246414672
:1060F000204601F04FFAEB685344DB6833B349465E
:106100002246204601F046FAEB685344196949B328
:106110000A20642291FBF0FC91FBF2F200FB1C11BF
:106120009CFBF0F392FBF0FE00FB13C300FB1E226E
:10613000C9B20091DBB22749D2B202A801F02AFA13
:10614000254902AB2246204601F024FA95F9103089
:106150000136F6B29E4222460ADA2049204601F074
:1061600019FAA4E71E492246204601F013FAEDE78A
:106170001C49204601F00EFA00232B7497E7AB7CF4
:10618000DBB101F049FF184902F067FC01F044FF60
:10619000164902F062FC01F03FFF214602F05DFC6F
:1061A00001F03AFF104902F058FC01F035FF0449B4
:1061B00009B0BDE8F04F02F050BC09B0BDE8F08F67
:1061C0008BCC0B00A0CA0B0085CD0B0091CD0B0032
:1061D00099CD0B0053CD0B005ACD0B0078CD0B00A1
:1061E0005FCD0B00ABCD0B0003CB0B007CCD0B00C8
:1061F0009ECD0B00A4CD0B002DE9F74304464FF4D0
:106200002F701E460F46904601F0ACF9E37C013B2F
:10621000012B054626D8014643463A462046FFF75D
:1062200023FFA37C23B101F0F7FE114902F015FC16
:10623000606803680096D3F8009039462B464246C2
:10624000C8470746284601F095F91EB1012130469E
:10625000FDF725FF002307B163743846237403B0AC
:10626000BDE8F08301462046FFF746FED9E700BFB0
:10627000B2CD0B0070B5044601200D461646FDF761
:106280000AFF067003462A4629462046BDE87040AC
:10629000FFF7B2BF2DE9F0470446182015460F4618
:1062A000FDF7F9FE07F1040A6B68D5F80090BA68AB
:1062B00043610646C0F810905546012352B1136958
:1062C000D2E902014B451546CBBF0123002302460C
:1062D0000A46F3E7ABB1FB68AB4224D0284603F093
:1062E000D3F98046D8F810304B451CDB18213046D6
:1062F000FDF7D5FEC4F80080002323712046BDE8D9
:10630000F087A846EEE728698145ACBF0020012050
:1063100053462A46314603F0B9F97B6926600133BA
:106320007B610123E9E7AA45EDD10120F0E70000F8
:1063300008B5074B074800221A7001F0DBFC06483D
:1063400001F0D8FCBDE80840044802F02FBF00BFB0
:1063500054E6032038E60320D0E50320ECE50320D3
:106360000175704738B504464CB1E068FFF7FAFF95
:10637000A56820461821FDF792FE2C46F4E738BDAB
:1063800030B5064D0560C0E901130025039B057576
:1063900041F28835C0E90332856130BD5CCE0B0027
:1063A0002DE9F84F0D461746804601F035FE1E498F
:1063B0001E4EDFF87CA0DFF87CB002F04EFB00241C
:1063C000304601F05EFC60BB052C2AD098F81430F2
:1063D000C3B101F021FE514602F02CFB01F01CFE7E
:1063E000294602F027FB01F017FE594602F022FB76
:1063F00001F012FE0A228146214602F038FB48468F
:1064000002F01FFB304601F025FC0023BAB22946FA
:10641000304601F069FA4FF47A7002F051FA013413
:10642000CEE7BDE8F88F00BFC2CD0B0058E60320D1
:10643000B4CA0B00CACA0B0070B504460E46816888
:106440002E48154602F0F6FA2D492C4802F0F2FAD1
:10645000E1682A4802F0EEFA2A49284802F0EAFAEE
:106460003146264802F0E6FA2749244802F0E2FACB
:106470002946224802F0DEFA2449204802F0DAFADE
:10648000237D002B38D001F0C7FD214902F0E5FA49
:1064900001F0C2FD1F4902F0E0FA01F0BDFDA16864
:1064A00002F0C8FA01F0B8FD154902F0C3FA01F094
:1064B000B3FDE16802F0BEFA01F0AEFD114902F051
:1064C000B9FA01F0A9FD314602F0B4FA01F0A4FDD9
:1064D0000D4902F0AFFA01F09FFD294602F0AAFA39
:1064E00001F09AFD094902F0A5FA01F095FDBDE819
:1064F0007040094902F0B1BA70BD00BF58E60320F0
:10650000DACD0B00DDCD0B0083CD0B00ADCD0B0044
:10651000F5CD0B00DFCD0B00F4CD0B00F8B50E4F21
:1065200004460026384601F03BFB054690B9A369B6
:10653000B3420FDD012002F0C3F9A3690136B34273
:10654000F0DC207D28B101F067FD044902F085FAF6
:106550002846F8BD0120FCE758E603200ECB0B00CF
:106560002DE9F047037D0646884614464BB101F0FD
:1065700053FD274902F071FA01F04EFD254902F062
:106580006CFADFF8A490002540F2BB2A484601F0DF
:1065900007FB78B1484601F011F9337DC7B22BB142
:1065A00001F03AFD036839469B6898476755013505
:1065B0005545EBD1337D23B101F02EFD164902F094
:1065C0004CFA002363551549404603F050FF68B963
:1065D0001349204603F0AAFF9FED120A0028F7EEA8
:1065E000007A18BFB0EE670ABDE8F0877C2120462C
:1065F00003F030FF48B1013003F0A2FE51EC100B64
:1066000003F02AFE00EE100AEEE79FED060AEBE724
:1066100003CB0B00EFCA0B0002CB0B00FACD0B0033
:10662000FFCD0B005F42A2CD58E6032070B52DEDE3
:10663000028B04464168224842F234321D46002350
:1066400001F052F92046616842F23432FFF7A8FEA9
:106650001B4801F0C7F980B12946194802F0EAF950
:106660002046FFF75BFF054680B9154801F0F2FAB6
:106670000025BDEC028B284670BD237D002BF4D095
:1066800001F0CAFC0F4902F0E8F9EEE7642000F0DF
:1066900069FF0D49024606462046FFF761FF304676
:1066A000B0EE408A00F066FFDFED087AB4EE678A4C
:1066B000F1EE10FAD9D0024801F0CCFAD9E700BFC8
:1066C00058E6032002CE0B00FACD0B005F42A2CDAC
:1066D00070B52DED028B044600230D461646416829
:1066E0001E4842F2343201F0FFF82046616842F25F
:1066F0003432FFF755FE194801F074F928B32046EB
:1067000032462946FFF798FE2046FFF707FF48B9B3
:1067100012489FED138A01F09DFAB0EE480ABDECD5
:10672000028B70BD4FF42F7000F01CFF0D49024624
:1067300005462046FFF714FF0848B0EE408A01F0F6
:1067400089FA284600F016FFE7E7237D002BDFD00B
:1067500001F062FC044902F080F9D9E758E6032011
:106760005F42A2CD20CE0B0023CE0B002DE9FF47C8
:106770000D4604464FF42F7000F0F4FE2B7D0746C3
:106780004BB101F049FC3A4902F067F901F044FCD1
:10679000384902F062F9DFF8F090002640F2BB2A97
:1067A000484601F0FDF988B1484601F007F82B7D15
:1067B0005FFA80F82BB101F02FFC036841469B681B
:1067C000984707F8068001365645E9D12B7D23B15D
:1067D00001F022FC284902F040F90025231DC4E9FC
:1067E0000253C4E90435254925713846BD5504F0E6
:1067F000E1FCDFF89890DFF898A0DFF8808006468B
:106800007EB34946304603F032FE00BB414604F0F9
:10681000D1FC1B49064603F02AFE18B9194B009516
:10682000019308E0304603F08BFD51EC100B00950E
:1068300003F012FD01906A46214602A8FFF72AFDE7
:106840004146002004F0B6FC01350646D8E7514623
:10685000304603F00CFE0028F2D1414604F0AAFCB9
:10686000DCE7384600F086FE204604B0BDE8F0873D
:1068700003CB0B00EFCA0B0002CB0B00DDCD0B00EE
:1068800049CE0B005F42A2CD58E60320FFCD0B009E
:106890004ECE0B002DE9F041071D98460023C0E9BC
:1068A0000237C0E9047303710D4688B04968044695
:1068B00016462D4842F2343201F016F8284669682F
:1068C00042F23432FFF76CFD274801F08BF810B329
:1068D000314642462846FFF7AFFD2846FFF71EFE29
:1068E0000646C0B92048214F01F0B4F9204940467E
:1068F00004F060FC35461E4E002830D0214602A828
:106900006A4600950197FFF7C5FC31460020013526
:1069100004F050FCF0E7294602A8FFF727FFA06823
:10692000FFF720FD049A0023C4E90237C4E9047389
:106930007AB19DF80C1021710599E1600699A26069
:1069400021615760079A626103AACDE90522049389
:1069500007930498FFF706FD034801F07BF92046F2
:1069600008B0BDE8F08100BF58E603205F42A2CD29
:106970007ACD0B00014801F0BDB900BF58E60320F5
:1069800070B50446054B44F8043B0D1D06460FCD7B
:106990000FC42B682370304670BD00BF04D00B00BD
:1069A00038B5044698300D4601F096FB4FF0FF33A2
:1069B000C4F8BC3000232560C4F8B830204638BD88
:1069C0002DE9F04105460E4600F03CFC43F69728C1
:1069D0000746286803681B699847044630B900F0E9
:1069E00031FCC31B4345F4D9204605E02868036801
:1069F0005B69984730700120BDE8F08138B5158893
:106A000029441446FFF7DCFF08B10135258038BD65
:106A10002DE9F743051D884600270DF1060229469A
:106A20000446ADF80670FFF7E9FF18B9002003B07F
:106A3000BDE8F08394F804908DF8057001260DF1FF
:106A400005012046FFF7BCFF0028EFD0BDF8062067
:106A50009DF80510531C22449BB2117101F07F0276
:106A600012FB06F217440A06ADF80630BFB24FEA31
:106A7000C616E4D409F0F009013BB9F1300F88F8EB
:106A800000301ED10DF1060229462046FFF7B6FF61
:106A90000028CBD00DF1060229462046FFF7AEFFB5
:106AA0000028C3D098F8003023445A799E7923797E
:106AB00006EB02269B07B6B201D50236B6B2022516
:106AC00001E000252E46ADB2BD4226D20DF10501F2
:106AD0002046FFF775FF0028A8D0D4F8B80078B199
:106AE000B9F1300F0CD1BDF8063098F800209B1A90
:106AF000023BB34204DD03689DF805109B6898478C
:106B0000BDF806307F2B9EBFE2189DF8051011716D
:106B10000133ADF806300135D5E7D4F8B8302BB9DC
:106B2000BDF80620802A88BFADF80630BDF8060003
:106B30007DE72DE9F34115461E461A460746002318
:106B4000964602A802F07F0CBEF17F0F03F101040C
:106B5000034488BF4CF0800CBEF17F0F4FEAD21285
:106B6000E4B203F804CC20D8C4F10403C4F1050056
:106B7000E954224601A9284405EB030803F0E7FB8A
:106B800038680368721C2244DB6841469847054612
:106B900000F058FB621CC7F888003244A8B2131AF0
:106BA0005842584102B0BDE8F0812346C8E702339D
:106BB000F0B501399CB200235E1C14FA83F08F5D9E
:106BC0009DB280B217B117543346F5E799B2411A16
:106BD0000A44290A02F8021C02F8013CF0BD38B54B
:106BE0000446006808B9002038BD03681B6B98474D
:106BF00080B9D4F8BC50002DF5D120686FF00203A5
:106C0000C4F8BC300368DB69984720680368DB6A16
:106C10009847E8E70120E7E72DE9F04F8BB00446FD
:106C2000DDF85080894617461E46FFF7D8FF054617
:106C3000002840F0A580D4F800A0D4F8B010DAF80D
:106C40000030002979D0B4F8B420D3F824B003463A
:106C50005046D847012840F09A804F4BA4F8840052
:106C60009A88ADF814201868BDF814209B79049018
:106C70008DF81630C4F80900A4F80D20E373B8F1BC
:106C8000000F66D09DF858309DF854205B0143EA10
:106C9000C20343F00603DBB21FB1002E5BD143F009
:106CA00080032374002363740F23221DA3744946B9
:106CB00020460192FFF77BFF019A0346B8F1000FCF
:106CC0000BD041462046FFF772FF019A1799034601
:106CD0002046FFF76CFF019A03466FB13946204604
:106CE0000192FFF764FF019A03462EB13146204618
:106CF000FFF75DFF019A0346053B9BB2102120463A
:106D0000FFF717FF00F09EFAC4E9220043F697262A
:106D1000206803681B69984700BB00F093FAD4F819
:106D20008C30C01AB042F3D96FF00303C4F8BC3002
:106D300020680368DB6A984722E004F1980104A800
:106D4000D3F820B0FFF71CFEB4F8B4202B4604A9FA
:106D50007EE70223A0E743F0C003A2E70DF10F0195
:106D60002046FFF755FE0428E2D1E67966B900F027
:106D700069FA0125C4F88C0084F89060C4F8BC60FE
:106D800028460BB0BDE8F08FC4F8BC60D0E76FF0C8
:106D90000103C4F8BC30F3E76CCE0B001FB5002430
:106DA000CDE90244CDE90044FFF736FF04B010BD41
:106DB0002DE9F04F85B000AF0446FFF710FF814684
:106DC000D8B100F03FFAD4F88C3043F69822C31AB9
:106DD0009342804604D8D4F88830C31A93421ED90F
:106DE00094F8903020686BB16FF00303C4F8BC30A6
:106DF0000368DB6A98474FF0000948461437BD46E0
:106E0000BDE8F08F2146C02321F8043F0368022229
:106E1000DB689847C4E92288012384F89030206811
:106E200003681B6998470028E7D007F10F01204647
:106E3000FFF7EEFD05460028DFD023797B6003F0E5
:106E4000F003302BC4F88C804DD1D4F894A0BAF163
:106E5000000FD2D0FE7BA319EB4659799A7902EB49
:106E6000012292B202F10803DB08ABEBC3039D469B
:106E7000F11D214468463A6003F069FA79683A687E
:106E800001F00601A81B00230338022906F10301C3
:106E90000DF80230A0EB020004F1040311441DD1EF
:106EA00021447B6091F804C04D79711D05EB0C25E0
:106EB00011441944821EADB26846D0476DBA2068AD
:106EC000E5804FF41072A28002687B68D56819468D
:106ED0000422A847C4F88880DD468EE7024619449C
:106EE0006846D047F8E7C02B09D1D0232146A380BC
:106EF00051F8040B03680222DB6898477DE7D02B2A
:106F000004BF002384F8903077E72DE9F34104466D
:106F10009DF82070884616461D46FFF760FE38B380
:106F2000404603F0D4FAEB1D1844802820D8221DD7
:106F30000523414620460192FFF739FE019A0023BE
:106F4000C1189D4289B207D9214416F803C081F8BF
:106F500004C001339BB2F3E74B1F002F9BB20CBF61
:106F600030213121204602B0BDE8F041FFF7E1BDFC
:106F7000002002B0BDE8F0811FB504461046039121
:106F8000029203F0A4FA034600200090DDE90221FA
:106F90002046FFF7BAFF04B010BDC0F8B010A0F84B
:106FA000B420704708B5024B1B681B68019308BDED
:106FB0004C02030008B5024B1B685B68019308BDD7
:106FC0004C02030008B5024B1B681B69019308BD06
:106FD0004C02030008B5024B1B685B69019308BDB6
:106FE0004C02030008B5024B1B689B69019308BD66
:106FF0004C02030008B5024B1B68DB69019308BD16
:107000004C02030008B5024B1B681B6A019308BDC4
:107010004C02030008B5024B1B681B6A019308BDB4
:107020002802030008B5024B1B685B6A019308BD88
:107030002802030008B5024B1B689B6A019308BD38
:107040002802030008B5024B1B68DB6A019308BDE8
:107050002802030008B5024B1B681B6B019308BD97
:107060002802030008B5024B1B685B6B019308BD47
:107070002802030008B5024B1B681B6C019308BD76
:107080002802030008B5024B1B689B6C019308BDE6
:107090002802030008B5024B1B68DB69019308BD99
:1070A0003002030008B5024B1B681B6A019308BD40
:1070B0003002030008B5024B1B685B68019308BDF2
:1070C0003802030008B5024B1B689B69019308BD99
:1070D0003802030008B5024B1B68DB69019308BD49
:1070E0003802030008B5024B1B681B6A019308BDF8
:1070F0003802030008B5024B1B689B6A019308BD68
:107100003802030008B5024B1B68DB6A019308BD17
:107110003802030008B5024B1B681B6B019308BDC6
:107120003802030008B5024B1B685B6B019308BD76
:107130003802030008B5024B1B689B6B019308BD26
:107140003802030008B5024B1B68DB68019308BDD9
:107150003C02030008B5024B1B681B69019308BD84
:107160003C02030008B5024B1B685B69019308BD34
:107170003C02030008B5024B1B689B69019308BDE4
:107180003C02030008B5024B1B68DB69019308BD94
:107190003C02030008B5024B1B681B6A019308BD43
:1071A0003C02030008B5024B1B689B6A019308BDB3
:1071B0003C02030008B5024B1B68DB6A019308BD63
:1071C0003C02030008B5024B1B681B6C019308BD11
:1071D0003C02030008B5024B1B685B69019308BDC4
:1071E0006402030008B5024B1B681B6A019308BDCB
:1071F0006402030008B5024B1B685B6A019308BD7B
:107200006402030008B5024B1B689B6A019308BD2A
:107210006402030008B5024B1B685B6C019308BD58
:107220004802030008B5024B1B685B68019308BD68
:107230001802030008B5024B1B68DB68019308BD08
:107240001802030008B5024B1B685B69019308BD77
:107250001802030008B5024B1B689B6D019308BD23
:107260001802030008B5024B1B68DB6D019308BDD3
:107270001802030008B5024B1B685B6E019308BD42
:107280001802030008B5024B1B685B69019308BD37
:107290006C02030008B5024B1B689B68019308BD94
:1072A0002C02030008B5024B1B68DB68019308BD84
:1072B0002C02030008B5024B1B681B69019308BD33
:1072C0002C02030008B5024B1B689B68019308BDA4
:1072D0006802030008B5024B1B68DB68019308BD18
:1072E0006802030008B5024B1B681B69019308BDC7
:1072F0006002030008B5024B1B689B69019308BD3F
:107300006002030008B5024B1B68DB69019308BDEE
:107310006002030008B5024B1B685B6B019308BD5C
:107320006002030008B5024B1B681B6D019308BD8A
:107330006002030008B5034B1B68D3F89830019333
:1073400008BD00006002030008B5024B1B689B6883
:10735000019308BD4402030008B5024B1B68DB68BB
:10736000019308BD4402030008B5024B1B685B692A
:10737000019308BD4402030008B5024B1B68DB699A
:10738000019308BD4402030008B5024B1B681B6A49
:10739000019308BD4402030008B5024B1B68DB6A79
:1073A000019308BD4402030008B5024B1B681B6B28
:1073B000019308BD4402030008B5024B1B689B6B98
:1073C000019308BD4402030008B5024B1B68DB6B48
:1073D000019308BD4402030008B5024B1B681B6CF7
:1073E000019308BD4402030008B5024B1B685B68AB
:1073F000019308BD4002030008B5024B1B689B685F
:10740000019308BD4002030008B5024B1B68DB680E
:10741000019308BD4002030008B5024B1B681B69BD
:10742000019308BD4002030008B5024B1B685B696D
:10743000019308BD4002030008B5024B1B689B691D
:10744000019308BD4002030008B5024B1B68DB69CD
:10745000019308BD4002030008B5024B1B681B6A7C
:10746000019308BD4002030008B5024B1B681B6B6B
:10747000019308BD4002030008B5024B1B685B6B1B
:10748000019308BD4002030008B5024B1B681B6C4A
:10749000019308BD4002030008B5024B1B685B6CFA
:1074A000019308BD4002030008B5024B1B681B682E
:1074B000019308BD2002030008B5024B1B685B68FE
:1074C000019308BD2002030008B5024B1B685B69ED
:1074D000019308BD2002030008B5024B1B689B6B9B
:1074E000019308BD2002030008B5024B1B68DB6B4B
:1074F000019308BD2002030008B5024B1B68DB6C3A
:10750000019308BD2002030008B5024B1B685B6DA8
:10751000019308BD2002030008B5024B1B689B6D58
:10752000019308BD2002030008B5034B1B68D3F884
:107530008830019308BD00002002030008B5034B0A
:107540001B68D3F89430019308BD000020020300AB
:1075500008B5034B1B68D3F8B030019308BD000099
:107560002002030008B5024B1B681B68019308BD8D
:107570001C02030008B5024B1B685B68019308BD41
:107580001C02030008B5024B1B689B68019308BDF1
:107590001C02030008B5024B1B68DB68019308BDA1
:1075A0001C02030008B5024B1B68DB69019308BD90
:1075B0001C02030008B5024B1B685B6A019308BDFF
:1075C0001C02030008B5024B1B68DB6A019308BD6F
:1075D0001C02030008B5024B1B681B6B019308BD1E
:1075E0001C02030008B5024B1B68DB6B019308BD4E
:1075F0001C02030008B5024B1B681B6C019308BDFD
:107600001C02030008B5024B1B685B6C019308BDAC
:107610001C020300002340681A46FFF7E5BE4068DD
:1076200000220221FFF7F0BE002240681146FFF75A
:10763000E3BE002240681146FFF7EEBE002340681B
:107640001A461946FFF7F0BE002340681A4619464D
:10765000FFF7F2BE40680021FFF716BF4068002127
:10766000FFF71ABF4068002281F00101FFF7ECBE6E
:1076700040680022FFF7F8BE002240681146FFF77D
:10768000FBBE002240681146FFF7E6BE2DE9F0433D
:1076900095B014460D46074600F01EFD00211C2241
:1076A0000DA8009102F061FE40230C9320466B462A
:1076B0000CAA0021FFF70EFE044600284BD102461B
:1076C00001216868FFF7A8FE02218046224668680B
:1076D000FFF7A2FE009E81462146002E3BD00029E6
:1076E00039D17368022B03D00A2B11D0F669F4E765
:1076F000B8F1000FFAD0716906A8043107AD00F0A7
:107700003BFD0FCD3C1D0FC42B6823704146EDE7B8
:10771000B9F1000FEAD07469102201A802F025FE29
:1077200006238DF8143001AD04F1080318341868ED
:1077300059682A4603C20833A3421546F7D101A966
:1077400006A807AD00F0D6FC0FCD3C1D0FC42B687A
:1077500023704946CAE70098FFF7B4FD384615B0D4
:10776000BDE8F083024B034A1A6000225A6070475A
:1077700074E603207CCE0B0013B503688DF8071068
:10778000DC6B01224FF0FF330DF10701A04702B07F
:1077900010BD10B40368DC6B4FF0FF33A4465DF8F6
:1077A000044B604713B5134602688DF80710D46B7D
:1077B0000DF107010122A04702B010BD10B54369C9
:1077C000B3F88620B3F884309A42044608D063693F
:1077D000B3F88420511CA3F884101344187910BD09
:1077E00003681B6998470028F1D14FF0FF30F6E796
:1077F000704743691868C043C00F70477047000066
:10780000064B994210B500F10C0405D0084601F072
:107810009BFF002808BF0024204610BDE4CE0B00CB
:1078200010B5AC210446FCF73AFC204610BDAC2153
:10783000FCF735BC2DE9F0414FF0000886B01C463E
:10784000C0F8048005460E4617464146102202A89D
:1078500002F08BFD631C09D04FF47A73B4FBF3F292
:1078600003FB1244CDE902285C43049468691023A9
:107870000093006802AB41F2050240F6FF71FFF78A
:1078800021FC002807DAFFF7ADFE03686B600020DB
:1078900006B0BDE8F0816869002300683A463146C9
:1078A000FFF738FC031EEEDB1846F1E730B587B072
:1078B000044601AD684600F05FFC0FCD04340FC4F0
:1078C0002B68237007B030BD70B54D69054B044679
:1078D0008C3544F8043B06460FCD0FC42B6823704B
:1078E000304670BD04D00B002DE9F0439846036884
:1078F00093B00D460024DB6A064617469847284693
:107900006B46224621460094FFF7E4FC054600281A
:1079100063D1009B002B4BD05B69002B48D006A89D
:1079200000F0DAFB009B5C696378022B04D1211D17
:1079300006A8FFF7BBFF26E00A2B24D11122294617
:1079400001A802F012FDA368002B38D004F108034F
:107950000DF1040C183418685968624603C20833E4
:10796000A3429446F7D1062301A90CA88DF8143040
:1079700000F0C0FB0DF1340CBCE80F0007AC0FC4E5
:10798000DCF80030237006A800F0C6FB80B1336835
:1079900007ADD3F82090124B0C930FCD0DAC0FC454
:1079A0002B6823703A4643460CA93046C847054623
:1079B0000098FFF787FC284613B0BDE8F083E36822
:1079C000002BC3D14FF6FF70D4F81090FFF70AFCDC
:1079D0008145BBD104F11401AAE72546E8E700BFC1
:1079E00004D00B0038B543691A68002A054610DA3E
:1079F000B3F88620B3F884309A420AD103681B6931
:107A00009847044628B92B682846DB6A98472046E1
:107A100038BD0120FCE710B54369B3F88620B3F800
:107A200084309A42044605D06369B3F88420134435
:107A3000187910BD03681B6998470028F4D14FF0EE
:107A4000FF30F6E7F8B543691746B3F88620B3F878
:107A500084309A4205460E4616D06969B1F88430E2
:107A6000B1F88640E41ABC4228BF3C4604332246A3
:107A70001944304602F06BFC6A69B2F88430234442
:107A8000A2F884302046F8BD03681B699847002897
:107A9000E3D14FF0FF34F5E742690023A2F88430C8
:107AA0004269A2F8863070472DE9F0411F4603680D
:107AB0000C46DB6A8AB0054616469847237DD5F802
:107AC0001480042B0CBF02200A2006220121FFF79C
:107AD00031FBC8F800006B691B68002B08DA2B68C3
:107AE0002846DB6A0024984720460AB0BDE8F081AA
:107AF0002846FFF7D1FFB7B1002303A9F8B20393DB
:107B0000ADF81030FFF7BEFB0028E8D16869062306
:107B10000093006803AB41F20B0240F6FF71FFF7E0
:107B2000D1FA0028DBD11C22002103A802F01DFCA1
:107B3000237D042B1DD14FF407733046ADF80C3074
:107B4000FFF760FBADF80E006068FFF74BFB049099
:107B50006B691C22186803A9FFF7C4FA0028BED17C
:107B600004340FCC6D698C350FC523682B7001244C
:107B7000BAE740F61C233046ADF80C30FFF742FB65
:107B800005AEADF80E00231D04F1140718685968FE
:107B9000324603C20833BB421646F7D1D8E700008D
:107BA00030B54269B2F886308BB004462BB1B2F8DA
:107BB00084209A4201D1FFF76FFF616908680028AD
:107BC00018DBB1F886507F2D14D804310823C5F195
:107BD00080022944FFF78EFA002813DD6369B3F8A9
:107BE00086200AB9A3F884206369B3F8862010447C
:107BF000A3F886006369B3F88600B3F88430C01A2E
:107C00000BB030BDFFF7EEFC03680B2BF2D0FFF793
:107C1000E9FC03680B2BEDD020230025CDE90235CC
:107C2000FFF7E0FC03680193084B0949009302AA9F
:107C30002B463220FFF776FB63691868FFF74AFA94
:107C400063694FF0FF321A60D4E700BFB7CE0B0074
:107C5000B0CE0B0010B5436904461868002801DB5C
:107C6000FFF738FA63694FF0FF321A60606911223A
:107C700000218C3002F079FB2046BDE81040FFF770
:107C80000BBF43691868C043C00F704710B500238D
:107C900004460160C0F88430883000F01DFA2046A8
:107CA00010BD000073B500234FF47A72C0E90132B1
:107CB0000E4A0361026043610446AC200191FCF767
:107CC000EAF9051E05F10C0608D00123C5E90133C8
:107CD000074B01992B603046FFF7D8FF2046C4E9D7
:107CE0000565FFF7D9FE02B070BD00BFF4CE0B00F2
:107CF000D0CE0B0010B54FF0FF310446FFF7D2FF96
:107D0000204610BD10B504460068002801DBFFF7CF
:107D1000E1F9204610BD0C30FFF7F4BF10B5044662
:107D200008462170FFF7B6F900236360204610BDB6
:107D300010B5044628B102F04FFB90FBF4F303FBAF
:107D40001404204610BD884210B5044603DA081A10
:107D5000FFF7EEFF0444204610BD7047F8B5064615
:107D600015460C468F18BC4206D0336814F8011B28
:107D70009B6830469847F6E72846F8BD007C00220D
:107D8000FFF748B9007C0021FFF74CB9007C0021C7
:107D9000FFF750B9007C0021FFF754B9007C0021A7
:107DA000FFF758B910B514210446FCF778F92046BE
:107DB00010BD000010B54FF47A7304460846002148
:107DC000C4E90113034B236020741146FFF752F9F5
:107DD000204610BD40CF0B0008B50021007CFFF706
:107DE00051F9B0FA80F0400908BD10B58368044627
:107DF0000BB901F0A6FCC3689847A3681BB1032226
:107E000021462046984720461021BDE81040FCF747
:107E100046B970474174704708B5007CFFF7C2F956
:107E200020EAE07008BD08B5007CFFF793F920EA6E
:107E3000E07008BD08B5007CFFF79CF940EAE070EF
:107E400008BD08B5007CFFF78DF940EAE07008BD79
:107E5000007CFFF797B937B5457C04462DB1207CEF
:107E600003B0BDE83040FFF76DB9007C0191FFF72A
:107E700099F900280199F2DC284603B030BD10B50D
:107E800014210446FCF70BF9204610BD10B54FF441
:107E90007A730446084611460022C4E90123044BC4
:107EA0002360012320746374FFF78CF9204610BD12
:107EB00068CF0B00007C0023FFF77CB90022FFF79E
:107EC000F9BF002240681146FFF7A6BA00224068B9
:107ED0001146FFF7C1BA002240681146FFF7CCBA3D
:107EE00040680022FFF7C0BA4068002281F001011B
:107EF000FFF7AABA002340681A461946FFF79CBA52
:107F0000002340681A461946FFF78EBA00224068DF
:107F10001146FFF771BA406800220221FFF774BAD8
:107F2000002340681A46FFF75FBA0000084B10B5FF
:107F3000282422461846002102F017FA054B048037
:107F40004FF0FF32426004225A60034A1A6010BDAB
:107F500084E603207CE6032098CF0B004174704731
:107F60007047704708B50021007CFFF73BF840EAF6
:107F7000E07008BD08B50121007CFFF733F840EA46
:107F8000E07008BD08B5007CFFF724F820EAE07037
:107F900008BD08B5007CFFF715F820EAE07008BDC1
:107FA00013B50446007C0191FFF714F800280199ED
:107FB00001DC607C20B1207CFFF71CF820EAE07037
:107FC00002B010BD007CFFF71DB810B514210446A7
:107FD000FCF765F8204610BD10B54FF47A730446DF
:107FE00008460021C4E90113044B236001232074D7
:107FF00063741146FEF7D6FF204610BDD4CF0B00A8
:10800000007C0022FEF7D6BF10B5142204460021E2
:1080100002F0ABF9204610BD10B50F4C88B003A894
:10802000FFF7F2FF2178BFF35B8F11F001010FD151
:1080300020460191FCF735F8019948B103AA074899
:10804000FFF7CAFF2046FCF731F8054802F072F945
:10805000024808B010BD00BFACE60320B0E6032024
:10806000617F0B00704710B518210446FCF717F824
:10807000204610BDF0B5037D062B8DB00E4600F1F5
:1080800004074FF0000412D000F1080515F8011D97
:108090000A22304600F0EBFCAF42044419D0002C19
:1080A000F4D02E21304600F0C9FC0444EEE72F2323
:1080B0006A4639460A208DF80040FFF78BF868467B
:1080C00002F005FA33680246DB6869463046984795
:1080D000044620460DB0F0BD10B5054B04461122F4
:1080E00040F8043B002102F040F9204610BD00BFDB
:1080F00004D00B000346074A10B543F8042B01F1E6
:10810000100251F8044B43F8044B9142F9D10A781C
:108110001A7010BD04D00B00037D042B04D14068FD
:10812000003818BF01207047062B07D143683BB9C0
:1081300083682BB9C3681BB90069F1E70020704759
:108140000120704710B59DF8084044EA032343EA34
:10815000024242EA016104234160037510BD000040
:1081600013B5044C04609DF810400094FFF7EAFF3B
:1081700002B010BD04D00B0007B5064B0360CB78EE
:1081800000938B784A780978FFF7DCFF03B05DF83D
:1081900004FB00BF04D00B0070470020704710B5EF
:1081A00010210446FBF77BFF204610BD08B5FFF702
:1081B000F6FF08BD30B500224FF69C740260848043
:1081C0008D888C800C68858004600A6030BD10B595
:1081D00004460068FFF7CEF9204610BD38B5C468E4
:1081E000F4B12378022B03D104F10C00FFF7EFFF69
:1081F000656835B12846FDF7D5F810212846FBF70C
:108200004EFFA56835B12846FDF7CCF81021284669
:10821000FBF745FF20461421BDE83840FBF73FBF80
:1082200038BD08460021FFF7D7B81FB50C22ADF8BE
:10823000042002688DF80620027A8DF80720426833
:1082400002920023427A8DF80C20194601AA0220DE
:10825000ADF80D308DF80F30FFF7AEF805B05DF8D2
:1082600004FB0B6803604B68436013B15A6801322A
:108270005A60704737B5044668460D46FFF7F1FF70
:10828000009B019A23606260002301A80193009380
:10829000FCF70CFC35B1281DFCF708FC082128462A
:1082A000FBF7FDFE204603B030BD13B50B4602467A
:1082B000D0E900016C4684E8030093E8030082E8FB
:1082C000030094E8030083E8030002B010BD826855
:1082D00010B50AB901F035FABDE81040C368184777
:1082E00008B5006800F11001FFF7F1FF08BD8268D2
:1082F00010B50AB901F025FABDE81040C368184767
:1083000008B5006800F11001FFF7F1FF08BD00009B
:1083100038B500230446036010200D46FBF7BBFE72
:1083200028B10123C0E90133024B0360C56020601E
:10833000204638BD18D00B0038B5002383608B6809
:1083400004460D462BB102229847EB68E360AB6808
:10835000A360204638BD0000F0B589B004686846C7
:10836000FFF728FF4FF00203D4E84F2F002A03D174
:10837000C4E8413F0029F7D125D104F10C05694635
:108380002846FFF717FFBFF35B8F012363700020C0
:1083900004F10803BFF35B8F53E8006F43E800026A
:1083A000002AF9D1BFF35B8F6EB1FFF7A5F878B162
:1083B00029463046FFF78BFF3046FCF7F3FF1021CC
:1083C0003046FBF76CFE6846FFF701FF09B0F0BDD1
:1083D000314602A8FFF7B0FFE068B4F9105008B1C9
:1083E00002F058F806901020ADF81C50FBF753FE31
:1083F0000546E8B1002787601820FBF74CFE0446CD
:1084000088B10146876002A8FFF74FFF049BA2686E
:10841000A360059B049206A9E268E36004F11000E2
:108420000592FFF7C7FE084BEB60084B2C60AB6072
:1084300006A8FFF7CCFE02A8FCF7B4FF00222946ED
:108440000348FFF761F8B7E7E1820B0065850B0091
:10845000EB7D0B002DE9F04F8BB005469DF850A049
:108460000F4690469946FEF77FFF07AE834638BB1E
:108470004FF62E73059005A93046ADF81830FFF77A
:1084800099FE1420FBF707FE044648B1022303704F
:108490000123C0E901BB437031460C30FFF78AFE6F
:1084A0002846214640F8044BFFF732FF3046FFF7DD
:1084B0008EFE05A8FFF78BFE28460BB0BDE8F08FB7
:1084C0000C2300241420CDE908440793FBF7E3FDB7
:1084D000014618B1C0E901440470447004A8039136
:1084E000FFF716FF1E4B08930820FBF7D4FD044648
:1084F00010B103A9FFF7B5FE00965FFA8AF34A466A
:10850000414638460994FEF73FFFB8B9039B5B78B4
:1085100003F0FF0293B94FF69C7305A903A80592D7
:10852000ADF81830FFF718FF05A8FFF750FE05A8B3
:108530000999FFF79FFE06A8FCF7B8FA03A905A85A
:10854000FFF78FFE059B069A2B606A60002306A842
:1085500006930593FCF7AAFA04A8FCF7A7FAABE781
:10856000E1850B00012AF8B5054603D10B680360CD
:108570000020F8BD022A10D0032AF9D10468002C8B
:10858000F6D004F11000FFF722FE2046FCF70AFFA8
:1085900018212046FBF783FDEAE718200E68FBF759
:1085A0007AFD044650B13146FFF7C6FE3069B6F990
:1085B000147008B101F06EFF2061A7822C60D7E72C
:1085C00038B5002383608B6804460D462BB1022228
:1085D0009847EB68E360AB68A360204638BD0000B5
:1085E000F0B589B004460D4601A81146FFF742FEDA
:1085F000A4B124B21DB1284601F04CFF054601A8E4
:1086000003A90395ADF81040FFF7A6FE03A8FFF7F6
:10861000DEFD02A8FCF74AFA09B0F0BD019D012376
:10862000D5E84F2F002A03D1C5E8413F0029F7D1F3
:10863000EFD12B73BFF35B8F6B702B1DBFF35B8F81
:1086400053E8006F43E80042002AF9D1BFF35B8F83
:10865000002EDED02046FEF74FFF074660B105F141
:108660000C013046FFF743FE3046FCF79BFE10211D
:108670003046FBF714FDCCE7314603A8FFF7A0FF17
:108680002B7B8DF81C301020FBF705FD0546D0B183
:1086900087601420FBF7FFFC044678B18760014631
:1086A00003A8FFF702FE059BA268A360069B059244
:1086B000E268E3609DF81C3006922374064BEB6081
:1086C000064B2C60AB6003A8FCF76CFE0022294629
:1086D0000348FEF719FFC7E701830B00E5860B008F
:1086E000EB7D0B00012A70B5044603D10B680360D3
:1086F000002070BD022A0CD0032AF9D10468002C96
:10870000F6D02046FCF74EFE14212046FBF7C7FCAE
:10871000EEE714200E68FBF7BEFC054620B131469B
:10872000FFF74EFF337C2B742560E1E7014B1860A7
:10873000704700BFC0DF032008B50B4B43B1FFF704
:108740006BFC03681B699847002801DDAFF30080CC
:10875000064B43B100F0B4FE03681B69984700283C
:1087600001DDAFF3008008BD000000000000000044
:1087700008B5FFF7E1FFFEF765FD014B186008BD86
:1087800034E703200548064A064908B5121A01F0E5
:10879000DEFD054B054A1A6008BD00BF00F403204A
:1087A00004F40320F4D60B0000F403201E1C279AC7
:1087B00007B5002300931A466FF07701FEF7BEFE5F
:1087C00003B05DF804FB000007B543880A2B08D00E
:1087D000502B0BD1094B1B684BB103B05DF804EB78
:1087E0001847FFF7E5FF03B05DF804FB0023009393
:1087F0001A466FF07701FEF7A1FEF4E7C8E6032002
:1088000010B512480021FEF7FDFE114B1A68114BFE
:108810009A42114B0CBF012200221A7001D0FFF7BF
:10882000B1FFFEF7FFFC044601F0A8FD0B4B13B1AE
:108830002046AFF3008000210848FEF7C5FDBDE8E3
:10884000104007480021FEF76FBE00BF2D870B00C8
:1088500000F403201E1C279AC4E603200000000039
:10886000C9870B000068FFF7B7BA10B5044601606E
:1088700002710AB1FFF7F6FF204610BD13B504469A
:10888000019100F0DDFD019A01462046FFF7EDFF62
:10889000204602B010BD10B50C46FEF723FDFEF7D2
:1088A00029FD28B124B1BDE81040E720FEF72ABD1C
:1088B00010BD0000014B00229A607047CCE60320F7
:1088C0000021FEF701BE08B50020FEF76DFD28B1BE
:1088D000FEF74AFD80F00100C0B208BD0120FCE7B0
:1088E00010B50020FEF7B6FC0446A0B9FEF7DCFD8B
:1088F000012810D12046FEF70FFE60B9FFF7E3FF15
:1089000010B9FEF721FDF9E7FFF7DDFFBDE81040E4
:108910000020FEF79FBC204610BD1FB5FFF7E0FF0B
:1089200010220021684601F020FD00216846FEF774
:10893000A1FC009805B05DF804FB0000024B1A682A
:10894000024B1A60704700BFBCDF0320DCE6032047
:10895000014B024A1A607047E0E6032048D00B0042
:1089600010B50446FEF76EFCE060236820465B69A4
:108970009847002808DAFEF765FCE368C01AA36888
:108980009842F2D34FF0FF3010BD000038B50D46CD
:108990000749044600F00DF92846FFF7E1FF0028DB
:1089A00004DBC1B2204600F054F9F5E7204638BD9B
:1089B0008BCC0B0070B50D4609490446164600F0F5
:1089C000F8F82846FFF7CCFF002806DB864204D0E3
:1089D000C1B2204600F03DF9F3E7204670BD00BF6C
:1089E0008BCC0B00F8B506460D468F180024BD420F
:1089F0000CD0336815F8011B9B6830469847031E5E
:108A000001DB1C44F3E7002C08BF1C462046F8BDE0
:108A100013B50446084659B1019101F058FD236889
:108A20000199DB680246204602B0BDE810401847B5
:108A300002B010BD08B5FFF7EBFF08BD03689B68E7
:108A4000184738B50D210546FFF7F8FF0A210446FF
:108A50002846FFF7F3FF204438BD38B50546FFF739
:108A6000D7FF04462846FFF7ECFF204438BD30B559
:108A70008BB00023012A8DF8243098BF0A2209AC5C
:108A80000D46B1FBF2F101FB125303F0FF03092B7A
:108A900094BF30333733DBB2AA4204F8013DEFD93B
:108AA0002146FFF7B5FF0BB030BD2DE9F04186B090
:108AB00000AF05460E46381D142114463B60FEF7F4
:108AC00079FD13280ED8391D2846FFF7A1FF04466B
:108AD0001EB12846FFF7B5FF044420461837BD46AF
:108AE000BDE8F08100F1080323F00703E846ADEB91
:108AF000030D2246411C3B686846FEF75BFD694654
:108B00002846FFF785FF0446C546E1E702480023F3
:108B10000360FEF77FBB00BFE4E6032010B5044608
:108B20000068FEF727FD204610BD10B5044600681A
:108B300008B1FEF71FFD0023C4E90133236010BD17
:108B400038B504460D4600680131FEF71BFD10B133
:108B5000C4E90005012038BD10B50368044623B1FF
:108B600043688B4201D3012010BD2046FFF7E8FF88
:108B70000028F9D0A368002BF5D122681370F2E722
:108B800037B50D46114601920446FFF7E5FF019AFD
:108B900028B92046FFF7C9FF204603B030BDA260C8
:108BA0002946206801F0D3FB2268A3680021D15434
:108BB000F2E7002313B5C0E9003304468360037372
:108BC00041B10846019101F082FC0199024620461C
:108BD000FFF7D6FF204602B010BD38B50546006845
:108BE0000C4668B16A688B689A4207D3096801F03D
:108BF00048FCA368AB600023A36038BDFEF7BAFC55
:108C000023682B6063686B60A368AB600023C4E9D2
:108C10000033F1E7884210B5044601D0FFF7DDFFCD
:108C2000204610BD70B505460E4609B9002070BD3E
:108C30006AB1846814442146FFF78EFF0028F5D0FE
:108C40002868AB683146184401F01BFCAC60012079
:108C5000EDE707B500238DF80410012201A98DF876
:108C60000530FFF7DFFF03B05DF804FB58B50E4693
:108C70002AB121B18468A34202D300230B7058BDEE
:108C8000E41A013A0168944228BF14461944224666
:108C9000304601F038FC00233355F0E7006808B196
:108CA00001F051BB7047000008B5006840B101F009
:108CB00047FB51EC100B01F0CFFA00EE100A08BD93
:108CC0009FED010AFBE700BF0000000007B50B465F
:108CD00000210246009101208C21FEF739FC03B0EF
:108CE0005DF804FB01460020FFF7F0BF0020FFF70E
:108CF000F9BF0000054B02221A60054B054A9A6035
:108D00000020C3E90000FEF7D7BB00BFF4E6032054
:108D1000E8E603200000FFFF10B40468246BA446BB
:108D20005DF8044B604703689B6C1847808E704762
:108D3000028FC08E101A7047F0B5036889B09F6A21
:108D40000C4B029300F1200604460FCE03AD0FC575
:108D500033682B70A38EE28EE16B0093204602AB4A
:108D6000B84723680546DB6920469847284609B07E
:108D7000F0BD00BF04D00B0007B503688DF80710E5
:108D8000DB6801220DF10701984703B05DF804FB91
:108D900010B503681B690446984728B1E38EE26B5F
:108DA000591CE186D05C10BD4FF0FF30FBE710B5D9
:108DB00003681B690446984718B1E38EE26BD05CE8
:108DC00010BD4FF0FF30FBE7704710B40346084674
:108DD000DC6BD98E1A8F0368521ADB6821445DF868
:108DE000044B1847A0F11000FFF7EFBF70B5036800
:108DF0008CB05B6A04460E461546984701231C2238
:108E0000002105A8029301F0B0FA40F61C23304679
:108E1000ADF81430FEF7F6F91122ADF81600022174
:108E20000A20FEF787F90028606125DB0422009202
:108E300002AB40F6FF71FEF745F9E8B995B1039032
:108E4000ADF8100003A9E8B2FEF71CFAA0B906239A
:108E50000093606903AB41F20B0240F6FF71FEF72D
:108E600031F948B960691C2205A9FEF723F918B940
:108E7000656401200CB070BD236820465B6A98478A
:108E80000020F7E710B504464069002801DBFEF733
:108E900021F94FF0FF3363610023E386238710BD80
:108EA00070B50546C06BEE8E68B12B6C9C1B94426E
:108EB00028BF14462246304401F049FAEB8E234481
:108EC000EB86204670BD0446F1E7D0B503681B6908
:108ED00004460F461646984790B1236820461B6902
:108EE0009847E38EE16B8642A8BF06461944324696
:108EF000384601F02CFAE38E3344E3863046D0BD89
:108F00004FF0FF36FAE730B587B0044601AD68464A
:108F1000FFF732F90FCD04340FC42B68237007B06C
:108F200030BD0000F0B59646026889B0976A0A4ADB
:108F300002921C1D8C4606460FCC03AD0FC523685C
:108F40002B70BDF838300093724602AB6146304654
:108F5000B84709B0F0BD00BF04D00B0070B504469F
:108F6000054B44F8043B01F1200506460FCD0FC424
:108F70002B682370304670BD04D00B00F0B54378E9
:108F8000022B8DB005460C46174604D1011D204624
:108F9000FFF7B9FF22E00A2B25D11122002101A8F9
:108FA00001F0E3F9AB6803B305F1080301AE05F185
:108FB000180C18685968324603C2083363451646D0
:108FC000F7D1062301A906A807AE8DF81430FFF7E4
:108FD00091F80FCE04340FC4336823701FB1688832
:108FE000FEF708F938800DB0F0BDEB68002BDBD13F
:108FF0004FF6FF702E69FEF7F5F88642D4D105F1E1
:109000001401C4E72DE9F04117468EB00022064650
:1090100001AB084611460192FEF75CF9041E20DB05
:10902000019B2BB35B691BB302A8FFF755F8019BAB
:109030000022586902A9FFF7A1FF02A8FFF76CF808
:10904000B0B1336803ADD3F838800B4B08930FCD24
:1090500009AC0FC42B6823703A4608A93046C047B4
:1090600004460198FEF72EF920460EB0BDE8F081C7
:109070004FF0FF34F5E700BF04D00B002DE9F047B7
:10908000D0F81490B9F1000F90B005460E46904606
:109090001C463CDB00293AD04FF01C0A09AF52466F
:1090A0000021384601F061F9CDF80CA0DCB14FF495
:1090B0007A73B4FBF3F203FB124400215C431023E8
:1090C000CDE904210791009341F206026B4440F67A
:1090D000FF7148460694FDF7F5FF044620B120468F
:1090E00010B0BDE8F087082403ABCDE900736869D0
:1090F000234642463146FEF705F8041EEFDB05F134
:10910000340205F11C013846FFF738FFE7E74FF05E
:10911000FF34E4E738B5054614462B7D062B084698
:1091200010D140F61C231380FEF76CF808342B1D79
:1091300024F8060C143553F8042B44F8042BAB42E6
:10914000F9D138BD042BFCD14FF404731380FEF722
:1091500059F860806868FEF745F86060F1E72DE92E
:10916000F0438BB003AF4FF01C09984604460D4600
:10917000164600214A46384601F0F7F8BDF8481077
:109180003A464046FFF7C6FF9DF80D3053B1CDE992
:1091900000796069002332462946FDF7C3FF0BB012
:1091A000BDE8F0834FF0FF30F9E7000038B5002547
:1091B0004FF47A73C0E901530B4B03F108026C338F
:1091C00003614FF0FF330446026043611C30FEF739
:1091D00083FF4FF40073C4E91035E5862587E56306
:1091E00084F84850204638BD4CD00B0010B590F89C
:1091F0004830044623B1C06B10B10121FAF74FFF8C
:109200000023E36384F848302364E386238710BD9A
:1092100070B5044616460D46FFF7E8FF0023E663E7
:1092200023642EB12564206C003818BF012070BD66
:10923000002DF8D02846FAF730FF0123E06384F8C8
:1092400048300028EFD0EDE7F8B51746C26B054669
:109250000C461AB9016C09B1FFF7DAFF04340FCCE0
:1092600005F120060FC6236833700023286CAF86F3
:10927000EB862B87F8BD37B5C26B04460B462AB97F
:10928000016C19B10193FFF7C3FF019BE16B002251
:10929000E286228741B1226C32B12068056B2046FC
:1092A000A8470028C8BF208723681B69204603B051
:1092B000BDE830401847000010B5074B03F1080225
:1092C0006C33044602600361FFF7DCFD2046FFF7C4
:1092D0008DFF204610BD00BF4CD00B0010B50446DA
:1092E000FFF7EAFF20464C21FAF7D9FE204610BDD1
:1092F000002240681146FEF7AFB8002240681146D0
:10930000FEF7BAB840680022FEF7AEB84068002207
:1093100081F00101FEF798B8002340681A4619460B
:10932000FEF78AB8002340681A461946FEF77CB853
:10933000002240681146FEF76FB8002240681146CF
:10934000FEF75AB8406800220221FEF75DB80023FC
:1093500040681A46FEF748B8024B03225A60024A98
:109360001A607047F8E60320C4D00B0008B5024B22
:109370001B681B68019308BD5C02030008B5024B23
:109380001B685B68019308BD5C02030008B5024BD3
:109390001B689B68019308BD5C020300704770471F
:1093A00038B520251423044603608560056106490D
:1093B000284600F011F904496060284600F00CF9D5
:1093C000E060204638BD00BFF8D00B0038B520253E
:1093D000142304460360856005610649284600F0B1
:1093E000FBF804496060284600F0F6F8E06020468B
:1093F00038BD00BFF8D00B0030B50E4D2978BFF353
:109400005B8F11F0010487B011D12846FAF749FEAD
:1094100068B101A8FFF7C4FF01AA21460648FEF77C
:10942000C9FC2846FAF742FE044800F083FF0248D0
:1094300007B030BD00E7032008E703209D930B0031
:1094400010B50E4C2378BFF35B8FDB0786B011D4C9
:109450002046FAF726FE68B101A8FFF7B7FF01AA78
:1094600001210748FEF7A6FC2046FAF71FFE054833
:1094700000F060FF024806B010BD00BF04E7032003
:109480001CE703209F930B007047000038B504468B
:1094900014252A46002100F068FF25804025074951
:1094A00025812846258200F097F804496060284607
:1094B00000F092F8E060204638BD00BFF8D00B0005
:1094C00030B50E4D2978BFF35B8F11F0010487B0E2
:1094D00011D12846FAF7E5FD68B101A8FFF7D6FFDC
:1094E00001AA21460648FEF7D1FC2846FAF7DEFD20
:1094F000044800F01FFF024807B030BD38E70320E2
:109500003CE7032089940B00232813B502D90020DF
:1095100002B010BDA0F10B03022B1AD8174C217812
:10952000BFF35B8F11F001010BD120460191FAF7D7
:10953000B8FD019928B11248FEF7F0FB2046FAF772
:10954000B5FD0F4B1878FDF7ADFD0028DFD10120E8
:10955000DEE7012809D8FFF74FFF0021007CFDF767
:1095600081FD80F00100C0B2D2E709380128EED8B1
:10957000FFF7A6FF007CFDF70DFEF2E750E70320A2
:1095800054E70320232838B504460D460AD8FF299E
:1095900008D0FFF7B9FF28B129462046BDE838407A
:1095A000FDF778BE38BD38B504460D46FDF77AFEA6
:1095B000FF2810D0062804D84D2323FA00F0C30753
:1095C00009D42046FFF7A0FF28B129462046BDE870
:1095D0003840FDF76FBE38BDFAF75FBDC3689A68C3
:1095E000C26010B502B1506042685A600C68844293
:1095F00003D10B609860436010BD916881420CBF3D
:109600009360D360F6E78368DA68826010B502B1D0
:10961000506042685A600C68844203D10B60D86085
:10962000436010BDD16881420CBFD3609360F6E700
:10963000C36823B118469B68002BFBD17047436871
:10964000DA68824202D118465B68F9E7C268934241
:1096500018BF18467047037833B943685B68834284
:1096600002D1DB6818467047826822B11346D2687F
:10967000002AFBD1F6E743689A688242F2D1184685
:109680005B68F9E7FFF7D4BFFFF7E5BF2DE9F843C3
:109690001E4603F104080023C1E902330C464A6068
:1096A0000B7000B39642916018D17160F46001278D
:1096B0004FF000097368A3423FD060680278002A27
:1096C0003BD14568AB68984223D1EB6883B11A78E7
:1096D00072B907701F702A702C46EBE7B36893428B
:1096E000E5D1B160E3E7D160F3689342DFD1DDE714
:1096F000C368A34203D14146FFF770FF0446636885
:1097000041461F70284685F80090FFF77CFF2546EC
:10971000E2E713B11A78002ADBD08368A34203D1B1
:109720004146FFF770FF0446636841461F702846B4
:1097300085F80090FFF752FFE9E701221A70BDE8B3
:10974000F88308B5FDF73EFF014900F0F9B800BF06
:1097500014D10B007FB500241023CDE90234036837
:1097600015469E6912686B46CDE90044B0479DF8E6
:10977000043003F00603062B03BF009B2B6001207F
:10978000204604B070BD0098904214BF012006200E
:109790007047000010B5034B0360044600F0CDF89D
:1097A000204610BD54D10B0010B50446FFF7F2FF60
:1097B00020460821FAF773FC204610BD2DE9F04140
:1097C0001F46DDE90834DDF8188098450646154641
:1097D00007D1079900F0B4F818B165710020BDE811
:1097E000F0813946304600F0ABF80028F6D001236E
:1097F000C4F800802571A371F0E738B515461C4602
:1098000000F09EF820B10823E36006232560237151
:1098100038BD73B505460C4601921E4600F090F81F
:1098200050B9032E08D82368019A5B69294620465F
:1098300002B0BDE87040184702B070BD10B5034BD0
:1098400003600446FFF7A6FF204610BDB4D10B000D
:1098500010B50446FFF7F2FF20460C21FAF71FFC73
:10986000204610BDF7B5089F974205460E461446A0
:109870000AD0A86802680897156A31462246AC46A5
:1098800003B0BDE8F04060471946019300F058F876
:10989000019B0028EDD0062003B0F0BD2DE9F14F6B
:1098A0000D461946DDE90A4BDDE90CA6814617464F
:1098B000984600F045F890B1002D3460377109DB0F
:1098C00061198A450CBF06210121B171002001B048
:1098D000BDE8F08F0235F9D10123B371F6E75445A5
:1098E00006D15946484600F02BF808B17771EDE7EC
:1098F000D9F808000368CDE90CA6CDE90A4BDC696C
:109900003A4643462946A44601B0BDE8F04F6047B9
:109910002DE9F04107460C4615461E46FFF76DFF40
:1099200048B9B86803689F692A4633462146BC4651
:10993000BDE8F0416047BDE8F08170470020704706
:10994000814208B50ED0406803782A2B0CD04968B4
:109950000B782A2B08BF013100F089FDB0FA80F0A6
:10996000400908BD0120FCE70020FAE781F0004132
:1099700002E000BF83F0004330B54FEA41044FEAF4
:10998000430594EA050F08BF90EA020F1FBF54EA8F
:10999000000C55EA020C7FEA645C7FEA655C00F02B
:1099A000E2804FEA5454D4EB5555B8BF6D420CDDFC
:1099B0002C4480EA020281EA030382EA000083EA7F
:1099C000010180EA020281EA0303362D88BF30BD1F
:1099D00011F0004F4FEA01314FF4801C4CEA113175
:1099E00002D0404261EB410113F0004F4FEA0333D4
:1099F0004CEA133302D0524263EB430394EA050F5F
:109A000000F0A780A4F10104D5F1200E0DDB02FACD
:109A10000EFC22FA05F2801841F1000103FA0EF261
:109A2000801843FA05F359410EE0A5F120050EF127
:109A3000200E012A03FA0EFC28BF4CF0020C43FA58
:109A400005F3C01851EBE37101F0004507D54FF065
:109A5000000EDCF1000C7EEB00006EEB0101B1F5B5
:109A6000801F1BD3B1F5001F0CD349085FEA3000FB
:109A70004FEA3C0C04F101044FEA445212F5800F06
:109A800080F09A80BCF1004F08BF5FEA500C50F1A3
:109A9000000041EB045141EA050130BD5FEA4C0C86
:109AA000404141EB0101013C28BFB1F5801FE9D2E3
:109AB00091F0000F04BF01460020B1FA81F308BF06
:109AC0002033A3F10B03B3F120020CDA0C3208DDD2
:109AD00002F1140CC2F10C0201FA0CF021FA02F1AD
