:02000002B0004C
:1040000000400B00D4D50B0000000600170005028D
:084010000401A30F00000000F1
:0440180034C20B00A3
:1040200009480A49884208B505D0094A824202D0A7
:10403000121A06F03AF80748074A0021121A06F049
:1040400042F8014808BD00BF74DF0320B8D30B005D
:1040500064E1032068E10320F1E7032070B5074E17
:10406000074C04F0DBFAA41BA4080025AC4200D1E5
:1040700070BD56F8043B98470135F7E754D30B0061
:104080008CD30B0000F066BC08B500F03DFDBDE828
:10409000084004F07BBA03F071B903F06FB903F084
:1040A00075B90078B0FA80F04009704701230370B9
:1040B000704708B503F05CF820B1BDE80840002067
:1040C00003F06EB808BD000010B586B0002202A94A
:1040D0000320029203F032F8E0B9029C0CB123698C
:1040E00023B90E4A0E490A2003F018F80C23039353
:1040F00001AB04930423059303AA236901212046FD
:10410000984738B9BDF8043000EE103ABBEECC0A3F
:1041100006B010BDBFEE000AFAE700BF6D700B00DD
:1041200048C20B000EB403B503AB002153F8042BB7
:10413000019304F00AFC02B05DF804EB03B0704791
:10414000F8B5134D134E144F114802F07CFC044691
:10415000E0B903F055FE314604F0CFFB3A680F4951
:104160002346284602F04EFD30B103F049FEBDE87B
:10417000F8400B4904F0C1BB03F042FE094904F0CA
:10418000BCFB40F6B83004F0A9FADDE7F8BD00BF8B
:10419000DCE203206EC20B0084E10320AAC20B0004
:1041A000B0C20B00CAC20B001FB56F4802F04BFC37
:1041B00008B9FFF7C5FFFFF787FF10EE100A05F0FB
:1041C000E7FB6A4B6A4A6B4CCDE9000180216A48E3
:1041D00003F0F4F8684A6949634802F001FE624856
:1041E00002F01AFD2378BBB1654B186805F0D0FBCF
:1041F000CDE90201634B186805F0CAFB624ACDE9BC
:10420000000180215C4803F0D9F85B4A5B495648BD
:1042100002F0E6FD002323705C4C2378BBB15C4BBD
:10422000186805F0B5FBCDE902015A4B186805F096
:10423000AFFB594ACDE9000180214F4803F0BEF899
:104240004D4A4E49484802F0CBFD00232370534CA1
:104250002378BBB1524B186805F09AFBCDE90201F7
:10426000504B186805F094FB4F4ACDE900018021BE
:10427000414803F0A3F8404A40493B4802F0B0FDF2
:1042800000232370494C2378BBB1494B186805F0D3
:104290007FFBCDE90201474B186805F079FB464AE0
:1042A000CDE900018021344803F088F8324A3349CF
:1042B0002D4802F095FD00232370404C2378BBB1BC
:1042C0003F4B186805F064FBCDE902013D4B1868CF
:1042D00005F05EFB3C4ACDE900018021264803F051
:1042E0006DF8254A2549204802F07AFD0023237005
:1042F000364C2378BBB1364B186805F049FBCDE945
:104300000201344B186805F043FB334ACDE9000144
:104310008021194803F052F8174A1849124802F050
:104320005FFD002323702D4C2378BBB12C4B186804
:1043300005F02EFBCDE902012A4B186805F028FB99
:10434000294ACDE9000180210B4803F037F80A4AD9
:104350000A49054802F044FD00232370024804B0D6
:10436000BDE8104002F058BCDCE20320F8E3032073
:1043700000C30B00C0E4032008E203201FC30B00AE
:1043800084E40320BCE3032037C30B00C1E4032013
:1043900088E40320C0E303204EC30B00C2E40320E3
:1043A0008CE40320C4E3032064C30B00C3E40320B4
:1043B00090E40320C8E303207AC30B00C4E4032085
:1043C00094E40320CCE3032090C30B00C5E4032056
:1043D00098E40320D0E30320A6C30B00C6E4032027
:1043E0009CE40320D4E30320BCC30B0070B502F0AF
:1043F000B7FEFFF75EFE002002F050FE1C4D0446A3
:104400000026002002F04AFE001B61F100018542F7
:1044100076EB010305D302F0ABFE10B902F098FE73
:10442000EFE702F0A5FEFFF744FE002002F036FEA3
:1044300047F230550446002002F030FE001B61F1C7
:104440000001A84271F1000309D2002002F0B0FE81
:1044500028B102F08DFE10B102F07AFEEBE70020E9
:1044600002F0A6FE18B1BDE8704002F081BE70BD3A
:104470007FA9030073B5002422460DF107012046F1
:104480008DF8074002F03CFF9DF80730CBB10121C9
:104490002246084602F02CFF02F0F0FD0A4E0B4DBA
:1044A000044602F0EBFD001BB04205D802F0E6FD29
:1044B000286002F04DFEF4E702B0BDE8704004F061
:1044C00065BB02B070BD00BFBFD4010044E703204C
:1044D00000B593B08449684604F0BBFA834904A848
:1044E00004F0B7FA04F002FF009A8149FFF71AFEC0
:1044F000C82004F0F3F804F0F9FE03681B6998473C
:10450000002818DD03F07CFC7A49FFF70BFE04F06D
:10451000EDFE0A22014608A804F09CF908A904A8A7
:1045200004F0C8FA08A804F049FA03F069FC049AF8
:104530007149FFF7F7FD04F0D9FE70491722FFF724
:10454000F1FDC82004F0CAF804F0D0FE03681B692E
:104550009847002818DD03F053FC6949FFF7E2FD96
:1045600004F0C4FE0A22014608A804F073F908A961
:1045700004A804F09FFA08A804F020FA03F040FC15
:10458000049A6049FFF7CEFD04F0B0FE5E490622B2
:10459000FFF7C8FDC82004F0A1F804F0A7FE0368E7
:1045A0001B699847002818DD03F02AFC5749FFF7DC
:1045B000B9FD04F09BFE0A22014608A804F04AF95E
:1045C00008A904A804F076FA08A804F0F7F903F0A3
:1045D00017FC049A4E49FFF7A5FD04F087FE4D49EC
:1045E000FFF7A0FDC82004F079F804F07FFE03680F
:1045F0001B699847002818DD03F002FC4649FFF7C5
:1046000091FD04F073FE0A22014608A804F022F985
:1046100008A904A804F04EFA08A804F0CFF903F0A2
:10462000EFFB049A3D49FFF77DFD04F05FFE3C4936
:10463000FFF778FDC82004F051F804F057FE036836
:104640001B699847002818DD03F0DAFB3249FFF7B1
:1046500069FD04F04BFE0A22014608A804F0FAF8AE
:1046600008A904A804F026FA08A804F0A7F903F0A2
:10467000C7FB049A2B49FFF755FD04F037FE2A4982
:10468000FFF750FDC82004F029F804F02FFE03685E
:104690001B69984700281EDD03F0B2FB1E49FFF797
:1046A00041FD04F023FE0A22014608A804F0D2F8D6
:1046B00008A904A804F0FEF908A804F07FF928224C
:1046C00008A9002304A804F021FA03F099FB174974
:1046D00008AAFFF727FD04A804F070F9684604F063
:1046E0006DF913B05DF804FBD2C30B0053C90B0086
:1046F000F3C30B0000C40B001EC40B0029C40B0045
:1047000039C40B0056C40B0069C40B007BC40B00FA
:104710009AC40B00ADC40B00BBC40B00CBC40B0090
:10472000E2C40B00F2C40B0009C50B0014C50B005A
:1047300000B589B01A49684604F08BF904F0D6FD3B
:104740001849FFF7EFFC42F2107003F0C7FF04F0C6
:10475000CDFD03681B699847002818DD03F050FB66
:104760001149FFF7DFFC04F0C1FD0A22014604A84D
:1047700004F070F804A9684604F09CF904A804F059
:104780001DF903F03DFB009A0849FFF7CBFC04F04C
:10479000FDF9684604F012F909B05DF804FB00BFAA
:1047A00053C90B002CC50B0039C40B0056C40B00B9
:1047B00038B5046805467CB16368013B63605BB94A
:1047C000236820469B689847A368013BA3601BB9F8
:1047D00023682046DB689847284638BD38B5314BFA
:1047E000314D00241C7004F011FD234622460121A6
:1047F00004F01CFD04F00AFD23462246172104F0B4
:104800000DFD2A492A4804F024F92A4802F0B8FC90
:104810002949084603F082F92749284801F0F4FFA6
:104820002146274803F038FF2946264804F011F9AD
:104830002946254804F00DF92946244804F009F9D1
:104840002349244804F005F903222349234801F0B1
:10485000BFF92946224804F0FCF82946214804F013
:10486000F8F82946204804F0F4F829461F4804F0D7
:10487000F0F829461E4804F0ECF81E4B1A1D1A6089
:104880001D4A5A600122C3E902441A751C611B4B80
:10489000C3E90044A2F101129A60BDE83840022049
:1048A00002F016BDA4E1032053C90B0037C50B006D
:1048B00084E1032068E10320A0E30320DCE203207D
:1048C000DCE10320C8E10320E4E10320F4E103205C
:1048D0004CC50B0094E1032057C50B0078E403207E
:1048E0008CE203209CE20320ACE20320BCE2032024
:1048F000CCE20320A8E103201000030078E10320AC
:1049000030B585B0002301A8CDE90133ADF80C30F6
:1049100003F07FFB02F02CFC044610B102F018FCFF
:10492000F8E70B4D02F024FC686823462246214636
:1049300002F08EFC284602F0A5FD10B902F008FC3A
:10494000F8E7034805B0BDE8304002F09BBD00BF6A
:1049500068E6032030B5012185B0FF2003F0A9FEF1
:1049600003F04EFA4FF4165103F03EFA04F0BEFC89
:104970004FF4E13103F096F940F6B83003F0AEFEA3
:10498000FFF7A6FD1C4B01A803240125CDE9014337
:10499000ADF80C5003F057FBFFF728FDFFF789FB3C
:1049A0004FF0FF31154803F030FB40F25B721449C1
:1049B000144802F026FAFFF7C3FBFFF7F5FB40F6B9
:1049C000B83003F08BFEFFF79BFF2946204603F02B
:1049D00070FE02F053FB0C4B0C4A1860002313606E
:1049E0000B4A137003F00CFA0A4B0B491A68FFF7D5
:1049F00099FB05B030BD00BFC0D4010040E70320E3
:104A000074DF0320DCE2032004E20320C0E1032082
:104A1000C4E1032068E103205FC50B0030B52DED34
:104A2000028B85B0FFF7E2FC2C4C2D4D4FF49660C5
:104A300003F054FEFFF748FBD4ED007A29492A48D9
:104A4000B0EE408AB8EE670A01F0D3F8274926484D
:104A5000B0EE480A01F0CDF8254B2A7819682248B3
:104A600001F0D0F82B788DF8003002463C2340B39B
:104A70000022204902A803F0FBFB03A8FFF798FEE1
:104A80004FF4966003F02AFE1B4B01251D70FFF7C3
:104A9000F1FC4FF47A7003F021FEFFF731FF294655
:104AA000032003F006FE154B00221A7002F0E6FA0E
:104AB000134B186023680133236005B0BDEC028BF3
:104AC00030BD104902A803F0D3FB03A8FFF770FE26
:104AD0004FF4966003F002FEECE700BFC0E1032054
:104AE000A4E103206DC50B0078E4032075C50B001D
:104AF00094E1032081C50B00C4E1032088E2032078
:104B000004E2032096C50B00F0B5A64E337887B0BB
:104B100013B1A54802F080F8A44C23780BBB03F036
:104B200051FE3B2819D102F023FBD0B9012103200B
:104B3000012503F0BEFD3570FFF758FCFFF7B9FA09
:104B40009B484FF0FF3103F060FA9748257001F061
:104B50007AFF30B9FFF7F4FA03E003F033FE1D28C3
:104B6000E1D003F02FFE002840F0B480FFF71CFBDB
:104B7000FFF754FF0023237004F0B8FB03681B69A0
:104B80009847002800F0A48004F0B0FB2C220146D6
:104B900002A803F05FFE02A98648874D874C884E25
:104BA000884F03F087FF02A803F008FF04F09EFB84
:104BB0002C22014602A803F04DFE02A9824803F010
:104BC00079FF02A803F0FAFE04F090FB2C220146C4
:104BD00002A803F03FFE02A803F0B6FF02A885ED8D
:104BE000000A03F0EBFE04F081FB2C22014602A830
:104BF00003F030FE02A803F0A7FF02A884ED000A2C
:104C000003F0DCFE04F072FB0A22014602A803F066
:104C100021FE02A803F092FF306002A803F0CEFE4E
:104C200004F064FB014602A803F000FE02A9384626
:104C300003F040FF02A803F0C1FE03F0E1F83A6878
:104C40006249FFF76FFA03F0DBF80746286804F0C3
:104C50009FFE0B463168009102465D493846FFF7DA
:104C600061FA366895ED000A012E39D159495A4842
:104C700000F0BFFF594994ED000A574800F0B9FF12
:104C8000574B2A6857491A6023680B6056490A60D7
:104C9000564A1360564B1E7004F028FB554C0146D3
:104CA00002A803F0C3FD02A9204603F003FF02A8F7
:104CB00003F084FE03F0A4F822684F49FFF732FAAC
:104CC00003F09EF80368DB6998474C4B00221A708A
:104CD00007B0F0BD03F076FD1E287FF44DAF45E729
:104CE000022E17D146493C4800F083FF454994ED18
:104CF000000A394800F07DFF434B2A6843491A6097
:104D000023680B6042490A60424A1360424B012209
:104D10001A70C1E7032E15D140492F4800F069FFF2
:104D20003F4994ED000A2C4800F063FF3D4B2A6890
:104D30003D491A6023680B603C490A603C4A136095
:104D40003C4BE4E7042E15D13B49234800F051FFCA
:104D50003A4994ED000A204800F04BFF384B2A688E
:104D600038491A6023680B6037490A60374A136074
:104D7000374BCCE7052E7BD13649174800F039FF79
:104D8000354994ED000A144800F033FF334B2A688C
:104D900033491A6023680B6032490A60324A136053
:104DA000324BB4E788E20320DCE20320D8E10320A1
:104DB00040E703208CE20320ECE30320A0E403207F
:104DC0009CE30320E4E103209CE20320B7C50B0031
:104DD000CBC50B00EAC50B0078E40320F3C50B003C
:104DE000E8E30320B4E40320BCE3032084E40320CD
:104DF000C0E40320F4E1032076C60B00C4E10320E5
:104E0000FFC50B0009C60B00F0E30320B8E4032044
:104E1000C0E3032088E40320C1E4032016C60B008E
:104E200021C60B00F4E30320BCE40320C4E3032009
:104E30008CE40320C2E403202FC60B0033C60B0012
:104E4000D8E30320A4E40320C8E3032090E4032074
:104E5000C3E403203EC60B0042C60B00DCE3032084
:104E6000A8E40320CCE3032094E40320C4E403205B
:104E7000062E15D11A491B4800F0BBFE1A4994EDC5
:104E8000000A184800F0B5FE184B2A6818491A6045
:104E900023680B6017490A60174A1360174B36E7FF
:104EA000072E15D116490F4800F0A3FE154994EDC1
:104EB000000A0C4800F09DFE134B2A6813491A6043
:104EC00023680B6012490A60124A1360124B1EE7F6
:104ED0001249044800F08DFEFFF72AFCDCE600BF13
:104EE0004DC60B0078E4032051C60B00E0E303201D
:104EF000ACE40320D0E3032098E40320C5E40320BE
:104F00005CC60B0060C60B00E4E30320B0E40320A2
:104F1000D4E303209CE40320C6E403206BC60B000B
:104F20009FED010A704700BF5F42A2CD0174704738
:104F30000022011DC0E90221C0E90412027170477C
:104F400030B585B01A46089B1B788DF8003002A852
:104F50003C2303F08DF90020029C02F0D9F920B126
:104F6000637813B902F0F4F8FAE76378BFF35B8F64
:104F7000651CABB90025039C7CB16368013B636091
:104F80005BB9236820469B689847A368013BA360F0
:104F90001BB923682046DB689847284605B030BD1A
:104FA000002002F0B5F920B12B7813B902F0D0F847
:104FB000FAE72378012BDDD1257BDCE710B5044C23
:104FC0000460C0E901130024029B0474C36010BD97
:104FD00094C60B009FED010A704700BF5F42A2CD4F
:104FE000017570470022011DC0E90221C0E90412C9
:104FF0000271704730B5064D0560C0E90113002508
:10500000039B057541F28835C0E90332856130BDE7
:1050100058C70B0030B54D6889B00446284605F0E6
:10502000C6F8002381B2009303AA284602F00EF8C6
:1050300030B903A9204602F051FF204609B030BD27
:10504000F323009337223D23A921204602F07CFF61
:10505000F3E70000F0B58FB00146064602A81F46F0
:10506000FFF7D8FF02A802F04BFFA0B9337D23B1B0
:1050700002F0C6FE274903F040FCF32300933722D9
:105080003D23A92108A809AD02F05EFF0FCD03ACB6
:105090000FC42B682370002240F2BD211E4804F08B
:1050A00007F8002242F234311B4803F0EFFD03AD54
:1050B0001A4B08930FCD09AC0FC42B681648237008
:1050C00042F2343208A904F00FF858B9337D23B105
:1050D00002F096FE124903F010FC0F4803F022FE86
:1050E000002014E0002FF1D0384605F060F8394672
:1050F0000246094803F024FE0028E7D0064803F0E2
:105100006BFD0028E2D0044803F00CFE01200FB034
:10511000F0BD00BFA4C60B00C8E40320CCCC0B003C
:1051200030C70B00014803F091BF00BFC8E4032063
:1051300013B51C20FEF7AFFF044648B1064B0749E4
:105140001B6800930968064B42F2343201F04CF8B8
:10515000204602B010BD00BF9CE5032098E5032067
:1051600068C70B0013B52020FEF795FF044640B139
:10517000054B06491B6800930968054B502200F057
:1051800041FA204602B010BD9CE5032098E50320BB
:1051900068C70B0013B51C20FEF77DFF044648B11D
:1051A000064B07491B6800930968064B42F23432EC
:1051B000FFF720FF204602B010BD00BF9CE5032092
:1051C00098E5032068C70B0013B51420FEF763FFB2
:1051D000044640B1054B06491B680093002309684B
:1051E0001A46FFF7EBFE204602B010BD9CE50320F7
:1051F00098E50320012A02D1016000207047022AAD
:1052000004BF0B680360F8E70368184710B58368AC
:10521000044613B1032201469847204610BD000002
:1052200010B586B000220346049221B10F4A0592C0
:105230000F4A0291049202AA92E803006C4684E8A5
:10524000030093E8030082E8030094E8030083E886
:1052500003000499986804909960D8680599D9600A
:1052600005901046FFF7D2FF06B010BD09520B00A3
:10527000F5510B0038B584690A4B036005467CB1D3
:105280006368013B63605BB9236820469B6898476D
:10529000A368013BA3601BB923682046DB689847DD
:1052A000284638BDBCCB0B0010B50446FFF7E2FF23
:1052B00020461C21FEF7F3FE204610BD2DE9F041EB
:1052C00000F10801C2680B464AB1177C0678D2E9A2
:1052D0000245B7422ABF13462A462246F4E79942BE
:1052E00004D000781A7C904238BF0B46DA690AB9BC
:1052F00004F0D5F8BDE8F0411A6A03F11400104734
:10530000F8B58B68164604460D1D012263B11D7C5D
:105310003278D3E90270954288BF01221D4696BFBC
:1053200000223B460346F1E792B1CA68AA4203D184
:10533000C4E900352046F8BD284604F053F8337818
:10534000027C9A424FF00003F2D3C4E90003F1E774
:105350002846F4E72DE9FF4700F104098568064671
:105360000F464C464DB1287C3978D5E90232884247
:105370002ABF2C4615461D46F4E7A14503D03A78CE
:10538000237C9A422FD22420FEF785FE97F800A0B6
:1053900080F810A00023A1458046C36100F11002EF
:1053A00026D173691BB137693B7C534509D331461C
:1053B00002A8FFF7A5FFDDE90247002F52D0002C1D
:1053C0004ED1B9454CD098F810003B7C98422CBF88
:1053D000002001204B463A46414604F005F8736927
:1053E00001337361444604F1140004B0BDE8F08752
:1053F000237C0192534518D9F3689C4209D020467A
:1054000003F0F0FF037C019A534505D2C36853B9FA
:10541000044627461C46D0E7314602A8FFF770FF36
:10542000DDE90234F5E72346F3E71BD23769BC42D6
:105430000BD0204603F0D4FF037C019A5345054668
:1054400005D9E36853B927461D462C46B5E73146D2
:1054500002A8FFF755FFDDE90257F6E70746F4E734
:105460000120B7E708F11400FFF7D0FE40462421E1
:10547000FEF715FEA046B5E72DE9F341051D002610
:10548000174600F10802C0E90362C0E90526044698
:105490008846067203700DF10701012328468DF836
:1054A0000730FFF757FF1649FFF7BAFE0DF1070166
:1054B00028468DF80760FFF74DFF1249FFF7B0FE51
:1054C00002230DF1070128468DF80730FFF742FF50
:1054D0000D49FFF7A5FE03230DF1070128468DF8BE
:1054E0000730FFF737FF0949FFF79AFE084BC3F86B
:1054F0000080084B20461F6002B0BDE8F08100BF6D
:1055000031510B0065510B0095510B00C9510B0037
:1055100098E503209CE5032008B5054802F0FEFA53
:10552000044802F0FBFABDE80840034803F08EBDD2
:105530007CE5032014E5032030E503200175704766
:105540000022011DC0E90221C0E904120271704766
:1055500070B506462DED028B142001F00FFF0546B5
:10556000142001F00BFF0446304604F020FE3246C2
:1055700000230238984214DD12F8011B0D293AD19C
:1055800011780A2937D151780D2934D191780A2917
:1055900031D10433F1181422284604F024FE0023EC
:1055A0002B750A21284604F0C5FD064628B30A21BA
:1055B000013004F0BFFD00B33146204604F0D1FDB8
:1055C000204604F0F4FD2044002300F8013C20466E
:1055D00004F064FD51EC100B04F0ECFC08EE100A32
:1055E000204601F0D3FE284601F0D0FEB0EE480A76
:1055F000BDEC028B70BD0133BCE79FED018AF5E77E
:105600005F42A2CD30B5074D05600025C0E901130A
:105610000575039B41F2883585610525C0E9033294
:10562000057730BD84C90B002DE9F74FDFF88C807A
:10563000DFF88CA0DFF88CB004460D461746002634
:1056400040465FFA86F902F0E1F888BB237F4B45BC
:105650002ED9237DCBB102F0D3FB514603F03AF9AA
:1056600002F0CEFB294603F035F902F0C9FB59469A
:1056700003F030F902F0C4FB0A224946019003F01E
:1056800046F9019B184603F02CF90023BAB22946CB
:10569000404602F03DF8237D23B102F0B1FB0649FC
:1056A00003F02BF94FF47A7003F018F80136C7E7CE
:1056B00003B0BDE8F08F00BFA6C70B00A0E5032034
:1056C0007CC70B0092C70B00F8B505460C4640F2AC
:1056D000BD220021204604F0F6FC2B7D4BB102F0E8
:1056E0008FFB144903F009F902F08AFB124903F019
:1056F00004F9124E04F2BB27304602F065F970B18E
:10570000304601F06FFF20702B7D2BB102F078FB4B
:10571000036821789B6898470134A742ECD12B7D20
:1057200033B102F06DFBBDE8F840054903F0E5B880
:10573000F8BD00BFCBC70B00B7C70B00A0E5032027
:10574000CAC70B00F8B50E4F04460026384602F0D3
:105750003BF9054690B9A369B3420FDD012002F081
:10576000BDFFA3690136B342F0DC207D28B102F011
:1057700047FB044903F0C1F82846F8BD0120FCE7C7
:10578000A0E50320D6C70B00F8B50F4602694168B3
:1057900004461D46FFF748FF784802F037F80646F2
:1057A000002800F0E1807649744803F093F8394608
:1057B000724803F08FF87349704803F08BF8724910
:1057C0006E4803F087F861686C4803F083F86F490E
:1057D0006A4803F07FF86E49684803F07BF8A168D7
:1057E000664803F077F86949644803F073F869493B
:1057F000624803F06FF8E168604803F06BF86349B2
:105800005E4803F067F864495C4803F063F8634955
:105810005A4803F05FF8284604F0C9FC6049064680
:10582000564803F057F80A223146544803F06FF8FF
:105830005C49524803F04EF82946504803F04AF8B4
:1058400052494E4803F046F84C4801F0E5FE237DEE
:10585000002B69D002F0D4FA534903F04EF802F05D
:10586000CFFA474903F036F802F0CAFA394603F096
:1058700031F802F0C5FA434903F02CF802F0C0FAFF
:10588000414903F027F802F0BBFA616803F022F8FF
:1058900002F0B6FA3D4903F01DF802F0B1FA3C49B6
:1058A00003F018F802F0ACFAA16803F013F802F064
:1058B000A7FA364903F00EF802F0A2FA354903F0D0
:1058C00009F802F09DFAE16803F004F802F098FA92
:1058D0002E4902F0FFFF02F093FA2F4902F0FAFF7F
:1058E00002F08EFA2D4902F0F5FF02F089FA2C49F8
:1058F00002F0F0FF02F084FA0A22314603F007F8C2
:1059000002F07EFA274902F0E5FF02F079FA294613
:1059100002F0E0FF02F074FA1C4902F0DBFF02F033
:105920006FFA224902F0E9FF2046FFF70BFF237DC3
:105930002BB90124114802F0A1F82046F8BD02F06D
:105940005FFA1B490D4D02F0D8FF284602F03CF8E3
:105950000028EED0284601F045FE044602F050FA39
:10596000E1B202F0BBFFF0E7247D002CE2D002F0B0
:1059700047FA104902F0C1FF3446DBE7A0E50320F7
:1059800009C80B0021C80B002DC80B0051C90B0022
:1059900034C80B0041C80B0050C80B0064C80B0092
:1059A00085C80B004FC90B0096C80B00B2C80B008E
:1059B000D0C80B00ECC80B0070B52DED028B04466F
:1059C00000230E46154641686648502201F0A0FEAD
:1059D000204661685022FFF727FE624801F016FF5B
:1059E000002800F0B68060495E4802F073FF31463F
:1059F0005C4802F06FFF5D495A4802F06BFF294690
:105A0000584802F067FF5A49564802F063FF594967
:105A1000544802F05FFF5849524802F05BFF61684A
:105A2000504802F057FF55494E4802F053FF544981
:105A30004C4802F04FFFA1684A4802F04BFF4F4923
:105A4000484802F047FF4F49464802F043FFE168EB
:105A5000444802F03FFF4949424802F03BFF4A49AF
:105A6000404802F037FF237D002B4FD002F0C8F9E9
:105A70003D4902F02FFF02F0C3F9314602F02AFF40
:105A800002F0BEF9394902F025FF02F0B9F92946C2
:105A900002F020FF02F0B4F9354902F01BFF02F0DA
:105AA000AFF9344902F016FF02F0AAF9324902F0C8
:105AB00011FF02F0A5F9616802F00CFF02F0A0F9F5
:105AC0002E4902F007FF02F09BF92D4902F002FF78
:105AD00002F096F9A16802F0FDFE02F091F9274963
:105AE00002F0F8FE02F08CF9264902F0F3FE02F013
:105AF00087F9E16802F0EEFE02F082F91F4902F038
:105B0000E9FE02F07DF9204902F0E4FE2046FFF7AD
:105B100019FE48B913489FED1D8A01F0AFFFB0EEA2
:105B2000480ABDEC028B70BD4FF42F7001F026FCCB
:105B3000014605462046FFF7C7FD2846FFF708FD4A
:105B40000848B0EE408A01F099FF284601F01EFC9B
:105B5000E5E7237D002BDDD002F052F90C4902F07D
:105B6000CCFED7E7A0E5032016C90B002BC90B001C
:105B70002DC90B0021C80B002DC80B0051C90B000B
:105B800034C80B0041C80B0031C90B005F42A2CDE5
:105B900054C90B00014801F0C1BF00BFA0E50320BC
:105BA00073B5037204465020CDE900211E4601F072
:105BB000E5FB60601420FEF76EFA054620B1DDE9D2
:105BC0000021334600F061F8256002B070BD00008E
:105BD00038B500250446134645728572024AFFF720
:105BE000DFFF204638BD00BF94C90B00006800F0FD
:105BF00055B807B5002300931A46FFF7F7FF03B027
:105C00005DF804FB006800F069BA38B5044684B159
:105C1000E068FFF7FAFFE369A56823B104F1140116
:105C200003220846984720462421FEF738FA2C46DE
:105C3000EDE738BDF0B58DB0044601A80D46174616
:105C40001E4601F09DFA03980130FEF726FA0199ED
:105C5000206004F086FA2A4639463346E67405A8E1
:105C6000FFF70AFCC82001F089FBE06005A8FFF7F8
:105C700025FB0023C4E9010523740898FFF7C5FF3D
:105C800001A802F09BFE0DB0F0BD38B5002504461A
:105C90000582FFF7CFFF204638BD000038B5044627
:105CA0000120607494F91000E56800EB800045F86D
:105CB000201094F91010E06801EB810100EB8101E4
:105CC00081ED020A94F91010E06801EB810100EB0C
:105CD00081014A6094F91020E16802EB820201EB35
:105CE0008202D36094F91030E26803EB830302EB85
:105CF0008303049A1A61237C01335BB20A2B237459
:105D000008DDA37C23B102F07BF8034902F0F5FD26
:105D10000A23237438BD00BFAFC90B0010B510EEC5
:105D2000100A86B00C4603F033FE02460B4601A86B
:105D30000A4901F03BFB01A81422002310F8011BC3
:105D4000202906D0E1540133DBB211B9E15406B089
:105D500010BD013A12F0FF02F0D1F8E7EEC90B00D6
:105D60002DE9F04F0C4689B04D49DFF85881DFF836
:105D70005891DFF858A10546204604F0F2F90026B4
:105D800095F910309E4269DAEB6806EB860B03EB5F
:105D90008B0393ED020A03A92846FFF7BFFFEB68C8
:105DA00003A9009153F82B3022464146204601F0CA
:105DB000FDFAEB684FEA8B073B44DB683BB349468F
:105DC0002246204601F0F2FAEB683B4419690029AB
:105DD00037D00A20642291FBF0FC91FBF2F200FB29
:105DE0001C119CFBF0F392FBF0FE00FB13C300FBC5
:105DF0001E22C9B20091DBB22A49D2B202A801F038
:105E0000D5FA294902AB2246204601F0CFFAEB68C9
:105E10003B445B6823B125492246204601F0C6FA7F
:105E200022462349204601F0C1FA013695F9103087
:105E3000F6B29E4222460ADA1E49204601F0B6FA20
:105E40009EE722465146204601F0B0FADFE71849A6
:105E5000204601F0ABFA00232B7491E7AB7CDBB159
:105E600001F0CEFF144902F048FD01F0C9FF1349CB
:105E700002F043FD01F0C4FF214602F03EFD01F0B7
:105E8000BFFF0D4902F039FD01F0BAFF0C4909B01E
:105E9000BDE8F04F02F031BD09B0BDE8F08F00BFA2
:105EA000F3C90B001BCA0B0022CA0B002DCA0B0042
:105EB0003CCA0B0040CA0B00CBC70B0044CA0B0006
:105EC00053C90B00F5C90B0008CA0B0027CA0B0009
:105ED0002DE9F04F0C46054689B05349DFF878812B
:105EE000DFF87891204616461F4604F03AF9AB6871
:105EF0004E4A4F49204601F059FA33464D49009722
:105F00002246204601F052FA4B494A4F224620468B
:105F100001F04CFA002695F910309E4263DAEB68E6
:105F200006EB860B03EB8B0393ED020A03A92846CD
:105F3000FFF7F4FEEB6803A9009153F82B302246DB
:105F40003946204601F032FAEB684FEA8B0A534497
:105F50005B6823B122464146204601F027FAEB68F0
:105F60005344DB6833B349462246204601F01EFA0B
:105F7000EB685344196949B30A20642291FBF0FC91
:105F800091FBF2F200FB1C119CFBF0F392FBF0FE84
:105F900000FB13C300FB1E22C9B20091DBB22749EC
:105FA000D2B202A801F002FA254902AB22462046ED
:105FB00001F0FCF995F910300136F6B29E42224606
:105FC0000ADA2049204601F0F1F9A4E71E492246E9
:105FD000204601F0EBF9EDE71C49204601F0E6F917
:105FE00000232B7497E7AB7CDBB101F009FF184964
:105FF00002F083FC01F004FF164902F07EFC01F080
:10600000FFFE214602F079FC01F0FAFE104902F091
:1060100074FC01F0F5FE044909B0BDE8F04F02F050
:106020006CBC09B0BDE8F08F53C90B0068C70B000A
:106030004DCA0B0059CA0B0061CA0B001BCA0B00EA
:1060400022CA0B0040CA0B0027CA0B0073CA0B0000
:10605000CBC70B0044CA0B0066CA0B006CCA0B000E
:106060002DE9F74304464FF42F701E460F46904625
:1060700001F084F9E37C013B012B054626D801465B
:1060800043463A462046FFF723FFA37C23B101F0A5
:10609000B7FE114902F031FC606803680096D3F83E
:1060A000009039462B464246C8470746284601F02D
:1060B0006DF91EB101213046FDF7F1FF002307B154
:1060C00063743846237403B0BDE8F083014620466C
:1060D000FFF746FED9E700BF7ACA0B0070B5044649
:1060E00001200D461646FDF7D6FF067003462A46E8
:1060F00029462046BDE87040FFF7B2BF2DE9F047C2
:106100000446182015460F46FDF7C5FF07F1040A9F
:106110006B68D5F80090BA6843610646C0F81090E5
:106120005546012352B11369D2E902014B45154688
:10613000CBBF0123002302460A46F3E7ABB1FB685D
:10614000AB4224D0284603F04DF98046D8F81030F1
:106150004B451CDB18213046FDF7A1FFC4F8008039
:10616000002323712046BDE8F087A846EEE72869A2
:106170008145ACBF0020012053462A46314603F03A
:1061800033F97B69266001337B610123E9E7AA4586
:10619000EDD10120F0E7000008B5074B07480022C9
:1061A0001A7001F0BBFC064801F0B8FCBDE80840DD
:1061B000044802F04BBF00BF40E6032024E6032062
:1061C000BCE50320D8E503200175704738B50446C7
:1061D0004CB1E068FFF7FAFFA56820461821FDF7EB
:1061E0005EFF2C46F4E738BD30B5064D0560C0E9CA
:1061F00001130025039B057541F28835C0E9033280
:10620000856130BD24CB0B002DE9F84F0D461746B4
:10621000804601F0F5FD1E491E4EDFF87CA0DFF838
:106220007CB002F06AFB0024304601F03EFC60BB0B
:10623000052C2AD098F81430C3B101F0E1FD514685
:1062400002F048FB01F0DCFD294602F043FB01F0BF
:10625000D7FD594602F03EFB01F0D2FD0A228146ED
:10626000214602F054FB484602F03BFB304601F069
:1062700005FC0023BAB22946304601F049FA4FF432
:106280007A7002F02BFA0134CEE7BDE8F88F00BF38
:106290008ACA0B0044E603207CC70B0092C70B00A0
:1062A00070B504460E4681682E48154602F012FB72
:1062B0002D492C4802F00EFBE1682A4802F00AFB47
:1062C0002A49284802F006FB3146264802F002FB24
:1062D0002749244802F0FEFA2946224802F0FAFA39
:1062E0002449204802F0F6FA237D002B38D001F033
:1062F00087FD214902F001FB01F082FD1F4902F0F8
:10630000FCFA01F07DFDA16802F0E4FA01F078FDED
:10631000154902F0DFFA01F073FDE16802F0DAFAE4
:1063200001F06EFD114902F0D5FA01F069FD314628
:1063300002F0D0FA01F064FD0D4902F0CBFA01F051
:106340005FFD294602F0C6FA01F05AFD094902F044
:10635000C1FA01F055FDBDE87040094902F0CDBA1F
:1063600070BD00BF44E60320A2CA0B00A5CA0B0003
:106370004BCA0B0075CA0B00BDCA0B00A7CA0B00A5
:10638000BCCA0B00F8B50E4F04460026384601F093
:106390001BFB054690B9A369B3420FDD012002F053
:1063A0009DF9A3690136B342F0DC207D28B101F0EC
:1063B00027FD044902F0A1FA2846F8BD0120FCE7B8
:1063C00044E60320D6C70B002DE9F047037D0646BF
:1063D000884614464BB101F013FD274902F08DFAAF
:1063E00001F00EFD254902F088FADFF8A49000259F
:1063F00040F2BB2A484601F0E7FA78B1484601F07E
:10640000F1F8337DC7B22BB101F0FAFC03683946CD
:106410009B689847675501355545EBD1337D23B1CE
:1064200001F0EEFC164902F068FA002363551549A5
:10643000404603F08CFE68B91349204603F0E6FE9F
:106440009FED120A0028F7EE007A18BFB0EE670A37
:10645000BDE8F0877C21204603F06CFE48B1013096
:1064600003F01CFE51EC100B03F0A4FD00EE100A2B
:10647000EEE79FED060AEBE7CBC70B00B7C70B00B3
:10648000CAC70B00C2CA0B00C7CA0B005F42A2CD2D
:1064900044E6032070B52DED028B04464168224886
:1064A00042F234321D46002301F032F92046616881
:1064B00042F23432FFF7A8FE1B4801F0A7F980B181
:1064C0002946194802F006FA2046FFF75BFF054609
:1064D00080B9154801F0D2FA0025BDEC028B2846A0
:1064E00070BD237D002BF4D001F08AFC0F4902F02F
:1064F00004FAEEE7642000F041FF0D49024606462B
:106500002046FFF761FF3046B0EE408A00F03EFFC4
:10651000DFED087AB4EE678AF1EE10FAD9D00248BE
:1065200001F0ACFAD9E700BF44E60320CACA0B0069
:10653000C2CA0B005F42A2CD70B52DED028B04469E
:1065400000230D46164641681E4842F2343201F0DF
:10655000DFF82046616842F23432FFF755FE1948F1
:1065600001F054F928B3204632462946FFF798FE39
:106570002046FFF707FF48B912489FED138A01F044
:106580007DFAB0EE480ABDEC028B70BD4FF42F705F
:1065900000F0F4FE0D49024605462046FFF714FFC1
:1065A0000848B0EE408A01F069FA284600F0EEFE95
:1065B000E7E7237D002BDFD001F022FC044902F045
:1065C0009CF9D9E744E603205F42A2CDE8CA0B005C
:1065D000EBCA0B002DE9FF470D4604464FF42F7020
:1065E00000F0CCFE2B7D07464BB101F009FC3A4987
:1065F00002F083F901F004FC384902F07EF9DFF87B
:10660000F090002640F2BB2A484601F0DDF988B13F
:10661000484600F0E7FF2B7D5FFA80F82BB101F0D0
:10662000EFFB036841469B68984707F806800136F0
:106630005645E9D12B7D23B101F0E2FB284902F058
:106640005CF90025231DC4E90253C4E9043525493A
:1066500025713846BD5504F01DFCDFF89890DFF831
:1066600098A0DFF8808006467EB34946304603F0A6
:106670006EFD00BB414604F00DFC1B49064603F0CD
:1066800066FD18B9194B0095019308E0304603F0F8
:1066900005FD51EC100B009503F08CFC01906A464F
:1066A000214602A8FFF72AFD4146002004F0F2FB34
:1066B00001350646D8E75146304603F048FD00282C
:1066C000F2D1414604F0E6FBDCE7384600F05EFE1E
:1066D000204604B0BDE8F087CBC70B00B7C70B005E
:1066E000CAC70B00A5CA0B0011CB0B005F42A2CD9D
:1066F00044E60320C7CA0B0016CB0B002DE9F0417E
:10670000071D98460023C0E90237C0E904730371EE
:106710000D4688B04968044616462D4842F2343288
:1067200000F0F6FF2846696842F23432FFF76CFD4C
:10673000274801F06BF810B3314642462846FFF770
:10674000AFFD2846FFF71EFE0646C0B92048214F80
:1067500001F094F92049404604F09CFB35461E4E5A
:10676000002830D0214602A86A4600950197FFF71D
:10677000C5FC31460020013504F08CFBF0E72946CA
:1067800002A8FFF727FFA068FFF720FD049A002367
:10679000C4E90237C4E904737AB19DF80C10217181
:1067A0000599E1600699A26021615760079A6261CC
:1067B00003AACDE90522049307930498FFF706FD89
:1067C000034801F05BF9204608B0BDE8F08100BF46
:1067D00044E603205F42A2CD42CA0B00014801F00B
:1067E0009DB900BF44E6032070B50446054B44F84C
:1067F000043B0D1D06460FCD0FC42B682370304699
:1068000070BD00BFCCCC0B0038B5044698300D46A7
:1068100001F056FB4FF0FF33C4F8BC300023256075
:10682000C4F8B830204638BD2DE9F04105460E4683
:1068300000F024FC43F697280746286803681B6984
:106840009847044630B900F019FCC31B4345F4D9FE
:10685000204605E0286803685B699847307001208E
:10686000BDE8F08138B5158829441446FFF7DCFFF0
:1068700008B10135258038BD2DE9F743051D88464F
:1068800000270DF1060229460446ADF80670FFF711
:10689000E9FF18B9002003B0BDE8F08394F8049034
:1068A0008DF8057001260DF105012046FFF7BCFFAC
:1068B0000028EFD0BDF806209DF80510531C224497
:1068C0009BB2117101F07F0212FB06F217440A0617
:1068D000ADF80630BFB24FEAC616E4D409F0F009AD
:1068E000013BB9F1300F88F800301ED10DF10602DE
:1068F00029462046FFF7B6FF0028CBD00DF106024F
:1069000029462046FFF7AEFF0028C3D098F8003094
:1069100023445A799E79237906EB02269B07B6B267
:1069200001D50236B6B2022501E000252E46ADB2F1
:10693000BD4226D20DF105012046FFF775FF002864
:10694000A8D0D4F8B80078B1B9F1300F0CD1BDF8A7
:10695000063098F800209B1A023BB34204DD03681E
:106960009DF805109B689847BDF806307F2B9EBFA9
:10697000E2189DF8051011710133ADF806300135AC
:10698000D5E7D4F8B8302BB9BDF80620802A88BFE7
:10699000ADF80630BDF806007DE72DE9F341154658
:1069A0001E461A4607460023964602A802F07F0CB0
:1069B000BEF17F0F03F10104034488BF4CF0800C4B
:1069C000BEF17F0F4FEAD212E4B203F804CC20D814
:1069D000C4F10403C4F10500E954224601A9284486
:1069E00005EB030803F061FB38680368721C22445E
:1069F000DB6841469847054600F040FB621CC7F83B
:106A000088003244A8B2131A5842584102B0BDE877
:106A1000F0812346C8E70233F0B501399CB2002368
:106A20005E1C14FA83F08F5D9DB280B217B11754CB
:106A30003346F5E799B2411A0A44290A02F8021CC2
:106A400002F8013CF0BD38B50446006808B90020E2
:106A500038BD03681B6B984780B9D4F8BC50002D33
:106A6000F5D120686FF00203C4F8BC300368DB691D
:106A7000984720680368DB6A9847E8E70120E7E762
:106A80002DE9F04F8BB00446DDF85080894617465B
:106A90001E46FFF7D8FF0546002840F0A580D4F831
:106AA00000A0D4F8B010DAF80030002979D0B4F89A
:106AB000B420D3F824B003465046D847012840F00C
:106AC0009A804F4BA4F884009A88ADF81420186877
:106AD000BDF814209B7904908DF81630C4F8090095
:106AE000A4F80D20E373B8F1000F66D09DF858307C
:106AF0009DF854205B0143EAC20343F00603DBB276
:106B00001FB1002E5BD143F0800323740023637414
:106B10000F23221DA374494620460192FFF77BFFF5
:106B2000019A0346B8F1000F0BD041462046FFF70B
:106B300072FF019A179903462046FFF76CFF019AEE
:106B400003466FB1394620460192FFF764FF019A70
:106B500003462EB131462046FFF75DFF019A0346FA
:106B6000053B9BB210212046FFF717FF00F086FA85
:106B7000C4E9220043F69726206803681B699847FA
:106B800000BB00F07BFAD4F88C30C01AB042F3D9C5
:106B90006FF00303C4F8BC3020680368DB6A9847D1
:106BA00022E004F1980104A8D3F820B0FFF71CFEFE
:106BB000B4F8B4202B4604A97EE70223A0E743F0F3
:106BC000C003A2E70DF10F012046FFF755FE042890
:106BD000E2D1E67966B900F051FA0125C4F88C00DB
:106BE00084F89060C4F8BC6028460BB0BDE8F08F14
:106BF000C4F8BC60D0E76FF00103C4F8BC30F3E721
:106C000034CB0B001FB50024CDE90244CDE900448C
:106C1000FFF736FF04B010BD2DE9F04F85B000AF8F
:106C20000446FFF710FF8146D8B100F027FAD4F8E8
:106C30008C3043F69822C31A9342804604D8D4F885
:106C40008830C31A93421ED994F8903020686BB1F3
:106C50006FF00303C4F8BC300368DB6A98474FF059
:106C6000000948461437BD46BDE8F08F2146C023D1
:106C700021F8043F03680222DB689847C4E92288B0
:106C8000012384F89030206803681B699847002826
:106C9000E7D007F10F012046FFF7EEFD054600287B
:106CA000DFD023797B6003F0F003302BC4F88C80B5
:106CB0004DD1D4F894A0BAF1000FD2D0FE7BA31925
:106CC000EB4659799A7902EB012292B202F108035C
:106CD000DB08ABEBC3039D46F11D214468463A60D7
:106CE00003F0E3F979683A6801F00601A81B002374
:106CF0000338022906F103010DF80230A0EB02006F
:106D000004F1040311441DD121447B6091F804C0B7
:106D10004D79711D05EB0C2511441944821EADB24D
:106D20006846D0476DBA2068E5804FF41072A280A3
:106D300002687B68D56819460422A847C4F8888091
:106D4000DD468EE7024619446846D047F8E7C02B77
:106D500009D1D0232146A38051F8040B03680222F5
:106D6000DB6898477DE7D02B04BF002384F8903080
:106D700077E72DE9F34104469DF8207088461646D2
:106D80001D46FFF760FE38B3404603F010FAEB1DD6
:106D90001844802820D8221D052341462046019210
:106DA000FFF739FE019A0023C1189D4289B207D925
:106DB000214416F803C081F804C001339BB2F3E705
:106DC0004B1F002F9BB20CBF30213121204602B057
:106DD000BDE8F041FFF7E1BD002002B0BDE8F08161
:106DE0001FB5044610460391029203F0E0F90346F2
:106DF00000200090DDE902212046FFF7BAFF04B031
:106E000010BDC0F8B010A0F8B420704708B5024B10
:106E10001B681B68019308BD4C02030008B5024BB8
:106E20001B685B68019308BD4C02030008B5024B68
:106E30001B681B69019308BD4C02030008B5024B97
:106E40001B685B69019308BD4C02030008B5024B47
:106E50001B689B69019308BD4C02030008B5024BF7
:106E60001B68DB69019308BD4C02030008B5024BA7
:106E70001B681B6A019308BD4C02030008B5024B56
:106E80001B681B6A019308BD2802030008B5024B6A
:106E90001B685B6A019308BD2802030008B5024B1A
:106EA0001B689B6A019308BD2802030008B5024BCA
:106EB0001B68DB6A019308BD2802030008B5024B7A
:106EC0001B681B6B019308BD2802030008B5024B29
:106ED0001B681B6C019308BD2802030008B5024B18
:106EE0001B689B6C019308BD2802030008B5024B88
:106EF0001B685B68019308BD3802030008B5024BAC
:106F00001B689B69019308BD3802030008B5024B5A
:106F10001B68DB69019308BD3802030008B5024B0A
:106F20001B681B6A019308BD3802030008B5024BB9
:106F30001B689B6A019308BD3802030008B5024B29
:106F40001B68DB6A019308BD3802030008B5024BD9
:106F50001B681B6B019308BD3802030008B5024B88
:106F60001B685B6B019308BD3802030008B5024B38
:106F70001B689B6B019308BD3802030008B5024BE8
:106F80001B68DB68019308BD3C02030008B5024B97
:106F90001B681B69019308BD3C02030008B5024B46
:106FA0001B685B69019308BD3C02030008B5024BF6
:106FB0001B689B69019308BD3C02030008B5024BA6
:106FC0001B68DB69019308BD3C02030008B5024B56
:106FD0001B689B6A019308BD3C02030008B5024B85
:106FE0001B68DB6A019308BD3C02030008B5024B35
:106FF0001B681B6C019308BD3C02030008B5024BE3
:107000001B685B69019308BD6402030008B5024B6D
:107010001B681B6A019308BD6402030008B5024B9C
:107020001B685B6A019308BD6402030008B5024B4C
:107030001B689B6A019308BD6402030008B5024BFC
:107040001B685B6C019308BD4802030008B5024B46
:107050001B68DB6B019308BD7402030008B5024B8B
:107060001B685B68019308BD1802030008B5024B5A
:107070001B68DB68019308BD1802030008B5024BCA
:107080001B685B69019308BD1802030008B5024B39
:107090001B689B6D019308BD1802030008B5024BE5
:1070A0001B68DB6D019308BD1802030008B5024B95
:1070B0001B685B6E019308BD1802030008B5024B04
:1070C0001B685B69019308BD6C02030008B5024BA5
:1070D0001B689B68019308BD6802030008B5024B5A
:1070E0001B68DB68019308BD6802030008B5024B0A
:1070F0001B681B69019308BD6002030008B5024BC1
:107100001B689B69019308BD6002030008B5024B30
:107110001B68DB69019308BD6002030008B5024BE0
:107120001B685B6B019308BD6002030008B5024B4E
:107130001B681B6D019308BD6002030008B5034B7B
:107140001B68D3F89830019308BD0000600203006B
:1071500008B5024B1B689B68019308BD44020300FD
:1071600008B5024B1B68DB68019308BD44020300AD
:1071700008B5024B1B685B69019308BD440203001C
:1071800008B5024B1B68DB69019308BD440203008C
:1071900008B5024B1B681B6A019308BD440203003B
:1071A00008B5024B1B68DB6A019308BD440203006B
:1071B00008B5024B1B681B6B019308BD440203001A
:1071C00008B5024B1B689B6B019308BD440203008A
:1071D00008B5024B1B68DB6B019308BD440203003A
:1071E00008B5024B1B681B6C019308BD44020300E9
:1071F00008B5024B1B685B6C019308BD4402030099
:1072000008B5024B1B685B68019308BD4002030090
:1072100008B5024B1B689B68019308BD4002030040
:1072200008B5024B1B68DB68019308BD40020300F0
:1072300008B5024B1B681B69019308BD400203009F
:1072400008B5024B1B685B69019308BD400203004F
:1072500008B5024B1B689B69019308BD40020300FF
:1072600008B5024B1B68DB69019308BD40020300AF
:1072700008B5024B1B681B6A019308BD400203005E
:1072800008B5024B1B681B6B019308BD400203004D
:1072900008B5024B1B685B6B019308BD40020300FD
:1072A00008B5024B1B681B6C019308BD400203002C
:1072B00008B5024B1B685B6C019308BD40020300DC
:1072C00008B5024B1B681B68019308BD2002030030
:1072D00008B5024B1B685B68019308BD20020300E0
:1072E00008B5024B1B685B69019308BD20020300CF
:1072F00008B5024B1B689B6B019308BD200203007D
:1073000008B5024B1B68DB6B019308BD200203002C
:1073100008B5024B1B68DB6C019308BD200203001B
:1073200008B5024B1B685B6D019308BD200203008A
:1073300008B5024B1B689B6D019308BD200203003A
:1073400008B5034B1B68D3F88830019308BD0000D3
:107350002002030008B5034B1B68D3F89430019357
:1073600008BD00002002030008B5034B1B68D3F8DA
:10737000B030019308BD00002002030008B5024BA5
:107380001B681B68019308BD1C02030008B5024B73
:107390001B685B68019308BD1C02030008B5024B23
:1073A0001B689B68019308BD1C02030008B5024BD3
:1073B0001B68DB68019308BD1C02030008B5024B83
:1073C0001B68DB69019308BD1C02030008B5024B72
:1073D0001B685B6A019308BD1C02030008B5024BE1
:1073E0001B68DB6A019308BD1C02030008B5024B51
:1073F0001B681B6B019308BD1C02030008B5024B00
:107400001B68DB6B019308BD1C02030008B5024B2F
:107410001B681B6C019308BD1C02030008B5024BDE
:107420001B685B6C019308BD1C02030008B5024B8E
:107430001B68DB6C019308BD1C020300002340683D
:107440001A46FFF7DDBE406800220221FFF7E8BEC2
:10745000002240681146FFF7DBBE0022406811465B
:10746000FFF7E6BE002340681A461946FFF7E8BE5C
:10747000002340681A461946FFF7EABE406800211B
:10748000FFF70EBF40680021FFF712BF40680022DF
:1074900081F00101FFF7E4BE40680022FFF7F0BE73
:1074A000002240681146FFF7F3BE002240681146F3
:1074B000FFF7DEBE2DE9F04395B014460D460746B2
:1074C00000F0FEFC00211C220DA8009102F0FBFD43
:1074D00040230C9320466B460CAA0021FFF7FEFDCB
:1074E000044600284BD1024601216868FFF7A0FE40
:1074F0000221804622466868FFF79AFE009E814678
:107500002146002E3BD0002939D17368022B03D0CD
:107510000A2B11D0F669F4E7B8F1000FFAD07169BF
:1075200006A8043107AD00F01BFD0FCD3C1D0FC4B4
:107530002B6823704146EDE7B9F1000FEAD074697A
:10754000102201A802F0BFFD06238DF8143001AD12
:1075500004F108031834186859682A4603C208332E
:10756000A3421546F7D101A906A807AD00F0B6FC65
:107570000FCD3C1D0FC42B6823704946CAE7009805
:10758000FFF7A4FD384615B0BDE8F083024B034A6F
:107590001A6000225A60704760E6032044CB0B005B
:1075A00013B503688DF80710DC6B01224FF0FF3331
:1075B0000DF10701A04702B010BD10B40368DC6BE9
:1075C0004FF0FF33A4465DF8044B604713B51346F4
:1075D00002688DF80710D46B0DF107010122A04756
:1075E00002B010BD10B54369B3F88620B3F88430FB
:1075F0009A42044608D06369B3F88420511CA3F86A
:1076000084101344187910BD03681B69984700283B
:10761000F1D14FF0FF30F6E7704743691868C04377
:10762000C00F704770470000064B994210B500F13B
:107630000C0405D0084601F035FF002808BF0024DF
:10764000204610BDACCB0B0010B5AC210446FCF7B6
:1076500026FD204610BDAC21FCF721BD2DE9F041EF
:107660004FF0000886B01C46C0F8048005460E4660
:1076700017464146102202A802F025FD631C09D0DE
:107680004FF47A73B4FBF3F203FB1244CDE9022802
:107690005C430494686910230093006802AB41F2D4
:1076A000050240F6FF71FFF729FC002807DAFFF713
:1076B000A5FE03686B60002006B0BDE8F081686934
:1076C000002300683A463146FFF740FC031EEEDB1C
:1076D0001846F1E730B587B0044601AD684600F0C2
:1076E0003FFC0FCD04340FC42B68237007B030BDAE
:1076F00070B54D69054B04468C3544F8043B06468D
:107700000FCD0FC42B682370304670BDCCCC0B005E
:107710002DE9F0439846036893B00D460024DB6AD8
:1077200006461746984728466B462246214600944F
:10773000FFF7D4FC0546002863D1009B002B4BD0FB
:107740005B69002B48D006A800F0BAFB009B5C697F
:107750006378022B04D1211D06A8FFF7BBFF26E0AA
:107760000A2B24D11122294601A802F0ACFCA368FF
:10777000002B38D004F108030DF1040C18341868FC
:107780005968624603C20833A3429446F7D10623E0
:1077900001A90CA88DF8143000F0A0FB0DF1340CF9
:1077A000BCE80F0007AC0FC4DCF80030237006A85B
:1077B00000F0A6FB80B1336807ADD3F82090124BE0
:1077C0000C930FCD0DAC0FC42B6823703A46434683
:1077D0000CA93046C84705460098FFF777FC2846B5
:1077E00013B0BDE8F083E368002BC3D14FF6FF7000
:1077F000D4F81090FFF70AFC8145BBD104F11401C5
:10780000AAE72546E8E700BFCCCC0B0038B54369B2
:107810001A68002A054610DAB3F88620B3F88430D7
:107820009A420AD103681B699847044628B92B6815
:107830002846DB6A9847204638BD0120FCE710B592
:107840004369B3F88620B3F884309A42044605D0E1
:107850006369B3F884201344187910BD03681B6969
:1078600098470028F4D14FF0FF30F6E7F8B54369A8
:107870001746B3F88620B3F884309A4205460E4680
:1078800016D06969B1F88430B1F88640E41ABC4278
:1078900028BF3C46043322461944304602F005FC1A
:1078A0006A69B2F884302344A2F884302046F8BDD7
:1078B00003681B6998470028E3D14FF0FF34F5E7D0
:1078C00042690023A2F884304269A2F886307047EA
:1078D0002DE9F0411F4603680C46DB6A8AB0054675
:1078E00016469847237DD5F81480042B0CBF022040
:1078F0000A2006220121FFF739FBC8F800006B6956
:107900001B68002B08DA2B682846DB6A002498479E
:1079100020460AB0BDE8F0812846FFF7D1FFB7B195
:10792000002303A9F8B20393ADF81030FFF7C6FBAC
:107930000028E8D1686906230093006803AB41F290
:107940000B0240F6FF71FFF7D9FA0028DBD11C22A9
:10795000002103A802F0B7FB237D042B1DD14FF4B7
:1079600007733046ADF80C30FFF760FBADF80E0042
:107970006068FFF74BFB04906B691C22186803A931
:10798000FFF7CCFA0028BED104340FCC6D698C35DA
:107990000FC523682B700124BAE740F61C2330463C
:1079A000ADF80C30FFF742FB05AEADF80E00231D1D
:1079B00004F1140718685968324603C20833BB4201
:1079C0001646F7D1D8E7000030B54269B2F88630E4
:1079D0008BB004462BB1B2F884209A4201D1FFF754
:1079E0006FFF61690868002818DBB1F886507F2DA9
:1079F00014D804310823C5F180022944FFF796FA10
:107A0000002813DD6369B3F886200AB9A3F884203F
:107A10006369B3F886201044A3F886006369B3F85D
:107A20008600B3F88430C01A0BB030BDFFF7E6FC17
:107A300003680B2BF2D0FFF7E1FC03680B2BEDD0B2
:107A400020230025CDE90235FFF7D8FC0368019318
:107A5000084B0949009302AA2B463220FFF766FB28
:107A600063691868FFF752FA63694FF0FF321A60D2
:107A7000D4E700BF7FCB0B0078CB0B0010B5436978
:107A800004461868002801DBFFF740FA63694FF0ED
:107A9000FF321A606069112200218C3002F013FB62
:107AA0002046BDE81040FFF70BBF43691868C0438C
:107AB000C00F704710B5002304460160C0F8843041
:107AC000883000F0FDF9204610BD000073B500239A
:107AD0004FF47A72C0E901320E4A036102604361D9
:107AE0000446AC200191FCF7D6FA051E05F10C0600
:107AF00008D00123C5E90133074B01992B603046BB
:107B0000FFF7D8FF2046C4E90565FFF7D9FE02B0AC
:107B100070BD00BFBCCB0B0098CB0B0010B54FF075
:107B2000FF310446FFF7D2FF204610BD10B50446D2
:107B30000068002801DBFFF7E9F9204610BD0C3092
:107B4000FFF7F4BF7047F8B5064615460C468F1888
:107B5000BC4206D0336814F8011B9B683046984736
:107B6000F6E72846F8BD007C0022FFF787B9007CC5
:107B70000021FFF78BB9007C0021FFF78FB9007C53
:107B80000021FFF793B9007C0021FFF797B910B5EA
:107B900014210446FCF783FA204610BD10B54FF4BB
:107BA0007A73044608460021C4E90113034B23609D
:107BB00020741146FFF78AF9204610BD08CC0B004F
:107BC00008B50021007CFFF789F9B0FA80F0400980
:107BD00008BD10B5836804460BB901F060FCC368AA
:107BE0009847A3681BB103222146204698472046A8
:107BF0001021BDE81040FCF752BA7047417470473D
:107C000008B5007CFFF7E2F920EAE07008BD08B58E
:107C1000007CFFF7BBF920EAE07008BD08B5007CE6
:107C2000FFF7C4F940EAE07008BD08B5007CFFF733
:107C3000B5F940EAE07008BD007CFFF7BFB937B581
:107C4000457C04462DB1207C03B0BDE83040FFF7F1
:107C500095B9007C0191FFF7B9F900280199F2DC90
:107C6000284603B030BD10B514210446FCF717FABE
:107C7000204610BD10B54FF47A73044608461146ED
:107C80000022C4E90123044B2360012320746374A0
:107C9000FFF7ACF9204610BD30CC0B00007C002370
:107CA000FFF79CB90022FFF7F9BF00224068114698
:107CB000FFF7BEBA002240681146FFF7D9BA00228A
:107CC00040681146FFF7E4BA40680022FFF7D8BACF
:107CD0004068002281F00101FFF7C2BA002340682A
:107CE0001A461946FFF7B4BA002340681A461946E7
:107CF000FFF7A6BA002240681146FFF789BA40682C
:107D000000220221FFF78CBA002340681A46FFF7D1
:107D100077BA0000084B10B52824224618460021E7
:107D200002F0D1F9054B04804FF0FF32426004228B
:107D30005A60034A1A6010BD70E6032068E603200B
:107D400060CC0B00417470477047704708B5002144
:107D5000007CFFF77BF840EAE07008BD08B5012120
:107D6000007CFFF773F840EAE07008BD08B5007CBE
:107D7000FFF764F820EAE07008BD08B5007CFFF763
:107D800055F820EAE07008BD13B50446007C019167
:107D9000FFF754F80028019901DC607C20B1207CB9
:107DA000FFF75CF820EAE07002B010BD007CFFF73E
:107DB0005DB810B514210446FCF771F9204610BDDA
:107DC00010B54FF47A73044608460021C4E9011344
:107DD000044B23600123207463741146FFF716F8E7
:107DE000204610BD9CCC0B00007C0022FFF716B88B
:107DF00010B514220446002102F065F9204610BD9A
:107E000010B50F4C88B003A8FFF7F2FF2178BFF33D
:107E10005B8F11F001010FD120460191FCF741F970
:107E2000019948B103AA0748FFF7CAFF2046FCF7AB
:107E30003DF9054802F02CF9024808B010BD00BF1A
:107E400098E603209CE60320497D0B00704710B59F
:107E500018210446FCF723F9204610BDF0B5037D38
:107E6000062B8DB00E4600F104074FF0000412D02F
:107E700000F1080515F8011D0A22304600F047FD03
:107E8000AF42044419D0002CF4D02E21304600F02B
:107E900025FD0444EEE72F236A4639460A208DF873
:107EA0000040FFF7ABF8684602F081F933680246FC
:107EB000DB68694630469847044620460DB0F0BD61
:107EC00010B5054B0446112240F8043B002102F096
:107ED000FAF8204610BD00BFCCCC0B000346074A81
:107EE00010B543F8042B01F1100251F8044B43F88C
:107EF000044B9142F9D10A781A7010BDCCCC0B001A
:107F0000037D042B04D14068003818BF012070475E
:107F1000062B07D143683BB983682BB9C3681BB9EB
:107F20000069F1E7002070470120704710B59DF807
:107F3000084044EA032343EA024242EA016104237F
:107F40004160037510BD000013B5044C04609DF83A
:107F500010400094FFF7EAFF02B010BDCCCC0B003C
:107F600007B5064B0360CB7800938B784A78097885
:107F7000FFF7DCFF03B05DF804FB00BFCCCC0B00C7
:107F800070470020704710B510210446FCF787F8B1
:107F9000204610BD08B5FFF7F6FF08BD30B500223A
:107FA0004FF69C74026084808D888C800C6885807C
:107FB00004600A6030BD10B504460068FFF7E6F9BA
:107FC000204610BD38B5C468F4B12378022B03D124
:107FD00004F10C00FFF7EFFF656835B12846FDF7A7
:107FE00015F910212846FCF75AF8A56835B128463E
:107FF000FDF70CF910212846FCF751F82046142112
:10800000BDE83840FCF74BB838BD08460021FFF703
:10801000E7B81FB50C23ADF8043003688DF80630BF
:10802000037A8DF80730436802930021437AADF854
:108030000D1001A88DF80F108DF80C30FFF7D8F84F
:1080400005B05DF804FB1FB50C22ADF804200268F2
:108050008DF80620027A8DF80720426802920023EC
:10806000427A8DF80C20194601AA0220ADF80D3095
:108070008DF80F30FFF7A4F805B05DF804FB0B682E
:1080800003604B68436013B15A6801325A6070470D
:1080900037B5044668460D46FFF7F1FF009B019A8D
:1080A00023606260002301A801930093FCF780FB2A
:1080B00035B1281DFCF77CFB08212846FBF7EFFFB4
:1080C000204603B030BD13B50B460246D0E900018F
:1080D0006C4684E8030093E8030082E8030094E818
:1080E000030083E8030002B010BD826810B50AB92E
:1080F00001F0D5F9BDE81040C368184708B500681D
:1081000000F11001FFF7F1FF08BD826810B50AB950
:1081100001F0C5F9BDE81040C368184708B500680C
:1081200000F11001FFF7F1FF08BD000038B5002392
:108130000446036010200D46FBF7ADFF28B1012374
:10814000C0E90133024B0360C5602060204638BDA2
:10815000E0CC0B0038B5002383608B6804460D46E5
:108160002BB102229847EB68E360AB68A36020461E
:1081700038BD0000F0B589B004686846FFF70EFF0F
:108180004FF00203D4E84F2F002A03D1C4E8413F47
:108190000029F7D125D104F10C0569462846FFF7DF
:1081A000FDFEBFF35B8F01236370002004F1080321
:1081B000BFF35B8F53E8006F43E80002002AF9D158
:1081C000BFF35B8F6EB1FFF7A3F878B12946304655
:1081D000FFF78BFF3046FDF719F810213046FBF70B
:1081E0005EFF6846FFF7E7FE09B0F0BD314602A822
:1081F000FFF7B0FFE068B4F9105008B101F0BAFF22
:1082000006901020ADF81C50FBF745FF0546E8B17D
:10821000002787601820FBF73EFF044688B101461F
:10822000876002A8FFF74FFF049BA268A360059B2D
:10823000049206A9E268E36004F110000592FFF7DA
:10824000ADFE084BEB60084B2C60AB6006A8FFF757
:10825000B2FE02A8FCF7DAFF002229460348FFF726
:108260005FF8B7E7FD800B0081830B00D37B0B0029
:108270002DE9F04F8BB005469DF850A00F46904673
:108280009946FEF775FF07AE834638BB4FF62E734F
:10829000059005A93046ADF81830FFF77FFE142091
:1082A000FBF7F9FE044648B1022303700123C0E93D
:1082B00001BB437031460C30FFF770FE2846214663
:1082C00040F8044BFFF732FF3046FFF774FE05A875
:1082D000FFF771FE28460BB0BDE8F08F0C23002499
:1082E0001420CDE908440793FBF7D5FE014618B1E9
:1082F000C0E901440470447004A80391FFF716FF1D
:108300001E4B08930820FBF7C6FE044610B103A9D4
:10831000FFF7B5FE00965FFA8AF34A4641463846B3
:108320000994FEF735FFB8B9039B5B7803F0FF02B1
:1083300093B94FF69C7305A903A80592ADF81830C0
:10834000FFF718FF05A8FFF736FE05A80999FFF704
:108350009FFE06A8FCF72CFA03A905A8FFF78FFEDD
:10836000059B069A2B606A60002306A80693059376
:10837000FCF71EFA04A8FCF71BFAABE7FD830B0021
:10838000012AF8B5054603D10B6803600020F8BD4B
:10839000022A10D0032AF9D10468002CF6D004F187
:1083A0001000FFF708FE2046FCF730FF182120469A
:1083B000FBF775FEEAE718200E68FBF76CFE044633
:1083C00050B13146FFF7C6FE3069B6F9147008B1F6
:1083D00001F0D0FE2061A7822C60D7E738B50023DA
:1083E00083608B6804460D462BB102229847EB68E8
:1083F000E360AB68A360204638BD0000F0B589B0EB
:1084000004460D4601A81146FFF742FEA4B124B26E
:108410001DB1284601F0AEFE054601A803A903954B
:10842000ADF81040FFF7A6FE03A8FFF7C4FD02A8B1
:10843000FCF7BEF909B0F0BD019D0123D5E84F2F2F
:10844000002A03D1C5E8413F0029F7D1EFD12B73B2
:10845000BFF35B8F6B702B1DBFF35B8F53E8006F17
:1084600043E80042002AF9D1BFF35B8F002EDED033
:108470002046FEF74DFF074660B105F10C0130467E
:10848000FFF743FE3046FCF7C1FE10213046FBF7F4
:1084900006FECCE7314603A8FFF7A0FF2B7B8DF843
:1084A0001C301020FBF7F7FD0546D0B18760142083
:1084B000FBF7F1FD044678B18760014603A8FFF79A
:1084C00002FE059BA268A360069B0592E268E3603A
:1084D0009DF81C3006922374064BEB60064B2C6013
:1084E000AB6003A8FCF792FE002229460348FEF782
:1084F00017FFC7E71D810B0001850B00D37B0B0025
:10850000012A70B5044603D10B680360002070BDDA
:10851000022A0CD0032AF9D10468002CF6D0204698
:10852000FCF774FE14212046FBF7B9FDEEE714209A
:108530000E68FBF7B0FD054620B13146FFF74EFF50
:10854000337C2B742560E1E7014B1860704700BF56
:108550008CDF032008B50B4B43B1FFF751FC0368D8
:108560001B699847002801DDAFF30080064B43B13B
:1085700000F0BCFE03681B699847002801DDAFF3DB
:10858000008008BD000000000000000008B5FFF7F3
:10859000E1FFFEF773FD014B186008BD44E70320BF
:1085A0000548064A064908B5121A01F07EFD054B3A
:1085B000054A1A6008BD00BF00F4032004F403203C
:1085C000B4D30B0000F403201E1C279A07B5002328
:1085D00000931A466FF07701FEF7BCFE03B05DF81A
:1085E00004FB000007B543880A2B08D0502B0BD1A1
:1085F000094B1B684BB103B05DF804EB1847FFF75C
:10860000E5FF03B05DF804FB002300931A466FF00A
:108610007701FEF79FFEF4E7B4E6032010B5124899
:108620000021FEF7FBFE114B1A68114B9A42114BC9
:108630000CBF012200221A7001D0FFF7B1FFFEF734
:108640000DFD044601F048FD0B4B13B12046AFF37E
:10865000008000210848FEF7BBFDBDE81040074838
:108660000021FEF76DBE00BF49850B0000F403201A
:108670001E1C279AB0E6032000000000E5850B00D1
:108680000068FFF79DBA10B50446016002710AB197
:10869000FFF7F6FF204610BD13B50446019100F028
:1086A000E5FD019A01462046FFF7EDFF204602B0A6
:1086B00010BD10B50C46FEF719FDFEF71FFD28B1E1
:1086C00024B1BDE81040E720FEF720BD10BD00003A
:1086D000014B00229A607047B8E603200021FEF7A4
:1086E000FFBD00002DE9F041154ADFF86080D2E9B6
:1086F0000063801943EB0101124BD3E90067D8E90D
:108700000023861941EB0707BB4208BFB2428CB079
:1087100013D003A96846CDE90067FEF787FE089BE2
:10872000094D03F26C7303AC08930FCC0FC50FCC4B
:108730000FC5C8E9006723682B600CB0BDE8F08165
:10874000F8E60320F0E60320CCE6032000E7032050
:1087500008B50020FEF72CFD28B1FEF709FD80F0DA
:108760000100C0B208BD0120FCE710B50020FEF7F3
:108770008DFC0446A0B9FEF7A3FD012810D12046C8
:10878000FEF7D6FD60B9FFF7E3FF10B9FEF7E0FC96
:10879000F9E7FFF7DDFFBDE810400020FEF776BCEB
:1087A000204610BD1FB5FFF7E0FF102200216846EC
:1087B00001F089FC00216846FEF778FC009805B0BE
:1087C0005DF804FB08B5FFF7EDFFC117FFF78AFF5F
:1087D000014B586808BD00BFCCE60320024B1A6865
:1087E000024B1A60704700BF88DF0320C8E60320F1
:1087F000014B024A1A60704708E7032010CD0B00B6
:1088000010B50446FEF73AFCE060236820465B6939
:108810009847002808DAFEF731FCE368C01AA3681D
:108820009842F2D34FF0FF3010BD000038B50D462E
:108830000749044600F00DF92846FFF7E1FF00283C
:1088400004DBC1B2204600F054F9F5E7204638BDFC
:1088500053C90B0070B50D4609490446164600F091
:10886000F8F82846FFF7CCFF002806DB864204D044
:10887000C1B2204600F03DF9F3E7204670BD00BFCD
:1088800053C90B00F8B506460D468F180024BD42AB
:108890000CD0336815F8011B9B6830469847031EBF
:1088A00001DB1C44F3E7002C08BF1C462046F8BD42
:1088B00013B50446084659B1019101F078FC2368CC
:1088C0000199DB680246204602B0BDE81040184717
:1088D00002B010BD08B5FFF7EBFF08BD03689B6849
:1088E000184738B50D210546FFF7F8FF0A21044661
:1088F0002846FFF7F3FF204438BD38B50546FFF79B
:10890000D7FF04462846FFF7ECFF204438BD30B5BA
:108910008BB00023012A8DF8243098BF0A2209ACBD
:108920000D46B1FBF2F101FB125303F0FF03092BDB
:1089300094BF30333733DBB2AA4204F8013DEFD99C
:108940002146FFF7B5FF0BB030BD2DE9F04186B0F1
:1089500000AF05460E46381D142114463B60FEF755
:1089600035FD13280ED8391D2846FFF7A1FF044610
:108970001EB12846FFF7B5FF044420461837BD4610
:10898000BDE8F08100F1080323F00703E846ADEBF2
:10899000030D2246411C3B686846FEF717FD6946F9
:1089A0002846FFF785FF0446C546E1E70248002355
:1089B0000360FEF743BB00BF0CE7032010B504467D
:1089C0000068FEF7E3FC204610BD10B504460068C1
:1089D00008B1FEF7DBFC0023C4E90133236010BDBE
:1089E00038B504460D4600680131FEF7D7FC10B1DA
:1089F000C4E90005012038BD10B50368044623B161
:108A000043688B4201D3012010BD2046FFF7E8FFE9
:108A10000028F9D0A368002BF5D122681370F2E783
:108A200037B50D46114601920446FFF7E5FF019A5E
:108A300028B92046FFF7C9FF204603B030BDA26029
:108A40002946206801F031FB2268A3680021D15437
:108A5000F2E7002313B5C0E90033044683600373D3
:108A600041B10846019101F0A2FB0199024620465E
:108A7000FFF7D6FF204602B010BD38B505460068A6
:108A80000C4668B16A688B689A4207D3096801F09E
:108A900068FBA368AB600023A36038BDFEF776FCDB
:108AA00023682B6063686B60A368AB600023C4E934
:108AB0000033F1E7884210B5044601D0FFF7DDFF2F
:108AC000204610BD70B505460E4609B9002070BDA0
:108AD0006AB1846814442146FFF78EFF0028F5D060
:108AE0002868AB683146184401F03BFBAC600120BC
:108AF000EDE707B500238DF80410012201A98DF8D8
:108B00000530FFF7DFFF03B05DF804FB58B50E46F4
:108B10002AB121B18468A34202D300230B7058BD4F
:108B2000E41A013A0168944228BF144619442246C7
:108B3000304601F058FB00233355F0E7006808B1D8
:108B400001F0AFBA7047000008B5006840B101F00D
:108B5000A5FA51EC100B01F02DFA00EE100A08BD39
:108B60009FED010AFBE700BF0000000007B50B46C0
:108B700000210246009101208C21FEF7F5FB03B095
:108B80005DF804FB01460020FFF7F0BF0020FFF76F
:108B9000F9BF0000054B02221A60054B054A9A6096
:108BA0000020C3E90000FEF793BB00BF1CE70320D1
:108BB00010E703200000FFFF10B40468246BA446F4
:108BC0005DF8044B604703689B6C1847808E7047C4
:108BD000028FC08E101A7047F0B5036889B09F6A83
:108BE0000C4B029300F1200604460FCE03AD0FC5D7
:108BF00033682B70A38EE28EE16B0093204602ABAC
:108C0000B84723680546DB6920469847284609B0DF
:108C1000F0BD00BFCCCC0B0007B503688DF8071082
:108C2000DB6801220DF10701984703B05DF804FBF2
:108C300010B503681B690446984728B1E38EE26BC0
:108C4000591CE186D05C10BD4FF0FF30FBE710B53A
:108C500003681B690446984718B1E38EE26BD05C49
:108C600010BD4FF0FF30FBE7704710B403460846D5
:108C7000DC6BD98E1A8F0368521ADB6821445DF8C9
:108C8000044B1847A0F11000FFF7EFBF70B5036861
:108C90008CB05B6A04460E461546984701231C2299
:108CA000002105A8029301F00EFA40F61C2330467D
:108CB000ADF81430FEF7BAF91122ADF81600022112
:108CC0000A20FEF753F90028606125DB0422009298
:108CD00002AB40F6FF71FEF711F9E8B995B10390C8
:108CE000ADF8100003A9E8B2FEF7E8F9A0B9062331
:108CF0000093606903AB41F20B0240F6FF71FEF78F
:108D0000FDF848B960691C2205A9FEF7EFF818B90B
:108D1000656401200CB070BD236820465B6A9847EB
:108D20000020F7E710B504464069002801DBFEF794
:108D3000EDF84FF0FF3363610023E386238710BD16
:108D400070B50546C06BEE8E68B12B6C9C1B9442CF
:108D500028BF14462246304401F0A7F9EB8E234485
:108D6000EB86204670BD0446F1E7D0B503681B6969
:108D700004460F461646984790B1236820461B6963
:108D80009847E38EE16B8642A8BF064619443246F7
:108D9000384601F08AF9E38E3344E3863046D0BD8D
:108DA0004FF0FF36FAE730B587B0044601AD6846AC
:108DB000FFF7D6F80FCD04340FC42B68237007B02B
:108DC00030BD0000F0B59646026889B0976A0A4A3D
:108DD00002921C1D8C4606460FCC03AD0FC52368BE
:108DE0002B70BDF838300093724602AB61463046B6
:108DF000B84709B0F0BD00BFCCCC0B0070B504463D
:108E0000054B44F8043B01F1200506460FCD0FC485
:108E10002B682370304670BDCCCC0B00F0B5437886
:108E2000022B8DB005460C46174604D1011D204685
:108E3000FFF7B9FF22E00A2B25D11122002101A85A
:108E400001F041F9AB6803B305F1080301AE05F188
:108E5000180C18685968324603C208336345164631
:108E6000F7D1062301A906A807AE8DF81430FFF745
:108E700035F80FCE04340FC4336823701FB16888EF
:108E8000FEF7CCF838800DB0F0BDEB68002BDBD1DD
:108E90004FF6FF702E69FEF7B9F88642D4D105F17E
:108EA0001401C4E72DE9F04117468EB000220646B2
:108EB00001AB084611460192FEF710F9041E20DBB3
:108EC000019B2BB35B691BB302A8FEF7F9FF019B63
:108ED0000022586902A9FFF7A1FF02A8FFF710F8C6
:108EE000B0B1336803ADD3F838800B4B08930FCD86
:108EF00009AC0FC42B6823703A4608A93046C04716
:108F000004460198FEF7E2F820460EB0BDE8F08175
:108F10004FF0FF34F5E700BFCCCC0B002DE9F04754
:108F2000D0F81490B9F1000F90B005460E46904667
:108F30001C463CDB00293AD04FF01C0A09AF5246D0
:108F40000021384601F0BFF8CDF80CA0DCB14FF499
:108F50007A73B4FBF3F203FB124400215C43102349
:108F6000CDE904210791009341F206026B4440F6DB
:108F7000FF7148460694FDF7C1FF044620B1204624
:108F800010B0BDE8F087082403ABCDE90073686931
:108F9000234642463146FDF7D1FF041EEFDB05F1C3
:108FA000340205F11C013846FFF738FFE7E74FF0C0
:108FB000FF34E4E738B5054614462B7D062B0846FA
:108FC00010D140F61C231380FEF730F808342B1D17
:108FD00024F8060C143553F8042B44F8042BAB4248
:108FE000F9D138BD042BFCD14FF404731380FEF784
:108FF0001DF860806868FEF709F86060F1E72DE908
:10900000F0438BB003AF4FF01C09984604460D4661
:10901000164600214A46384601F055F8BDF848107A
:109020003A464046FFF7C6FF9DF80D3053B1CDE9F3
:1090300000796069002332462946FDF78FFF0BB0A7
:10904000BDE8F0834FF0FF30F9E7000038B50025A8
:109050004FF47A73C0E901530B4B03F108026C33F0
:1090600003614FF0FF330446026043611C30FEF79A
:1090700027FF4FF40073C4E91035E5862587E563C3
:1090800084F84850204638BD14CD0B0010B590F838
:109090004830044623B1C06B10B10121FAF7FFFF3D
:1090A0000023E36384F848302364E386238710BDFC
:1090B00070B5044616460D46FFF7E8FF0023E66349
:1090C00023642EB12564206C003818BF012070BDC8
:1090D000002DF8D02846FAF7E0FF0123E06384F87A
:1090E00048300028EFD0EDE7F8B51746C26B0546CB
:1090F0000C461AB9016C09B1FFF7DAFF04340FCC42
:1091000005F120060FC6236833700023286CAF8654
:10911000EB862B87F8BD37B5C26B04460B462AB9E0
:10912000016C19B10193FFF7C3FF019BE16B0022B2
:10913000E286228741B1226C32B12068056B20465D
:10914000A8470028C8BF208723681B69204603B0B2
:10915000BDE830401847000010B5074B03F1080286
:109160006C33044602600361FFF7DCFD2046FFF725
:109170008DFF204610BD00BF14CD0B0010B5044676
:10918000FFF7EAFF20464C21FAF789FF204610BD81
:10919000002240681146FEF76BB800224068114675
:1091A000FEF776B840680022FEF76AB840680022F1
:1091B00081F00101FEF754B8002340681A461946B1
:1091C000FEF746B8002340681A461946FEF738B83D
:1091D000002240681146FEF72BB800224068114675
:1091E000FEF716B8406800220221FEF719B80023E6
:1091F00040681A46FEF704B8024B03225A60024A3E
:109200001A60704720E703208CCD0B0008B5024B95
:109210001B681B68019308BD5C02030008B5024B84
:109220001B685B68019308BD5C02030008B5024B34
:109230001B689B68019308BD5C0203007047000037
:1092400038B520251423044603608560056106496E
:10925000284600F06FF804496060284600F06AF87C
:10926000E060204638BD00BFC0CD0B0030B50E4DCC
:109270002978BFF35B8F11F0010487B011D1284624
:10928000FAF70FFF68B101A8FFF7DAFF01AA21463C
:109290000648FEF783FC2846FAF708FF044800F06A
:1092A000F7FE024807B030BD28E703202CE7032073
:1092B0003D920B007047000038B5044614252A463D
:1092C000002100F000FF2580402507492581284620
:1092D000258200F02FF804496060284600F02AF843
:1092E000E060204638BD00BFC0CD0B0030B50E4D4C
:1092F0002978BFF35B8F11F0010487B011D12846A4
:10930000FAF7CFFE68B101A8FFF7D6FF01AA214600
:109310000648FEF7AFFC2846FAF7C8FE044800F0FE
:10932000B7FE024807B030BD48E703204CE70320F2
:10933000B5920B00FAF7B1BEC3689A68C26010B567
:1093400002B1506042685A600C68844203D10B60DD
:109350009860436010BD916881420CBF9360D360F8
:10936000F6E78368DA68826010B502B1506042683F
:109370005A600C68844203D10B60D860436010BD12
:10938000D16881420CBFD3609360F6E7C36823B114
:1093900018469B68002BFBD170474368DA6882420D
:1093A00002D118465B68F9E7C268934218BF1846B5
:1093B0007047037833B943685B68834202D1DB6846
:1093C00018467047826822B11346D268002AFBD142
:1093D000F6E743689A688242F2D118465B68F9E77B
:1093E000FFF7D4BFFFF7E5BF2DE9F8431E4603F1B1
:1093F00004080023C1E902330C464A600B7000B335
:109400009642916018D17160F46001274FF0000915
:109410007368A3423FD060680278002A3BD1456858
:10942000AB68984223D1EB6883B11A7872B90770A0
:109430001F702A702C46EBE7B3689342E5D1B16008
:10944000E3E7D160F3689342DFD1DDE7C368A3426D
:1094500003D14146FFF770FF0446636841461F7021
:10946000284685F80090FFF77CFF2546E2E713B118
:109470001A78002ADBD08368A34203D14146FFF764
:1094800070FF0446636841461F70284685F80090C7
:10949000FFF752FFE9E701221A70BDE8F88308B52B
:1094A000FDF79CFF014900F0F9B800BFDCCD0B00CF
:1094B0007FB500241023CDE90234036815469E6968
:1094C00012686B46CDE90044B0479DF8043003F0C4
:1094D0000603062B03BF009B2B600120204604B02F
:1094E00070BD0098904214BF012006207047000014
:1094F00010B5034B0360044600F0CDF8204610BDC4
:109500001CCE0B0010B50446FFF7F2FF20460821E1
:10951000FAF7C5FD204610BD2DE9F0411F46DDE9F3
:109520000834DDF8188098450646154607D1079996
:1095300000F0B4F818B165710020BDE8F08139463B
:10954000304600F0ABF80028F6D00123C4F80080C4
:109550002571A371F0E738B515461C4600F09EF85A
:1095600020B10823E36006232560237138BD73B55D
:1095700005460C4601921E4600F090F850B9032EA5
:1095800008D82368019A5B692946204602B0BDE8E5
:109590007040184702B070BD10B5034B036004461D
:1095A000FFF7A6FF204610BD7CCE0B0010B5044689
:1095B000FFF7F2FF20460C21FAF771FD204610BD9F
:1095C000F7B5089F974205460E4614460AD0A8688C
:1095D00002680897156A31462246AC4603B0BDE8DA
:1095E000F04060471946019300F058F8019B0028AD
:1095F000EDD0062003B0F0BD2DE9F14F0D46194620
:10960000DDE90A4BDDE90CA681461746984600F0D5
:1096100045F890B1002D3460377109DB61198A4536
:109620000CBF06210121B171002001B0BDE8F08F0F
:109630000235F9D10123B371F6E7544506D15946F5
:10964000484600F02BF808B17771EDE7D9F808002B
:109650000368CDE90CA6CDE90A4BDC693A464346DE
:109660002946A44601B0BDE8F04F60472DE9F0411E
:1096700007460C4615461E46FFF76DFF48B9B86809
:1096800003689F692A4633462146BC46BDE8F0413F
:109690006047BDE8F081704700207047814208B5FF
:1096A0000ED0406803782A2B0CD049680B782A2BFF
:1096B00008BF013100F04BFDB0FA80F0400908BD51
:1096C0000120FCE70020FAE781F0004102E000BF42
:1096D00083F0004330B54FEA41044FEA430594EA72
:1096E000050F08BF90EA020F1FBF54EA000C55EAAD
:1096F000020C7FEA645C7FEA655C00F0E2804FEA7E
:109700005454D4EB5555B8BF6D420CDD2C4480EA5F
:10971000020281EA030382EA000083EA010180EA8F
:10972000020281EA0303362D88BF30BD11F0004FDD
:109730004FEA01314FF4801C4CEA113102D0404213
:1097400061EB410113F0004F4FEA03334CEA13334E
:1097500002D0524263EB430394EA050F00F0A78066
:10976000A4F10104D5F1200E0DDB02FA0EFC22FA61
:1097700005F2801841F1000103FA0EF2801843FA55
:1097800005F359410EE0A5F120050EF1200E012A46
:1097900003FA0EFC28BF4CF0020C43FA05F3C01884
:1097A00051EBE37101F0004507D54FF0000EDCF1FD
:1097B000000C7EEB00006EEB0101B1F5801F1BD3A6
:1097C000B1F5001F0CD349085FEA30004FEA3C0CAA
:1097D00004F101044FEA445212F5800F80F09A80A0
:1097E000BCF1004F08BF5FEA500C50F1000041EBA4
:1097F000045141EA050130BD5FEA4C0C404141EBA8
:109800000101013C28BFB1F5801FE9D291F0000FA2
:1098100004BF01460020B1FA81F308BF2033A3F151
:109820000B03B3F120020CDA0C3208DD02F1140C48
:10983000C2F10C0201FA0CF021FA02F10CE002F183
:109840001402D8BFC2F1200C01FA02F120FA0CFC7C
:10985000DCBF41EA0C019040E41AA2BF01EB0451C5
:10986000294330BD6FEA04041F3C1CDA0C340EDCC3
:1098700004F11404C4F1200220FA04F001FA02F306
:1098800040EA030021FA04F345EA030130BDC4F1C4
:109890000C04C4F1200220FA02F001FA04F340EAB9
:1098A0000300294630BD21FA04F0294630BD94F06A
:1098B000000F83F4801306BF81F480110134013D51
:1098C0004EE77FEA645C18BF7FEA655C29D094EAC2
:1098D000050F08BF90EA020F05D054EA000C04BF40
:1098E0001946104630BD91EA030F1EBF002100202B
:1098F00030BD5FEA545C05D14000494128BF41F0CA
:10990000004130BD14F580043CBF01F5801130BD2D
:1099100001F0004545F0FE4141F470014FF00000B8
:1099200030BD7FEA645C1ABF194610467FEA655C69
:109930001CBF0B46024650EA013406BF52EA03350B
:1099400091EA030F41F4002130BD00BF90F0000FF9
:1099500004BF0021704730B54FF4806404F1320435
:109960004FF000054FF0000150E700BF90F0000FEE
:1099700004BF0021704730B54FF4806404F1320415
:1099800010F0004548BF40424FF000013EE700BFE5
:1099900042004FEAE2014FEA31014FEA02701FBF75
:1099A00012F07F4393F07F4F81F06051704732F0A7
:1099B0007F4208BF704793F07F4F04BF41F40021FE
:1099C000704730B54FF4607401F0004521F000415C
:1099D0001CE700BF50EA010208BF704730B54FF0E6
:1099E00000050AE050EA010208BF704730B511F0E7
:1099F000004502D5404261EB41014FF4806404F11F
:109A000032045FEA915C3FF4D8AE4FF003025FEAA4
:109A1000DC0C18BF03325FEADC0C18BF033202EB28
:109A2000DC02C2F1200300FA03FC20FA02F001FA82
:109A300003FE40EA0E0021FA02F11444BDE600BF25
:109A400070B54FF0FF0C4CF4E06C1CEA11541DBFD4
:109A50001CEA135594EA0C0F95EA0C0F00F0DEF89F
:109A60002C4481EA030621EA4C5123EA4C5350EA84
:109A7000013518BF52EA033541F4801143F48013D5
:109A800038D0A0FB02CE4FF00005E1FB02E506F066
:109A90000042E0FB03E54FF00006E1FB03569CF0BB
:109AA000000F18BF4EF0010EA4F1FF04B6F5007FC1
:109AB00064F5407404D25FEA4E0E6D4146EB060633
:109AC00042EAC62141EA55514FEAC52040EA5E50BC
:109AD0004FEACE2EB4F1FD0C88BFBCF5E06F1ED866
