:02000002D0002C
:1040000000400D0098990D00000006000C0005010D
:084010000401E80500000000B6
:04401800448C0D00C7
:1040200009480A49884208B505D0094A824202D0A7
:10403000121A04F09FFD0748074A0021121A04F0E3
:10404000A4FD014808BD00BFD4D3032024970D0070
:1040500020D6032020D60320F0E7032070B503F01C
:10406000F5F8074C074BE41AA40800251E46A542A4
:1040700004D056F8253098470135F8E770BD00BFE9
:1040800020970D00D8960D0001F026B808B500F075
:10409000B3FBBDE8084003F09BB802F019B902F089
:1040A0001FB902F01DB90078B0FA80F040097047DE
:1040B00001230370704738B50446006928B185684C
:1040C0000C2103F099FC2846F8E7204638BD000093
:1040D00013B5054B1B788DF800303C23044602F0E5
:1040E000D7FE204602B010BD28D6032010B50446E6
:1040F000006808B102F0F4F8204610BD2DE9FF4732
:10410000244CDFF890A0174694F83A20951F48BF3A
:1041100002F1120588461E46814602F0CFFCE38F6D
:10412000029394F83C30019394F83B301A4A009380
:1041300000212B4603F0A5F902F0C0FC94F84020C2
:10414000019294F8422094F8413000920021134AE1
:1041500003F097F902F0B2FC94F8802094F87F30D5
:10416000009200210E4A03F08CF994F87F306BB175
:10417000DAF85430C9F80030DAF85830C8F80030AE
:10418000DAF860303B609AF88230336004B0BDE802
:10419000F08700BF0CD80320588C0D00738C0D00E5
:1041A0008A8C0D0000000000F0B52DED028B604CF4
:1041B0008BB004F5C8762546132003F0F9FB07EE13
:1041C000900AF8EEE77A0A20E5EC017A03F0B0F8FD
:1041D000AE42F1D1DFED577AB4EC017AA64277EE28
:1041E000877AF9D1DFED546A544B554C554D87EE23
:1041F000A67ADFED556A83ED007AC6EE877A534BD7
:10420000B7EE008A9FED527A77EEC87AC7EE276A3A
:10421000C6EE877AC3ED006AC4ED007A17EE900A05
:1042200004F046F941EC100B03F044FD51EC100B87
:1042300004F042FCDFED477A06EE900A86EEA77A9C
:1042400017EE100A04F034F931A3D3E9002303F088
:10425000D1FF04F031FC07EE100AC8EE077A17EE22
:10426000900A04F025F92CA3D3E9002303F0C0FF42
:1042700004F022FC206004F01BF929A3D3E90023F9
:1042800004F06AF90022344B03F0B4FF04F014FC8C
:10429000286002F013FC2D68304B24681F68064626
:1042A00006A801F06FFF069B05932846049704F0CB
:1042B000FFF8CDE90201204604F0FAF8284A294C1B
:1042C000CDE900010021304603F0DBF806A803F039
:1042D0002FF9212003F06CFB04F0D8F812A3D3E9E6
:1042E000002304F039F904F0E7FB206002F0E6FB5C
:1042F0000546206804F0DCF81B4ACDE900010021E6
:10430000284603F0BEF80BB0BDEC028BF0BD00BF39
:1043100083DBB5DCE1796B3F6666666666127140E9
:10432000CDCCCCCCCCCCFC3F9402C1D2AF63523FBD
:104330007CD60320000000000000C84290E3032068
:1043400058D6032074D6032000F07F4524D60320DE
:1043500000401C4600E076450000404094E3032006
:104360009F8C0D0040D60320CD8C0D0038B504681D
:1043700005467CB16368013B63605BB923682046F6
:104380009B689847A368013BA3601BB9236820463C
:10439000DB689847284638BD13460A46002103F0DB
:1043A00070B8000000B589B02249684603F007F9EB
:1043B00002F0F4FA204903F03AF802F0EFFA036849
:1043C000DB69984740F6FC0002F0B2FF02F0E6FA23
:1043D00003681B699847002826DD02F0DFFA0A22ED
:1043E000014604A802F0D2FF04A9684603F017F9B9
:1043F00004A803F09DF8114B1B7853B102F05EFB4B
:10440000009A0F49FFF7C8FF02F058FB0368DB6909
:1044100098470C4B1B783BB104A8009A0A49FFF758
:1044200057FE05A8FFF7A2FF684603F081F809B020
:104430005DF804FB7F8F0D0098E303203CD603203A
:10444000DA8C0D0048D60320EA8C0D0030B5194BEC
:104450008BB01B680493044610EE900A0D468DED58
:10446000070A04F025F89DED070ACDE9020110EED8
:10447000100A04F01DF82B46CDE9000122460E4932
:104480000E4801F03DFF0E4B1B782BB102F016FBDE
:104490000A4A0C49FFF780FF0B4B1B783BB108A879
:1044A000064A0A49FFF714FE09A8FFF75FFF0BB0A1
:1044B00030BD00BFECD30320F58C0D0098E3032042
:1044C0003CD60320148D0D0048D60320258D0D0009
:1044D00000B51A4B9BB01B680493194B186803F086
:1044E000E7FFCDE90201174B186803F0E1FFCDE9C2
:1044F0000001154B15491A680BA801F001FF02F0E5
:104500004DFA0BAA1249FFF747FF02F047FA44F6AB
:10451000206102F038FF02F041FA0A22014607A8A2
:1045200002F034FF02F0CAFA079A0A49FFF734FF93
:1045300007A802F0FDFF1BB05DF804FBECD30320DD
:104540002CD603208CE30320D4D30320348D0D001C
:10455000228D0D004D8D0D000A46002102F091BF05
:10456000F8B502F0ABFA1D491D4FFFF7F5FF012426
:10457000002503F097F9E1B202F08CF903F092F90B
:1045800002F090F9064650B902F098FA2346154A0F
:10459000314602F076FF012301353B7008E0042824
:1045A00006D102F08BFA23460F4A002102F069FF80
:1045B00001347F2CDDD135B902F080FA0B49FFF7C9
:1045C000CBFF074B1D7002F079FA0949FFF7C4FFD2
:1045D0004FF4FA60BDE8F84002F0AABED78D0D0096
:1045E0003DD60320F88D0D001D8E0D003F8E0D0071
:1045F000558E0D0000B589B01B49684602F0DFFFFB
:1046000002F0CCF91949FFF7A7FFC82002F090FE8D
:1046100002F0C4F903681B69984700281EDD02F008
:10462000BDF90A22014604A802F0B0FE04A96846BA
:1046300002F0F5FF04A802F07BFF0D4B1B782BB1B5
:1046400002F03CFA009A0B49FFF7A6FE04A8009A74
:104650000949FFF73DFD05A8FFF788FE684602F00F
:1046600067FF09B05DF804FB7F8F0D00758E0D00AC
:104670003CD603207A8E0D008C8E0D0010B58EB0C6
:104680000446514902A802F09AFF4F4906A802F0D9
:1046900096FF012C08D102F081F94C49FFF75CFF2D
:1046A00002F00CFA494907E002F078F94849FFF7AF
:1046B00053FF02F003FA4649FFF74EFF02F0FEF9FE
:1046C0000368DB69984702F069F90368DB6998477A
:1046D000C82002F02DFE02F061F903681B699847BB
:1046E000002832DD02F05AF90A2201460AA802F037
:1046F0004DFE0AA902A802F092FF0AA802F018FFD4
:1047000002F04CF90A2201460AA802F03FFE0AA96B
:1047100006A802F084FF0AA802F00AFF2D4B1B78BE
:1047200043B102F0CBF9069B00932B4A029B002178
:1047300002F0A7FE294B1B783BB10AA8029A284930
:10474000FFF7C6FC0BA8FFF711FE264B1B78002BCA
:1047500032D002F023F92449FFF7FEFEC82002F010
:10476000E7FD02F01BF903681B699847002823DD69
:1047700002F0A4F91D49FFF7EFFE02F00FF90A223B
:1047800001460AA802F002FE0AA902A802F047FFA9
:104790000AA802F0CDFE02F091F9029A1449FFF73F
:1047A000FBFD0E4B1B783BB10AA8029A1149FFF79B
:1047B0008FFC0BA8FFF7DAFD06A802F0B9FE02A8ED
:1047C00002F0B6FE0EB010BD7F8F0D00B98D0D004A
:1047D0005D8D0D003CD60320C18E0D0048D6032010
:1047E000DE8E0D0078D60320938D0D00E78E0D0030
:1047F000F78E0D000B8F0D001FB5224B1878A0B15E
:10480000214C01F0F7FB2368C01A43F69823984225
:1048100036D91E4B1E4A1F491F48FFF76FFCFFF792
:1048200057FE01F0E7FB20602AE0FFF727FF4FF477
:10483000FA7002F07DFDFFF7B7FC184BD3ED000ACC
:10484000174B93ED000A174B1968174B1868FFF7C1
:10485000FDFDFFF7A7FD4FF47A7002F069FD01201E
:10486000FFF70CFF4FF4FA7002F062FD01A80F4948
:1048700002F03EFF019808B101F032FD02F035FF71
:1048800004B010BD3DD603204CD60320CCE303205A
:1048900050D603202CD603208CE3032040D60320DF
:1048A00074D60320F0D30320D4D303205CD6032096
:1048B00000B589B03849684602F081FE02F06EF812
:1048C0003649FFF749FEC82002F032FD02F066F8D3
:1048D00003681B699847002821DD02F05FF80A226F
:1048E000014604A802F052FD04A9684602F097FEB2
:1048F00004A802F01DFE2A4B1B782BB102F0DEF853
:10490000009A2849FFF748FD274B1B783BB104A8C4
:10491000009A2649FFF7DCFB05A8FFF727FD244B8B
:104920001B78002B32D002F039F82249FFF714FE31
:10493000C82002F0FDFC02F031F803681B699847BB
:10494000002823DD02F0BAF81B49FFF705FE02F04C
:1049500025F80A22014604A802F018FD04A96846B9
:1049600002F05DFE04A802F0E3FD02F0A7F8009A51
:104970001249FFF711FD0C4B1B783BB104A8009ABC
:104980000F49FFF7A5FB05A8FFF7F0FC684602F00A
:10499000CFFD09B05DF804FB7F8F0D00148F0D0073
:1049A0003CD60320518D0D0048D603202C8F0D00DE
:1049B00078D60320358F0D00E78E0D00458F0D0052
:1049C0005E8F0D0010B588B004463B49684602F082
:1049D000F6FD24B901F0E2FF3849FFF7BDFD01F013
:1049E000DDFF3749FFF7B8FDC82002F0A1FC01F058
:1049F000D5FF03681B699847002821DD01F0CEFF31
:104A00000A22014604A802F0C1FC04A9684602F08B
:104A100006FE04A802F08CFD2A4B1B782BB102F095
:104A20004DF8009A2849FFF7B7FC284B1B783BB19B
:104A300004A8009A2649FFF74BFB05A8FFF796FC50
:104A4000244B1B78002B32D001F0A8FF2249FFF73E
:104A500083FDC82002F06CFC01F0A0FF03681B6915
:104A60009847002823DD02F029F81C49FFF774FD60
:104A700001F094FF0A22014604A802F087FC04A971
:104A8000684602F0CCFD04A802F052FD02F016F8D0
:104A9000009A1349FFF780FC0C4B1B783BB104A82C
:104AA000009A1049FFF714FB05A8FFF75FFC684662
:104AB00002F03EFD08B010BD7F8F0D006C8F0D0021
:104AC000808F0D003CD60320518D0D0048D6032069
:104AD000948F0D0078D603209C8F0D00E78E0D007B
:104AE000A78F0D00BB8F0D0000B58DB03C49684607
:104AF00002F065FD3B4904A802F061FD01F04EFFA4
:104B0000009A3949FFF748FCC82002F011FC01F077
:104B100045FF03681B699847002821DD01F03EFF2F
:104B20000A22014608A802F031FC08A904A802F0F4
:104B300076FD08A802F0FCFC2C4B1B782BB101F091
:104B4000BDFF049A2A49FFF727FC2A4B1B783BB18B
:104B500008A8049A2849FFF7BBFA09A8FFF706FC42
:104B6000264B1B78002B32D001F018FF2449FFF7A9
:104B7000F3FCC82002F0DCFB01F010FF03681B69A6
:104B80009847002823DD01F099FF1E49FFF7E4FC58
:104B900001F004FF0A22014608A802F0F7FB08A969
:104BA00004A802F03CFD08A802F0C2FC01F086FF58
:104BB000049A1549FFF7F0FB0E4B1B783BB108A890
:104BC000049A1249FFF784FA09A8FFF7CFFB04A85B
:104BD00002F0AEFC684602F0ABFC0DB05DF804FBE1
:104BE000C48F0D007F8F0D00E58F0D003CD6032094
:104BF000518D0D0048D60320F28F0D0078D603208A
:104C0000FA8F0D00E78E0D0005900D0015900D0038
:104C100013460A46002102F034BC000010B588B0EB
:104C200039490446684602F0CAFC01F0B7FE224644
:104C30003649FFF7EDFFC82002F07AFB01F0AEFE27
:104C400003681B699847002821DD01F0A7FE0A22AE
:104C5000014604A802F09AFB04A9684602F0DFFCB2
:104C600004A802F065FC2A4B1B782BB101F026FF4B
:104C7000009A2849FFF790FB274B1B783BB104A80B
:104C8000009A2649FFF724FA05A8FFF76FFB244B8B
:104C90001B78002B32D001F081FE2249FFF75CFC2B
:104CA000C82002F045FB01F079FE03681B699847B4
:104CB000002823DD01F002FF1B49FFF74DFC01F046
:104CC0006DFE0A22014604A802F060FB04A96846B2
:104CD00002F0A5FC04A802F02BFC01F0EFFE009A04
:104CE0001249FFF759FB0C4B1B783BB104A8009A03
:104CF0000F49FFF7EDF905A8FFF738FB684602F00A
:104D000017FC08B010BD00BF7F8F0D00C6900D00CE
:104D10003CD60320518D0D0048D60320D2900D00C3
:104D200078D60320D9900D00E78E0D00E3900D009A
:104D3000F6900D0010B588B039490446684602F077
:104D40003EFC01F02BFE22463649FFF761FFC820EA
:104D500002F0EEFA01F022FE03681B699847002872
:104D600021DD01F01BFE0A22014604A802F00EFB21
:104D700004A9684602F053FC04A802F0D9FB2A4BB0
:104D80001B782BB101F09AFE009A2849FFF704FB2B
:104D9000274B1B783BB104A8009A2649FFF798F9E6
:104DA00005A8FFF7E3FA244B1B78002B32D001F063
:104DB000F5FD2249FFF7D0FBC82002F0B9FA01F057
:104DC000EDFD03681B699847002823DD01F076FE9E
:104DD0001B49FFF7C1FB01F0E1FD0A22014604A8CF
:104DE00002F0D4FA04A9684602F019FC04A802F003
:104DF0009FFB01F063FE009A1249FFF7CDFA0C4BBE
:104E00001B783BB104A8009A0F49FFF761F905A888
:104E1000FFF7ACFA684602F08BFB08B010BD00BF8C
:104E20007F8F0D00FE900D003CD60320518D0D00AC
:104E300048D603200E910D0078D6032019910D005D
:104E4000E78E0D0027910D003E910D0010B588B042
:104E500039490446684602F0B2FB01F09FFD224644
:104E60003649FFF7D5FEC82002F062FA01F096FD40
:104E700003681B699847002821DD01F08FFD0A2295
:104E8000014604A802F082FA04A9684602F0C7FBB2
:104E900004A802F04DFB2A4B1B782BB101F00EFE4B
:104EA000009A2849FFF778FA274B1B783BB104A8F2
:104EB000009A2649FFF70CF905A8FFF757FA244B8B
:104EC0001B78002B32D001F069FD2249FFF744FB2B
:104ED000C82002F02DFA01F061FD03681B699847B4
:104EE000002823DD01F0EAFD1B49FFF735FB01F047
:104EF00055FD0A22014604A802F048FA04A96846B2
:104F000002F08DFB04A802F013FB01F0D7FD009A1C
:104F10001249FFF741FA0C4B1B783BB104A8009AE9
:104F20000F49FFF7D5F805A8FFF720FA684602F009
:104F3000FFFA08B010BD00BF7F8F0D004A910D0031
:104F40003CD60320518D0D0048D603200E910D0054
:104F500078D603205C910D00E78E0D006C910D005A
:104F600084910D0010B588B039490446684602F0B6
:104F700026FB01F013FD22463649FFF749FEC82003
:104F800002F0D6F901F00AFD03681B699847002872
:104F900021DD01F003FD0A22014604A802F0F6F922
:104FA00004A9684602F03BFB04A802F0C1FA2A4BB0
:104FB0001B782BB101F082FD009A2849FFF7ECF92C
:104FC000274B1B783BB104A8009A2649FFF780F8CD
:104FD00005A8FFF7CBF9244B1B78002B32D001F04A
:104FE000DDFC2249FFF7B8FAC82002F0A1F901F070
:104FF000D5FC03681B699847002823DD01F05EFD9E
:105000001B49FFF7A9FA01F0C9FC0A22014604A8CE
:1050100002F0BCF904A9684602F001FB04A802F002
:1050200087FA01F04BFD009A1249FFF7B5F90C4BD6
:105030001B783BB104A8009A0F49FFF749F805A86F
:10504000FFF794F9684602F073FA08B010BD00BF8C
:105050007F8F0D0092910D003CD60320518D0D00E5
:1050600048D60320A0910D0078D60320A9910D0009
:10507000E78E0D00B5910D00CA910D0008B5002016
:10508000FFF7FCFAFFF7B6FA0D4B1868FFF752FE70
:105090000C4B1868FFF7DAFE0B4B1868FFF792FC11
:1050A0000A4B1868FFF704FC094B1868FFF7B6FDB8
:1050B000084B1868FFF756FFBDE80840FFF714BD1E
:1050C000D8D30320E8D3032054D6032044D60320AA
:1050D000DCD30320E4D303202DE9F0410120544F19
:1050E00002F0E6F801210A2002F005F93B68072BDF
:1050F00025D8DFE803F004080E1215191D21FF2240
:105100001146104602E0FF220021084602F0E0F8B6
:1051100018E05822FF211920F8E70022452105E078
:10512000F0222021A020F1E700221146FF20EDE728
:10513000B32293217320E9E70022FF21E5E7002055
:1051400002F0B6F801F0BAFC4FF4165101F0AAFCD7
:1051500001F024FC4FF4E13101F01AFC4FF47A70B5
:1051600002F0E6F80021132002F0F8FB314B324C3C
:1051700001221A70314A00231370314A1370FFF76D
:1051800039FAFFF77BFF237D2BB3022323722D4BCC
:105190001B684EF6602808FB03F82368DB6823B120
:1051A0009A88042A3DD09B68F9E72749102002F02D
:1051B00027FC0546002837D010263246002103F090
:1051C000E4FC02236B8004232E80AB802369AB6058
:1051D000C5F80C8025611D4B1D4D00241C6002F09C
:1051E00061FB01F051FBFFF7BBF901F067FC2B7885
:1051F000184A214602F045F92B78BBB11021164818
:1052000000F00DF91549144800F048FB1449124804
:1052100000F044FB1349104800F040FB3C60BDE83F
:10522000F081C3F80C80D6E72075D4E7BDE8F081A3
:10523000ECD303203CD603205CD6032048D60320C1
:1052400078D60320E0D303206C960D0094E303206E
:105250003DD60320D4910D000CD80320E6910D001B
:1052600018920D0029920D00F8B51B4B1B4C1C4EDB
:1052700000251D7000F006FF02F014FB01462046D9
:1052800000F054F92046174C1749324602F0A7FBAC
:105290001027201D3A462946206003F076FC0123A2
:1052A000A780022732462375E78010492046104C1C
:1052B00002F095FB4FF6FF7338462560A580A57177
:1052C0002581638100F0C6FF324620460949BDE8CA
:1052D000F84002F084BB00BF28D603200CD803207E
:1052E00020D603205CD6032051530D00B7400D009B
:1052F00030D60320ED400D007FB5024608461379F5
:10530000956833B13DB90C4904B0BDE8704002F076
:105310007BB80A4B00E00A4B167B0A4C0A49527BC9
:105320000292012E08BF214601910095074A0021F3
:1053300002F0A7F804B070BD89920D007F8F0D00B8
:1053400078920D0081920D0085920D009F920D00C4
:1053500038B5064B036005460024E1B22846013407
:1053600000F022FD402CF8D1284638BD68920D008F
:1053700010B50446FFF7ECFF20464FF4386102F009
:105380003BFB204610BD70B50446D0F8D4090E464C
:1053900010B9D4F8D80920B10368BDE870409B6803
:1053A0001847D4F8DC0918B9D4F8E009B8B90CE00A
:1053B00094F85C1A01F06EFAD4F8DC0903683146FF
:1053C0009B6898470128054601D0002525E0014645
:1053D000D4F8DC0901F062FA0028E5D11DE004F6FA
:1053E000E81101F099F994F9E409002803DB0021A0
:1053F00080B202F0C4FA3146D4F8E00901F0FCF9B9
:1054000094F9E409002803DB012180B202F0B7FA25
:10541000D4F8E00901F067F90125284670BD70B5A0
:105420000446D0F8D4090E4608B101F0B1FAD4F818
:10543000DC59BDB1284601F027FA7F2E86BF102324
:1054400084F85C3A84F85C6A94F85C1AD4F8DC0955
:1054500001F020FAD4F8DC0901F024FAB0FA80F067
:10546000400970BDD4F8E009C8B101F02BF994F9F6
:10547000E409C4F8F06900284FF0010684F8EC59FB
:1054800084F8F46984F8F55909DB314680B202F0FA
:1054900065FA94F9E409314680B202F070FA0A2004
:1054A00001F046FF012070BD002200F5286180F860
:1054B0007C2BC0F8D429C0F8D829C0F8DC29C0F862
:1054C000E02980F8D02980F8702BC0F8741B80F890
:1054D000832080F8822080F8812080F8802080F866
:1054E000422080F8412080F8402080F83C2080F85D
:1054F0003B2080F83A2080F87E2080F87D2080F8DC
:105500007C2080F87F20C28700F6F8210022C0F8B6
:10551000781B826742670267C266826642660266DD
:10552000C2658264426400F0F9B900002DE9F041DF
:10553000B54B036004460025142688464560856007
:1055400085818573324629460F3003F01EFB3246B3
:105550002946A4F8235084F8255004F1260003F0CE
:1055600014FB582384F87C3084F87D3084F87E3036
:1055700029464FF4006204F1900003F006FB4FF45B
:105580007A73A4F89C30A4F8BC30A4F8DC30A4F8FA
:10559000FC30A4F81C31A4F83C31A4F85C31A4F828
:1055A0007C31A4F89C31A4F8BC31A4F8DC31A4F817
:1055B000FC31A4F81C32A4F83C32A4F85C32A4F804
:1055C0007C32A4F89C32A4F8BC32A4F8DC32A4F8F3
:1055D000FC32A4F81C33A4F83C33A4F85C33A4F8E0
:1055E0007C33A4F89C33A4F8BC33A4F8DC33A4F8CF
:1055F000FC33A4F81C34A4F83C34A4F85C34A4F8BC
:105600007C34A4F89C34A4F8BC34A4F8DC34A4F8AA
:10561000FC34A4F81C35A4F83C35A4F85C35A4F897
:105620007C35A4F89C35A4F8BC35A4F8DC35A4F886
:10563000FC35A4F81C36A4F83C36A4F85C36A4F873
:105640007C36A4F89C36A4F8BC36A4F8DC36A4F862
:10565000FC36A4F81C37A4F83C37A4F85C37A4F84F
:105660007C37A4F89C37A4F8BC37A4F8DC37A4F83E
:10567000FC37A4F81C38A4F83C38A4F85C38A4F82B
:105680007C3804F50963614A1A6004F69403002229
:105690001A602946324604F6980003F076FA5C4F09
:1056A0003246294604F6AC0003F06FFA29463F2241
:1056B00004F50C6003F069FA0FCF04F60C16C4F879
:1056C0000059C4F80459C4F808590FC697E80700F0
:1056D00086E807002946542204F6281003F055FAFC
:1056E0004C4BC4F828394C4BC4F82C394B4BC4F8FC
:1056F00030394B4BC4F834394A4BC4F838394A4B2B
:10570000C4F83C39494BC4F84039494BC4F84439D2
:10571000484BC4F84839484BC4F84C39474BC4F897
:105720005039474BC4F85439464BC4F85839464BA6
:10573000C4F85C39454BC4F86039454BC4F864394A
:10574000444BC4F86839444BC4F86C39434E444B5D
:10575000C4F870392946C4F874693C2204F67C10F8
:1057600003F013FA3F4BC4F87C393F4BC4F880393F
:105770003E4BC4F884393E4BC4F888393D4BC4F8DD
:105780008C393D4BC4F890393C4BC4F894393C4BB0
:10579000C4F898393B4BC4F89C393B4BC4F8A0394A
:1057A0003A4A3B4BC4F8A439C4F8E829394B3A4A81
:1057B000C4F8B839C4F8BC39C4F8C039C4F8C4391D
:1057C000C4F8C839C4F8CC39C4F8F029FF23012241
:1057D0002046C4F8A86984F8D15984F8E43984F8DB
:1057E000EC5984F8F42984F8F55984F87D3A84F862
:1057F0007E5A84F87F5A84F8705BFFF755FEC4F830
:10580000DC892046BDE8F08168920D009A99194024
:1058100044920D00BD920D00C1920D00C5920D0085
:10582000C9920D00CD920D00D1920D00D5920D00C0
:10583000D9920D00DD920D00E1920D00E5920D0070
:10584000E9920D00ED920D00F1920D00F5920D0020
:10585000F9920D00FD920D0001930D0009930D00CA
:1058600005930D000D930D0011930D0015930D0080
:1058700019930D001D930D0021930D0025930D002C
:1058800029930D002D930D0031930D0040920D00D2
:1058900035930D000094357740420F0001F0C7BDED
:1058A00000F0F0BB00F0EEBB00F0ECBBF0B585B053
:1058B00005460C460A9F0B989DF8301000263F2C99
:1058C0002AD81AB105EB441ECEF8A42062011BB100
:1058D00005EB020ECEF8AC3017B1AB18C3F8A870C8
:1058E00010B1AB18A3F89C002A4482F89E100A3924
:1058F000092911D80023611C1A46C9B2284602960C
:1059000001960096FFF7D2FF02340022E4B213465C
:10591000174610461146D2E705B0F0BD2DE9F04F0D
:10592000002685B0054637460024F1B2029701975C
:1059300000972346B04A28460136FFF7B7FF402EAE
:10594000F2D10226AD4F0294234621462846019407
:105950000094AB4ADFF88093DFF880A3DFF880B3D0
:10596000FFF7A4FF0296009728460194A54BA64A8C
:105970000121FFF79BFF02960097314628460194CC
:10598000A04BA24AFFF792FF029600972846019487
:105990009C4B9F4A0321FFF789FF029600972846F8
:1059A0009C4F0194974B9C4A0421FFF77FFF4FF0D7
:1059B0000B080097284602940194984B984A0521B9
:1059C000FFF774FFCDF80880CDF8009028460194C9
:1059D000944B954A0621FFF769FF01230293CDF806
:1059E0000090284601948F4B904A0921FFF75EFFF3
:1059F000CDF800A02846029401948D4B8D4A0A21CF
:105A0000FFF754FFCDF800A041464FF00C0A28469E
:105A100002940194864B884AFFF748FFCDF808A00E
:105A2000514628460194CDF800B07E4B834AFFF7DB
:105A30003DFF0097284602940194814B814A0F2133
:105A4000FFF734FFCDF808A028460194CDF800B048
:105A5000744B7D4ADFF88CA21021FFF727FFCDF8A9
:105A60000880CDF80090284601946E4B774A1321A8
:105A7000FFF71CFF0097284602940194704B744A6C
:105A80001621FFF713FF0097284602940194634BF9
:105A9000704A1721FFF70AFF0097284602940194E5
:105AA0005E4B6D4A1821FFF701FF6C4B0296009385
:105AB000284601945B4B6A4A1921FFF7F7FE694BB0
:105AC0000296009328460194564B674A674E1A2166
:105AD000FFF7ECFE664BCDF8088000932846019452
:105AE000504B644A1B21FFF7E1FECDF80880CDF84A
:105AF0000090284601944B4B5F4ADFF8EC91DFF8A9
:105B0000EC811E21FFF7D2FE0097284602940194F3
:105B1000424B5A4A5A4F2121FFF7C8FE00962846A9
:105B200002940194574B584A2221FFF7BFFE00967A
:105B3000284602940194554B554A564E2221FFF7B0
:105B4000B5FE554B0093284602940194534B544A9A
:105B50002421FFF7ABFE284602940194CDF800A063
:105B6000504B514A2521FFF7A1FE2846029401948B
:105B7000CDF800904D4B4E4A2621FFF797FE284660
:105B800002940194CDF800804A4B4B4A2721FFF73D
:105B90008DFE2846029401940097484B484A2821DC
:105BA000FFF784FE2846029401940096454B464A2E
:105BB0002921FFF77BFE284602940194CDF800A02E
:105BC000384B424A2A21FFF771FE2846029401947D
:105BD000CDF80090354B3E4A2B21FFF767FE284653
:105BE00002940194CDF80080324B3A4A2C21FFF701
:105BF0005DFE28467CE000BF01D503207AD4032057
:105C00001BD50320F3D4032090D403202CD50320EC
:105C100074D503205AD50320A2D40320D3D4032063
:105C20003DD4032054D503204BD40320F8D30320C4
:105C3000B7D40320B3D40320EBD4032009D5032029
:105C400015D503200AD4032005D5032042D503200F
:105C5000ADD50320A9D40320C1D40320DCD4032074
:105C60001CD40320A2D5032035D40320D9D403208B
:105C700046D5032076D403208CD40320F4D303200C
:105C80005CD4032062D40320BDD40320ADD4032010
:105C900005D40320C8D403203BD403209CD4032084
:105CA000E5D4032030D503206ED403209CD50320F7
:105CB0006DD5032020D5032056D403200ED4032015
:105CC00014D4032029D403200DD50320F9D40320B4
:105CD0004FD40320FFD3032083D4032036D50320E1
:105CE00094D4032025D4032096D5032021D4032067
:105CF0000294019400971C4B1C4A2D21FFF7D6FDFE
:105D00002846029401940096194B1A4A2E21FFF757
:105D1000CDFD194B0093284602940194174B184A65
:105D20002F21FFF7C3FD174B0093284602940194DF
:105D3000154B164A3021FFF7B9FD154B0093284645
:105D400002940194134B144A3121FFF7AFFD134B1A
:105D5000009302940194124B124A32212846FFF715
:105D6000A5FD05B0BDE8F08F0ED4032088D5032033
:105D700029D403207BD5032068D4032060D50320D9
:105D800069D5032026D503204ED503202FD4032028
:105D900083D50320CDD4032039D5032066D5032035
:105DA00090D5032041D403203F2910B50ED800EB35
:105DB0004114D4F8A0304BB1186800F091FAD4F82F
:105DC000A00000F08DFA0023C4F8A03010BD00F050
:105DD00059B9000008B5024B1B681B68019308BD48
:105DE0004C02030008B5024B1B685B68019308BDB9
:105DF0004C02030008B5024B1B681B69019308BDE8
:105E00004C02030008B5024B1B685B69019308BD97
:105E10004C02030008B5024B1B689B69019308BD47
:105E20004C02030008B5024B1B68DB69019308BDF7
:105E30004C02030008B5024B1B681B6A019308BDA6
:105E40004C02030008B5024B1B68DB68019308BDD8
:105E50002802030008B5024B1B689B69019308BD2B
:105E60002802030008B5024B1B68DB69019308BDDB
:105E70002802030008B5024B1B681B6A019308BD8A
:105E80002802030008B5024B1B685B6A019308BD3A
:105E90002802030008B5024B1B689B6A019308BDEA
:105EA0002802030008B5024B1B68DB6A019308BD9A
:105EB0002802030008B5024B1B681B6B019308BD49
:105EC0002802030008B5024B1B685B6B019308BDF9
:105ED0002802030008B5024B1B681B6C019308BD28
:105EE0002802030008B5024B1B681B68019308BD1C
:105EF0003C02030008B5024B1B68DB68019308BD38
:105F00003C02030008B5024B1B681B69019308BDE6
:105F10003C02030008B5024B1B685B69019308BD96
:105F20003C02030008B5024B1B689B69019308BD46
:105F30003C02030008B5024B1B68DB69019308BDF6
:105F40003C02030008B5024B1B681B6A019308BDA5
:105F50003C02030008B5024B1B689B6A019308BD15
:105F60003C02030008B5024B1B68DB6A019308BDC5
:105F70003C02030008B5024B1B685B69019308BD36
:105F80006402030008B5024B1B689B68019308BDBF
:105F90004802030008B5024B1B681B69019308BD4A
:105FA0004802030008B5024B1B685B69019308BDFA
:105FB0004802030008B5024B1B685B6C019308BDE7
:105FC0004802030008B5024B1B689B6C019308BD97
:105FD0004802030008B5024B1B689B6E019308BD85
:105FE0003402030008B5024B1B685B68019308BDCF
:105FF0001802030008B5024B1B685B69019308BDDA
:106000001802030008B5024B1B681B68019308BD0A
:106010003002030008B5024B1B685B69019308BDA1
:106020003002030008B5024B1B68DB69019308BD11
:106030003002030008B5024B1B681B6A019308BDC0
:106040003002030008B5024B1B685B6A019308BD70
:106050003002030008B5024B1B68DB6B019308BDDF
:106060003002030008B5024B1B681B6C019308BD8E
:106070003002030008B5024B1B685B6C019308BD3E
:106080003002030008B5024B1B681B68019308BD72
:106090002C02030008B5024B1B685B68019308BD26
:1060A0002C02030008B5024B1B689B68019308BDD6
:1060B0002C02030008B5024B1B68DB68019308BD86
:1060C0002C02030008B5024B1B681B69019308BD35
:1060D0002C02030008B5024B1B681B6B019308BD23
:1060E0002C02030008B5024B1B689B68019308BD96
:1060F0006802030008B5024B1B68DB68019308BD0A
:106100006802030008B5024B1B685B68019308BD79
:106110006002030008B5024B1B689B68019308BD31
:106120006002030008B5024B1B68DB68019308BDE1
:106130006002030008B5024B1B681B69019308BD90
:106140006002030008B5024B1B689B69019308BD00
:106150006002030008B5024B1B68DB69019308BDB0
:106160006002030008B5024B1B681B6D019308BD5C
:106170006002030008B5024B1B685B69019308BD10
:106180004402030008B5024B1B68DB69019308BD9C
:106190004402030008B5024B1B681B6A019308BD4B
:1061A0004402030008B5024B1B68DB6B019308BD7A
:1061B0004402030008B5024B1B685B68019308BDED
:1061C0004002030008B5024B1B689B68019308BDA1
:1061D0004002030008B5024B1B68DB68019308BD51
:1061E0004002030008B5024B1B681B69019308BD00
:1061F0004002030008B5024B1B685B69019308BDB0
:106200004002030008B5024B1B689B69019308BD5F
:106210004002030008B5024B1B68DB69019308BD0F
:106220004002030008B5024B1B681B6A019308BDBE
:106230004002030008B5024B1B681B6B019308BDAD
:106240004002030008B5024B1B685B6B019308BD5D
:106250004002030008B5024B1B685B68019308BD50
:106260002002030008B5024B1B685B69019308BD5F
:106270002002030008B5024B1B68DB6C019308BDCC
:106280002002030008B5024B1B685B6D019308BD3B
:106290002002030008B5034B1B68D3F88830019334
:1062A00008BD00002002030008B5034B1B68D3F8AB
:1062B0009430019308BD00002002030008B5034B91
:1062C0001B68D3F8A830019308BD0000200203002A
:1062D00008B5024B1B681B68019308BD1C02030034
:1062E00008B5024B1B685B68019308BD1C020300E4
:1062F00008B5024B1B689B68019308BD1C02030094
:1063000008B5024B1B68DB68019308BD1C02030043
:1063100008B5024B1B685B6A019308BD1C020300B1
:1063200008B5024B1B68DB6A019308BD1C02030021
:1063300008B5024B1B681B6B019308BD1C020300D0
:1063400008B5024B1B68DB6B019308BD1C02030000
:1063500010B58368044613B10322014698472046CE
:1063600010BD00231A464068FFF724BF0022022117
:106370004068FFF72FBF002211464068FFF722BF99
:10638000002211464068FFF72DBF00231A46194628
:106390004068FFF72FBF00231A4619464068FFF7F1
:1063A00031BF002281F001014068FFF733BF0022B6
:1063B0004068FFF73FBF002211464068FFF742BF29
:1063C000002211464068FFF72DBF2DE9F04300245D
:1063D00095B016460D46074600F0D0FB2146202218
:1063E0000CA8009402F0D1FB40230C9321466B468D
:1063F0000CAA3046FFF77EFE0446002844D1024630
:1064000001216868FFF7EEFE022180462246686897
:10641000FFF7E8FE009E81462146002E34D0002979
:1064200032D17368022B02D00A2B09D02AE0B8F1CE
:10643000000F27D071693846043100F0CCFB20E012
:10644000B9F1000F1ED07469112201A802F09DFB62
:1064500006238DF8143001AD04F1080318341868D0
:1064600059682A4603C20833A3421546F7D101A949
:1064700006A807AD00F090FB0FCD3C1D0FC42B68A4
:1064800023700121F669C8E70098FFF72BFE384614
:1064900015B0BDE8F0830000024B034A1A600022E9
:1064A0005A607047D0E30320B4930D0000221146D8
:1064B0004068FFF797BE002211464068FFF7B2BE62
:1064C000002211464068FFF7BDBE00224068FFF77A
:1064D000B1BE002281F001014068FFF79BBE00239E
:1064E0001A4619464068FFF78DBE00231A46194622
:1064F0004068FFF77FBE002211464068FFF762BE8A
:10650000002202214068FFF765BE00231A4640685A
:10651000FFF750BE024B04225A60024A1A607047CD
:10652000D8E30320E8930D00002211464068FFF7EE
:1065300079BE002211464068FFF784BE0022406801
:10654000FFF778BE002281F001014068FFF762BECC
:1065500000231A4601214068FFF754BE00231A4663
:1065600019464068FFF746BE002211464068FFF713
:1065700039BE002211464068FFF724BE00220221E6
:106580004068FFF727BE00231A464068FFF712BE97
:1065900038B5054688B104684CB1A3681BB1032225
:1065A0002146204698471021204601F025FA28462A
:1065B0001421BDE8384001F01FBA38BD10B103689E
:1065C0005B681847704710B503680446BBB158684C
:1065D000FFF7D8FC78B923685A7C12B95868FFF7DE
:1065E000D9FC23685868FFF7DDFC2068002323608E
:1065F00028B1FFF7CDFF206808B1FFF7C9FF20469B
:1066000010BD38B50446D0F8C40108B1FDF749FD06
:10661000D4F8C00108B1FFF7D5FCD4F8BC5135B1AE
:106620002846FFF7D0FF0421284601F0E5F920684D
:1066300008B1FFF7C3FF204638BD000010B5044B7A
:10664000044640F8083BFFF7DCFF204610BD00BFC2
:106650001C940D0038B50E4C0E4B23600025022310
:1066600004F5E4706360A560C4F8C451C4F8C8516F
:10667000FFF7A0FC084BC4F8CC5184F8D05123603C
:106680002046064A0649BDE8384001F0A8B900BFD7
:10669000E0E30320B4930D001C940D0020D60320EA
:1066A0003D660D000021FFF7DDBC0021FFF7E2BCD5
:1066B00010B5044601700846FFF7B4FC0023636080
:1066C000204610BD10B504460078FFF7EBFF48B92F
:1066D00020784FF6FF71FFF795FC2078BDE8104059
:1066E000FFF7E3BF10BD0078FFF7DFBF400830B50C
:1066F0001860002418688842E5B206D90134082CD5
:1067000002D040081860F5E70725024B5B5D137067
:1067100030BD00BF48940D002DE9F04307468FB00F
:1067200000780E46FFF7BEFF002862DB3C7814229B
:10673000002109A802F029FA0B232046002209A90A
:10674000ADF82430FFF77EFC9DF82D4054B19DF844
:106750002C5035B9DDF830809DF834909DF83540E7
:1067600003E00024A146A0460125337905B1BBB959
:106770009D420BD1B268424508D18DF820908DF82A
:106780002140BDF82010B289914209D053B10024B4
:10679000387801940094234622460121FFF75AFCE1
:1067A000002026E08DF80F30B1680A9804AB0DF197
:1067B0000F02FFF79BFF317905B1B1B9A94208D0AB
:1067C000002438780194747B337B9DF80F2000946B
:1067D000E4E7B3684345F3D38DF820908DF821406A
:1067E000BDF82020B3899A42EAD1049B4345E7D102
:1067F000D6E70FB0BDE8F08308B50078FFF70AFCD4
:10680000C0B208BD0078FFF715BC7047F8B5064662
:1068100015460C468F18BC4206D0336814F8011B8D
:106820009B6830469847F6E72846F8BD0022007C72
:10683000FFF720BB0021007CFFF724BB0021007C78
:10684000FFF728BB0021007CFFF72CBB0021007C58
:10685000FFF730BB10B51421044601F0CDF82046F7
:1068600010BD000010B50446002363604FF47A7336
:10687000A360044B2174084623601146FFF72AFBEE
:10688000204610BD58940D0000231A461946007C7E
:10689000FFF7D8BA0022007CFFF7DCBA0022007CA8
:1068A000FFF7E0BA0121FFF7F9BF0021007CFFF7F5
:1068B00009BB10B5836804460BB901F0B0F8C36892
:1068C0009847A3681BB103222146204698472046DB
:1068D0001021BDE8104001F08FB870474174704737
:1068E00008B5007CFFF736FB20EAE07008BD08B56C
:1068F000007CFFF707FB20EAE07008BD08B5007CCC
:10690000FFF710FB30EA200028BF4FF0FF3008BD32
:1069100008B5007CFFF7FEFA30EA200028BF4FF0F0
:10692000FF3008BD007CFFF705BB10B514210446FD
:1069300001F062F8204610BD70B5457C04460E4655
:1069400025B9007CFFF706FB002805DD3146207CD9
:10695000BDE87040FFF7CEBA284670BD10B50446BA
:1069600008461146002262604FF47A72A260054A1E
:1069700022600122207462741A46FFF7B3FA20469F
:1069800010BD00BF80940D000023007CFFF7EABA21
:106990000022FFF7F9BF007CFFF7D4BA38B50C4DE1
:1069A000296811F0010411D12846FDF77CFB68B17C
:1069B000084A094B09482146FFF7D0FF2846FDF752
:1069C00077FB074A0749054801F009F8034838BD35
:1069D0004CE6032050E60320C8E50320B4E503207D
:1069E00020D60320DB680D000B68036013B15A68E2
:1069F00001325A60704741747047704708B50021F2
:106A0000007CFFF707FA30EA200028BF4FF0FF3084
:106A100008BD08B50121007CFFF7FCF930EA200031
:106A200028BF4FF0FF3008BD08B5007CFFF7EAF93A
:106A300020EAE07008BD08B5007CFFF7DBF920EA2A
:106A4000E07008BD007CFFF7F5B910B514210446CD
:106A500000F0D2FF204610BD38B50446007C0D463C
:106A6000FFF7D0F9002801DC607C28B12946207CA2
:106A7000FFF7D8F920EAE07038BD000010B50446F1
:106A8000002363604FF47A73A360054B23600123F6
:106A90000846217463741146FFF79CF9204610BD27
:106AA000B0940D000022007CFFF79CB910B51422B1
:106AB0000446002102F069F8204610BD30B50E4DA5
:106AC00087B001A8FFF7F2FF296811F0010410D187
:106AD0002846FDF7E8FA60B101AA21460748FFF70A
:106AE000CDFF2846FDF7E4FA054A0649034800F0C1
:106AF00076FF024807B030BDD4E60320D8E6032075
:106B000020D60320FB690D00704710B518210446FC
:106B100000F072FF204610BDF0B5037D062B8DB04E
:106B20000E4600F104074FF0000402D000F1080502
:106B300018E00CAD394605F8304D2F232A460A20BF
:106B4000FFF718FA284602F074F833680246DB684B
:106B50002946304698470FE024B12E21304600F0F8
:106B600057FC044415F8011D0A22304600F069FC68
:106B7000BD420444F0D120460DB0F0BD10B5054B28
:106B80000446112240F8043B002101F0FEFF20469C
:106B900010BD00BFE0940D000346074A10B543F84E
:106BA000042B01F1100251F8044B43F8044B9142BD
:106BB000F9D10A781A7010BDE0940D0010B59DF857
:106BC000084044EA032343EA024242EA0161042303
:106BD0004160037510BD37B50D788B784A78C97858
:106BE00000912946FFF7EAFF03B030BD704700204F
:106BF000704710B51021044600F0FEFE204610BD7F
:106C000008B508B1FFF7F5FF08BD0022026010B516
:106C10004FF69C728280B1F9044084808A800268B9
:106C20000C6804600A6010BD10B504460068FFF7E8
:106C300057FB204610BD38B5C468F4B12378022B49
:106C400003D104F10C00FFF7EFFF656835B128466A
:106C5000FFF77EFB1021284600F0CEFEA56835B177
:106C60002846FFF775FB1021284600F0C5FE204698
:106C70001421BDE8384000F0BFBE38BD13B504464E
:106C800091E8050000234B600B602060626001A862
:106C900001930093FDF76AFB204602B010BDF7B5E3
:106CA0000C4602AD54F8043B45F8083D06460F4635
:106CB00001A82146FFF798FE29463046FFF7DEFF80
:106CC00001A8FDF753FB2046FDF750FB384608218D
:106CD00000F092FE304603B0F0BD13B50B460446FB
:106CE00003C88DE8030093E8030084E803009DE8EF
:106CF000030083E8030002B010BD000038B5002394
:106D00000446036010200D46FDF7C7F928B10123A2
:106D100043608360024B0360C5602060204638BD3D
:106D2000F4940D00826810B50AB900F078FEC368CB
:106D3000BDE81040184708B5006800F11001FFF7E2
:106D4000F1FF08BD826810B50AB900F068FEC3689B
:106D5000BDE81040184708B5006800F11001FFF7C2
:106D6000F1FF08BD38B5002383608B6804460D46EB
:106D70002BB102229847EB68E360AB68A360204622
:106D800038BD0000F0B589B004686846FFF73DFFE4
:106D900000238DF808304FF00202D4E84F3F002B5B
:106DA00003D1C4E8412F0029F7D102D08DF8083073
:106DB00063E014F10C0503D069462846FFF725FF70
:106DC000BFF35F8F01236370002004F10803BFF35A
:106DD0005F8F53E8006F43E80002002AF9D1BFF348
:106DE0005F8F002E49D0FFF745FA20B12946304683
:106DF000FFF798FF3AE0314602A8FFF7B3FFE068DB
:106E0000B4F9105008B101F0F9FE06901020ADF869
:106E10001C50FDF742F90546E8B1002787601820AD
:106E2000FDF73BF9044688B10146876002A8FFF7E9
:106E300054FF049BA268A360059B049206A9E26824
:106E4000E36004F110000592FFF7DFFE0D4BEB60ED
:106E50000D4B2C60AB6006A8FFF7E6FE02A8FFF71B
:106E600077FA002229460948FFF70CFA3046FFF767
:106E70006FFA1021304600F0BFFD6846FFF7D4FEE0
:106E800009B0F0BD376D0D00AD6F0D00B3680D009A
:106E90002DE9F04F8BB006460F46904699469DF877
:106EA00050A0FFF767F907AD834630BB4FF62E734E
:106EB000059005A92846ADF81830FFF7A6FE142066
:106EC000FDF7EBF8044658B1022303700123437029
:106ED000C0F804B0C0F808B029460C30FFF795FEA2
:106EE0003046214640F8044BFFF708FF2846FFF7DD
:106EF0009BFE05A8FFF798FE52E000240C23142007
:106F00006C60AC600793FDF7C8F8014618B10470D7
:106F100044704460846004A80391FFF7EFFE224BA5
:106F200008930820FDF7B9F8044628B1039B40F800
:106F3000043B04A9FFF758FD00955FFA8AF34A461F
:106F4000414638460994FFF725F920B9039B5B7841
:106F500003F0FF0283B1039B059304A906A8FFF782
:106F600043FD05A93046FFF789FE06A8FDF7FEF9A7
:106F700004A8FDF7FBF913E04FF69C7305A903A8DD
:106F80000592ADF81830FFF7FDFE05A8FFF74CFE9F
:106F900005A80999FFF783FE06A8FDF7E7F9DAE7E8
:106FA00030460BB0BDE8F08F1D710D00022AF8B518
:106FB000044606D0032A17D0012A22D10B680360A9
:106FC0001FE018200E68FDF768F8054650B13146FD
:106FD000FFF7C8FE3069B6F9147008B101F00EFE73
:106FE0002861AF8225600CE0046854B104F1100000
:106FF000FFF71AFE2046FFF7ABF91821204600F0F4
:10700000FBFC0020F8BD38B5002383608B68044684
:107010000D462BB102229847EB68E360AB68A36092
:10702000204638BD022A70B5044606D0032A11D086
:10703000012A18D10B68036015E014200E68FDF7D3
:107040002CF8054620B13146FFF7DDFF337C2B7469
:10705000256008E0046834B12046FFF779F914216F
:10706000204600F0C9FC002070BD0000F0B50023F0
:1070700087B00C46BFF35F8F50E8006F40E80032E6
:10708000002AF9D1BFF35F8F002E3FD01846FFF7DB
:10709000F1F8074620B121463046FFF753FE2EE0B7
:1070A000314601A8FFF7AFFF23788DF81430102088
:1070B000FCF7F3FF0546D0B187601420FCF7EDFF25
:1070C000044678B18760014601A8FFF706FE039BDE
:1070D000A268A360049B0392E268E3609DF8143009
:1070E000049223740A4BEB600A4B2C60AB6001A83E
:1070F000FFF72EF9002229460748FFF7C3F830466C
:10710000FFF726F91021304600F076FC07B0F0BDFD
:10711000576D0D0025700D00B3680D0030B585B0BA
:1071200004460D4668461146FFF7B9FD7CB124B20E
:1071300028460DB101F062FD029002A96846ADF843
:107140000C40FFF71FFE02A8FFF76EFD1DE0009840
:107150008DF808404FF00102D0E84F3FA34203D121
:10716000C0E8412F0029F7D102D08DF808300CE09B
:1071700010F10C014FF0010318BF0373BFF35F8FD1
:10718000043000F8033CFFF771FF01A8FDF7EEF8AB
:1071900005B030BD08B50C4B33B1FFF78FFC036869
:1071A0001B699847002809DC084B63B1FFF7F6FB21
:1071B00003681B699847002803DC08BDAFF3008013
:1071C000F2E7AFF3008008BD0000000000000000FF
:1071D00008B5FFF7DFFFFEF70DFF014B186008BD94
:1071E0003CE703200248034A0349121A01F0C2BCDB
:1071F00000F4032004F4032020970D0007B50023BA
:1072000000931A466FF07701FFF74EF803B05DF870
:1072100004FB000007B543880A2B08D0502B09D186
:10722000094B1B683BB103B05DF804EB1847FFF74F
:10723000E5FF06E0002300931A466FF07701FFF7A1
:1072400033F803B05DF804FBECE6032038B5104CCE
:10725000104D2368AB42104B0CBF012200221A7064
:1072600002D0FFF7BFFF2560FEF7BCFE044601F029
:1072700095FC0A4B13B12046AFF30080002107486C
:10728000FEF790FF00210648BDE83840FFF702B83E
:1072900000F403201E1C279AF0E6032000000000E3
:1072A00015720D0010B50446FFF752F8204610BDC8
:1072B00010B50446FEF746FF844208D01CB1BDE875
:1072C0001040FEF727BFBDE81040FEF72BBF10BDF2
:1072D00070B505460E461446FEF734FF50B144EA39
:1072E000062040EA0540FEF70DFFE720BDE87040AC
:1072F000FEF730BF70BD10B50C46FEF71BFFFEF762
:1073000021FF28B124B1E720BDE81040FEF722BFDD
:1073100010BD00000348044A04490023836000F0C4
:107320005EBB00BFF4E6032020D60320A5720D004B
:107330000021FEF797BF0000024B1A68024B1A604B
:10734000704700BFB4D5032004E70320014B024A75
:107350001A60704708E70320A2950D0010B5044697
:10736000FEF748FEE060236820465B6998470028E6
:1073700008DAFEF73FFEE368C01AA3689842F2D32A
:107380004FF0FF3010BD81607047000070B50D46B2
:1073900009490446164600F012F92846FFF7DEFFB9
:1073A000002806DBB04204D0C1B2204600F056F9F6
:1073B000F3E7204670BD00BF7F8F0D00F8B506468D
:1073C0000D468F180024BD420CD0336815F8011B00
:1073D0009B6830469847002801DB0444F3E7002C03
:1073E00008BF04462046F8BD70B505460C46084661
:1073F00049B101F01EFC2B68024621462846DB6895
:10740000BDE87040184770BD08B5FFF7EDFF08BD37
:1074100003689B68184738B50D210546FFF7F8FF4C
:107420000A2104462846FFF7F3FF204438BD38B54B
:107430000546FFF7D9FF04462846FFF7ECFF204436
:1074400038BD30B58BB00B4600218DF82410012AD1
:1074500098BF0A220DF12304B3FBF2F505FB1233AA
:1074600003F0FF03092B94BF30333733DBB22146DF
:1074700004F801392B46002DEED1FFF7B5FF0BB014
:1074800030BD0CB42DE9F04387B000AF07F13804EC
:10749000054654F8049B3C600E4623464A46142198
:1074A000381DFEF735FF132805D8391D2846FFF78C
:1074B0009BFF044613E000F1080323F00703E846AE
:1074C000ADEB030D411C23464A4668463C60FEF77F
:1074D0001FFF69462846FFF787FF0446C5461EB1D1
:1074E0002846FFF798FF044420461C37BD46BDE8F8
:1074F000F04302B0704710B50446006808B1FEF7CB
:1075000061FD204610BD000010B5064C002320464A
:107510002360FEF74FFD2046034A0449BDE81040B2
:1075200000F05DBA0CE7032020D60320F7740D00AD
:1075300010B504460068FEF7D3FE204610BD10B516
:107540000446006808B1FEF7CBFE00232360A36069
:10755000636010BD38B504460D4600680131FEF782
:10756000C7FE10B184E82100012038BD10B50368C2
:10757000044613B143688B4207D22046FFF7EAFF67
:1075800020B1A3680BB922681370012010BD70B53B
:107590000E46114604461546FFF7E8FF18B9204687
:1075A000FFF7CDFF09E02A463146A560206801F0CB
:1075B000E1FA2268A3680021D154204670BD38B595
:1075C0000023044603604360836003730D4639B1B2
:1075D000084601F02EFB294602462046FFF7D7FF5A
:1075E000204638BD38B5054600680C4660B16A686B
:1075F0008B689A4206D3096801F0F8FAA368AB6079
:1076000000230AE0FEF76CFE23682B6063686B6062
:10761000A368AB60002323606360A36038BD884229
:1076200010B5044601D0FFF7DDFF204610BD70B550
:1076300004460E4609B9002070BD6AB18368D518AA
:107640002946FFF793FF0028F5D02068A36831464C
:10765000184401F0CBFAA560012070BD07B50023E6
:107660008DF80410012201A98DF80530FFF7DFFF26
:1076700003B05DF804FB10B50446006818B1FEF7CE
:107680002FFE0023236010BD38B5B1F9043083808C
:107690000B460D4653F8062FC0F806209B88438101
:1076A0000446FFF7E8FF2B6813B1236000232B602B
:1076B000204638BD38B50C460546FFF7DCFF44B11F
:1076C0002088FEF705FE286028B12288214601F0B7
:1076D00051FA002038BD014838BD00BFFCFEFFFF55
:1076E000014600228C20FEF775BC0020FFF7F8BF92
:1076F000F0B5304D0B7D04468BB00846AF1D13B37B
:107700000B681B79FBB100224FF6FF7302A904300E
:107710000292ADF80C208DF80E20ADF81020ADF8D7
:107720001230FEF7CBFD0AAB00B253F81A2DADF8BC
:107730000C009B88A880C5F806200299BB802846CB
:10774000FFF7B8FF1CE02023002602931A4B00939A
:107750001A4903963346322002AAFEF703FD4FF67C
:10776000FF73ADF8123002A94FF6F263114802968A
:107770008DF80E60ADF81060ADF80C30FFF784FFA7
:1077800002A8FFF778FF00232360A380A371238161
:107790004FF6FF736381B5F90430A3803B68C4F8EA
:1077A0000630BB88638129682046FFF783FF2046A7
:1077B0000BB0F0BD10E7032011960D000A960D00E6
:1077C00010B5094C00204FF6FF732060A080A07117
:1077D00020816381FEF73EFD2046044A0449BDE84E
:1077E000104000F0FCB800BF10E7032020D60320B3
:1077F000ED400D00002211464068FEF713BD002247
:1078000011464068FEF71EBD00224068FEF712BD1B
:10781000002281F001014068FEF7FCBC00231A46FB
:1078200019464068FEF7EEBC00231A461946406828
:10783000FEF7E0BC002211464068FEF7D3BC0022F0
:1078400011464068FEF7BEBC002202214068FEF7E8
:10785000C1BC00231A464068FEF7ACBC024B0322B1
:107860005A60024A1A6070471CE7032040960D00D8
:1078700070B5044614252A46094E002101F085F909
:10788000258020253146A5602561284600F0B6F800
:1078900031466060284600F0B1F8E060204670BDD7
:1078A0006C960D0030B50E4D296811F0010487B0BB
:1078B00013D12846FCF7F7FB78B101A8FFF7D8FFF2
:1078C00001AA21460748FEF7CDFF2846FCF7F0FB4A
:1078D000054A0649034800F082F8024807B030BD67
:1078E00024E7032028E7032020D603200B680D009F
:1078F00070B5184E316811F0010504460AD13046C2
:10790000FCF7D1FB30B129461348FEF7D1FE3046D3
:10791000FCF7CEFB1048FEF775FF28B1A4F10B036E
:10792000022B01D8002070BDFFF7BCFFFEF7BDFFA2
:1079300008B1012CF6D9FFF731F8FFF72CF818B190
:10794000A4F10903012BEDD9232C8CBF00200120C9
:1079500070BD00BF40E7032044E70320232838B56B
:1079600004460D460AD8FF2908D0FFF7C1FF28B109
:1079700029462046BDE83840FEF794BB38BD38B5EF
:1079800004460D46FEF796FBFF2810D0062804D8C3
:107990004D2323FA00F0C30709D42046FFF7A8FFC0
:1079A00028B129462046BDE83840FEF78BBB38BDDC
:1079B0000D2810B504469CBF0E34A4B22046FFF734
:1079C00097FF50B103212046FEF764FB032804D142
:1079D0002046BDE81040FEF77DBB002010BD0B46E1
:1079E0000146184601F0B8B8024B1868BFF35F8F24
:1079F000704700BF4CE70320FCF751BB00F000B814
:107A000010B5002814BF044601242046FEF760FC90
:107A100020B9FFF7E9FF08B18047F6E710BD08B5C8
:107A2000FEF77EFC184B1A68D1075CBF01221A6072
:107A3000164B1A68D2075CBF01221A60144B1A68F1
:107A4000D0075CBF01221A60124B1A68D1075CBFD5
:107A500001221A60104B1A68D2075CBF01221A601B
:107A60000E4B1A68D0075CBF01221A600C4B1A68D3
:107A7000D1075CBF01221A600A4B1A68D2075CBFAB
:107A800001221A60704700BF6CE7032068E70320FB
:107A900064E7032060E703205CE7032058E7032046
:107AA00054E7032050E70320244B1A68D0075CBF3B
:107AB00001221A60224B1A68D1075CBF01221A60AA
:107AC000204B1A68D2075CBF01221A601E4B1A684D
:107AD000D0075CBF01221A601C4B1A68D1075CBF3B
:107AE00001221A601A4B1A68D2075CBF01221A6081
:107AF000184B1A68D0075CBF01221A60164B1A682F
:107B0000D1075CBF01221A60144B1A68D2075CBF10
:107B100001221A60124B1A68D0075CBF01221A605A
:107B2000104B1A68D1075CBF01221A600E4B1A680D
:107B3000D2075CBF01221A60704700BF9CE7032098
:107B400098E7032094E7032090E703208CE70320C5
:107B500088E7032084E7032080E703207CE70320F5
:107B600078E7032074E7032070E70320244B1A68AA
:107B7000D0075CBF01221A60224B1A68D1075CBF94
:107B800001221A60204B1A68D2075CBF01221A60DA
:107B90001E4B1A68D0075CBF01221A601C4B1A6882
:107BA000D1075CBF01221A601A4B1A68D2075CBF6A
:107BB00001221A60184B1A68D0075CBF01221A60B4
:107BC000164B1A68D1075CBF01221A60144B1A6861
:107BD000D2075CBF01221A60124B1A68D0075CBF43
:107BE00001221A60104B1A68D1075CBF01221A608B
:107BF0000E4B1A68D2075CBF01221A60704700BFA3
:107C0000CCE70320C8E70320C4E70320C0E7032034
:107C1000BCE70320B8E70320B4E70320B0E7032064
:107C2000ACE70320A8E70320A4E70320A0E7032094
:107C3000184B1A68D1075CBF01221A60164B1A68EC
:107C4000D2075CBF01221A60144B1A68D0075CBFD0
:107C500001221A60124B1A68D1075CBF01221A6018
:107C6000104B1A68D2075CBF01221A600E4B1A68CB
:107C7000D0075CBF01221A600C4B1A68D1075CBFA9
:107C800001221A600A4B1A68D2075CBF01221A60EF
:107C9000704700BFECE70320E8E70320E4E7032098
:107CA000E0E70320DCE70320D8E70320D4E7032044
:107CB000D0E703202DE9F0432DED028B8BB055EC7E
:107CC000104B00F081F83A4BB0EE408AF0EE608A3B
:107CD00093F90060731C0DD022462B46204629469E
:107CE00000F0D4FE30B9002200232046294600F0DF
:107CF000C3FE40B1B0EE480AF0EE680A0BB0BDEC2E
:107D0000028BBDE8F0832B4B0890CDE90245CDE90D
:107D100004450193DEB9284F4FF0604620462946BE
:107D200000220023CDE9066700F07EFE002837D050
:107D300002230093684600F04BFAC8B1089BE3B9F0
:107D40009DED060B0BB0BDEC028BBDE8F083DFF8B8
:107D500070904FF000082046294600220023CDE90C
:107D6000068900F061FE68B102239E420093E1D1D2
:107D7000FEF7E6FA22230360E0E7FEF7E1FA089B4C
:107D80000360DDE70123022E00930BD1FEF7D8FA42
:107D900021230360094800F01FFA8DED060BCDE7A3
:107DA00001230093684600F013FA0028F2D1EDE7B2
:107DB000B8D5032070960D00FFFFEFC774960D0035
:107DC0000000F0FF000000002DE9F04F51EC100B17
:107DD000B1F5801F85B00B4659DA10EE102A21F05C
:107DE0000044224300F0F8800029C0F28081002284
:107DF000DD4BDE4C00F0B0FB0B46A3426FF03502CA
:107E00004ADCC3F3130505F5152404F6647404F481
:107E1000801686F07F541B1584F44014A3F2FF33C0
:107E200044EA05019C180022D14B00F0E1F9AB1C9B
:107E3000C3F31303022B04EB165482468B464FF018
:107E4000000232DC002300F0EFFD002800F0CF80BC
:107E5000002C00F05881204600F018FBACA3D3E9B9
:107E6000002306460F4600F077FBABA3D3E90023BF
:107E700004460D463046394600F06EFB02460B467E
:107E80002046294600F0B6F941EC100B0AE0B74C49
:107E9000A3424FF00002B4DD02460B4600F0AAF9FF
:107EA00041EC100B05B0BDE8F08F4FF0804300F0BF
:107EB000A1F902460B465046594600F077FC0646AB
:107EC00020460F4600F0E2FA3246CDE900013B467B
:107ED00030463946CDE9026700F03EFB02460B46CC
:107EE0008046894600F038FB8DA3D3E9002306467F
:107EF0000F4600F031FB8CA3D3E9002300F07AF9A0
:107F000032463B4600F028FB89A3D3E9002300F06A
:107F100071F932463B4600F01FFB87A3D3E90023EB
:107F200000F068F942464B4600F016FB84A3D3E903
:107F30000023804689463046394600F00DFB82A377
:107F4000D3E9002300F056F932463B4600F004FB2B
:107F50007FA3D3E9002300F04DF932463B4600F001
:107F6000FBFA0B4602464946404600F043F9A5F5A8
:107F7000C223C5F5D725A3F27A4351351D43002D01
:107F8000804689465CDD00227A4B5046594600F017
:107F9000E3FA52465B4600F0DFFA06460F46002C35
:107FA0006ED132463B464046494600F023F9DDE9B2
:107FB000022300F0D1FA02460B463046394600F063
:107FC00017F902460B465046594600F011F941ECAC
:107FD000100B05B0BDE8F08F002200230020664999
:107FE00000F0E4FB41EC100B05B0BDE8F08F5AA3A4
:107FF000D3E900235046594600F0AEFA02460B463C
:1080000000205C4900F0F4F8524606460F465B46F5
:108010005046594600F0A0FA02460B463046394613
:1080200000F09AFA06460F46002C40F0A780024660
:108030000B465046594600F0DBF841EC100B31E797
:10804000002C00F0AF8032A3D3E90023DDE900016A
:1080500000F082FA42464B4604460D4650465946C9
:1080600000F0C6F8DDE9022300F076FA2AA3D3E98E
:10807000002306460F46DDE9000100F06DFA21E01D
:1080800023A3D3E90023DDE9000100F065FA3246BD
:108090003B4604460D464046494600F0ABF8DDE954
:1080A000022300F059FA1CA3D3E900238046894635
:1080B000DDE9000100F050FA02460B464046494611
:1080C00000F098F802460B463046394600F090F82A
:1080D00052465B4600F08CF802460B462046294685
:1080E00000F086F841EC100B05B0BDE8F08F10EE03
:1080F000102A0B4600F07CF80022002300F056FB0B
:1081000041EC100BCEE69FED160BCBE6AFF30080F3
:108110000000E0FE422EE63F763C7935EF39EA3D3D
:1081200044523EDF12F1C23FDE03CB966446C73FA6
:10813000599322942449D23F935555555555E53FBF
:108140009FC678D0099AC33FAF788E1DC571CC3FCA
:1081500004FA97999999D93F555555555555D53F95
:10816000000000000000000000005043FFFFEF7F10
:108170000000F03F0000E03F000050C3204600F048
:1081800085F90FA3D3E900238046894600F0E4F97E
:108190000DA3D3E9002304460D464046494600F0AE
:1081A000DBF98FE702460B465046594600F020F8AF
:1081B000DDE9022300F0D0F903E700BFAFF3008050
:1081C0000000E0FE422EE63F763C7935EF39EA3D8D
:1081D00000207047000000009FED010B704700BFBA
:1081E000000000000000F87F81F0004102E000BFC5
:1081F00083F0004330B54FEA41044FEA430594EA67
:10820000050F08BF90EA020F1FBF54EA000C55EAA1
:10821000020C7FEA645C7FEA655C00F0E2804FEA72
:108220005454D4EB5555B8BF6D420CDD2C4480EA54
:10823000020281EA030382EA000083EA010180EA84
:10824000020281EA0303362D88BF30BD11F0004FD2
:108250004FEA01314FF4801C4CEA113102D0404208
:1082600061EB410113F0004F4FEA03334CEA133343
:1082700002D0524263EB430394EA050F00F0A7805B
:10828000A4F10104D5F1200E0DDB02FA0EFC22FA56
:1082900005F2801841F1000103FA0EF2801843FA4A
:1082A00005F359410EE0A5F120050EF1200E012A3B
:1082B00003FA0EFC28BF4CF0020C43FA05F3C01879
:1082C00051EBE37101F0004507D54FF0000EDCF1F2
:1082D000000C7EEB00006EEB0101B1F5801F1BD39B
:1082E000B1F5001F0CD349085FEA30004FEA3C0C9F
:1082F00004F101044FEA445212F5800F80F09A8095
:10830000BCF1004F08BF5FEA500C50F1000041EB98
:10831000045141EA050130BD5FEA4C0C404141EB9C
:10832000010111F4801FA4F10104E9D191F0000FC3
:1083300004BF01460020B1FA81F308BF2033A3F146
:108340000B03B3F120020CDA0C3208DD02F1140C3D
:10835000C2F10C0201FA0CF021FA02F10CE002F178
:108360001402D8BFC2F1200C01FA02F120FA0CFC71
:10837000DCBF41EA0C019040E41AA2BF01EB0451BA
:10838000294330BD6FEA04041F3C1CDA0C340EDCB8
:1083900004F11404C4F1200220FA04F001FA02F3FB
:1083A00040EA030021FA04F345EA030130BDC4F1B9
:1083B0000C04C4F1200220FA02F001FA04F340EAAE
:1083C0000300294630BD21FA04F0294630BD94F05F
:1083D000000F83F4801306BF81F480110134013D46
:1083E0004EE77FEA645C18BF7FEA655C29D094EAB7
:1083F000050F08BF90EA020F05D054EA000C04BF35
:108400001946104630BD91EA030F1EBF002100201F
:1084100030BD5FEA545C05D14000494128BF41F0BE
:10842000004130BD14F580043CBF01F5801130BD22
:1084300001F0004545F0FE4141F470014FF00000AD
:1084400030BD7FEA645C1ABF194610467FEA655C5E
:108450001CBF0B46024650EA013406BF52EA033500
:1084600091EA030F41F4002130BD00BF90F0000FEE
:1084700004BF0021704730B54FF4806404F132042A
:108480004FF000054FF0000150E700BF90F0000FE3
:1084900004BF0021704730B54FF4806404F132040A
:1084A00010F0004548BF40424FF000013EE700BFDA
:1084B00042004FEAE2014FEA31014FEA02701FBF6A
:1084C00012F07F4393F07F4F81F06051704792F03C
:1084D000000F14BF93F07F4F704730B54FF46074B6
:1084E00001F0004521F0004120E700BF50EA010201
:1084F00008BF704730B54FF000050AE050EA0102AE
:1085000008BF704730B511F0004502D5404261EB1D
:1085100041014FF4806404F132045FEA915C3FF45E
:10852000DCAE4FF003025FEADC0C18BF03325FEAF7
:10853000DC0C18BF033202EBDC02C2F1200300FAAC
:1085400003FC20FA02F001FA03FE40EA0E0021FAD1
:1085500002F11444C1E600BF70B54FF0FF0C4CF4BB
:10856000E06C1CEA11541DBF1CEA135594EA0C0F71
:1085700095EA0C0F00F0DEF82C4481EA030621EAAC
:108580004C5123EA4C5350EA013518BF52EA0335E7
:1085900041F4801143F4801338D0A0FB02CE4FF099
:1085A0000005E1FB02E506F00042E0FB03E54FF0C9
:1085B0000006E1FB03569CF0000F18BF4EF0010EC1
:1085C000A4F1FF04B6F5007F64F5407404D25FEABD
:1085D0004E0E6D4146EB060642EAC62141EA555170
:1085E0004FEAC52040EA5E504FEACE2EB4F1FD0CB2
:1085F00088BFBCF5E06F1ED8BEF1004F08BF5FEA30
:10860000500E50F1000041EB045170BD06F00046E1
:1086100046EA010140EA020081EA0301B4EB5C048E
:10862000C2BFD4EB0C0541EA045170BD41F4801186
:108630004FF0000E013C00F3AB8014F1360FDEBFAB
:10864000002001F0004170BDC4F10004203C35DA87
:108650000C341BDC04F11404C4F1200500FA05F30A
:1086600020FA04F001FA05F240EA020001F00042AB
:1086700021F0004110EBD37021FA04F642EB060121
:108680005EEA430E08BF20EAD37070BDC4F10C044B
:10869000C4F1200500FA04F320FA05F001FA04F20F
:1086A00040EA020001F0004110EBD37041F10001FB
:1086B0005EEA430E08BF20EAD37070BDC4F1200506
:1086C00000FA05F24EEA020E20FA04F301FA05F26E
:1086D00043EA020321FA04F001F0004121FA04F216
:1086E00020EA020000EBD3705EEA430E08BF20EAE6
:1086F000D37070BD94F0000F0FD101F00046400020
:1087000041EB010111F4801F08BF013CF7D041EAA1
:10871000060195F0000F18BF704703F000465200A5
:1087200043EB030313F4801F08BF013DF7D043EA76
:108730000603704794EA0C0F0CEA135518BF95EA2C
:108740000C0F0CD050EA410618BF52EA4306D1D1B3
:1087500081EA030101F000414FF0000070BD50EAD2
:10876000410606BF1046194652EA430619D094EA5C
:108770000C0F02D150EA013613D195EA0C0F05D146
:1087800052EA03361CBF104619460AD181EA03019A
:1087900001F0004141F0FE4141F470014FF0000052
:1087A00070BD41F0FE4141F4780170BD70B54FF0ED
:1087B000FF0C4CF4E06C1CEA11541DBF1CEA13556D
:1087C00094EA0C0F95EA0C0F00F0A7F8A4EB05044F
:1087D00081EA030E52EA03354FEA013100F0888046
:1087E0004FEA03334FF0805545EA131343EA12630F
:1087F0004FEA022245EA111545EA10654FEA0026C4
:108800000EF000419D4208BF964244F1FD0404F57C
:10881000407402D25B084FEA3202B61A65EB0305D8
:108820005B084FEA32024FF480104FF4002CB6EB95
:10883000020E75EB030E22BFB61A754640EA0C0015
:108840005B084FEA3202B6EB020E75EB030E22BF55
:10885000B61A754640EA5C005B084FEA3202B6EB96
:10886000020E75EB030E22BFB61A754640EA9C0055
:108870005B084FEA3202B6EB020E75EB030E22BF25
:10888000B61A754640EADC0055EA060E18D04FEAE3
:10889000051545EA16754FEA06164FEAC30343EA83
:1088A00052734FEAC2025FEA1C1CC0D111F4801F50
:1088B0000BD141EA00014FF000004FF0004CB6E749
:1088C00011F4801F04BF01430020B4F1FD0C88BFE8
:1088D000BCF5E06F3FF6AFAEB5EB030C04BFB6EBF3
:1088E000020C5FEA500C50F1000041EB045170BDE6
:1088F0000EF0004E4EEA113114EB5C04C2BFD4EB13
:108900000C0541EA045170BD41F480114FF0000E96
:10891000013C90E645EA060E8DE60CEA135594EA12
:108920000C0F08BF95EA0C0F3FF43BAF94EA0C0F15
:108930000AD150EA01347FF434AF95EA0C0F7FF48A
:1089400025AF104619462CE795EA0C0F06D152EADE
:1089500003353FF4FDAE1046194622E750EA4106C2
:1089600018BF52EA43067FF4C5AE50EA41047FF4D3
:108970000DAF52EA43057FF4EBAE12E74FF0FF3C38
:1089800006E000BF4FF0010C02E000BF4FF0010C09
:108990004DF804CD4FEA410C7FEA6C5C4FEA430C82
:1089A00018BF7FEA6C5C1BD001B050EA410C0CBFD1
:1089B00052EA430C91EA030F02BF90EA020F002033
:1089C000704710F1000F91EA030F58BF994208BF9A
:1089D00090422CBFD8176FEAE37040F00100704757
:1089E0004FEA410C7FEA6C5C02D150EA013C07D1AE
:1089F0004FEA430C7FEA6C5CD6D152EA033CD3D0F9
:108A00005DF8040B704700BF8446104662468C46F2
:108A10001946634600E000BF01B5FFF7B7FF002825
:108A200048BF10F1000F01BD4DF808EDFFF7F4FF4E
:108A30000CBF012000205DF808FB00BF4DF808EDD9
:108A4000FFF7EAFF34BF012000205DF808FB00BFFC
:108A50004DF808EDFFF7E0FF94BF012000205DF81E
:108A600008FB00BF4DF808EDFFF7CEFF94BF0120D3
:108A700000205DF808FB00BF4DF808EDFFF7C4FFCC
:108A800034BF012000205DF808FB00BF4FEA410C15
:108A90007FEA6C5C02D150EA013C0AD14FEA430CF8
:108AA0007FEA6C5C02D152EA033C02D14FF0000035
:108AB00070474FF0010070474FEA4102B2F1E043C6
:108AC00024BFB3F5001CDCF1FE5C0DD901F0004CB5
:108AD0004FEAC0024CEA5070B2F1004F40EB830005
:108AE00008BF20F00100704711F0804F21D113F131
:108AF0003872BCBF01F00040704741F480114FEA6A
:108B00005252C2F11802C2F1200C10FA0CF320FAF2
:108B100002F018BF40F001004FEAC1234FEAD3230F
:108B200003FA0CFC40EA0C0023FA02F34FEA430379
:108B3000CCE77FEA625307D150EA01331EBF4FF002
:108B4000FE4040F44000704701F0004040F0FE401D
:108B500040F40000704700BF10B5054C13462CB11F
:108B60000A4601460220AFF3008010BD204610BD2A
:108B70000000000010B5431E0A44914204D011F8D1
:108B8000014B03F8014FF8E710BD0244034693423E
:108B900002D003F8011BFAE77047000038B5124B0A
:108BA0001C68A36B0546D3B91820FDF791FB43F26F
:108BB0000E33A06303804AF6CD33438041F2342361
:108BC00083804EF26D63C3804DF6EC630381052311
:108BD00043810B23838101220023C0E90423A36B7B
:108BE00000221D615A6138BD1CD60320034611F8CE
:108BF000012B03F8012B002AF9D17047024B0146E3
:108C0000186800F003B800BF1CD6032070B50646F4
:108C100008460C4600F00DF8451C29463046FDF785
:108C200087FB064618B12A462146FFF7A3FF3046C8
:108C300070BD034613F8012B002AFBD1181A013826
:108C40007047000021400D005D400D0089400D007F
:108C50008D400D000000000054696D653A202530FC
:108C600032693A253032693A253032693A25303353
:108C7000690A0044617465733A20253032692D25F4
:108C80003032692D253032690A004669783A20254C
:108C9000692C205175616C6974793A2025690074DA
:108CA000656D70433A2025662074656D70463A20E4
:108CB000256620636F756E7465723A20256920649D
:108CC000657669636549443A2025730A00766F6CBE
:108CD000746167653A2025660A0073656E642072C8
:108CE00065706C793A2025730A0073656E6444617F
:108CF000746128290041542B53454E443D25692C6D
:108D000025692C25302E32662C25302E32662C25F6
:108D1000690D0A0063726561746542756666657205
:108D20003A202573006372656174654275666665F5
:108D30007228290041542B53454E443D25692C3659
:108D4000302C25662C25662C25690D0A0053656E8E
:108D500064207265706C793A2025730A0041542BA7
:108D60004D4F44453D300D0A004177616974696E8D
:108D700067205265706C792066726F6D207265791C
:108D800061784F6E28290A005265706C793A202567
:108D9000730A0041542B4D4F44453F0D0A00417763
:108DA000616974696E67205265706C792066726FB4
:108DB0006D206D6F64653F0A0041542B4D4F444553
:108DC0003D310D0A00506F776572696E6720646FE0
:108DD000776E2E2E2E0A005374617274696E6720AE
:108DE0005363616E3A200A2D2D2D2D2D2D2D2D2D05
:108DF0002D2D2D2D2D200A004932432064657669E2
:108E0000636520666F756E642061742061646472AE
:108E100065737320307825303278200A00556E6BE8
:108E20006E6F776E206572726F722061742061645C
:108E3000647265737320307825303278200A004ED2
:108E40006F20493243206465766963657320666FDD
:108E5000756E640A002D2D2D2D2D2D2D2D2D2D2DD2
:108E60002D2D2D200A5363616E20436F6D706C654C
:108E70007465210A0041540D0A00617454657374CD
:108E8000207265706C793A2025730A00617454650C
:108E9000737428290041542B52455345540D0A0040
:108EA000736F667477617265526573657428290003
:108EB000736F6674776172655265736574282932C1
:108EC0000061744D6F6465207265706C793A20257D
:108ED00073207265706C79323A2025730A006174D0
:108EE0004D6F64652829004177616974696E672058
:108EF0005265706C790A005265706C792041542B70
:108F00004D4F44453F3A2025730A0041542B4D4FA5
:108F100044453F0041542B504152414D4554455228
:108F20003D31322C372C312C370D0A0073657452C9
:108F30006164696F0041542B504152414D45544585
:108F4000523F0D0A005265706C792041542B5041FC
:108F500052414D455445523F3A2025730A007365EE
:108F600074506172616D657465723F0041542B42AB
:108F7000414E443D3931353030303030300D0A000B
:108F800041542B42414E443D383638353030303034
:108F9000300D0A0073657442616E640041542B42C7
:108FA000414E443F0D0A005265706C792041542BAC
:108FB00042414E443F3A2025730A0041542B42411E
:108FC0004E443F0042413431303430333239363848
:108FD000424131313134323939303739303231353B
:108FE000393441410041542B4350494E3D25730DC6
:108FF0000A007365744350494E0041542B43504955
:109000004E3F0D0A005265706C79204350494E3A2C
:109010002025730A0041542B4350494E3F004154D0
:109020002B53454E440041542B53454E443F0D0AAB
:10903000005265706C792041542B53454E443F3AA1
:109040002025730A0041542B53454E443F00417480
:109050002B5645523F0D0A007265706C7920617382
:109060006B56455228293A2025730A0061736B56C6
:1090700045520041742B5549443F0D0A00726570FA
:109080006C792061736B55494428293A2025730A6D
:109090000061736B5549440041542B464143544F82
:1090A00052590D0A007265706C792041542B46416B
:1090B00043544F52593A2025730A0041542B4641DC
:1090C00043544F52590041542B4950523D25690D8C
:1090D0000A007365744950520041542B4950523F65
:1090E0000D0A005265706C792041542B4950523F53
:1090F0003A2025730A0041542B4950523F004154F5
:109100002B414444524553533D25690D0A00736574
:1091100074416464726573730041542B414444523A
:109120004553533F0D0A005265706C792067657492
:1091300020616464726573733A2025730A00415498
:109140002B414444524553533F0041542B4E455408
:10915000574F524B49443D25690D0A0041542B4E4F
:109160004554574F524B49443F0D0A005265706CAD
:10917000792041542B4E4554574F524B49443F2080
:1091800025730A0041542B4E4554574F524B4944C6
:109190003F0041542B4352464F503D25690D0A0074
:1091A00041542B4352464F500041542B4352464F9B
:1091B000503F0D0A005265706C792041542B435288
:1091C000464F503F3A2025730A0041542B435246E4
:1091D0004F503F004770732073746174757320693A
:1091E000732025690A0024504D544B3331342C3000
:1091F0002C312C302C312C302C302C302C302C308D
:109200002C302C302C302C302C302C302C302C307E
:109210002C302C302A32380024504D544B3232300E
:109220002C313030302A314600245047434D442CF5
:1092300033332C312A3643000000000000000000C8
:10924000F9520D009A930D009D930D00A0930D000F
:10925000A3930D00A6930D00A1930D0009930D009B
:10926000000000000000000051530D0071530D007C
:1092700087530D00BD730D0064656661756C7420C5
:10928000004D5342004C5342003C535049536574C7
:1092900074696E67732064656661756C743E003C2A
:1092A00053504953657474696E6773202573256C38
:1092B00075202573204D4F444525643E00474741A6
:1092C00000474C4C0047534100524D430044425428
:1092D0000048444D00484454004D4441004D54570B
:1092E000004D575600524D4200544F5000545854B0
:1092F0000056485700564C57005650570056575284
:109300000057435600585445005A5A5A004150429B
:10931000004450540047535600484447004D5744BA
:1093200000524F540052504D005253410056445287
:1093300000565447005A44410024504D544B313894
:10934000352C302A32320024504D544B3030312CE1
:109350003138352C332A33430024504D544B3138A7
:10936000352C312A32330024504D544B3138332AB6
:1093700033380024504D544B4C4F470024504D542B
:109380004B3136312C302A32380024504D544B307A
:1093900031302C3030322A324400494900574900DC
:1093A000475000504700474E0000000000000000FA
:1093B0000000000063630D006D630D0077630D0016
:1093C00081630D008B630D0097630D00A3630D0097
:1093D000AF630D00B7630D00C1630D00CB630D00DB
:1093E00000000000000000000B650D0001650D008D
:1093F000F7640D00AD640D00EB640D00DF640D003B
:10940000D3640D00CB640D00C1640D00B7640D0082
:10941000CB630D00000000000000000087650D0018
:109420007D650D0073650D0069650D005D650D00BE
:1094300051650D0045650D003D650D0033650D005E
:1094400029650D00CB630D00000810182028303866
:1094500000000000000000000B680D0055680D00C2
:109460002D680D000D680D0035680D003D680D007C
:1094700045680D004D680D00000000000000000070
:10948000DB680D002B690D0039690D00BD730D00FF
:10949000EF680D0011690D00FD680D0025690D00D4
:1094A000DD680D00E1680D00000000000000000014
:1094B000FB690D004B6A0D00596A0D00BD730D006C
:1094C000376A0D00FD690D00136A0D00456A0D0035
:1094D000296A0D00F7690D0000000000000000007F
:1094E000196B0D00096B0D000B6B0D0000000000E7
:1094F00000000000ED6B0D00F36B0D00376C0D00EC
:10950000016C0D00EF6B0D00252B3033643A2530D4
:1095100032750025592D256D2D25645425483A2591
:109520004D3A2553257A0061736374696D65006255
:109530006175640053657269616C0053657269619D
:109540006C31007479706500706172616D00636DDB
:109550006400696400686E64007374726D0066690B
:109560006C74006C766C0061646448616E646C6558
:10957000720072656D6F766548616E646C6572002D
:10958000656E756D48616E646C657273004A534F09
:109590004E53747265616D4C6F6748616E646C65A3
:1095A000720061707000253031307520005D200040
:1095B0002564002C200028293A2000205B00636FDE
:1095C0006465203D200064657461696C73203D20F2
:1095D0000066006C6E00666E00636F646500646513
:1095E0007461696C006E6F6E650074726163650012
:1095F000696E666F007761726E006572726F7200DD
:1096000070616E696300616C6C00776972696E6786
:109610000053797374656D20736C65657020636F9A
:109620006E66696775726174696F6E20697320690F
:109630006E76616C69642E0000000000000000007E
:1096400053780D0049780D003F780D0035780D00F6
:1096500029780D001D780D0011780D0009780D0096
:10966000FF770D00F5770D00CB630D0000000000C3
:109670006C6F6700000000000000000000000000A8
:1096800000000000000000000000000000000000DA
:1096900000000000000000000000000000000000CA
:1096A00000000000000000000000000000000000BA
:1096B00000000000000000000000000000000000AA
:1096C000000000000000000000000000000000009A
:1096D000000000000000000069520D00A1580D00BC
:1096E000A5580D00A9580D00CF5D0D0099640D001F
:1096F00015650D0055660D0015730D0039730D00CD
:109700004D730D0009750D00C1770D005D780D00DA
:10971000257A0D00A97A0D006D7B0D00317C0D00BE
:049720000000000045
:10972400170000002A00000000C201001E00000013
:109734000F000000060000000600000037000000D3
:1097440056545700575020434F47004F696C2032FE
:109754000054726970004157530025362E3266005A
:109764004D6F746F722031004865656C006B5061F9
:109774000052504D0025362E3166005761746572D3
:10978400005069746368006D00534F470042617272
:109794006F6D6574657200434F470054656D7020AA
:1097A40032004F696C203100566F6C74730025369B
:1097B4002E3066004465672043004D6F746F72203D
:1097C4003100484447004444442E646464640044C3
:1097D4006567205472756500484447004C61740005
:1097E400446567726565730025362E3166005750EF
:1097F400204C6F6E00564D470025362E32660058B9
:1098040054450025362E3266004C6F6700575020B1
:10981400564D4700416D70730025362E3066002585
:10982400362E3266004E4D004465672053746264E0
:1098340000446570746800575020446973740025AF
:10984400392E3466004D6F746F722032004E554CC1
:109854000054574100415741004D6F746F722031DD
:109864000025362E31660048444F500025362E30F0
:1098740066004465672043004C6F6E0025362E3029
:1098840066004E4D0048756D6964697479005457DB
:109894004400446567204D61670025362E3166001B
:1098A40025362E3066006B6E6F74730025362E31AC
:1098B40066005061004169720054656D702031008A
:1098C4005750204C6174004D6F746F722032002524
:1098D400205248004D6F746F7220320025362E30AE
:1098E400660044656720430025362E3066004465D3
:1098F4006720426F772055700054575300000000D2
:1099040027950D00010000000000000078960D006E
:1099140098960D00B8960D000000000000000000AD
:10992400000000000000000057930D00000000003C
:109934000000000000000000000000000000000023
:109944000000000000000000000000000000000013
:109954000000000000000000000000000000000003
:0C9964000000000000000000BCD5032043
:10997000FFFFFFFF00000102030405060708090AB4
:109980000B0C0D0E0F101112131415161718191AAF
:089990001B1C1D1E1F202800F6
:0499980078563412B7
:04000003D0004020C9
:00000001FF
