:02000002D0002C
:1040000000400D0078840D00000006000E00050140
:084010000401E80500000000B6
:044018000C7C0D000F
:1040200009480A49884208B505D0094A824202D0A7
:10403000121A03F083FD0748074A0021121A03F001
:1040400088FD014808BD00BF30E10320C4830D0096
:10405000BCE10320BCE10320F0E7032070B502F0CF
:10406000F7F8074C074BE41AA40800251E46A542A2
:1040700004D056F8253098470135F8E770BD00BFE9
:10408000C0830D008C830D0000F022BF08B500F046
:10409000D1FABDE8084002F09DB801F007BA01F07E
:1040A0000DBA01F00BBA0078B0FA80F04009704701
:1040B00001230370704738B50446006928B185684C
:1040C0000C2102F07DFC2846F8E7204638BD0000B0
:1040D00013B5054B1B788DF800303C23044601F0E6
:1040E000D1FE204602B010BDC4E1032010B5044645
:1040F000006808B101F0E2F9204610BD00000000A0
:10410000F0B52DED028B604C8BB004F5C8762546DA
:10411000132002F030FC07EE900AF8EEE77A0A204E
:10412000E5EC017A02F006F9AE42F1D1DFED577A03
:10413000B4EC017AA64277EE877AF9D1DFED546AC2
:10414000544B554C554D87EEA67ADFED556A83EDFD
:10415000007AC6EE877A534BB7EE008A9FED527A0B
:1041600077EEC87AC7EE276AC6EE877AC3ED006A93
:10417000C4ED007A17EE900A03F07EF941EC100BC3
:1041800002F07CFD51EC100B03F07AFCDFED477A76
:1041900006EE900A86EEA77A17EE100A03F06CF985
:1041A00031A3D3E9002303F009F803F069FC07EE1B
:1041B000100AC8EE077A17EE900A03F05DF92CA3F7
:1041C000D3E9002302F0F8FF03F05AFC206003F06B
:1041D00053F929A3D3E9002303F0A2F90022344BB9
:1041E00002F0ECFF03F04CFC286001F061FC2D684C
:1041F000304B24681F68064606A801F0B1F8069BFC
:1042000005932846049703F037F9CDE902012046CB
:1042100003F032F9284A294CCDE90001002130464B
:1042200002F02BF906A802F07FF9182002F0A3FB98
:1042300003F010F912A3D3E9002303F071F903F09E
:104240001FFC206001F034FC0546206803F014F9DF
:104250001B4ACDE900010021284602F00EF90BB0FF
:10426000BDEC028BF0BD00BF83DBB5DCE1796B3FB9
:104270006666666666127140CDCCCCCCCCCCFC3F79
:104280009402C1D2AF63523F10E20320000000004D
:104290000000C842E4E1032008E2032004E2032016
:1042A00000F07F45C0E1032000401C4600E0764559
:1042B00000004040A0E30320207C0D00DCE103204F
:1042C0004E7C0D0038B5046805467CB16368013B3F
:1042D00063605BB9236820469B689847A368013BED
:1042E000A3601BB923682046DB689847284638BD81
:1042F00013460A46002102F0C0B8000030B5194B41
:104300008BB01B680493044610EE900A0D468DEDA9
:10431000070A03F0B1F89DED070ACDE9020110EE9E
:10432000100A03F0A9F82B46CDE9000122460E49F8
:104330000E4801F0D3F80E4B1B782BB101F0B8FBFF
:104340000A4A0C49FFF7D4FF0B4B1B783BB108A876
:10435000064A0A49FFF7BCFE09A8FFF7B3FF0BB0F6
:1043600030BD00BF44E103205B7C0D00A4E30320CB
:10437000D4E103207A7C0D00E0E103208B7C0D006A
:1043800000B589B02249684602F015F901F000FB3A
:10439000204902F048F801F0FBFA0368DB6998470E
:1043A00040F6FC0001F0C6FF01F0F2FA03681B6959
:1043B0009847002826DD01F0EBFA0A22014604A8FE
:1043C00001F0E4FF04A9684602F025F904A802F010
:1043D000ABF8114B1B7853B101F06AFB009A0F49FF
:1043E000FFF786FF01F064FB0368DB6998470C4B1D
:1043F0001B783BB104A8009A0A49FFF769FE05A89B
:10440000FFF760FF684602F08FF809B05DF804FB23
:10441000397E0D00A4E30320D4E103209A7C0D0033
:10442000E0E10320AA7C0D000A46002102F025B835
:1044300000B589B01B49684602F0BDF801F0A8FA42
:104440001949FFF7F1FFC82001F074FF01F0A0FA4D
:1044500003681B69984700281EDD01F099FA0A22BB
:10446000014604A801F092FF04A9684602F0D3F8BF
:1044700004A802F059F80D4B1B782BB101F018FB82
:10448000009A0B49FFF734FF04A8009A0949FFF787
:104490001FFE05A8FFF716FF684602F045F809B0B1
:1044A0005DF804FB397E0D002F7D0D00D4E1032063
:1044B000347D0D00467D0D0010B58EB00446514987
:1044C00002A802F078F84F4906A802F074F8012C0F
:1044D00008D101F05DFA4C49FFF7A6FF01F0E8FAB8
:1044E000494907E001F054FA4849FFF79DFF01F000
:1044F000DFFA4649FFF798FF01F0DAFA0368DB6953
:10450000984701F045FA0368DB699847C82001F035
:1045100011FF01F03DFA03681B699847002832DD5E
:1045200001F036FA0A2201460AA801F02FFF0AA973
:1045300002A802F070F80AA801F0F6FF01F028FACC
:104540000A2201460AA801F021FF0AA906A802F0E2
:1045500062F80AA801F0E8FF2D4B1B7843B101F087
:10456000A7FA069B00932B4A029B002101F085FFCE
:10457000294B1B783BB10AA8029A2849FFF7A8FDEE
:104580000BA8FFF79FFE264B1B78002B32D001F0C3
:10459000FFF92449FFF748FFC82001F0CBFE01F0E6
:1045A000F7F903681B699847002823DD01F080FABA
:1045B0001D49FFF739FF01F0EBF90A2201460AA86D
:1045C00001F0E4FE0AA902A802F025F80AA801F009
:1045D000ABFF01F06DFA029A1449FFF789FE0E4B0A
:1045E0001B783BB10AA8029A1149FFF771FD0BA88D
:1045F000FFF768FE06A801F097FF02A801F094FFFC
:104600000EB010BD397E0D00117D0D00B57C0D0082
:10461000D4E103207B7D0D00E0E10320987D0D00B7
:104620000CE20320EB7C0D00A17D0D00B17D0D009F
:10463000C57D0D001FB50020FFF73EFF4FF4FA7057
:1046400001F078FEFFF75CFD124BD3ED000A124B30
:1046500093ED000A114B1968114B1868FFF74EFED5
:10466000FFF78EFE4FF47A7001F064FE0120FFF731
:1046700023FF4FF4FA7001F05DFE01A8094902F032
:1046800033F8019808B100F019FF02F02AF805B0DC
:104690005DF804FBDCE1032004E2032048E1032091
:1046A00030E10320ECE1032000B589B038496846C9
:1046B00001F081FF01F06CF93649FFF7B5FEC82023
:1046C00001F038FE01F064F903681B69984700287F
:1046D00021DD01F05DF90A22014604A801F056FE31
:1046E00004A9684601F097FF04A801F01DFF2A4BBA
:1046F0001B782BB101F0DCF9009A2849FFF7F8FD8F
:10470000274B1B783BB104A8009A2649FFF7E0FC31
:1047100005A8FFF7D7FD244B1B78002B32D001F002
:1047200037F92249FFF780FEC82001F003FE01F0AF
:104730002FF903681B699847002823DD01F0B8F9B9
:104740001B49FFF771FE01F023F90A22014604A874
:1047500001F01CFE04A9684601F05DFF04A801F009
:10476000E3FE01F0A5F9009A1249FFF7C1FD0C4BD9
:104770001B783BB104A8009A0F49FFF7A9FC05A8D4
:10478000FFF7A0FD684601F0CFFE09B05DF804FB1D
:10479000397E0D00CE7D0D00D4E103209E7C0D00FE
:1047A000E0E10320E67D0D000CE20320EF7D0D002B
:1047B000A17D0D00FF7D0D00187E0D0010B588B0A5
:1047C00004463B49684601F0F6FE24B901F0E0F8E2
:1047D0003849FFF729FE01F0DBF83749FFF724FEDF
:1047E000C82001F0A7FD01F0D3F803681B699847C2
:1047F000002821DD01F0CCF80A22014604A801F0CE
:10480000C5FD04A9684601F006FF04A801F08CFE6E
:104810002A4B1B782BB101F04BF9009A2849FFF77E
:1048200067FD284B1B783BB104A8009A2649FFF787
:104830004FFC05A8FFF746FD244B1B78002B32D018
:1048400001F0A6F82249FFF7EFFDC82001F072FD44
:1048500001F09EF803681B699847002823DD01F0EA
:1048600027F91C49FFF7E0FD01F092F80A22014602
:1048700004A801F08BFD04A9684601F0CCFE04A851
:1048800001F052FE01F014F9009A1349FFF730FDD0
:104890000C4B1B783BB104A8009A1049FFF718FC99
:1048A00005A8FFF70FFD684601F03EFE08B010BDF9
:1048B000397E0D00267E0D003A7E0D00D4E10320E6
:1048C0009E7C0D00E0E103204E7E0D000CE20320F3
:1048D000567E0D00A17D0D00617E0D00757E0D00E0
:1048E00000B58DB03C49684601F065FE3B4904A81F
:1048F00001F061FE01F04CF8009A3949FFF7F8FC2D
:10490000C82001F017FD01F043F803681B699847C0
:10491000002821DD01F03CF80A22014608A801F038
:1049200035FD08A904A801F076FE08A801F0FCFDF9
:104930002C4B1B782BB101F0BBF8049A2A49FFF7E6
:10494000D7FC2A4B1B783BB108A8049A2849FFF7EB
:10495000BFFB09A8FFF7B6FC264B1B78002B32D013
:1049600001F016F82449FFF75FFDC82001F0E2FCD2
:1049700001F00EF803681B699847002823DD01F059
:1049800097F81E49FFF750FD01F002F80A22014690
:1049900008A801F0FBFC08A904A801F03CFE08A847
:1049A00001F0C2FD01F084F8049A1549FFF7A0FC5C
:1049B0000E4B1B783BB108A8049A1249FFF788FBFD
:1049C00009A8FFF77FFC04A801F0AEFD684601F0DE
:1049D000ABFD0DB05DF804FB7E7E0D00397E0D0051
:1049E0009F7E0D00D4E103209E7C0D00E0E10320BA
:1049F000AC7E0D000CE20320B47E0D00A17D0D0005
:104A0000BF7E0D00CF7E0D0013460A46002101F047
:104A100034BD000010B588B039490446684601F03D
:104A2000CAFD00F0B5FF22463649FFF7EDFFC8206A
:104A300001F080FC00F0ACFF03681B699847002878
:104A400021DD00F0A5FF0A22014604A801F09EFC2A
:104A500004A9684601F0DFFD04A801F065FD2A4BBA
:104A60001B782BB101F024F8009A2849FFF740FC8D
:104A7000274B1B783BB104A8009A2649FFF728FB77
:104A800005A8FFF71FFC244B1B78002B32D000F049
:104A90007FFF2249FFF7C8FCC82001F04BFC00F063
:104AA00077FF03681B699847002823DD01F000F8B1
:104AB0001B49FFF7B9FC00F06BFF0A22014604A86E
:104AC00001F064FC04A9684601F0A5FD04A801F00A
:104AD0002BFD00F0EDFF009A1249FFF709FC0C4B8B
:104AE0001B783BB104A8009A0F49FFF7F1FA05A81B
:104AF000FFF7E8FB684601F017FD08B010BD00BFE6
:104B0000397E0D00807F0D00D4E103209E7C0D00D6
:104B1000E0E103208C7F0D000CE20320937F0D0069
:104B2000A17D0D009D7F0D00B07F0D0010B588B0F8
:104B300039490446684601F03EFD00F029FF22464F
:104B40003649FFF761FFC82001F0F4FB00F020FFB9
:104B500003681B699847002821DD00F019FF0A222D
:104B6000014604A801F012FC04A9684601F053FDB7
:104B700004A801F0D9FC2A4B1B782BB100F098FF58
:104B8000009A2849FFF7B4FB274B1B783BB104A8D8
:104B9000009A2649FFF79CFA05A8FFF793FB244BE0
:104BA0001B78002B32D000F0F3FE2249FFF73CFCCB
:104BB000C82001F0BFFB00F0EBFE03681B699847BB
:104BC000002823DD00F074FF1B49FFF72DFC00F0E7
:104BD000DFFE0A22014604A801F0D8FB04A96846BA
:104BE00001F019FD04A801F09FFC00F061FF009A9C
:104BF0001249FFF77DFB0C4B1B783BB104A8009AD0
:104C00000F49FFF765FA05A8FFF75CFB684601F05E
:104C10008BFC08B010BD00BF397E0D00B87F0D00C1
:104C2000D4E103209E7C0D00E0E10320C87F0D004D
:104C30000CE20320D37F0D00A17D0D00E17F0D006C
:104C4000F87F0D0010B588B039490446684601F078
:104C5000B2FC00F09DFE22463649FFF7D5FEC82083
:104C600001F068FB00F094FE03681B699847002878
:104C700021DD00F08DFE0A22014604A801F086FB2A
:104C800004A9684601F0C7FC04A801F04DFC2A4BBA
:104C90001B782BB100F00CFF009A2849FFF728FB86
:104CA000274B1B783BB104A8009A2649FFF710FA5E
:104CB00005A8FFF707FB244B1B78002B32D000F030
:104CC00067FE2249FFF7B0FBC82001F033FB00F07C
:104CD0005FFE03681B699847002823DD00F0E8FEAB
:104CE0001B49FFF7A1FB00F053FE0A22014604A86E
:104CF00001F04CFB04A9684601F08DFC04A801F00A
:104D000013FC00F0D5FE009A1249FFF7F1FA0C4BA4
:104D10001B783BB104A8009A0F49FFF7D9F905A801
:104D2000FFF7D0FA684601F0FFFB08B010BD00BFE6
:104D3000397E0D0004800D00D4E103209E7C0D001F
:104D4000E0E10320C87F0D000CE2032016800D0077
:104D5000A17D0D0026800D003E800D0010B588B0AD
:104D600039490446684601F026FC00F011FE22464F
:104D70003649FFF749FEC82001F0DCFA00F008FED2
:104D800003681B699847002821DD00F001FE0A2214
:104D9000014604A801F0FAFA04A9684601F03BFCB8
:104DA00004A801F0C1FB2A4B1B782BB100F080FE58
:104DB000009A2849FFF79CFA274B1B783BB104A8BF
:104DC000009A2649FFF784F905A8FFF77BFA244BE0
:104DD0001B78002B32D000F0DBFD2249FFF724FBCB
:104DE000C82001F0A7FA00F0D3FD03681B699847BB
:104DF000002823DD00F05CFE1B49FFF715FB00F0E7
:104E0000C7FD0A22014604A801F0C0FA04A96846B9
:104E100001F001FC04A801F087FB00F049FE009AB4
:104E20001249FFF765FA0C4B1B783BB104A8009AB6
:104E30000F49FFF74DF905A8FFF744FA684601F05E
:104E400073FB08B010BD00BF397E0D004C800D0013
:104E5000D4E103209E7C0D00E0E103205A800D0088
:104E60000CE2032063800D00A17D0D006F800D001A
:104E700084800D0008B50020FFF71EFBFFF7D8FA6D
:104E80000D4B1868FFF752FE0C4B1868FFF7DAFE5F
:104E90000B4B1868FFF792FC0A4B1868FFF704FCED
:104EA000094B1868FFF7B6FD084B1868FFF756FF67
:104EB000BDE80840FFF714BD4CE103203CE10320AE
:104EC000E8E10320D8E1032034E1032038E10320A6
:104ED000F8B5012001F0EEF901210A2001F00DFAE8
:104EE0003B4B1B68013B062B21D8DFE803F004078E
:104EF0000D1014181C00FF22002116E05822FF217B
:104F0000192001F0E7F915E00022452105E0F02223
:104F10002021A020F5E700221146FF20F1E7B3226F
:104F200093217320EDE70022FF210846E9E70020E6
:104F300001F0C0F900F0BCFD4FF4165100F0ACFDDB
:104F400000F026FD4FF4E13100F01CFD4FF47A70C3
:104F500001F0F0F90021132001F0FCFC1D4B1E4C68
:104F600001221A701D4A002313701D4A1370FFF7A7
:104F70005FFAFFF77FFF237D13B302232372194BE0
:104F80001B684EF660275F432368DB6823B19A886D
:104F9000042A19D09B68F9E71349102001F014FD89
:104FA000054698B110263246002102F0D2FD0223B8
:104FB0006B8004232E80AB802369AB60EF6025619A
:104FC0000A4B00221A60F8BDDF60F9E72075F7E7A9
:104FD00044E10320D4E10320ECE10320E0E10320DD
:104FE0000CE2032040E103201C830D00A0E303201A
:104FF000F8B5154C154B00251D70102600F040F932
:10500000201D32462946206002F0A3FDA680104EE6
:1050100010490123022732462375E78020460E4CB3
:1050200001F0C0FC4FF6FF7338462560A580A571DE
:105030002581638100F0FCF9324620460749BDE82E
:10504000F84001F0AFBC00BFECE10320C4E1032055
:10505000BCE10320B7400D00C8E10320ED400D0086
:1050600008B5024B1B681B68019308BD4C02030086
:1050700008B5024B1B685B68019308BD4C02030036
:1050800008B5024B1B681B69019308BD4C02030065
:1050900008B5024B1B685B69019308BD4C02030015
:1050A00008B5024B1B689B69019308BD4C020300C5
:1050B00008B5024B1B68DB69019308BD4C02030075
:1050C00008B5024B1B681B6A019308BD4C02030024
:1050D00008B5024B1B681B6A019308BD2802030038
:1050E00008B5024B1B685B6A019308BD28020300E8
:1050F00008B5024B1B689B6A019308BD2802030098
:1051000008B5024B1B68DB6A019308BD2802030047
:1051100008B5024B1B681B6B019308BD28020300F6
:1051200008B5024B1B685B6B019308BD28020300A6
:1051300008B5024B1B681B6C019308BD28020300D5
:1051400008B5024B1B681B68019308BD3C020300B5
:1051500008B5024B1B68DB68019308BD3C020300E5
:1051600008B5024B1B681B69019308BD3C02030094
:1051700008B5024B1B685B69019308BD3C02030044
:1051800008B5024B1B689B69019308BD3C020300F4
:1051900008B5024B1B68DB69019308BD3C020300A4
:1051A00008B5024B1B681B6A019308BD3C02030053
:1051B00008B5024B1B689B6A019308BD3C020300C3
:1051C00008B5024B1B68DB6A019308BD3C02030073
:1051D00008B5024B1B685B69019308BD64020300BC
:1051E00008B5024B1B689B68019308BD4802030089
:1051F00008B5024B1B681B69019308BD48020300F8
:1052000008B5024B1B685B69019308BD48020300A7
:1052100008B5024B1B685B6C019308BD4802030094
:1052200008B5024B1B689B6C019308BD4802030044
:1052300008B5024B1B689B6E019308BD3402030046
:1052400008B5024B1B685B68019308BD1802030098
:1052500008B5024B1B685B69019308BD1802030087
:1052600008B5024B1B68DB69019308BD30020300DF
:1052700008B5024B1B681B6A019308BD300203008E
:1052800008B5024B1B681B68019308BD2C02030084
:1052900008B5024B1B685B68019308BD2C02030034
:1052A00008B5024B1B689B68019308BD2C020300E4
:1052B00008B5024B1B681B6B019308BD2C02030051
:1052C00008B5024B1B689B68019308BD6802030088
:1052D00008B5024B1B68DB68019308BD6802030038
:1052E00008B5024B1B685B68019308BD60020300B0
:1052F00008B5024B1B689B68019308BD6002030060
:1053000008B5024B1B68DB68019308BD600203000F
:1053100008B5024B1B681B69019308BD60020300BE
:1053200008B5024B1B689B69019308BD600203002E
:1053300008B5024B1B68DB69019308BD60020300DE
:1053400008B5024B1B681B6D019308BD600203008A
:1053500008B5024B1B685B69019308BD440203005A
:1053600008B5024B1B68DB69019308BD44020300CA
:1053700008B5024B1B681B6A019308BD4402030079
:1053800008B5024B1B68DB6B019308BD44020300A8
:1053900008B5024B1B685B68019308BD400203001F
:1053A00008B5024B1B689B68019308BD40020300CF
:1053B00008B5024B1B68DB68019308BD400203007F
:1053C00008B5024B1B681B69019308BD400203002E
:1053D00008B5024B1B685B69019308BD40020300DE
:1053E00008B5024B1B689B69019308BD400203008E
:1053F00008B5024B1B68DB69019308BD400203003E
:1054000008B5024B1B681B6A019308BD40020300EC
:1054100008B5024B1B681B6B019308BD40020300DB
:1054200008B5024B1B685B6B019308BD400203008B
:1054300008B5024B1B685B68019308BD200203009E
:1054400008B5024B1B685B69019308BD200203008D
:1054500008B5024B1B68DB6C019308BD20020300FA
:1054600008B5024B1B685B6D019308BD2002030069
:1054700008B5034B1B68D3F88830019308BD0000C2
:105480002002030008B5034B1B68D3F89430019346
:1054900008BD00002002030008B5034B1B68D3F8C9
:1054A000A830019308BD00002002030008B5024B9C
:1054B0001B681B68019308BD1C02030008B5024B62
:1054C0001B685B68019308BD1C02030008B5024B12
:1054D0001B689B68019308BD1C02030008B5024BC2
:1054E0001B68DB68019308BD1C02030008B5024B72
:1054F0001B685B6A019308BD1C02030008B5024BE0
:105500001B68DB6A019308BD1C02030008B5024B4F
:105510001B681B6B019308BD1C02030008B5024BFE
:105520001B68DB6B019308BD1C02030010B5836888
:10553000044613B1032201469847204610BD0023BC
:105540001A464068FFF724BF002202214068FFF797
:105550002FBF002211464068FFF722BF00221146EC
:105560004068FFF72DBF00231A4619464068FFF731
:105570002FBF00231A4619464068FFF731BF0022AB
:1055800081F001014068FFF733BF00224068FFF758
:105590003FBF002211464068FFF742BF002211467C
:1055A0004068FFF72DBF2DE9F043002495B0164663
:1055B0000D46074600F0DCFA214620220CA8009494
:1055C00002F0C7FA40230C9321466B460CAA3046E2
:1055D000FFF77EFE0446002844D102460121686898
:1055E000FFF7EEFE0221804622466868FFF7E8FEDC
:1055F000009E81462146002E34D0002932D17368A6
:10560000022B02D00A2B09D02AE0B8F1000F27D0D4
:1056100071693846043100F0D8FA20E0B9F1000F82
:105620001ED07469112201A802F093FA06238DF8A6
:10563000143001AD04F108031834186859682A467B
:1056400003C20833A3421546F7D101A906A807AD46
:1056500000F09CFA0FCD3C1D0FC42B682370012174
:10566000F669C8E70098FFF72BFE384615B0BDE88D
:10567000F0830000024B034A1A6000225A60704710
:10568000D8E3032098800D00002211464068FFF700
:10569000B7BE002211464068FFF7C2BE0022406834
:1056A000FFF7B6BE002281F001014068FFF7A0BEFF
:1056B00000231A4601214068FFF792BE00231A46D4
:1056C00019464068FFF784BE002211464068FFF784
:1056D00077BE002211464068FFF762BE0022022119
:1056E0004068FFF765BE00231A464068FFF750BECA
:1056F00038B5054688B104684CB1A3681BB10322D4
:105700002146204698471021204601F059F92846A5
:105710001421BDE8384001F053B938BD10B1036819
:105720005B681847704710B503680446BBB15868FA
:10573000FFF756FD78B923685A7C12B95868FFF70D
:1057400057FD23685868FFF75BFD2068002323603E
:1057500028B1FFF7CDFF206808B1FFF7C9FF204649
:1057600010BD38B50446D0F8C40108B1FEF799FC65
:10577000D4F8C00108B1FFF753FDD4F8BC5135B1DE
:105780002846FFF7D0FF0421284601F019F92068C8
:1057900008B1FFF7C3FF204638BD000010B5044B29
:1057A000044640F8083BFFF7DCFF204610BD00BF71
:1057B000CC800D0038B50E4C0E4B23600025022323
:1057C00004F5E4706360A560C4F8C451C4F8C8511E
:1057D000FFF71EFD084BC4F8CC5184F8D05123606C
:1057E0002046064A0649BDE8384001F0DBB800BF54
:1057F000E0E3032098800D00CC800D00BCE1032085
:105800009D570D0010B5044601700846FFF728FDAE
:1058100000236360204610BD0078FFF729BD704764
:10582000F8B5064615460C468F18BC4206D03368BC
:1058300014F8011B9B6830469847F6E72846F8BDE8
:105840000022007CFFF744BC0021007CFFF748BC2D
:105850000021007CFFF74CBC0021007CFFF750BC0E
:105860000021007CFFF754BC10B51421044601F060
:10587000A7F8204610BD000010B504460023636061
:105880004FF47A73A360044B2174084623601146D9
:10589000FFF74EFC204610BD00810D000021007C6A
:1058A000FFF73EBC10B5836804460BB901F09BF8C6
:1058B000C3689847A3681BB1032221462046984736
:1058C00020461021BDE8104001F07AB870474174BD
:1058D000704708B5007CFFF76BFC20EAE07008BD5C
:1058E00008B5007CFFF73CFC20EAE07008BD08B575
:1058F000007CFFF745FC30EA200028BF4FF0FF3066
:1059000008BD08B5007CFFF733FC30EA200028BF53
:105910004FF0FF3008BD007CFFF73ABC10B51421F2
:10592000044601F04DF8204610BD70B5457C044694
:105930000E4625B9007CFFF73BFC002805DD31460B
:10594000207CBDE87040FFF703BC284670BD000016
:1059500010B5044608461146002262604FF47A7280
:10596000A260054A22600122207462741A46FFF781
:10597000E7FB204610BD00BF28810D000023007CFE
:10598000FFF71EBC0022FFF7F9BF007CFFF708BC41
:1059900038B50C4D296811F0010411D12846FEF7E5
:1059A00082FB68B1084A094B09482146FFF7D0FF3E
:1059B0002846FEF77DFB074A0749054800F0F2FF3D
:1059C000034838BD4CE6032050E60320C8E5032019
:1059D000B4E50320BCE10320CD580D000B68036043
:1059E00013B15A6801325A6070474174704770476A
:1059F00008B50021007CFFF753FB30EA200028BFE8
:105A00004FF0FF3008BD08B50121007CFFF748FBCF
:105A100030EA200028BF4FF0FF3008BD08B5007CF9
:105A2000FFF736FB20EAE07008BD08B5007CFFF701
:105A300027FB20EAE07008BD007CFFF741BB10B5F2
:105A40001421044600F0BCFF204610BD38B50446C2
:105A5000007C0D46FFF71CFB002801DC607C28B1B0
:105A60002946207CFFF724FB20EAE07038BD0000C7
:105A700010B50446002363604FF47A73A360054BAE
:105A8000236001230846217463741146FFF7E8FA86
:105A9000204610BD58810D000022007CFFF7E8BAB7
:105AA00010B514220446002102F053F8204610BD20
:105AB00030B50E4D87B001A8FFF7F2FF296811F04D
:105AC000010410D12846FEF7EEFA60B101AA214682
:105AD0000748FFF7CDFF2846FEF7EAFA054A0649D0
:105AE000034800F05FFF024807B030BDD4E6032052
:105AF000D8E60320BCE10320EF590D00704710B534
:105B00001821044600F05CFF204610BDF0B5037D6F
:105B1000062B8DB00E4600F104074FF0000402D0B2
:105B200000F1080518E00CAD394605F8304D2F237B
:105B30002A460A20FFF74CFB284602F05EF833683D
:105B40000246DB682946304698470FE024B12E21F3
:105B5000304600F059FC044415F8011D0A22304675
:105B600000F06BFCBD420444F0D120460DB0F0BD06
:105B700010B5054B0446112240F8043B002101F00A
:105B8000E8FF204610BD00BF88810D000346074A8C
:105B900010B543F8042B01F1100251F8044B43F8FF
:105BA000044B9142F9D10A781A7010BD88810D001A
:105BB00010B59DF8084044EA032343EA024242EA52
:105BC000016104234160037510BD37B50D788B78F2
:105BD0004A78C97800912946FFF7EAFF03B030BD43
:105BE00070470020704710B51021044600F0E8FE11
:105BF000204610BD08B508B1FFF7F5FF08BD00222B
:105C0000026010B54FF69C728280B1F90440848026
:105C10008A8002680C6804600A6010BD10B50446F2
:105C20000068FFF74BFC204610BD38B5C468F4B1DE
:105C30002378022B03D104F10C00FFF7EFFF656816
:105C400035B12846FFF772FC1021284600F0B8FE57
:105C5000A56835B12846FFF769FC1021284600F0F9
:105C6000AFFE20461421BDE8384000F0A9BE38BD83
:105C700013B5044691E8050000234B600B602060DB
:105C8000626001A801930093FEF71CFB204602B05E
:105C900010BDF7B50C4602AD54F8043B45F8083D7D
:105CA00006460F4601A82146FFF798FE29463046D2
:105CB000FFF7DEFF01A8FEF705FB2046FEF702FB1B
:105CC0003846082100F07CFE304603B0F0BD13B525
:105CD0000B46044603C88DE8030093E8030084E8FC
:105CE00003009DE8030083E8030002B010BD00003C
:105CF00038B500230446036010200D46FEF7CDF9A9
:105D000028B1012343608360024B0360C5602060BB
:105D1000204638BD9C810D00826810B50AB900F09C
:105D200062FEC368BDE81040184708B5006800F17E
:105D30001001FFF7F1FF08BD826810B50AB900F045
:105D400052FEC368BDE81040184708B5006800F16E
:105D50001001FFF7F1FF08BD38B5002383608B68A1
:105D600004460D462BB102229847EB68E360AB680E
:105D7000A360204638BD0000F0B589B004686846CD
:105D8000FFF73DFF00238DF808304FF00202D4E802
:105D90004F3F002B03D1C4E8412F0029F7D102D097
:105DA0008DF8083063E014F10C0503D069462846ED
:105DB000FFF725FFBFF35F8F01236370002004F11D
:105DC0000803BFF35F8F53E8006F43E80002002A27
:105DD000F9D1BFF35F8F002E49D0FFF739FB20B117
:105DE00029463046FFF798FF3AE0314602A8FFF710
:105DF000B3FFE068B4F9105008B101F0E3FE06907B
:105E00001020ADF81C50FEF748F90546E8B1002710
:105E100087601820FEF741F9044688B10146876083
:105E200002A8FFF754FF049BA268A360059B04929D
:105E300006A9E268E36004F110000592FFF7DFFEB7
:105E40000D4BEB600D4B2C60AB6006A8FFF7E6FE38
:105E500002A8FFF76BFB002229460948FFF700FB69
:105E60003046FFF763FB1021304600F0A9FD68467D
:105E7000FFF7D4FE09B0F0BD2B5D0D00A15F0D0052
:105E8000A5580D002DE9F04F8BB006460F46904601
:105E900099469DF850A0FFF75BFA07AD834630BBEB
:105EA0004FF62E73059005A92846ADF81830FFF778
:105EB000A6FE1420FEF7F1F8044658B10223037041
:105EC00001234370C0F804B0C0F808B029460C3074
:105ED000FFF795FE3046214640F8044BFFF708FFD8
:105EE0002846FFF79BFE05A8FFF798FE52E0002426
:105EF0000C2314206C60AC600793FEF7CEF80146CB
:105F000018B1047044704460846004A80391FFF7E2
:105F1000EFFE224B08930820FEF7BFF8044628B195
:105F2000039B40F8043B04A9FFF758FD00955FFA76
:105F30008AF34A46414638460994FFF719FA20B9D0
:105F4000039B5B7803F0FF0283B1039B059304A9D5
:105F500006A8FFF743FD05A93046FFF789FE06A80E
:105F6000FEF7B0F904A8FEF7ADF913E04FF69C7305
:105F700005A903A80592ADF81830FFF7FDFE05A8A6
:105F8000FFF74CFE05A80999FFF783FE06A8FEF768
:105F900099F9DAE730460BB0BDE8F08F11610D00DA
:105FA000022AF8B5044606D0032A17D0012A22D1C6
:105FB0000B6803601FE018200E68FEF76EF80546B8
:105FC00050B13146FFF7C8FE3069B6F9147008B118
:105FD00001F0F8FD2861AF8225600CE0046854B13F
:105FE00004F11000FFF71AFE2046FFF79FFA182170
:105FF000204600F0E5FC0020F8BD38B500238360A2
:106000008B6804460D462BB102229847EB68E3608B
:10601000AB68A360204638BD022A70B5044606D09E
:10602000032A11D0012A18D10B68036015E014204F
:106030000E68FEF732F8054620B13146FFF7DDFF66
:10604000337C2B74256008E0046834B12046FFF7E8
:106050006DFA1421204600F0B3FC002070BD000052
:10606000F0B5002387B00C46BFF35F8F50E8006F98
:1060700040E80032002AF9D1BFF35F8F002E3FD0F5
:106080001846FFF7E5F9074620B121463046FFF7ED
:1060900053FE2EE0314601A8FFF7AFFF23788DF8BD
:1060A00014301020FDF7F9FF0546D0B187601420A9
:1060B000FDF7F3FF044678B18760014601A8FFF7BA
:1060C00006FE039BA268A360049B0392E268E36060
:1060D0009DF81430049223740A4BEB600A4B2C6039
:1060E000AB6001A8FFF722FA002229460748FFF714
:1060F000B7F93046FFF71AFA1021304600F060FC7D
:1061000007B0F0BD4B5D0D0019600D00A5580D00E6
:1061100030B585B004460D4668461146FFF7B9FD17
:106120007CB124B228460DB101F04CFD029002A9C9
:106130006846ADF80C40FFF71FFE02A8FFF76EFDA2
:106140001DE000988DF808404FF00102D0E84F3F65
:10615000A34203D1C0E8412F0029F7D102D08DF826
:1061600008300CE010F10C014FF0010318BF03736D
:10617000BFF35F8F043000F8033CFFF771FF01A805
:10618000FEF7A0F805B030BD08B50F4B33B1FFF7EF
:106190008FFC03681B69984700280DDC0B4B33B15B
:1061A000FFF7F6FB03681B699847002807DC084BDC
:1061B00043B1AFF3008008BDAFF30080EEE7AFF36B
:1061C0000080F4E708BD00BF0000000000000000F0
:1061D0000000000008B5FFF7D7FFFFF739F8014BC3
:1061E000186008BD3CE703200248034A0349121A1D
:1061F00001F0A4BC00F4032004F40320C0830D00CC
:1062000007B5002300931A466FF07701FFF73AF9BC
:1062100003B05DF804FB000007B543880A2B08D0E3
:10622000502B09D1094B1B683BB103B05DF804EB5F
:106230001847FFF7E5FF06E0002300931A466FF0CA
:106240007701FFF71FF903B05DF804FBECE60320CC
:1062500038B5104C104D2368AB42104B0CBF0122D7
:1062600000221A7002D0FFF7BFFF2560FEF7E8FF9B
:10627000044601F077FC0A4B13B12046AFF30080CF
:1062800000210748FFF77CF800210648BDE83840A8
:10629000FFF7EEB800F403201E1C279AF0E6032057
:1062A0000000000019620D0010B50446FFF73EF92A
:1062B000204610BD10B50446FFF732F8844208D0DE
:1062C0001CB1BDE81040FFF713B8BDE81040FFF760
:1062D00017B810BD70B505460E461446FFF720F8F6
:1062E00050B144EA062040EA0540FEF7F9FFE720F6
:1062F000BDE87040FFF71CB870BD10B50C46FFF745
:1063000007F8FFF70DF828B124B1E720BDE81040E9
:10631000FFF70EB810BD00000348044A04490023EB
:10632000836000F03FBB00BFF4E60320BCE1032024
:10633000A9620D000021FFF783B80000024B1A6824
:10634000024B1A60704700BF50E1032004E70320AE
:10635000014B024A1A60704708E703204C820D0087
:1063600010B50446FEF774FFE060236820465B69C1
:106370009847002808DAFEF76BFFE368C01AA368A5
:106380009842F2D34FF0FF3010BD000070B50D46BB
:1063900009490446164600F00EF92846FFF7E0FFCB
:1063A000002806DBB04204D0C1B2204600F052F90A
:1063B000F3E7204670BD00BF397E0D00F8B50646F4
:1063C0000D468F180024BD420CD0336815F8011B10
:1063D0009B6830469847002801DB0444F3E7002C13
:1063E00008BF04462046F8BD70B505460C46084671
:1063F00049B101F002FC2B68024621462846DB68C1
:10640000BDE87040184770BD03689B68184738B5F1
:106410000D210546FFF7F8FF0A2104462846FFF73D
:10642000F3FF204438BD38B50546FFF7DDFF0446CD
:106430002846FFF7ECFF204438BD30B58BB00B4643
:1064400000218DF82410012A98BF0A220DF123049F
:10645000B3FBF2F505FB123303F0FF03092B94BFE6
:1064600030333733DBB2214604F801392B46002D97
:10647000EED1FFF7B9FF0BB030BD0CB42DE9F043FE
:1064800087B000AF07F13804054654F8049B3C6020
:106490000E4623464A461421381DFFF727F81328D5
:1064A00005D8391D2846FFF79FFF044613E000F189
:1064B000080323F00703E846ADEB030D411C234618
:1064C0004A4668463C60FFF711F869462846FFF7E0
:1064D0008BFF0446C5461EB12846FFF798FF0444CB
:1064E00020461C37BD46BDE8F04302B0704710B5EA
:1064F0000446006808B1FEF793FE204610BD000078
:1065000010B5064C002320462360FEF781FE20468E
:10651000034A0449BDE8104000F044BA0CE70320E8
:10652000BCE10320EF640D0010B504460068FEF7DF
:10653000C5FF204610BD10B50446006808B1FEF73F
:10654000BDFF00232360A360636010BD38B504461F
:106550000D4600680131FEF7B9FF10B184E8210053
:10656000012038BD10B50368044613B143688B425F
:1065700007D22046FFF7EAFF20B1A3680BB92268D3
:106580001370012010BD70B50E4611460446154625
:10659000FFF7E8FF18B92046FFF7CDFF09E02A46CC
:1065A0003146A560206801F0C9FA2268A36800217D
:1065B000D154204670BD38B50023044603604360C3
:1065C000836003730D4639B1084601F016FB294676
:1065D00002462046FFF7D7FF204638BD38B50546AE
:1065E00000680C4660B16A688B689A4206D30968F5
:1065F00001F0E0FAA368AB6000230AE0FEF75EFF5B
:1066000023682B6063686B60A368AB600023236022
:106610006360A36038BD884210B5044601D0FFF71F
:10662000DDFF204610BD70B504460E4609B90020B6
:1066300070BD6AB18368D5182946FFF793FF00281B
:10664000F5D02068A3683146184401F0B3FAA5607C
:10665000012070BD07B500238DF80410012201A9A7
:106660008DF80530FFF7DFFF03B05DF804FB10B5D0
:106670000446006818B1FEF721FF0023236010BD17
:1066800038B5B1F9043083800B460D4653F8062F18
:10669000C0F806209B8843810446FFF7E8FF2B687B
:1066A00013B1236000232B60204638BD38B50C465B
:1066B0000546FFF7DCFF44B12088FEF7F7FE2860AF
:1066C00028B12288214601F039FA002038BD01485E
:1066D00038BD00BFFCFEFFFF014600228C20FEF704
:1066E000A7BD0020FFF7F8BFF0B5304D0B7D044685
:1066F0008BB00846AF1D13B30B681B79FBB10022AA
:106700004FF6FF7302A904300292ADF80C208DF809
:106710000E20ADF81020ADF81230FEF7BDFE0AAB2A
:1067200000B253F81A2DADF80C009B88A880C5F86C
:1067300006200299BB802846FFF7B8FF1CE0202303
:10674000002602931A4B00931A49039633463220CF
:1067500002AAFEF7F5FD4FF6FF73ADF8123002A95D
:106760004FF6F263114802968DF80E60ADF8106096
:10677000ADF80C30FFF784FF02A8FFF778FF002385
:106780002360A380A37123814FF6FF736381B5F962
:106790000430A3803B68C4F80630BB886381296855
:1067A0002046FFF783FF20460BB0F0BD10E7032023
:1067B000BE820D00B7820D0010B5094C00204FF6C7
:1067C000FF732060A080A07120816381FEF730FEFE
:1067D0002046044A0449BDE8104000F0E3B800BF79
:1067E00010E70320BCE10320ED400D00002211461C
:1067F0004068FEF705BE002211464068FEF710BE55
:1068000000224068FEF704BE002281F001014068CA
:10681000FEF7EEBD00231A4619464068FEF7E0BDBC
:1068200000231A4619464068FEF7D2BD00221146E1
:106830004068FEF7C5BD002211464068FEF7B0BDB6
:10684000002202214068FEF7B3BD00231A464068CB
:10685000FEF79EBD024B03225A60024A1A6070473F
:106860001CE70320F0820D0070B5044614252A466B
:10687000094E002101F06DF9258020253146A560E3
:106880002561284600F09EF831466060284600F0F9
:1068900099F8E060204670BD1C830D0030B50E4DA8
:1068A000296811F0010487B013D12846FDF7FBFBDE
:1068B00078B101A8FFF7D8FF01AA21460748FEF7E3
:1068C000DBFF2846FDF7F4FB054A0649034800F0C4
:1068D00069F8024807B030BD24E7032028E7032009
:1068E000BCE103201F580D0070B5184E316811F03F
:1068F000010504460AD13046FDF7D5FB30B12946E3
:106900001348FEF77FFF3046FDF7D2FB1048FEF735
:1069100083FF28B1A4F10B03022B01D8002070BD26
:10692000FFF7BCFFFEF7BAFF08B1012CF6D9FFF75D
:106930002FF8FFF72AF818B1A4F10903012BEDD9BC
:106940001E2C8CBF0020012070BD00BF40E703203B
:1069500044E703201E2838B504460D460AD8FF290F
:1069600008D0FFF7C1FF28B129462046BDE83840CE
:10697000FEF796BC38BD0D2810B504469CBF0E34FA
:10698000A4B22046FFF7B0FF50B103212046FEF726
:106990007FFC032804D12046BDE81040FEF788BCE8
:1069A000002010BD0B460146184601F0B9B80000A2
:1069B000024B1868BFF35F8F704700BF4CE703209E
:1069C000FDF76DBB00F000B810B5002814BF0446F9
:1069D00001242046FEF76AFD20B9FFF7E9FF08B160
:1069E0008047F6E710BD08B5FEF788FD184B1A681A
:1069F000D1075CBF01221A60164B1A68D2075CBF30
:106A000001221A60144B1A68D0075CBF01221A6079
:106A1000124B1A68D1075CBF01221A60104B1A682A
:106A2000D2075CBF01221A600E4B1A68D0075CBF08
:106A300001221A600C4B1A68D1075CBF01221A6050
:106A40000A4B1A68D2075CBF01221A60704700BF68
:106A50006CE7032068E7032064E7032060E7032076
:106A60005CE7032058E7032054E7032050E70320A6
:106A7000244B1A68D0075CBF01221A60224B1A68A7
:106A8000D1075CBF01221A60204B1A68D2075CBF95
:106A900001221A601E4B1A68D0075CBF01221A60DF
:106AA0001C4B1A68D1075CBF01221A601A4B1A6886
:106AB000D2075CBF01221A60184B1A68D0075CBF6E
:106AC00001221A60164B1A68D1075CBF01221A60B6
:106AD000144B1A68D2075CBF01221A60124B1A6865
:106AE000D0075CBF01221A60104B1A68D1075CBF47
:106AF00001221A600E4B1A68D2075CBF01221A608D
:106B0000704700BF9CE7032098E7032094E7032029
:106B100090E703208CE7032088E7032084E7032025
:106B200080E703207CE7032078E7032074E7032055
:106B300070E70320244B1A68D0075CBF01221A605B
:106B4000224B1A68D1075CBF01221A60204B1A68D9
:106B5000D2075CBF01221A601E4B1A68D0075CBFC7
:106B600001221A601C4B1A68D1075CBF01221A600F
:106B70001A4B1A68D2075CBF01221A60184B1A68B8
:106B8000D0075CBF01221A60164B1A68D1075CBFA0
:106B900001221A60144B1A68D2075CBF01221A60E6
:106BA000124B1A68D0075CBF01221A60104B1A689A
:106BB000D1075CBF01221A600E4B1A68D2075CBF76
:106BC00001221A60704700BFCCE70320C8E703200A
:106BD000C4E70320C0E70320BCE70320B8E7032095
:106BE000B4E70320B0E70320ACE70320A8E70320C5
:106BF000A4E70320A0E70320184B1A68D1075CBF65
:106C000001221A60164B1A68D2075CBF01221A6073
:106C1000144B1A68D0075CBF01221A60124B1A6825
:106C2000D1075CBF01221A60104B1A68D2075CBF03
:106C300001221A600E4B1A68D0075CBF01221A604D
:106C40000C4B1A68D1075CBF01221A600A4B1A6804
:106C5000D2075CBF01221A60704700BFECE7032037
:106C6000E8E70320E4E70320E0E70320DCE7032074
:106C7000D8E70320D4E70320D0E703202DE9F04331
:106C80002DED028B8BB055EC104B00F081F83A4B98
:106C9000B0EE408AF0EE608A93F90060731C0DD06C
:106CA00022462B462046294600F0D4FE30B9002269
:106CB00000232046294600F0C3FE40B1B0EE480A4A
:106CC000F0EE680A0BB0BDEC028BBDE8F0832B4BF5
:106CD0000890CDE90245CDE904450193DEB9284F7E
:106CE0004FF060462046294600220023CDE9066782
:106CF00000F07EFE002837D002230093684600F0A3
:106D00004BFAC8B1089BE3B99DED060B0BB0BDEC87
:106D1000028BBDE8F083DFF870904FF0000820464A
:106D2000294600220023CDE9068900F061FE68B102
:106D300002239E420093E1D1FEF7F0FB2223036081
:106D4000E0E7FEF7EBFB089B0360DDE70123022E83
:106D500000930BD1FEF7E2FB21230360094800F00A
:106D60001FFA8DED060BCDE701230093684600F076
:106D700013FA0028F2D1EDE754E1032020830D003F
:106D8000FFFFEFC724830D000000F0FF00000000AC
:106D90002DE9F04F51EC100BB1F5801F85B00B467B
:106DA00059DA10EE102A21F00044224300F0F88056
:106DB0000029C0F280810022DD4BDE4C00F0B0FBE8
:106DC0000B46A3426FF035024ADCC3F3130505F509
:106DD000152404F6647404F4801686F07F541B15A1
:106DE00084F44014A3F2FF3344EA05019C18002206
:106DF000D14B00F0E1F9AB1CC3F31303022B04EBFE
:106E0000165482468B464FF0000232DC002300F01D
:106E1000EFFD002800F0CF80002C00F058812046C4
:106E200000F018FBACA3D3E9002306460F4600F0A0
:106E300077FBABA3D3E9002304460D463046394621
:106E400000F06EFB02460B462046294600F0B6F9DC
:106E500041EC100B0AE0B74CA3424FF00002B4DD46
:106E600002460B4600F0AAF941EC100B05B0BDE854
:106E7000F08F4FF0804300F0A1F902460B465046D8
:106E8000594600F077FC064620460F4600F0E2FA2D
:106E90003246CDE900013B4630463946CDE902672E
:106EA00000F03EFB02460B468046894600F038FB68
:106EB0008DA3D3E9002306460F4600F031FB8CA3D7
:106EC000D3E9002300F07AF932463B4600F028FB74
:106ED00089A3D3E9002300F071F932463B4600F064
:106EE0001FFB87A3D3E9002300F068F942464B4615
:106EF00000F016FB84A3D3E9002380468946304680
:106F0000394600F00DFB82A3D3E9002300F056F9C7
:106F100032463B4600F004FB7FA3D3E9002300F098
:106F20004DF932463B4600F0FBFA0B460246494615
:106F3000404600F043F9A5F5C223C5F5D725A3F2D5
:106F40007A4351351D43002D804689465CDD002281
:106F50007A4B5046594600F0E3FA52465B4600F041
:106F6000DFFA06460F46002C6ED132463B464046BD
:106F7000494600F023F9DDE9022300F0D1FA024688
:106F80000B463046394600F017F902460B4650468C
:106F9000594600F011F941EC100B05B0BDE8F08F37
:106FA000002200230020664900F0E4FB41EC100BB6
:106FB00005B0BDE8F08F5AA3D3E9002350465946E7
:106FC00000F0AEFA02460B4600205C4900F0F4F8EF
:106FD000524606460F465B465046594600F0A0FA18
:106FE00002460B463046394600F09AFA06460F46EE
:106FF000002C40F0A78002460B465046594600F050
:10700000DBF841EC100B31E7002C00F0AF8032A32D
:10701000D3E90023DDE9000100F082FA42464B4645
:1070200004460D465046594600F0C6F8DDE90223F5
:1070300000F076FA2AA3D3E9002306460F46DDE9DD
:10704000000100F06DFA21E023A3D3E90023DDE97C
:10705000000100F065FA32463B4604460D464046C4
:10706000494600F0ABF8DDE9022300F059FA1CA311
:10707000D3E9002380468946DDE9000100F050FA9B
:1070800002460B464046494600F098F802460B4639
:107090003046394600F090F852465B4600F08CF8D6
:1070A00002460B462046294600F086F841EC100BBC
:1070B00005B0BDE8F08F10EE102A0B4600F07CF80A
:1070C0000022002300F056FB41EC100BCEE69FEDB2
:1070D000160BCBE6AFF300800000E0FE422EE63F49
:1070E000763C7935EF39EA3D44523EDF12F1C23F3A
:1070F000DE03CB966446C73F599322942449D23F7E
:10710000935555555555E53F9FC678D0099AC33FCD
:10711000AF788E1DC571CC3F04FA97999999D93FE4
:10712000555555555555D53F00000000000000004D
:1071300000005043FFFFEF7F0000F03F0000E03F02
:10714000000050C3204600F085F90FA3D3E90023C7
:107150008046894600F0E4F90DA3D3E900230446F4
:107160000D464046494600F0DBF98FE702460B46E4
:107170005046594600F020F8DDE9022300F0D0F92E
:1071800003E700BFAFF300800000E0FE422EE63FC1
:10719000763C7935EF39EA3D002070470000000069
:1071A0009FED010B704700BF000000000000F87F5A
:1071B00081F0004102E000BF83F0004330B54FEAA8
:1071C00041044FEA430594EA050F08BF90EA020F15
:1071D0001FBF54EA000C55EA020C7FEA645C7FEAA8
:1071E000655C00F0E2804FEA5454D4EB5555B8BFCB
:1071F0006D420CDD2C4480EA020281EA030382EA3C
:10720000000083EA010180EA020281EA0303362DCD
:1072100088BF30BD11F0004F4FEA01314FF4801CA0
:107220004CEA113102D0404261EB410113F0004FB2
:107230004FEA03334CEA133302D0524263EB430369
:1072400094EA050F00F0A780A4F10104D5F1200E07
:107250000DDB02FA0EFC22FA05F2801841F1000162
:1072600003FA0EF2801843FA05F359410EE0A5F136
:1072700020050EF1200E012A03FA0EFC28BF4CF067
:10728000020C43FA05F3C01851EBE37101F000451D
:1072900007D54FF0000EDCF1000C7EEB00006EEB2A
:1072A0000101B1F5801F1BD3B1F5001F0CD34908B4
:1072B0005FEA30004FEA3C0C04F101044FEA44520B
:1072C00012F5800F80F09A80BCF1004F08BF5FEA92
:1072D000500C50F1000041EB045141EA050130BD72
:1072E0005FEA4C0C404141EB010111F4801FA4F115
:1072F0000104E9D191F0000F04BF01460020B1FA6A
:1073000081F308BF2033A3F10B03B3F120020CDAA1
:107310000C3208DD02F1140CC2F10C0201FA0CF07F
:1073200021FA02F10CE002F11402D8BFC2F1200CE4
:1073300001FA02F120FA0CFCDCBF41EA0C0190409A
:10734000E41AA2BF01EB0451294330BD6FEA0404E3
:107350001F3C1CDA0C340EDC04F11404C4F12002CE
:1073600020FA04F001FA02F340EA030021FA04F3E0
:1073700045EA030130BDC4F10C04C4F1200220FA37
:1073800002F001FA04F340EA0300294630BD21FA75
:1073900004F0294630BD94F0000F83F4801306BF3B
:1073A00081F480110134013D4EE77FEA645C18BF2F
:1073B0007FEA655C29D094EA050F08BF90EA020FC6
:1073C00005D054EA000C04BF1946104630BD91EABE
:1073D000030F1EBF0021002030BD5FEA545C05D1C1
:1073E0004000494128BF41F0004130BD14F5800400
:1073F0003CBF01F5801130BD01F0004545F0FE4174
:1074000041F470014FF0000030BD7FEA645C1ABFA8
:10741000194610467FEA655C1CBF0B46024650EADF
:10742000013406BF52EA033591EA030F41F400210B
:1074300030BD00BF90F0000F04BF0021704730B591
:107440004FF4806404F132044FF000054FF0000166
:1074500050E700BF90F0000F04BF0021704730B527
:107460004FF4806404F1320410F0004548BF4042FC
:107470004FF000013EE700BF42004FEAE2014FEA51
:1074800031014FEA02701FBF12F07F4393F07F4F2C
:1074900081F06051704792F0000F14BF93F07F4F5E
:1074A000704730B54FF4607401F0004521F00041A1
:1074B00020E700BF50EA010208BF704730B54FF027
:1074C00000050AE050EA010208BF704730B511F02C
:1074D000004502D5404261EB41014FF4806404F164
:1074E00032045FEA915C3FF4DCAE4FF003025FEAE6
:1074F000DC0C18BF03325FEADC0C18BF033202EB6E
:10750000DC02C2F1200300FA03FC20FA02F001FAC7
:1075100003FE40EA0E0021FA02F11444C1E600BF66
:1075200070B54FF0FF0C4CF4E06C1CEA11541DBF19
:107530001CEA135594EA0C0F95EA0C0F00F0DEF8E4
:107540002C4481EA030621EA4C5123EA4C5350EAC9
:10755000013518BF52EA033541F4801143F480131A
:1075600038D0A0FB02CE4FF00005E1FB02E506F0AB
:107570000042E0FB03E54FF00006E1FB03569CF000
:10758000000F18BF4EF0010EA4F1FF04B6F5007F06
:1075900064F5407404D25FEA4E0E6D4146EB060678
:1075A00042EAC62141EA55514FEAC52040EA5E5001
:1075B0004FEACE2EB4F1FD0C88BFBCF5E06F1ED8AB
:1075C000BEF1004F08BF5FEA500E50F1000041EBE2
:1075D000045170BD06F0004646EA010140EA02008F
:1075E00081EA0301B4EB5C04C2BFD4EB0C0541EAB1
:1075F000045170BD41F480114FF0000E013C00F3C6
:10760000AB8014F1360FDEBF002001F0004170BDE9
:10761000C4F10004203C35DA0C341BDC04F1140402
:10762000C4F1200500FA05F320FA04F001FA05F28E
:1076300040EA020001F0004221F0004110EBD3705B
:1076400021FA04F642EB06015EEA430E08BF20EA87
:10765000D37070BDC4F10C04C4F1200500FA04F32A
:1076600020FA05F001FA04F240EA020001F00041BC
:1076700010EBD37041F100015EEA430E08BF20EA2F
:10768000D37070BDC4F1200500FA05F24EEA020E77
:1076900020FA04F301FA05F243EA020321FA04F0A6
:1076A00001F0004121FA04F220EA020000EBD3705D
:1076B0005EEA430E08BF20EAD37070BD94F0000F5D
:1076C0000FD101F00046400041EB010111F4801F91
:1076D00008BF013CF7D041EA060195F0000F18BF42
:1076E000704703F00046520043EB030313F4801F7E
:1076F00008BF013DF7D043EA0603704794EA0C0F38
:107700000CEA135518BF95EA0C0F0CD050EA41064D
:1077100018BF52EA4306D1D181EA030101F00041CA
:107720004FF0000070BD50EA410606BF10461946F2
:1077300052EA430619D094EA0C0F02D150EA0136FE
:1077400013D195EA0C0F05D152EA03361CBF10463F
:1077500019460AD181EA030101F0004141F0FE41DE
:1077600041F470014FF0000070BD41F0FE4141F462
:10777000780170BD70B54FF0FF0C4CF4E06C1CEA62
:1077800011541DBF1CEA135594EA0C0F95EA0C0F17
:1077900000F0A7F8A4EB050481EA030E52EA0335D2
:1077A0004FEA013100F088804FEA03334FF08055F3
:1077B00045EA131343EA12634FEA022245EA111520
:1077C00045EA10654FEA00260EF000419D4208BFD1
:1077D000964244F1FD0404F5407402D25B084FEA7E
:1077E0003202B61A65EB03055B084FEA32024FF42A
:1077F00080104FF4002CB6EB020E75EB030E22BF87
:10780000B61A754640EA0C005B084FEA3202B6EB46
:10781000020E75EB030E22BFB61A754640EA5C00F5
:107820005B084FEA3202B6EB020E75EB030E22BF85
:10783000B61A754640EA9C005B084FEA3202B6EB86
:10784000020E75EB030E22BFB61A754640EADC0045
:1078500055EA060E18D04FEA051545EA16754FEAA7
:1078600006164FEAC30343EA52734FEAC2025FEAC5
:107870001C1CC0D111F4801F0BD141EA00014FF054
:1078800000004FF0004CB6E711F4801F04BF014325
:107890000020B4F1FD0C88BFBCF5E06F3FF6AFAE41
:1078A000B5EB030C04BFB6EB020C5FEA500C50F1D1
:1078B000000041EB045170BD0EF0004E4EEA113154
:1078C00014EB5C04C2BFD4EB0C0541EA045170BD5B
:1078D00041F480114FF0000E013C90E645EA060E9F
:1078E0008DE60CEA135594EA0C0F08BF95EA0C0FCD
:1078F0003FF43BAF94EA0C0F0AD150EA01347FF415
:1079000034AF95EA0C0F7FF425AF104619462CE7EB
:1079100095EA0C0F06D152EA03353FF4FDAE10464E
:10792000194622E750EA410618BF52EA43067FF49F
:10793000C5AE50EA41047FF40DAF52EA43057FF42F
:10794000EBAE12E74FF0FF3C06E000BF4FF0010C3A
:1079500002E000BF4FF0010C4DF804CD4FEA410C9E
:107960007FEA6C5C4FEA430C18BF7FEA6C5C1BD06B
:1079700001B050EA410C0CBF52EA430C91EA030FEC
:1079800002BF90EA020F0020704710F1000F91EA49
:10799000030F58BF994208BF90422CBFD8176FEA17
:1079A000E37040F0010070474FEA410C7FEA6C5CE5
:1079B00002D150EA013C07D14FEA430C7FEA6C5CEC
:1079C000D6D152EA033CD3D05DF8040B704700BF18
:1079D0008446104662468C461946634600E000BF66
:1079E00001B5FFF7B7FF002848BF10F1000F01BD38
:1079F0004DF808EDFFF7F4FF0CBF012000205DF803
:107A000008FB00BF4DF808EDFFF7EAFF34BF012087
:107A100000205DF808FB00BF4DF808EDFFF7E0FF20
:107A200094BF012000205DF808FB00BF4DF808ED71
:107A3000FFF7CEFF94BF012000205DF808FB00BFD8
:107A40004DF808EDFFF7C4FF34BF012000205DF8BA
:107A500008FB00BF4FEA410C7FEA6C5C02D150EAA0
:107A6000013C0AD14FEA430C7FEA6C5C02D152EA36
:107A7000033C02D14FF0000070474FF00100704707
:107A80004FEA4102B2F1E04324BFB3F5001CDCF140
:107A9000FE5C0DD901F0004C4FEAC0024CEA507078
:107AA000B2F1004F40EB830008BF20F001007047A7
:107AB00011F0804F21D113F13872BCBF01F00040AA
:107AC000704741F480114FEA5252C2F11802C2F1DC
:107AD000200C10FA0CF320FA02F018BF40F001005D
:107AE0004FEAC1234FEAD32303FA0CFC40EA0C000F
:107AF00023FA02F34FEA4303CCE77FEA625307D14C
:107B000050EA01331EBF4FF0FE4040F44000704782
:107B100001F0004040F0FE4040F40000704700BF1C
:107B200010B5054C13462CB10A4601460220AFF3AE
:107B3000008010BD204610BD0000000010B5431E9F
:107B40000A44914204D011F8014B03F8014FF8E7C1
:107B500010BD02440346934202D003F8011BFAE72A
:107B60007047000038B5124B1C68A36B0546D3B9AB
:107B70001820FDF79BFC43F20E33A06303804AF606
:107B8000CD33438041F2342383804EF26D63C38052
:107B90004DF6EC630381052343810B23838101228E
:107BA0000023C0E90423A36B00221D615A6138BD84
:107BB000B8E10320034611F8012B03F8012B002A3A
:107BC000F9D17047024B0146186800F003B800BFB6
:107BD000B8E1032070B5064608460C4600F00DF8E3
:107BE000451C29463046FDF791FC064618B12A4649
:107BF0002146FFF7A3FF304670BD034613F8012B63
:107C0000002AFBD1181A01387047000021400D00EE
:107C10005D400D0089400D008D400D00000000000A
:107C200074656D70433A2025662074656D70463A20
:107C300020256620636F756E7465723A2025692071
:107C400064657669636549443A2025730A00766F56
:107C50006C746167653A2025660A0041542B5345D0
:107C60004E443D25692C25692C25302E32662C2565
:107C7000302E32662C25690D0A00637265617465C9
:107C80004275666665723A20257300637265617499
:107C90006542756666657228290073656E64207298
:107CA00065706C793A2025730A0073656E644461CF
:107CB000746128290041542B4D4F44453D300D0A35
:107CC000004177616974696E67205265706C792034
:107CD00066726F6D2072657961784F6E28290A008F
:107CE0005265706C793A2025730A0041542B4D4F30
:107CF00044453F0D0A004177616974696E672052FF
:107D000065706C792066726F6D206D6F64653F0AD7
:107D10000041542B4D4F44453D310D0A00506F77C3
:107D20006572696E6720646F776E2E2E2E0A004191
:107D3000540D0A00617454657374207265706C7917
:107D40003A2025730A006174546573742829004130
:107D5000542B52455345540D0A00736F6674776176
:107D600072655265736574282900736F6674776154
:107D7000726552657365742829320061744D6F64B1
:107D800065207265706C793A202573207265706C7D
:107D900079323A2025730A0061744D6F6465282991
:107DA000004177616974696E67205265706C790A69
:107DB000005265706C792041542B4D4F44453F3A39
:107DC0002025730A0041542B4D4F44453F00415438
:107DD0002B504152414D455445523D31322C372CA8
:107DE000312C370D0A00736574526164696F00416C
:107DF000542B504152414D455445523F0D0A0052BB
:107E000065706C792041542B504152414D45544589
:107E1000523F3A2025730A00736574506172616D98
:107E2000657465723F0041542B42414E443D3931E7
:107E3000353030303030300D0A0041542B42414E45
:107E4000443D3836383530303030300D0A007365F7
:107E50007442616E640041542B42414E443F0D0A0E
:107E6000005265706C792041542B42414E443F3A98
:107E70002025730A0041542B42414E443F004241A9
:107E800034313034303332393638424131313134A3
:107E900032393930373930323135393441410041A6
:107EA000542B4350494E3D25730D0A0073657443AE
:107EB00050494E0041542B4350494E3F0D0A005249
:107EC00065706C79204350494E3A2025730A004171
:107ED000542B4350494E3F0041542B53454E4400D0
:107EE00041542B53454E443F0D0A005265706C7946
:107EF0002041542B53454E443F3A2025730A0041FC
:107F0000542B53454E443F0041742B5645523F0D70
:107F10000A007265706C792061736B56455228298E
:107F20003A2025730A0061736B5645520041742B49
:107F30005549443F0D0A007265706C792061736B7E
:107F400055494428293A2025730A0061736B554925
:107F5000440041542B464143544F52590D0A00727C
:107F600065706C792041542B464143544F52593A25
:107F70002025730A0041542B464143544F52590067
:107F800041542B4950523D25690D0A0073657449CF
:107F900050520041542B4950523F0D0A0052657017
:107FA0006C792041542B4950523F3A2025730A00E6
:107FB00041542B4950523F0041542B4144445245B7
:107FC00053533D25690D0A007365744164647265FD
:107FD00073730041542B414444524553533F0D0A9F
:107FE000005265706C792067657420616464726505
:107FF00073733A2025730A0041542B41444452457F
:1080000053533F0041542B4E4554574F524B494414
:108010003D25690D0A0041542B4E4554574F524B94
:1080200049443F0D0A005265706C792041542B4E33
:108030004554574F524B49443F2025730A00415441
:108040002B4E4554574F524B49443F0041542B430C
:1080500052464F503D25690D0A0041542B4352466C
:108060004F500041542B4352464F503F0D0A00528F
:1080700065706C792041542B4352464F503F3A2053
:1080800025730A0041542B4352464F503F000000D5
:1080900000000000000000003F550D0049550D0094
:1080A00053550D005D550D0067550D0073550D00BE
:1080B0007F550D008B550D0093550D009D550D00FE
:1080C000A7550D000000000000000000E7560D005D
:1080D000DD560D00D3560D00C9560D00BD560D00DE
:1080E000B1560D00A5560D009D560D0093560D007E
:1080F00089560D00A7550D0000000000000000008B
:108100001F580D0069580D0041580D0021580D00F1
:1081100049580D0051580D0059580D0061580D0077
:108120000000000000000000CD580D001D590D009A
:108130002B590D00BD630D00E1580D0003590D00D2
:10814000EF580D0017590D00CF580D00D3580D00F2
:108150000000000000000000EF590D003F5A0D0024
:108160004D5A0D00BD630D002B5A0D00F1590D0045
:10817000075A0D00395A0D001D5A0D00EB590D001C
:1081800000000000000000000D5B0D00FD5A0D0016
:10819000FF5A0D000000000000000000E15B0D0030
:1081A000E75B0D002B5C0D00F55B0D00E35B0D0044
:1081B0005A00252B3033643A253032750025592D6D
:1081C000256D2D25645425483A254D3A2553257AA9
:1081D0000061736374696D65006261756400536565
:1081E0007269616C0053657269616C3100747970F9
:1081F0006500706172616D00636D640069640068A0
:108200006E64007374726D0066696C74006C766CD9
:108210000061646448616E646C65720072656D6FC4
:10822000766548616E646C657200656E756D486157
:108230006E646C657273004A534F4E53747265617D
:108240006D4C6F6748616E646C65720061707000A0
:10825000253031307520005D20002564002C200081
:1082600028293A2000205B00636F6465203D2000D0
:1082700025690064657461696C73203D20006600A7
:108280006C6E00666E00636F64650064657461699E
:108290006C006E6F6E6500747261636500696E6676
:1082A0006F007761726E006572726F720070616E3E
:1082B000696300616C6C00776972696E670053795D
:1082C0007374656D20736C65657020636F6E66698D
:1082D0006775726174696F6E20697320696E76616B
:1082E0006C69642E00000000000000000000000027
:1082F0004B680D0041680D0037680D002D680D00BA
:1083000021680D0015680D0009680D0001680D0059
:10831000F7670D00ED670D00A7550D000000000088
:108320006C6F67000000000000000000000000000B
:10833000000000000000000000000000000000003D
:10834000000000000000000000000000000000002D
:10835000000000000000000000000000000000001D
:10836000000000000000000000000000000000000D
:1083700000000000000000000000000000000000FD
:10838000000000000000000043000000F14F0D005D
:1083900075560D00B5570D0019630D003D630D00B6
:1083A00051630D0001650D00B9670D0055680D00A2
:1083B000ED690D00716A0D00356B0D00F96B0D0054
:0483C00000000000B9
:1083C4001700000000C201000F00000006000000BA
:1083D4001E00000003000000370000002A00000017
:1083E400D1810D00010000000000000028830D0071
:1083F40048830D0068830D000000000000000000A9
:10840400000000000000000088830D000000000050
:108414000000000000000000000000000000000058
:108424000000000000000000000000000000000048
:108434000000000000000000000000000000000038
:0C844400000000000000000058E10320D0
:10845000FFFFFFFF00000102030405060708090AE9
:108460000B0C0D0E0F101112131415161718191AE4
:088470001B1C1D1E1F2028002B
:0484780078563412EC
:04000003D0004020C9
:00000001FF
