:02000002D0002C
:1040000000400D00BC8D0D00000006000C000501F5
:084010000401FD08000000009E
:044018000C830D0008
:1040200009480A49884208B505D0094A824202D0A7
:10403000121A04F09DF80748074A0021121A04F0EA
:10404000A5F8014808BD00BFA8D50320448B0D008A
:10405000F8D70320F8D70320EDE7032070B5074E0B
:10406000074C02F01BFFA41BA4080025A54200D1A9
:1040700070BD56F8043B98470135F7E7148B0D00E7
:10408000388B0D0000F0FEBF08B500F091FBBDE8D5
:10409000084002F0BBBE02F019B802F017B802F0F7
:1040A0001DB80078B0FA80F0400970470123037012
:1040B0007047000013B5054B1B788DF800303C238A
:1040C000044602F00BFD204602B010BD84E303203D
:1040D0000EB403B503AB002153F8042B019302F097
:1040E000F0FF02B05DF804EB03B070472DE9F74331
:1040F0001E4C054694F83A00861F48BF00F1120690
:10410000894690461F4602F019FBE38F019394F80D
:104110003C3017490093324694F83B30FFF7D8FF04
:1041200002F00CFB94F8403094F8412011490093C0
:1041300094F84230FFF7CCFF02F000FB94F8803097
:1041400094F87F200C49FFF7C3FF94F87F3053B1F8
:10415000636D2B60A36DC9F80030236EC8F8003082
:1041600094F882303B6003B0BDE8F083F8D70320B9
:1041700020830D003B830D0052830D0000B51A4BC8
:104180009BB01B680493194B186803F031FDCDE90F
:104190000201174B186803F02BFDCDE90001154B08
:1041A00015491A680BA801F0A9FF02F03BFA0BAA07
:1041B0001249FFF78DFF02F035FA44F6206102F054
:1041C00002FF02F02FFA0A22014607A802F0FEFEC3
:1041D00002F0B4FA079A0A49FFF77AFF07A802F03B
:1041E000A9FF1BB05DF804FBC0D50320FCE303204E
:1041F000F8E30320C4D5032067830D002B850D0051
:1042000080830D002DE9F04102F098FA1D491E4E01
:104210001E4FDFF88080FFF75BFF0124002503F0CD
:1042200049F9E1B202F082F903F044F902F086F9AB
:10423000F8B902F083FA22463946FFF749FF012315
:10424000013588F8003001347F2CE8D135B902F00F
:1042500075FA0F49FFF73CFF0E4B1D7002F06EFA26
:104260000D49FFF735FFBDE8F0414FF4FA6002F069
:104270007FBE0428E7D102F061FA22463146FFF7FB
:1042800027FFE0E790830D00D6830D00B1830D007A
:10429000F8830D00F0E303200E840D000000000001
:1042A000F0B52DED028B5E4D8BB02E460024132011
:1042B00003F08CF907EE900AF8EEE77A0134E6ECA9
:1042C000017A0A20E4B202F053FE642CEFD1DFED54
:1042D000557A00230133B5EC017ADBB2642B77EE1B
:1042E000877AF7D1DFED506A504B514D514E87EE32
:1042F000A67ADFED516A83ED007AC6EE877A4F4BDE
:10430000B7EE008A9FED4E7A77EEC87AC7EE276A3D
:1043100086EE870AC3ED006A85ED000A03F076F9A0
:10432000DFED487AC0EE277A17EE900A03F060FCC2
:1043300033A3D3E9002303F0FDFA03F0C3FE07EE35
:10434000900AC8EE277A17EE900A03F051FC2EA3CC
:10435000D3E9002303F0ECFA03F0B4FE286003F085
:1043600047FC2BA3D3E9002303F09AFC364B002231
:1043700003F0E0FA03F0A6FE306002F0DFF9044635
:10438000286803F035FC02460B463068CDE904236B
:1043900003F02EFC0F462D49064606A80D6801F0D5
:1043A000D5FD0699DDE90423CDE90251CDE9006789
:1043B0002749284D2046FFF78BFE06A802F0BAFEDB
:1043C000212003F003F903F001FC13A3D3E9002338
:1043D00003F066FC03F076FE286002F0AFF90446B5
:1043E000286803F005FC02460B4620461A49FFF7F1
:1043F0006FFE0BB0BDEC028BF0BD00BFAFF30080D1
:1044000083DBB5DCE1796B3F6666666666127140F8
:10441000CDCCCCCCCCCCFC3F9402C1D2AF63523FCC
:1044200008E40320000000000000C84290E30320DD
:10443000A0E50320A4E5032000F07F4594E30320DA
:1044400000401C4600E0764500004040ECE30320BD
:104450002E840D009CE303205C840D0038B50468B5
:1044600005467CB16368013B63605BB92368204605
:104470009B689847A368013BA3601BB9236820464B
:10448000DB689847284638BD00B589B022496846A0
:1044900002F09BFE02F0C6F8204902F0EAFD02F0AD
:1044A000C1F80368DB69984740F6FC0002F060FD44
:1044B00002F0B8F803681B699847002826DD02F06F
:1044C000B1F80A22014604A802F080FD04A968465A
:1044D00002F0ACFE04A802F02DFE114B1B7853B184
:1044E00002F02CF9009A0F49FFF7F2FD02F026F9CD
:1044F0000368DB6998470C4B1B783BB104A8009A12
:104500000A49FFF7D7FD05A8FFF7A8FF684602F0A4
:1045100011FE09B05DF804FB53860D00A0E30320F3
:104520009CE50320E3840D0000E40320F3840D00E8
:1045300010B58AB010EE104A069115490790096827
:10454000049110EE900A03F053FBCDE902012046DE
:1045500003F04EFBDDE90632CDE900010D490E48BE
:1045600001F0CCFD0D4B1B782BB102F0E7F80A4AA5
:104570000B49FFF7ADFD0B4B1B783BB108A8064A72
:104580000949FFF797FD09A8FFF768FF0AB010BDBA
:10459000C0D50320FE840D00A0E303209CE503208A
:1045A0001D850D0000E403202E850D0000B589B0A7
:1045B0001B49684602F009FE02F034F81949FFF77A
:1045C00087FDC82002F0D4FC02F02CF803681B69B8
:1045D000984700281EDD02F025F80A22014604A8AB
:1045E00002F0F4FC04A9684602F020FE04A802F0E0
:1045F000A1FD0D4B1B782BB102F0A0F8009A0B49DE
:10460000FFF766FD04A8009A0949FFF753FD05A8C6
:10461000FFF724FF684602F08DFD09B05DF804FB4A
:1046200053860D003D850D009CE5032042850D005D
:1046300054850D0010B58CB051490446684602F00F
:10464000C4FD4F4904A802F0C0FD012C40F08E804B
:1046500001F0E8FF4B49FFF73BFD02F06FF84949D5
:10466000FFF736FD02F06AF80368DB69984701F04E
:10467000D9FF0368DB699847C82002F079FC01F094
:10468000D1FF03681B699847002830DD01F0CAFF9D
:104690000A22014608A802F099FC08A9684602F01F
:1046A000C5FD08A802F046FD01F0BCFF0A22014644
:1046B00008A802F08BFC08A904A802F0B7FD08A81E
:1046C00002F038FD304B1B7833B102F037F8049B11
:1046D000009A2E49FFF7FCFC2D4B1B783BB108A834
:1046E000009A2C49FFF7E6FC09A8FFF7B7FE2A4B12
:1046F0001B78002B32D001F095FF2849FFF7E8FC2A
:10470000C82002F035FC01F08DFF03681B69984753
:10471000002823DD02F012F82149FFF7D9FC01F04F
:1047200081FF0A22014608A802F050FC08A9684649
:1047300002F07CFD08A802F0FDFC01F0FFFF009AEA
:104740001849FFF7C5FC124B1B783BB108A8009A2B
:104750001549FFF7AFFC09A8FFF780FE04A802F097
:10476000E9FC684602F0E6FC0CB010BD01F05AFF0F
:104770000E49FFF7ADFC01F0E1FF0C4970E700BF07
:1047800053860D00C5840D009CE503205D850D005A
:1047900000E403207A850D008CE303209F840D0044
:1047A00083850D0093850D00A7850D0069840D009C
:1047B0001FB5224B1878A8B1214C01F047FB2368A4
:1047C000C01A43F6982398420AD91E4B1E4A1F4925
:1047D0001F48FFF78BFCFFF7D1FC01F037FB20608F
:1047E00004B010BDFFF726FF4FF4FA7002F0C0FBD3
:1047F000FFF756FD174BD3ED000A174B93ED000A58
:10480000164B1968164B1868FFF792FEFFF73CFE2F
:104810004FF47A7002F0ACFB0120FFF70BFF4FF46E
:10482000FA7002F0A5FB01A80E4902F075FD01988F
:1048300008B101F053FC02F06BFDD1E7F0E3032077
:10484000F4E3032098E5032088E30320FCE303203E
:10485000F8E303209CE30320A4E50320B0D5032064
:10486000C4D50320D4E3032000B58BB039490190AF
:1048700002A802F0AAFC01F0D5FE019A3649FFF722
:1048800027FCC82002F074FB01F0CCFE03681B6912
:104890009847002821DD01F0C5FE0A22014606A83E
:1048A00002F094FB06A902A802F0C0FC06A802F0E0
:1048B00041FC2A4B1B782BB101F040FF029A28499A
:1048C000FFF706FC274B1B783BB106A8029A264946
:1048D000FFF7F0FB07A8FFF7C1FD244B1B78002B67
:1048E00032D001F09FFE2249FFF7F2FBC82002F010
:1048F0003FFB01F097FE03681B699847002823DD02
:1049000001F01CFF1B49FFF7E3FB01F08BFE0A22BD
:10491000014606A802F05AFB06A902A802F086FC8E
:1049200006A802F007FC01F009FF029A1249FFF7FE
:10493000CFFB0C4B1B783BB106A8029A0F49FFF73F
:10494000B9FB07A8FFF78AFD02A802F0F3FB0BB042
:104950005DF804FB53860D00B0850D009CE5032037
:1049600084830D0000E40320BC850D008CE303204C
:10497000C3850D0083850D00CD850D00E0850D00FC
:1049800000B589B03849684602F01FFC01F04AFEC4
:104990003649FFF79DFBC82002F0EAFA01F042FE1B
:1049A00003681B699847002821DD01F03BFE0A22BD
:1049B000014604A802F00AFB04A9684602F036FC8E
:1049C00004A802F0B7FB2A4B1B782BB101F0B6FE0E
:1049D000009A2849FFF77CFB274B1B783BB104A8C2
:1049E000009A2649FFF766FB05A8FFF737FD244B21
:1049F0001B78002B32D001F015FE2249FFF768FB2F
:104A0000C82002F0B5FA01F00DFE03681B69984753
:104A1000002823DD01F092FE1B49FFF759FB01F04E
:104A200001FE0A22014604A802F0D0FA04A9684651
:104A300002F0FCFB04A802F07DFB01F07FFE009A6F
:104A40001249FFF745FB0C4B1B783BB104A8009AB9
:104A50000F49FFF72FFB05A8FFF700FD684602F09E
:104A600069FB09B05DF804FB53860D00E8850D0075
:104A70009CE5032084830D0000E4032000860D00E4
:104A80008CE3032009860D0083850D0019860D0037
:104A900032860D0010B588B004463B49684602F0E6
:104AA00094FB24B901F0BEFD3849FFF711FB01F07A
:104AB000B9FD3749FFF70CFBC82002F059FA01F0A5
:104AC000B1FD03681B699847002821DD01F0AAFDAC
:104AD0000A22014604A802F079FA04A9684602F005
:104AE000A5FB04A802F026FB2A4B1B782BB101F092
:104AF00025FE009A2849FFF7EBFA284B1B783BB1BB
:104B000004A8009A2649FFF7D5FA05A8FFF7A6FCE6
:104B1000244B1B78002B32D001F084FD2249FFF793
:104B2000D7FAC82002F024FA01F07CFD03681B6963
:104B30009847002823DD01F001FE1C49FFF7C8FA61
:104B400001F070FD0A22014604A802F03FFA04A910
:104B5000684602F06BFB04A802F0ECFA01F0EEFDEF
:104B6000009A1349FFF7B4FA0C4B1B783BB104A829
:104B7000009A1049FFF79EFA05A8FFF76FFC6846F8
:104B800002F0D8FA08B010BD53860D0040860D0023
:104B900054860D009CE5032084830D0000E403206F
:104BA00068860D008CE3032070860D0083850D0060
:104BB0007B860D008F860D0000B58BB039490190C2
:104BC00002A802F002FB01F02DFD019A3649FFF721
:104BD0007FFAC82002F0CCF901F024FD03681B69BC
:104BE0009847002821DD01F01DFD0A22014606A894
:104BF00002F0ECF906A902A802F018FB06A802F0E0
:104C000099FA2A4B1B782BB101F098FD029A28499A
:104C1000FFF75EFA274B1B783BB106A8029A26499C
:104C2000FFF748FA07A8FFF719FC244B1B78002B65
:104C300032D001F0F7FC2249FFF74AFAC82002F00F
:104C400097F901F0EFFC03681B699847002823DD02
:104C500001F074FD1B49FFF73BFA01F0E3FC0A2267
:104C6000014606A802F0B2F906A902A802F0DEFA8F
:104C700006A802F05FFA01F061FD029A1249FFF7FF
:104C800027FA0C4B1B783BB106A8029A0F49FFF795
:104C900011FA07A8FFF7E2FB02A802F04BFA0BB0EB
:104CA0005DF804FB53860D0098860D009CE50320FB
:104CB00084830D0000E40320A8860D008CE303200C
:104CC000B3860D0083850D00C1860D00D8860D00CA
:104CD00000B58BB03949019002A802F076FA01F0D4
:104CE000A1FC019A3649FFF7F3F9C82002F040F918
:104CF00001F098FC03681B699847002821DD01F04A
:104D000091FC0A22014606A802F060F906A902A851
:104D100002F08CFA06A802F00DFA2A4B1B782BB190
:104D200001F00CFD029A2849FFF7D2F9274B1B78B6
:104D30003BB106A8029A2649FFF7BCF907A8FFF77E
:104D40008DFB244B1B78002B32D001F06BFC2249E9
:104D5000FFF7BEF9C82002F00BF901F063FC03680D
:104D60001B699847002823DD01F0E8FC1B49FFF789
:104D7000AFF901F057FC0A22014606A802F026F915
:104D800006A902A802F052FA06A802F0D3F901F02F
:104D9000D5FC029A1249FFF79BF90C4B1B783BB1EB
:104DA00006A8029A0F49FFF785F907A8FFF756FBF7
:104DB00002A802F0BFF90BB05DF804FB53860D00AA
:104DC000E4860D009CE5032084830D0000E40320AD
:104DD000A8860D008CE30320F6860D0083850D0068
:104DE00006870D001E870D0000B58DB03C49684652
:104DF00002F0EBF93B4904A802F0E7F901F012FCDC
:104E0000009A3949FFF764F9C82002F0B1F801F0BF
:104E100009FC03681B699847002821DD01F002FCAA
:104E20000A22014608A802F0D1F808A904A802F055
:104E3000FDF908A802F07EF92C4B1B782BB101F08C
:104E40007DFC049A2A49FFF743F92A4B1B783BB1B2
:104E500008A8049A2849FFF72DF909A8FFF7FEFAD8
:104E6000264B1B78002B32D001F0DCFB2449FFF7E6
:104E70002FF9C82002F07CF801F0D4FB03681B690D
:104E80009847002823DD01F059FC1E49FFF720F95F
:104E900001F0C8FB0A22014608A802F097F808A909
:104EA00004A802F0C3F908A802F044F901F046FC96
:104EB000049A1549FFF70CF90E4B1B783BB108A873
:104EC000049A1249FFF7F6F809A8FFF7C7FA04A8F1
:104ED00002F030F9684602F02DF90DB05DF804FBE0
:104EE0002C870D0053860D004D870D009CE5032097
:104EF00084830D0000E403205A870D008CE3032017
:104F000062870D0083850D006D870D007D870D0084
:104F100000B58BB03949019002A802F056F901F0B2
:104F200081FB019A3649FFF7D3F8C82002F020F838
:104F300001F078FB03681B699847002821DD01F028
:104F400071FB0A22014606A802F040F806A902A851
:104F500002F06CF906A802F0EDF82A4B1B782BB191
:104F600001F0ECFB029A2849FFF7B2F8274B1B78B7
:104F70003BB106A8029A2649FFF79CF807A8FFF75D
:104F80006DFA244B1B78002B32D001F04BFB2249E9
:104F9000FFF79EF8C82001F0EBFF01F043FB036828
:104FA0001B699847002823DD01F0C8FB1B49FFF768
:104FB0008FF801F037FB0A22014606A802F006F836
:104FC00006A902A802F032F906A802F0B3F801F02F
:104FD000B5FB029A1249FFF77BF80C4B1B783BB1EB
:104FE00006A8029A0F49FFF765F807A8FFF736FAF7
:104FF00002A802F09FF80BB05DF804FB53860D0089
:1050000086870D009CE5032084830D0000E40320C7
:1050100094870D008CE303209D870D0083850D0090
:10502000A9870D00BE870D0008B50020FFF702FB21
:10503000FFF7BCFA0D4B1868FFF7BEFD0C4B186864
:10504000FFF746FE0B4B1868FFF724FD0A4B186864
:10505000FFF796FC094B1868FFF706FC084B186829
:10506000FFF756FFBDE80840FFF7BEBEA8D50320F6
:10507000B8D5032098E3032004E40320ACD5032033
:10508000BCD50320F8B501204F4E01F039FF0121B6
:105090000A2001F058FF3368072B55D8DFE803F0EA
:1050A00004073F43474B4D51FF2211463DE0FF228D
:1050B0000021084601F034FF01F040FB4FF4165187
:1050C00001F030FB01F0AEFA4FF4E13101F0A6FA45
:1050D0004FF47A7001F04CFF0021132002F04CFADB
:1050E0003A4B3B4D01221A703A4A002313703A4A58
:1050F0001370FFF75BFAFFF797FF2B7D002B3AD079
:1051000002232B72354B1B684EF660275F432B68DA
:10511000DB68EBB19A88042A53D09B68F9E75822E0
:10512000FF211920C6E700224521FF20C2E7F02217
:105130002021A020BEE70022B7E7B32293217320ED
:10514000B8E70022FF21B4E7002001F0D9FEB3E761
:105150002349102002F053FA044600282FD01022D1
:10516000002103F013F81F4B23600423A3802B6955
:105170002C61C4E902371C4B1C4D00241C6002F05A
:1051800099F901F0CDF9FFF73DF801F0D7FA2A7847
:105190001749FEF79DFF2B7883B11021154800F0C9
:1051A000FBF81549134800F09FFA1449114800F024
:1051B0009BFA13490F4800F097FA3460F8BD287540
:1051C000D9E7DF60D7E700BFC0D503209CE5032007
:1051D000D4E3032000E403208CE30320B4D50320B0
:1051E000088B0D0010000300ECE30320F0E3032024
:1051F000C8870D00F8D70320DA870D000C880D0052
:105200001D880D00114B10B500241C7002F052F9DE
:1052100001460F4800F02CF90E4B1A46191D42F8B2
:10522000091BA3F80940947001221A750A4A5A60B2
:105230001C72C3E90344094B094A1C609C809C71A1
:105240009A60BDE81040022000F0F8BE84E303201D
:10525000F8D70320D4E303201000030078E30320F1
:105260000000FFFF704710B51021044602F0C5F999
:10527000204610BD064B13B503600024E1B2013493
:10528000019000F0A7FC402C0198F7D102B010BDAE
:1052900034890D0010B50446FFF7ECFF20464FF4AB
:1052A000386102F0AAF9204610BD70B50446D0F866
:1052B000D4090E4620B10368BDE870409B681847CA
:1052C000D4F8D8090028F6D1D4F8DC0908BBD4F802
:1052D000E00958B304F6E81101F070F894F9E40914
:1052E000002803DB002180B202F057F9D4F8E0096E
:1052F000314601F0D1F894F9E409002803DB0121DB
:1053000080B202F04AF9D4F8E00901F03EF8012534
:105310000DE094F85C1A01F009F9D4F8DC0903688F
:1053200031469B6898470128054602D0002528464B
:1053300070BD0146D4F8DC0901F0FCF80028C6D1A4
:10534000F5E7000073B5044608462279A36832B138
:10535000A3B90B4902B0BDE8704001F077BE094A1D
:10536000267B094D0949647B012E18BF2946CDE9EA
:1053700000140749FEF7ACFE02B070BD054AEFE726
:1053800050880D0053860D004C880D0048880D0094
:1053900066880D003F880D0070B50446D0F8D4092A
:1053A0000D4608B101F03AF9D4F8DC69A6B13046EF
:1053B00001F0B6F8802D28BF1025E9B2D4F8DC0939
:1053C00084F85C1A01F0B2F8D4F8DC0901F0B6F800
:1053D000B0FA80F0400970BDD4F8E009A8B100F03F
:1053E000C3FF94F9E40984F8EC6901210028C4F8AA
:1053F000F059A4F8F41908DB80B202F0BDF894F972
:10540000E409012180B202F0C8F80A2001F0B0FDE1
:105410000120E0E700F52861C0F8741B00F6F821D0
:105420000022C0F8781B002180F87C2BC0E91F22E5
:10543000C0F8D429C0F8D829C0F8DC29C0F8E02980
:1054400080F8D02980F8702B428780F83C20C287F2
:10545000A0F8402080F84220C1650166416681665F
:10546000C1660167416781678164416400F076B974
:105470002DE9F041774B03600446002545608560C7
:1054800085818573142288460F30294602F07EFEFE
:1054900014222946A4F8235084F8255004F126004C
:1054A00002F074FE45F65803A4F87C30582384F8C3
:1054B0007E304FF40062294604F1900002F066FE4F
:1054C000234604F500624FF47A71A3F89C10203350
:1054D0009342FAD104F509635F4A1A6004F6940313
:1054E00000221A600021142204F6980002F04EFEF9
:1054F0005A4F1422002104F6AC0002F047FE3F226E
:10550000002104F50C6002F041FE0FCF002504F6E7
:105510000C16C4F80059C4F80459C4F808590FC649
:1055200097E8070086E807002946542204F6281069
:1055300002F02CFE4A4BC4F828394A4BC4F82C39E7
:10554000494BC4F83039494BC4F83439484BC4F896
:105550003839484BC4F83C39474BC4F84039474BBD
:10556000C4F84439464BC4F84839464BC4F84C3962
:10557000454BC4F85039454BC4F85439444BC4F832
:105580005839444BC4F85C39434BC4F86039434B39
:10559000C4F86439424BC4F86839424B424EC4F8EF
:1055A0006C39424BC4F870392946C4F874693C22FE
:1055B00004F67C1002F0EAFD3D4BC4F87C393D4B0B
:1055C000C4F880393C4BC4F884393C4BC4F8883962
:1055D0003B4BC4F88C393B4BC4F890393A4BC4F878
:1055E00094393A4BC4F89839394BC4F89C39394B43
:1055F000C4F8A039384A394BC4F8A439C4F8E829AA
:10560000374B384AC4F8B839C4F8BC39C4F8C03983
:10561000C4F8C439C4F8C839C4F8CC39C4F8F0297E
:10562000FF2301222046C4F8A86984F8D15984F8E0
:10563000E43984F8EC59A4F8F42984F87D3AA4F804
:105640007E5A84F8705BFFF7E5FEC4F8DC892046DB
:10565000BDE8F08134890D009A99194010890D0038
:1056600083880D0087880D008B880D008F880D00C2
:1056700093880D0097880D009B880D009F880D0072
:10568000A3880D00A7880D00AB880D00AF880D0022
:10569000B3880D00B7880D00BB880D00BF880D00D2
:1056A000C3880D00C7880D003B880D00CB880D0016
:1056B000CF880D00D3880D00D7880D00DB880D0042
:1056C000DF880D00E3880D00E7880D00EB880D00F2
:1056D000EF880D00F3880D0004890D00F7880D0098
:1056E0000094357740420F0001F0C3BCF0B585B09F
:1056F0000546DDE90A070C469DF8301000263F2CD0
:105700002AD81AB105EB441CCCF8A42062011BB1C5
:1057100005EB020CCCF8AC3010B1AB18C3F8A80004
:1057200017B1AB18A3F89C702A4482F89E100A396E
:10573000092911D80023611C1A46C9B22846CDE9AF
:1057400001660096FFF7D2FF02340021E4B20F4653
:1057500008460B460A46D2E705B0F0BD2DE9F04FEA
:105760000026C54F85B005463446F1B2CDE9014467
:10577000009400233A4628460136FFF7B7FF402E33
:10578000F3D100230226BD4FBD4A00941946284696
:10579000CDE90144FFF7AAFFCDE90146009728466D
:1057A000B84BB94ADFF8D493DFF8D4A3DFF8D4B309
:1057B0000121FFF79BFFCDE90146009731462846BE
:1057C000B04BB24AFFF792FFCDE901460097284659
:1057D000AC4BAF4A0321FFF789FFCDE901460097A3
:1057E0002846AC4FA74BAC4A0421FFF77FFF4FF090
:1057F0000B0800972846CDE90144A84BA84A05218B
:10580000FFF774FFCDE90148CDF800902846A54B7D
:10581000A54A0621FFF76AFF0123CDE90143CDF830
:10582000009028469F4BA14A0921FFF75FFFCDF862
:1058300000A02846CDE901449D4B9E4A0A21FFF76E
:1058400055FFCDF800A041464FF00C0A2846CDE99F
:105850000144974B984AFFF749FFCDE9014A514669
:105860002846904B954ACDF800B0FFF73FFF0097D0
:105870002846CDE90144924B924A0F21FFF736FFAB
:10588000CDE9014A2846874B8F4ACDF800B0102158
:10589000FFF72CFFCDE90148CDF800902846814B59
:1058A0008A4ADFF8E4A21321FFF720FF0097284679
:1058B000CDE90144824B864A1621FFF717FF009776
:1058C0002846CDE90144754B824A1721FFF70EFFA8
:1058D00000972846CDE90144704B7F4A1821FFF715
:1058E00005FF7E4B0093CDE9014628466D4B7C4A6F
:1058F0001921FFF7FBFE7B4B0093CDE901462846BB
:10590000684B794A794E1A21FFF7F0FE784B0093E5
:10591000CDE901482846634B764A1B21FFF7E6FE96
:10592000CDE90148CDF8009028465E4B724ADFF879
:105930005C92DFF85C821E21FFF7D8FE00972846B4
:10594000CDE90144554B6D4A6D4F2121FFF7CEFE45
:1059500000962846CDE901446A4B6B4A2221FFF7A5
:10596000C5FE00962846CDE90144684B684A694E59
:105970002221FFF7BBFE684B00932846CDE9014486
:10598000664B674A2421FFF7B1FE2846CDE9014462
:10599000644B654ACDF800A02521FFF7A7FE2846F5
:1059A000CDE90144614B624ACDF800902621FFF712
:1059B0009DFE2846CDE901445E4B5F4ACDF800804C
:1059C0002721FFF793FE2846CDE901445B4B5C4A53
:1059D00000972821FFF78AFE2846CDE90144594B5C
:1059E000594A00962921FFF781FE2846CDE9014456
:1059F0004C4B564ACDF800A02A21FFF777FE2846E7
:105A0000CDE90144494B524ACDF800902B21FFF7D4
:105A10006DFE2846CDE90144464B4E4ACDF8008044
:105A20002C21FFF763FE2846CDE90144434B4A4A47
:105A300000972D21FFF75AFE2846CDE90144414B3E
:105A4000464A00962E21FFF751FE454B009328460B
:105A5000CDE90144434B444A2F21FFF747FE434B16
:105A600000932846CDE90144414B424A3021FFF7DB
:105A70003DFE414B00938DE0CBD60320F7D60320AB
:105A80005FD70320E5D6032035D703203DD7032079
:105A9000D5D503207FD70320DCD5032018D60320DB
:105AA00041D7032014D703201AD70320C8D50320D9
:105AB000F1D6032059D70320F4D503200CD70320B7
:105AC0002BD6032010D7032045D7032049D7032026
:105AD0004DD7032051D70320EDD503202CD7032029
:105AE00064D703206ED70320E3D5032006D7032015
:105AF00023D6032024D7032028D7032055D70320FB
:105B00006FD60320EBD6032039D7032000D703201C
:105B100069D7032064D603205DD703201ED7032056
:105B2000CFD5032079D7032002D60320A5D60320A2
:105B3000BDD6032069D6032099D6032054D603206E
:105B400089D603203CD6032075D603200AD603202D
:105B5000C4D603209FD6032091D603207DD60320F0
:105B6000B7D60320ABD60320CFD60320D9D6032047
:105B7000D3D60320DFD603201ED603204BD6032026
:105B800009D7032034D60320E9D50320B1D603205A
:105B900085D603202846CDE90144094B094A312125
:105BA000FFF7A4FD084B0093CDE90144074B084AD9
:105BB00032212846FFF79AFD05B0BDE8F08F00BFFF
:105BC000FCD5032042D6032031D6032012D6032071
:105BD0005AD603203F2910B50ED800EB4114D4F853
:105BE000A0304BB1186800F079FAD4F8A00000F0AA
:105BF00075FA0023C4F8A03010BD000008B5024BB0
:105C00001B681B68019308BD4C02030008B5024BDA
:105C10001B685B68019308BD4C02030008B5024B8A
:105C20001B681B69019308BD4C02030008B5024BB9
:105C30001B685B69019308BD4C02030008B5024B69
:105C40001B689B69019308BD4C02030008B5024B19
:105C50001B68DB69019308BD4C02030008B5024BC9
:105C60001B681B6A019308BD4C02030008B5024B78
:105C70001B68DB68019308BD2802030008B5024BCE
:105C80001B689B69019308BD2802030008B5024BFD
:105C90001B68DB69019308BD2802030008B5024BAD
:105CA0001B681B6A019308BD2802030008B5024B5C
:105CB0001B685B6A019308BD2802030008B5024B0C
:105CC0001B689B6A019308BD2802030008B5024BBC
:105CD0001B68DB6A019308BD2802030008B5024B6C
:105CE0001B681B6B019308BD2802030008B5024B1B
:105CF0001B685B6B019308BD2802030008B5024BCB
:105D00001B681B6C019308BD2802030008B5024BF9
:105D10001B681B68019308BD3002030008B5024BE5
:105D20001B685B69019308BD3002030008B5024B94
:105D30001B68DB69019308BD3002030008B5024B04
:105D40001B681B6A019308BD3002030008B5024BB3
:105D50001B685B6A019308BD3002030008B5024B63
:105D60001B68DB6B019308BD3002030008B5024BD2
:105D70001B681B6C019308BD3002030008B5024B81
:105D80001B685B6C019308BD3002030008B5024B31
:105D90001B681B68019308BD3C02030008B5024B59
:105DA0001B68DB68019308BD3C02030008B5024B89
:105DB0001B681B69019308BD3C02030008B5024B38
:105DC0001B685B69019308BD3C02030008B5024BE8
:105DD0001B689B69019308BD3C02030008B5024B98
:105DE0001B68DB69019308BD3C02030008B5024B48
:105DF0001B681B6A019308BD3C02030008B5024BF7
:105E00001B689B6A019308BD3C02030008B5024B66
:105E10001B68DB6A019308BD3C02030008B5024B16
:105E20001B685B69019308BD6402030008B5024B5F
:105E30001B685B6C019308BD4802030008B5024B68
:105E40001B685B68019308BD1802030008B5024B8C
:105E50001B685B69019308BD1802030008B5024B7B
:105E60001B685B68019308BD2C02030008B5024B58
:105E70001B689B68019308BD2C02030008B5024B08
:105E80001B68DB68019308BD2C02030008B5024BB8
:105E90001B681B69019308BD2C02030008B5024B67
:105EA0001B681B6B019308BD2C02030008B5024B55
:105EB0001B689B68019308BD6802030008B5024B8C
:105EC0001B68DB68019308BD6802030008B5024B3C
:105ED0001B685B68019308BD6002030008B5024BB4
:105EE0001B689B68019308BD6002030008B5024B64
:105EF0001B68DB68019308BD6002030008B5024B14
:105F00001B681B69019308BD6002030008B5024BC2
:105F10001B689B69019308BD6002030008B5024B32
:105F20001B68DB69019308BD6002030008B5024BE2
:105F30001B681B6D019308BD6002030008B5024B8E
:105F40001B685B69019308BD4402030008B5024B5E
:105F50001B68DB69019308BD4402030008B5024BCE
:105F60001B681B6A019308BD4402030008B5024B7D
:105F70001B68DB6B019308BD4402030008B5024BAC
:105F80001B685B68019308BD4002030008B5024B23
:105F90001B689B68019308BD4002030008B5024BD3
:105FA0001B68DB68019308BD4002030008B5024B83
:105FB0001B681B69019308BD4002030008B5024B32
:105FC0001B685B69019308BD4002030008B5024BE2
:105FD0001B689B69019308BD4002030008B5024B92
:105FE0001B68DB69019308BD4002030008B5024B42
:105FF0001B681B6A019308BD4002030008B5024BF1
:106000001B681B6B019308BD4002030008B5024BDF
:106010001B685B6B019308BD4002030008B5024B8F
:106020001B681B6C019308BD4002030008B5024BBE
:106030001B685B6C019308BD4002030008B5024B6E
:106040001B685B68019308BD2002030008B5024B82
:106050001B685B69019308BD2002030008B5024B71
:106060001B68DB6C019308BD2002030008B5024BDE
:106070001B685B6D019308BD2002030008B5034B4C
:106080001B68D3F88830019308BD0000200203008C
:1060900008B5034B1B68D3F89430019308BD00008A
:1060A0002002030008B5034B1B68D3F8A830019306
:1060B00008BD00002002030008B5034B1B68D3F89D
:1060C000AC30019308BD00002002030008B5024B6C
:1060D0001B681B68019308BD1C02030008B5024B36
:1060E0001B685B68019308BD1C02030008B5024BE6
:1060F0001B689B68019308BD1C02030008B5024B96
:106100001B68DB68019308BD1C02030008B5024B45
:106110001B685B6A019308BD1C02030008B5024BB3
:106120001B68DB6A019308BD1C02030008B5024B23
:106130001B681B6B019308BD1C02030008B5024BD2
:106140001B68DB6B019308BD1C02030008B5024B02
:106150001B685B6C019308BD1C02030010B58368CB
:10616000044613B1032201469847204610BD002380
:1061700040681A46FFF702BF406800220221FFF77D
:106180000DBF002240681146FFF700BF00224068A3
:106190001146FFF70BBF002340681A461946FFF768
:1061A0000DBF002340681A461946FFF70FBF40682D
:1061B0000021FFF733BF40680021FFF737BF406879
:1061C000002281F00101FFF709BF40680022FFF7BC
:1061D00015BF002240681146FFF718BF0022406833
:1061E0001146FFF703BF2DE9F043002495B0164692
:1061F0000D46074600F002FB214618220EA8009427
:1062000001F0C4FF4023CDE90C3421466B460CAAB3
:106210003046FFF753FE0446002846D102460121CE
:106220006868FFF7C3FE0221804622466868FFF7D0
:10623000BDFE009E81462146002E36D0002934D175
:106240007368022B03D00A2B0BD0F669F4E7B8F180
:10625000000F04D071693846043100F0FCFA414661
:10626000F3E7B9F1000F01D14946EEE77469102256
:1062700001A801F08BFF06238DF8143001AD04F165
:1062800008031834186859682A4603C20833A34221
:106290001546F7D101A906A807AD00F0BDFA0FCD4C
:1062A0003C1D0FC42B682370DEE70098FFF7FEFD4E
:1062B000384615B0BDE8F083024B034A1A6000224D
:1062C0005A607047A8E503204C890D000022406801
:1062D0001146FFF76BBE002240681146FFF786BEED
:1062E000002240681146FFF791BE40680022FFF788
:1062F00085BE4068002281F00101FFF76FBE0023D8
:1063000040681A461946FFF761BE002340681A46E6
:106310001946FFF753BE002240681146FFF736BE0C
:10632000406800220221FFF739BE002340681A4668
:10633000FFF724BE024B04225A60024A1A607047DB
:10634000B0E5032088890D000021FFF70FBD002173
:10635000FFF714BD10B5044608462170FFF7E6FCB0
:1063600000236360204610BD10B504460078FFF797
:10637000EBFF48B920784FF6FF71FFF7C7FC207894
:10638000BDE81040FFF7E3BF10BD0078FFF7DFBFA7
:10639000400830B51860002418688842E5B206D974
:1063A0000134082C02D040081860F5E70725024B9D
:1063B0005B5D137030BD00BFBC890D002DE9F0435B
:1063C00006468FB000780C46FFF7BEFF00281BDBA7
:1063D00035781422002109A801F0D8FE0B230022F1
:1063E00009A92846ADF82430FFF7B0FC9DF82D3000
:1063F00013B19DF82C5055B10027B946B846012578
:1064000023795DB1C3B100200FB0BDE8F083DDF8A2
:1064100030809DF834909DF83570F1E7002B35D130
:10642000A368434508D18DF820908DF82170BDF800
:106430002020A3899A42E6D00023A1688DF80F306E
:106440000A9804AB0DF10F02FFF7A2FF217985B97D
:1064500089B9A36843450ED38DF820908DF821703B
:10646000BDF82020A3899A4205D1049B434502D15F
:10647000C9E70029F9D100230193637B00939DF8BC
:106480000F20237B3078FFF769FCBCE7CDE900558E
:106490002B462A460121F5E708B50078FFF73EFCB8
:1064A000C0B208BD7047F8B5064615460C468F18B1
:1064B000BC4206D0336814F8011B9B6830469847ED
:1064C000F6E72846F8BD007C0022FFF7E7BB007C1A
:1064D0000021FFF7EBBB007C0021FFF7EFBB007C46
:1064E0000021FFF7F3BB007C0021FFF7F7BB10B5DD
:1064F0001421044601F081F8204610BD10B54FF478
:106500007A73044608460021C4E90113034B236053
:1065100020741146FFF7F2FB204610BDCC890D0018
:106520000023007C1A461946FFF7A0BB007C00221E
:10653000FFF7A4BB007C0022FFF7A8BB0121FFF7F7
:10654000F9BF10B5836804460BB901F05CF8C36865
:106550009847A3681BB1032221462046984720464E
:106560001021BDE8104001F048B8704741747047F1
:10657000704708B5007CFFF741FC20EAE07008BDD9
:1065800008B5007CFFF712FC20EAE07008BD08B5F2
:10659000007CFFF71BFC40EAE07008BD08B5007CFA
:1065A000FFF70CFC40EAE07008BD007CFFF716BC6A
:1065B00037B5457C04462DB1207C03B0BDE83040A2
:1065C000FFF7ECBB007C0191FFF718FC0028019954
:1065D000F2DC284603B030BD10B51421044601F0AA
:1065E0000CF8204610BD000010B54FF0000C04461A
:1065F000084611464FF47A72C4E901C2044A226087
:106600000122207462741A46FFF7C0FB204610BDB9
:10661000F4890D00007C0023FFF7F8BB0022FFF790
:10662000F9BF000013B50D4C2178BFF35B8F11F05B
:10663000010110D120460191FDF733FD019950B1C0
:10664000074B084A0848FFF7CFFF2046FDF72EFD0D
:10665000064801F087FD044802B010BDB8E50320EC
:1066600040E60320BCE50320C4E6032071650D006D
:106670000B68036013B15A6801325A607047417465
:1066800070477047704708B50021007CFFF7D6FAC5
:1066900040EAE07008BD08B50121007CFFF7CEFAA2
:1066A00040EAE07008BD08B5007CFFF7BFFA20EAB9
:1066B000E07008BD08B5007CFFF7B0FA20EAE07092
:1066C00008BD13B50446007C0191FFF7AFFA00281E
:1066D000019901DC607C20B1207CFFF7B7FA20EA49
:1066E000E07002B010BD007CFFF7B8BA10B51421FD
:1066F000044600F082FF204610BD000010B54FF4A4
:106700007A73044608460021C4E90113044B236050
:106710000123207463741146FFF770FA204610BD00
:10672000248A0D00007C0022FFF770BA10B51422F5
:106730000446002101F02AFD204610BD10B50F4C83
:1067400088B003A8FFF7F2FF2178BFF35B8F11F049
:1067500001010FD120460191FDF7A3FC019948B139
:1067600003AA0748FFF7CAFF2046FDF79FFC05482C
:1067700001F0F8FC024808B010BD00BFD8E60320C5
:10678000DCE6032083660D00704710B5182104462F
:1067900000F033FF204610BDF0B5037D062B8DB011
:1067A0000E4600F104074FF0000412D000F1080576
:1067B00015F8011D0A22304600F065FCAF42044482
:1067C00019D0002CF4D02E21304600F043FC0444B4
:1067D000EEE72F236A4639460A208DF80040FFF77E
:1067E0001DFB684601F023FD33680246DB686946FD
:1067F00030469847044620460DB0F0BD10B5054B15
:106800000446112240F8043B002101F0BFFC204661
:1068100010BD00BF548A0D000346074A10B543F867
:10682000042B01F1100251F8044B43F8044B914240
:10683000F9D10A781A7010BD548A0D0010B59DF870
:10684000084044EA032343EA024242EA0161042386
:106850004160037510BD13B5CB7800938B784A78EF
:106860000978FFF7EBFF02B010BD704700207047BA
:1068700010B51021044600F0C0FE204610BD08B53A
:10688000FFF7F6FF08BD30B500224FF69C7402609A
:1068900084808D888C800C68858004600A6030BD9F
:1068A00010B504460068FFF719FC204610BD38B546
:1068B000C468F4B12378022B03D104F10C00FFF774
:1068C000EFFF656835B12846FFF748FC10212846E0
:1068D00000F093FEA56835B12846FFF73FFC102174
:1068E000284600F08AFE20461421BDE8384000F01A
:1068F00084BE38BD73B50E46044656F8043B00937B
:106900000D4601A83146FFF7B3FE019A009B626075
:10691000236001A8002301930093FDF79FFD3046FB
:10692000FDF79CFD2846082100F067FE204602B0D6
:1069300070BD13B50B460246D0E900016C4684E8F1
:10694000030093E8030082E8030094E8030083E86F
:10695000030002B010BD826810B50AB900F053FE02
:10696000BDE81040C368184708B5006800F1100181
:10697000FFF7F1FF08BD826810B50AB900F043FEC9
:10698000BDE81040C368184708B5006800F1100161
:10699000FFF7F1FF08BD000038B50023044603608F
:1069A00010200D46FDF777FB28B10123C0E9013324
:1069B000024B0360C5602060204638BD688A0D0028
:1069C00038B5002383608B6804460D462BB1022244
:1069D0009847EB68E360AB68A360204638BD0000D1
:1069E000F0B589B004686846FFF74DFF4FF0020329
:1069F000D4E84F2F002A03D1C4E8413F0029F7D142
:106A000025D104F10C0569462846FFF73CFFBFF38A
:106A10005B8F01236370002004F10803BFF35B8FD9
:106A200053E8006F43E80002002AF9D1BFF35B8FFF
:106A30006EB1FFF713FB78B129463046FFF78BFFA5
:106A40003046FFF78BFB1021304600F0D6FD68463C
:106A5000FFF726FF09B0F0BD314602A8FFF7B0FFEF
:106A6000E068B4F9105008B101F0C4FB06901020A2
:106A7000ADF81C50FDF70FFB0546E8B10027876015
:106A80001820FDF708FB044688B10146876002A87C
:106A9000FFF74FFF049BA268A360059B049206A921
:106AA000E268E36004F110000592FFF7ECFE084B8A
:106AB000EB60084B2C60AB6006A8FFF7F1FE02A864
:106AC000FFF74CFB002229460348FFF7CFFAB7E750
:106AD00069690D00016C0D0043650D002DE9F0475B
:106AE0008AB005469DF848900C4617469846FFF731
:106AF00025FA07AE824638BB4FF62E73059005A9DE
:106B00003046ADF81830FFF7BEFE1420FDF7C3FA8B
:106B1000044648B1022303700123C0E901AA43706F
:106B200031460C30FFF7AFFE2846214640F8044BB3
:106B3000FFF732FF3046FFF7B3FE05A8FFF7B0FEC0
:106B400028460AB0BDE8F0870C234FF0000A142055
:106B5000CDE908AA0793FDF79EFA014628B1C0E9DE
:106B600001AA80F800A080F801A004A80391FFF713
:106B700013FF224B08930820FDF78DFA824628B1B7
:106B8000039B40F8043B04A9FFF772FD00965FFAEF
:106B900089F3424639462046CDF824A0FFF7DEF9B6
:106BA000B8B9039B5B7803F0FF0293B94FF69C736F
:106BB00005A903A80592ADF81830FFF711FF05A845
:106BC000FFF76EFE05A80999FFF794FE06A8FDF7EA
:106BD00045FC039B059304A906A8FFF749FD059B07
:106BE000069A2B606A60002306A806930593FDF7BA
:106BF00035FC04A8FDF732FCA2E700BFC56C0D0010
:106C0000022AF8B5054607D0032A18D0012A01D177
:106C10000B6803600020F8BD18200E68FDF73BFAF2
:106C2000044650B13146FFF7CBFE3069B6F9147017
:106C300008B101F0DFFA2061A7822C60EAE704685E
:106C4000002CE7D004F11000FFF72AFE2046FFF7E2
:106C500085FA1821204600F0D0FCDBE738B5002388
:106C600083608B6804460D462BB102229847EB687F
:106C7000E360AB68A360204638BD022A70B50446C5
:106C800007D0032A12D0012A01D10B68036000202B
:106C900070BD14200E68FDF7FEF9054620B131469F
:106CA000FFF7DCFF337C2B742560F0E70468002CD1
:106CB000EDD02046FFF752FA1421204600F09DFC4B
:106CC000E5E70000F0B589B004460D4601A811467D
:106CD000FFF710FEA4B124B21DB1284601F08AFAD4
:106CE000054601A803A90395ADF81040FFF778FE0B
:106CF00003A8FFF7D5FD02A8FDF7B0FB09B0F0BD72
:106D0000019D0123D5E84F2F002A03D1C5E8413F5B
:106D10000029F7D1EFD12B73BFF35B8F6B702B1D65
:106D2000BFF35B8F53E8006F43E80042002AF9D1BC
:106D3000BFF35B8F002EDED02046FFF78FF90746AA
:106D400060B105F10C013046FFF715FE3046FFF744
:106D500005FA1021304600F050FCCCE7314603A87C
:106D6000FFF77CFF2B7B8DF81C301020FDF793F98B
:106D70000546D0B187601420FDF78DF9044678B13F
:106D80008760014603A8FFF7D4FD059BA268A360B6
:106D9000069B0592E268E3609DF81C30069223741E
:106DA000064BEB60064B2C60AB6003A8FFF7D6F9EF
:106DB000002229460348FFF759F9C7E789690D0002
:106DC0007B6C0D0043650D00014B1860704700BFE0
:106DD00090D7032008B50B4B43B1FFF7AFFC036816
:106DE0001B699847002801DDAFF30080064B43B1D3
:106DF000FFF718FC03681B699847002801DDAFF313
:106E0000008008BD000000000000000008B5FFF78A
:106E1000E1FFFFF71BF8014B186008BD44E70320B2
:106E20000548064A064908B5121A01F0A1F9054BB2
:106E3000054A1A6008BD00BF00F4032004F40320D3
:106E4000408B0D0000F403201E1C279A07B5002379
:106E500000931A466FF07701FFF71AF903B05DF857
:106E600004FB000007B543880A2B08D0502B0BD138
:106E7000094B1B684BB103B05DF804EB1847FFF7F3
:106E8000E5FF03B05DF804FB002300931A466FF0A2
:106E90007701FFF7FDF8F4E7F4E6032010B5124898
:106EA0000021FFF753F9114B1A68114B9A42114B0D
:106EB0000CBF012200221A7001D0FFF7B1FFFEF7CC
:106EC000BDFF044601F06AF90B4B13B12046AFF346
:106ED000008000210848FFF749F8BDE81040074846
:106EE0000021FFF7CBB800BFC96D0D0000F40320EF
:106EF0001E1C279AF0E6032000000000656E0D00BE
:106F000010B50446FFF702F8844208D01CB1BDE872
:106F10001040FEF7E3BFBDE81040FEF7E7BF10BD2D
:106F200070B505460E461446FEF7F0FF50B144EA30
:106F3000062040EA0540FEF7C9FFBDE87040E720A3
:106F4000FEF7ECBF70BD10B50C46FEF7D7FFFEF79D
:106F5000DDFF28B124B1BDE81040E720FEF7DEBF19
:106F600010BD0000014B00229A607047F8E6032034
:106F70000021FFF76BB80000024B1A68024B1A6041
:106F8000704700BF88D7032008E70320014B024A5F
:106F90001A6070470CE70320988A0D0010B504466C
:106FA000FEF754FFE060236820465B69984700289D
:106FB00008DAFEF74BFFE368C01AA3689842F2D3E1
:106FC0004FF0FF3010BD81607047000070B50D4676
:106FD00009490446164600F0F8F82846FFF7DEFF98
:106FE000002806DB864204D0C1B2204600F03DF9FD
:106FF000F3E7204670BD00BF53860D00F8B5064686
:107000000D468F180024BD420CD0336815F8011BC3
:107010009B6830469847031E01DB1C44F3E7002CB5
:1070200008BF1C462046F8BD13B50446084659B1B2
:10703000019101F0FCF823680199DB6802462046C3
:1070400002B0BDE81040184702B010BD08B5FFF708
:10705000EBFF08BD03689B68184738B50D2105464E
:10706000FFF7F8FF0A2104462846FFF7F3FF204404
:1070700038BD38B50546FFF7D7FF04462846FFF769
:10708000ECFF204438BD30B58BB000238DF82430A0
:10709000012A98BF0A2209AC0D46B1FBF2F101FBAF
:1070A000125303F0FF03092B94BF30333733DBB2A5
:1070B000AA4204F8013DEFD92146FFF7B5FF0BB016
:1070C00030BD2DE9F04186B000AF05460E46381DB3
:1070D000142114463B60FFF719F813280ED8391D08
:1070E0002846FFF7A1FF04461EB12846FFF7B5FF6B
:1070F000044420461837BD46BDE8F08100F108037E
:1071000023F00703E846ADEB030D2246411C3B6824
:107110006846FEF7FBFF69462846FFF785FF0446F1
:10712000C546E1E7024800230360FEF77FBE00BFCB
:1071300010E7032010B504460068FEF7CFFF204695
:1071400010BD10B50446006808B1FEF7C7FF002364
:10715000C4E90133236010BD38B504460D4600680C
:107160000131FEF7C3FF10B1C4E90005012038BDAD
:1071700010B50368044623B143688B4201D3012054
:1071800010BD2046FFF7E8FF0028F9D0A368002BC8
:10719000F5D122681370F2E737B50D46114601921A
:1071A0000446FFF7E5FF019A28B92046FFF7C9FF1B
:1071B000204603B030BDA2602946206800F0D8FF09
:1071C0002268A3680021D154F2E7002313B5C0E977
:1071D000003304468360037341B10846019101F016
:1071E00026F8019902462046FFF7D6FF204602B056
:1071F00010BD38B5054600680C4668B16A688B68F2
:107200009A4207D3096800F0EDFFA368AB60002342
:10721000A36038BDFEF762FF23682B6063686B6074
:10722000A368AB600023C4E90033F1E7884210B5DE
:10723000044601D0FFF7DDFF204610BD70B50546BE
:107240000E4609B9002070BD6AB184681444214615
:10725000FFF78EFF0028F5D02868AB683146184448
:1072600000F0C0FFAC600120EDE707B500238DF80A
:107270000410012201A98DF80530FFF7DFFF03B0EC
:107280005DF804FB10B50446006818B1FEF726FF50
:107290000023236010BD38B5B1F9043083800B465C
:1072A0000D4653F8062FC0F806209B8843810446FC
:1072B000FFF7E8FF2B6813B1236000232B60204603
:1072C00038BD000038B50C460546FFF7DBFF44B17A
:1072D0002088FEF7FBFE286028B12288214600F0B6
:1072E00047FF002038BD0148FCE700BFFCFEFFFF60
:1072F00007B50B4600210246009101208C21FEF7C4
:10730000DBFE03B05DF804FB01460020FFF7F0BF91
:107310000020FFF7F9BF0000F0B52D4D0B7D0446AE
:107320008BB00846AF1D002B38D00B681B79002BA3
:1073300034D00022274B049302A904300292ADF806
:107340000C208DF80E20FEF7ADFEDDF80E30C5F8EE
:10735000063000B2BDF81230ADF80C00A8800299DA
:10736000BB802846FFF7AEFF02A8FFF78BFF002384
:107370002360A380A37123814FF6FF736381B5F966
:107380000430A3803B68C4F80630BB882968638159
:107390002046FFF797FF20460BB0F0BD00262023C4
:1073A000CDE902360C4B00930C49334602AA322039
:1073B000FEF7BCFD074B049302A94FF6F2630448A5
:1073C00002968DF80E60ADF80C30FFF764FFCBE746
:1073D00014E703200000FFFFA38A0D009C8A0D0024
:1073E000054B02221A60054B054A9A60002018607E
:1073F00098809871FEF722BE20E7032014E703204F
:107400000000FFFF002240681146FEF7EFBD00229A
:1074100040681146FEF7FABD40680022FEF7EEBD57
:107420004068002281F00101FEF7D8BD00234068CA
:107430001A461946FEF7CABD002340681A46194687
:10744000FEF7BCBD002240681146FEF7AFBD00222A
:1074500040681146FEF79ABD406800220221FEF7FF
:107460009DBD002340681A46FEF788BD024B0322EB
:107470005A60024A1A60704724E70320D48A0D003C
:107480007047000038B500232025438014230446AC
:107490000380856005610649284600F0B2F804497A
:1074A0006060284600F0ADF8E060204638BD00BFBF
:1074B000088B0D0030B50E4D2978BFF35B8F11F0AE
:1074C000010487B011D12846FCF7EBFD68B101A893
:1074D000FFF7D8FF01AA21460648FFF70FF8284614
:1074E000FCF7E4FD044800F03DFE024807B030BD63
:1074F0002CE7032030E7032081740D00232813B507
:1075000002D9002002B010BDA0F10B03022B1AD843
:10751000174C2178BFF35B8F11F001010BD120468E
:107520000191FCF7BEFD019928B11248FEF712FF48
:107530002046FCF7BBFD0F4B1878FEF7FFFB002839
:10754000DFD10120DEE7012809D8FFF7B3FF0021D2
:10755000007CFEF7CBFB80F00100C0B2D2E7093817
:107560000128EED8FFF75EF8007CFEF73FFCF2E75B
:1075700048E703204CE70320232838B504460D468E
:107580000AD8FF2908D0FFF7B9FF28B129462046BD
:10759000BDE83840FEF76ABC38BD38B504460D4634
:1075A000FEF76CFCFF2810D0062804D84D2323FAE0
:1075B00000F0C30709D42046FFF7A0FF28B12946F1
:1075C0002046BDE83840FEF761BC38BD0D2810B537
:1075D00004469CBF0E34A4B22046FFF78FFF50B183
:1075E00003212046FEF73AFC032804D12046BDE8DB
:1075F0001040FEF753BC002010BDFCF750BDFCF757
:107600004ABDFCF74ABD08B5FEF788FD10B52DED63
:10761000028B8AB0B0EE408A00F07AF8374B93F9CB
:107620000040631C33D0B4EE488AF1EE10FA2ED637
:10763000B5EEC08AF1EE10FA29DC314B019318EE59
:10764000100A0023089300F0D3FACDE90401CDE934
:10765000020104B32B4BB5EE408A0022F1EE10FA82
:10766000CDE9062341D102239C42009337D1FEF796
:1076700065FD22230360089B2BB3FEF75FFD089B8B
:107680000360DDE9060100F01DFD00EE100A0AB0FE
:10769000BDEC028B10BD1C4BB5EE408A4FF0604232
:1076A000F1EE10FACDE9062317D0012300936846C6
:1076B00000F02EF9E8B1154800F02EF98DED060B1B
:1076C000089B002BD9D1DDE9060100F0FBFC00EEA0
:1076D000100A0AB0BDEC028B10BD0223009368466D
:1076E00000F016F90028EBD1C1E70123022C00932A
:1076F000DDD1FEF723FD21230360DCE78CD70320D7
:107700000C8B0D000000F0FFFFFFEFC7108B0D008A
:1077100010EE103A33F000422DD0002B32DBB3F1E3
:10772000FF4F3FDAB3F5000F30B432DB0025684875
:10773000684CC3F31601084400F40002DB1582F024
:107740007E527F3B0A432B4400EE102A01F10F05C5
:10775000F7EE007A2C4030EE670A03EBD05324BBDF
:10776000B5EE400AF1EE10FA61D1002B40F09380A3
:107770009FED590A59E09FED597ADFED577A87EE70
:10778000270A704770EE407A9FED537A87EE870A9A
:107790007047DFED537A60EE277A6FF0180517EE29
:1077A000903AC4E730EE000A7047B0EE007A30EE4F
:1077B000077A9FED4C3ADFED4C4ADFED4C5ADFED96
:1077C0004C3A9FED4C5ADFED4C7ADFED4C6A4C4859
:1077D00080EE074AC1F55712084402F522720243AF
:1077E000002A07EE103A24EE046AF8EEC72A26EEC5
:1077F000067AE7EE034AA7EE235AE4EE875AE5EE4F
:10780000076AE5EE877A67EE867AE6EE877A2BDD01
:10781000B6EE007A20EE077A27EE007A53BB77EEB9
:10782000877AA7EEC47A30EE470A30BC7047DFEDA6
:10783000357AB6EE007AA0EE677AF0EE477A20EE5F
:10784000007A27EE277A002BEDD007EE903A9FEDD5
:107850002E6ADFED2E6AF8EEE77AA7EEC67A37EEEB
:10786000400A97EEA60AE0E713BB70EE677AA7EE30
:10787000C40ADAE7DFED246A9FED246A77EE877A9F
:1078800062EEA66AE7EE846A37EE667A37EE400A61
:1078900092EE860AC9E707EE903A9FED1B0A9FED2C
:1078A0001B7AF8EEE77A27EE800AA7EE870ABCE794
:1078B0009FED157ADFED156A70EE677A27EE627A32
:1078C000A7EE847A37EE400A92EEA60AADE700BF33
:1078D00020FB4A00F0FF7F0000000000000000CC09
:1078E0000000004C9788173E25333A3E2549923ECA
:1078F0004FD01C3E298E633EABAA2A3FCDCCCC3E56
:10790000305CCFFFABAAAA3ED1F717378071313F69
:1079100000207047000000009FED010B704700BF82
:10792000000000000000F87F81F0004102E000BF8D
:1079300083F0004330B54FEA41044FEA430594EA2F
:10794000050F08BF90EA020F1FBF54EA000C55EA6A
:10795000020C7FEA645C7FEA655C00F0E2804FEA3B
:107960005454D4EB5555B8BF6D420CDD2C4480EA1D
:10797000020281EA030382EA000083EA010180EA4D
:10798000020281EA0303362D88BF30BD11F0004F9B
:107990004FEA01314FF4801C4CEA113102D04042D1
:1079A00061EB410113F0004F4FEA03334CEA13330C
:1079B00002D0524263EB430394EA050F00F0A78024
:1079C000A4F10104D5F1200E0DDB02FA0EFC22FA1F
:1079D00005F2801841F1000103FA0EF2801843FA13
:1079E00005F359410EE0A5F120050EF1200E012A04
:1079F00003FA0EFC28BF4CF0020C43FA05F3C01842
:107A000051EBE37101F0004507D54FF0000EDCF1BA
:107A1000000C7EEB00006EEB0101B1F5801F1BD363
:107A2000B1F5001F0CD349085FEA30004FEA3C0C67
:107A300004F101044FEA445212F5800F80F09A805D
:107A4000BCF1004F08BF5FEA500C50F1000041EB61
:107A5000045141EA050130BD5FEA4C0C404141EB65
:107A60000101013C28BFB1F5801FE9D291F0000F60
:107A700004BF01460020B1FA81F308BF2033A3F10F
:107A80000B03B3F120020CDA0C3208DD02F1140C06
:107A9000C2F10C0201FA0CF021FA02F10CE002F141
:107AA0001402D8BFC2F1200C01FA02F120FA0CFC3A
:107AB000DCBF41EA0C019040E41AA2BF01EB045183
:107AC000294330BD6FEA04041F3C1CDA0C340EDC81
:107AD00004F11404C4F1200220FA04F001FA02F3C4
:107AE00040EA030021FA04F345EA030130BDC4F182
:107AF0000C04C4F1200220FA02F001FA04F340EA77
:107B00000300294630BD21FA04F0294630BD94F027
:107B1000000F83F4801306BF81F480110134013D0E
:107B20004EE77FEA645C18BF7FEA655C29D094EA7F
:107B3000050F08BF90EA020F05D054EA000C04BFFD
:107B40001946104630BD91EA030F1EBF00210020E8
:107B500030BD5FEA545C05D14000494128BF41F087
:107B6000004130BD14F580043CBF01F5801130BDEB
:107B700001F0004545F0FE4141F470014FF0000076
:107B800030BD7FEA645C1ABF194610467FEA655C27
:107B90001CBF0B46024650EA013406BF52EA0335C9
:107BA00091EA030F41F4002130BD00BF90F0000FB7
:107BB00004BF0021704730B54FF4806404F13204F3
:107BC0004FF000054FF0000150E700BF90F0000FAC
:107BD00004BF0021704730B54FF4806404F13204D3
:107BE00010F0004548BF40424FF000013EE700BFA3
:107BF00042004FEAE2014FEA31014FEA02701FBF33
:107C000012F07F4393F07F4F81F06051704732F064
:107C10007F4208BF704793F07F4F04BF41F40021BB
:107C2000704730B54FF4607401F0004521F0004119
:107C30001CE700BF50EA010208BF704730B54FF0A3
:107C400000050AE050EA010208BF704730B511F0A4
:107C5000004502D5404261EB41014FF4806404F1DC
:107C600032045FEA915C3FF4D8AE4FF003025FEA62
:107C7000DC0C18BF03325FEADC0C18BF033202EBE6
:107C8000DC02C2F1200300FA03FC20FA02F001FA40
:107C900003FE40EA0E0021FA02F11444BDE600BFE3
:107CA00070B54FF0FF0C4CF4E06C1CEA11541DBF92
:107CB0001CEA135594EA0C0F95EA0C0F00F0DEF85D
:107CC0002C4481EA030621EA4C5123EA4C5350EA42
:107CD000013518BF52EA033541F4801143F4801393
:107CE00038D0A0FB02CE4FF00005E1FB02E506F024
:107CF0000042E0FB03E54FF00006E1FB03569CF079
:107D0000000F18BF4EF0010EA4F1FF04B6F5007F7E
:107D100064F5407404D25FEA4E0E6D4146EB0606F0
:107D200042EAC62141EA55514FEAC52040EA5E5079
:107D30004FEACE2EB4F1FD0C88BFBCF5E06F1ED823
:107D4000BEF1004F08BF5FEA500E50F1000041EB5A
:107D5000045170BD06F0004646EA010140EA020007
:107D600081EA0301B4EB5C04C2BFD4EB0C0541EA29
:107D7000045170BD41F480114FF0000E013C00F33E
:107D8000AB8014F1360FDEBF002001F0004170BD62
:107D9000C4F10004203C35DA0C341BDC04F114047B
:107DA000C4F1200500FA05F320FA04F001FA05F207
:107DB00040EA020001F0004221F0004110EBD370D4
:107DC00021FA04F642EB06015EEA430E08BF20EA00
:107DD000D37070BDC4F10C04C4F1200500FA04F3A3
:107DE00020FA05F001FA04F240EA020001F0004135
:107DF00010EBD37041F100015EEA430E08BF20EAA8
:107E0000D37070BDC4F1200500FA05F24EEA020EEF
:107E100020FA04F301FA05F243EA020321FA04F01E
:107E200001F0004121FA04F220EA020000EBD370D5
:107E30005EEA430E08BF20EAD37070BD94F0000FD5
:107E40000FD101F00046400041EB010111F4801F09
:107E500008BF013CF7D041EA060195F0000F18BFBA
:107E6000704703F00046520043EB030313F4801FF6
:107E700008BF013DF7D043EA0603704794EA0C0FB0
:107E80000CEA135518BF95EA0C0F0CD050EA4106C6
:107E900018BF52EA4306D1D181EA030101F0004143
:107EA0004FF0000070BD50EA410606BF104619466B
:107EB00052EA430619D094EA0C0F02D150EA013677
:107EC00013D195EA0C0F05D152EA03361CBF1046B8
:107ED00019460AD181EA030101F0004141F0FE4157
:107EE00041F470014FF0000070BD41F0FE4141F4DB
:107EF000780170BD70B54FF0FF0C4CF4E06C1CEADB
:107F000011541DBF1CEA135594EA0C0F95EA0C0F8F
:107F100000F0A7F8A4EB050481EA030E52EA03354A
:107F20004FEA013100F088804FEA03334FF080556B
:107F300045EA131343EA12634FEA022245EA111598
:107F400045EA10654FEA00260EF000419D4208BF49
:107F5000964244F1FD0404F5407402D25B084FEAF6
:107F60003202B61A65EB03055B084FEA32024FF4A2
:107F700080104FF4002CB6EB020E75EB030E22BFFF
:107F8000B61A754640EA0C005B084FEA3202B6EBBF
:107F9000020E75EB030E22BFB61A754640EA5C006E
:107FA0005B084FEA3202B6EB020E75EB030E22BFFE
:107FB000B61A754640EA9C005B084FEA3202B6EBFF
:107FC000020E75EB030E22BFB61A754640EADC00BE
:107FD00055EA060E18D04FEA051545EA16754FEA20
:107FE00006164FEAC30343EA52734FEAC2025FEA3E
:107FF0001C1CC0D111F4801F0BD141EA00014FF0CD
:1080000000004FF0004CB6E711F4801F04BF01439D
:108010000020B4F1FD0C88BFBCF5E06F3FF6AFAEB9
:10802000B5EB030C04BFB6EB020C5FEA500C50F149
:10803000000041EB045170BD0EF0004E4EEA1131CC
:1080400014EB5C04C2BFD4EB0C0541EA045170BDD3
:1080500041F480114FF0000E013C90E645EA060E17
:108060008DE60CEA135594EA0C0F08BF95EA0C0F45
:108070003FF43BAF94EA0C0F0AD150EA01347FF48D
:1080800034AF95EA0C0F7FF425AF104619462CE764
:1080900095EA0C0F06D152EA03353FF4FDAE1046C7
:1080A000194622E750EA410618BF52EA43067FF418
:1080B000C5AE50EA41047FF40DAF52EA43057FF4A8
:1080C000EBAE12E74FEA4102B2F1E04324BFB3F551
:1080D000001CDCF1FE5C0DD901F0004C4FEAC0023F
:1080E0004CEA5070B2F1004F40EB830008BF20F023
:1080F0000100704711F0804F21D113F13872BCBFDD
:1081000001F00040704741F480114FEA5252C2F131
:108110001802C2F1200C10FA0CF320FA02F018BF7A
:1081200040F001004FEAC1234FEAD32303FA0CFCCD
:1081300040EA0C0023FA02F34FEA4303CCE77FEA5C
:10814000625307D150EA01331EBF4FF0FE4040F4A6
:108150004000704701F0004040F0FE4040F4000055
:10816000704700BF002301461A46184600F068B861
:108170000A44914200F1FF3300D1704710B511F865
:10818000014B03F8014F9142F9D110BD024403465F
:10819000934200D1704703F8011BF9E738B50D4B46
:1081A0001D68AB6B04467BB91820FDF78FFF0A4AA8
:1081B0000A4BA863C0E90023094B83600B2383812A
:1081C00001220023C0E90423AB6B00221C615A6129
:1081D00038BD00BF90D703200E33CDAB34126DE60F
:1081E000ECDE0500034611F8012B03F8012B002AF1
:1081F000F9D17047024B0146186800F003B800BF80
:1082000090D7032037B5044608460D4600F00FF816
:10821000421C114620460192FDF788FF044618B122
:10822000019A2946FFF7A4FF204603B030BD03465C
:1082300013F8012B002AFBD1181A013870470000EF
:108240002DE9F843DFF8B8800646D8F800001F464D
:108250000D46914600F056F8254B1C6834B9254C64
:108260001C60254B13B11B68C4F8883063681F2B52
:1082700007DDD8F8000000F047F84FF0FF30BDE808
:10828000F8834EB3D4F8880088B91C4B23B9D8F8CA
:10829000000000F038F8F0E74FF48470FDF716FFA7
:1082A0000028F4D00023C0E94033C4F88800636894
:1082B00040F8239001229A4000EB8301D0F800316E
:1082C0001343022EC0F80031C1F8807002BFD0F80D
:1082D00004311A43C0F804216368D8F800005A1C1E
:1082E0000233626044F8235000F00EF80020C6E725
:1082F000E0E7032054E7032000000000CD600D00FC
:10830000F4D70320704770477047000021400D00EC
:108310005D400D0085400D0089400D00000000000B
:1083200054696D653A20253032693A253032693A10
:10833000253032693A253033690A00446174657327
:108340003A20253032692D253032692D25303269A9
:108350000A004669783A2025692C205175616C69BC
:1083600074793A2025690041542B53454E443D25EC
:10837000692C36302C25662C25662C25690D0A00C3
:1083800053656E64207265706C793A2025730A001B
:108390005374617274696E67205363616E3A200A88
:1083A0002D2D2D2D2D2D2D2D2D2D2D2D2D2D200A2D
:1083B000004932432064657669636520666F756E97
:1083C0006420617420616464726573732030782561
:1083D000303278200A00556E6B6E6F776E206572B2
:1083E000726F7220617420616464726573732030EF
:1083F0007825303278200A004E6F204932432064BD
:1084000065766963657320666F756E640A002D2D4D
:108410002D2D2D2D2D2D2D2D2D2D2D2D200A536360
:10842000616E20436F6D706C657465210A00746520
:108430006D70433A2025662074656D70463A20259C
:108440006620636F756E7465723A202569206465D5
:108450007669636549443A2025730A00766F6C7427
:108460006167653A2025660A0041542B4D4F44450B
:108470003D300D0A004177616974696E672052656D
:10848000706C792066726F6D2072657961784F6EBD
:1084900028290A005265706C793A2025730A004138
:1084A000542B4D4F44453F0D0A0041776169746973
:1084B0006E67205265706C792066726F6D206D6FEB
:1084C00064653F0A0041542B4D4F44453D310D0A30
:1084D00000506F776572696E6720646F776E2E2E1D
:1084E0002E0A0073656E64207265706C793A2025DF
:1084F000730A0073656E64446174612829004154F5
:108500002B53454E443D25692C25692C25302E32B0
:10851000662C25302E32662C25690D0A00637265A3
:108520006174654275666665723A202573006372F0
:108530006561746542756666657228290041540D4F
:108540000A00617454657374207265706C793A2006
:1085500025730A0061745465737428290061744D91
:108560006F6465207265706C793A2025732072659E
:10857000706C79323A2025730A0061744D6F64651E
:108580002829004177616974696E67205265706CB3
:10859000790A005265706C792041542B4D4F444547
:1085A0003F3A2025730A0041542B4D4F44453F006C
:1085B00041542B4950523D25690D0A007365744999
:1085C00050520041542B4950523F0D0A00526570E1
:1085D0006C792041542B4950523F3A2025730A00B0
:1085E00041542B4950523F0041542B504152414D70
:1085F000455445523D31322C372C312C370D0A0071
:10860000736574526164696F0041542B504152414B
:108610004D455445523F0D0A005265706C7920411A
:10862000542B504152414D455445523F3A202573F9
:108630000A00736574506172616D657465723F0004
:1086400041542B42414E443D393135303030303089
:10865000300D0A0041542B42414E443D38363835E6
:1086600030303030300D0A0073657442616E640042
:1086700041542B42414E443F0D0A005265706C79C3
:108680002041542B42414E443F3A2025730A004179
:10869000542B42414E443F0041542B4144445245E7
:1086A00053533D25690D0A00736574416464726516
:1086B00073730041542B414444524553533F0D0AB8
:1086C000005265706C79206765742061646472651E
:1086D00073733A2025730A0041542B414444524598
:1086E00053533F0041542B4E4554574F524B49442E
:1086F0003D25690D0A0041542B4E4554574F524BAE
:1087000049443F0D0A005265706C792041542B4E4C
:108710004554574F524B49443F2025730A0041545A
:108720002B4E4554574F524B49443F004241343140
:1087300030343033323936384241313131343239E4
:108740003930373930323135393441410041542BD9
:108750004350494E3D25730D0A00736574435049DB
:108760004E0041542B4350494E3F0D0A0052657054
:108770006C79204350494E3A2025730A0041542B0E
:108780004350494E3F0041542B4352464F503D25E4
:10879000690D0A0041542B4352464F500041542B5F
:1087A0004352464F503F0D0A005265706C7920418C
:1087B000542B4352464F503F3A2025730A004154F0
:1087C0002B4352464F503F004770732073746174BF
:1087D00075732069732025690A0024504D544B336A
:1087E00031342C302C312C302C312C302C302C309E
:1087F0002C302C302C302C302C302C302C302C3099
:108800002C302C302C302C302A32380024504D544F
:108810004B3232302C313030302A31460024504730
:10882000434D442C33332C312A36430049490057F9
:108830004900475000504700474E005A5A5A0064BA
:10884000656661756C7420004D5342004C534200C4
:108850003C53504953657474696E67732064656650
:1088600061756C743E003C53504953657474696E75
:1088700067732025732575202573204D4F444525AA
:10888000753E0047474100474C4C0047534100525A
:108890004D43004442540048444D00484454004D68
:1088A0004441004D5457004D575600524D4200541C
:1088B0004F50005458540056485700564C570056D5
:1088C00050570056575200574356005854450041E0
:1088D0005042004450540047535600484447004D0E
:1088E000574400524F540052504D005253410056CD
:1088F000445200565447005A444100000000000012
:108900000000000045530D0065520D0067520D0038
:108910002C880D002F880D0032880D0035880D0041
:1089200038880D0033880D003B880D0000000000E2
:108930000000000075520D0095520D00AB520D0065
:10894000FD6F0D0000000000000000006F610D00D1
:1089500079610D0083610D008D610D0097610D003F
:10896000A3610D00AF610D00B7610D00BF610D0087
:10897000CB610D00D3610D00DD610D00E7610D00DD
:1089800000000000000000002B630D0021630D00BB
:1089900017630D00CD620D000B630D00FF620D002B
:1089A000AF610D00B7610D00F3620D00EB620D00C9
:1089B000E1620D00D7620D00E7610D00000810189C
:1089C000202830380000000000000000A5640D00E1
:1089D000EF640D00C7640D00A7640D00CF640D00A7
:1089E000D7640D00DF640D00E7640D000000000097
:1089F000000000006B650D00D9650D00B1650D002C
:108A0000FD6F0D0081650D009D650D008F650D00EA
:108A1000AB650D006D650D0073650D000000000075
:108A20000000000085660D00ED660D00C3660D00B8
:108A3000FD6F0D00B5660D0087660D0097660D0091
:108A4000E7660D00A7660D007F660D0000000000C0
:108A50000000000099670D0089670D008B670D000D
:108A600000000000000000006B680D0071680D0040
:108A7000AF680D007F680D006D680D0025592D252C
:108A80006D2D25645425483A254D3A2553257A0005
:108A900061736374696D65006170700077697269F4
:108AA0006E670053797374656D20736C6565702013
:108AB000636F6E66696775726174696F6E20697342
:108AC00020696E76616C69642E0000000000000071
:108AD0000000000063740D0059740D004F740D0008
:108AE00045740D0039740D002D740D00AF610D003B
:108AF000B7610D0021740D0019740D000F740D0085
:108B000005740D00E7610D00000000006C6F6766E2
:108B10000000000005520D00B9620D0035630D0024
:108B2000656F0D00796F0D008D6F0D0025710D00C3
:108B3000E1730D006D740D000000000000000000E6
:048B40000000000031
:108B44002A00000000C20100370000001E000000DF
:108B5400060000000F0000000600000017000000DF
:108B6400575020434F4700446570746800575020A5
:108B74004C6174005750204C6F6E005069746368E8
:108B84000052504D00575020564D47005750204436
:108B94006973740025362E3066004D6F746F722031
:108BA40031004D6F746F7220320025362E3066000E
:108BB40025362E3266002520524800446567204D34
:108BC40061670025362E3166005061004465677286
:108BD4006565730025362E31660048756D696469D4
:108BE40074790044656720547275650025362E3209
:108BF40066004261726F6D6574657200416D7073D9
:108C04000025362E306600566F6C7473004D6F74F9
:108C14006F722031004D6F746F722032006B50619F
:108C2400004D6F746F722031004D6F746F7220327B
:108C3400004F696C2031004F696C20320025362EBC
:108C440030660025362E31660044656720430044B3
:108C5400656720430054656D7020310054656D7064
:108C64002032004E554C004169720025362E316683
:108C74000044656720430057617465720025392EEE
:108C840034660025362E30660025362E32660044C2
:108C940044442E646464640025362E3266004E4DCE
:108CA400004E4D00415741004157530025362E30A8
:108CB4006600434F470025362E316600484447007E
:108CC400484447004465672053746264004C6174EF
:108CD400004C6F67004C6F6E00534F470054574170
:108CE400005457440054575300564D4700565457A8
:108CF40000585445006D0048444F50004865656C69
:108D040000547269700044656720426F7720557083
:108D14000025362E3066006B6E6F74730000000001
:108D2400908A0D000100000094D703200000000089
:108D3400000000000000000000000000000000002F
:108D4400000000000000000000000000000000001F
:108D5400000000000000000000000000000000000F
:108D640000000000000000000000000000000000FF
:108D740000000000000000000000000000000000EF
:108D8400000000000000000000000000E5E70320F0
:108D9400FFFFFFFF00000102030405060708090A9C
:108DA4000B0C0D0E0F101112131415161718191A97
:088DB4001B1C1D1E1F202800DE
:048DBC00785634129F
:04000003D0004020C9
:00000001FF
