:02000002B0004C
:1040000000400B00E46D0B00000006000C000502F0
:084010000401810C0000000016
:0440180040680B00F1
:10401C0009480A49884208B505D0094A824202D0AB
:10402C00121A02F00DFB0748074A0021121A02F07F
:10403C0015FB014808BD00BFA0E40320046D0B0074
:10404C0058E5032058E50320EDE7032070B5074E33
:10405C00074C01F0A3FBA41BA4080025AC4200D123
:10406C0070BD56F8043B98470135F7E7DC6C0B0044
:10407C00006D0B0000F0ACB808B500F0D7F8BDE847
:10408C00084001F043BB00F045BD00F043BD00F01B
:10409C0049BD0078B0FA80F04009704701230370E5
:1040AC0070470EB403B503AB002153F8042B0193F6
:1040BC0001F021FC02B05DF804EB03B07047000086
:1040CC0030B5204C204985B0204601F050F91E49EE
:1040DC000546204601F04BF901F0E0FF1B4B1C4C50
:1040EC00002202F06FF902F055FA01F0E9FFCDE978
:1040FC000201284601F0D2FF144B002202F062F9B3
:10410C0002F048FA01F0DCFF124ACDE900018021EF
:10411C00204600F00FFD01F023FA802322460E49C1
:10412C00FFF7BFFF22460D4C0D490E4800F0F7FA81
:10413C002178072001F033FD237883F001032370ED
:10414C0005B030BD803801001098020000408F404F
:10415C005CE5032054680B006A680B00A0E40320A4
:10416C008C680B00DCE50320F8B5134D134E144F8F
:10417C00114800F0B4F90446E0B901F0F1F9314608
:10418C0001F091FB0F4923463A46284600F086FA87
:10419C0030B101F0E5F9BDE8F8400B4901F083BB03
:1041AC0001F0DEF9094901F07EFB40F6B83001F070
:1041BC002DFBDDE7F8BD00BFDCE50320A4680B0098
:1041CC00E0680B00F5680B00FB680B0015690B0031
:1041DC0010B501F0C5F94FF4165101F0B5F90D4CBD
:1041EC000121072001F0CAFC0B490C4840F25B721C
:1041FC0000F0A6FAFFF7B8FF094B0A4A80212046C7
:10420C0000F098FC01F0ACF9074980232246FFF737
:10421C0048FF10BD5CE50320A1E40320DCE503208E
:10422C00B3E403204B690B006A680B0010B50A4815
:10423C0000F055F908B9FFF797FF084C00F09EFB0A
:10424C002368C01A41F28833984204D9FFF738FF2B
:10425C0000F094FB206010BDDCE5032058E5032042
:10426C0008B50549084601F059F8BDE8084002496F
:10427C00024800F015B800BF9CE60320DCE50320E3
:10428C0070B50446054B44F8043B0D1D06460FCD96
:10429C000FC42B682370304670BD00BFE86A0B005A
:1042AC0038B5044698300D4601F0BAF94FF0FF339B
:1042BC00C4F8BC3000232560C4F8B830204638BDA3
:1042CC002DE9F04105460E4600F058FB43F69728C1
:1042DC000746286803681B699847044630B900F004
:1042EC004DFBC31B4345F4D9204605E02868036801
:1042FC005B69984730700120BDE8F08138B51588AE
:10430C0029441446FFF7DCFF08B10135258038BD80
:10431C002DE9F743051D884600270DF106022946B5
:10432C000446ADF80670FFF7E9FF18B9002003B09A
:10433C00BDE8F08394F804908DF8057001260DF11A
:10434C0005012046FFF7BCFF0028EFD0BDF8062082
:10435C009DF80510531C22449BB2117101F07F0291
:10436C0012FB06F217440A06ADF80630BFB24FEA4C
:10437C00C616E4D409F0F009013BB9F1300F88F806
:10438C0000301ED10DF1060229462046FFF7B6FF7C
:10439C000028CBD00DF1060229462046FFF7AEFFD0
:1043AC000028C3D098F8003023445A799E79237999
:1043BC0006EB02269B07B6B201D50236B6B2022531
:1043CC0001E000252E46ADB2BD4226D20DF105010D
:1043DC002046FFF775FF0028A8D0D4F8B80078B1B4
:1043EC00B9F1300F0CD1BDF8063098F800209B1AAB
:1043FC00023BB34204DD03689DF805109B689847A7
:10440C00BDF806307F2B9EBFE2189DF80510117188
:10441C000133ADF806300135D5E7D4F8B8302BB9F7
:10442C00BDF80620802A88BFADF80630BDF806001E
:10443C007DE72DE9F34115461E461A460746002333
:10444C00964602A802F07F0CBEF17F0F03F1010427
:10445C00034488BF4CF0800CBEF17F0F4FEAD212A0
:10446C00E4B203F804CC20D8C4F10403C4F1050071
:10447C00E954224601A9284405EB030802F0E0F8B0
:10448C0038680368721C2244DB684146984705462D
:10449C0000F074FA621CC7F888003244A8B2131AF0
:1044AC005842584102B0BDE8F0812346C8E70233B8
:1044BC00F0B501399CB200235E1C14FA83F08F5DB9
:1044CC009DB280B217B117543346F5E799B2411A31
:1044DC000A44290A02F8021C02F8013CF0BD38B566
:1044EC000446006808B9002038BD03681B6B984768
:1044FC0080B9D4F8BC50002DF5D120686FF00203C0
:10450C00C4F8BC300368DB69984720680368DB6A31
:10451C009847E8E70120E7E72DE9F04F8BB0044618
:10452C00DDF85080894617461E46FFF7D8FF054632
:10453C00002840F0A580D4F800A0D4F8B010DAF828
:10454C000030002979D0B4F8B420D3F824B0034655
:10455C005046D847012840F09A804F4BA4F884006D
:10456C009A88ADF814201868BDF814209B79049033
:10457C008DF81630C4F80900A4F80D20E373B8F1D7
:10458C00000F66D09DF858309DF854205B0143EA2B
:10459C00C20343F00603DBB21FB1002E5BD143F024
:1045AC0080032374002363740F23221DA3744946D4
:1045BC0020460192FFF77BFF019A0346B8F1000FEA
:1045CC000BD041462046FFF772FF019A179903461C
:1045DC002046FFF76CFF019A03466FB1394620461F
:1045EC000192FFF764FF019A03462EB13146204633
:1045FC00FFF75DFF019A0346053B9BB21021204655
:10460C00FFF717FF00F0BAF9C4E9220043F697262A
:10461C00206803681B69984700BB00F0AFF9D4F819
:10462C008C30C01AB042F3D96FF00303C4F8BC301D
:10463C0020680368DB6A984722E004F1980104A81B
:10464C00D3F820B0FFF71CFEB4F8B4202B4604A915
:10465C007EE70223A0E743F0C003A2E70DF10F01B0
:10466C002046FFF755FE0428E2D1E67966B900F042
:10467C0085F90125C4F88C0084F89060C4F8BC60FE
:10468C0028460BB0BDE8F08FC4F8BC60D0E76FF0E3
:10469C000103C4F8BC30F3E74E690B001FB50024CE
:1046AC00CDE90244CDE90044FFF736FF04B010BD5C
:1046BC002DE9F34104469DF82070884616461D46A8
:1046CC00FFF70DFF38B3404602F046F8EB1D1844D7
:1046DC00802820D8221D0523414620460192FFF751
:1046EC00E6FE019A0023C1189D4289B207D92144E4
:1046FC0016F803C081F804C001339BB2F3E74B1FDB
:10470C00002F9BB20CBF30213121204602B0BDE8F6
:10471C00F041FFF78EBE002002B0BDE8F0811FB55E
:10472C00044610460391029202F016F8034600204C
:10473C000090DDE902212046FFF7BAFF04B010BD5E
:10474C00C0F8B010A0F8B4207047000008B5024BB8
:10475C001B681B68019308BD4C02030008B5024B93
:10476C001B685B68019308BD4C02030008B5024B43
:10477C001B681B69019308BD4C02030008B5024B72
:10478C001B685B69019308BD4C02030008B5024B22
:10479C001B689B69019308BD4C02030008B5024BD2
:1047AC001B68DB69019308BD4C02030008B5024B82
:1047BC001B681B6A019308BD4C02030008B5024B31
:1047CC001B681B6A019308BD2802030008B5024B45
:1047DC001B685B6A019308BD2802030008B5024BF5
:1047EC001B689B6A019308BD2802030008B5024BA5
:1047FC001B68DB6A019308BD2802030008B5024B55
:10480C001B681B6B019308BD2802030008B5024B03
:10481C001B685B6B019308BD2802030008B5024BB3
:10482C001B681B6C019308BD2802030008B5024BE2
:10483C001B68DB69019308BD3002030008B5024B0D
:10484C001B681B6A019308BD3002030008B5024BBC
:10485C001B689B69019308BD3802030008B5024B25
:10486C001B68DB69019308BD3802030008B5024BD5
:10487C001B681B6A019308BD3802030008B5024B84
:10488C001B689B6A019308BD3802030008B5024BF4
:10489C001B681B6B019308BD3802030008B5024B63
:1048AC001B689B6B019308BD3802030008B5024BD3
:1048BC001B68DB68019308BD3C02030008B5024B82
:1048CC001B681B69019308BD3C02030008B5024B31
:1048DC001B685B69019308BD3C02030008B5024BE1
:1048EC001B689B69019308BD3C02030008B5024B91
:1048FC001B68DB69019308BD3C02030008B5024B41
:10490C001B681B6A019308BD3C02030008B5024BEF
:10491C001B689B6A019308BD3C02030008B5024B5F
:10492C001B681B6C019308BD3C02030008B5024BCD
:10493C001B685B69019308BD6402030008B5024B58
:10494C001B681B6A019308BD6402030008B5024B87
:10495C001B689B6A019308BD6402030008B5024BF7
:10496C001B685B6C019308BD4802030008B5024B41
:10497C001B685B68019308BD1802030008B5024B65
:10498C001B685B69019308BD1802030008B5024B54
:10499C001B685B69019308BD6C02030008B5024BF0
:1049AC001B689B68019308BD2C02030008B5024BE1
:1049BC001B68DB68019308BD2C02030008B5024B91
:1049CC001B681B69019308BD2C02030008B5024B40
:1049DC001B689B68019308BD6802030008B5024B75
:1049EC001B68DB68019308BD6802030008B5024B25
:1049FC001B681B6D019308BD6002030008B5024BD8
:104A0C001B68DB6B019308BD4402030008B5024B25
:104A1C001B685B68019308BD4002030008B5024B9C
:104A2C001B689B68019308BD4002030008B5024B4C
:104A3C001B68DB68019308BD4002030008B5024BFC
:104A4C001B681B69019308BD4002030008B5024BAB
:104A5C001B685B69019308BD4002030008B5024B5B
:104A6C001B689B69019308BD4002030008B5024B0B
:104A7C001B68DB69019308BD4002030008B5024BBB
:104A8C001B681B6A019308BD4002030008B5024B6A
:104A9C001B681B6B019308BD4002030008B5024B59
:104AAC001B685B6B019308BD4002030008B5024B09
:104ABC001B681B6C019308BD4002030008B5024B38
:104ACC001B685B6C019308BD4002030008B5024BE8
:104ADC001B685B68019308BD2002030008B5024BFC
:104AEC001B685B69019308BD2002030008B5034BEA
:104AFC001B68D3F88830019308BD00002002030026
:104B0C0008B5034B1B68D3F89430019308BD000023
:104B1C002002030008B5024B1B681B68019308BDFB
:104B2C001C02030008B5024B1B685B68019308BDAF
:104B3C001C02030008B5024B1B68DB69019308BD1E
:104B4C001C02030008B5024B1B685B6A019308BD8D
:104B5C001C02030008B5024B1B68DB6B019308BDFC
:104B6C001C02030008B5024B1B681B6C019308BDAB
:104B7C001C02030008B5024B1B685B6C019308BD5B
:104B8C001C020300002340681A46FFF73FBF406831
:104B9C0000220221FFF74ABF002240681146FFF7AE
:104BAC003DBF002240681146FFF748BF0023406814
:104BBC001A461946FFF74ABF002340681A461946A1
:104BCC00FFF74CBF40680021FFF770BF4068002121
:104BDC00FFF774BF4068002281F00101FFF746BF68
:104BEC0040680022FFF752BF002240681146FFF7D1
:104BFC0055BF002240681146FFF740BF2DE9F04336
:104C0C0095B014460D46074600F00AFD00211C2203
:104C1C000DA8009101F022FD40230C9320466B4619
:104C2C000CAA0021FFF7DAFE044600284BD10246FD
:104C3C0001216868FFF702FF02218046224668685E
:104C4C00FFF7FCFE009E81462146002E3BD000293A
:104C5C0039D17368022B03D00A2B11D0F669F4E713
:104C6C00B8F1000FFAD0716906A8043107AD00F055
:104C7C001BFD0FCD3C1D0FC42B6823704146EDE787
:104C8C00B9F1000FEAD07469102201A801F0E6FC1A
:104C9C0006238DF8143001AD04F10803183418689C
:104CAC0059682A4603C20833A3421546F7D101A915
:104CBC0006A807AD00F0C2FC0FCD3C1D0FC42B683D
:104CCC0023704946CAE70098FFF780FE384615B0B6
:104CDC00BDE8F083024B034A1A6000225A60704709
:104CEC00B8E6032060690B00002240681146FFF70C
:104CFC00A5BE002240681146FFF7C0BE00224068E6
:104D0C001146FFF7CBBE40680022FFF7BFBE4068DC
:104D1C00002281F00101FFF7A9BE002340681A466A
:104D2C001946FFF79BBE002340681A461946FFF749
:104D3C008DBE002240681146FFF770BE406800220D
:104D4C000221FFF773BE002340681A46FFF75EBED0
:104D5C00024B04225A60024A1A607047C0E60320D4
:104D6C009C690B0013B503688DF80710DC6B0122EE
:104D7C004FF0FF330DF10701A04702B010BD10B486
:104D8C000368DC6B4FF0FF33A4465DF8044B6047BF
:104D9C0013B5134602688DF80710D46B0DF107019B
:104DAC000122A04702B010BD10B54369B3F88620AC
:104DBC00B3F884309A42044608D06369B3F884206F
:104DCC00511CA3F884101344187910BD03681B6997
:104DDC0098470028F1D14FF0FF30F6E77047436950
:104DEC001868C043C00F704770470000064B9942CB
:104DFC0010B500F10C0405D0084600F0EBFE0028BD
:104E0C0008BF0024204610BD046A0B0010B5AC216D
:104E1C000446FFF73CF9204610BDAC21FFF737B92B
:104E2C002DE9F0414FF0000886B01C46C0F8048014
:104E3C0005460E4617464146102202A801F00EFC0C
:104E4C00631C09D04FF47A73B4FBF3F203FB1244E6
:104E5C00CDE902285C430494686910230093006830
:104E6C0002AB41F2050240F6FF71FFF7EFFC0028A0
:104E7C0007DAFFF76FFE03686B60002006B0BDE831
:104E8C00F0816869002300683A463146FFF7FEFC62
:104E9C00031EEEDB1846F1E738B584690A4B036054
:104EAC0005467CB16368013B63605BB923682046AF
:104EBC009B689847A368013BA3601BB923682046F5
:104ECC00DB689847284638BD146A0B0010B50446B9
:104EDC00FFF7E2FF20461C21FFF7D9F8204610BD52
:104EEC0030B587B0044601AD684600F0DDFB0FCD50
:104EFC0004340FC42B68237007B030BD70B54D69F6
:104F0C00054B04468C3544F8043B06460FCD0FC4C4
:104F1C002B682370304670BDE86A0B002DE9F04316
:104F2C009846036893B00D460024DB6A0646174684
:104F3C00984728466B46224621460094FFF74EFDC3
:104F4C000546002863D1009B002B4BD05B69002BDE
:104F5C0048D006A800F064FB009B5C696378022BC8
:104F6C0004D1211D06A8FFF7BBFF26E00A2B24D194
:104F7C001122294601A801F071FBA368002B38D03F
:104F8C0004F108030DF1040C1834186859686246D2
:104F9C0003C20833A3429446F7D1062301A90CA8F7
:104FAC008DF8143000F04AFB0DF1340CBCE80F0006
:104FBC0007AC0FC4DCF80030237006A800F050FBDF
:104FCC0080B1336807ADD3F82090124B0C930FCD02
:104FDC000DAC0FC42B6823703A4643460CA93046DF
:104FEC00C84705460098FFF7F1FC284613B0BDE80A
:104FFC00F083E368002BC3D14FF6FF70D4F8109008
:10500C00FFF79CFC8145BBD104F11401AAE72546AE
:10501C00E8E700BFE86A0B0038B543691A68002A54
:10502C00054610DAB3F88620B3F884309A420AD1D8
:10503C0003681B699847044628B92B682846DB6A25
:10504C009847204638BD0120FCE710B54369B3F8FA
:10505C008620B3F884309A42044605D06369B3F8CD
:10506C0084201344187910BD03681B6998470028E5
:10507C00F4D14FF0FF30F6E7F8B543691746B3F8B3
:10508C008620B3F884309A4205460E4616D06969DC
:10509C00B1F88430B1F88640E41ABC4228BF3C46D3
:1050AC00043322461944304601F0CAFA6A69B2F850
:1050BC0084302344A2F884302046F8BD03681B6971
:1050CC0098470028E3D14FF0FF34F5E742690023FD
:1050DC00A2F884304269A2F8863070472DE9F0417D
:1050EC001F4603680C46DB6A8AB00546164698478D
:1050FC00237DD5F81480042B0CBF02200A20062235
:10510C000121FFF7CBFBC8F800006B691B68002B73
:10511C0008DA2B682846DB6A0024984720460AB038
:10512C00BDE8F0812846FFF7D1FFB7B1002303A9F2
:10513C00F8B20393ADF81030FFF728FC0028E8D143
:10514C00686906230093006803AB41F20B0240F63A
:10515C00FF71FFF77BFB0028DBD11C22002103A889
:10516C0001F07CFA237D042B1DD14FF407733046DC
:10517C00ADF80C30FFF7EAFBADF80E006068FFF7F6
:10518C00DDFB04906B691C22186803A9FFF76EFB0A
:10519C000028BED104340FCC6D698C350FC5236843
:1051AC002B700124BAE740F61C233046ADF80C30C6
:1051BC00FFF7CCFB05AEADF80E00231D04F1140770
:1051CC0018685968324603C20833BB421646F7D1F9
:1051DC00D8E7000030B54269B2F886308BB004468F
:1051EC002BB1B2F884209A4201D1FFF76FFF6169AD
:1051FC000868002818DBB1F886507F2D14D80431CC
:10520C000823C5F180022944FFF738FB002813DD81
:10521C006369B3F886200AB9A3F884206369B3F8EC
:10522C0086201044A3F886006369B3F88600B3F8AF
:10523C008430C01A0BB030BDFFF78CFC03680B2B0D
:10524C00F2D0FFF787FC03680B2BEDD02023002551
:10525C00CDE90235FFF77EFC03680193084B094941
:10526C00009302AA2B463220FFF7C0FB6369186833
:10527C00FFF7F4FA63694FF0FF321A60D4E700BF0E
:10528C00D7690B00D0690B0010B543690446186848
:10529C00002801DBFFF7E2FA63694FF0FF321A6076
:1052AC006069112200218C3001F0D8F92046BDE84C
:1052BC001040FFF70BBF10B5002304460160C0F887
:1052CC008430883000F0ACF9204610BD73B5002353
:1052DC004FF47A72C0E901320E4A036102604361F5
:1052EC000446AC200191FEF7CEFE051E05F10C061E
:1052FC0008D00123C5E90133074B01992B603046D7
:10530C00FFF7D9FF2046C4E90565FFF7DFFE02B0C1
:10531C0070BD00BF146A0B00F0690B0010B54FF0A4
:10532C00FF310446FFF7D2FF204610BD10B50446EE
:10533C000068002801DBFFF791FA204610BD0C3005
:10534C00FFF7F4BF10B5044608462170FFF76EFA5C
:10535C0000236360204610BD10B5044628B101F04F
:10536C00B3F990FBF4F303FB1404204610BD884200
:10537C0010B5044603DA081AFFF7EEFF0444204682
:10538C0010BD7047F8B5064615460C468F18BC4242
:10539C0006D0336814F8011B9B6830469847F6E733
:1053AC002846F8BD007C0022FFF708BA007C0021DB
:1053BC00FFF70CBA007C0021FFF710BA007C00212B
:1053CC00FFF714BA007C0021FFF718BA10B51421AE
:1053DC000446FEF75CFE204610BD000010B54FF4ED
:1053EC007A73044608460021C4E90113034B236079
:1053FC0020741146FFF712FA204610BD606A0B00AC
:10540C0070474174704708B5007CFFF77FFA20EABB
:10541C00E07008BD08B5007CFFF750FA20EAE07098
:10542C0008BD08B5007CFFF759FA40EAE07008BDEA
:10543C0008B5007CFFF74AFA40EAE07008BD007C32
:10544C00FFF754BA37B5457C04462DB1207C03B028
:10545C00BDE83040FFF72ABA007C0191FFF756FAFD
:10546C0000280199F2DC284603B030BD10B5142198
:10547C000446FEF70CFE204610BD000010B54FF49C
:10548C007A730446084611460022C4E90123044BF2
:10549C002360012320746374FFF740FA204610BD8B
:1054AC00886A0B00417470477047704708B500213B
:1054BC00007CFFF76BF940EAE07008BD08B50121EC
:1054CC00007CFFF763F940EAE07008BD08B5007C8A
:1054DC00FFF754F920EAE07008BD08B5007CFFF72F
:1054EC0045F920EAE07008BD13B50446007C019133
:1054FC00FFF744F90028019901DC607C20B1207C85
:10550C00FFF74CF920EAE07002B010BD007CFFF709
:10551C004DB910B514210446FEF7B9FD204610BD57
:10552C0010B54FF47A73044608460021C4E9011300
:10553C00044B23600123207463741146FFF706F9B2
:10554C00204610BDB86A0B00007C0022FFF706B99C
:10555C0010B514220446002101F080F8204610BD3D
:10556C0010B50F4C88B003A8FFF7F2FF2178BFF3FA
:10557C005B8F11F001010FD120460191FEF789FDDF
:10558C00019948B103AA0748FFF7CAFF2046FEF766
:10559C0085FD054801F04EF8024808B010BD00BF6B
:1055AC00C8E60320CCE60320B5540B00704710B5B9
:1055BC0018210446FEF76BFD204610BDF0B5037DA7
:1055CC00062B8DB00E4600F104074FF0000412D0EC
:1055DC0000F1080515F8011D0A22304600F06DF99E
:1055EC00AF42044419D0002CF4D02E21304600F0E8
:1055FC004BF90444EEE72F236A4639460A208DF80E
:10560C000040FFF793F9684601F0A6F833680246AC
:10561C00DB68694630469847044620460DB0F0BD1D
:10562C0010B5054B0446112240F8043B002101F053
:10563C0015F8204610BD00BFE86A0B000346074A68
:10564C0010B543F8042B01F1100251F8044B43F848
:10565C00044B9142F9D10A781A7010BDE86A0B001C
:10566C00037D042B04D14068003818BF012070471B
:10567C00062B07D143683BB983682BB9C3681BB9A8
:10568C000069F1E7002070470120704710B59DF8C4
:10569C00084044EA032343EA024242EA016104233C
:1056AC004160037510BD000007B5064B0360CB7855
:1056BC0000938B784A780978FFF7E8FF03B05DF820
:1056CC0004FB00BFE86A0B00014B1860704700BF79
:1056DC00F0E4032008B50B4B43B1FFF741FF03681F
:1056EC001B699847002801DDAFF30080064B43B1DE
:1056FC0000F0E2F903681B699847002801DDAFF35D
:10570C00008008BD000000000000000008B5FFF795
:10571C00E1FFFFF733F9014B186008BD34E70320B4
:10572C000548064A064908B5121A00F089FF054BD0
:10573C00054A1A6008BD00BF00F4032004F40320DE
:10574C00006D0B0000F403201E1C279A07B50023E4
:10575C0000931A466FF07701FFF7D2F903B05DF8AA
:10576C0004FB000007B543880A2B08D0502B0BD143
:10577C00094B1B684BB103B05DF804EB1847FFF7FE
:10578C00E5FF03B05DF804FB002300931A466FF0AD
:10579C007701FFF7B5F9F4E7E4E6032010B51248FA
:1057AC000021FFF7E7F9114B1A68114B9A42114B84
:1057BC000CBF012200221A7001D0FFF7B1FFFFF7D6
:1057CC00D5F8044600F052FF0B4B13B12046AFF353
:1057DC00008000210848FFF711F9BDE81040074888
:1057EC000021FFF783B900BFD5560B0000F403204E
:1057FC001E1C279AE0E603200000000071570B00E6
:10580C00014B00229A607047E8E603200021FFF765
:10581C0065B90000024B1A68024B1A60704700BF52
:10582C00ECE40320F8E60320014B024A1A607047AF
:10583C00FCE60320106B0B00F8B506460D468F18DE
:10584C000024BD420CD0336815F8011B9B68304610
:10585C009847031E01DB1C44F3E7002C08BF1C46D1
:10586C002046F8BD13B50446084659B1019100F025
:10587C0073FF23680199DB680246204602B0BDE83D
:10588C001040184702B010BD03689B68184738B524
:10589C000D210546FFF7F8FF0A2104462846FFF7BD
:1058AC00F3FF204438BD38B50546FFF7DBFF04464F
:1058BC002846FFF7ECFF204438BD30B58BB00023F1
:1058CC00012A8DF8243098BF0A2209AC0D46B1FB91
:1058DC00F2F101FB125303F0FF03092B94BF303399
:1058EC003733DBB2AA4204F8013DEFD92146FFF76A
:1058FC00B9FF0BB030BD2DE9F04186B000AF0546C5
:10590C000E46381D142114463B60FFF71BF9132873
:10591C000ED8391D2846FFF7A5FF04461EB12846B0
:10592C00FFF7B5FF044420461837BD46BDE8F081AB
:10593C0000F1080323F00703E846ADEB030D224604
:10594C00411C3B686846FFF7FDF869462846FFF79F
:10595C0089FF0446C546E1E7024800230360FEF7D1
:10596C00FDBF00BF00E70320054B02221A60054B68
:10597C00054A9A600020C3E90000FFF7A7B800BFF2
:10598C0010E7032004E703200000FFFF002240681B
:10599C001146FFF773B8002240681146FFF77EB836
:1059AC0040680022FFF772B84068002281F00101C4
:1059BC00FFF75CB8002340681A461946FFF74EB84B
:1059CC00002340681A461946FFF740B80022406889
:1059DC001146FFF733B8002240681146FFF71EB896
:1059EC00406800220221FFF721B8002340681A46C4
:1059FC00FFF70CB8024B03225A60024A1A60704738
:105A0C0014E703201C6B0B007047000038B52025F1
:105A1C00142304460360856005610649284600F09E
:105A2C00D7F804496060284600F0D2F8E0602046C0
:105A3C0038BD00BF506B0B0030B50E4D2978BFF34D
:105A4C005B8F11F0010487B011D12846FEF721FBC2
:105A5C0068B101A8FFF7DAFF01AA21460648FFF753
:105A6C00BDFC2846FEF71AFB044800F0E3FD024893
:105A7C0007B030BD1CE7032020E70320155A0B00AC
:105A8C007047000038B5044614252A46002100F062
:105A9C00E5FD25804025074925812846258200F013
:105AAC0097F804496060284600F092F8E0602046C0
:105ABC0038BD00BF506B0B0030B50E4D2978BFF3CD
:105ACC005B8F11F0010487B011D12846FEF7E1FA83
:105ADC0068B101A8FFF7D6FF01AA21460648FFF7D7
:105AEC00CDFC2846FEF7DAFA044800F0A3FD024884
:105AFC0007B030BD38E703203CE703208D5A0B007C
:105B0C00232813B502D9002002B010BDA0F10B035D
:105B1C00022B1AD8174C2178BFF35B8F11F00101BF
:105B2C000BD120460191FEF7B4FA019928B1124825
:105B3C00FFF708FC2046FEF7B1FA0F4B1878FEF77A
:105B4C007DFE0028DFD10120DEE7012809D8FFF710
:105B5C0073FF0021007CFEF759FE80F00100C0B2FB
:105B6C00D2E709380128EED8FFF7A6FF007CFEF734
:105B7C00C5FEF2E750E7032054E70320232838B58D
:105B8C0004460D460AD8FF2908D0FFF7B9FF28B103
:105B9C0029462046BDE83840FEF700BF38BD38B571
:105BAC0004460D46FEF702FFFF2810D0062804D845
:105BBC004D2323FA00F0C30709D42046FFF7A0FFBA
:105BCC0028B129462046BDE83840FEF7F7BE38BD5F
:105BDC00FEF75BBA014900F0F9B800BF6C6B0B0023
:105BEC007FB500241023CDE90234036815469E6965
:105BFC0012686B46CDE90044B0479DF8043003F0C1
:105C0C000603062B03BF009B2B600120204604B02B
:105C1C0070BD0098904214BF012006207047000010
:105C2C0010B5034B0360044600F0CDF8204610BDC0
:105C3C00AC6B0B0010B50446FFF7F2FF20460821B1
:105C4C00FEF725FA204610BD2DE9F0411F46DDE98F
:105C5C000834DDF8188098450646154607D1079993
:105C6C0000F0B4F818B165710020BDE8F081394638
:105C7C00304600F0ABF80028F6D00123C4F80080C1
:105C8C002571A371F0E738B515461C4600F09EF857
:105C9C0020B10823E36006232560237138BD73B55A
:105CAC0005460C4601921E4600F090F850B9032EA2
:105CBC0008D82368019A5B692946204602B0BDE8E2
:105CCC007040184702B070BD10B5034B036004461A
:105CDC00FFF7A6FF204610BD0C6C0B0010B5044658
:105CEC00FFF7F2FF20460C21FEF7D1F9204610BD3C
:105CFC00F7B5089F974205460E4614460AD0A86889
:105D0C0002680897156A31462246AC4603B0BDE8D6
:105D1C00F04060471946019300F058F8019B0028A9
:105D2C00EDD0062003B0F0BD2DE9F14F0D4619461C
:105D3C00DDE90A4BDDE90CA681461746984600F0D2
:105D4C0045F890B1002D3460377109DB61198A4533
:105D5C000CBF06210121B171002001B0BDE8F08F0C
:105D6C000235F9D10123B371F6E7544506D15946F2
:105D7C00484600F02BF808B17771EDE7D9F8080028
:105D8C000368CDE90CA6CDE90A4BDC693A464346DB
:105D9C002946A44601B0BDE8F04F60472DE9F0411B
:105DAC0007460C4615461E46FFF76DFF48B9B86806
:105DBC0003689F692A4633462146BC46BDE8F0413C
:105DCC006047BDE8F081704700207047814208B5FC
:105DDC000ED0406803782A2B0CD049680B782A2BFC
:105DEC0008BF013100F0AEFCB0FA80F0400908BDEC
:105DFC000120FCE70020FAE781F0004102E000BF3F
:105E0C0083F0004330B54FEA41044FEA430594EA6E
:105E1C00050F08BF90EA020F1FBF54EA000C55EAA9
:105E2C00020C7FEA645C7FEA655C00F0E2804FEA7A
:105E3C005454D4EB5555B8BF6D420CDD2C4480EA5C
:105E4C00020281EA030382EA000083EA010180EA8C
:105E5C00020281EA0303362D88BF30BD11F0004FDA
:105E6C004FEA01314FF4801C4CEA113102D0404210
:105E7C0061EB410113F0004F4FEA03334CEA13334B
:105E8C0002D0524263EB430394EA050F00F0A78063
:105E9C00A4F10104D5F1200E0DDB02FA0EFC22FA5E
:105EAC0005F2801841F1000103FA0EF2801843FA52
:105EBC0005F359410EE0A5F120050EF1200E012A43
:105ECC0003FA0EFC28BF4CF0020C43FA05F3C01881
:105EDC0051EBE37101F0004507D54FF0000EDCF1FA
:105EEC00000C7EEB00006EEB0101B1F5801F1BD3A3
:105EFC00B1F5001F0CD349085FEA30004FEA3C0CA7
:105F0C0004F101044FEA445212F5800F80F09A809C
:105F1C00BCF1004F08BF5FEA500C50F1000041EBA0
:105F2C00045141EA050130BD5FEA4C0C404141EBA4
:105F3C000101013C28BFB1F5801FE9D291F0000F9F
:105F4C0004BF01460020B1FA81F308BF2033A3F14E
:105F5C000B03B3F120020CDA0C3208DD02F1140C45
:105F6C00C2F10C0201FA0CF021FA02F10CE002F180
:105F7C001402D8BFC2F1200C01FA02F120FA0CFC79
:105F8C00DCBF41EA0C019040E41AA2BF01EB0451C2
:105F9C00294330BD6FEA04041F3C1CDA0C340EDCC0
:105FAC0004F11404C4F1200220FA04F001FA02F303
:105FBC0040EA030021FA04F345EA030130BDC4F1C1
:105FCC000C04C4F1200220FA02F001FA04F340EAB6
:105FDC000300294630BD21FA04F0294630BD94F067
:105FEC00000F83F4801306BF81F480110134013D4E
:105FFC004EE77FEA645C18BF7FEA655C29D094EABF
:10600C00050F08BF90EA020F05D054EA000C04BF3C
:10601C001946104630BD91EA030F1EBF0021002027
:10602C0030BD5FEA545C05D14000494128BF41F0C6
:10603C00004130BD14F580043CBF01F5801130BD2A
:10604C0001F0004545F0FE4141F470014FF00000B5
:10605C0030BD7FEA645C1ABF194610467FEA655C66
:10606C001CBF0B46024650EA013406BF52EA033508
:10607C0091EA030F41F4002130BD00BF90F0000FF6
:10608C0004BF0021704730B54FF4806404F1320432
:10609C004FF000054FF0000150E700BF90F0000FEB
:1060AC0004BF0021704730B54FF4806404F1320412
:1060BC0010F0004548BF40424FF000013EE700BFE2
:1060CC0042004FEAE2014FEA31014FEA02701FBF72
:1060DC0012F07F4393F07F4F81F06051704732F0A4
:1060EC007F4208BF704793F07F4F04BF41F40021FB
:1060FC00704730B54FF4607401F0004521F0004159
:10610C001CE700BF50EA010208BF704730B54FF0E2
:10611C0000050AE050EA010208BF704730B511F0E3
:10612C00004502D5404261EB41014FF4806404F11B
:10613C0032045FEA915C3FF4D8AE4FF003025FEAA1
:10614C00DC0C18BF03325FEADC0C18BF033202EB25
:10615C00DC02C2F1200300FA03FC20FA02F001FA7F
:10616C0003FE40EA0E0021FA02F11444BDE600BF22
:10617C0070B54FF0FF0C4CF4E06C1CEA11541DBFD1
:10618C001CEA135594EA0C0F95EA0C0F00F0DEF89C
:10619C002C4481EA030621EA4C5123EA4C5350EA81
:1061AC00013518BF52EA033541F4801143F48013D2
:1061BC0038D0A0FB02CE4FF00005E1FB02E506F063
:1061CC000042E0FB03E54FF00006E1FB03569CF0B8
:1061DC00000F18BF4EF0010EA4F1FF04B6F5007FBE
:1061EC0064F5407404D25FEA4E0E6D4146EB060630
:1061FC0042EAC62141EA55514FEAC52040EA5E50B9
:10620C004FEACE2EB4F1FD0C88BFBCF5E06F1ED862
:10621C00BEF1004F08BF5FEA500E50F1000041EB99
:10622C00045170BD06F0004646EA010140EA020046
:10623C0081EA0301B4EB5C04C2BFD4EB0C0541EA68
:10624C00045170BD41F480114FF0000E013C00F37D
:10625C00AB8014F1360FDEBF002001F0004170BDA1
:10626C00C4F10004203C35DA0C341BDC04F11404BA
:10627C00C4F1200500FA05F320FA04F001FA05F246
:10628C0040EA020001F0004221F0004110EBD37013
:10629C0021FA04F642EB06015EEA430E08BF20EA3F
:1062AC00D37070BDC4F10C04C4F1200500FA04F3E2
:1062BC0020FA05F001FA04F240EA020001F0004174
:1062CC0010EBD37041F100015EEA430E08BF20EAE7
:1062DC00D37070BDC4F1200500FA05F24EEA020E2F
:1062EC0020FA04F301FA05F243EA020321FA04F05E
:1062FC0001F0004121FA04F220EA020000EBD37015
:10630C005EEA430E08BF20EAD37070BD94F0000F14
:10631C000FD101F00046400041EB010111F4801F48
:10632C0008BF013CF7D041EA060195F0000F18BFF9
:10633C00704703F00046520043EB030313F4801F35
:10634C0008BF013DF7D043EA0603704794EA0C0FEF
:10635C000CEA135518BF95EA0C0F0CD050EA410605
:10636C0018BF52EA4306D1D181EA030101F0004182
:10637C004FF0000070BD50EA410606BF10461946AA
:10638C0052EA430619D094EA0C0F02D150EA0136B6
:10639C0013D195EA0C0F05D152EA03361CBF1046F7
:1063AC0019460AD181EA030101F0004141F0FE4196
:1063BC0041F470014FF0000070BD41F0FE4141F41A
:1063CC00780170BD70B54FF0FF0C4CF4E06C1CEA1A
:1063DC0011541DBF1CEA135594EA0C0F95EA0C0FCF
:1063EC0000F0A7F8A4EB050481EA030E52EA03358A
:1063FC004FEA013100F088804FEA03334FF08055AB
:10640C0045EA131343EA12634FEA022245EA1115D7
:10641C0045EA10654FEA00260EF000419D4208BF88
:10642C00964244F1FD0404F5407402D25B084FEA35
:10643C003202B61A65EB03055B084FEA32024FF4E1
:10644C0080104FF4002CB6EB020E75EB030E22BF3E
:10645C00B61A754640EA0C005B084FEA3202B6EBFE
:10646C00020E75EB030E22BFB61A754640EA5C00AD
:10647C005B084FEA3202B6EB020E75EB030E22BF3D
:10648C00B61A754640EA9C005B084FEA3202B6EB3E
:10649C00020E75EB030E22BFB61A754640EADC00FD
:1064AC0055EA060E18D04FEA051545EA16754FEA5F
:1064BC0006164FEAC30343EA52734FEAC2025FEA7D
:1064CC001C1CC0D111F4801F0BD141EA00014FF00C
:1064DC0000004FF0004CB6E711F4801F04BF0143DD
:1064EC000020B4F1FD0C88BFBCF5E06F3FF6AFAEF9
:1064FC00B5EB030C04BFB6EB020C5FEA500C50F189
:10650C00000041EB045170BD0EF0004E4EEA11310B
:10651C0014EB5C04C2BFD4EB0C0541EA045170BD12
:10652C0041F480114FF0000E013C90E645EA060E56
:10653C008DE60CEA135594EA0C0F08BF95EA0C0F84
:10654C003FF43BAF94EA0C0F0AD150EA01347FF4CC
:10655C0034AF95EA0C0F7FF425AF104619462CE7A3
:10656C0095EA0C0F06D152EA03353FF4FDAE104606
:10657C00194622E750EA410618BF52EA43067FF457
:10658C00C5AE50EA41047FF40DAF52EA43057FF4E7
:10659C00EBAE12E74FEA4102B2F1E04324BFB3F590
:1065AC00001CDCF1FE5C0DD901F0004C4FEAC0027E
:1065BC004CEA5070B2F1004F40EB830008BF20F062
:1065CC000100704711F0804F21D113F13872BCBF1C
:1065DC0001F00040704741F480114FEA5252C2F171
:1065EC001802C2F1200C10FA0CF320FA02F018BFBA
:1065FC0040F001004FEAC1234FEAD32303FA0CFC0D
:10660C0040EA0C0023FA02F34FEA4303CCE77FEA9B
:10661C00625307D150EA01331EBF4FF0FE4040F4E5
:10662C004000704701F0004040F0FE4040F4000094
:10663C00704700BF002301461A46184600F094B874
:10664C000A44914200F1FF3300D1704710B511F8A4
:10665C00014B03F8014F9142F9D110BD024403469E
:10666C00934200D1704703F8011BF9E738B5104B82
:10667C001D68AB6B0446B3B91820FEF74BFA024603
:10668C00A86320B90B4B0C484221FEF76BFA0B495F
:10669C000B4BC0E900130B4B83600B238381002150
:1066AC000120C2E90401AB6B00221C615A6138BDA8
:1066BC00F0E40320456C0B005C6C0B000E33CDAB8F
:1066CC0034126DE6ECDE0500164B10B51C68A36B9E
:1066DC00B3B91820FEF71EFAA06328B90246124B74
:1066EC0012484E21FEF73EFA114A124BC0E9002324
:1066FC00114B83600B23838101220023C0E9042307
:10670C00A46B0E4A206963690D49424301FB0322C5
:10671C00A0FB0101431C42EB0100C4E9043020F052
:10672C00004010BDF0E40320456C0B005C6C0B00CA
:10673C000E33CDAB34126DE6ECDE05002DF4515862
:10674C002D7F954C10F8012B11F8013B012A28BF25
:10675C009A42F7D0D01A7047034613F8012B002A3F
:10676C00FBD1181A013870472DE9F843DFF8B880CF
:10677C000646D8F800001F460D46914600F056F824
:10678C00254B1C6834B9254C1C60254B13B11B6878
:10679C00C4F8883063681F2B07DDD8F8000000F0C0
:1067AC0047F84FF0FF30BDE8F8834EB3D4F88800BB
:1067BC0088B91C4B23B9D8F8000000F038F8F0E782
:1067CC004FF48470FEF7A6F90028F4D00023C0E93A
:1067DC004033C4F88800636840F8239001229A4043
:1067EC0000EB8301D0F800311343C0F80031022EC6
:1067FC00C1F8807002BFD0F804311343C0F80431E3
:10680C006368D8F800005A1C0233626044F82350C5
:10681C0000F00EF80020C6E7E8E703205CE7032051
:10682C0000000000214B0B0054E50320704770471B
:10683C00704700001D400B0059400B0081400B00BD
:10684C0085400B00000000007B227431223A252E7B
:10685C0032662C227432223A252E32667D006D71FE
:10686C0074744275663A2025730A73697A654F66AB
:10687C00286D717474427566293A2025692F6E0053
:10688C0076312F646576696365732F6D652F74653A
:10689C006C656D6574727900706C756D65436F6EA7
:1068AC006E65637428293A20417474656D7074693F
:1068BC006E6720746F20636F6E6E65637420746FE7
:1068CC00205468696E6773626F61726420736572BD
:1068DC0076657200796D565A6B71636C556A5036D9
:1068EC0062793356705A6543004172676F6E00705F
:1068FC006C756D65436F6E6E65637428293A204321
:10690C006F6E6E656374656400706C756D65436F56
:10691C006E6E65637428293A20436F6E6E656374DE
:10692C00696F6E206661696C65642C207265747287
:10693C007920696E2033207365636F6E6473002554
:10694C00730000044D51545404000000000000007A
:10695C0000000000914B0B009B4B0B00A54B0B0058
:10696C00AF4B0B00B94B0B00C54B0B00D14B0B00C5
:10697C00D94B0B00E14B0B00ED4B0B00F54B0B0017
:10698C00FF4B0B00094C0B00000000000000000046
:10699C00534D0B00494D0B003F4D0B00F54C0B00BC
:1069AC00334D0B00274D0B00D14B0B00D94B0B007B
:1069BC001B4D0B00134D0B00094D0B00FF4C0B0036
:1069CC00094C0B00776972696E67007265637620FB
:1069DC006572726F72203D2025640000000000007B
:1069EC0000000000F54D0B00194E0B004B530B0033
:1069FC00274E0B00F94D0B000000000000000000BA
:106A0C000000000000000000A54E0B00D94E0B004A
:106A1C00714D0B008B4D0B00E1510B00B54D0B0074
:106A2C0057500B00E94D0B00E9500B00294F0B00A0
:106A3C0085500B0095520B0025500B00EB4D0B00B5
:106A4C009D4D0B002D4E0B00094F0B00000000005C
:106A5C00000000008F530B00D9530B00B1530B00F7
:106A6C0091530B00B9530B00C1530B00C9530B00CE
:106A7C00D1530B0000000000000000000D540B006F
:106A8C0079540B0051540B0045580B0021540B004A
:106A9C003D540B002F540B004B540B000F540B00A8
:106AAC0013540B000000000000000000B7540B0052
:106ABC001F550B00F5540B0045580B00E7540B0009
:106ACC00B9540B00C9540B0019550B00D9540B00C9
:106ADC00B1540B000000000000000000C9550B0071
:106AEC00B9550B00BB550B0025592D256D2D256473
:106AFC005425483A254D3A2553257A006173637421
:106B0C00696D6500617070000000000000000000FD
:106B1C00F7590B00ED590B00E3590B00D9590B0039
:106B2C00CD590B00C1590B00D14B0B00D94B0B00AD
:106B3C00B5590B00AD590B00A3590B0099590B001B
:106B4C00094C0B0000537431395F53705F6D616BEE
:106B5C00655F7368617265645F7461670000000053
:106B6C00AC6B0B00516B0B000C6C0B00806B0B00B7
:106B7C00306C0B004E31305F5F6378786162697600
:106B8C003131375F5F636C6173735F747970655F0C
:106B9C00696E666F4500000000000000746B0B000E
:106BAC002D5C0B00415C0B00D55D0B00D55D0B0023
:106BBC00AB5C0B00ED5B0B00935C0B00555C0B00AE
:106BCC001F5C0B000C6C0B00DC6B0B00746B0B0074
:106BDC004E31305F5F637878616269763132305F55
:106BEC005F73695F636C6173735F747970655F6900
:106BFC006E666F450000000000000000D06B0B00BB
:106C0C00D55C0B00E95C0B00D55D0B00D55D0B0072
:106C1C00AB5C0B00ED5B0B00A95D0B00355D0B0055
:106C2C00FD5C0B00AC6B0B00386C0B0053743974AF
:106C3C007970655F696E666F005245454E54206DE4
:106C4C00616C6C6F63207375636365656465640068
:106C5C002F6D6E742F776F726B73706163652F7706
:106C6C006F726B73706163652F4743432D31302D09
:106C7C00706970656C696E652F6A656E6B696E7391
:106C8C002D4743432D31302D706970656C696E65ED
:106C9C002D34385F32303230313132345F3136306E
:106CAC00363138303634312F7372632F6E65776C12
:106CBC0069622F6E65776C69622F6C6962632F73E2
:106CCC0074646C69622F72616E642E630000000044
:106CDC006D420B00E14C0B005D4D0B000D580B0091
:106CEC0021580B0035580B0065590B0075590B00DA
:046CFC00015A0B002E
:046D0000000000008F
:106D0400017468696E6773626F6172642E636C6F7D
:106D14007564007B226669726D776172655F766562
:106D24007273696F6E223A22302E302E30222C225A
:106D3400736F6674776172655F76657273696F6E7F
:106D4400223A22302E30227D00000000086B0B0016
:106D5400F4E4032000000000000000000000000034
:106D6400000000000000000000000000000000001F
:106D7400000000000000000000000000000000000F
:106D840000000000000000000000000000000000FF
:106D940000000000000000000000000000000000EF
:106DA40000000000000000000000000000000000DF
:086DB40000000000ECE70320E1
:106DBC00FFFFFFFF00000102030405060708090A94
:106DCC000B0C0D0E0F101112131415161718191A8F
:086DDC001B1C1D1E1F202800D6
:046DE4007856341297
:04000003B000401CED
:00000001FF
